{
	"contracts/_BilboydLeasing.sol": {
		"CarLeasingNFT": {
			"abi": [
				{
					"inputs": [],
					"stateMutability": "nonpayable",
					"type": "constructor"
				},
				{
					"anonymous": false,
					"inputs": [
						{
							"indexed": true,
							"internalType": "address",
							"name": "from",
							"type": "address"
						},
						{
							"indexed": true,
							"internalType": "address",
							"name": "to",
							"type": "address"
						},
						{
							"indexed": true,
							"internalType": "uint256",
							"name": "tokenId",
							"type": "uint256"
						}
					],
					"name": "Transfer",
					"type": "event"
				},
				{
					"inputs": [
						{
							"internalType": "address",
							"name": "ownerAddress",
							"type": "address"
						}
					],
					"name": "balanceOf",
					"outputs": [
						{
							"internalType": "uint256",
							"name": "",
							"type": "uint256"
						}
					],
					"stateMutability": "view",
					"type": "function"
				},
				{
					"inputs": [
						{
							"internalType": "uint256",
							"name": "tokenId",
							"type": "uint256"
						},
						{
							"internalType": "uint256",
							"name": "driverExperienceYears",
							"type": "uint256"
						},
						{
							"internalType": "uint256",
							"name": "mileageCap",
							"type": "uint256"
						},
						{
							"internalType": "uint256",
							"name": "contractDurationMonths",
							"type": "uint256"
						}
					],
					"name": "computeMonthlyQuota",
					"outputs": [
						{
							"internalType": "uint256",
							"name": "",
							"type": "uint256"
						}
					],
					"stateMutability": "view",
					"type": "function"
				},
				{
					"inputs": [
						{
							"internalType": "uint256",
							"name": "tokenId",
							"type": "uint256"
						}
					],
					"name": "exists",
					"outputs": [
						{
							"internalType": "bool",
							"name": "",
							"type": "bool"
						}
					],
					"stateMutability": "view",
					"type": "function"
				},
				{
					"inputs": [
						{
							"internalType": "uint256",
							"name": "tokenId",
							"type": "uint256"
						}
					],
					"name": "getCarDetails",
					"outputs": [
						{
							"internalType": "string",
							"name": "model",
							"type": "string"
						},
						{
							"internalType": "string",
							"name": "color",
							"type": "string"
						},
						{
							"internalType": "uint256",
							"name": "registrationYear",
							"type": "uint256"
						},
						{
							"internalType": "uint256",
							"name": "originalValue",
							"type": "uint256"
						},
						{
							"internalType": "uint256",
							"name": "currentMileage",
							"type": "uint256"
						}
					],
					"stateMutability": "view",
					"type": "function"
				},
				{
					"inputs": [
						{
							"internalType": "address",
							"name": "to",
							"type": "address"
						},
						{
							"internalType": "string",
							"name": "model",
							"type": "string"
						},
						{
							"internalType": "string",
							"name": "color",
							"type": "string"
						},
						{
							"internalType": "uint256",
							"name": "registrationYear",
							"type": "uint256"
						},
						{
							"internalType": "uint256",
							"name": "originalValue",
							"type": "uint256"
						},
						{
							"internalType": "uint256",
							"name": "currentMileage",
							"type": "uint256"
						}
					],
					"name": "mintCar",
					"outputs": [
						{
							"internalType": "uint256",
							"name": "",
							"type": "uint256"
						}
					],
					"stateMutability": "nonpayable",
					"type": "function"
				},
				{
					"inputs": [],
					"name": "name",
					"outputs": [
						{
							"internalType": "string",
							"name": "",
							"type": "string"
						}
					],
					"stateMutability": "view",
					"type": "function"
				},
				{
					"inputs": [
						{
							"internalType": "uint256",
							"name": "tokenId",
							"type": "uint256"
						}
					],
					"name": "ownerOf",
					"outputs": [
						{
							"internalType": "address",
							"name": "",
							"type": "address"
						}
					],
					"stateMutability": "view",
					"type": "function"
				},
				{
					"inputs": [],
					"name": "symbol",
					"outputs": [
						{
							"internalType": "string",
							"name": "",
							"type": "string"
						}
					],
					"stateMutability": "view",
					"type": "function"
				}
			],
			"devdoc": {
				"kind": "dev",
				"methods": {
					"balanceOf(address)": {
						"params": {
							"ownerAddress": "- The address to be checked"
						},
						"returns": {
							"_0": "balance of the address"
						}
					},
					"computeMonthlyQuota(uint256,uint256,uint256,uint256)": {
						"params": {
							"contractDurationMonths": "- the duration of the contract in months",
							"driverExperienceYears": "- the years of driving experience of the leaser in years",
							"mileageCap": "- the milage cap specified in the contract "
						},
						"returns": {
							"_0": "A quota calculated from the input params"
						}
					},
					"exists(uint256)": {
						"returns": {
							"_0": "true if exists, else dfalse"
						}
					},
					"getCarDetails(uint256)": {
						"params": {
							"tokenId": "- The token ID the car details are to be fetched from"
						}
					},
					"mintCar(address,string,string,uint256,uint256,uint256)": {
						"params": {
							"color": "- The color of the car",
							"currentMileage": "- The current milage of the car",
							"model": "- The car model",
							"originalValue": "- The original car value at production",
							"registrationYear": "- The year the car was registrered",
							"to": "- The address th car is to be minted"
						},
						"returns": {
							"_0": "A quota calculated from the input params"
						}
					},
					"name()": {
						"returns": {
							"_0": "the token name"
						}
					},
					"ownerOf(uint256)": {
						"params": {
							"tokenId": "- The token ID the address is to be found"
						},
						"returns": {
							"_0": "ownerAddres of the given input"
						}
					},
					"symbol()": {
						"returns": {
							"_0": "the token symbol"
						}
					}
				},
				"version": 1
			},
			"evm": {
				"assembly": "    /* \"contracts/_BilboydLeasing.sol\":70:6310  contract CarLeasingNFT {... */\n  mstore(0x40, 0x80)\n    /* \"contracts/_BilboydLeasing.sol\":996:1109  constructor() {... */\n  callvalue\n  dup1\n  iszero\n  tag_1\n  jumpi\n  0x00\n  dup1\n  revert\ntag_1:\n  pop\n    /* \"contracts/_BilboydLeasing.sol\":1020:1044  tokenName = \"BilBoydCar\" */\n  mload(0x40)\n  dup1\n  0x40\n  add\n  0x40\n  mstore\n  dup1\n  0x0a\n  dup2\n  mstore\n  0x20\n  add\n  0x42696c426f796443617200000000000000000000000000000000000000000000\n  dup2\n  mstore\n  pop\n    /* \"contracts/_BilboydLeasing.sol\":1020:1029  tokenName */\n  0x02\n    /* \"contracts/_BilboydLeasing.sol\":1020:1044  tokenName = \"BilBoydCar\" */\n  swap1\n  dup2\n  tag_4\n  swap2\n  swap1\n  tag_5\n  jump\t// in\ntag_4:\n  pop\n    /* \"contracts/_BilboydLeasing.sol\":1054:1073  tokenSymbol = \"BBC\" */\n  mload(0x40)\n  dup1\n  0x40\n  add\n  0x40\n  mstore\n  dup1\n  0x03\n  dup2\n  mstore\n  0x20\n  add\n  0x4242430000000000000000000000000000000000000000000000000000000000\n  dup2\n  mstore\n  pop\n    /* \"contracts/_BilboydLeasing.sol\":1054:1065  tokenSymbol */\n  0x03\n    /* \"contracts/_BilboydLeasing.sol\":1054:1073  tokenSymbol = \"BBC\" */\n  swap1\n  dup2\n  tag_6\n  swap2\n  swap1\n  tag_5\n  jump\t// in\ntag_6:\n  pop\n    /* \"contracts/_BilboydLeasing.sol\":1092:1102  msg.sender */\n  caller\n    /* \"contracts/_BilboydLeasing.sol\":1083:1089  _owner */\n  0x06\n  0x00\n    /* \"contracts/_BilboydLeasing.sol\":1083:1102  _owner = msg.sender */\n  0x0100\n  exp\n  dup2\n  sload\n  dup2\n  0xffffffffffffffffffffffffffffffffffffffff\n  mul\n  not\n  and\n  swap1\n  dup4\n  0xffffffffffffffffffffffffffffffffffffffff\n  and\n  mul\n  or\n  swap1\n  sstore\n  pop\n    /* \"contracts/_BilboydLeasing.sol\":70:6310  contract CarLeasingNFT {... */\n  jump(tag_7)\n    /* \"#utility.yul\":7:106   */\ntag_8:\n    /* \"#utility.yul\":59:65   */\n  0x00\n    /* \"#utility.yul\":93:98   */\n  dup2\n    /* \"#utility.yul\":87:99   */\n  mload\n    /* \"#utility.yul\":77:99   */\n  swap1\n  pop\n    /* \"#utility.yul\":7:106   */\n  swap2\n  swap1\n  pop\n  jump\t// out\n    /* \"#utility.yul\":112:292   */\ntag_9:\n    /* \"#utility.yul\":160:237   */\n  0x4e487b7100000000000000000000000000000000000000000000000000000000\n    /* \"#utility.yul\":157:158   */\n  0x00\n    /* \"#utility.yul\":150:238   */\n  mstore\n    /* \"#utility.yul\":257:261   */\n  0x41\n    /* \"#utility.yul\":254:255   */\n  0x04\n    /* \"#utility.yul\":247:262   */\n  mstore\n    /* \"#utility.yul\":281:285   */\n  0x24\n    /* \"#utility.yul\":278:279   */\n  0x00\n    /* \"#utility.yul\":271:286   */\n  revert\n    /* \"#utility.yul\":298:478   */\ntag_10:\n    /* \"#utility.yul\":346:423   */\n  0x4e487b7100000000000000000000000000000000000000000000000000000000\n    /* \"#utility.yul\":343:344   */\n  0x00\n    /* \"#utility.yul\":336:424   */\n  mstore\n    /* \"#utility.yul\":443:447   */\n  0x22\n    /* \"#utility.yul\":440:441   */\n  0x04\n    /* \"#utility.yul\":433:448   */\n  mstore\n    /* \"#utility.yul\":467:471   */\n  0x24\n    /* \"#utility.yul\":464:465   */\n  0x00\n    /* \"#utility.yul\":457:472   */\n  revert\n    /* \"#utility.yul\":484:804   */\ntag_11:\n    /* \"#utility.yul\":528:534   */\n  0x00\n    /* \"#utility.yul\":565:566   */\n  0x02\n    /* \"#utility.yul\":559:563   */\n  dup3\n    /* \"#utility.yul\":555:567   */\n  div\n    /* \"#utility.yul\":545:567   */\n  swap1\n  pop\n    /* \"#utility.yul\":612:613   */\n  0x01\n    /* \"#utility.yul\":606:610   */\n  dup3\n    /* \"#utility.yul\":602:614   */\n  and\n    /* \"#utility.yul\":633:651   */\n  dup1\n    /* \"#utility.yul\":623:704   */\n  tag_33\n  jumpi\n    /* \"#utility.yul\":689:693   */\n  0x7f\n    /* \"#utility.yul\":681:687   */\n  dup3\n    /* \"#utility.yul\":677:694   */\n  and\n    /* \"#utility.yul\":667:694   */\n  swap2\n  pop\n    /* \"#utility.yul\":623:704   */\ntag_33:\n    /* \"#utility.yul\":751:753   */\n  0x20\n    /* \"#utility.yul\":743:749   */\n  dup3\n    /* \"#utility.yul\":740:754   */\n  lt\n    /* \"#utility.yul\":720:738   */\n  dup2\n    /* \"#utility.yul\":717:755   */\n  sub\n    /* \"#utility.yul\":714:798   */\n  tag_34\n  jumpi\n    /* \"#utility.yul\":770:788   */\n  tag_35\n  tag_10\n  jump\t// in\ntag_35:\n    /* \"#utility.yul\":714:798   */\ntag_34:\n    /* \"#utility.yul\":535:804   */\n  pop\n    /* \"#utility.yul\":484:804   */\n  swap2\n  swap1\n  pop\n  jump\t// out\n    /* \"#utility.yul\":810:951   */\ntag_12:\n    /* \"#utility.yul\":859:863   */\n  0x00\n    /* \"#utility.yul\":882:885   */\n  dup2\n    /* \"#utility.yul\":874:885   */\n  swap1\n  pop\n    /* \"#utility.yul\":905:908   */\n  dup2\n    /* \"#utility.yul\":902:903   */\n  0x00\n    /* \"#utility.yul\":895:909   */\n  mstore\n    /* \"#utility.yul\":939:943   */\n  0x20\n    /* \"#utility.yul\":936:937   */\n  0x00\n    /* \"#utility.yul\":926:944   */\n  keccak256\n    /* \"#utility.yul\":918:944   */\n  swap1\n  pop\n    /* \"#utility.yul\":810:951   */\n  swap2\n  swap1\n  pop\n  jump\t// out\n    /* \"#utility.yul\":957:1050   */\ntag_13:\n    /* \"#utility.yul\":994:1000   */\n  0x00\n    /* \"#utility.yul\":1041:1043   */\n  0x20\n    /* \"#utility.yul\":1036:1038   */\n  0x1f\n    /* \"#utility.yul\":1029:1034   */\n  dup4\n    /* \"#utility.yul\":1025:1039   */\n  add\n    /* \"#utility.yul\":1021:1044   */\n  div\n    /* \"#utility.yul\":1011:1044   */\n  swap1\n  pop\n    /* \"#utility.yul\":957:1050   */\n  swap2\n  swap1\n  pop\n  jump\t// out\n    /* \"#utility.yul\":1056:1163   */\ntag_14:\n    /* \"#utility.yul\":1100:1108   */\n  0x00\n    /* \"#utility.yul\":1150:1155   */\n  dup3\n    /* \"#utility.yul\":1144:1148   */\n  dup3\n    /* \"#utility.yul\":1140:1156   */\n  shl\n    /* \"#utility.yul\":1119:1156   */\n  swap1\n  pop\n    /* \"#utility.yul\":1056:1163   */\n  swap3\n  swap2\n  pop\n  pop\n  jump\t// out\n    /* \"#utility.yul\":1169:1562   */\ntag_15:\n    /* \"#utility.yul\":1238:1244   */\n  0x00\n    /* \"#utility.yul\":1288:1289   */\n  0x08\n    /* \"#utility.yul\":1276:1286   */\n  dup4\n    /* \"#utility.yul\":1272:1290   */\n  mul\n    /* \"#utility.yul\":1311:1408   */\n  tag_40\n    /* \"#utility.yul\":1341:1407   */\n  0xffffffffffffffffffffffffffffffffffffffffffffffffffffffffffffffff\n    /* \"#utility.yul\":1330:1339   */\n  dup3\n    /* \"#utility.yul\":1311:1408   */\n  tag_14\n  jump\t// in\ntag_40:\n    /* \"#utility.yul\":1429:1468   */\n  tag_41\n    /* \"#utility.yul\":1459:1467   */\n  dup7\n    /* \"#utility.yul\":1448:1457   */\n  dup4\n    /* \"#utility.yul\":1429:1468   */\n  tag_14\n  jump\t// in\ntag_41:\n    /* \"#utility.yul\":1417:1468   */\n  swap6\n  pop\n    /* \"#utility.yul\":1501:1505   */\n  dup1\n    /* \"#utility.yul\":1497:1506   */\n  not\n    /* \"#utility.yul\":1490:1495   */\n  dup5\n    /* \"#utility.yul\":1486:1507   */\n  and\n    /* \"#utility.yul\":1477:1507   */\n  swap4\n  pop\n    /* \"#utility.yul\":1550:1554   */\n  dup1\n    /* \"#utility.yul\":1540:1548   */\n  dup7\n    /* \"#utility.yul\":1536:1555   */\n  and\n    /* \"#utility.yul\":1529:1534   */\n  dup5\n    /* \"#utility.yul\":1526:1556   */\n  or\n    /* \"#utility.yul\":1516:1556   */\n  swap3\n  pop\n    /* \"#utility.yul\":1245:1562   */\n  pop\n  pop\n    /* \"#utility.yul\":1169:1562   */\n  swap4\n  swap3\n  pop\n  pop\n  pop\n  jump\t// out\n    /* \"#utility.yul\":1568:1645   */\ntag_16:\n    /* \"#utility.yul\":1605:1612   */\n  0x00\n    /* \"#utility.yul\":1634:1639   */\n  dup2\n    /* \"#utility.yul\":1623:1639   */\n  swap1\n  pop\n    /* \"#utility.yul\":1568:1645   */\n  swap2\n  swap1\n  pop\n  jump\t// out\n    /* \"#utility.yul\":1651:1711   */\ntag_17:\n    /* \"#utility.yul\":1679:1682   */\n  0x00\n    /* \"#utility.yul\":1700:1705   */\n  dup2\n    /* \"#utility.yul\":1693:1705   */\n  swap1\n  pop\n    /* \"#utility.yul\":1651:1711   */\n  swap2\n  swap1\n  pop\n  jump\t// out\n    /* \"#utility.yul\":1717:1859   */\ntag_18:\n    /* \"#utility.yul\":1767:1776   */\n  0x00\n    /* \"#utility.yul\":1800:1853   */\n  tag_45\n    /* \"#utility.yul\":1818:1852   */\n  tag_46\n    /* \"#utility.yul\":1827:1851   */\n  tag_47\n    /* \"#utility.yul\":1845:1850   */\n  dup5\n    /* \"#utility.yul\":1827:1851   */\n  tag_16\n  jump\t// in\ntag_47:\n    /* \"#utility.yul\":1818:1852   */\n  tag_17\n  jump\t// in\ntag_46:\n    /* \"#utility.yul\":1800:1853   */\n  tag_16\n  jump\t// in\ntag_45:\n    /* \"#utility.yul\":1787:1853   */\n  swap1\n  pop\n    /* \"#utility.yul\":1717:1859   */\n  swap2\n  swap1\n  pop\n  jump\t// out\n    /* \"#utility.yul\":1865:1940   */\ntag_19:\n    /* \"#utility.yul\":1908:1911   */\n  0x00\n    /* \"#utility.yul\":1929:1934   */\n  dup2\n    /* \"#utility.yul\":1922:1934   */\n  swap1\n  pop\n    /* \"#utility.yul\":1865:1940   */\n  swap2\n  swap1\n  pop\n  jump\t// out\n    /* \"#utility.yul\":1946:2215   */\ntag_20:\n    /* \"#utility.yul\":2056:2095   */\n  tag_50\n    /* \"#utility.yul\":2087:2094   */\n  dup4\n    /* \"#utility.yul\":2056:2095   */\n  tag_18\n  jump\t// in\ntag_50:\n    /* \"#utility.yul\":2117:2208   */\n  tag_51\n    /* \"#utility.yul\":2166:2207   */\n  tag_52\n    /* \"#utility.yul\":2190:2206   */\n  dup3\n    /* \"#utility.yul\":2166:2207   */\n  tag_19\n  jump\t// in\ntag_52:\n    /* \"#utility.yul\":2158:2164   */\n  dup5\n    /* \"#utility.yul\":2151:2155   */\n  dup5\n    /* \"#utility.yul\":2145:2156   */\n  sload\n    /* \"#utility.yul\":2117:2208   */\n  tag_15\n  jump\t// in\ntag_51:\n    /* \"#utility.yul\":2111:2115   */\n  dup3\n    /* \"#utility.yul\":2104:2209   */\n  sstore\n    /* \"#utility.yul\":2022:2215   */\n  pop\n    /* \"#utility.yul\":1946:2215   */\n  pop\n  pop\n  pop\n  jump\t// out\n    /* \"#utility.yul\":2221:2294   */\ntag_21:\n    /* \"#utility.yul\":2266:2269   */\n  0x00\n    /* \"#utility.yul\":2221:2294   */\n  swap1\n  jump\t// out\n    /* \"#utility.yul\":2300:2489   */\ntag_22:\n    /* \"#utility.yul\":2377:2409   */\n  tag_55\n  tag_21\n  jump\t// in\ntag_55:\n    /* \"#utility.yul\":2418:2483   */\n  tag_56\n    /* \"#utility.yul\":2476:2482   */\n  dup2\n    /* \"#utility.yul\":2468:2474   */\n  dup5\n    /* \"#utility.yul\":2462:2466   */\n  dup5\n    /* \"#utility.yul\":2418:2483   */\n  tag_20\n  jump\t// in\ntag_56:\n    /* \"#utility.yul\":2353:2489   */\n  pop\n    /* \"#utility.yul\":2300:2489   */\n  pop\n  pop\n  jump\t// out\n    /* \"#utility.yul\":2495:2681   */\ntag_23:\n    /* \"#utility.yul\":2555:2675   */\ntag_58:\n    /* \"#utility.yul\":2572:2575   */\n  dup2\n    /* \"#utility.yul\":2565:2570   */\n  dup2\n    /* \"#utility.yul\":2562:2576   */\n  lt\n    /* \"#utility.yul\":2555:2675   */\n  iszero\n  tag_60\n  jumpi\n    /* \"#utility.yul\":2626:2665   */\n  tag_61\n    /* \"#utility.yul\":2663:2664   */\n  0x00\n    /* \"#utility.yul\":2656:2661   */\n  dup3\n    /* \"#utility.yul\":2626:2665   */\n  tag_22\n  jump\t// in\ntag_61:\n    /* \"#utility.yul\":2599:2600   */\n  0x01\n    /* \"#utility.yul\":2592:2597   */\n  dup2\n    /* \"#utility.yul\":2588:2601   */\n  add\n    /* \"#utility.yul\":2579:2601   */\n  swap1\n  pop\n    /* \"#utility.yul\":2555:2675   */\n  jump(tag_58)\ntag_60:\n    /* \"#utility.yul\":2495:2681   */\n  pop\n  pop\n  jump\t// out\n    /* \"#utility.yul\":2687:3230   */\ntag_24:\n    /* \"#utility.yul\":2788:2790   */\n  0x1f\n    /* \"#utility.yul\":2783:2786   */\n  dup3\n    /* \"#utility.yul\":2780:2791   */\n  gt\n    /* \"#utility.yul\":2777:3223   */\n  iszero\n  tag_63\n  jumpi\n    /* \"#utility.yul\":2822:2860   */\n  tag_64\n    /* \"#utility.yul\":2854:2859   */\n  dup2\n    /* \"#utility.yul\":2822:2860   */\n  tag_12\n  jump\t// in\ntag_64:\n    /* \"#utility.yul\":2906:2935   */\n  tag_65\n    /* \"#utility.yul\":2924:2934   */\n  dup5\n    /* \"#utility.yul\":2906:2935   */\n  tag_13\n  jump\t// in\ntag_65:\n    /* \"#utility.yul\":2896:2904   */\n  dup2\n    /* \"#utility.yul\":2892:2936   */\n  add\n    /* \"#utility.yul\":3089:3091   */\n  0x20\n    /* \"#utility.yul\":3077:3087   */\n  dup6\n    /* \"#utility.yul\":3074:3092   */\n  lt\n    /* \"#utility.yul\":3071:3120   */\n  iszero\n  tag_66\n  jumpi\n    /* \"#utility.yul\":3110:3118   */\n  dup2\n    /* \"#utility.yul\":3095:3118   */\n  swap1\n  pop\n    /* \"#utility.yul\":3071:3120   */\ntag_66:\n    /* \"#utility.yul\":3133:3213   */\n  tag_67\n    /* \"#utility.yul\":3189:3211   */\n  tag_68\n    /* \"#utility.yul\":3207:3210   */\n  dup6\n    /* \"#utility.yul\":3189:3211   */\n  tag_13\n  jump\t// in\ntag_68:\n    /* \"#utility.yul\":3179:3187   */\n  dup4\n    /* \"#utility.yul\":3175:3212   */\n  add\n    /* \"#utility.yul\":3162:3173   */\n  dup3\n    /* \"#utility.yul\":3133:3213   */\n  tag_23\n  jump\t// in\ntag_67:\n    /* \"#utility.yul\":2792:3223   */\n  pop\n  pop\n    /* \"#utility.yul\":2777:3223   */\ntag_63:\n    /* \"#utility.yul\":2687:3230   */\n  pop\n  pop\n  pop\n  jump\t// out\n    /* \"#utility.yul\":3236:3353   */\ntag_25:\n    /* \"#utility.yul\":3290:3298   */\n  0x00\n    /* \"#utility.yul\":3340:3345   */\n  dup3\n    /* \"#utility.yul\":3334:3338   */\n  dup3\n    /* \"#utility.yul\":3330:3346   */\n  shr\n    /* \"#utility.yul\":3309:3346   */\n  swap1\n  pop\n    /* \"#utility.yul\":3236:3353   */\n  swap3\n  swap2\n  pop\n  pop\n  jump\t// out\n    /* \"#utility.yul\":3359:3528   */\ntag_26:\n    /* \"#utility.yul\":3403:3409   */\n  0x00\n    /* \"#utility.yul\":3436:3487   */\n  tag_71\n    /* \"#utility.yul\":3484:3485   */\n  0x00\n    /* \"#utility.yul\":3480:3486   */\n  not\n    /* \"#utility.yul\":3472:3477   */\n  dup5\n    /* \"#utility.yul\":3469:3470   */\n  0x08\n    /* \"#utility.yul\":3465:3478   */\n  mul\n    /* \"#utility.yul\":3436:3487   */\n  tag_25\n  jump\t// in\ntag_71:\n    /* \"#utility.yul\":3432:3488   */\n  not\n    /* \"#utility.yul\":3517:3521   */\n  dup1\n    /* \"#utility.yul\":3511:3515   */\n  dup4\n    /* \"#utility.yul\":3507:3522   */\n  and\n    /* \"#utility.yul\":3497:3522   */\n  swap2\n  pop\n    /* \"#utility.yul\":3410:3528   */\n  pop\n    /* \"#utility.yul\":3359:3528   */\n  swap3\n  swap2\n  pop\n  pop\n  jump\t// out\n    /* \"#utility.yul\":3533:3828   */\ntag_27:\n    /* \"#utility.yul\":3609:3613   */\n  0x00\n    /* \"#utility.yul\":3755:3784   */\n  tag_73\n    /* \"#utility.yul\":3780:3783   */\n  dup4\n    /* \"#utility.yul\":3774:3778   */\n  dup4\n    /* \"#utility.yul\":3755:3784   */\n  tag_26\n  jump\t// in\ntag_73:\n    /* \"#utility.yul\":3747:3784   */\n  swap2\n  pop\n    /* \"#utility.yul\":3817:3820   */\n  dup3\n    /* \"#utility.yul\":3814:3815   */\n  0x02\n    /* \"#utility.yul\":3810:3821   */\n  mul\n    /* \"#utility.yul\":3804:3808   */\n  dup3\n    /* \"#utility.yul\":3801:3822   */\n  or\n    /* \"#utility.yul\":3793:3822   */\n  swap1\n  pop\n    /* \"#utility.yul\":3533:3828   */\n  swap3\n  swap2\n  pop\n  pop\n  jump\t// out\n    /* \"#utility.yul\":3833:5228   */\ntag_5:\n    /* \"#utility.yul\":3950:3987   */\n  tag_75\n    /* \"#utility.yul\":3983:3986   */\n  dup3\n    /* \"#utility.yul\":3950:3987   */\n  tag_8\n  jump\t// in\ntag_75:\n    /* \"#utility.yul\":4052:4070   */\n  0xffffffffffffffff\n    /* \"#utility.yul\":4044:4050   */\n  dup2\n    /* \"#utility.yul\":4041:4071   */\n  gt\n    /* \"#utility.yul\":4038:4094   */\n  iszero\n  tag_76\n  jumpi\n    /* \"#utility.yul\":4074:4092   */\n  tag_77\n  tag_9\n  jump\t// in\ntag_77:\n    /* \"#utility.yul\":4038:4094   */\ntag_76:\n    /* \"#utility.yul\":4118:4156   */\n  tag_78\n    /* \"#utility.yul\":4150:4154   */\n  dup3\n    /* \"#utility.yul\":4144:4155   */\n  sload\n    /* \"#utility.yul\":4118:4156   */\n  tag_11\n  jump\t// in\ntag_78:\n    /* \"#utility.yul\":4203:4270   */\n  tag_79\n    /* \"#utility.yul\":4263:4269   */\n  dup3\n    /* \"#utility.yul\":4255:4261   */\n  dup3\n    /* \"#utility.yul\":4249:4253   */\n  dup6\n    /* \"#utility.yul\":4203:4270   */\n  tag_24\n  jump\t// in\ntag_79:\n    /* \"#utility.yul\":4297:4298   */\n  0x00\n    /* \"#utility.yul\":4321:4325   */\n  0x20\n    /* \"#utility.yul\":4308:4325   */\n  swap1\n  pop\n    /* \"#utility.yul\":4353:4355   */\n  0x1f\n    /* \"#utility.yul\":4345:4351   */\n  dup4\n    /* \"#utility.yul\":4342:4356   */\n  gt\n    /* \"#utility.yul\":4370:4371   */\n  0x01\n    /* \"#utility.yul\":4365:4983   */\n  dup2\n  eq\n  tag_81\n  jumpi\n    /* \"#utility.yul\":5027:5028   */\n  0x00\n    /* \"#utility.yul\":5044:5050   */\n  dup5\n    /* \"#utility.yul\":5041:5118   */\n  iszero\n  tag_82\n  jumpi\n    /* \"#utility.yul\":5093:5102   */\n  dup3\n    /* \"#utility.yul\":5088:5091   */\n  dup8\n    /* \"#utility.yul\":5084:5103   */\n  add\n    /* \"#utility.yul\":5078:5104   */\n  mload\n    /* \"#utility.yul\":5069:5104   */\n  swap1\n  pop\n    /* \"#utility.yul\":5041:5118   */\ntag_82:\n    /* \"#utility.yul\":5144:5211   */\n  tag_83\n    /* \"#utility.yul\":5204:5210   */\n  dup6\n    /* \"#utility.yul\":5197:5202   */\n  dup3\n    /* \"#utility.yul\":5144:5211   */\n  tag_27\n  jump\t// in\ntag_83:\n    /* \"#utility.yul\":5138:5142   */\n  dup7\n    /* \"#utility.yul\":5131:5212   */\n  sstore\n    /* \"#utility.yul\":5000:5222   */\n  pop\n    /* \"#utility.yul\":4335:5222   */\n  jump(tag_80)\n    /* \"#utility.yul\":4365:4983   */\ntag_81:\n    /* \"#utility.yul\":4417:4421   */\n  0x1f\n    /* \"#utility.yul\":4413:4422   */\n  not\n    /* \"#utility.yul\":4405:4411   */\n  dup5\n    /* \"#utility.yul\":4401:4423   */\n  and\n    /* \"#utility.yul\":4451:4488   */\n  tag_84\n    /* \"#utility.yul\":4483:4487   */\n  dup7\n    /* \"#utility.yul\":4451:4488   */\n  tag_12\n  jump\t// in\ntag_84:\n    /* \"#utility.yul\":4510:4511   */\n  0x00\n    /* \"#utility.yul\":4524:4732   */\ntag_85:\n    /* \"#utility.yul\":4538:4545   */\n  dup3\n    /* \"#utility.yul\":4535:4536   */\n  dup2\n    /* \"#utility.yul\":4532:4546   */\n  lt\n    /* \"#utility.yul\":4524:4732   */\n  iszero\n  tag_87\n  jumpi\n    /* \"#utility.yul\":4617:4626   */\n  dup5\n    /* \"#utility.yul\":4612:4615   */\n  dup10\n    /* \"#utility.yul\":4608:4627   */\n  add\n    /* \"#utility.yul\":4602:4628   */\n  mload\n    /* \"#utility.yul\":4594:4600   */\n  dup3\n    /* \"#utility.yul\":4587:4629   */\n  sstore\n    /* \"#utility.yul\":4668:4669   */\n  0x01\n    /* \"#utility.yul\":4660:4666   */\n  dup3\n    /* \"#utility.yul\":4656:4670   */\n  add\n    /* \"#utility.yul\":4646:4670   */\n  swap2\n  pop\n    /* \"#utility.yul\":4715:4717   */\n  0x20\n    /* \"#utility.yul\":4704:4713   */\n  dup6\n    /* \"#utility.yul\":4700:4718   */\n  add\n    /* \"#utility.yul\":4687:4718   */\n  swap5\n  pop\n    /* \"#utility.yul\":4561:4565   */\n  0x20\n    /* \"#utility.yul\":4558:4559   */\n  dup2\n    /* \"#utility.yul\":4554:4566   */\n  add\n    /* \"#utility.yul\":4549:4566   */\n  swap1\n  pop\n    /* \"#utility.yul\":4524:4732   */\n  jump(tag_85)\ntag_87:\n    /* \"#utility.yul\":4760:4766   */\n  dup7\n    /* \"#utility.yul\":4751:4758   */\n  dup4\n    /* \"#utility.yul\":4748:4767   */\n  lt\n    /* \"#utility.yul\":4745:4924   */\n  iszero\n  tag_88\n  jumpi\n    /* \"#utility.yul\":4818:4827   */\n  dup5\n    /* \"#utility.yul\":4813:4816   */\n  dup10\n    /* \"#utility.yul\":4809:4828   */\n  add\n    /* \"#utility.yul\":4803:4829   */\n  mload\n    /* \"#utility.yul\":4861:4909   */\n  tag_89\n    /* \"#utility.yul\":4903:4907   */\n  0x1f\n    /* \"#utility.yul\":4895:4901   */\n  dup10\n    /* \"#utility.yul\":4891:4908   */\n  and\n    /* \"#utility.yul\":4880:4889   */\n  dup3\n    /* \"#utility.yul\":4861:4909   */\n  tag_26\n  jump\t// in\ntag_89:\n    /* \"#utility.yul\":4853:4859   */\n  dup4\n    /* \"#utility.yul\":4846:4910   */\n  sstore\n    /* \"#utility.yul\":4768:4924   */\n  pop\n    /* \"#utility.yul\":4745:4924   */\ntag_88:\n    /* \"#utility.yul\":4970:4971   */\n  0x01\n    /* \"#utility.yul\":4966:4967   */\n  0x02\n    /* \"#utility.yul\":4958:4964   */\n  dup9\n    /* \"#utility.yul\":4954:4968   */\n  mul\n    /* \"#utility.yul\":4950:4972   */\n  add\n    /* \"#utility.yul\":4944:4948   */\n  dup9\n    /* \"#utility.yul\":4937:4973   */\n  sstore\n    /* \"#utility.yul\":4372:4983   */\n  pop\n  pop\n  pop\n    /* \"#utility.yul\":4335:5222   */\ntag_80:\n  pop\n    /* \"#utility.yul\":3925:5228   */\n  pop\n  pop\n  pop\n    /* \"#utility.yul\":3833:5228   */\n  pop\n  pop\n  jump\t// out\n    /* \"contracts/_BilboydLeasing.sol\":70:6310  contract CarLeasingNFT {... */\ntag_7:\n  dataSize(sub_0)\n  dup1\n  dataOffset(sub_0)\n  0x00\n  codecopy\n  0x00\n  return\nstop\n\nsub_0: assembly {\n        /* \"contracts/_BilboydLeasing.sol\":70:6310  contract CarLeasingNFT {... */\n      mstore(0x40, 0x80)\n      callvalue\n      dup1\n      iszero\n      tag_1\n      jumpi\n      0x00\n      dup1\n      revert\n    tag_1:\n      pop\n      jumpi(tag_2, lt(calldatasize, 0x04))\n      shr(0xe0, calldataload(0x00))\n      dup1\n      0x70a08231\n      gt\n      tag_11\n      jumpi\n      dup1\n      0x70a08231\n      eq\n      tag_7\n      jumpi\n      dup1\n      0x75bb48fe\n      eq\n      tag_8\n      jumpi\n      dup1\n      0x77f110bc\n      eq\n      tag_9\n      jumpi\n      dup1\n      0x95d89b41\n      eq\n      tag_10\n      jumpi\n      jump(tag_2)\n    tag_11:\n      dup1\n      0x06fdde03\n      eq\n      tag_3\n      jumpi\n      dup1\n      0x472ec454\n      eq\n      tag_4\n      jumpi\n      dup1\n      0x4f558e79\n      eq\n      tag_5\n      jumpi\n      dup1\n      0x6352211e\n      eq\n      tag_6\n      jumpi\n    tag_2:\n      0x00\n      dup1\n      revert\n        /* \"contracts/_BilboydLeasing.sol\":1416:1487  function name() public view returns (string memory) {return tokenName;} */\n    tag_3:\n      tag_12\n      tag_13\n      jump\t// in\n    tag_12:\n      mload(0x40)\n      tag_14\n      swap2\n      swap1\n      tag_15\n      jump\t// in\n    tag_14:\n      mload(0x40)\n      dup1\n      swap2\n      sub\n      swap1\n      return\n        /* \"contracts/_BilboydLeasing.sol\":3732:4239  function getCarDetails(uint256 tokenId) public view returns (... */\n    tag_4:\n      tag_16\n      0x04\n      dup1\n      calldatasize\n      sub\n      dup2\n      add\n      swap1\n      tag_17\n      swap2\n      swap1\n      tag_18\n      jump\t// in\n    tag_17:\n      tag_19\n      jump\t// in\n    tag_16:\n      mload(0x40)\n      tag_20\n      swap6\n      swap5\n      swap4\n      swap3\n      swap2\n      swap1\n      tag_21\n      jump\t// in\n    tag_20:\n      mload(0x40)\n      dup1\n      swap2\n      sub\n      swap1\n      return\n        /* \"contracts/_BilboydLeasing.sol\":1218:1332  function exists(uint256 tokenId) public view returns (bool) {... */\n    tag_5:\n      tag_22\n      0x04\n      dup1\n      calldatasize\n      sub\n      dup2\n      add\n      swap1\n      tag_23\n      swap2\n      swap1\n      tag_18\n      jump\t// in\n    tag_23:\n      tag_24\n      jump\t// in\n    tag_22:\n      mload(0x40)\n      tag_25\n      swap2\n      swap1\n      tag_26\n      jump\t// in\n    tag_25:\n      mload(0x40)\n      dup1\n      swap2\n      sub\n      swap1\n      return\n        /* \"contracts/_BilboydLeasing.sol\":2170:2391  function ownerOf(uint256 tokenId) public view returns (address) {... */\n    tag_6:\n      tag_27\n      0x04\n      dup1\n      calldatasize\n      sub\n      dup2\n      add\n      swap1\n      tag_28\n      swap2\n      swap1\n      tag_18\n      jump\t// in\n    tag_28:\n      tag_29\n      jump\t// in\n    tag_27:\n      mload(0x40)\n      tag_30\n      swap2\n      swap1\n      tag_31\n      jump\t// in\n    tag_30:\n      mload(0x40)\n      dup1\n      swap2\n      sub\n      swap1\n      return\n        /* \"contracts/_BilboydLeasing.sol\":1814:1996  function balanceOf(address ownerAddress) public view returns (uint256) {... */\n    tag_7:\n      tag_32\n      0x04\n      dup1\n      calldatasize\n      sub\n      dup2\n      add\n      swap1\n      tag_33\n      swap2\n      swap1\n      tag_34\n      jump\t// in\n    tag_33:\n      tag_35\n      jump\t// in\n    tag_32:\n      mload(0x40)\n      tag_36\n      swap2\n      swap1\n      tag_37\n      jump\t// in\n    tag_36:\n      mload(0x40)\n      dup1\n      swap2\n      sub\n      swap1\n      return\n        /* \"contracts/_BilboydLeasing.sol\":2860:3601  function mintCar(... */\n    tag_8:\n      tag_38\n      0x04\n      dup1\n      calldatasize\n      sub\n      dup2\n      add\n      swap1\n      tag_39\n      swap2\n      swap1\n      tag_40\n      jump\t// in\n    tag_39:\n      tag_41\n      jump\t// in\n    tag_38:\n      mload(0x40)\n      tag_42\n      swap2\n      swap1\n      tag_37\n      jump\t// in\n    tag_42:\n      mload(0x40)\n      dup1\n      swap2\n      sub\n      swap1\n      return\n        /* \"contracts/_BilboydLeasing.sol\":4621:6308  function computeMonthlyQuota(... */\n    tag_9:\n      tag_43\n      0x04\n      dup1\n      calldatasize\n      sub\n      dup2\n      add\n      swap1\n      tag_44\n      swap2\n      swap1\n      tag_45\n      jump\t// in\n    tag_44:\n      tag_46\n      jump\t// in\n    tag_43:\n      mload(0x40)\n      tag_47\n      swap2\n      swap1\n      tag_37\n      jump\t// in\n    tag_47:\n      mload(0x40)\n      dup1\n      swap2\n      sub\n      swap1\n      return\n        /* \"contracts/_BilboydLeasing.sol\":1575:1650  function symbol() public view returns (string memory) {return tokenSymbol;} */\n    tag_10:\n      tag_48\n      tag_49\n      jump\t// in\n    tag_48:\n      mload(0x40)\n      tag_50\n      swap2\n      swap1\n      tag_15\n      jump\t// in\n    tag_50:\n      mload(0x40)\n      dup1\n      swap2\n      sub\n      swap1\n      return\n        /* \"contracts/_BilboydLeasing.sol\":1416:1487  function name() public view returns (string memory) {return tokenName;} */\n    tag_13:\n        /* \"contracts/_BilboydLeasing.sol\":1453:1466  string memory */\n      0x60\n        /* \"contracts/_BilboydLeasing.sol\":1476:1485  tokenName */\n      0x02\n        /* \"contracts/_BilboydLeasing.sol\":1469:1485  return tokenName */\n      dup1\n      sload\n      tag_52\n      swap1\n      tag_53\n      jump\t// in\n    tag_52:\n      dup1\n      0x1f\n      add\n      0x20\n      dup1\n      swap2\n      div\n      mul\n      0x20\n      add\n      mload(0x40)\n      swap1\n      dup2\n      add\n      0x40\n      mstore\n      dup1\n      swap3\n      swap2\n      swap1\n      dup2\n      dup2\n      mstore\n      0x20\n      add\n      dup3\n      dup1\n      sload\n      tag_54\n      swap1\n      tag_53\n      jump\t// in\n    tag_54:\n      dup1\n      iszero\n      tag_55\n      jumpi\n      dup1\n      0x1f\n      lt\n      tag_56\n      jumpi\n      0x0100\n      dup1\n      dup4\n      sload\n      div\n      mul\n      dup4\n      mstore\n      swap2\n      0x20\n      add\n      swap2\n      jump(tag_55)\n    tag_56:\n      dup3\n      add\n      swap2\n      swap1\n      0x00\n      mstore\n      keccak256(0x00, 0x20)\n      swap1\n    tag_57:\n      dup2\n      sload\n      dup2\n      mstore\n      swap1\n      0x01\n      add\n      swap1\n      0x20\n      add\n      dup1\n      dup4\n      gt\n      tag_57\n      jumpi\n      dup3\n      swap1\n      sub\n      0x1f\n      and\n      dup3\n      add\n      swap2\n    tag_55:\n      pop\n      pop\n      pop\n      pop\n      pop\n      swap1\n      pop\n        /* \"contracts/_BilboydLeasing.sol\":1416:1487  function name() public view returns (string memory) {return tokenName;} */\n      swap1\n      jump\t// out\n        /* \"contracts/_BilboydLeasing.sol\":3732:4239  function getCarDetails(uint256 tokenId) public view returns (... */\n    tag_19:\n        /* \"contracts/_BilboydLeasing.sol\":3802:3821  string memory model */\n      0x60\n        /* \"contracts/_BilboydLeasing.sol\":3831:3850  string memory color */\n      dup1\n        /* \"contracts/_BilboydLeasing.sol\":3860:3884  uint256 registrationYear */\n      0x00\n        /* \"contracts/_BilboydLeasing.sol\":3894:3915  uint256 originalValue */\n      dup1\n        /* \"contracts/_BilboydLeasing.sol\":3925:3947  uint256 currentMileage */\n      0x00\n        /* \"contracts/_BilboydLeasing.sol\":3972:3987  exists(tokenId) */\n      tag_59\n        /* \"contracts/_BilboydLeasing.sol\":3979:3986  tokenId */\n      dup7\n        /* \"contracts/_BilboydLeasing.sol\":3972:3978  exists */\n      tag_24\n        /* \"contracts/_BilboydLeasing.sol\":3972:3987  exists(tokenId) */\n      jump\t// in\n    tag_59:\n        /* \"contracts/_BilboydLeasing.sol\":3964:4015  require(exists(tokenId), \"Token ID does not exist\") */\n      tag_60\n      jumpi\n      mload(0x40)\n      0x08c379a000000000000000000000000000000000000000000000000000000000\n      dup2\n      mstore\n      0x04\n      add\n      tag_61\n      swap1\n      tag_62\n      jump\t// in\n    tag_61:\n      mload(0x40)\n      dup1\n      swap2\n      sub\n      swap1\n      revert\n    tag_60:\n        /* \"contracts/_BilboydLeasing.sol\":4025:4039  Car memory car */\n      0x00\n        /* \"contracts/_BilboydLeasing.sol\":4042:4053  _carDetails */\n      0x05\n        /* \"contracts/_BilboydLeasing.sol\":4042:4062  _carDetails[tokenId] */\n      0x00\n        /* \"contracts/_BilboydLeasing.sol\":4054:4061  tokenId */\n      dup9\n        /* \"contracts/_BilboydLeasing.sol\":4042:4062  _carDetails[tokenId] */\n      dup2\n      mstore\n      0x20\n      add\n      swap1\n      dup2\n      mstore\n      0x20\n      add\n      0x00\n      keccak256\n        /* \"contracts/_BilboydLeasing.sol\":4025:4062  Car memory car = _carDetails[tokenId] */\n      mload(0x40)\n      dup1\n      0xa0\n      add\n      0x40\n      mstore\n      swap1\n      dup2\n      0x00\n      dup3\n      add\n      dup1\n      sload\n      tag_63\n      swap1\n      tag_53\n      jump\t// in\n    tag_63:\n      dup1\n      0x1f\n      add\n      0x20\n      dup1\n      swap2\n      div\n      mul\n      0x20\n      add\n      mload(0x40)\n      swap1\n      dup2\n      add\n      0x40\n      mstore\n      dup1\n      swap3\n      swap2\n      swap1\n      dup2\n      dup2\n      mstore\n      0x20\n      add\n      dup3\n      dup1\n      sload\n      tag_64\n      swap1\n      tag_53\n      jump\t// in\n    tag_64:\n      dup1\n      iszero\n      tag_65\n      jumpi\n      dup1\n      0x1f\n      lt\n      tag_66\n      jumpi\n      0x0100\n      dup1\n      dup4\n      sload\n      div\n      mul\n      dup4\n      mstore\n      swap2\n      0x20\n      add\n      swap2\n      jump(tag_65)\n    tag_66:\n      dup3\n      add\n      swap2\n      swap1\n      0x00\n      mstore\n      keccak256(0x00, 0x20)\n      swap1\n    tag_67:\n      dup2\n      sload\n      dup2\n      mstore\n      swap1\n      0x01\n      add\n      swap1\n      0x20\n      add\n      dup1\n      dup4\n      gt\n      tag_67\n      jumpi\n      dup3\n      swap1\n      sub\n      0x1f\n      and\n      dup3\n      add\n      swap2\n    tag_65:\n      pop\n      pop\n      pop\n      pop\n      pop\n      dup2\n      mstore\n      0x20\n      add\n      0x01\n      dup3\n      add\n      dup1\n      sload\n      tag_68\n      swap1\n      tag_53\n      jump\t// in\n    tag_68:\n      dup1\n      0x1f\n      add\n      0x20\n      dup1\n      swap2\n      div\n      mul\n      0x20\n      add\n      mload(0x40)\n      swap1\n      dup2\n      add\n      0x40\n      mstore\n      dup1\n      swap3\n      swap2\n      swap1\n      dup2\n      dup2\n      mstore\n      0x20\n      add\n      dup3\n      dup1\n      sload\n      tag_69\n      swap1\n      tag_53\n      jump\t// in\n    tag_69:\n      dup1\n      iszero\n      tag_70\n      jumpi\n      dup1\n      0x1f\n      lt\n      tag_71\n      jumpi\n      0x0100\n      dup1\n      dup4\n      sload\n      div\n      mul\n      dup4\n      mstore\n      swap2\n      0x20\n      add\n      swap2\n      jump(tag_70)\n    tag_71:\n      dup3\n      add\n      swap2\n      swap1\n      0x00\n      mstore\n      keccak256(0x00, 0x20)\n      swap1\n    tag_72:\n      dup2\n      sload\n      dup2\n      mstore\n      swap1\n      0x01\n      add\n      swap1\n      0x20\n      add\n      dup1\n      dup4\n      gt\n      tag_72\n      jumpi\n      dup3\n      swap1\n      sub\n      0x1f\n      and\n      dup3\n      add\n      swap2\n    tag_70:\n      pop\n      pop\n      pop\n      pop\n      pop\n      dup2\n      mstore\n      0x20\n      add\n      0x02\n      dup3\n      add\n      sload\n      dup2\n      mstore\n      0x20\n      add\n      0x03\n      dup3\n      add\n      sload\n      dup2\n      mstore\n      0x20\n      add\n      0x04\n      dup3\n      add\n      sload\n      dup2\n      mstore\n      pop\n      pop\n      swap1\n      pop\n        /* \"contracts/_BilboydLeasing.sol\":4093:4096  car */\n      dup1\n        /* \"contracts/_BilboydLeasing.sol\":4093:4102  car.model */\n      0x00\n      add\n      mload\n        /* \"contracts/_BilboydLeasing.sol\":4116:4119  car */\n      dup2\n        /* \"contracts/_BilboydLeasing.sol\":4116:4125  car.color */\n      0x20\n      add\n      mload\n        /* \"contracts/_BilboydLeasing.sol\":4139:4142  car */\n      dup3\n        /* \"contracts/_BilboydLeasing.sol\":4139:4159  car.registrationYear */\n      0x40\n      add\n      mload\n        /* \"contracts/_BilboydLeasing.sol\":4173:4176  car */\n      dup4\n        /* \"contracts/_BilboydLeasing.sol\":4173:4190  car.originalValue */\n      0x60\n      add\n      mload\n        /* \"contracts/_BilboydLeasing.sol\":4204:4207  car */\n      dup5\n        /* \"contracts/_BilboydLeasing.sol\":4204:4222  car.currentMileage */\n      0x80\n      add\n      mload\n        /* \"contracts/_BilboydLeasing.sol\":4072:4232  return (... */\n      swap6\n      pop\n      swap6\n      pop\n      swap6\n      pop\n      swap6\n      pop\n      swap6\n      pop\n      pop\n        /* \"contracts/_BilboydLeasing.sol\":3732:4239  function getCarDetails(uint256 tokenId) public view returns (... */\n      swap2\n      swap4\n      swap6\n      swap1\n      swap3\n      swap5\n      pop\n      jump\t// out\n        /* \"contracts/_BilboydLeasing.sol\":1218:1332  function exists(uint256 tokenId) public view returns (bool) {... */\n    tag_24:\n        /* \"contracts/_BilboydLeasing.sol\":1272:1276  bool */\n      0x00\n        /* \"contracts/_BilboydLeasing.sol\":1323:1324  0 */\n      dup1\n        /* \"contracts/_BilboydLeasing.sol\":1295:1325  _owners[tokenId] != address(0) */\n      0xffffffffffffffffffffffffffffffffffffffff\n      and\n        /* \"contracts/_BilboydLeasing.sol\":1295:1302  _owners */\n      0x00\n        /* \"contracts/_BilboydLeasing.sol\":1295:1311  _owners[tokenId] */\n      dup1\n        /* \"contracts/_BilboydLeasing.sol\":1303:1310  tokenId */\n      dup5\n        /* \"contracts/_BilboydLeasing.sol\":1295:1311  _owners[tokenId] */\n      dup2\n      mstore\n      0x20\n      add\n      swap1\n      dup2\n      mstore\n      0x20\n      add\n      0x00\n      keccak256\n      0x00\n      swap1\n      sload\n      swap1\n      0x0100\n      exp\n      swap1\n      div\n      0xffffffffffffffffffffffffffffffffffffffff\n      and\n        /* \"contracts/_BilboydLeasing.sol\":1295:1325  _owners[tokenId] != address(0) */\n      0xffffffffffffffffffffffffffffffffffffffff\n      and\n      eq\n      iszero\n        /* \"contracts/_BilboydLeasing.sol\":1288:1325  return _owners[tokenId] != address(0) */\n      swap1\n      pop\n        /* \"contracts/_BilboydLeasing.sol\":1218:1332  function exists(uint256 tokenId) public view returns (bool) {... */\n      swap2\n      swap1\n      pop\n      jump\t// out\n        /* \"contracts/_BilboydLeasing.sol\":2170:2391  function ownerOf(uint256 tokenId) public view returns (address) {... */\n    tag_29:\n        /* \"contracts/_BilboydLeasing.sol\":2225:2232  address */\n      0x00\n        /* \"contracts/_BilboydLeasing.sol\":2244:2264  address ownerAddress */\n      dup1\n        /* \"contracts/_BilboydLeasing.sol\":2267:2274  _owners */\n      0x00\n        /* \"contracts/_BilboydLeasing.sol\":2267:2283  _owners[tokenId] */\n      dup1\n        /* \"contracts/_BilboydLeasing.sol\":2275:2282  tokenId */\n      dup5\n        /* \"contracts/_BilboydLeasing.sol\":2267:2283  _owners[tokenId] */\n      dup2\n      mstore\n      0x20\n      add\n      swap1\n      dup2\n      mstore\n      0x20\n      add\n      0x00\n      keccak256\n      0x00\n      swap1\n      sload\n      swap1\n      0x0100\n      exp\n      swap1\n      div\n      0xffffffffffffffffffffffffffffffffffffffff\n      and\n        /* \"contracts/_BilboydLeasing.sol\":2244:2283  address ownerAddress = _owners[tokenId] */\n      swap1\n      pop\n        /* \"contracts/_BilboydLeasing.sol\":2325:2326  0 */\n      0x00\n        /* \"contracts/_BilboydLeasing.sol\":2301:2327  ownerAddress != address(0) */\n      0xffffffffffffffffffffffffffffffffffffffff\n      and\n        /* \"contracts/_BilboydLeasing.sol\":2301:2313  ownerAddress */\n      dup2\n        /* \"contracts/_BilboydLeasing.sol\":2301:2327  ownerAddress != address(0) */\n      0xffffffffffffffffffffffffffffffffffffffff\n      and\n      sub\n        /* \"contracts/_BilboydLeasing.sol\":2293:2355  require(ownerAddress != address(0), \"Token ID does not exist\") */\n      tag_75\n      jumpi\n      mload(0x40)\n      0x08c379a000000000000000000000000000000000000000000000000000000000\n      dup2\n      mstore\n      0x04\n      add\n      tag_76\n      swap1\n      tag_62\n      jump\t// in\n    tag_76:\n      mload(0x40)\n      dup1\n      swap2\n      sub\n      swap1\n      revert\n    tag_75:\n        /* \"contracts/_BilboydLeasing.sol\":2372:2384  ownerAddress */\n      dup1\n        /* \"contracts/_BilboydLeasing.sol\":2365:2384  return ownerAddress */\n      swap2\n      pop\n      pop\n        /* \"contracts/_BilboydLeasing.sol\":2170:2391  function ownerOf(uint256 tokenId) public view returns (address) {... */\n      swap2\n      swap1\n      pop\n      jump\t// out\n        /* \"contracts/_BilboydLeasing.sol\":1814:1996  function balanceOf(address ownerAddress) public view returns (uint256) {... */\n    tag_35:\n        /* \"contracts/_BilboydLeasing.sol\":1876:1883  uint256 */\n      0x00\n        /* \"contracts/_BilboydLeasing.sol\":1927:1928  0 */\n      dup1\n        /* \"contracts/_BilboydLeasing.sol\":1903:1929  ownerAddress != address(0) */\n      0xffffffffffffffffffffffffffffffffffffffff\n      and\n        /* \"contracts/_BilboydLeasing.sol\":1903:1915  ownerAddress */\n      dup3\n        /* \"contracts/_BilboydLeasing.sol\":1903:1929  ownerAddress != address(0) */\n      0xffffffffffffffffffffffffffffffffffffffff\n      and\n      sub\n        /* \"contracts/_BilboydLeasing.sol\":1895:1949  require(ownerAddress != address(0), \"Invalid address\") */\n      tag_78\n      jumpi\n      mload(0x40)\n      0x08c379a000000000000000000000000000000000000000000000000000000000\n      dup2\n      mstore\n      0x04\n      add\n      tag_79\n      swap1\n      tag_80\n      jump\t// in\n    tag_79:\n      mload(0x40)\n      dup1\n      swap2\n      sub\n      swap1\n      revert\n    tag_78:\n        /* \"contracts/_BilboydLeasing.sol\":1966:1975  _balances */\n      0x01\n        /* \"contracts/_BilboydLeasing.sol\":1966:1989  _balances[ownerAddress] */\n      0x00\n        /* \"contracts/_BilboydLeasing.sol\":1976:1988  ownerAddress */\n      dup4\n        /* \"contracts/_BilboydLeasing.sol\":1966:1989  _balances[ownerAddress] */\n      0xffffffffffffffffffffffffffffffffffffffff\n      and\n      0xffffffffffffffffffffffffffffffffffffffff\n      and\n      dup2\n      mstore\n      0x20\n      add\n      swap1\n      dup2\n      mstore\n      0x20\n      add\n      0x00\n      keccak256\n      sload\n        /* \"contracts/_BilboydLeasing.sol\":1959:1989  return _balances[ownerAddress] */\n      swap1\n      pop\n        /* \"contracts/_BilboydLeasing.sol\":1814:1996  function balanceOf(address ownerAddress) public view returns (uint256) {... */\n      swap2\n      swap1\n      pop\n      jump\t// out\n        /* \"contracts/_BilboydLeasing.sol\":2860:3601  function mintCar(... */\n    tag_41:\n        /* \"contracts/_BilboydLeasing.sol\":3084:3091  uint256 */\n      0x00\n        /* \"contracts/_BilboydLeasing.sol\":929:935  _owner */\n      0x06\n      0x00\n      swap1\n      sload\n      swap1\n      0x0100\n      exp\n      swap1\n      div\n      0xffffffffffffffffffffffffffffffffffffffff\n      and\n        /* \"contracts/_BilboydLeasing.sol\":915:935  msg.sender == _owner */\n      0xffffffffffffffffffffffffffffffffffffffff\n      and\n        /* \"contracts/_BilboydLeasing.sol\":915:925  msg.sender */\n      caller\n        /* \"contracts/_BilboydLeasing.sol\":915:935  msg.sender == _owner */\n      0xffffffffffffffffffffffffffffffffffffffff\n      and\n      eq\n        /* \"contracts/_BilboydLeasing.sol\":907:972  require(msg.sender == _owner, \"Caller is not the contract owner\") */\n      tag_82\n      jumpi\n      mload(0x40)\n      0x08c379a000000000000000000000000000000000000000000000000000000000\n      dup2\n      mstore\n      0x04\n      add\n      tag_83\n      swap1\n      tag_84\n      jump\t// in\n    tag_83:\n      mload(0x40)\n      dup1\n      swap2\n      sub\n      swap1\n      revert\n    tag_82:\n        /* \"contracts/_BilboydLeasing.sol\":3125:3126  0 */\n      0x00\n        /* \"contracts/_BilboydLeasing.sol\":3111:3127  to != address(0) */\n      0xffffffffffffffffffffffffffffffffffffffff\n      and\n        /* \"contracts/_BilboydLeasing.sol\":3111:3113  to */\n      dup8\n        /* \"contracts/_BilboydLeasing.sol\":3111:3127  to != address(0) */\n      0xffffffffffffffffffffffffffffffffffffffff\n      and\n      sub\n        /* \"contracts/_BilboydLeasing.sol\":3103:3152  require(to != address(0), \"Mint to zero address\") */\n      tag_86\n      jumpi\n      mload(0x40)\n      0x08c379a000000000000000000000000000000000000000000000000000000000\n      dup2\n      mstore\n      0x04\n      add\n      tag_87\n      swap1\n      tag_88\n      jump\t// in\n    tag_87:\n      mload(0x40)\n      dup1\n      swap2\n      sub\n      swap1\n      revert\n    tag_86:\n        /* \"contracts/_BilboydLeasing.sol\":3179:3180  1 */\n      0x01\n        /* \"contracts/_BilboydLeasing.sol\":3163:3175  tokenIdCount */\n      0x04\n      0x00\n        /* \"contracts/_BilboydLeasing.sol\":3163:3180  tokenIdCount += 1 */\n      dup3\n      dup3\n      sload\n      tag_89\n      swap2\n      swap1\n      tag_90\n      jump\t// in\n    tag_89:\n      swap3\n      pop\n      pop\n      dup2\n      swap1\n      sstore\n      pop\n        /* \"contracts/_BilboydLeasing.sol\":3190:3206  uint256 newCarId */\n      0x00\n        /* \"contracts/_BilboydLeasing.sol\":3209:3221  tokenIdCount */\n      sload(0x04)\n        /* \"contracts/_BilboydLeasing.sol\":3190:3221  uint256 newCarId = tokenIdCount */\n      swap1\n      pop\n        /* \"contracts/_BilboydLeasing.sol\":3249:3250  1 */\n      0x01\n        /* \"contracts/_BilboydLeasing.sol\":3232:3241  _balances */\n      dup1\n        /* \"contracts/_BilboydLeasing.sol\":3232:3245  _balances[to] */\n      0x00\n        /* \"contracts/_BilboydLeasing.sol\":3242:3244  to */\n      dup11\n        /* \"contracts/_BilboydLeasing.sol\":3232:3245  _balances[to] */\n      0xffffffffffffffffffffffffffffffffffffffff\n      and\n      0xffffffffffffffffffffffffffffffffffffffff\n      and\n      dup2\n      mstore\n      0x20\n      add\n      swap1\n      dup2\n      mstore\n      0x20\n      add\n      0x00\n      keccak256\n      0x00\n        /* \"contracts/_BilboydLeasing.sol\":3232:3250  _balances[to] += 1 */\n      dup3\n      dup3\n      sload\n      tag_91\n      swap2\n      swap1\n      tag_90\n      jump\t// in\n    tag_91:\n      swap3\n      pop\n      pop\n      dup2\n      swap1\n      sstore\n      pop\n        /* \"contracts/_BilboydLeasing.sol\":3280:3282  to */\n      dup8\n        /* \"contracts/_BilboydLeasing.sol\":3260:3267  _owners */\n      0x00\n        /* \"contracts/_BilboydLeasing.sol\":3260:3277  _owners[newCarId] */\n      dup1\n        /* \"contracts/_BilboydLeasing.sol\":3268:3276  newCarId */\n      dup4\n        /* \"contracts/_BilboydLeasing.sol\":3260:3277  _owners[newCarId] */\n      dup2\n      mstore\n      0x20\n      add\n      swap1\n      dup2\n      mstore\n      0x20\n      add\n      0x00\n      keccak256\n      0x00\n        /* \"contracts/_BilboydLeasing.sol\":3260:3282  _owners[newCarId] = to */\n      0x0100\n      exp\n      dup2\n      sload\n      dup2\n      0xffffffffffffffffffffffffffffffffffffffff\n      mul\n      not\n      and\n      swap1\n      dup4\n      0xffffffffffffffffffffffffffffffffffffffff\n      and\n      mul\n      or\n      swap1\n      sstore\n      pop\n        /* \"contracts/_BilboydLeasing.sol\":3317:3518  Car({... */\n      mload(0x40)\n      dup1\n      0xa0\n      add\n      0x40\n      mstore\n      dup1\n        /* \"contracts/_BilboydLeasing.sol\":3342:3347  model */\n      dup9\n        /* \"contracts/_BilboydLeasing.sol\":3317:3518  Car({... */\n      dup2\n      mstore\n      0x20\n      add\n        /* \"contracts/_BilboydLeasing.sol\":3368:3373  color */\n      dup8\n        /* \"contracts/_BilboydLeasing.sol\":3317:3518  Car({... */\n      dup2\n      mstore\n      0x20\n      add\n        /* \"contracts/_BilboydLeasing.sol\":3405:3421  registrationYear */\n      dup7\n        /* \"contracts/_BilboydLeasing.sol\":3317:3518  Car({... */\n      dup2\n      mstore\n      0x20\n      add\n        /* \"contracts/_BilboydLeasing.sol\":3450:3463  originalValue */\n      dup6\n        /* \"contracts/_BilboydLeasing.sol\":3317:3518  Car({... */\n      dup2\n      mstore\n      0x20\n      add\n        /* \"contracts/_BilboydLeasing.sol\":3493:3507  currentMileage */\n      dup5\n        /* \"contracts/_BilboydLeasing.sol\":3317:3518  Car({... */\n      dup2\n      mstore\n      pop\n        /* \"contracts/_BilboydLeasing.sol\":3293:3304  _carDetails */\n      0x05\n        /* \"contracts/_BilboydLeasing.sol\":3293:3314  _carDetails[newCarId] */\n      0x00\n        /* \"contracts/_BilboydLeasing.sol\":3305:3313  newCarId */\n      dup4\n        /* \"contracts/_BilboydLeasing.sol\":3293:3314  _carDetails[newCarId] */\n      dup2\n      mstore\n      0x20\n      add\n      swap1\n      dup2\n      mstore\n      0x20\n      add\n      0x00\n      keccak256\n        /* \"contracts/_BilboydLeasing.sol\":3293:3518  _carDetails[newCarId] = Car({... */\n      0x00\n      dup3\n      add\n      mload\n      dup2\n      0x00\n      add\n      swap1\n      dup2\n      tag_92\n      swap2\n      swap1\n      tag_93\n      jump\t// in\n    tag_92:\n      pop\n      0x20\n      dup3\n      add\n      mload\n      dup2\n      0x01\n      add\n      swap1\n      dup2\n      tag_94\n      swap2\n      swap1\n      tag_93\n      jump\t// in\n    tag_94:\n      pop\n      0x40\n      dup3\n      add\n      mload\n      dup2\n      0x02\n      add\n      sstore\n      0x60\n      dup3\n      add\n      mload\n      dup2\n      0x03\n      add\n      sstore\n      0x80\n      dup3\n      add\n      mload\n      dup2\n      0x04\n      add\n      sstore\n      swap1\n      pop\n      pop\n        /* \"contracts/_BilboydLeasing.sol\":3559:3567  newCarId */\n      dup1\n        /* \"contracts/_BilboydLeasing.sol\":3555:3557  to */\n      dup9\n        /* \"contracts/_BilboydLeasing.sol\":3534:3568  Transfer(address(0), to, newCarId) */\n      0xffffffffffffffffffffffffffffffffffffffff\n      and\n        /* \"contracts/_BilboydLeasing.sol\":3551:3552  0 */\n      0x00\n        /* \"contracts/_BilboydLeasing.sol\":3534:3568  Transfer(address(0), to, newCarId) */\n      0xffffffffffffffffffffffffffffffffffffffff\n      and\n      0xddf252ad1be2c89b69c2b068fc378daa952ba7f163c4a11628f55a4df523b3ef\n      mload(0x40)\n      mload(0x40)\n      dup1\n      swap2\n      sub\n      swap1\n      log4\n        /* \"contracts/_BilboydLeasing.sol\":3586:3594  newCarId */\n      dup1\n        /* \"contracts/_BilboydLeasing.sol\":3579:3594  return newCarId */\n      swap2\n      pop\n      pop\n        /* \"contracts/_BilboydLeasing.sol\":2860:3601  function mintCar(... */\n      swap7\n      swap6\n      pop\n      pop\n      pop\n      pop\n      pop\n      pop\n      jump\t// out\n        /* \"contracts/_BilboydLeasing.sol\":4621:6308  function computeMonthlyQuota(... */\n    tag_46:\n        /* \"contracts/_BilboydLeasing.sol\":4809:4816  uint256 */\n      0x00\n        /* \"contracts/_BilboydLeasing.sol\":4836:4851  exists(tokenId) */\n      tag_96\n        /* \"contracts/_BilboydLeasing.sol\":4843:4850  tokenId */\n      dup6\n        /* \"contracts/_BilboydLeasing.sol\":4836:4842  exists */\n      tag_24\n        /* \"contracts/_BilboydLeasing.sol\":4836:4851  exists(tokenId) */\n      jump\t// in\n    tag_96:\n        /* \"contracts/_BilboydLeasing.sol\":4828:4879  require(exists(tokenId), \"Token ID does not exist\") */\n      tag_97\n      jumpi\n      mload(0x40)\n      0x08c379a000000000000000000000000000000000000000000000000000000000\n      dup2\n      mstore\n      0x04\n      add\n      tag_98\n      swap1\n      tag_62\n      jump\t// in\n    tag_98:\n      mload(0x40)\n      dup1\n      swap2\n      sub\n      swap1\n      revert\n    tag_97:\n        /* \"contracts/_BilboydLeasing.sol\":4890:4904  Car memory car */\n      0x00\n        /* \"contracts/_BilboydLeasing.sol\":4907:4918  _carDetails */\n      0x05\n        /* \"contracts/_BilboydLeasing.sol\":4907:4927  _carDetails[tokenId] */\n      0x00\n        /* \"contracts/_BilboydLeasing.sol\":4919:4926  tokenId */\n      dup8\n        /* \"contracts/_BilboydLeasing.sol\":4907:4927  _carDetails[tokenId] */\n      dup2\n      mstore\n      0x20\n      add\n      swap1\n      dup2\n      mstore\n      0x20\n      add\n      0x00\n      keccak256\n        /* \"contracts/_BilboydLeasing.sol\":4890:4927  Car memory car = _carDetails[tokenId] */\n      mload(0x40)\n      dup1\n      0xa0\n      add\n      0x40\n      mstore\n      swap1\n      dup2\n      0x00\n      dup3\n      add\n      dup1\n      sload\n      tag_99\n      swap1\n      tag_53\n      jump\t// in\n    tag_99:\n      dup1\n      0x1f\n      add\n      0x20\n      dup1\n      swap2\n      div\n      mul\n      0x20\n      add\n      mload(0x40)\n      swap1\n      dup2\n      add\n      0x40\n      mstore\n      dup1\n      swap3\n      swap2\n      swap1\n      dup2\n      dup2\n      mstore\n      0x20\n      add\n      dup3\n      dup1\n      sload\n      tag_100\n      swap1\n      tag_53\n      jump\t// in\n    tag_100:\n      dup1\n      iszero\n      tag_101\n      jumpi\n      dup1\n      0x1f\n      lt\n      tag_102\n      jumpi\n      0x0100\n      dup1\n      dup4\n      sload\n      div\n      mul\n      dup4\n      mstore\n      swap2\n      0x20\n      add\n      swap2\n      jump(tag_101)\n    tag_102:\n      dup3\n      add\n      swap2\n      swap1\n      0x00\n      mstore\n      keccak256(0x00, 0x20)\n      swap1\n    tag_103:\n      dup2\n      sload\n      dup2\n      mstore\n      swap1\n      0x01\n      add\n      swap1\n      0x20\n      add\n      dup1\n      dup4\n      gt\n      tag_103\n      jumpi\n      dup3\n      swap1\n      sub\n      0x1f\n      and\n      dup3\n      add\n      swap2\n    tag_101:\n      pop\n      pop\n      pop\n      pop\n      pop\n      dup2\n      mstore\n      0x20\n      add\n      0x01\n      dup3\n      add\n      dup1\n      sload\n      tag_104\n      swap1\n      tag_53\n      jump\t// in\n    tag_104:\n      dup1\n      0x1f\n      add\n      0x20\n      dup1\n      swap2\n      div\n      mul\n      0x20\n      add\n      mload(0x40)\n      swap1\n      dup2\n      add\n      0x40\n      mstore\n      dup1\n      swap3\n      swap2\n      swap1\n      dup2\n      dup2\n      mstore\n      0x20\n      add\n      dup3\n      dup1\n      sload\n      tag_105\n      swap1\n      tag_53\n      jump\t// in\n    tag_105:\n      dup1\n      iszero\n      tag_106\n      jumpi\n      dup1\n      0x1f\n      lt\n      tag_107\n      jumpi\n      0x0100\n      dup1\n      dup4\n      sload\n      div\n      mul\n      dup4\n      mstore\n      swap2\n      0x20\n      add\n      swap2\n      jump(tag_106)\n    tag_107:\n      dup3\n      add\n      swap2\n      swap1\n      0x00\n      mstore\n      keccak256(0x00, 0x20)\n      swap1\n    tag_108:\n      dup2\n      sload\n      dup2\n      mstore\n      swap1\n      0x01\n      add\n      swap1\n      0x20\n      add\n      dup1\n      dup4\n      gt\n      tag_108\n      jumpi\n      dup3\n      swap1\n      sub\n      0x1f\n      and\n      dup3\n      add\n      swap2\n    tag_106:\n      pop\n      pop\n      pop\n      pop\n      pop\n      dup2\n      mstore\n      0x20\n      add\n      0x02\n      dup3\n      add\n      sload\n      dup2\n      mstore\n      0x20\n      add\n      0x03\n      dup3\n      add\n      sload\n      dup2\n      mstore\n      0x20\n      add\n      0x04\n      dup3\n      add\n      sload\n      dup2\n      mstore\n      pop\n      pop\n      swap1\n      pop\n        /* \"contracts/_BilboydLeasing.sol\":5017:5034  uint256 baseQuota */\n      0x00\n        /* \"contracts/_BilboydLeasing.sol\":5057:5059  50 */\n      0x32\n        /* \"contracts/_BilboydLeasing.sol\":5037:5040  car */\n      dup3\n        /* \"contracts/_BilboydLeasing.sol\":5037:5054  car.originalValue */\n      0x60\n      add\n      mload\n        /* \"contracts/_BilboydLeasing.sol\":5037:5059  car.originalValue / 50 */\n      tag_109\n      swap2\n      swap1\n      tag_110\n      jump\t// in\n    tag_109:\n        /* \"contracts/_BilboydLeasing.sol\":5017:5059  uint256 baseQuota = car.originalValue / 50 */\n      swap1\n      pop\n        /* \"contracts/_BilboydLeasing.sol\":5139:5158  uint256 mileageCost */\n      0x00\n        /* \"contracts/_BilboydLeasing.sol\":5197:5207  mileageCap */\n      dup6\n        /* \"contracts/_BilboydLeasing.sol\":5176:5179  car */\n      dup4\n        /* \"contracts/_BilboydLeasing.sol\":5176:5194  car.currentMileage */\n      0x80\n      add\n      mload\n        /* \"contracts/_BilboydLeasing.sol\":5176:5207  car.currentMileage > mileageCap */\n      gt\n        /* \"contracts/_BilboydLeasing.sol\":5172:5318  if (car.currentMileage > mileageCap) {... */\n      iszero\n      tag_111\n      jumpi\n        /* \"contracts/_BilboydLeasing.sol\":5273:5275  10 */\n      0x0a\n        /* \"contracts/_BilboydLeasing.sol\":5259:5269  mileageCap */\n      dup7\n        /* \"contracts/_BilboydLeasing.sol\":5238:5241  car */\n      dup5\n        /* \"contracts/_BilboydLeasing.sol\":5238:5256  car.currentMileage */\n      0x80\n      add\n      mload\n        /* \"contracts/_BilboydLeasing.sol\":5238:5269  car.currentMileage - mileageCap */\n      tag_112\n      swap2\n      swap1\n      tag_113\n      jump\t// in\n    tag_112:\n        /* \"contracts/_BilboydLeasing.sol\":5237:5275  (car.currentMileage - mileageCap) * 10 */\n      tag_114\n      swap2\n      swap1\n      tag_115\n      jump\t// in\n    tag_114:\n        /* \"contracts/_BilboydLeasing.sol\":5223:5275  mileageCost = (car.currentMileage - mileageCap) * 10 */\n      swap1\n      pop\n        /* \"contracts/_BilboydLeasing.sol\":5172:5318  if (car.currentMileage > mileageCap) {... */\n    tag_111:\n        /* \"contracts/_BilboydLeasing.sol\":5414:5440  uint256 experienceDiscount */\n      0x00\n        /* \"contracts/_BilboydLeasing.sol\":5481:5483  50 */\n      0x32\n        /* \"contracts/_BilboydLeasing.sol\":5468:5477  baseQuota */\n      dup4\n        /* \"contracts/_BilboydLeasing.sol\":5444:5465  driverExperienceYears */\n      dup10\n        /* \"contracts/_BilboydLeasing.sol\":5444:5477  driverExperienceYears * baseQuota */\n      tag_116\n      swap2\n      swap1\n      tag_115\n      jump\t// in\n    tag_116:\n        /* \"contracts/_BilboydLeasing.sol\":5443:5483  (driverExperienceYears * baseQuota) / 50 */\n      tag_117\n      swap2\n      swap1\n      tag_110\n      jump\t// in\n    tag_117:\n        /* \"contracts/_BilboydLeasing.sol\":5414:5483  uint256 experienceDiscount = (driverExperienceYears * baseQuota) / 50 */\n      swap1\n      pop\n        /* \"contracts/_BilboydLeasing.sol\":5615:5639  uint256 durationDiscount */\n      0x00\n        /* \"contracts/_BilboydLeasing.sol\":5683:5685  36 */\n      0x24\n        /* \"contracts/_BilboydLeasing.sol\":5657:5679  contractDurationMonths */\n      dup8\n        /* \"contracts/_BilboydLeasing.sol\":5657:5685  contractDurationMonths >= 36 */\n      lt\n        /* \"contracts/_BilboydLeasing.sol\":5653:6083  if (contractDurationMonths >= 36) {... */\n      tag_118\n      jumpi\n        /* \"contracts/_BilboydLeasing.sol\":5739:5742  100 */\n      0x64\n        /* \"contracts/_BilboydLeasing.sol\":5733:5735  10 */\n      0x0a\n        /* \"contracts/_BilboydLeasing.sol\":5721:5730  baseQuota */\n      dup6\n        /* \"contracts/_BilboydLeasing.sol\":5721:5735  baseQuota * 10 */\n      tag_119\n      swap2\n      swap1\n      tag_115\n      jump\t// in\n    tag_119:\n        /* \"contracts/_BilboydLeasing.sol\":5720:5742  (baseQuota * 10) / 100 */\n      tag_120\n      swap2\n      swap1\n      tag_110\n      jump\t// in\n    tag_120:\n        /* \"contracts/_BilboydLeasing.sol\":5701:5742  durationDiscount = (baseQuota * 10) / 100 */\n      swap1\n      pop\n        /* \"contracts/_BilboydLeasing.sol\":5653:6083  if (contractDurationMonths >= 36) {... */\n      jump(tag_121)\n    tag_118:\n        /* \"contracts/_BilboydLeasing.sol\":5830:5832  24 */\n      0x18\n        /* \"contracts/_BilboydLeasing.sol\":5804:5826  contractDurationMonths */\n      dup8\n        /* \"contracts/_BilboydLeasing.sol\":5804:5832  contractDurationMonths >= 24 */\n      lt\n        /* \"contracts/_BilboydLeasing.sol\":5800:6083  if (contractDurationMonths >= 24) {... */\n      tag_122\n      jumpi\n        /* \"contracts/_BilboydLeasing.sol\":5885:5888  100 */\n      0x64\n        /* \"contracts/_BilboydLeasing.sol\":5880:5881  5 */\n      0x05\n        /* \"contracts/_BilboydLeasing.sol\":5868:5877  baseQuota */\n      dup6\n        /* \"contracts/_BilboydLeasing.sol\":5868:5881  baseQuota * 5 */\n      tag_123\n      swap2\n      swap1\n      tag_115\n      jump\t// in\n    tag_123:\n        /* \"contracts/_BilboydLeasing.sol\":5867:5888  (baseQuota * 5) / 100 */\n      tag_124\n      swap2\n      swap1\n      tag_110\n      jump\t// in\n    tag_124:\n        /* \"contracts/_BilboydLeasing.sol\":5848:5888  durationDiscount = (baseQuota * 5) / 100 */\n      swap1\n      pop\n        /* \"contracts/_BilboydLeasing.sol\":5800:6083  if (contractDurationMonths >= 24) {... */\n      jump(tag_125)\n    tag_122:\n        /* \"contracts/_BilboydLeasing.sol\":5975:5977  12 */\n      0x0c\n        /* \"contracts/_BilboydLeasing.sol\":5949:5971  contractDurationMonths */\n      dup8\n        /* \"contracts/_BilboydLeasing.sol\":5949:5977  contractDurationMonths >= 12 */\n      lt\n        /* \"contracts/_BilboydLeasing.sol\":5945:6083  if (contractDurationMonths >= 12) {... */\n      tag_126\n      jumpi\n        /* \"contracts/_BilboydLeasing.sol\":6030:6033  100 */\n      0x64\n        /* \"contracts/_BilboydLeasing.sol\":6025:6026  3 */\n      0x03\n        /* \"contracts/_BilboydLeasing.sol\":6013:6022  baseQuota */\n      dup6\n        /* \"contracts/_BilboydLeasing.sol\":6013:6026  baseQuota * 3 */\n      tag_127\n      swap2\n      swap1\n      tag_115\n      jump\t// in\n    tag_127:\n        /* \"contracts/_BilboydLeasing.sol\":6012:6033  (baseQuota * 3) / 100 */\n      tag_128\n      swap2\n      swap1\n      tag_110\n      jump\t// in\n    tag_128:\n        /* \"contracts/_BilboydLeasing.sol\":5993:6033  durationDiscount = (baseQuota * 3) / 100 */\n      swap1\n      pop\n        /* \"contracts/_BilboydLeasing.sol\":5945:6083  if (contractDurationMonths >= 12) {... */\n    tag_126:\n        /* \"contracts/_BilboydLeasing.sol\":5800:6083  if (contractDurationMonths >= 24) {... */\n    tag_125:\n        /* \"contracts/_BilboydLeasing.sol\":5653:6083  if (contractDurationMonths >= 36) {... */\n    tag_121:\n        /* \"contracts/_BilboydLeasing.sol\":6186:6206  uint256 monthlyQuota */\n      0x00\n        /* \"contracts/_BilboydLeasing.sol\":6256:6272  durationDiscount */\n      dup2\n        /* \"contracts/_BilboydLeasing.sol\":6235:6253  experienceDiscount */\n      dup4\n        /* \"contracts/_BilboydLeasing.sol\":6221:6232  mileageCost */\n      dup6\n        /* \"contracts/_BilboydLeasing.sol\":6209:6218  baseQuota */\n      dup8\n        /* \"contracts/_BilboydLeasing.sol\":6209:6232  baseQuota + mileageCost */\n      tag_129\n      swap2\n      swap1\n      tag_90\n      jump\t// in\n    tag_129:\n        /* \"contracts/_BilboydLeasing.sol\":6209:6253  baseQuota + mileageCost - experienceDiscount */\n      tag_130\n      swap2\n      swap1\n      tag_113\n      jump\t// in\n    tag_130:\n        /* \"contracts/_BilboydLeasing.sol\":6209:6272  baseQuota + mileageCost - experienceDiscount - durationDiscount */\n      tag_131\n      swap2\n      swap1\n      tag_113\n      jump\t// in\n    tag_131:\n        /* \"contracts/_BilboydLeasing.sol\":6186:6272  uint256 monthlyQuota = baseQuota + mileageCost - experienceDiscount - durationDiscount */\n      swap1\n      pop\n        /* \"contracts/_BilboydLeasing.sol\":6289:6301  monthlyQuota */\n      dup1\n        /* \"contracts/_BilboydLeasing.sol\":6282:6301  return monthlyQuota */\n      swap7\n      pop\n      pop\n      pop\n      pop\n      pop\n      pop\n      pop\n        /* \"contracts/_BilboydLeasing.sol\":4621:6308  function computeMonthlyQuota(... */\n      swap5\n      swap4\n      pop\n      pop\n      pop\n      pop\n      jump\t// out\n        /* \"contracts/_BilboydLeasing.sol\":1575:1650  function symbol() public view returns (string memory) {return tokenSymbol;} */\n    tag_49:\n        /* \"contracts/_BilboydLeasing.sol\":1614:1627  string memory */\n      0x60\n        /* \"contracts/_BilboydLeasing.sol\":1637:1648  tokenSymbol */\n      0x03\n        /* \"contracts/_BilboydLeasing.sol\":1630:1648  return tokenSymbol */\n      dup1\n      sload\n      tag_133\n      swap1\n      tag_53\n      jump\t// in\n    tag_133:\n      dup1\n      0x1f\n      add\n      0x20\n      dup1\n      swap2\n      div\n      mul\n      0x20\n      add\n      mload(0x40)\n      swap1\n      dup2\n      add\n      0x40\n      mstore\n      dup1\n      swap3\n      swap2\n      swap1\n      dup2\n      dup2\n      mstore\n      0x20\n      add\n      dup3\n      dup1\n      sload\n      tag_134\n      swap1\n      tag_53\n      jump\t// in\n    tag_134:\n      dup1\n      iszero\n      tag_135\n      jumpi\n      dup1\n      0x1f\n      lt\n      tag_136\n      jumpi\n      0x0100\n      dup1\n      dup4\n      sload\n      div\n      mul\n      dup4\n      mstore\n      swap2\n      0x20\n      add\n      swap2\n      jump(tag_135)\n    tag_136:\n      dup3\n      add\n      swap2\n      swap1\n      0x00\n      mstore\n      keccak256(0x00, 0x20)\n      swap1\n    tag_137:\n      dup2\n      sload\n      dup2\n      mstore\n      swap1\n      0x01\n      add\n      swap1\n      0x20\n      add\n      dup1\n      dup4\n      gt\n      tag_137\n      jumpi\n      dup3\n      swap1\n      sub\n      0x1f\n      and\n      dup3\n      add\n      swap2\n    tag_135:\n      pop\n      pop\n      pop\n      pop\n      pop\n      swap1\n      pop\n        /* \"contracts/_BilboydLeasing.sol\":1575:1650  function symbol() public view returns (string memory) {return tokenSymbol;} */\n      swap1\n      jump\t// out\n        /* \"#utility.yul\":7:106   */\n    tag_138:\n        /* \"#utility.yul\":59:65   */\n      0x00\n        /* \"#utility.yul\":93:98   */\n      dup2\n        /* \"#utility.yul\":87:99   */\n      mload\n        /* \"#utility.yul\":77:99   */\n      swap1\n      pop\n        /* \"#utility.yul\":7:106   */\n      swap2\n      swap1\n      pop\n      jump\t// out\n        /* \"#utility.yul\":112:281   */\n    tag_139:\n        /* \"#utility.yul\":196:207   */\n      0x00\n        /* \"#utility.yul\":230:236   */\n      dup3\n        /* \"#utility.yul\":225:228   */\n      dup3\n        /* \"#utility.yul\":218:237   */\n      mstore\n        /* \"#utility.yul\":270:274   */\n      0x20\n        /* \"#utility.yul\":265:268   */\n      dup3\n        /* \"#utility.yul\":261:275   */\n      add\n        /* \"#utility.yul\":246:275   */\n      swap1\n      pop\n        /* \"#utility.yul\":112:281   */\n      swap3\n      swap2\n      pop\n      pop\n      jump\t// out\n        /* \"#utility.yul\":287:426   */\n    tag_140:\n        /* \"#utility.yul\":376:382   */\n      dup3\n        /* \"#utility.yul\":371:374   */\n      dup2\n        /* \"#utility.yul\":366:369   */\n      dup4\n        /* \"#utility.yul\":360:383   */\n      mcopy\n        /* \"#utility.yul\":417:418   */\n      0x00\n        /* \"#utility.yul\":408:414   */\n      dup4\n        /* \"#utility.yul\":403:406   */\n      dup4\n        /* \"#utility.yul\":399:415   */\n      add\n        /* \"#utility.yul\":392:419   */\n      mstore\n        /* \"#utility.yul\":287:426   */\n      pop\n      pop\n      pop\n      jump\t// out\n        /* \"#utility.yul\":432:534   */\n    tag_141:\n        /* \"#utility.yul\":473:479   */\n      0x00\n        /* \"#utility.yul\":524:526   */\n      0x1f\n        /* \"#utility.yul\":520:527   */\n      not\n        /* \"#utility.yul\":515:517   */\n      0x1f\n        /* \"#utility.yul\":508:513   */\n      dup4\n        /* \"#utility.yul\":504:518   */\n      add\n        /* \"#utility.yul\":500:528   */\n      and\n        /* \"#utility.yul\":490:528   */\n      swap1\n      pop\n        /* \"#utility.yul\":432:534   */\n      swap2\n      swap1\n      pop\n      jump\t// out\n        /* \"#utility.yul\":540:917   */\n    tag_142:\n        /* \"#utility.yul\":628:631   */\n      0x00\n        /* \"#utility.yul\":656:695   */\n      tag_198\n        /* \"#utility.yul\":689:694   */\n      dup3\n        /* \"#utility.yul\":656:695   */\n      tag_138\n      jump\t// in\n    tag_198:\n        /* \"#utility.yul\":711:782   */\n      tag_199\n        /* \"#utility.yul\":775:781   */\n      dup2\n        /* \"#utility.yul\":770:773   */\n      dup6\n        /* \"#utility.yul\":711:782   */\n      tag_139\n      jump\t// in\n    tag_199:\n        /* \"#utility.yul\":704:782   */\n      swap4\n      pop\n        /* \"#utility.yul\":791:856   */\n      tag_200\n        /* \"#utility.yul\":849:855   */\n      dup2\n        /* \"#utility.yul\":844:847   */\n      dup6\n        /* \"#utility.yul\":837:841   */\n      0x20\n        /* \"#utility.yul\":830:835   */\n      dup7\n        /* \"#utility.yul\":826:842   */\n      add\n        /* \"#utility.yul\":791:856   */\n      tag_140\n      jump\t// in\n    tag_200:\n        /* \"#utility.yul\":881:910   */\n      tag_201\n        /* \"#utility.yul\":903:909   */\n      dup2\n        /* \"#utility.yul\":881:910   */\n      tag_141\n      jump\t// in\n    tag_201:\n        /* \"#utility.yul\":876:879   */\n      dup5\n        /* \"#utility.yul\":872:911   */\n      add\n        /* \"#utility.yul\":865:911   */\n      swap2\n      pop\n        /* \"#utility.yul\":632:917   */\n      pop\n        /* \"#utility.yul\":540:917   */\n      swap3\n      swap2\n      pop\n      pop\n      jump\t// out\n        /* \"#utility.yul\":923:1236   */\n    tag_15:\n        /* \"#utility.yul\":1036:1040   */\n      0x00\n        /* \"#utility.yul\":1074:1076   */\n      0x20\n        /* \"#utility.yul\":1063:1072   */\n      dup3\n        /* \"#utility.yul\":1059:1077   */\n      add\n        /* \"#utility.yul\":1051:1077   */\n      swap1\n      pop\n        /* \"#utility.yul\":1123:1132   */\n      dup2\n        /* \"#utility.yul\":1117:1121   */\n      dup2\n        /* \"#utility.yul\":1113:1133   */\n      sub\n        /* \"#utility.yul\":1109:1110   */\n      0x00\n        /* \"#utility.yul\":1098:1107   */\n      dup4\n        /* \"#utility.yul\":1094:1111   */\n      add\n        /* \"#utility.yul\":1087:1134   */\n      mstore\n        /* \"#utility.yul\":1151:1229   */\n      tag_203\n        /* \"#utility.yul\":1224:1228   */\n      dup2\n        /* \"#utility.yul\":1215:1221   */\n      dup5\n        /* \"#utility.yul\":1151:1229   */\n      tag_142\n      jump\t// in\n    tag_203:\n        /* \"#utility.yul\":1143:1229   */\n      swap1\n      pop\n        /* \"#utility.yul\":923:1236   */\n      swap3\n      swap2\n      pop\n      pop\n      jump\t// out\n        /* \"#utility.yul\":1242:1317   */\n    tag_143:\n        /* \"#utility.yul\":1275:1281   */\n      0x00\n        /* \"#utility.yul\":1308:1310   */\n      0x40\n        /* \"#utility.yul\":1302:1311   */\n      mload\n        /* \"#utility.yul\":1292:1311   */\n      swap1\n      pop\n        /* \"#utility.yul\":1242:1317   */\n      swap1\n      jump\t// out\n        /* \"#utility.yul\":1323:1440   */\n    tag_144:\n        /* \"#utility.yul\":1432:1433   */\n      0x00\n        /* \"#utility.yul\":1429:1430   */\n      dup1\n        /* \"#utility.yul\":1422:1434   */\n      revert\n        /* \"#utility.yul\":1446:1563   */\n    tag_145:\n        /* \"#utility.yul\":1555:1556   */\n      0x00\n        /* \"#utility.yul\":1552:1553   */\n      dup1\n        /* \"#utility.yul\":1545:1557   */\n      revert\n        /* \"#utility.yul\":1569:1646   */\n    tag_146:\n        /* \"#utility.yul\":1606:1613   */\n      0x00\n        /* \"#utility.yul\":1635:1640   */\n      dup2\n        /* \"#utility.yul\":1624:1640   */\n      swap1\n      pop\n        /* \"#utility.yul\":1569:1646   */\n      swap2\n      swap1\n      pop\n      jump\t// out\n        /* \"#utility.yul\":1652:1774   */\n    tag_147:\n        /* \"#utility.yul\":1725:1749   */\n      tag_209\n        /* \"#utility.yul\":1743:1748   */\n      dup2\n        /* \"#utility.yul\":1725:1749   */\n      tag_146\n      jump\t// in\n    tag_209:\n        /* \"#utility.yul\":1718:1723   */\n      dup2\n        /* \"#utility.yul\":1715:1750   */\n      eq\n        /* \"#utility.yul\":1705:1768   */\n      tag_210\n      jumpi\n        /* \"#utility.yul\":1764:1765   */\n      0x00\n        /* \"#utility.yul\":1761:1762   */\n      dup1\n        /* \"#utility.yul\":1754:1766   */\n      revert\n        /* \"#utility.yul\":1705:1768   */\n    tag_210:\n        /* \"#utility.yul\":1652:1774   */\n      pop\n      jump\t// out\n        /* \"#utility.yul\":1780:1919   */\n    tag_148:\n        /* \"#utility.yul\":1826:1831   */\n      0x00\n        /* \"#utility.yul\":1864:1870   */\n      dup2\n        /* \"#utility.yul\":1851:1871   */\n      calldataload\n        /* \"#utility.yul\":1842:1871   */\n      swap1\n      pop\n        /* \"#utility.yul\":1880:1913   */\n      tag_212\n        /* \"#utility.yul\":1907:1912   */\n      dup2\n        /* \"#utility.yul\":1880:1913   */\n      tag_147\n      jump\t// in\n    tag_212:\n        /* \"#utility.yul\":1780:1919   */\n      swap3\n      swap2\n      pop\n      pop\n      jump\t// out\n        /* \"#utility.yul\":1925:2254   */\n    tag_18:\n        /* \"#utility.yul\":1984:1990   */\n      0x00\n        /* \"#utility.yul\":2033:2035   */\n      0x20\n        /* \"#utility.yul\":2021:2030   */\n      dup3\n        /* \"#utility.yul\":2012:2019   */\n      dup5\n        /* \"#utility.yul\":2008:2031   */\n      sub\n        /* \"#utility.yul\":2004:2036   */\n      slt\n        /* \"#utility.yul\":2001:2120   */\n      iszero\n      tag_214\n      jumpi\n        /* \"#utility.yul\":2039:2118   */\n      tag_215\n      tag_144\n      jump\t// in\n    tag_215:\n        /* \"#utility.yul\":2001:2120   */\n    tag_214:\n        /* \"#utility.yul\":2159:2160   */\n      0x00\n        /* \"#utility.yul\":2184:2237   */\n      tag_216\n        /* \"#utility.yul\":2229:2236   */\n      dup5\n        /* \"#utility.yul\":2220:2226   */\n      dup3\n        /* \"#utility.yul\":2209:2218   */\n      dup6\n        /* \"#utility.yul\":2205:2227   */\n      add\n        /* \"#utility.yul\":2184:2237   */\n      tag_148\n      jump\t// in\n    tag_216:\n        /* \"#utility.yul\":2174:2237   */\n      swap2\n      pop\n        /* \"#utility.yul\":2130:2247   */\n      pop\n        /* \"#utility.yul\":1925:2254   */\n      swap3\n      swap2\n      pop\n      pop\n      jump\t// out\n        /* \"#utility.yul\":2260:2378   */\n    tag_149:\n        /* \"#utility.yul\":2347:2371   */\n      tag_218\n        /* \"#utility.yul\":2365:2370   */\n      dup2\n        /* \"#utility.yul\":2347:2371   */\n      tag_146\n      jump\t// in\n    tag_218:\n        /* \"#utility.yul\":2342:2345   */\n      dup3\n        /* \"#utility.yul\":2335:2372   */\n      mstore\n        /* \"#utility.yul\":2260:2378   */\n      pop\n      pop\n      jump\t// out\n        /* \"#utility.yul\":2384:3230   */\n    tag_21:\n        /* \"#utility.yul\":2629:2633   */\n      0x00\n        /* \"#utility.yul\":2667:2670   */\n      0xa0\n        /* \"#utility.yul\":2656:2665   */\n      dup3\n        /* \"#utility.yul\":2652:2671   */\n      add\n        /* \"#utility.yul\":2644:2671   */\n      swap1\n      pop\n        /* \"#utility.yul\":2717:2726   */\n      dup2\n        /* \"#utility.yul\":2711:2715   */\n      dup2\n        /* \"#utility.yul\":2707:2727   */\n      sub\n        /* \"#utility.yul\":2703:2704   */\n      0x00\n        /* \"#utility.yul\":2692:2701   */\n      dup4\n        /* \"#utility.yul\":2688:2705   */\n      add\n        /* \"#utility.yul\":2681:2728   */\n      mstore\n        /* \"#utility.yul\":2745:2823   */\n      tag_220\n        /* \"#utility.yul\":2818:2822   */\n      dup2\n        /* \"#utility.yul\":2809:2815   */\n      dup9\n        /* \"#utility.yul\":2745:2823   */\n      tag_142\n      jump\t// in\n    tag_220:\n        /* \"#utility.yul\":2737:2823   */\n      swap1\n      pop\n        /* \"#utility.yul\":2870:2879   */\n      dup2\n        /* \"#utility.yul\":2864:2868   */\n      dup2\n        /* \"#utility.yul\":2860:2880   */\n      sub\n        /* \"#utility.yul\":2855:2857   */\n      0x20\n        /* \"#utility.yul\":2844:2853   */\n      dup4\n        /* \"#utility.yul\":2840:2858   */\n      add\n        /* \"#utility.yul\":2833:2881   */\n      mstore\n        /* \"#utility.yul\":2898:2976   */\n      tag_221\n        /* \"#utility.yul\":2971:2975   */\n      dup2\n        /* \"#utility.yul\":2962:2968   */\n      dup8\n        /* \"#utility.yul\":2898:2976   */\n      tag_142\n      jump\t// in\n    tag_221:\n        /* \"#utility.yul\":2890:2976   */\n      swap1\n      pop\n        /* \"#utility.yul\":2986:3058   */\n      tag_222\n        /* \"#utility.yul\":3054:3056   */\n      0x40\n        /* \"#utility.yul\":3043:3052   */\n      dup4\n        /* \"#utility.yul\":3039:3057   */\n      add\n        /* \"#utility.yul\":3030:3036   */\n      dup7\n        /* \"#utility.yul\":2986:3058   */\n      tag_149\n      jump\t// in\n    tag_222:\n        /* \"#utility.yul\":3068:3140   */\n      tag_223\n        /* \"#utility.yul\":3136:3138   */\n      0x60\n        /* \"#utility.yul\":3125:3134   */\n      dup4\n        /* \"#utility.yul\":3121:3139   */\n      add\n        /* \"#utility.yul\":3112:3118   */\n      dup6\n        /* \"#utility.yul\":3068:3140   */\n      tag_149\n      jump\t// in\n    tag_223:\n        /* \"#utility.yul\":3150:3223   */\n      tag_224\n        /* \"#utility.yul\":3218:3221   */\n      0x80\n        /* \"#utility.yul\":3207:3216   */\n      dup4\n        /* \"#utility.yul\":3203:3222   */\n      add\n        /* \"#utility.yul\":3194:3200   */\n      dup5\n        /* \"#utility.yul\":3150:3223   */\n      tag_149\n      jump\t// in\n    tag_224:\n        /* \"#utility.yul\":2384:3230   */\n      swap7\n      swap6\n      pop\n      pop\n      pop\n      pop\n      pop\n      pop\n      jump\t// out\n        /* \"#utility.yul\":3236:3326   */\n    tag_150:\n        /* \"#utility.yul\":3270:3277   */\n      0x00\n        /* \"#utility.yul\":3313:3318   */\n      dup2\n        /* \"#utility.yul\":3306:3319   */\n      iszero\n        /* \"#utility.yul\":3299:3320   */\n      iszero\n        /* \"#utility.yul\":3288:3320   */\n      swap1\n      pop\n        /* \"#utility.yul\":3236:3326   */\n      swap2\n      swap1\n      pop\n      jump\t// out\n        /* \"#utility.yul\":3332:3441   */\n    tag_151:\n        /* \"#utility.yul\":3413:3434   */\n      tag_227\n        /* \"#utility.yul\":3428:3433   */\n      dup2\n        /* \"#utility.yul\":3413:3434   */\n      tag_150\n      jump\t// in\n    tag_227:\n        /* \"#utility.yul\":3408:3411   */\n      dup3\n        /* \"#utility.yul\":3401:3435   */\n      mstore\n        /* \"#utility.yul\":3332:3441   */\n      pop\n      pop\n      jump\t// out\n        /* \"#utility.yul\":3447:3657   */\n    tag_26:\n        /* \"#utility.yul\":3534:3538   */\n      0x00\n        /* \"#utility.yul\":3572:3574   */\n      0x20\n        /* \"#utility.yul\":3561:3570   */\n      dup3\n        /* \"#utility.yul\":3557:3575   */\n      add\n        /* \"#utility.yul\":3549:3575   */\n      swap1\n      pop\n        /* \"#utility.yul\":3585:3650   */\n      tag_229\n        /* \"#utility.yul\":3647:3648   */\n      0x00\n        /* \"#utility.yul\":3636:3645   */\n      dup4\n        /* \"#utility.yul\":3632:3649   */\n      add\n        /* \"#utility.yul\":3623:3629   */\n      dup5\n        /* \"#utility.yul\":3585:3650   */\n      tag_151\n      jump\t// in\n    tag_229:\n        /* \"#utility.yul\":3447:3657   */\n      swap3\n      swap2\n      pop\n      pop\n      jump\t// out\n        /* \"#utility.yul\":3663:3789   */\n    tag_152:\n        /* \"#utility.yul\":3700:3707   */\n      0x00\n        /* \"#utility.yul\":3740:3782   */\n      0xffffffffffffffffffffffffffffffffffffffff\n        /* \"#utility.yul\":3733:3738   */\n      dup3\n        /* \"#utility.yul\":3729:3783   */\n      and\n        /* \"#utility.yul\":3718:3783   */\n      swap1\n      pop\n        /* \"#utility.yul\":3663:3789   */\n      swap2\n      swap1\n      pop\n      jump\t// out\n        /* \"#utility.yul\":3795:3891   */\n    tag_153:\n        /* \"#utility.yul\":3832:3839   */\n      0x00\n        /* \"#utility.yul\":3861:3885   */\n      tag_232\n        /* \"#utility.yul\":3879:3884   */\n      dup3\n        /* \"#utility.yul\":3861:3885   */\n      tag_152\n      jump\t// in\n    tag_232:\n        /* \"#utility.yul\":3850:3885   */\n      swap1\n      pop\n        /* \"#utility.yul\":3795:3891   */\n      swap2\n      swap1\n      pop\n      jump\t// out\n        /* \"#utility.yul\":3897:4015   */\n    tag_154:\n        /* \"#utility.yul\":3984:4008   */\n      tag_234\n        /* \"#utility.yul\":4002:4007   */\n      dup2\n        /* \"#utility.yul\":3984:4008   */\n      tag_153\n      jump\t// in\n    tag_234:\n        /* \"#utility.yul\":3979:3982   */\n      dup3\n        /* \"#utility.yul\":3972:4009   */\n      mstore\n        /* \"#utility.yul\":3897:4015   */\n      pop\n      pop\n      jump\t// out\n        /* \"#utility.yul\":4021:4243   */\n    tag_31:\n        /* \"#utility.yul\":4114:4118   */\n      0x00\n        /* \"#utility.yul\":4152:4154   */\n      0x20\n        /* \"#utility.yul\":4141:4150   */\n      dup3\n        /* \"#utility.yul\":4137:4155   */\n      add\n        /* \"#utility.yul\":4129:4155   */\n      swap1\n      pop\n        /* \"#utility.yul\":4165:4236   */\n      tag_236\n        /* \"#utility.yul\":4233:4234   */\n      0x00\n        /* \"#utility.yul\":4222:4231   */\n      dup4\n        /* \"#utility.yul\":4218:4235   */\n      add\n        /* \"#utility.yul\":4209:4215   */\n      dup5\n        /* \"#utility.yul\":4165:4236   */\n      tag_154\n      jump\t// in\n    tag_236:\n        /* \"#utility.yul\":4021:4243   */\n      swap3\n      swap2\n      pop\n      pop\n      jump\t// out\n        /* \"#utility.yul\":4249:4371   */\n    tag_155:\n        /* \"#utility.yul\":4322:4346   */\n      tag_238\n        /* \"#utility.yul\":4340:4345   */\n      dup2\n        /* \"#utility.yul\":4322:4346   */\n      tag_153\n      jump\t// in\n    tag_238:\n        /* \"#utility.yul\":4315:4320   */\n      dup2\n        /* \"#utility.yul\":4312:4347   */\n      eq\n        /* \"#utility.yul\":4302:4365   */\n      tag_239\n      jumpi\n        /* \"#utility.yul\":4361:4362   */\n      0x00\n        /* \"#utility.yul\":4358:4359   */\n      dup1\n        /* \"#utility.yul\":4351:4363   */\n      revert\n        /* \"#utility.yul\":4302:4365   */\n    tag_239:\n        /* \"#utility.yul\":4249:4371   */\n      pop\n      jump\t// out\n        /* \"#utility.yul\":4377:4516   */\n    tag_156:\n        /* \"#utility.yul\":4423:4428   */\n      0x00\n        /* \"#utility.yul\":4461:4467   */\n      dup2\n        /* \"#utility.yul\":4448:4468   */\n      calldataload\n        /* \"#utility.yul\":4439:4468   */\n      swap1\n      pop\n        /* \"#utility.yul\":4477:4510   */\n      tag_241\n        /* \"#utility.yul\":4504:4509   */\n      dup2\n        /* \"#utility.yul\":4477:4510   */\n      tag_155\n      jump\t// in\n    tag_241:\n        /* \"#utility.yul\":4377:4516   */\n      swap3\n      swap2\n      pop\n      pop\n      jump\t// out\n        /* \"#utility.yul\":4522:4851   */\n    tag_34:\n        /* \"#utility.yul\":4581:4587   */\n      0x00\n        /* \"#utility.yul\":4630:4632   */\n      0x20\n        /* \"#utility.yul\":4618:4627   */\n      dup3\n        /* \"#utility.yul\":4609:4616   */\n      dup5\n        /* \"#utility.yul\":4605:4628   */\n      sub\n        /* \"#utility.yul\":4601:4633   */\n      slt\n        /* \"#utility.yul\":4598:4717   */\n      iszero\n      tag_243\n      jumpi\n        /* \"#utility.yul\":4636:4715   */\n      tag_244\n      tag_144\n      jump\t// in\n    tag_244:\n        /* \"#utility.yul\":4598:4717   */\n    tag_243:\n        /* \"#utility.yul\":4756:4757   */\n      0x00\n        /* \"#utility.yul\":4781:4834   */\n      tag_245\n        /* \"#utility.yul\":4826:4833   */\n      dup5\n        /* \"#utility.yul\":4817:4823   */\n      dup3\n        /* \"#utility.yul\":4806:4815   */\n      dup6\n        /* \"#utility.yul\":4802:4824   */\n      add\n        /* \"#utility.yul\":4781:4834   */\n      tag_156\n      jump\t// in\n    tag_245:\n        /* \"#utility.yul\":4771:4834   */\n      swap2\n      pop\n        /* \"#utility.yul\":4727:4844   */\n      pop\n        /* \"#utility.yul\":4522:4851   */\n      swap3\n      swap2\n      pop\n      pop\n      jump\t// out\n        /* \"#utility.yul\":4857:5079   */\n    tag_37:\n        /* \"#utility.yul\":4950:4954   */\n      0x00\n        /* \"#utility.yul\":4988:4990   */\n      0x20\n        /* \"#utility.yul\":4977:4986   */\n      dup3\n        /* \"#utility.yul\":4973:4991   */\n      add\n        /* \"#utility.yul\":4965:4991   */\n      swap1\n      pop\n        /* \"#utility.yul\":5001:5072   */\n      tag_247\n        /* \"#utility.yul\":5069:5070   */\n      0x00\n        /* \"#utility.yul\":5058:5067   */\n      dup4\n        /* \"#utility.yul\":5054:5071   */\n      add\n        /* \"#utility.yul\":5045:5051   */\n      dup5\n        /* \"#utility.yul\":5001:5072   */\n      tag_149\n      jump\t// in\n    tag_247:\n        /* \"#utility.yul\":4857:5079   */\n      swap3\n      swap2\n      pop\n      pop\n      jump\t// out\n        /* \"#utility.yul\":5085:5202   */\n    tag_157:\n        /* \"#utility.yul\":5194:5195   */\n      0x00\n        /* \"#utility.yul\":5191:5192   */\n      dup1\n        /* \"#utility.yul\":5184:5196   */\n      revert\n        /* \"#utility.yul\":5208:5325   */\n    tag_158:\n        /* \"#utility.yul\":5317:5318   */\n      0x00\n        /* \"#utility.yul\":5314:5315   */\n      dup1\n        /* \"#utility.yul\":5307:5319   */\n      revert\n        /* \"#utility.yul\":5331:5511   */\n    tag_159:\n        /* \"#utility.yul\":5379:5456   */\n      0x4e487b7100000000000000000000000000000000000000000000000000000000\n        /* \"#utility.yul\":5376:5377   */\n      0x00\n        /* \"#utility.yul\":5369:5457   */\n      mstore\n        /* \"#utility.yul\":5476:5480   */\n      0x41\n        /* \"#utility.yul\":5473:5474   */\n      0x04\n        /* \"#utility.yul\":5466:5481   */\n      mstore\n        /* \"#utility.yul\":5500:5504   */\n      0x24\n        /* \"#utility.yul\":5497:5498   */\n      0x00\n        /* \"#utility.yul\":5490:5505   */\n      revert\n        /* \"#utility.yul\":5517:5798   */\n    tag_160:\n        /* \"#utility.yul\":5600:5627   */\n      tag_252\n        /* \"#utility.yul\":5622:5626   */\n      dup3\n        /* \"#utility.yul\":5600:5627   */\n      tag_141\n      jump\t// in\n    tag_252:\n        /* \"#utility.yul\":5592:5598   */\n      dup2\n        /* \"#utility.yul\":5588:5628   */\n      add\n        /* \"#utility.yul\":5730:5736   */\n      dup2\n        /* \"#utility.yul\":5718:5728   */\n      dup2\n        /* \"#utility.yul\":5715:5737   */\n      lt\n        /* \"#utility.yul\":5694:5712   */\n      0xffffffffffffffff\n        /* \"#utility.yul\":5682:5692   */\n      dup3\n        /* \"#utility.yul\":5679:5713   */\n      gt\n        /* \"#utility.yul\":5676:5738   */\n      or\n        /* \"#utility.yul\":5673:5761   */\n      iszero\n      tag_253\n      jumpi\n        /* \"#utility.yul\":5741:5759   */\n      tag_254\n      tag_159\n      jump\t// in\n    tag_254:\n        /* \"#utility.yul\":5673:5761   */\n    tag_253:\n        /* \"#utility.yul\":5781:5791   */\n      dup1\n        /* \"#utility.yul\":5777:5779   */\n      0x40\n        /* \"#utility.yul\":5770:5792   */\n      mstore\n        /* \"#utility.yul\":5560:5798   */\n      pop\n        /* \"#utility.yul\":5517:5798   */\n      pop\n      pop\n      jump\t// out\n        /* \"#utility.yul\":5804:5933   */\n    tag_161:\n        /* \"#utility.yul\":5838:5844   */\n      0x00\n        /* \"#utility.yul\":5865:5885   */\n      tag_256\n      tag_143\n      jump\t// in\n    tag_256:\n        /* \"#utility.yul\":5855:5885   */\n      swap1\n      pop\n        /* \"#utility.yul\":5894:5927   */\n      tag_257\n        /* \"#utility.yul\":5922:5926   */\n      dup3\n        /* \"#utility.yul\":5914:5920   */\n      dup3\n        /* \"#utility.yul\":5894:5927   */\n      tag_160\n      jump\t// in\n    tag_257:\n        /* \"#utility.yul\":5804:5933   */\n      swap2\n      swap1\n      pop\n      jump\t// out\n        /* \"#utility.yul\":5939:6247   */\n    tag_162:\n        /* \"#utility.yul\":6001:6005   */\n      0x00\n        /* \"#utility.yul\":6091:6109   */\n      0xffffffffffffffff\n        /* \"#utility.yul\":6083:6089   */\n      dup3\n        /* \"#utility.yul\":6080:6110   */\n      gt\n        /* \"#utility.yul\":6077:6133   */\n      iszero\n      tag_259\n      jumpi\n        /* \"#utility.yul\":6113:6131   */\n      tag_260\n      tag_159\n      jump\t// in\n    tag_260:\n        /* \"#utility.yul\":6077:6133   */\n    tag_259:\n        /* \"#utility.yul\":6151:6180   */\n      tag_261\n        /* \"#utility.yul\":6173:6179   */\n      dup3\n        /* \"#utility.yul\":6151:6180   */\n      tag_141\n      jump\t// in\n    tag_261:\n        /* \"#utility.yul\":6143:6180   */\n      swap1\n      pop\n        /* \"#utility.yul\":6235:6239   */\n      0x20\n        /* \"#utility.yul\":6229:6233   */\n      dup2\n        /* \"#utility.yul\":6225:6240   */\n      add\n        /* \"#utility.yul\":6217:6240   */\n      swap1\n      pop\n        /* \"#utility.yul\":5939:6247   */\n      swap2\n      swap1\n      pop\n      jump\t// out\n        /* \"#utility.yul\":6253:6401   */\n    tag_163:\n        /* \"#utility.yul\":6351:6357   */\n      dup3\n        /* \"#utility.yul\":6346:6349   */\n      dup2\n        /* \"#utility.yul\":6341:6344   */\n      dup4\n        /* \"#utility.yul\":6328:6358   */\n      calldatacopy\n        /* \"#utility.yul\":6392:6393   */\n      0x00\n        /* \"#utility.yul\":6383:6389   */\n      dup4\n        /* \"#utility.yul\":6378:6381   */\n      dup4\n        /* \"#utility.yul\":6374:6390   */\n      add\n        /* \"#utility.yul\":6367:6394   */\n      mstore\n        /* \"#utility.yul\":6253:6401   */\n      pop\n      pop\n      pop\n      jump\t// out\n        /* \"#utility.yul\":6407:6832   */\n    tag_164:\n        /* \"#utility.yul\":6485:6490   */\n      0x00\n        /* \"#utility.yul\":6510:6576   */\n      tag_264\n        /* \"#utility.yul\":6526:6575   */\n      tag_265\n        /* \"#utility.yul\":6568:6574   */\n      dup5\n        /* \"#utility.yul\":6526:6575   */\n      tag_162\n      jump\t// in\n    tag_265:\n        /* \"#utility.yul\":6510:6576   */\n      tag_161\n      jump\t// in\n    tag_264:\n        /* \"#utility.yul\":6501:6576   */\n      swap1\n      pop\n        /* \"#utility.yul\":6599:6605   */\n      dup3\n        /* \"#utility.yul\":6592:6597   */\n      dup2\n        /* \"#utility.yul\":6585:6606   */\n      mstore\n        /* \"#utility.yul\":6637:6641   */\n      0x20\n        /* \"#utility.yul\":6630:6635   */\n      dup2\n        /* \"#utility.yul\":6626:6642   */\n      add\n        /* \"#utility.yul\":6675:6678   */\n      dup5\n        /* \"#utility.yul\":6666:6672   */\n      dup5\n        /* \"#utility.yul\":6661:6664   */\n      dup5\n        /* \"#utility.yul\":6657:6673   */\n      add\n        /* \"#utility.yul\":6654:6679   */\n      gt\n        /* \"#utility.yul\":6651:6763   */\n      iszero\n      tag_266\n      jumpi\n        /* \"#utility.yul\":6682:6761   */\n      tag_267\n      tag_158\n      jump\t// in\n    tag_267:\n        /* \"#utility.yul\":6651:6763   */\n    tag_266:\n        /* \"#utility.yul\":6772:6826   */\n      tag_268\n        /* \"#utility.yul\":6819:6825   */\n      dup5\n        /* \"#utility.yul\":6814:6817   */\n      dup3\n        /* \"#utility.yul\":6809:6812   */\n      dup6\n        /* \"#utility.yul\":6772:6826   */\n      tag_163\n      jump\t// in\n    tag_268:\n        /* \"#utility.yul\":6491:6832   */\n      pop\n        /* \"#utility.yul\":6407:6832   */\n      swap4\n      swap3\n      pop\n      pop\n      pop\n      jump\t// out\n        /* \"#utility.yul\":6852:7192   */\n    tag_165:\n        /* \"#utility.yul\":6908:6913   */\n      0x00\n        /* \"#utility.yul\":6957:6960   */\n      dup3\n        /* \"#utility.yul\":6950:6954   */\n      0x1f\n        /* \"#utility.yul\":6942:6948   */\n      dup4\n        /* \"#utility.yul\":6938:6955   */\n      add\n        /* \"#utility.yul\":6934:6961   */\n      slt\n        /* \"#utility.yul\":6924:7046   */\n      tag_270\n      jumpi\n        /* \"#utility.yul\":6965:7044   */\n      tag_271\n      tag_157\n      jump\t// in\n    tag_271:\n        /* \"#utility.yul\":6924:7046   */\n    tag_270:\n        /* \"#utility.yul\":7082:7088   */\n      dup2\n        /* \"#utility.yul\":7069:7089   */\n      calldataload\n        /* \"#utility.yul\":7107:7186   */\n      tag_272\n        /* \"#utility.yul\":7182:7185   */\n      dup5\n        /* \"#utility.yul\":7174:7180   */\n      dup3\n        /* \"#utility.yul\":7167:7171   */\n      0x20\n        /* \"#utility.yul\":7159:7165   */\n      dup7\n        /* \"#utility.yul\":7155:7172   */\n      add\n        /* \"#utility.yul\":7107:7186   */\n      tag_164\n      jump\t// in\n    tag_272:\n        /* \"#utility.yul\":7098:7186   */\n      swap2\n      pop\n        /* \"#utility.yul\":6914:7192   */\n      pop\n        /* \"#utility.yul\":6852:7192   */\n      swap3\n      swap2\n      pop\n      pop\n      jump\t// out\n        /* \"#utility.yul\":7198:8615   */\n    tag_40:\n        /* \"#utility.yul\":7322:7328   */\n      0x00\n        /* \"#utility.yul\":7330:7336   */\n      dup1\n        /* \"#utility.yul\":7338:7344   */\n      0x00\n        /* \"#utility.yul\":7346:7352   */\n      dup1\n        /* \"#utility.yul\":7354:7360   */\n      0x00\n        /* \"#utility.yul\":7362:7368   */\n      dup1\n        /* \"#utility.yul\":7411:7414   */\n      0xc0\n        /* \"#utility.yul\":7399:7408   */\n      dup8\n        /* \"#utility.yul\":7390:7397   */\n      dup10\n        /* \"#utility.yul\":7386:7409   */\n      sub\n        /* \"#utility.yul\":7382:7415   */\n      slt\n        /* \"#utility.yul\":7379:7499   */\n      iszero\n      tag_274\n      jumpi\n        /* \"#utility.yul\":7418:7497   */\n      tag_275\n      tag_144\n      jump\t// in\n    tag_275:\n        /* \"#utility.yul\":7379:7499   */\n    tag_274:\n        /* \"#utility.yul\":7538:7539   */\n      0x00\n        /* \"#utility.yul\":7563:7616   */\n      tag_276\n        /* \"#utility.yul\":7608:7615   */\n      dup10\n        /* \"#utility.yul\":7599:7605   */\n      dup3\n        /* \"#utility.yul\":7588:7597   */\n      dup11\n        /* \"#utility.yul\":7584:7606   */\n      add\n        /* \"#utility.yul\":7563:7616   */\n      tag_156\n      jump\t// in\n    tag_276:\n        /* \"#utility.yul\":7553:7616   */\n      swap7\n      pop\n        /* \"#utility.yul\":7509:7626   */\n      pop\n        /* \"#utility.yul\":7693:7695   */\n      0x20\n        /* \"#utility.yul\":7682:7691   */\n      dup8\n        /* \"#utility.yul\":7678:7696   */\n      add\n        /* \"#utility.yul\":7665:7697   */\n      calldataload\n        /* \"#utility.yul\":7724:7742   */\n      0xffffffffffffffff\n        /* \"#utility.yul\":7716:7722   */\n      dup2\n        /* \"#utility.yul\":7713:7743   */\n      gt\n        /* \"#utility.yul\":7710:7827   */\n      iszero\n      tag_277\n      jumpi\n        /* \"#utility.yul\":7746:7825   */\n      tag_278\n      tag_145\n      jump\t// in\n    tag_278:\n        /* \"#utility.yul\":7710:7827   */\n    tag_277:\n        /* \"#utility.yul\":7851:7914   */\n      tag_279\n        /* \"#utility.yul\":7906:7913   */\n      dup10\n        /* \"#utility.yul\":7897:7903   */\n      dup3\n        /* \"#utility.yul\":7886:7895   */\n      dup11\n        /* \"#utility.yul\":7882:7904   */\n      add\n        /* \"#utility.yul\":7851:7914   */\n      tag_165\n      jump\t// in\n    tag_279:\n        /* \"#utility.yul\":7841:7914   */\n      swap6\n      pop\n        /* \"#utility.yul\":7636:7924   */\n      pop\n        /* \"#utility.yul\":7991:7993   */\n      0x40\n        /* \"#utility.yul\":7980:7989   */\n      dup8\n        /* \"#utility.yul\":7976:7994   */\n      add\n        /* \"#utility.yul\":7963:7995   */\n      calldataload\n        /* \"#utility.yul\":8022:8040   */\n      0xffffffffffffffff\n        /* \"#utility.yul\":8014:8020   */\n      dup2\n        /* \"#utility.yul\":8011:8041   */\n      gt\n        /* \"#utility.yul\":8008:8125   */\n      iszero\n      tag_280\n      jumpi\n        /* \"#utility.yul\":8044:8123   */\n      tag_281\n      tag_145\n      jump\t// in\n    tag_281:\n        /* \"#utility.yul\":8008:8125   */\n    tag_280:\n        /* \"#utility.yul\":8149:8212   */\n      tag_282\n        /* \"#utility.yul\":8204:8211   */\n      dup10\n        /* \"#utility.yul\":8195:8201   */\n      dup3\n        /* \"#utility.yul\":8184:8193   */\n      dup11\n        /* \"#utility.yul\":8180:8202   */\n      add\n        /* \"#utility.yul\":8149:8212   */\n      tag_165\n      jump\t// in\n    tag_282:\n        /* \"#utility.yul\":8139:8212   */\n      swap5\n      pop\n        /* \"#utility.yul\":7934:8222   */\n      pop\n        /* \"#utility.yul\":8261:8263   */\n      0x60\n        /* \"#utility.yul\":8287:8340   */\n      tag_283\n        /* \"#utility.yul\":8332:8339   */\n      dup10\n        /* \"#utility.yul\":8323:8329   */\n      dup3\n        /* \"#utility.yul\":8312:8321   */\n      dup11\n        /* \"#utility.yul\":8308:8330   */\n      add\n        /* \"#utility.yul\":8287:8340   */\n      tag_148\n      jump\t// in\n    tag_283:\n        /* \"#utility.yul\":8277:8340   */\n      swap4\n      pop\n        /* \"#utility.yul\":8232:8350   */\n      pop\n        /* \"#utility.yul\":8389:8392   */\n      0x80\n        /* \"#utility.yul\":8416:8469   */\n      tag_284\n        /* \"#utility.yul\":8461:8468   */\n      dup10\n        /* \"#utility.yul\":8452:8458   */\n      dup3\n        /* \"#utility.yul\":8441:8450   */\n      dup11\n        /* \"#utility.yul\":8437:8459   */\n      add\n        /* \"#utility.yul\":8416:8469   */\n      tag_148\n      jump\t// in\n    tag_284:\n        /* \"#utility.yul\":8406:8469   */\n      swap3\n      pop\n        /* \"#utility.yul\":8360:8479   */\n      pop\n        /* \"#utility.yul\":8518:8521   */\n      0xa0\n        /* \"#utility.yul\":8545:8598   */\n      tag_285\n        /* \"#utility.yul\":8590:8597   */\n      dup10\n        /* \"#utility.yul\":8581:8587   */\n      dup3\n        /* \"#utility.yul\":8570:8579   */\n      dup11\n        /* \"#utility.yul\":8566:8588   */\n      add\n        /* \"#utility.yul\":8545:8598   */\n      tag_148\n      jump\t// in\n    tag_285:\n        /* \"#utility.yul\":8535:8598   */\n      swap2\n      pop\n        /* \"#utility.yul\":8489:8608   */\n      pop\n        /* \"#utility.yul\":7198:8615   */\n      swap3\n      swap6\n      pop\n      swap3\n      swap6\n      pop\n      swap3\n      swap6\n      jump\t// out\n        /* \"#utility.yul\":8621:9386   */\n    tag_45:\n        /* \"#utility.yul\":8707:8713   */\n      0x00\n        /* \"#utility.yul\":8715:8721   */\n      dup1\n        /* \"#utility.yul\":8723:8729   */\n      0x00\n        /* \"#utility.yul\":8731:8737   */\n      dup1\n        /* \"#utility.yul\":8780:8783   */\n      0x80\n        /* \"#utility.yul\":8768:8777   */\n      dup6\n        /* \"#utility.yul\":8759:8766   */\n      dup8\n        /* \"#utility.yul\":8755:8778   */\n      sub\n        /* \"#utility.yul\":8751:8784   */\n      slt\n        /* \"#utility.yul\":8748:8868   */\n      iszero\n      tag_287\n      jumpi\n        /* \"#utility.yul\":8787:8866   */\n      tag_288\n      tag_144\n      jump\t// in\n    tag_288:\n        /* \"#utility.yul\":8748:8868   */\n    tag_287:\n        /* \"#utility.yul\":8907:8908   */\n      0x00\n        /* \"#utility.yul\":8932:8985   */\n      tag_289\n        /* \"#utility.yul\":8977:8984   */\n      dup8\n        /* \"#utility.yul\":8968:8974   */\n      dup3\n        /* \"#utility.yul\":8957:8966   */\n      dup9\n        /* \"#utility.yul\":8953:8975   */\n      add\n        /* \"#utility.yul\":8932:8985   */\n      tag_148\n      jump\t// in\n    tag_289:\n        /* \"#utility.yul\":8922:8985   */\n      swap5\n      pop\n        /* \"#utility.yul\":8878:8995   */\n      pop\n        /* \"#utility.yul\":9034:9036   */\n      0x20\n        /* \"#utility.yul\":9060:9113   */\n      tag_290\n        /* \"#utility.yul\":9105:9112   */\n      dup8\n        /* \"#utility.yul\":9096:9102   */\n      dup3\n        /* \"#utility.yul\":9085:9094   */\n      dup9\n        /* \"#utility.yul\":9081:9103   */\n      add\n        /* \"#utility.yul\":9060:9113   */\n      tag_148\n      jump\t// in\n    tag_290:\n        /* \"#utility.yul\":9050:9113   */\n      swap4\n      pop\n        /* \"#utility.yul\":9005:9123   */\n      pop\n        /* \"#utility.yul\":9162:9164   */\n      0x40\n        /* \"#utility.yul\":9188:9241   */\n      tag_291\n        /* \"#utility.yul\":9233:9240   */\n      dup8\n        /* \"#utility.yul\":9224:9230   */\n      dup3\n        /* \"#utility.yul\":9213:9222   */\n      dup9\n        /* \"#utility.yul\":9209:9231   */\n      add\n        /* \"#utility.yul\":9188:9241   */\n      tag_148\n      jump\t// in\n    tag_291:\n        /* \"#utility.yul\":9178:9241   */\n      swap3\n      pop\n        /* \"#utility.yul\":9133:9251   */\n      pop\n        /* \"#utility.yul\":9290:9292   */\n      0x60\n        /* \"#utility.yul\":9316:9369   */\n      tag_292\n        /* \"#utility.yul\":9361:9368   */\n      dup8\n        /* \"#utility.yul\":9352:9358   */\n      dup3\n        /* \"#utility.yul\":9341:9350   */\n      dup9\n        /* \"#utility.yul\":9337:9359   */\n      add\n        /* \"#utility.yul\":9316:9369   */\n      tag_148\n      jump\t// in\n    tag_292:\n        /* \"#utility.yul\":9306:9369   */\n      swap2\n      pop\n        /* \"#utility.yul\":9261:9379   */\n      pop\n        /* \"#utility.yul\":8621:9386   */\n      swap3\n      swap6\n      swap2\n      swap5\n      pop\n      swap3\n      pop\n      jump\t// out\n        /* \"#utility.yul\":9392:9572   */\n    tag_166:\n        /* \"#utility.yul\":9440:9517   */\n      0x4e487b7100000000000000000000000000000000000000000000000000000000\n        /* \"#utility.yul\":9437:9438   */\n      0x00\n        /* \"#utility.yul\":9430:9518   */\n      mstore\n        /* \"#utility.yul\":9537:9541   */\n      0x22\n        /* \"#utility.yul\":9534:9535   */\n      0x04\n        /* \"#utility.yul\":9527:9542   */\n      mstore\n        /* \"#utility.yul\":9561:9565   */\n      0x24\n        /* \"#utility.yul\":9558:9559   */\n      0x00\n        /* \"#utility.yul\":9551:9566   */\n      revert\n        /* \"#utility.yul\":9578:9898   */\n    tag_53:\n        /* \"#utility.yul\":9622:9628   */\n      0x00\n        /* \"#utility.yul\":9659:9660   */\n      0x02\n        /* \"#utility.yul\":9653:9657   */\n      dup3\n        /* \"#utility.yul\":9649:9661   */\n      div\n        /* \"#utility.yul\":9639:9661   */\n      swap1\n      pop\n        /* \"#utility.yul\":9706:9707   */\n      0x01\n        /* \"#utility.yul\":9700:9704   */\n      dup3\n        /* \"#utility.yul\":9696:9708   */\n      and\n        /* \"#utility.yul\":9727:9745   */\n      dup1\n        /* \"#utility.yul\":9717:9798   */\n      tag_295\n      jumpi\n        /* \"#utility.yul\":9783:9787   */\n      0x7f\n        /* \"#utility.yul\":9775:9781   */\n      dup3\n        /* \"#utility.yul\":9771:9788   */\n      and\n        /* \"#utility.yul\":9761:9788   */\n      swap2\n      pop\n        /* \"#utility.yul\":9717:9798   */\n    tag_295:\n        /* \"#utility.yul\":9845:9847   */\n      0x20\n        /* \"#utility.yul\":9837:9843   */\n      dup3\n        /* \"#utility.yul\":9834:9848   */\n      lt\n        /* \"#utility.yul\":9814:9832   */\n      dup2\n        /* \"#utility.yul\":9811:9849   */\n      sub\n        /* \"#utility.yul\":9808:9892   */\n      tag_296\n      jumpi\n        /* \"#utility.yul\":9864:9882   */\n      tag_297\n      tag_166\n      jump\t// in\n    tag_297:\n        /* \"#utility.yul\":9808:9892   */\n    tag_296:\n        /* \"#utility.yul\":9629:9898   */\n      pop\n        /* \"#utility.yul\":9578:9898   */\n      swap2\n      swap1\n      pop\n      jump\t// out\n        /* \"#utility.yul\":9904:10077   */\n    tag_167:\n        /* \"#utility.yul\":10044:10069   */\n      0x546f6b656e20494420646f6573206e6f74206578697374000000000000000000\n        /* \"#utility.yul\":10040:10041   */\n      0x00\n        /* \"#utility.yul\":10032:10038   */\n      dup3\n        /* \"#utility.yul\":10028:10042   */\n      add\n        /* \"#utility.yul\":10021:10070   */\n      mstore\n        /* \"#utility.yul\":9904:10077   */\n      pop\n      jump\t// out\n        /* \"#utility.yul\":10083:10449   */\n    tag_168:\n        /* \"#utility.yul\":10225:10228   */\n      0x00\n        /* \"#utility.yul\":10246:10313   */\n      tag_300\n        /* \"#utility.yul\":10310:10312   */\n      0x17\n        /* \"#utility.yul\":10305:10308   */\n      dup4\n        /* \"#utility.yul\":10246:10313   */\n      tag_139\n      jump\t// in\n    tag_300:\n        /* \"#utility.yul\":10239:10313   */\n      swap2\n      pop\n        /* \"#utility.yul\":10322:10415   */\n      tag_301\n        /* \"#utility.yul\":10411:10414   */\n      dup3\n        /* \"#utility.yul\":10322:10415   */\n      tag_167\n      jump\t// in\n    tag_301:\n        /* \"#utility.yul\":10440:10442   */\n      0x20\n        /* \"#utility.yul\":10435:10438   */\n      dup3\n        /* \"#utility.yul\":10431:10443   */\n      add\n        /* \"#utility.yul\":10424:10443   */\n      swap1\n      pop\n        /* \"#utility.yul\":10083:10449   */\n      swap2\n      swap1\n      pop\n      jump\t// out\n        /* \"#utility.yul\":10455:10874   */\n    tag_62:\n        /* \"#utility.yul\":10621:10625   */\n      0x00\n        /* \"#utility.yul\":10659:10661   */\n      0x20\n        /* \"#utility.yul\":10648:10657   */\n      dup3\n        /* \"#utility.yul\":10644:10662   */\n      add\n        /* \"#utility.yul\":10636:10662   */\n      swap1\n      pop\n        /* \"#utility.yul\":10708:10717   */\n      dup2\n        /* \"#utility.yul\":10702:10706   */\n      dup2\n        /* \"#utility.yul\":10698:10718   */\n      sub\n        /* \"#utility.yul\":10694:10695   */\n      0x00\n        /* \"#utility.yul\":10683:10692   */\n      dup4\n        /* \"#utility.yul\":10679:10696   */\n      add\n        /* \"#utility.yul\":10672:10719   */\n      mstore\n        /* \"#utility.yul\":10736:10867   */\n      tag_303\n        /* \"#utility.yul\":10862:10866   */\n      dup2\n        /* \"#utility.yul\":10736:10867   */\n      tag_168\n      jump\t// in\n    tag_303:\n        /* \"#utility.yul\":10728:10867   */\n      swap1\n      pop\n        /* \"#utility.yul\":10455:10874   */\n      swap2\n      swap1\n      pop\n      jump\t// out\n        /* \"#utility.yul\":10880:11045   */\n    tag_169:\n        /* \"#utility.yul\":11020:11037   */\n      0x496e76616c696420616464726573730000000000000000000000000000000000\n        /* \"#utility.yul\":11016:11017   */\n      0x00\n        /* \"#utility.yul\":11008:11014   */\n      dup3\n        /* \"#utility.yul\":11004:11018   */\n      add\n        /* \"#utility.yul\":10997:11038   */\n      mstore\n        /* \"#utility.yul\":10880:11045   */\n      pop\n      jump\t// out\n        /* \"#utility.yul\":11051:11417   */\n    tag_170:\n        /* \"#utility.yul\":11193:11196   */\n      0x00\n        /* \"#utility.yul\":11214:11281   */\n      tag_306\n        /* \"#utility.yul\":11278:11280   */\n      0x0f\n        /* \"#utility.yul\":11273:11276   */\n      dup4\n        /* \"#utility.yul\":11214:11281   */\n      tag_139\n      jump\t// in\n    tag_306:\n        /* \"#utility.yul\":11207:11281   */\n      swap2\n      pop\n        /* \"#utility.yul\":11290:11383   */\n      tag_307\n        /* \"#utility.yul\":11379:11382   */\n      dup3\n        /* \"#utility.yul\":11290:11383   */\n      tag_169\n      jump\t// in\n    tag_307:\n        /* \"#utility.yul\":11408:11410   */\n      0x20\n        /* \"#utility.yul\":11403:11406   */\n      dup3\n        /* \"#utility.yul\":11399:11411   */\n      add\n        /* \"#utility.yul\":11392:11411   */\n      swap1\n      pop\n        /* \"#utility.yul\":11051:11417   */\n      swap2\n      swap1\n      pop\n      jump\t// out\n        /* \"#utility.yul\":11423:11842   */\n    tag_80:\n        /* \"#utility.yul\":11589:11593   */\n      0x00\n        /* \"#utility.yul\":11627:11629   */\n      0x20\n        /* \"#utility.yul\":11616:11625   */\n      dup3\n        /* \"#utility.yul\":11612:11630   */\n      add\n        /* \"#utility.yul\":11604:11630   */\n      swap1\n      pop\n        /* \"#utility.yul\":11676:11685   */\n      dup2\n        /* \"#utility.yul\":11670:11674   */\n      dup2\n        /* \"#utility.yul\":11666:11686   */\n      sub\n        /* \"#utility.yul\":11662:11663   */\n      0x00\n        /* \"#utility.yul\":11651:11660   */\n      dup4\n        /* \"#utility.yul\":11647:11664   */\n      add\n        /* \"#utility.yul\":11640:11687   */\n      mstore\n        /* \"#utility.yul\":11704:11835   */\n      tag_309\n        /* \"#utility.yul\":11830:11834   */\n      dup2\n        /* \"#utility.yul\":11704:11835   */\n      tag_170\n      jump\t// in\n    tag_309:\n        /* \"#utility.yul\":11696:11835   */\n      swap1\n      pop\n        /* \"#utility.yul\":11423:11842   */\n      swap2\n      swap1\n      pop\n      jump\t// out\n        /* \"#utility.yul\":11848:12030   */\n    tag_171:\n        /* \"#utility.yul\":11988:12022   */\n      0x43616c6c6572206973206e6f742074686520636f6e7472616374206f776e6572\n        /* \"#utility.yul\":11984:11985   */\n      0x00\n        /* \"#utility.yul\":11976:11982   */\n      dup3\n        /* \"#utility.yul\":11972:11986   */\n      add\n        /* \"#utility.yul\":11965:12023   */\n      mstore\n        /* \"#utility.yul\":11848:12030   */\n      pop\n      jump\t// out\n        /* \"#utility.yul\":12036:12402   */\n    tag_172:\n        /* \"#utility.yul\":12178:12181   */\n      0x00\n        /* \"#utility.yul\":12199:12266   */\n      tag_312\n        /* \"#utility.yul\":12263:12265   */\n      0x20\n        /* \"#utility.yul\":12258:12261   */\n      dup4\n        /* \"#utility.yul\":12199:12266   */\n      tag_139\n      jump\t// in\n    tag_312:\n        /* \"#utility.yul\":12192:12266   */\n      swap2\n      pop\n        /* \"#utility.yul\":12275:12368   */\n      tag_313\n        /* \"#utility.yul\":12364:12367   */\n      dup3\n        /* \"#utility.yul\":12275:12368   */\n      tag_171\n      jump\t// in\n    tag_313:\n        /* \"#utility.yul\":12393:12395   */\n      0x20\n        /* \"#utility.yul\":12388:12391   */\n      dup3\n        /* \"#utility.yul\":12384:12396   */\n      add\n        /* \"#utility.yul\":12377:12396   */\n      swap1\n      pop\n        /* \"#utility.yul\":12036:12402   */\n      swap2\n      swap1\n      pop\n      jump\t// out\n        /* \"#utility.yul\":12408:12827   */\n    tag_84:\n        /* \"#utility.yul\":12574:12578   */\n      0x00\n        /* \"#utility.yul\":12612:12614   */\n      0x20\n        /* \"#utility.yul\":12601:12610   */\n      dup3\n        /* \"#utility.yul\":12597:12615   */\n      add\n        /* \"#utility.yul\":12589:12615   */\n      swap1\n      pop\n        /* \"#utility.yul\":12661:12670   */\n      dup2\n        /* \"#utility.yul\":12655:12659   */\n      dup2\n        /* \"#utility.yul\":12651:12671   */\n      sub\n        /* \"#utility.yul\":12647:12648   */\n      0x00\n        /* \"#utility.yul\":12636:12645   */\n      dup4\n        /* \"#utility.yul\":12632:12649   */\n      add\n        /* \"#utility.yul\":12625:12672   */\n      mstore\n        /* \"#utility.yul\":12689:12820   */\n      tag_315\n        /* \"#utility.yul\":12815:12819   */\n      dup2\n        /* \"#utility.yul\":12689:12820   */\n      tag_172\n      jump\t// in\n    tag_315:\n        /* \"#utility.yul\":12681:12820   */\n      swap1\n      pop\n        /* \"#utility.yul\":12408:12827   */\n      swap2\n      swap1\n      pop\n      jump\t// out\n        /* \"#utility.yul\":12833:13003   */\n    tag_173:\n        /* \"#utility.yul\":12973:12995   */\n      0x4d696e7420746f207a65726f2061646472657373000000000000000000000000\n        /* \"#utility.yul\":12969:12970   */\n      0x00\n        /* \"#utility.yul\":12961:12967   */\n      dup3\n        /* \"#utility.yul\":12957:12971   */\n      add\n        /* \"#utility.yul\":12950:12996   */\n      mstore\n        /* \"#utility.yul\":12833:13003   */\n      pop\n      jump\t// out\n        /* \"#utility.yul\":13009:13375   */\n    tag_174:\n        /* \"#utility.yul\":13151:13154   */\n      0x00\n        /* \"#utility.yul\":13172:13239   */\n      tag_318\n        /* \"#utility.yul\":13236:13238   */\n      0x14\n        /* \"#utility.yul\":13231:13234   */\n      dup4\n        /* \"#utility.yul\":13172:13239   */\n      tag_139\n      jump\t// in\n    tag_318:\n        /* \"#utility.yul\":13165:13239   */\n      swap2\n      pop\n        /* \"#utility.yul\":13248:13341   */\n      tag_319\n        /* \"#utility.yul\":13337:13340   */\n      dup3\n        /* \"#utility.yul\":13248:13341   */\n      tag_173\n      jump\t// in\n    tag_319:\n        /* \"#utility.yul\":13366:13368   */\n      0x20\n        /* \"#utility.yul\":13361:13364   */\n      dup3\n        /* \"#utility.yul\":13357:13369   */\n      add\n        /* \"#utility.yul\":13350:13369   */\n      swap1\n      pop\n        /* \"#utility.yul\":13009:13375   */\n      swap2\n      swap1\n      pop\n      jump\t// out\n        /* \"#utility.yul\":13381:13800   */\n    tag_88:\n        /* \"#utility.yul\":13547:13551   */\n      0x00\n        /* \"#utility.yul\":13585:13587   */\n      0x20\n        /* \"#utility.yul\":13574:13583   */\n      dup3\n        /* \"#utility.yul\":13570:13588   */\n      add\n        /* \"#utility.yul\":13562:13588   */\n      swap1\n      pop\n        /* \"#utility.yul\":13634:13643   */\n      dup2\n        /* \"#utility.yul\":13628:13632   */\n      dup2\n        /* \"#utility.yul\":13624:13644   */\n      sub\n        /* \"#utility.yul\":13620:13621   */\n      0x00\n        /* \"#utility.yul\":13609:13618   */\n      dup4\n        /* \"#utility.yul\":13605:13622   */\n      add\n        /* \"#utility.yul\":13598:13645   */\n      mstore\n        /* \"#utility.yul\":13662:13793   */\n      tag_321\n        /* \"#utility.yul\":13788:13792   */\n      dup2\n        /* \"#utility.yul\":13662:13793   */\n      tag_174\n      jump\t// in\n    tag_321:\n        /* \"#utility.yul\":13654:13793   */\n      swap1\n      pop\n        /* \"#utility.yul\":13381:13800   */\n      swap2\n      swap1\n      pop\n      jump\t// out\n        /* \"#utility.yul\":13806:13986   */\n    tag_175:\n        /* \"#utility.yul\":13854:13931   */\n      0x4e487b7100000000000000000000000000000000000000000000000000000000\n        /* \"#utility.yul\":13851:13852   */\n      0x00\n        /* \"#utility.yul\":13844:13932   */\n      mstore\n        /* \"#utility.yul\":13951:13955   */\n      0x11\n        /* \"#utility.yul\":13948:13949   */\n      0x04\n        /* \"#utility.yul\":13941:13956   */\n      mstore\n        /* \"#utility.yul\":13975:13979   */\n      0x24\n        /* \"#utility.yul\":13972:13973   */\n      0x00\n        /* \"#utility.yul\":13965:13980   */\n      revert\n        /* \"#utility.yul\":13992:14183   */\n    tag_90:\n        /* \"#utility.yul\":14032:14035   */\n      0x00\n        /* \"#utility.yul\":14051:14071   */\n      tag_324\n        /* \"#utility.yul\":14069:14070   */\n      dup3\n        /* \"#utility.yul\":14051:14071   */\n      tag_146\n      jump\t// in\n    tag_324:\n        /* \"#utility.yul\":14046:14071   */\n      swap2\n      pop\n        /* \"#utility.yul\":14085:14105   */\n      tag_325\n        /* \"#utility.yul\":14103:14104   */\n      dup4\n        /* \"#utility.yul\":14085:14105   */\n      tag_146\n      jump\t// in\n    tag_325:\n        /* \"#utility.yul\":14080:14105   */\n      swap3\n      pop\n        /* \"#utility.yul\":14128:14129   */\n      dup3\n        /* \"#utility.yul\":14125:14126   */\n      dup3\n        /* \"#utility.yul\":14121:14130   */\n      add\n        /* \"#utility.yul\":14114:14130   */\n      swap1\n      pop\n        /* \"#utility.yul\":14149:14152   */\n      dup1\n        /* \"#utility.yul\":14146:14147   */\n      dup3\n        /* \"#utility.yul\":14143:14153   */\n      gt\n        /* \"#utility.yul\":14140:14176   */\n      iszero\n      tag_326\n      jumpi\n        /* \"#utility.yul\":14156:14174   */\n      tag_327\n      tag_175\n      jump\t// in\n    tag_327:\n        /* \"#utility.yul\":14140:14176   */\n    tag_326:\n        /* \"#utility.yul\":13992:14183   */\n      swap3\n      swap2\n      pop\n      pop\n      jump\t// out\n        /* \"#utility.yul\":14189:14330   */\n    tag_176:\n        /* \"#utility.yul\":14238:14242   */\n      0x00\n        /* \"#utility.yul\":14261:14264   */\n      dup2\n        /* \"#utility.yul\":14253:14264   */\n      swap1\n      pop\n        /* \"#utility.yul\":14284:14287   */\n      dup2\n        /* \"#utility.yul\":14281:14282   */\n      0x00\n        /* \"#utility.yul\":14274:14288   */\n      mstore\n        /* \"#utility.yul\":14318:14322   */\n      0x20\n        /* \"#utility.yul\":14315:14316   */\n      0x00\n        /* \"#utility.yul\":14305:14323   */\n      keccak256\n        /* \"#utility.yul\":14297:14323   */\n      swap1\n      pop\n        /* \"#utility.yul\":14189:14330   */\n      swap2\n      swap1\n      pop\n      jump\t// out\n        /* \"#utility.yul\":14336:14429   */\n    tag_177:\n        /* \"#utility.yul\":14373:14379   */\n      0x00\n        /* \"#utility.yul\":14420:14422   */\n      0x20\n        /* \"#utility.yul\":14415:14417   */\n      0x1f\n        /* \"#utility.yul\":14408:14413   */\n      dup4\n        /* \"#utility.yul\":14404:14418   */\n      add\n        /* \"#utility.yul\":14400:14423   */\n      div\n        /* \"#utility.yul\":14390:14423   */\n      swap1\n      pop\n        /* \"#utility.yul\":14336:14429   */\n      swap2\n      swap1\n      pop\n      jump\t// out\n        /* \"#utility.yul\":14435:14542   */\n    tag_178:\n        /* \"#utility.yul\":14479:14487   */\n      0x00\n        /* \"#utility.yul\":14529:14534   */\n      dup3\n        /* \"#utility.yul\":14523:14527   */\n      dup3\n        /* \"#utility.yul\":14519:14535   */\n      shl\n        /* \"#utility.yul\":14498:14535   */\n      swap1\n      pop\n        /* \"#utility.yul\":14435:14542   */\n      swap3\n      swap2\n      pop\n      pop\n      jump\t// out\n        /* \"#utility.yul\":14548:14941   */\n    tag_179:\n        /* \"#utility.yul\":14617:14623   */\n      0x00\n        /* \"#utility.yul\":14667:14668   */\n      0x08\n        /* \"#utility.yul\":14655:14665   */\n      dup4\n        /* \"#utility.yul\":14651:14669   */\n      mul\n        /* \"#utility.yul\":14690:14787   */\n      tag_332\n        /* \"#utility.yul\":14720:14786   */\n      0xffffffffffffffffffffffffffffffffffffffffffffffffffffffffffffffff\n        /* \"#utility.yul\":14709:14718   */\n      dup3\n        /* \"#utility.yul\":14690:14787   */\n      tag_178\n      jump\t// in\n    tag_332:\n        /* \"#utility.yul\":14808:14847   */\n      tag_333\n        /* \"#utility.yul\":14838:14846   */\n      dup7\n        /* \"#utility.yul\":14827:14836   */\n      dup4\n        /* \"#utility.yul\":14808:14847   */\n      tag_178\n      jump\t// in\n    tag_333:\n        /* \"#utility.yul\":14796:14847   */\n      swap6\n      pop\n        /* \"#utility.yul\":14880:14884   */\n      dup1\n        /* \"#utility.yul\":14876:14885   */\n      not\n        /* \"#utility.yul\":14869:14874   */\n      dup5\n        /* \"#utility.yul\":14865:14886   */\n      and\n        /* \"#utility.yul\":14856:14886   */\n      swap4\n      pop\n        /* \"#utility.yul\":14929:14933   */\n      dup1\n        /* \"#utility.yul\":14919:14927   */\n      dup7\n        /* \"#utility.yul\":14915:14934   */\n      and\n        /* \"#utility.yul\":14908:14913   */\n      dup5\n        /* \"#utility.yul\":14905:14935   */\n      or\n        /* \"#utility.yul\":14895:14935   */\n      swap3\n      pop\n        /* \"#utility.yul\":14624:14941   */\n      pop\n      pop\n        /* \"#utility.yul\":14548:14941   */\n      swap4\n      swap3\n      pop\n      pop\n      pop\n      jump\t// out\n        /* \"#utility.yul\":14947:15007   */\n    tag_180:\n        /* \"#utility.yul\":14975:14978   */\n      0x00\n        /* \"#utility.yul\":14996:15001   */\n      dup2\n        /* \"#utility.yul\":14989:15001   */\n      swap1\n      pop\n        /* \"#utility.yul\":14947:15007   */\n      swap2\n      swap1\n      pop\n      jump\t// out\n        /* \"#utility.yul\":15013:15155   */\n    tag_181:\n        /* \"#utility.yul\":15063:15072   */\n      0x00\n        /* \"#utility.yul\":15096:15149   */\n      tag_336\n        /* \"#utility.yul\":15114:15148   */\n      tag_337\n        /* \"#utility.yul\":15123:15147   */\n      tag_338\n        /* \"#utility.yul\":15141:15146   */\n      dup5\n        /* \"#utility.yul\":15123:15147   */\n      tag_146\n      jump\t// in\n    tag_338:\n        /* \"#utility.yul\":15114:15148   */\n      tag_180\n      jump\t// in\n    tag_337:\n        /* \"#utility.yul\":15096:15149   */\n      tag_146\n      jump\t// in\n    tag_336:\n        /* \"#utility.yul\":15083:15149   */\n      swap1\n      pop\n        /* \"#utility.yul\":15013:15155   */\n      swap2\n      swap1\n      pop\n      jump\t// out\n        /* \"#utility.yul\":15161:15236   */\n    tag_182:\n        /* \"#utility.yul\":15204:15207   */\n      0x00\n        /* \"#utility.yul\":15225:15230   */\n      dup2\n        /* \"#utility.yul\":15218:15230   */\n      swap1\n      pop\n        /* \"#utility.yul\":15161:15236   */\n      swap2\n      swap1\n      pop\n      jump\t// out\n        /* \"#utility.yul\":15242:15511   */\n    tag_183:\n        /* \"#utility.yul\":15352:15391   */\n      tag_341\n        /* \"#utility.yul\":15383:15390   */\n      dup4\n        /* \"#utility.yul\":15352:15391   */\n      tag_181\n      jump\t// in\n    tag_341:\n        /* \"#utility.yul\":15413:15504   */\n      tag_342\n        /* \"#utility.yul\":15462:15503   */\n      tag_343\n        /* \"#utility.yul\":15486:15502   */\n      dup3\n        /* \"#utility.yul\":15462:15503   */\n      tag_182\n      jump\t// in\n    tag_343:\n        /* \"#utility.yul\":15454:15460   */\n      dup5\n        /* \"#utility.yul\":15447:15451   */\n      dup5\n        /* \"#utility.yul\":15441:15452   */\n      sload\n        /* \"#utility.yul\":15413:15504   */\n      tag_179\n      jump\t// in\n    tag_342:\n        /* \"#utility.yul\":15407:15411   */\n      dup3\n        /* \"#utility.yul\":15400:15505   */\n      sstore\n        /* \"#utility.yul\":15318:15511   */\n      pop\n        /* \"#utility.yul\":15242:15511   */\n      pop\n      pop\n      pop\n      jump\t// out\n        /* \"#utility.yul\":15517:15590   */\n    tag_184:\n        /* \"#utility.yul\":15562:15565   */\n      0x00\n        /* \"#utility.yul\":15517:15590   */\n      swap1\n      jump\t// out\n        /* \"#utility.yul\":15596:15785   */\n    tag_185:\n        /* \"#utility.yul\":15673:15705   */\n      tag_346\n      tag_184\n      jump\t// in\n    tag_346:\n        /* \"#utility.yul\":15714:15779   */\n      tag_347\n        /* \"#utility.yul\":15772:15778   */\n      dup2\n        /* \"#utility.yul\":15764:15770   */\n      dup5\n        /* \"#utility.yul\":15758:15762   */\n      dup5\n        /* \"#utility.yul\":15714:15779   */\n      tag_183\n      jump\t// in\n    tag_347:\n        /* \"#utility.yul\":15649:15785   */\n      pop\n        /* \"#utility.yul\":15596:15785   */\n      pop\n      pop\n      jump\t// out\n        /* \"#utility.yul\":15791:15977   */\n    tag_186:\n        /* \"#utility.yul\":15851:15971   */\n    tag_349:\n        /* \"#utility.yul\":15868:15871   */\n      dup2\n        /* \"#utility.yul\":15861:15866   */\n      dup2\n        /* \"#utility.yul\":15858:15872   */\n      lt\n        /* \"#utility.yul\":15851:15971   */\n      iszero\n      tag_351\n      jumpi\n        /* \"#utility.yul\":15922:15961   */\n      tag_352\n        /* \"#utility.yul\":15959:15960   */\n      0x00\n        /* \"#utility.yul\":15952:15957   */\n      dup3\n        /* \"#utility.yul\":15922:15961   */\n      tag_185\n      jump\t// in\n    tag_352:\n        /* \"#utility.yul\":15895:15896   */\n      0x01\n        /* \"#utility.yul\":15888:15893   */\n      dup2\n        /* \"#utility.yul\":15884:15897   */\n      add\n        /* \"#utility.yul\":15875:15897   */\n      swap1\n      pop\n        /* \"#utility.yul\":15851:15971   */\n      jump(tag_349)\n    tag_351:\n        /* \"#utility.yul\":15791:15977   */\n      pop\n      pop\n      jump\t// out\n        /* \"#utility.yul\":15983:16526   */\n    tag_187:\n        /* \"#utility.yul\":16084:16086   */\n      0x1f\n        /* \"#utility.yul\":16079:16082   */\n      dup3\n        /* \"#utility.yul\":16076:16087   */\n      gt\n        /* \"#utility.yul\":16073:16519   */\n      iszero\n      tag_354\n      jumpi\n        /* \"#utility.yul\":16118:16156   */\n      tag_355\n        /* \"#utility.yul\":16150:16155   */\n      dup2\n        /* \"#utility.yul\":16118:16156   */\n      tag_176\n      jump\t// in\n    tag_355:\n        /* \"#utility.yul\":16202:16231   */\n      tag_356\n        /* \"#utility.yul\":16220:16230   */\n      dup5\n        /* \"#utility.yul\":16202:16231   */\n      tag_177\n      jump\t// in\n    tag_356:\n        /* \"#utility.yul\":16192:16200   */\n      dup2\n        /* \"#utility.yul\":16188:16232   */\n      add\n        /* \"#utility.yul\":16385:16387   */\n      0x20\n        /* \"#utility.yul\":16373:16383   */\n      dup6\n        /* \"#utility.yul\":16370:16388   */\n      lt\n        /* \"#utility.yul\":16367:16416   */\n      iszero\n      tag_357\n      jumpi\n        /* \"#utility.yul\":16406:16414   */\n      dup2\n        /* \"#utility.yul\":16391:16414   */\n      swap1\n      pop\n        /* \"#utility.yul\":16367:16416   */\n    tag_357:\n        /* \"#utility.yul\":16429:16509   */\n      tag_358\n        /* \"#utility.yul\":16485:16507   */\n      tag_359\n        /* \"#utility.yul\":16503:16506   */\n      dup6\n        /* \"#utility.yul\":16485:16507   */\n      tag_177\n      jump\t// in\n    tag_359:\n        /* \"#utility.yul\":16475:16483   */\n      dup4\n        /* \"#utility.yul\":16471:16508   */\n      add\n        /* \"#utility.yul\":16458:16469   */\n      dup3\n        /* \"#utility.yul\":16429:16509   */\n      tag_186\n      jump\t// in\n    tag_358:\n        /* \"#utility.yul\":16088:16519   */\n      pop\n      pop\n        /* \"#utility.yul\":16073:16519   */\n    tag_354:\n        /* \"#utility.yul\":15983:16526   */\n      pop\n      pop\n      pop\n      jump\t// out\n        /* \"#utility.yul\":16532:16649   */\n    tag_188:\n        /* \"#utility.yul\":16586:16594   */\n      0x00\n        /* \"#utility.yul\":16636:16641   */\n      dup3\n        /* \"#utility.yul\":16630:16634   */\n      dup3\n        /* \"#utility.yul\":16626:16642   */\n      shr\n        /* \"#utility.yul\":16605:16642   */\n      swap1\n      pop\n        /* \"#utility.yul\":16532:16649   */\n      swap3\n      swap2\n      pop\n      pop\n      jump\t// out\n        /* \"#utility.yul\":16655:16824   */\n    tag_189:\n        /* \"#utility.yul\":16699:16705   */\n      0x00\n        /* \"#utility.yul\":16732:16783   */\n      tag_362\n        /* \"#utility.yul\":16780:16781   */\n      0x00\n        /* \"#utility.yul\":16776:16782   */\n      not\n        /* \"#utility.yul\":16768:16773   */\n      dup5\n        /* \"#utility.yul\":16765:16766   */\n      0x08\n        /* \"#utility.yul\":16761:16774   */\n      mul\n        /* \"#utility.yul\":16732:16783   */\n      tag_188\n      jump\t// in\n    tag_362:\n        /* \"#utility.yul\":16728:16784   */\n      not\n        /* \"#utility.yul\":16813:16817   */\n      dup1\n        /* \"#utility.yul\":16807:16811   */\n      dup4\n        /* \"#utility.yul\":16803:16818   */\n      and\n        /* \"#utility.yul\":16793:16818   */\n      swap2\n      pop\n        /* \"#utility.yul\":16706:16824   */\n      pop\n        /* \"#utility.yul\":16655:16824   */\n      swap3\n      swap2\n      pop\n      pop\n      jump\t// out\n        /* \"#utility.yul\":16829:17124   */\n    tag_190:\n        /* \"#utility.yul\":16905:16909   */\n      0x00\n        /* \"#utility.yul\":17051:17080   */\n      tag_364\n        /* \"#utility.yul\":17076:17079   */\n      dup4\n        /* \"#utility.yul\":17070:17074   */\n      dup4\n        /* \"#utility.yul\":17051:17080   */\n      tag_189\n      jump\t// in\n    tag_364:\n        /* \"#utility.yul\":17043:17080   */\n      swap2\n      pop\n        /* \"#utility.yul\":17113:17116   */\n      dup3\n        /* \"#utility.yul\":17110:17111   */\n      0x02\n        /* \"#utility.yul\":17106:17117   */\n      mul\n        /* \"#utility.yul\":17100:17104   */\n      dup3\n        /* \"#utility.yul\":17097:17118   */\n      or\n        /* \"#utility.yul\":17089:17118   */\n      swap1\n      pop\n        /* \"#utility.yul\":16829:17124   */\n      swap3\n      swap2\n      pop\n      pop\n      jump\t// out\n        /* \"#utility.yul\":17129:18524   */\n    tag_93:\n        /* \"#utility.yul\":17246:17283   */\n      tag_366\n        /* \"#utility.yul\":17279:17282   */\n      dup3\n        /* \"#utility.yul\":17246:17283   */\n      tag_138\n      jump\t// in\n    tag_366:\n        /* \"#utility.yul\":17348:17366   */\n      0xffffffffffffffff\n        /* \"#utility.yul\":17340:17346   */\n      dup2\n        /* \"#utility.yul\":17337:17367   */\n      gt\n        /* \"#utility.yul\":17334:17390   */\n      iszero\n      tag_367\n      jumpi\n        /* \"#utility.yul\":17370:17388   */\n      tag_368\n      tag_159\n      jump\t// in\n    tag_368:\n        /* \"#utility.yul\":17334:17390   */\n    tag_367:\n        /* \"#utility.yul\":17414:17452   */\n      tag_369\n        /* \"#utility.yul\":17446:17450   */\n      dup3\n        /* \"#utility.yul\":17440:17451   */\n      sload\n        /* \"#utility.yul\":17414:17452   */\n      tag_53\n      jump\t// in\n    tag_369:\n        /* \"#utility.yul\":17499:17566   */\n      tag_370\n        /* \"#utility.yul\":17559:17565   */\n      dup3\n        /* \"#utility.yul\":17551:17557   */\n      dup3\n        /* \"#utility.yul\":17545:17549   */\n      dup6\n        /* \"#utility.yul\":17499:17566   */\n      tag_187\n      jump\t// in\n    tag_370:\n        /* \"#utility.yul\":17593:17594   */\n      0x00\n        /* \"#utility.yul\":17617:17621   */\n      0x20\n        /* \"#utility.yul\":17604:17621   */\n      swap1\n      pop\n        /* \"#utility.yul\":17649:17651   */\n      0x1f\n        /* \"#utility.yul\":17641:17647   */\n      dup4\n        /* \"#utility.yul\":17638:17652   */\n      gt\n        /* \"#utility.yul\":17666:17667   */\n      0x01\n        /* \"#utility.yul\":17661:18279   */\n      dup2\n      eq\n      tag_372\n      jumpi\n        /* \"#utility.yul\":18323:18324   */\n      0x00\n        /* \"#utility.yul\":18340:18346   */\n      dup5\n        /* \"#utility.yul\":18337:18414   */\n      iszero\n      tag_373\n      jumpi\n        /* \"#utility.yul\":18389:18398   */\n      dup3\n        /* \"#utility.yul\":18384:18387   */\n      dup8\n        /* \"#utility.yul\":18380:18399   */\n      add\n        /* \"#utility.yul\":18374:18400   */\n      mload\n        /* \"#utility.yul\":18365:18400   */\n      swap1\n      pop\n        /* \"#utility.yul\":18337:18414   */\n    tag_373:\n        /* \"#utility.yul\":18440:18507   */\n      tag_374\n        /* \"#utility.yul\":18500:18506   */\n      dup6\n        /* \"#utility.yul\":18493:18498   */\n      dup3\n        /* \"#utility.yul\":18440:18507   */\n      tag_190\n      jump\t// in\n    tag_374:\n        /* \"#utility.yul\":18434:18438   */\n      dup7\n        /* \"#utility.yul\":18427:18508   */\n      sstore\n        /* \"#utility.yul\":18296:18518   */\n      pop\n        /* \"#utility.yul\":17631:18518   */\n      jump(tag_371)\n        /* \"#utility.yul\":17661:18279   */\n    tag_372:\n        /* \"#utility.yul\":17713:17717   */\n      0x1f\n        /* \"#utility.yul\":17709:17718   */\n      not\n        /* \"#utility.yul\":17701:17707   */\n      dup5\n        /* \"#utility.yul\":17697:17719   */\n      and\n        /* \"#utility.yul\":17747:17784   */\n      tag_375\n        /* \"#utility.yul\":17779:17783   */\n      dup7\n        /* \"#utility.yul\":17747:17784   */\n      tag_176\n      jump\t// in\n    tag_375:\n        /* \"#utility.yul\":17806:17807   */\n      0x00\n        /* \"#utility.yul\":17820:18028   */\n    tag_376:\n        /* \"#utility.yul\":17834:17841   */\n      dup3\n        /* \"#utility.yul\":17831:17832   */\n      dup2\n        /* \"#utility.yul\":17828:17842   */\n      lt\n        /* \"#utility.yul\":17820:18028   */\n      iszero\n      tag_378\n      jumpi\n        /* \"#utility.yul\":17913:17922   */\n      dup5\n        /* \"#utility.yul\":17908:17911   */\n      dup10\n        /* \"#utility.yul\":17904:17923   */\n      add\n        /* \"#utility.yul\":17898:17924   */\n      mload\n        /* \"#utility.yul\":17890:17896   */\n      dup3\n        /* \"#utility.yul\":17883:17925   */\n      sstore\n        /* \"#utility.yul\":17964:17965   */\n      0x01\n        /* \"#utility.yul\":17956:17962   */\n      dup3\n        /* \"#utility.yul\":17952:17966   */\n      add\n        /* \"#utility.yul\":17942:17966   */\n      swap2\n      pop\n        /* \"#utility.yul\":18011:18013   */\n      0x20\n        /* \"#utility.yul\":18000:18009   */\n      dup6\n        /* \"#utility.yul\":17996:18014   */\n      add\n        /* \"#utility.yul\":17983:18014   */\n      swap5\n      pop\n        /* \"#utility.yul\":17857:17861   */\n      0x20\n        /* \"#utility.yul\":17854:17855   */\n      dup2\n        /* \"#utility.yul\":17850:17862   */\n      add\n        /* \"#utility.yul\":17845:17862   */\n      swap1\n      pop\n        /* \"#utility.yul\":17820:18028   */\n      jump(tag_376)\n    tag_378:\n        /* \"#utility.yul\":18056:18062   */\n      dup7\n        /* \"#utility.yul\":18047:18054   */\n      dup4\n        /* \"#utility.yul\":18044:18063   */\n      lt\n        /* \"#utility.yul\":18041:18220   */\n      iszero\n      tag_379\n      jumpi\n        /* \"#utility.yul\":18114:18123   */\n      dup5\n        /* \"#utility.yul\":18109:18112   */\n      dup10\n        /* \"#utility.yul\":18105:18124   */\n      add\n        /* \"#utility.yul\":18099:18125   */\n      mload\n        /* \"#utility.yul\":18157:18205   */\n      tag_380\n        /* \"#utility.yul\":18199:18203   */\n      0x1f\n        /* \"#utility.yul\":18191:18197   */\n      dup10\n        /* \"#utility.yul\":18187:18204   */\n      and\n        /* \"#utility.yul\":18176:18185   */\n      dup3\n        /* \"#utility.yul\":18157:18205   */\n      tag_189\n      jump\t// in\n    tag_380:\n        /* \"#utility.yul\":18149:18155   */\n      dup4\n        /* \"#utility.yul\":18142:18206   */\n      sstore\n        /* \"#utility.yul\":18064:18220   */\n      pop\n        /* \"#utility.yul\":18041:18220   */\n    tag_379:\n        /* \"#utility.yul\":18266:18267   */\n      0x01\n        /* \"#utility.yul\":18262:18263   */\n      0x02\n        /* \"#utility.yul\":18254:18260   */\n      dup9\n        /* \"#utility.yul\":18250:18264   */\n      mul\n        /* \"#utility.yul\":18246:18268   */\n      add\n        /* \"#utility.yul\":18240:18244   */\n      dup9\n        /* \"#utility.yul\":18233:18269   */\n      sstore\n        /* \"#utility.yul\":17668:18279   */\n      pop\n      pop\n      pop\n        /* \"#utility.yul\":17631:18518   */\n    tag_371:\n      pop\n        /* \"#utility.yul\":17221:18524   */\n      pop\n      pop\n      pop\n        /* \"#utility.yul\":17129:18524   */\n      pop\n      pop\n      jump\t// out\n        /* \"#utility.yul\":18530:18710   */\n    tag_191:\n        /* \"#utility.yul\":18578:18655   */\n      0x4e487b7100000000000000000000000000000000000000000000000000000000\n        /* \"#utility.yul\":18575:18576   */\n      0x00\n        /* \"#utility.yul\":18568:18656   */\n      mstore\n        /* \"#utility.yul\":18675:18679   */\n      0x12\n        /* \"#utility.yul\":18672:18673   */\n      0x04\n        /* \"#utility.yul\":18665:18680   */\n      mstore\n        /* \"#utility.yul\":18699:18703   */\n      0x24\n        /* \"#utility.yul\":18696:18697   */\n      0x00\n        /* \"#utility.yul\":18689:18704   */\n      revert\n        /* \"#utility.yul\":18716:18901   */\n    tag_110:\n        /* \"#utility.yul\":18756:18757   */\n      0x00\n        /* \"#utility.yul\":18773:18793   */\n      tag_383\n        /* \"#utility.yul\":18791:18792   */\n      dup3\n        /* \"#utility.yul\":18773:18793   */\n      tag_146\n      jump\t// in\n    tag_383:\n        /* \"#utility.yul\":18768:18793   */\n      swap2\n      pop\n        /* \"#utility.yul\":18807:18827   */\n      tag_384\n        /* \"#utility.yul\":18825:18826   */\n      dup4\n        /* \"#utility.yul\":18807:18827   */\n      tag_146\n      jump\t// in\n    tag_384:\n        /* \"#utility.yul\":18802:18827   */\n      swap3\n      pop\n        /* \"#utility.yul\":18846:18847   */\n      dup3\n        /* \"#utility.yul\":18836:18871   */\n      tag_385\n      jumpi\n        /* \"#utility.yul\":18851:18869   */\n      tag_386\n      tag_191\n      jump\t// in\n    tag_386:\n        /* \"#utility.yul\":18836:18871   */\n    tag_385:\n        /* \"#utility.yul\":18893:18894   */\n      dup3\n        /* \"#utility.yul\":18890:18891   */\n      dup3\n        /* \"#utility.yul\":18886:18895   */\n      div\n        /* \"#utility.yul\":18881:18895   */\n      swap1\n      pop\n        /* \"#utility.yul\":18716:18901   */\n      swap3\n      swap2\n      pop\n      pop\n      jump\t// out\n        /* \"#utility.yul\":18907:19101   */\n    tag_113:\n        /* \"#utility.yul\":18947:18951   */\n      0x00\n        /* \"#utility.yul\":18967:18987   */\n      tag_388\n        /* \"#utility.yul\":18985:18986   */\n      dup3\n        /* \"#utility.yul\":18967:18987   */\n      tag_146\n      jump\t// in\n    tag_388:\n        /* \"#utility.yul\":18962:18987   */\n      swap2\n      pop\n        /* \"#utility.yul\":19001:19021   */\n      tag_389\n        /* \"#utility.yul\":19019:19020   */\n      dup4\n        /* \"#utility.yul\":19001:19021   */\n      tag_146\n      jump\t// in\n    tag_389:\n        /* \"#utility.yul\":18996:19021   */\n      swap3\n      pop\n        /* \"#utility.yul\":19045:19046   */\n      dup3\n        /* \"#utility.yul\":19042:19043   */\n      dup3\n        /* \"#utility.yul\":19038:19047   */\n      sub\n        /* \"#utility.yul\":19030:19047   */\n      swap1\n      pop\n        /* \"#utility.yul\":19069:19070   */\n      dup2\n        /* \"#utility.yul\":19063:19067   */\n      dup2\n        /* \"#utility.yul\":19060:19071   */\n      gt\n        /* \"#utility.yul\":19057:19094   */\n      iszero\n      tag_390\n      jumpi\n        /* \"#utility.yul\":19074:19092   */\n      tag_391\n      tag_175\n      jump\t// in\n    tag_391:\n        /* \"#utility.yul\":19057:19094   */\n    tag_390:\n        /* \"#utility.yul\":18907:19101   */\n      swap3\n      swap2\n      pop\n      pop\n      jump\t// out\n        /* \"#utility.yul\":19107:19517   */\n    tag_115:\n        /* \"#utility.yul\":19147:19154   */\n      0x00\n        /* \"#utility.yul\":19170:19190   */\n      tag_393\n        /* \"#utility.yul\":19188:19189   */\n      dup3\n        /* \"#utility.yul\":19170:19190   */\n      tag_146\n      jump\t// in\n    tag_393:\n        /* \"#utility.yul\":19165:19190   */\n      swap2\n      pop\n        /* \"#utility.yul\":19204:19224   */\n      tag_394\n        /* \"#utility.yul\":19222:19223   */\n      dup4\n        /* \"#utility.yul\":19204:19224   */\n      tag_146\n      jump\t// in\n    tag_394:\n        /* \"#utility.yul\":19199:19224   */\n      swap3\n      pop\n        /* \"#utility.yul\":19259:19260   */\n      dup3\n        /* \"#utility.yul\":19256:19257   */\n      dup3\n        /* \"#utility.yul\":19252:19261   */\n      mul\n        /* \"#utility.yul\":19281:19311   */\n      tag_395\n        /* \"#utility.yul\":19299:19310   */\n      dup2\n        /* \"#utility.yul\":19281:19311   */\n      tag_146\n      jump\t// in\n    tag_395:\n        /* \"#utility.yul\":19270:19311   */\n      swap2\n      pop\n        /* \"#utility.yul\":19460:19461   */\n      dup3\n        /* \"#utility.yul\":19451:19458   */\n      dup3\n        /* \"#utility.yul\":19447:19462   */\n      div\n        /* \"#utility.yul\":19444:19445   */\n      dup5\n        /* \"#utility.yul\":19441:19463   */\n      eq\n        /* \"#utility.yul\":19421:19422   */\n      dup4\n        /* \"#utility.yul\":19414:19423   */\n      iszero\n        /* \"#utility.yul\":19394:19477   */\n      or\n        /* \"#utility.yul\":19371:19510   */\n      tag_396\n      jumpi\n        /* \"#utility.yul\":19490:19508   */\n      tag_397\n      tag_175\n      jump\t// in\n    tag_397:\n        /* \"#utility.yul\":19371:19510   */\n    tag_396:\n        /* \"#utility.yul\":19155:19517   */\n      pop\n        /* \"#utility.yul\":19107:19517   */\n      swap3\n      swap2\n      pop\n      pop\n      jump\t// out\n\n    auxdata: 0xa26469706673582212206d70ecc025efa343ec11822e3b55cdebe26044c0bbe6c61d44cf44c813318db464736f6c634300081a0033\n}\n",
				"bytecode": {
					"linkReferences": {},
					"object": "608060405234801561000f575f80fd5b506040518060400160405280600a81526020017f42696c426f796443617200000000000000000000000000000000000000000000815250600290816100549190610319565b506040518060400160405280600381526020017f4242430000000000000000000000000000000000000000000000000000000000815250600390816100999190610319565b503360065f6101000a81548173ffffffffffffffffffffffffffffffffffffffff021916908373ffffffffffffffffffffffffffffffffffffffff1602179055506103e8565b5f81519050919050565b7f4e487b71000000000000000000000000000000000000000000000000000000005f52604160045260245ffd5b7f4e487b71000000000000000000000000000000000000000000000000000000005f52602260045260245ffd5b5f600282049050600182168061015a57607f821691505b60208210810361016d5761016c610116565b5b50919050565b5f819050815f5260205f209050919050565b5f6020601f8301049050919050565b5f82821b905092915050565b5f600883026101cf7fffffffffffffffffffffffffffffffffffffffffffffffffffffffffffffffff82610194565b6101d98683610194565b95508019841693508086168417925050509392505050565b5f819050919050565b5f819050919050565b5f61021d610218610213846101f1565b6101fa565b6101f1565b9050919050565b5f819050919050565b61023683610203565b61024a61024282610224565b8484546101a0565b825550505050565b5f90565b61025e610252565b61026981848461022d565b505050565b5b8181101561028c576102815f82610256565b60018101905061026f565b5050565b601f8211156102d1576102a281610173565b6102ab84610185565b810160208510156102ba578190505b6102ce6102c685610185565b83018261026e565b50505b505050565b5f82821c905092915050565b5f6102f15f19846008026102d6565b1980831691505092915050565b5f61030983836102e2565b9150826002028217905092915050565b610322826100df565b67ffffffffffffffff81111561033b5761033a6100e9565b5b6103458254610143565b610350828285610290565b5f60209050601f831160018114610381575f841561036f578287015190505b61037985826102fe565b8655506103e0565b601f19841661038f86610173565b5f5b828110156103b657848901518255600182019150602085019450602081019050610391565b868310156103d357848901516103cf601f8916826102e2565b8355505b6001600288020188555050505b505050505050565b611684806103f55f395ff3fe608060405234801561000f575f80fd5b5060043610610086575f3560e01c806370a082311161005957806370a082311461013c57806375bb48fe1461016c57806377f110bc1461019c57806395d89b41146101cc57610086565b806306fdde031461008a578063472ec454146100a85780634f558e79146100dc5780636352211e1461010c575b5f80fd5b6100926101ea565b60405161009f9190610c6d565b60405180910390f35b6100c260048036038101906100bd9190610cd1565b61027a565b6040516100d3959493929190610d0b565b60405180910390f35b6100f660048036038101906100f19190610cd1565b610450565b6040516101039190610d84565b60405180910390f35b61012660048036038101906101219190610cd1565b6104b7565b6040516101339190610ddc565b60405180910390f35b61015660048036038101906101519190610e1f565b610562565b6040516101639190610e4a565b60405180910390f35b61018660048036038101906101819190610f8f565b610616565b6040516101939190610e4a565b60405180910390f35b6101b660048036038101906101b19190611050565b6108c0565b6040516101c39190610e4a565b60405180910390f35b6101d4610b6d565b6040516101e19190610c6d565b60405180910390f35b6060600280546101f9906110e1565b80601f0160208091040260200160405190810160405280929190818152602001828054610225906110e1565b80156102705780601f1061024757610100808354040283529160200191610270565b820191905f5260205f20905b81548152906001019060200180831161025357829003601f168201915b5050505050905090565b6060805f805f61028986610450565b6102c8576040517f08c379a00000000000000000000000000000000000000000000000000000000081526004016102bf9061115b565b60405180910390fd5b5f60055f8881526020019081526020015f206040518060a00160405290815f820180546102f4906110e1565b80601f0160208091040260200160405190810160405280929190818152602001828054610320906110e1565b801561036b5780601f106103425761010080835404028352916020019161036b565b820191905f5260205f20905b81548152906001019060200180831161034e57829003601f168201915b50505050508152602001600182018054610384906110e1565b80601f01602080910402602001604051908101604052809291908181526020018280546103b0906110e1565b80156103fb5780601f106103d2576101008083540402835291602001916103fb565b820191905f5260205f20905b8154815290600101906020018083116103de57829003601f168201915b5050505050815260200160028201548152602001600382015481526020016004820154815250509050805f01518160200151826040015183606001518460800151955095509550955095505091939590929450565b5f8073ffffffffffffffffffffffffffffffffffffffff165f808481526020019081526020015f205f9054906101000a900473ffffffffffffffffffffffffffffffffffffffff1673ffffffffffffffffffffffffffffffffffffffff1614159050919050565b5f805f808481526020019081526020015f205f9054906101000a900473ffffffffffffffffffffffffffffffffffffffff1690505f73ffffffffffffffffffffffffffffffffffffffff168173ffffffffffffffffffffffffffffffffffffffff1603610559576040517f08c379a00000000000000000000000000000000000000000000000000000000081526004016105509061115b565b60405180910390fd5b80915050919050565b5f8073ffffffffffffffffffffffffffffffffffffffff168273ffffffffffffffffffffffffffffffffffffffff16036105d1576040517f08c379a00000000000000000000000000000000000000000000000000000000081526004016105c8906111c3565b60405180910390fd5b60015f8373ffffffffffffffffffffffffffffffffffffffff1673ffffffffffffffffffffffffffffffffffffffff1681526020019081526020015f20549050919050565b5f60065f9054906101000a900473ffffffffffffffffffffffffffffffffffffffff1673ffffffffffffffffffffffffffffffffffffffff163373ffffffffffffffffffffffffffffffffffffffff16146106a6576040517f08c379a000000000000000000000000000000000000000000000000000000000815260040161069d9061122b565b60405180910390fd5b5f73ffffffffffffffffffffffffffffffffffffffff168773ffffffffffffffffffffffffffffffffffffffff1603610714576040517f08c379a000000000000000000000000000000000000000000000000000000000815260040161070b90611293565b60405180910390fd5b600160045f82825461072691906112de565b925050819055505f60045490506001805f8a73ffffffffffffffffffffffffffffffffffffffff1673ffffffffffffffffffffffffffffffffffffffff1681526020019081526020015f205f82825461077f91906112de565b92505081905550875f808381526020019081526020015f205f6101000a81548173ffffffffffffffffffffffffffffffffffffffff021916908373ffffffffffffffffffffffffffffffffffffffff1602179055506040518060a001604052808881526020018781526020018681526020018581526020018481525060055f8381526020019081526020015f205f820151815f01908161081f91906114ae565b50602082015181600101908161083591906114ae565b50604082015181600201556060820151816003015560808201518160040155905050808873ffffffffffffffffffffffffffffffffffffffff165f73ffffffffffffffffffffffffffffffffffffffff167fddf252ad1be2c89b69c2b068fc378daa952ba7f163c4a11628f55a4df523b3ef60405160405180910390a4809150509695505050505050565b5f6108ca85610450565b610909576040517f08c379a00000000000000000000000000000000000000000000000000000000081526004016109009061115b565b60405180910390fd5b5f60055f8781526020019081526020015f206040518060a00160405290815f82018054610935906110e1565b80601f0160208091040260200160405190810160405280929190818152602001828054610961906110e1565b80156109ac5780601f10610983576101008083540402835291602001916109ac565b820191905f5260205f20905b81548152906001019060200180831161098f57829003601f168201915b505050505081526020016001820180546109c5906110e1565b80601f01602080910402602001604051908101604052809291908181526020018280546109f1906110e1565b8015610a3c5780601f10610a1357610100808354040283529160200191610a3c565b820191905f5260205f20905b815481529060010190602001808311610a1f57829003601f168201915b50505050508152602001600282015481526020016003820154815260200160048201548152505090505f60328260600151610a7791906115aa565b90505f8583608001511115610aa557600a868460800151610a9891906115da565b610aa2919061160d565b90505b5f60328389610ab4919061160d565b610abe91906115aa565b90505f60248710610ae9576064600a85610ad8919061160d565b610ae291906115aa565b9050610b37565b60188710610b11576064600585610b00919061160d565b610b0a91906115aa565b9050610b36565b600c8710610b35576064600385610b28919061160d565b610b3291906115aa565b90505b5b5b5f81838587610b4691906112de565b610b5091906115da565b610b5a91906115da565b9050809650505050505050949350505050565b606060038054610b7c906110e1565b80601f0160208091040260200160405190810160405280929190818152602001828054610ba8906110e1565b8015610bf35780601f10610bca57610100808354040283529160200191610bf3565b820191905f5260205f20905b815481529060010190602001808311610bd657829003601f168201915b5050505050905090565b5f81519050919050565b5f82825260208201905092915050565b8281835e5f83830152505050565b5f601f19601f8301169050919050565b5f610c3f82610bfd565b610c498185610c07565b9350610c59818560208601610c17565b610c6281610c25565b840191505092915050565b5f6020820190508181035f830152610c858184610c35565b905092915050565b5f604051905090565b5f80fd5b5f80fd5b5f819050919050565b610cb081610c9e565b8114610cba575f80fd5b50565b5f81359050610ccb81610ca7565b92915050565b5f60208284031215610ce657610ce5610c96565b5b5f610cf384828501610cbd565b91505092915050565b610d0581610c9e565b82525050565b5f60a0820190508181035f830152610d238188610c35565b90508181036020830152610d378187610c35565b9050610d466040830186610cfc565b610d536060830185610cfc565b610d606080830184610cfc565b9695505050505050565b5f8115159050919050565b610d7e81610d6a565b82525050565b5f602082019050610d975f830184610d75565b92915050565b5f73ffffffffffffffffffffffffffffffffffffffff82169050919050565b5f610dc682610d9d565b9050919050565b610dd681610dbc565b82525050565b5f602082019050610def5f830184610dcd565b92915050565b610dfe81610dbc565b8114610e08575f80fd5b50565b5f81359050610e1981610df5565b92915050565b5f60208284031215610e3457610e33610c96565b5b5f610e4184828501610e0b565b91505092915050565b5f602082019050610e5d5f830184610cfc565b92915050565b5f80fd5b5f80fd5b7f4e487b71000000000000000000000000000000000000000000000000000000005f52604160045260245ffd5b610ea182610c25565b810181811067ffffffffffffffff82111715610ec057610ebf610e6b565b5b80604052505050565b5f610ed2610c8d565b9050610ede8282610e98565b919050565b5f67ffffffffffffffff821115610efd57610efc610e6b565b5b610f0682610c25565b9050602081019050919050565b828183375f83830152505050565b5f610f33610f2e84610ee3565b610ec9565b905082815260208101848484011115610f4f57610f4e610e67565b5b610f5a848285610f13565b509392505050565b5f82601f830112610f7657610f75610e63565b5b8135610f86848260208601610f21565b91505092915050565b5f805f805f8060c08789031215610fa957610fa8610c96565b5b5f610fb689828a01610e0b565b965050602087013567ffffffffffffffff811115610fd757610fd6610c9a565b5b610fe389828a01610f62565b955050604087013567ffffffffffffffff81111561100457611003610c9a565b5b61101089828a01610f62565b945050606061102189828a01610cbd565b935050608061103289828a01610cbd565b92505060a061104389828a01610cbd565b9150509295509295509295565b5f805f806080858703121561106857611067610c96565b5b5f61107587828801610cbd565b945050602061108687828801610cbd565b935050604061109787828801610cbd565b92505060606110a887828801610cbd565b91505092959194509250565b7f4e487b71000000000000000000000000000000000000000000000000000000005f52602260045260245ffd5b5f60028204905060018216806110f857607f821691505b60208210810361110b5761110a6110b4565b5b50919050565b7f546f6b656e20494420646f6573206e6f742065786973740000000000000000005f82015250565b5f611145601783610c07565b915061115082611111565b602082019050919050565b5f6020820190508181035f83015261117281611139565b9050919050565b7f496e76616c6964206164647265737300000000000000000000000000000000005f82015250565b5f6111ad600f83610c07565b91506111b882611179565b602082019050919050565b5f6020820190508181035f8301526111da816111a1565b9050919050565b7f43616c6c6572206973206e6f742074686520636f6e7472616374206f776e65725f82015250565b5f611215602083610c07565b9150611220826111e1565b602082019050919050565b5f6020820190508181035f83015261124281611209565b9050919050565b7f4d696e7420746f207a65726f20616464726573730000000000000000000000005f82015250565b5f61127d601483610c07565b915061128882611249565b602082019050919050565b5f6020820190508181035f8301526112aa81611271565b9050919050565b7f4e487b71000000000000000000000000000000000000000000000000000000005f52601160045260245ffd5b5f6112e882610c9e565b91506112f383610c9e565b925082820190508082111561130b5761130a6112b1565b5b92915050565b5f819050815f5260205f209050919050565b5f6020601f8301049050919050565b5f82821b905092915050565b5f6008830261136d7fffffffffffffffffffffffffffffffffffffffffffffffffffffffffffffffff82611332565b6113778683611332565b95508019841693508086168417925050509392505050565b5f819050919050565b5f6113b26113ad6113a884610c9e565b61138f565b610c9e565b9050919050565b5f819050919050565b6113cb83611398565b6113df6113d7826113b9565b84845461133e565b825550505050565b5f90565b6113f36113e7565b6113fe8184846113c2565b505050565b5b81811015611421576114165f826113eb565b600181019050611404565b5050565b601f8211156114665761143781611311565b61144084611323565b8101602085101561144f578190505b61146361145b85611323565b830182611403565b50505b505050565b5f82821c905092915050565b5f6114865f198460080261146b565b1980831691505092915050565b5f61149e8383611477565b9150826002028217905092915050565b6114b782610bfd565b67ffffffffffffffff8111156114d0576114cf610e6b565b5b6114da82546110e1565b6114e5828285611425565b5f60209050601f831160018114611516575f8415611504578287015190505b61150e8582611493565b865550611575565b601f19841661152486611311565b5f5b8281101561154b57848901518255600182019150602085019450602081019050611526565b868310156115685784890151611564601f891682611477565b8355505b6001600288020188555050505b505050505050565b7f4e487b71000000000000000000000000000000000000000000000000000000005f52601260045260245ffd5b5f6115b482610c9e565b91506115bf83610c9e565b9250826115cf576115ce61157d565b5b828204905092915050565b5f6115e482610c9e565b91506115ef83610c9e565b9250828203905081811115611607576116066112b1565b5b92915050565b5f61161782610c9e565b915061162283610c9e565b925082820261163081610c9e565b91508282048414831517611647576116466112b1565b5b509291505056fea26469706673582212206d70ecc025efa343ec11822e3b55cdebe26044c0bbe6c61d44cf44c813318db464736f6c634300081a0033",
					"opcodes": "PUSH1 0x80 PUSH1 0x40 MSTORE CALLVALUE DUP1 ISZERO PUSH2 0xF JUMPI PUSH0 DUP1 REVERT JUMPDEST POP PUSH1 0x40 MLOAD DUP1 PUSH1 0x40 ADD PUSH1 0x40 MSTORE DUP1 PUSH1 0xA DUP2 MSTORE PUSH1 0x20 ADD PUSH32 0x42696C426F796443617200000000000000000000000000000000000000000000 DUP2 MSTORE POP PUSH1 0x2 SWAP1 DUP2 PUSH2 0x54 SWAP2 SWAP1 PUSH2 0x319 JUMP JUMPDEST POP PUSH1 0x40 MLOAD DUP1 PUSH1 0x40 ADD PUSH1 0x40 MSTORE DUP1 PUSH1 0x3 DUP2 MSTORE PUSH1 0x20 ADD PUSH32 0x4242430000000000000000000000000000000000000000000000000000000000 DUP2 MSTORE POP PUSH1 0x3 SWAP1 DUP2 PUSH2 0x99 SWAP2 SWAP1 PUSH2 0x319 JUMP JUMPDEST POP CALLER PUSH1 0x6 PUSH0 PUSH2 0x100 EXP DUP2 SLOAD DUP2 PUSH20 0xFFFFFFFFFFFFFFFFFFFFFFFFFFFFFFFFFFFFFFFF MUL NOT AND SWAP1 DUP4 PUSH20 0xFFFFFFFFFFFFFFFFFFFFFFFFFFFFFFFFFFFFFFFF AND MUL OR SWAP1 SSTORE POP PUSH2 0x3E8 JUMP JUMPDEST PUSH0 DUP2 MLOAD SWAP1 POP SWAP2 SWAP1 POP JUMP JUMPDEST PUSH32 0x4E487B7100000000000000000000000000000000000000000000000000000000 PUSH0 MSTORE PUSH1 0x41 PUSH1 0x4 MSTORE PUSH1 0x24 PUSH0 REVERT JUMPDEST PUSH32 0x4E487B7100000000000000000000000000000000000000000000000000000000 PUSH0 MSTORE PUSH1 0x22 PUSH1 0x4 MSTORE PUSH1 0x24 PUSH0 REVERT JUMPDEST PUSH0 PUSH1 0x2 DUP3 DIV SWAP1 POP PUSH1 0x1 DUP3 AND DUP1 PUSH2 0x15A JUMPI PUSH1 0x7F DUP3 AND SWAP2 POP JUMPDEST PUSH1 0x20 DUP3 LT DUP2 SUB PUSH2 0x16D JUMPI PUSH2 0x16C PUSH2 0x116 JUMP JUMPDEST JUMPDEST POP SWAP2 SWAP1 POP JUMP JUMPDEST PUSH0 DUP2 SWAP1 POP DUP2 PUSH0 MSTORE PUSH1 0x20 PUSH0 KECCAK256 SWAP1 POP SWAP2 SWAP1 POP JUMP JUMPDEST PUSH0 PUSH1 0x20 PUSH1 0x1F DUP4 ADD DIV SWAP1 POP SWAP2 SWAP1 POP JUMP JUMPDEST PUSH0 DUP3 DUP3 SHL SWAP1 POP SWAP3 SWAP2 POP POP JUMP JUMPDEST PUSH0 PUSH1 0x8 DUP4 MUL PUSH2 0x1CF PUSH32 0xFFFFFFFFFFFFFFFFFFFFFFFFFFFFFFFFFFFFFFFFFFFFFFFFFFFFFFFFFFFFFFFF DUP3 PUSH2 0x194 JUMP JUMPDEST PUSH2 0x1D9 DUP7 DUP4 PUSH2 0x194 JUMP JUMPDEST SWAP6 POP DUP1 NOT DUP5 AND SWAP4 POP DUP1 DUP7 AND DUP5 OR SWAP3 POP POP POP SWAP4 SWAP3 POP POP POP JUMP JUMPDEST PUSH0 DUP2 SWAP1 POP SWAP2 SWAP1 POP JUMP JUMPDEST PUSH0 DUP2 SWAP1 POP SWAP2 SWAP1 POP JUMP JUMPDEST PUSH0 PUSH2 0x21D PUSH2 0x218 PUSH2 0x213 DUP5 PUSH2 0x1F1 JUMP JUMPDEST PUSH2 0x1FA JUMP JUMPDEST PUSH2 0x1F1 JUMP JUMPDEST SWAP1 POP SWAP2 SWAP1 POP JUMP JUMPDEST PUSH0 DUP2 SWAP1 POP SWAP2 SWAP1 POP JUMP JUMPDEST PUSH2 0x236 DUP4 PUSH2 0x203 JUMP JUMPDEST PUSH2 0x24A PUSH2 0x242 DUP3 PUSH2 0x224 JUMP JUMPDEST DUP5 DUP5 SLOAD PUSH2 0x1A0 JUMP JUMPDEST DUP3 SSTORE POP POP POP POP JUMP JUMPDEST PUSH0 SWAP1 JUMP JUMPDEST PUSH2 0x25E PUSH2 0x252 JUMP JUMPDEST PUSH2 0x269 DUP2 DUP5 DUP5 PUSH2 0x22D JUMP JUMPDEST POP POP POP JUMP JUMPDEST JUMPDEST DUP2 DUP2 LT ISZERO PUSH2 0x28C JUMPI PUSH2 0x281 PUSH0 DUP3 PUSH2 0x256 JUMP JUMPDEST PUSH1 0x1 DUP2 ADD SWAP1 POP PUSH2 0x26F JUMP JUMPDEST POP POP JUMP JUMPDEST PUSH1 0x1F DUP3 GT ISZERO PUSH2 0x2D1 JUMPI PUSH2 0x2A2 DUP2 PUSH2 0x173 JUMP JUMPDEST PUSH2 0x2AB DUP5 PUSH2 0x185 JUMP JUMPDEST DUP2 ADD PUSH1 0x20 DUP6 LT ISZERO PUSH2 0x2BA JUMPI DUP2 SWAP1 POP JUMPDEST PUSH2 0x2CE PUSH2 0x2C6 DUP6 PUSH2 0x185 JUMP JUMPDEST DUP4 ADD DUP3 PUSH2 0x26E JUMP JUMPDEST POP POP JUMPDEST POP POP POP JUMP JUMPDEST PUSH0 DUP3 DUP3 SHR SWAP1 POP SWAP3 SWAP2 POP POP JUMP JUMPDEST PUSH0 PUSH2 0x2F1 PUSH0 NOT DUP5 PUSH1 0x8 MUL PUSH2 0x2D6 JUMP JUMPDEST NOT DUP1 DUP4 AND SWAP2 POP POP SWAP3 SWAP2 POP POP JUMP JUMPDEST PUSH0 PUSH2 0x309 DUP4 DUP4 PUSH2 0x2E2 JUMP JUMPDEST SWAP2 POP DUP3 PUSH1 0x2 MUL DUP3 OR SWAP1 POP SWAP3 SWAP2 POP POP JUMP JUMPDEST PUSH2 0x322 DUP3 PUSH2 0xDF JUMP JUMPDEST PUSH8 0xFFFFFFFFFFFFFFFF DUP2 GT ISZERO PUSH2 0x33B JUMPI PUSH2 0x33A PUSH2 0xE9 JUMP JUMPDEST JUMPDEST PUSH2 0x345 DUP3 SLOAD PUSH2 0x143 JUMP JUMPDEST PUSH2 0x350 DUP3 DUP3 DUP6 PUSH2 0x290 JUMP JUMPDEST PUSH0 PUSH1 0x20 SWAP1 POP PUSH1 0x1F DUP4 GT PUSH1 0x1 DUP2 EQ PUSH2 0x381 JUMPI PUSH0 DUP5 ISZERO PUSH2 0x36F JUMPI DUP3 DUP8 ADD MLOAD SWAP1 POP JUMPDEST PUSH2 0x379 DUP6 DUP3 PUSH2 0x2FE JUMP JUMPDEST DUP7 SSTORE POP PUSH2 0x3E0 JUMP JUMPDEST PUSH1 0x1F NOT DUP5 AND PUSH2 0x38F DUP7 PUSH2 0x173 JUMP JUMPDEST PUSH0 JUMPDEST DUP3 DUP2 LT ISZERO PUSH2 0x3B6 JUMPI DUP5 DUP10 ADD MLOAD DUP3 SSTORE PUSH1 0x1 DUP3 ADD SWAP2 POP PUSH1 0x20 DUP6 ADD SWAP5 POP PUSH1 0x20 DUP2 ADD SWAP1 POP PUSH2 0x391 JUMP JUMPDEST DUP7 DUP4 LT ISZERO PUSH2 0x3D3 JUMPI DUP5 DUP10 ADD MLOAD PUSH2 0x3CF PUSH1 0x1F DUP10 AND DUP3 PUSH2 0x2E2 JUMP JUMPDEST DUP4 SSTORE POP JUMPDEST PUSH1 0x1 PUSH1 0x2 DUP9 MUL ADD DUP9 SSTORE POP POP POP JUMPDEST POP POP POP POP POP POP JUMP JUMPDEST PUSH2 0x1684 DUP1 PUSH2 0x3F5 PUSH0 CODECOPY PUSH0 RETURN INVALID PUSH1 0x80 PUSH1 0x40 MSTORE CALLVALUE DUP1 ISZERO PUSH2 0xF JUMPI PUSH0 DUP1 REVERT JUMPDEST POP PUSH1 0x4 CALLDATASIZE LT PUSH2 0x86 JUMPI PUSH0 CALLDATALOAD PUSH1 0xE0 SHR DUP1 PUSH4 0x70A08231 GT PUSH2 0x59 JUMPI DUP1 PUSH4 0x70A08231 EQ PUSH2 0x13C JUMPI DUP1 PUSH4 0x75BB48FE EQ PUSH2 0x16C JUMPI DUP1 PUSH4 0x77F110BC EQ PUSH2 0x19C JUMPI DUP1 PUSH4 0x95D89B41 EQ PUSH2 0x1CC JUMPI PUSH2 0x86 JUMP JUMPDEST DUP1 PUSH4 0x6FDDE03 EQ PUSH2 0x8A JUMPI DUP1 PUSH4 0x472EC454 EQ PUSH2 0xA8 JUMPI DUP1 PUSH4 0x4F558E79 EQ PUSH2 0xDC JUMPI DUP1 PUSH4 0x6352211E EQ PUSH2 0x10C JUMPI JUMPDEST PUSH0 DUP1 REVERT JUMPDEST PUSH2 0x92 PUSH2 0x1EA JUMP JUMPDEST PUSH1 0x40 MLOAD PUSH2 0x9F SWAP2 SWAP1 PUSH2 0xC6D JUMP JUMPDEST PUSH1 0x40 MLOAD DUP1 SWAP2 SUB SWAP1 RETURN JUMPDEST PUSH2 0xC2 PUSH1 0x4 DUP1 CALLDATASIZE SUB DUP2 ADD SWAP1 PUSH2 0xBD SWAP2 SWAP1 PUSH2 0xCD1 JUMP JUMPDEST PUSH2 0x27A JUMP JUMPDEST PUSH1 0x40 MLOAD PUSH2 0xD3 SWAP6 SWAP5 SWAP4 SWAP3 SWAP2 SWAP1 PUSH2 0xD0B JUMP JUMPDEST PUSH1 0x40 MLOAD DUP1 SWAP2 SUB SWAP1 RETURN JUMPDEST PUSH2 0xF6 PUSH1 0x4 DUP1 CALLDATASIZE SUB DUP2 ADD SWAP1 PUSH2 0xF1 SWAP2 SWAP1 PUSH2 0xCD1 JUMP JUMPDEST PUSH2 0x450 JUMP JUMPDEST PUSH1 0x40 MLOAD PUSH2 0x103 SWAP2 SWAP1 PUSH2 0xD84 JUMP JUMPDEST PUSH1 0x40 MLOAD DUP1 SWAP2 SUB SWAP1 RETURN JUMPDEST PUSH2 0x126 PUSH1 0x4 DUP1 CALLDATASIZE SUB DUP2 ADD SWAP1 PUSH2 0x121 SWAP2 SWAP1 PUSH2 0xCD1 JUMP JUMPDEST PUSH2 0x4B7 JUMP JUMPDEST PUSH1 0x40 MLOAD PUSH2 0x133 SWAP2 SWAP1 PUSH2 0xDDC JUMP JUMPDEST PUSH1 0x40 MLOAD DUP1 SWAP2 SUB SWAP1 RETURN JUMPDEST PUSH2 0x156 PUSH1 0x4 DUP1 CALLDATASIZE SUB DUP2 ADD SWAP1 PUSH2 0x151 SWAP2 SWAP1 PUSH2 0xE1F JUMP JUMPDEST PUSH2 0x562 JUMP JUMPDEST PUSH1 0x40 MLOAD PUSH2 0x163 SWAP2 SWAP1 PUSH2 0xE4A JUMP JUMPDEST PUSH1 0x40 MLOAD DUP1 SWAP2 SUB SWAP1 RETURN JUMPDEST PUSH2 0x186 PUSH1 0x4 DUP1 CALLDATASIZE SUB DUP2 ADD SWAP1 PUSH2 0x181 SWAP2 SWAP1 PUSH2 0xF8F JUMP JUMPDEST PUSH2 0x616 JUMP JUMPDEST PUSH1 0x40 MLOAD PUSH2 0x193 SWAP2 SWAP1 PUSH2 0xE4A JUMP JUMPDEST PUSH1 0x40 MLOAD DUP1 SWAP2 SUB SWAP1 RETURN JUMPDEST PUSH2 0x1B6 PUSH1 0x4 DUP1 CALLDATASIZE SUB DUP2 ADD SWAP1 PUSH2 0x1B1 SWAP2 SWAP1 PUSH2 0x1050 JUMP JUMPDEST PUSH2 0x8C0 JUMP JUMPDEST PUSH1 0x40 MLOAD PUSH2 0x1C3 SWAP2 SWAP1 PUSH2 0xE4A JUMP JUMPDEST PUSH1 0x40 MLOAD DUP1 SWAP2 SUB SWAP1 RETURN JUMPDEST PUSH2 0x1D4 PUSH2 0xB6D JUMP JUMPDEST PUSH1 0x40 MLOAD PUSH2 0x1E1 SWAP2 SWAP1 PUSH2 0xC6D JUMP JUMPDEST PUSH1 0x40 MLOAD DUP1 SWAP2 SUB SWAP1 RETURN JUMPDEST PUSH1 0x60 PUSH1 0x2 DUP1 SLOAD PUSH2 0x1F9 SWAP1 PUSH2 0x10E1 JUMP JUMPDEST DUP1 PUSH1 0x1F ADD PUSH1 0x20 DUP1 SWAP2 DIV MUL PUSH1 0x20 ADD PUSH1 0x40 MLOAD SWAP1 DUP2 ADD PUSH1 0x40 MSTORE DUP1 SWAP3 SWAP2 SWAP1 DUP2 DUP2 MSTORE PUSH1 0x20 ADD DUP3 DUP1 SLOAD PUSH2 0x225 SWAP1 PUSH2 0x10E1 JUMP JUMPDEST DUP1 ISZERO PUSH2 0x270 JUMPI DUP1 PUSH1 0x1F LT PUSH2 0x247 JUMPI PUSH2 0x100 DUP1 DUP4 SLOAD DIV MUL DUP4 MSTORE SWAP2 PUSH1 0x20 ADD SWAP2 PUSH2 0x270 JUMP JUMPDEST DUP3 ADD SWAP2 SWAP1 PUSH0 MSTORE PUSH1 0x20 PUSH0 KECCAK256 SWAP1 JUMPDEST DUP2 SLOAD DUP2 MSTORE SWAP1 PUSH1 0x1 ADD SWAP1 PUSH1 0x20 ADD DUP1 DUP4 GT PUSH2 0x253 JUMPI DUP3 SWAP1 SUB PUSH1 0x1F AND DUP3 ADD SWAP2 JUMPDEST POP POP POP POP POP SWAP1 POP SWAP1 JUMP JUMPDEST PUSH1 0x60 DUP1 PUSH0 DUP1 PUSH0 PUSH2 0x289 DUP7 PUSH2 0x450 JUMP JUMPDEST PUSH2 0x2C8 JUMPI PUSH1 0x40 MLOAD PUSH32 0x8C379A000000000000000000000000000000000000000000000000000000000 DUP2 MSTORE PUSH1 0x4 ADD PUSH2 0x2BF SWAP1 PUSH2 0x115B JUMP JUMPDEST PUSH1 0x40 MLOAD DUP1 SWAP2 SUB SWAP1 REVERT JUMPDEST PUSH0 PUSH1 0x5 PUSH0 DUP9 DUP2 MSTORE PUSH1 0x20 ADD SWAP1 DUP2 MSTORE PUSH1 0x20 ADD PUSH0 KECCAK256 PUSH1 0x40 MLOAD DUP1 PUSH1 0xA0 ADD PUSH1 0x40 MSTORE SWAP1 DUP2 PUSH0 DUP3 ADD DUP1 SLOAD PUSH2 0x2F4 SWAP1 PUSH2 0x10E1 JUMP JUMPDEST DUP1 PUSH1 0x1F ADD PUSH1 0x20 DUP1 SWAP2 DIV MUL PUSH1 0x20 ADD PUSH1 0x40 MLOAD SWAP1 DUP2 ADD PUSH1 0x40 MSTORE DUP1 SWAP3 SWAP2 SWAP1 DUP2 DUP2 MSTORE PUSH1 0x20 ADD DUP3 DUP1 SLOAD PUSH2 0x320 SWAP1 PUSH2 0x10E1 JUMP JUMPDEST DUP1 ISZERO PUSH2 0x36B JUMPI DUP1 PUSH1 0x1F LT PUSH2 0x342 JUMPI PUSH2 0x100 DUP1 DUP4 SLOAD DIV MUL DUP4 MSTORE SWAP2 PUSH1 0x20 ADD SWAP2 PUSH2 0x36B JUMP JUMPDEST DUP3 ADD SWAP2 SWAP1 PUSH0 MSTORE PUSH1 0x20 PUSH0 KECCAK256 SWAP1 JUMPDEST DUP2 SLOAD DUP2 MSTORE SWAP1 PUSH1 0x1 ADD SWAP1 PUSH1 0x20 ADD DUP1 DUP4 GT PUSH2 0x34E JUMPI DUP3 SWAP1 SUB PUSH1 0x1F AND DUP3 ADD SWAP2 JUMPDEST POP POP POP POP POP DUP2 MSTORE PUSH1 0x20 ADD PUSH1 0x1 DUP3 ADD DUP1 SLOAD PUSH2 0x384 SWAP1 PUSH2 0x10E1 JUMP JUMPDEST DUP1 PUSH1 0x1F ADD PUSH1 0x20 DUP1 SWAP2 DIV MUL PUSH1 0x20 ADD PUSH1 0x40 MLOAD SWAP1 DUP2 ADD PUSH1 0x40 MSTORE DUP1 SWAP3 SWAP2 SWAP1 DUP2 DUP2 MSTORE PUSH1 0x20 ADD DUP3 DUP1 SLOAD PUSH2 0x3B0 SWAP1 PUSH2 0x10E1 JUMP JUMPDEST DUP1 ISZERO PUSH2 0x3FB JUMPI DUP1 PUSH1 0x1F LT PUSH2 0x3D2 JUMPI PUSH2 0x100 DUP1 DUP4 SLOAD DIV MUL DUP4 MSTORE SWAP2 PUSH1 0x20 ADD SWAP2 PUSH2 0x3FB JUMP JUMPDEST DUP3 ADD SWAP2 SWAP1 PUSH0 MSTORE PUSH1 0x20 PUSH0 KECCAK256 SWAP1 JUMPDEST DUP2 SLOAD DUP2 MSTORE SWAP1 PUSH1 0x1 ADD SWAP1 PUSH1 0x20 ADD DUP1 DUP4 GT PUSH2 0x3DE JUMPI DUP3 SWAP1 SUB PUSH1 0x1F AND DUP3 ADD SWAP2 JUMPDEST POP POP POP POP POP DUP2 MSTORE PUSH1 0x20 ADD PUSH1 0x2 DUP3 ADD SLOAD DUP2 MSTORE PUSH1 0x20 ADD PUSH1 0x3 DUP3 ADD SLOAD DUP2 MSTORE PUSH1 0x20 ADD PUSH1 0x4 DUP3 ADD SLOAD DUP2 MSTORE POP POP SWAP1 POP DUP1 PUSH0 ADD MLOAD DUP2 PUSH1 0x20 ADD MLOAD DUP3 PUSH1 0x40 ADD MLOAD DUP4 PUSH1 0x60 ADD MLOAD DUP5 PUSH1 0x80 ADD MLOAD SWAP6 POP SWAP6 POP SWAP6 POP SWAP6 POP SWAP6 POP POP SWAP2 SWAP4 SWAP6 SWAP1 SWAP3 SWAP5 POP JUMP JUMPDEST PUSH0 DUP1 PUSH20 0xFFFFFFFFFFFFFFFFFFFFFFFFFFFFFFFFFFFFFFFF AND PUSH0 DUP1 DUP5 DUP2 MSTORE PUSH1 0x20 ADD SWAP1 DUP2 MSTORE PUSH1 0x20 ADD PUSH0 KECCAK256 PUSH0 SWAP1 SLOAD SWAP1 PUSH2 0x100 EXP SWAP1 DIV PUSH20 0xFFFFFFFFFFFFFFFFFFFFFFFFFFFFFFFFFFFFFFFF AND PUSH20 0xFFFFFFFFFFFFFFFFFFFFFFFFFFFFFFFFFFFFFFFF AND EQ ISZERO SWAP1 POP SWAP2 SWAP1 POP JUMP JUMPDEST PUSH0 DUP1 PUSH0 DUP1 DUP5 DUP2 MSTORE PUSH1 0x20 ADD SWAP1 DUP2 MSTORE PUSH1 0x20 ADD PUSH0 KECCAK256 PUSH0 SWAP1 SLOAD SWAP1 PUSH2 0x100 EXP SWAP1 DIV PUSH20 0xFFFFFFFFFFFFFFFFFFFFFFFFFFFFFFFFFFFFFFFF AND SWAP1 POP PUSH0 PUSH20 0xFFFFFFFFFFFFFFFFFFFFFFFFFFFFFFFFFFFFFFFF AND DUP2 PUSH20 0xFFFFFFFFFFFFFFFFFFFFFFFFFFFFFFFFFFFFFFFF AND SUB PUSH2 0x559 JUMPI PUSH1 0x40 MLOAD PUSH32 0x8C379A000000000000000000000000000000000000000000000000000000000 DUP2 MSTORE PUSH1 0x4 ADD PUSH2 0x550 SWAP1 PUSH2 0x115B JUMP JUMPDEST PUSH1 0x40 MLOAD DUP1 SWAP2 SUB SWAP1 REVERT JUMPDEST DUP1 SWAP2 POP POP SWAP2 SWAP1 POP JUMP JUMPDEST PUSH0 DUP1 PUSH20 0xFFFFFFFFFFFFFFFFFFFFFFFFFFFFFFFFFFFFFFFF AND DUP3 PUSH20 0xFFFFFFFFFFFFFFFFFFFFFFFFFFFFFFFFFFFFFFFF AND SUB PUSH2 0x5D1 JUMPI PUSH1 0x40 MLOAD PUSH32 0x8C379A000000000000000000000000000000000000000000000000000000000 DUP2 MSTORE PUSH1 0x4 ADD PUSH2 0x5C8 SWAP1 PUSH2 0x11C3 JUMP JUMPDEST PUSH1 0x40 MLOAD DUP1 SWAP2 SUB SWAP1 REVERT JUMPDEST PUSH1 0x1 PUSH0 DUP4 PUSH20 0xFFFFFFFFFFFFFFFFFFFFFFFFFFFFFFFFFFFFFFFF AND PUSH20 0xFFFFFFFFFFFFFFFFFFFFFFFFFFFFFFFFFFFFFFFF AND DUP2 MSTORE PUSH1 0x20 ADD SWAP1 DUP2 MSTORE PUSH1 0x20 ADD PUSH0 KECCAK256 SLOAD SWAP1 POP SWAP2 SWAP1 POP JUMP JUMPDEST PUSH0 PUSH1 0x6 PUSH0 SWAP1 SLOAD SWAP1 PUSH2 0x100 EXP SWAP1 DIV PUSH20 0xFFFFFFFFFFFFFFFFFFFFFFFFFFFFFFFFFFFFFFFF AND PUSH20 0xFFFFFFFFFFFFFFFFFFFFFFFFFFFFFFFFFFFFFFFF AND CALLER PUSH20 0xFFFFFFFFFFFFFFFFFFFFFFFFFFFFFFFFFFFFFFFF AND EQ PUSH2 0x6A6 JUMPI PUSH1 0x40 MLOAD PUSH32 0x8C379A000000000000000000000000000000000000000000000000000000000 DUP2 MSTORE PUSH1 0x4 ADD PUSH2 0x69D SWAP1 PUSH2 0x122B JUMP JUMPDEST PUSH1 0x40 MLOAD DUP1 SWAP2 SUB SWAP1 REVERT JUMPDEST PUSH0 PUSH20 0xFFFFFFFFFFFFFFFFFFFFFFFFFFFFFFFFFFFFFFFF AND DUP8 PUSH20 0xFFFFFFFFFFFFFFFFFFFFFFFFFFFFFFFFFFFFFFFF AND SUB PUSH2 0x714 JUMPI PUSH1 0x40 MLOAD PUSH32 0x8C379A000000000000000000000000000000000000000000000000000000000 DUP2 MSTORE PUSH1 0x4 ADD PUSH2 0x70B SWAP1 PUSH2 0x1293 JUMP JUMPDEST PUSH1 0x40 MLOAD DUP1 SWAP2 SUB SWAP1 REVERT JUMPDEST PUSH1 0x1 PUSH1 0x4 PUSH0 DUP3 DUP3 SLOAD PUSH2 0x726 SWAP2 SWAP1 PUSH2 0x12DE JUMP JUMPDEST SWAP3 POP POP DUP2 SWAP1 SSTORE POP PUSH0 PUSH1 0x4 SLOAD SWAP1 POP PUSH1 0x1 DUP1 PUSH0 DUP11 PUSH20 0xFFFFFFFFFFFFFFFFFFFFFFFFFFFFFFFFFFFFFFFF AND PUSH20 0xFFFFFFFFFFFFFFFFFFFFFFFFFFFFFFFFFFFFFFFF AND DUP2 MSTORE PUSH1 0x20 ADD SWAP1 DUP2 MSTORE PUSH1 0x20 ADD PUSH0 KECCAK256 PUSH0 DUP3 DUP3 SLOAD PUSH2 0x77F SWAP2 SWAP1 PUSH2 0x12DE JUMP JUMPDEST SWAP3 POP POP DUP2 SWAP1 SSTORE POP DUP8 PUSH0 DUP1 DUP4 DUP2 MSTORE PUSH1 0x20 ADD SWAP1 DUP2 MSTORE PUSH1 0x20 ADD PUSH0 KECCAK256 PUSH0 PUSH2 0x100 EXP DUP2 SLOAD DUP2 PUSH20 0xFFFFFFFFFFFFFFFFFFFFFFFFFFFFFFFFFFFFFFFF MUL NOT AND SWAP1 DUP4 PUSH20 0xFFFFFFFFFFFFFFFFFFFFFFFFFFFFFFFFFFFFFFFF AND MUL OR SWAP1 SSTORE POP PUSH1 0x40 MLOAD DUP1 PUSH1 0xA0 ADD PUSH1 0x40 MSTORE DUP1 DUP9 DUP2 MSTORE PUSH1 0x20 ADD DUP8 DUP2 MSTORE PUSH1 0x20 ADD DUP7 DUP2 MSTORE PUSH1 0x20 ADD DUP6 DUP2 MSTORE PUSH1 0x20 ADD DUP5 DUP2 MSTORE POP PUSH1 0x5 PUSH0 DUP4 DUP2 MSTORE PUSH1 0x20 ADD SWAP1 DUP2 MSTORE PUSH1 0x20 ADD PUSH0 KECCAK256 PUSH0 DUP3 ADD MLOAD DUP2 PUSH0 ADD SWAP1 DUP2 PUSH2 0x81F SWAP2 SWAP1 PUSH2 0x14AE JUMP JUMPDEST POP PUSH1 0x20 DUP3 ADD MLOAD DUP2 PUSH1 0x1 ADD SWAP1 DUP2 PUSH2 0x835 SWAP2 SWAP1 PUSH2 0x14AE JUMP JUMPDEST POP PUSH1 0x40 DUP3 ADD MLOAD DUP2 PUSH1 0x2 ADD SSTORE PUSH1 0x60 DUP3 ADD MLOAD DUP2 PUSH1 0x3 ADD SSTORE PUSH1 0x80 DUP3 ADD MLOAD DUP2 PUSH1 0x4 ADD SSTORE SWAP1 POP POP DUP1 DUP9 PUSH20 0xFFFFFFFFFFFFFFFFFFFFFFFFFFFFFFFFFFFFFFFF AND PUSH0 PUSH20 0xFFFFFFFFFFFFFFFFFFFFFFFFFFFFFFFFFFFFFFFF AND PUSH32 0xDDF252AD1BE2C89B69C2B068FC378DAA952BA7F163C4A11628F55A4DF523B3EF PUSH1 0x40 MLOAD PUSH1 0x40 MLOAD DUP1 SWAP2 SUB SWAP1 LOG4 DUP1 SWAP2 POP POP SWAP7 SWAP6 POP POP POP POP POP POP JUMP JUMPDEST PUSH0 PUSH2 0x8CA DUP6 PUSH2 0x450 JUMP JUMPDEST PUSH2 0x909 JUMPI PUSH1 0x40 MLOAD PUSH32 0x8C379A000000000000000000000000000000000000000000000000000000000 DUP2 MSTORE PUSH1 0x4 ADD PUSH2 0x900 SWAP1 PUSH2 0x115B JUMP JUMPDEST PUSH1 0x40 MLOAD DUP1 SWAP2 SUB SWAP1 REVERT JUMPDEST PUSH0 PUSH1 0x5 PUSH0 DUP8 DUP2 MSTORE PUSH1 0x20 ADD SWAP1 DUP2 MSTORE PUSH1 0x20 ADD PUSH0 KECCAK256 PUSH1 0x40 MLOAD DUP1 PUSH1 0xA0 ADD PUSH1 0x40 MSTORE SWAP1 DUP2 PUSH0 DUP3 ADD DUP1 SLOAD PUSH2 0x935 SWAP1 PUSH2 0x10E1 JUMP JUMPDEST DUP1 PUSH1 0x1F ADD PUSH1 0x20 DUP1 SWAP2 DIV MUL PUSH1 0x20 ADD PUSH1 0x40 MLOAD SWAP1 DUP2 ADD PUSH1 0x40 MSTORE DUP1 SWAP3 SWAP2 SWAP1 DUP2 DUP2 MSTORE PUSH1 0x20 ADD DUP3 DUP1 SLOAD PUSH2 0x961 SWAP1 PUSH2 0x10E1 JUMP JUMPDEST DUP1 ISZERO PUSH2 0x9AC JUMPI DUP1 PUSH1 0x1F LT PUSH2 0x983 JUMPI PUSH2 0x100 DUP1 DUP4 SLOAD DIV MUL DUP4 MSTORE SWAP2 PUSH1 0x20 ADD SWAP2 PUSH2 0x9AC JUMP JUMPDEST DUP3 ADD SWAP2 SWAP1 PUSH0 MSTORE PUSH1 0x20 PUSH0 KECCAK256 SWAP1 JUMPDEST DUP2 SLOAD DUP2 MSTORE SWAP1 PUSH1 0x1 ADD SWAP1 PUSH1 0x20 ADD DUP1 DUP4 GT PUSH2 0x98F JUMPI DUP3 SWAP1 SUB PUSH1 0x1F AND DUP3 ADD SWAP2 JUMPDEST POP POP POP POP POP DUP2 MSTORE PUSH1 0x20 ADD PUSH1 0x1 DUP3 ADD DUP1 SLOAD PUSH2 0x9C5 SWAP1 PUSH2 0x10E1 JUMP JUMPDEST DUP1 PUSH1 0x1F ADD PUSH1 0x20 DUP1 SWAP2 DIV MUL PUSH1 0x20 ADD PUSH1 0x40 MLOAD SWAP1 DUP2 ADD PUSH1 0x40 MSTORE DUP1 SWAP3 SWAP2 SWAP1 DUP2 DUP2 MSTORE PUSH1 0x20 ADD DUP3 DUP1 SLOAD PUSH2 0x9F1 SWAP1 PUSH2 0x10E1 JUMP JUMPDEST DUP1 ISZERO PUSH2 0xA3C JUMPI DUP1 PUSH1 0x1F LT PUSH2 0xA13 JUMPI PUSH2 0x100 DUP1 DUP4 SLOAD DIV MUL DUP4 MSTORE SWAP2 PUSH1 0x20 ADD SWAP2 PUSH2 0xA3C JUMP JUMPDEST DUP3 ADD SWAP2 SWAP1 PUSH0 MSTORE PUSH1 0x20 PUSH0 KECCAK256 SWAP1 JUMPDEST DUP2 SLOAD DUP2 MSTORE SWAP1 PUSH1 0x1 ADD SWAP1 PUSH1 0x20 ADD DUP1 DUP4 GT PUSH2 0xA1F JUMPI DUP3 SWAP1 SUB PUSH1 0x1F AND DUP3 ADD SWAP2 JUMPDEST POP POP POP POP POP DUP2 MSTORE PUSH1 0x20 ADD PUSH1 0x2 DUP3 ADD SLOAD DUP2 MSTORE PUSH1 0x20 ADD PUSH1 0x3 DUP3 ADD SLOAD DUP2 MSTORE PUSH1 0x20 ADD PUSH1 0x4 DUP3 ADD SLOAD DUP2 MSTORE POP POP SWAP1 POP PUSH0 PUSH1 0x32 DUP3 PUSH1 0x60 ADD MLOAD PUSH2 0xA77 SWAP2 SWAP1 PUSH2 0x15AA JUMP JUMPDEST SWAP1 POP PUSH0 DUP6 DUP4 PUSH1 0x80 ADD MLOAD GT ISZERO PUSH2 0xAA5 JUMPI PUSH1 0xA DUP7 DUP5 PUSH1 0x80 ADD MLOAD PUSH2 0xA98 SWAP2 SWAP1 PUSH2 0x15DA JUMP JUMPDEST PUSH2 0xAA2 SWAP2 SWAP1 PUSH2 0x160D JUMP JUMPDEST SWAP1 POP JUMPDEST PUSH0 PUSH1 0x32 DUP4 DUP10 PUSH2 0xAB4 SWAP2 SWAP1 PUSH2 0x160D JUMP JUMPDEST PUSH2 0xABE SWAP2 SWAP1 PUSH2 0x15AA JUMP JUMPDEST SWAP1 POP PUSH0 PUSH1 0x24 DUP8 LT PUSH2 0xAE9 JUMPI PUSH1 0x64 PUSH1 0xA DUP6 PUSH2 0xAD8 SWAP2 SWAP1 PUSH2 0x160D JUMP JUMPDEST PUSH2 0xAE2 SWAP2 SWAP1 PUSH2 0x15AA JUMP JUMPDEST SWAP1 POP PUSH2 0xB37 JUMP JUMPDEST PUSH1 0x18 DUP8 LT PUSH2 0xB11 JUMPI PUSH1 0x64 PUSH1 0x5 DUP6 PUSH2 0xB00 SWAP2 SWAP1 PUSH2 0x160D JUMP JUMPDEST PUSH2 0xB0A SWAP2 SWAP1 PUSH2 0x15AA JUMP JUMPDEST SWAP1 POP PUSH2 0xB36 JUMP JUMPDEST PUSH1 0xC DUP8 LT PUSH2 0xB35 JUMPI PUSH1 0x64 PUSH1 0x3 DUP6 PUSH2 0xB28 SWAP2 SWAP1 PUSH2 0x160D JUMP JUMPDEST PUSH2 0xB32 SWAP2 SWAP1 PUSH2 0x15AA JUMP JUMPDEST SWAP1 POP JUMPDEST JUMPDEST JUMPDEST PUSH0 DUP2 DUP4 DUP6 DUP8 PUSH2 0xB46 SWAP2 SWAP1 PUSH2 0x12DE JUMP JUMPDEST PUSH2 0xB50 SWAP2 SWAP1 PUSH2 0x15DA JUMP JUMPDEST PUSH2 0xB5A SWAP2 SWAP1 PUSH2 0x15DA JUMP JUMPDEST SWAP1 POP DUP1 SWAP7 POP POP POP POP POP POP POP SWAP5 SWAP4 POP POP POP POP JUMP JUMPDEST PUSH1 0x60 PUSH1 0x3 DUP1 SLOAD PUSH2 0xB7C SWAP1 PUSH2 0x10E1 JUMP JUMPDEST DUP1 PUSH1 0x1F ADD PUSH1 0x20 DUP1 SWAP2 DIV MUL PUSH1 0x20 ADD PUSH1 0x40 MLOAD SWAP1 DUP2 ADD PUSH1 0x40 MSTORE DUP1 SWAP3 SWAP2 SWAP1 DUP2 DUP2 MSTORE PUSH1 0x20 ADD DUP3 DUP1 SLOAD PUSH2 0xBA8 SWAP1 PUSH2 0x10E1 JUMP JUMPDEST DUP1 ISZERO PUSH2 0xBF3 JUMPI DUP1 PUSH1 0x1F LT PUSH2 0xBCA JUMPI PUSH2 0x100 DUP1 DUP4 SLOAD DIV MUL DUP4 MSTORE SWAP2 PUSH1 0x20 ADD SWAP2 PUSH2 0xBF3 JUMP JUMPDEST DUP3 ADD SWAP2 SWAP1 PUSH0 MSTORE PUSH1 0x20 PUSH0 KECCAK256 SWAP1 JUMPDEST DUP2 SLOAD DUP2 MSTORE SWAP1 PUSH1 0x1 ADD SWAP1 PUSH1 0x20 ADD DUP1 DUP4 GT PUSH2 0xBD6 JUMPI DUP3 SWAP1 SUB PUSH1 0x1F AND DUP3 ADD SWAP2 JUMPDEST POP POP POP POP POP SWAP1 POP SWAP1 JUMP JUMPDEST PUSH0 DUP2 MLOAD SWAP1 POP SWAP2 SWAP1 POP JUMP JUMPDEST PUSH0 DUP3 DUP3 MSTORE PUSH1 0x20 DUP3 ADD SWAP1 POP SWAP3 SWAP2 POP POP JUMP JUMPDEST DUP3 DUP2 DUP4 MCOPY PUSH0 DUP4 DUP4 ADD MSTORE POP POP POP JUMP JUMPDEST PUSH0 PUSH1 0x1F NOT PUSH1 0x1F DUP4 ADD AND SWAP1 POP SWAP2 SWAP1 POP JUMP JUMPDEST PUSH0 PUSH2 0xC3F DUP3 PUSH2 0xBFD JUMP JUMPDEST PUSH2 0xC49 DUP2 DUP6 PUSH2 0xC07 JUMP JUMPDEST SWAP4 POP PUSH2 0xC59 DUP2 DUP6 PUSH1 0x20 DUP7 ADD PUSH2 0xC17 JUMP JUMPDEST PUSH2 0xC62 DUP2 PUSH2 0xC25 JUMP JUMPDEST DUP5 ADD SWAP2 POP POP SWAP3 SWAP2 POP POP JUMP JUMPDEST PUSH0 PUSH1 0x20 DUP3 ADD SWAP1 POP DUP2 DUP2 SUB PUSH0 DUP4 ADD MSTORE PUSH2 0xC85 DUP2 DUP5 PUSH2 0xC35 JUMP JUMPDEST SWAP1 POP SWAP3 SWAP2 POP POP JUMP JUMPDEST PUSH0 PUSH1 0x40 MLOAD SWAP1 POP SWAP1 JUMP JUMPDEST PUSH0 DUP1 REVERT JUMPDEST PUSH0 DUP1 REVERT JUMPDEST PUSH0 DUP2 SWAP1 POP SWAP2 SWAP1 POP JUMP JUMPDEST PUSH2 0xCB0 DUP2 PUSH2 0xC9E JUMP JUMPDEST DUP2 EQ PUSH2 0xCBA JUMPI PUSH0 DUP1 REVERT JUMPDEST POP JUMP JUMPDEST PUSH0 DUP2 CALLDATALOAD SWAP1 POP PUSH2 0xCCB DUP2 PUSH2 0xCA7 JUMP JUMPDEST SWAP3 SWAP2 POP POP JUMP JUMPDEST PUSH0 PUSH1 0x20 DUP3 DUP5 SUB SLT ISZERO PUSH2 0xCE6 JUMPI PUSH2 0xCE5 PUSH2 0xC96 JUMP JUMPDEST JUMPDEST PUSH0 PUSH2 0xCF3 DUP5 DUP3 DUP6 ADD PUSH2 0xCBD JUMP JUMPDEST SWAP2 POP POP SWAP3 SWAP2 POP POP JUMP JUMPDEST PUSH2 0xD05 DUP2 PUSH2 0xC9E JUMP JUMPDEST DUP3 MSTORE POP POP JUMP JUMPDEST PUSH0 PUSH1 0xA0 DUP3 ADD SWAP1 POP DUP2 DUP2 SUB PUSH0 DUP4 ADD MSTORE PUSH2 0xD23 DUP2 DUP9 PUSH2 0xC35 JUMP JUMPDEST SWAP1 POP DUP2 DUP2 SUB PUSH1 0x20 DUP4 ADD MSTORE PUSH2 0xD37 DUP2 DUP8 PUSH2 0xC35 JUMP JUMPDEST SWAP1 POP PUSH2 0xD46 PUSH1 0x40 DUP4 ADD DUP7 PUSH2 0xCFC JUMP JUMPDEST PUSH2 0xD53 PUSH1 0x60 DUP4 ADD DUP6 PUSH2 0xCFC JUMP JUMPDEST PUSH2 0xD60 PUSH1 0x80 DUP4 ADD DUP5 PUSH2 0xCFC JUMP JUMPDEST SWAP7 SWAP6 POP POP POP POP POP POP JUMP JUMPDEST PUSH0 DUP2 ISZERO ISZERO SWAP1 POP SWAP2 SWAP1 POP JUMP JUMPDEST PUSH2 0xD7E DUP2 PUSH2 0xD6A JUMP JUMPDEST DUP3 MSTORE POP POP JUMP JUMPDEST PUSH0 PUSH1 0x20 DUP3 ADD SWAP1 POP PUSH2 0xD97 PUSH0 DUP4 ADD DUP5 PUSH2 0xD75 JUMP JUMPDEST SWAP3 SWAP2 POP POP JUMP JUMPDEST PUSH0 PUSH20 0xFFFFFFFFFFFFFFFFFFFFFFFFFFFFFFFFFFFFFFFF DUP3 AND SWAP1 POP SWAP2 SWAP1 POP JUMP JUMPDEST PUSH0 PUSH2 0xDC6 DUP3 PUSH2 0xD9D JUMP JUMPDEST SWAP1 POP SWAP2 SWAP1 POP JUMP JUMPDEST PUSH2 0xDD6 DUP2 PUSH2 0xDBC JUMP JUMPDEST DUP3 MSTORE POP POP JUMP JUMPDEST PUSH0 PUSH1 0x20 DUP3 ADD SWAP1 POP PUSH2 0xDEF PUSH0 DUP4 ADD DUP5 PUSH2 0xDCD JUMP JUMPDEST SWAP3 SWAP2 POP POP JUMP JUMPDEST PUSH2 0xDFE DUP2 PUSH2 0xDBC JUMP JUMPDEST DUP2 EQ PUSH2 0xE08 JUMPI PUSH0 DUP1 REVERT JUMPDEST POP JUMP JUMPDEST PUSH0 DUP2 CALLDATALOAD SWAP1 POP PUSH2 0xE19 DUP2 PUSH2 0xDF5 JUMP JUMPDEST SWAP3 SWAP2 POP POP JUMP JUMPDEST PUSH0 PUSH1 0x20 DUP3 DUP5 SUB SLT ISZERO PUSH2 0xE34 JUMPI PUSH2 0xE33 PUSH2 0xC96 JUMP JUMPDEST JUMPDEST PUSH0 PUSH2 0xE41 DUP5 DUP3 DUP6 ADD PUSH2 0xE0B JUMP JUMPDEST SWAP2 POP POP SWAP3 SWAP2 POP POP JUMP JUMPDEST PUSH0 PUSH1 0x20 DUP3 ADD SWAP1 POP PUSH2 0xE5D PUSH0 DUP4 ADD DUP5 PUSH2 0xCFC JUMP JUMPDEST SWAP3 SWAP2 POP POP JUMP JUMPDEST PUSH0 DUP1 REVERT JUMPDEST PUSH0 DUP1 REVERT JUMPDEST PUSH32 0x4E487B7100000000000000000000000000000000000000000000000000000000 PUSH0 MSTORE PUSH1 0x41 PUSH1 0x4 MSTORE PUSH1 0x24 PUSH0 REVERT JUMPDEST PUSH2 0xEA1 DUP3 PUSH2 0xC25 JUMP JUMPDEST DUP2 ADD DUP2 DUP2 LT PUSH8 0xFFFFFFFFFFFFFFFF DUP3 GT OR ISZERO PUSH2 0xEC0 JUMPI PUSH2 0xEBF PUSH2 0xE6B JUMP JUMPDEST JUMPDEST DUP1 PUSH1 0x40 MSTORE POP POP POP JUMP JUMPDEST PUSH0 PUSH2 0xED2 PUSH2 0xC8D JUMP JUMPDEST SWAP1 POP PUSH2 0xEDE DUP3 DUP3 PUSH2 0xE98 JUMP JUMPDEST SWAP2 SWAP1 POP JUMP JUMPDEST PUSH0 PUSH8 0xFFFFFFFFFFFFFFFF DUP3 GT ISZERO PUSH2 0xEFD JUMPI PUSH2 0xEFC PUSH2 0xE6B JUMP JUMPDEST JUMPDEST PUSH2 0xF06 DUP3 PUSH2 0xC25 JUMP JUMPDEST SWAP1 POP PUSH1 0x20 DUP2 ADD SWAP1 POP SWAP2 SWAP1 POP JUMP JUMPDEST DUP3 DUP2 DUP4 CALLDATACOPY PUSH0 DUP4 DUP4 ADD MSTORE POP POP POP JUMP JUMPDEST PUSH0 PUSH2 0xF33 PUSH2 0xF2E DUP5 PUSH2 0xEE3 JUMP JUMPDEST PUSH2 0xEC9 JUMP JUMPDEST SWAP1 POP DUP3 DUP2 MSTORE PUSH1 0x20 DUP2 ADD DUP5 DUP5 DUP5 ADD GT ISZERO PUSH2 0xF4F JUMPI PUSH2 0xF4E PUSH2 0xE67 JUMP JUMPDEST JUMPDEST PUSH2 0xF5A DUP5 DUP3 DUP6 PUSH2 0xF13 JUMP JUMPDEST POP SWAP4 SWAP3 POP POP POP JUMP JUMPDEST PUSH0 DUP3 PUSH1 0x1F DUP4 ADD SLT PUSH2 0xF76 JUMPI PUSH2 0xF75 PUSH2 0xE63 JUMP JUMPDEST JUMPDEST DUP2 CALLDATALOAD PUSH2 0xF86 DUP5 DUP3 PUSH1 0x20 DUP7 ADD PUSH2 0xF21 JUMP JUMPDEST SWAP2 POP POP SWAP3 SWAP2 POP POP JUMP JUMPDEST PUSH0 DUP1 PUSH0 DUP1 PUSH0 DUP1 PUSH1 0xC0 DUP8 DUP10 SUB SLT ISZERO PUSH2 0xFA9 JUMPI PUSH2 0xFA8 PUSH2 0xC96 JUMP JUMPDEST JUMPDEST PUSH0 PUSH2 0xFB6 DUP10 DUP3 DUP11 ADD PUSH2 0xE0B JUMP JUMPDEST SWAP7 POP POP PUSH1 0x20 DUP8 ADD CALLDATALOAD PUSH8 0xFFFFFFFFFFFFFFFF DUP2 GT ISZERO PUSH2 0xFD7 JUMPI PUSH2 0xFD6 PUSH2 0xC9A JUMP JUMPDEST JUMPDEST PUSH2 0xFE3 DUP10 DUP3 DUP11 ADD PUSH2 0xF62 JUMP JUMPDEST SWAP6 POP POP PUSH1 0x40 DUP8 ADD CALLDATALOAD PUSH8 0xFFFFFFFFFFFFFFFF DUP2 GT ISZERO PUSH2 0x1004 JUMPI PUSH2 0x1003 PUSH2 0xC9A JUMP JUMPDEST JUMPDEST PUSH2 0x1010 DUP10 DUP3 DUP11 ADD PUSH2 0xF62 JUMP JUMPDEST SWAP5 POP POP PUSH1 0x60 PUSH2 0x1021 DUP10 DUP3 DUP11 ADD PUSH2 0xCBD JUMP JUMPDEST SWAP4 POP POP PUSH1 0x80 PUSH2 0x1032 DUP10 DUP3 DUP11 ADD PUSH2 0xCBD JUMP JUMPDEST SWAP3 POP POP PUSH1 0xA0 PUSH2 0x1043 DUP10 DUP3 DUP11 ADD PUSH2 0xCBD JUMP JUMPDEST SWAP2 POP POP SWAP3 SWAP6 POP SWAP3 SWAP6 POP SWAP3 SWAP6 JUMP JUMPDEST PUSH0 DUP1 PUSH0 DUP1 PUSH1 0x80 DUP6 DUP8 SUB SLT ISZERO PUSH2 0x1068 JUMPI PUSH2 0x1067 PUSH2 0xC96 JUMP JUMPDEST JUMPDEST PUSH0 PUSH2 0x1075 DUP8 DUP3 DUP9 ADD PUSH2 0xCBD JUMP JUMPDEST SWAP5 POP POP PUSH1 0x20 PUSH2 0x1086 DUP8 DUP3 DUP9 ADD PUSH2 0xCBD JUMP JUMPDEST SWAP4 POP POP PUSH1 0x40 PUSH2 0x1097 DUP8 DUP3 DUP9 ADD PUSH2 0xCBD JUMP JUMPDEST SWAP3 POP POP PUSH1 0x60 PUSH2 0x10A8 DUP8 DUP3 DUP9 ADD PUSH2 0xCBD JUMP JUMPDEST SWAP2 POP POP SWAP3 SWAP6 SWAP2 SWAP5 POP SWAP3 POP JUMP JUMPDEST PUSH32 0x4E487B7100000000000000000000000000000000000000000000000000000000 PUSH0 MSTORE PUSH1 0x22 PUSH1 0x4 MSTORE PUSH1 0x24 PUSH0 REVERT JUMPDEST PUSH0 PUSH1 0x2 DUP3 DIV SWAP1 POP PUSH1 0x1 DUP3 AND DUP1 PUSH2 0x10F8 JUMPI PUSH1 0x7F DUP3 AND SWAP2 POP JUMPDEST PUSH1 0x20 DUP3 LT DUP2 SUB PUSH2 0x110B JUMPI PUSH2 0x110A PUSH2 0x10B4 JUMP JUMPDEST JUMPDEST POP SWAP2 SWAP1 POP JUMP JUMPDEST PUSH32 0x546F6B656E20494420646F6573206E6F74206578697374000000000000000000 PUSH0 DUP3 ADD MSTORE POP JUMP JUMPDEST PUSH0 PUSH2 0x1145 PUSH1 0x17 DUP4 PUSH2 0xC07 JUMP JUMPDEST SWAP2 POP PUSH2 0x1150 DUP3 PUSH2 0x1111 JUMP JUMPDEST PUSH1 0x20 DUP3 ADD SWAP1 POP SWAP2 SWAP1 POP JUMP JUMPDEST PUSH0 PUSH1 0x20 DUP3 ADD SWAP1 POP DUP2 DUP2 SUB PUSH0 DUP4 ADD MSTORE PUSH2 0x1172 DUP2 PUSH2 0x1139 JUMP JUMPDEST SWAP1 POP SWAP2 SWAP1 POP JUMP JUMPDEST PUSH32 0x496E76616C696420616464726573730000000000000000000000000000000000 PUSH0 DUP3 ADD MSTORE POP JUMP JUMPDEST PUSH0 PUSH2 0x11AD PUSH1 0xF DUP4 PUSH2 0xC07 JUMP JUMPDEST SWAP2 POP PUSH2 0x11B8 DUP3 PUSH2 0x1179 JUMP JUMPDEST PUSH1 0x20 DUP3 ADD SWAP1 POP SWAP2 SWAP1 POP JUMP JUMPDEST PUSH0 PUSH1 0x20 DUP3 ADD SWAP1 POP DUP2 DUP2 SUB PUSH0 DUP4 ADD MSTORE PUSH2 0x11DA DUP2 PUSH2 0x11A1 JUMP JUMPDEST SWAP1 POP SWAP2 SWAP1 POP JUMP JUMPDEST PUSH32 0x43616C6C6572206973206E6F742074686520636F6E7472616374206F776E6572 PUSH0 DUP3 ADD MSTORE POP JUMP JUMPDEST PUSH0 PUSH2 0x1215 PUSH1 0x20 DUP4 PUSH2 0xC07 JUMP JUMPDEST SWAP2 POP PUSH2 0x1220 DUP3 PUSH2 0x11E1 JUMP JUMPDEST PUSH1 0x20 DUP3 ADD SWAP1 POP SWAP2 SWAP1 POP JUMP JUMPDEST PUSH0 PUSH1 0x20 DUP3 ADD SWAP1 POP DUP2 DUP2 SUB PUSH0 DUP4 ADD MSTORE PUSH2 0x1242 DUP2 PUSH2 0x1209 JUMP JUMPDEST SWAP1 POP SWAP2 SWAP1 POP JUMP JUMPDEST PUSH32 0x4D696E7420746F207A65726F2061646472657373000000000000000000000000 PUSH0 DUP3 ADD MSTORE POP JUMP JUMPDEST PUSH0 PUSH2 0x127D PUSH1 0x14 DUP4 PUSH2 0xC07 JUMP JUMPDEST SWAP2 POP PUSH2 0x1288 DUP3 PUSH2 0x1249 JUMP JUMPDEST PUSH1 0x20 DUP3 ADD SWAP1 POP SWAP2 SWAP1 POP JUMP JUMPDEST PUSH0 PUSH1 0x20 DUP3 ADD SWAP1 POP DUP2 DUP2 SUB PUSH0 DUP4 ADD MSTORE PUSH2 0x12AA DUP2 PUSH2 0x1271 JUMP JUMPDEST SWAP1 POP SWAP2 SWAP1 POP JUMP JUMPDEST PUSH32 0x4E487B7100000000000000000000000000000000000000000000000000000000 PUSH0 MSTORE PUSH1 0x11 PUSH1 0x4 MSTORE PUSH1 0x24 PUSH0 REVERT JUMPDEST PUSH0 PUSH2 0x12E8 DUP3 PUSH2 0xC9E JUMP JUMPDEST SWAP2 POP PUSH2 0x12F3 DUP4 PUSH2 0xC9E JUMP JUMPDEST SWAP3 POP DUP3 DUP3 ADD SWAP1 POP DUP1 DUP3 GT ISZERO PUSH2 0x130B JUMPI PUSH2 0x130A PUSH2 0x12B1 JUMP JUMPDEST JUMPDEST SWAP3 SWAP2 POP POP JUMP JUMPDEST PUSH0 DUP2 SWAP1 POP DUP2 PUSH0 MSTORE PUSH1 0x20 PUSH0 KECCAK256 SWAP1 POP SWAP2 SWAP1 POP JUMP JUMPDEST PUSH0 PUSH1 0x20 PUSH1 0x1F DUP4 ADD DIV SWAP1 POP SWAP2 SWAP1 POP JUMP JUMPDEST PUSH0 DUP3 DUP3 SHL SWAP1 POP SWAP3 SWAP2 POP POP JUMP JUMPDEST PUSH0 PUSH1 0x8 DUP4 MUL PUSH2 0x136D PUSH32 0xFFFFFFFFFFFFFFFFFFFFFFFFFFFFFFFFFFFFFFFFFFFFFFFFFFFFFFFFFFFFFFFF DUP3 PUSH2 0x1332 JUMP JUMPDEST PUSH2 0x1377 DUP7 DUP4 PUSH2 0x1332 JUMP JUMPDEST SWAP6 POP DUP1 NOT DUP5 AND SWAP4 POP DUP1 DUP7 AND DUP5 OR SWAP3 POP POP POP SWAP4 SWAP3 POP POP POP JUMP JUMPDEST PUSH0 DUP2 SWAP1 POP SWAP2 SWAP1 POP JUMP JUMPDEST PUSH0 PUSH2 0x13B2 PUSH2 0x13AD PUSH2 0x13A8 DUP5 PUSH2 0xC9E JUMP JUMPDEST PUSH2 0x138F JUMP JUMPDEST PUSH2 0xC9E JUMP JUMPDEST SWAP1 POP SWAP2 SWAP1 POP JUMP JUMPDEST PUSH0 DUP2 SWAP1 POP SWAP2 SWAP1 POP JUMP JUMPDEST PUSH2 0x13CB DUP4 PUSH2 0x1398 JUMP JUMPDEST PUSH2 0x13DF PUSH2 0x13D7 DUP3 PUSH2 0x13B9 JUMP JUMPDEST DUP5 DUP5 SLOAD PUSH2 0x133E JUMP JUMPDEST DUP3 SSTORE POP POP POP POP JUMP JUMPDEST PUSH0 SWAP1 JUMP JUMPDEST PUSH2 0x13F3 PUSH2 0x13E7 JUMP JUMPDEST PUSH2 0x13FE DUP2 DUP5 DUP5 PUSH2 0x13C2 JUMP JUMPDEST POP POP POP JUMP JUMPDEST JUMPDEST DUP2 DUP2 LT ISZERO PUSH2 0x1421 JUMPI PUSH2 0x1416 PUSH0 DUP3 PUSH2 0x13EB JUMP JUMPDEST PUSH1 0x1 DUP2 ADD SWAP1 POP PUSH2 0x1404 JUMP JUMPDEST POP POP JUMP JUMPDEST PUSH1 0x1F DUP3 GT ISZERO PUSH2 0x1466 JUMPI PUSH2 0x1437 DUP2 PUSH2 0x1311 JUMP JUMPDEST PUSH2 0x1440 DUP5 PUSH2 0x1323 JUMP JUMPDEST DUP2 ADD PUSH1 0x20 DUP6 LT ISZERO PUSH2 0x144F JUMPI DUP2 SWAP1 POP JUMPDEST PUSH2 0x1463 PUSH2 0x145B DUP6 PUSH2 0x1323 JUMP JUMPDEST DUP4 ADD DUP3 PUSH2 0x1403 JUMP JUMPDEST POP POP JUMPDEST POP POP POP JUMP JUMPDEST PUSH0 DUP3 DUP3 SHR SWAP1 POP SWAP3 SWAP2 POP POP JUMP JUMPDEST PUSH0 PUSH2 0x1486 PUSH0 NOT DUP5 PUSH1 0x8 MUL PUSH2 0x146B JUMP JUMPDEST NOT DUP1 DUP4 AND SWAP2 POP POP SWAP3 SWAP2 POP POP JUMP JUMPDEST PUSH0 PUSH2 0x149E DUP4 DUP4 PUSH2 0x1477 JUMP JUMPDEST SWAP2 POP DUP3 PUSH1 0x2 MUL DUP3 OR SWAP1 POP SWAP3 SWAP2 POP POP JUMP JUMPDEST PUSH2 0x14B7 DUP3 PUSH2 0xBFD JUMP JUMPDEST PUSH8 0xFFFFFFFFFFFFFFFF DUP2 GT ISZERO PUSH2 0x14D0 JUMPI PUSH2 0x14CF PUSH2 0xE6B JUMP JUMPDEST JUMPDEST PUSH2 0x14DA DUP3 SLOAD PUSH2 0x10E1 JUMP JUMPDEST PUSH2 0x14E5 DUP3 DUP3 DUP6 PUSH2 0x1425 JUMP JUMPDEST PUSH0 PUSH1 0x20 SWAP1 POP PUSH1 0x1F DUP4 GT PUSH1 0x1 DUP2 EQ PUSH2 0x1516 JUMPI PUSH0 DUP5 ISZERO PUSH2 0x1504 JUMPI DUP3 DUP8 ADD MLOAD SWAP1 POP JUMPDEST PUSH2 0x150E DUP6 DUP3 PUSH2 0x1493 JUMP JUMPDEST DUP7 SSTORE POP PUSH2 0x1575 JUMP JUMPDEST PUSH1 0x1F NOT DUP5 AND PUSH2 0x1524 DUP7 PUSH2 0x1311 JUMP JUMPDEST PUSH0 JUMPDEST DUP3 DUP2 LT ISZERO PUSH2 0x154B JUMPI DUP5 DUP10 ADD MLOAD DUP3 SSTORE PUSH1 0x1 DUP3 ADD SWAP2 POP PUSH1 0x20 DUP6 ADD SWAP5 POP PUSH1 0x20 DUP2 ADD SWAP1 POP PUSH2 0x1526 JUMP JUMPDEST DUP7 DUP4 LT ISZERO PUSH2 0x1568 JUMPI DUP5 DUP10 ADD MLOAD PUSH2 0x1564 PUSH1 0x1F DUP10 AND DUP3 PUSH2 0x1477 JUMP JUMPDEST DUP4 SSTORE POP JUMPDEST PUSH1 0x1 PUSH1 0x2 DUP9 MUL ADD DUP9 SSTORE POP POP POP JUMPDEST POP POP POP POP POP POP JUMP JUMPDEST PUSH32 0x4E487B7100000000000000000000000000000000000000000000000000000000 PUSH0 MSTORE PUSH1 0x12 PUSH1 0x4 MSTORE PUSH1 0x24 PUSH0 REVERT JUMPDEST PUSH0 PUSH2 0x15B4 DUP3 PUSH2 0xC9E JUMP JUMPDEST SWAP2 POP PUSH2 0x15BF DUP4 PUSH2 0xC9E JUMP JUMPDEST SWAP3 POP DUP3 PUSH2 0x15CF JUMPI PUSH2 0x15CE PUSH2 0x157D JUMP JUMPDEST JUMPDEST DUP3 DUP3 DIV SWAP1 POP SWAP3 SWAP2 POP POP JUMP JUMPDEST PUSH0 PUSH2 0x15E4 DUP3 PUSH2 0xC9E JUMP JUMPDEST SWAP2 POP PUSH2 0x15EF DUP4 PUSH2 0xC9E JUMP JUMPDEST SWAP3 POP DUP3 DUP3 SUB SWAP1 POP DUP2 DUP2 GT ISZERO PUSH2 0x1607 JUMPI PUSH2 0x1606 PUSH2 0x12B1 JUMP JUMPDEST JUMPDEST SWAP3 SWAP2 POP POP JUMP JUMPDEST PUSH0 PUSH2 0x1617 DUP3 PUSH2 0xC9E JUMP JUMPDEST SWAP2 POP PUSH2 0x1622 DUP4 PUSH2 0xC9E JUMP JUMPDEST SWAP3 POP DUP3 DUP3 MUL PUSH2 0x1630 DUP2 PUSH2 0xC9E JUMP JUMPDEST SWAP2 POP DUP3 DUP3 DIV DUP5 EQ DUP4 ISZERO OR PUSH2 0x1647 JUMPI PUSH2 0x1646 PUSH2 0x12B1 JUMP JUMPDEST JUMPDEST POP SWAP3 SWAP2 POP POP JUMP INVALID LOG2 PUSH5 0x6970667358 0x22 SLT KECCAK256 PUSH14 0x70ECC025EFA343EC11822E3B55CD 0xEB 0xE2 PUSH1 0x44 0xC0 0xBB 0xE6 0xC6 SAR PREVRANDAO 0xCF PREVRANDAO 0xC8 SGT BALANCE DUP14 0xB4 PUSH5 0x736F6C6343 STOP ADDMOD BYTE STOP CALLER "
				},
				"gasEstimates": {
					"creation": {
						"codeDepositCost": "1152800",
						"executionCost": "infinite",
						"totalCost": "infinite"
					},
					"external": {
						"balanceOf(address)": "2864",
						"computeMonthlyQuota(uint256,uint256,uint256,uint256)": "infinite",
						"exists(uint256)": "2876",
						"getCarDetails(uint256)": "infinite",
						"mintCar(address,string,string,uint256,uint256,uint256)": "infinite",
						"name()": "infinite",
						"ownerOf(uint256)": "3008",
						"symbol()": "infinite"
					}
				},
				"methodIdentifiers": {
					"balanceOf(address)": "70a08231",
					"computeMonthlyQuota(uint256,uint256,uint256,uint256)": "77f110bc",
					"exists(uint256)": "4f558e79",
					"getCarDetails(uint256)": "472ec454",
					"mintCar(address,string,string,uint256,uint256,uint256)": "75bb48fe",
					"name()": "06fdde03",
					"ownerOf(uint256)": "6352211e",
					"symbol()": "95d89b41"
				}
			},
			"storageLayout": {
				"storage": [
					{
						"astId": 13,
						"contract": "contracts/_BilboydLeasing.sol:CarLeasingNFT",
						"label": "_owners",
						"offset": 0,
						"slot": "0",
						"type": "t_mapping(t_uint256,t_address)"
					},
					{
						"astId": 17,
						"contract": "contracts/_BilboydLeasing.sol:CarLeasingNFT",
						"label": "_balances",
						"offset": 0,
						"slot": "1",
						"type": "t_mapping(t_address,t_uint256)"
					},
					{
						"astId": 19,
						"contract": "contracts/_BilboydLeasing.sol:CarLeasingNFT",
						"label": "tokenName",
						"offset": 0,
						"slot": "2",
						"type": "t_string_storage"
					},
					{
						"astId": 21,
						"contract": "contracts/_BilboydLeasing.sol:CarLeasingNFT",
						"label": "tokenSymbol",
						"offset": 0,
						"slot": "3",
						"type": "t_string_storage"
					},
					{
						"astId": 23,
						"contract": "contracts/_BilboydLeasing.sol:CarLeasingNFT",
						"label": "tokenIdCount",
						"offset": 0,
						"slot": "4",
						"type": "t_uint256"
					},
					{
						"astId": 39,
						"contract": "contracts/_BilboydLeasing.sol:CarLeasingNFT",
						"label": "_carDetails",
						"offset": 0,
						"slot": "5",
						"type": "t_mapping(t_uint256,t_struct(Car)34_storage)"
					},
					{
						"astId": 41,
						"contract": "contracts/_BilboydLeasing.sol:CarLeasingNFT",
						"label": "_owner",
						"offset": 0,
						"slot": "6",
						"type": "t_address"
					}
				],
				"types": {
					"t_address": {
						"encoding": "inplace",
						"label": "address",
						"numberOfBytes": "20"
					},
					"t_mapping(t_address,t_uint256)": {
						"encoding": "mapping",
						"key": "t_address",
						"label": "mapping(address => uint256)",
						"numberOfBytes": "32",
						"value": "t_uint256"
					},
					"t_mapping(t_uint256,t_address)": {
						"encoding": "mapping",
						"key": "t_uint256",
						"label": "mapping(uint256 => address)",
						"numberOfBytes": "32",
						"value": "t_address"
					},
					"t_mapping(t_uint256,t_struct(Car)34_storage)": {
						"encoding": "mapping",
						"key": "t_uint256",
						"label": "mapping(uint256 => struct CarLeasingNFT.Car)",
						"numberOfBytes": "32",
						"value": "t_struct(Car)34_storage"
					},
					"t_string_storage": {
						"encoding": "bytes",
						"label": "string",
						"numberOfBytes": "32"
					},
					"t_struct(Car)34_storage": {
						"encoding": "inplace",
						"label": "struct CarLeasingNFT.Car",
						"members": [
							{
								"astId": 25,
								"contract": "contracts/_BilboydLeasing.sol:CarLeasingNFT",
								"label": "model",
								"offset": 0,
								"slot": "0",
								"type": "t_string_storage"
							},
							{
								"astId": 27,
								"contract": "contracts/_BilboydLeasing.sol:CarLeasingNFT",
								"label": "color",
								"offset": 0,
								"slot": "1",
								"type": "t_string_storage"
							},
							{
								"astId": 29,
								"contract": "contracts/_BilboydLeasing.sol:CarLeasingNFT",
								"label": "registrationYear",
								"offset": 0,
								"slot": "2",
								"type": "t_uint256"
							},
							{
								"astId": 31,
								"contract": "contracts/_BilboydLeasing.sol:CarLeasingNFT",
								"label": "originalValue",
								"offset": 0,
								"slot": "3",
								"type": "t_uint256"
							},
							{
								"astId": 33,
								"contract": "contracts/_BilboydLeasing.sol:CarLeasingNFT",
								"label": "currentMileage",
								"offset": 0,
								"slot": "4",
								"type": "t_uint256"
							}
						],
						"numberOfBytes": "160"
					},
					"t_uint256": {
						"encoding": "inplace",
						"label": "uint256",
						"numberOfBytes": "32"
					}
				}
			},
			"userdoc": {
				"kind": "user",
				"methods": {
					"balanceOf(address)": {
						"notice": "Function to get the balance of a given address"
					},
					"computeMonthlyQuota(uint256,uint256,uint256,uint256)": {
						"notice": "Calculates baseQuota equalling to 2% of original car value "
					},
					"exists(uint256)": {
						"notice": "Public function to check if a token exists"
					},
					"getCarDetails(uint256)": {
						"notice": "Gets cardetails from a tokenID"
					},
					"mintCar(address,string,string,uint256,uint256,uint256)": {
						"notice": "Mint a new car NFT (only callable by the contract owner)"
					},
					"name()": {
						"notice": "Function to get the token name"
					},
					"ownerOf(uint256)": {
						"notice": "Function to get the owner of a token ID"
					},
					"symbol()": {
						"notice": "Function to get the token symbol"
					}
				},
				"version": 1
			}
		}
	}
}