{
	"contracts/_BilboydLeasing.sol": {
		"CarLeasingNFT": {
			"abi": [
				{
					"inputs": [],
					"stateMutability": "nonpayable",
					"type": "constructor"
				},
				{
					"anonymous": false,
					"inputs": [
						{
							"indexed": true,
							"internalType": "address",
							"name": "owner",
							"type": "address"
						},
						{
							"indexed": true,
							"internalType": "address",
							"name": "approved",
							"type": "address"
						},
						{
							"indexed": true,
							"internalType": "uint256",
							"name": "tokenId",
							"type": "uint256"
						}
					],
					"name": "Approval",
					"type": "event"
				},
				{
					"anonymous": false,
					"inputs": [
						{
							"indexed": true,
							"internalType": "address",
							"name": "owner",
							"type": "address"
						},
						{
							"indexed": true,
							"internalType": "address",
							"name": "operator",
							"type": "address"
						},
						{
							"indexed": false,
							"internalType": "bool",
							"name": "approved",
							"type": "bool"
						}
					],
					"name": "ApprovalForAll",
					"type": "event"
				},
				{
					"anonymous": false,
					"inputs": [
						{
							"indexed": true,
							"internalType": "address",
							"name": "from",
							"type": "address"
						},
						{
							"indexed": true,
							"internalType": "address",
							"name": "to",
							"type": "address"
						},
						{
							"indexed": true,
							"internalType": "uint256",
							"name": "tokenId",
							"type": "uint256"
						}
					],
					"name": "Transfer",
					"type": "event"
				},
				{
					"inputs": [
						{
							"internalType": "address",
							"name": "to",
							"type": "address"
						},
						{
							"internalType": "uint256",
							"name": "tokenId",
							"type": "uint256"
						}
					],
					"name": "approve",
					"outputs": [],
					"stateMutability": "nonpayable",
					"type": "function"
				},
				{
					"inputs": [
						{
							"internalType": "address",
							"name": "ownerAddress",
							"type": "address"
						}
					],
					"name": "balanceOf",
					"outputs": [
						{
							"internalType": "uint256",
							"name": "",
							"type": "uint256"
						}
					],
					"stateMutability": "view",
					"type": "function"
				},
				{
					"inputs": [
						{
							"internalType": "uint256",
							"name": "tokenId",
							"type": "uint256"
						}
					],
					"name": "cancelLeaseProposal",
					"outputs": [],
					"stateMutability": "nonpayable",
					"type": "function"
				},
				{
					"inputs": [
						{
							"internalType": "uint256",
							"name": "tokenId",
							"type": "uint256"
						},
						{
							"internalType": "uint256",
							"name": "driverExperience",
							"type": "uint256"
						},
						{
							"internalType": "uint256",
							"name": "mileageCap",
							"type": "uint256"
						},
						{
							"internalType": "uint256",
							"name": "contractDuration",
							"type": "uint256"
						}
					],
					"name": "computeMonthlyQuotaForProposal",
					"outputs": [
						{
							"internalType": "uint256",
							"name": "",
							"type": "uint256"
						}
					],
					"stateMutability": "view",
					"type": "function"
				},
				{
					"inputs": [
						{
							"internalType": "uint256",
							"name": "tokenId",
							"type": "uint256"
						}
					],
					"name": "confirmLease",
					"outputs": [],
					"stateMutability": "nonpayable",
					"type": "function"
				},
				{
					"inputs": [
						{
							"internalType": "uint256",
							"name": "tokenId",
							"type": "uint256"
						}
					],
					"name": "exists",
					"outputs": [
						{
							"internalType": "bool",
							"name": "",
							"type": "bool"
						}
					],
					"stateMutability": "view",
					"type": "function"
				},
				{
					"inputs": [
						{
							"internalType": "uint256",
							"name": "tokenId",
							"type": "uint256"
						}
					],
					"name": "getApproved",
					"outputs": [
						{
							"internalType": "address",
							"name": "",
							"type": "address"
						}
					],
					"stateMutability": "view",
					"type": "function"
				},
				{
					"inputs": [
						{
							"internalType": "uint256",
							"name": "tokenId",
							"type": "uint256"
						}
					],
					"name": "getCarDetails",
					"outputs": [
						{
							"components": [
								{
									"internalType": "string",
									"name": "model",
									"type": "string"
								},
								{
									"internalType": "string",
									"name": "color",
									"type": "string"
								},
								{
									"internalType": "uint256",
									"name": "yearOfMatriculation",
									"type": "uint256"
								},
								{
									"internalType": "uint256",
									"name": "originalValue",
									"type": "uint256"
								},
								{
									"internalType": "uint256",
									"name": "currentMileage",
									"type": "uint256"
								}
							],
							"internalType": "struct CarLeasingNFT.Car",
							"name": "",
							"type": "tuple"
						}
					],
					"stateMutability": "view",
					"type": "function"
				},
				{
					"inputs": [
						{
							"internalType": "uint256",
							"name": "tokenId",
							"type": "uint256"
						}
					],
					"name": "getLeaseDetails",
					"outputs": [
						{
							"components": [
								{
									"internalType": "uint256",
									"name": "tokenId",
									"type": "uint256"
								},
								{
									"internalType": "address",
									"name": "lessee",
									"type": "address"
								},
								{
									"internalType": "uint256",
									"name": "driverExperience",
									"type": "uint256"
								},
								{
									"internalType": "uint256",
									"name": "mileageCap",
									"type": "uint256"
								},
								{
									"internalType": "uint256",
									"name": "contractDuration",
									"type": "uint256"
								},
								{
									"internalType": "bool",
									"name": "isActive",
									"type": "bool"
								},
								{
									"internalType": "uint256",
									"name": "deposit",
									"type": "uint256"
								},
								{
									"internalType": "uint256",
									"name": "lastPaymentTime",
									"type": "uint256"
								},
								{
									"internalType": "uint256",
									"name": "paymentDueDate",
									"type": "uint256"
								},
								{
									"internalType": "uint256",
									"name": "monthlyQuota",
									"type": "uint256"
								}
							],
							"internalType": "struct CarLeasingNFT.LeaseAgreement",
							"name": "",
							"type": "tuple"
						}
					],
					"stateMutability": "view",
					"type": "function"
				},
				{
					"inputs": [
						{
							"internalType": "address",
							"name": "ownerAddress",
							"type": "address"
						},
						{
							"internalType": "address",
							"name": "operator",
							"type": "address"
						}
					],
					"name": "isApprovedForAll",
					"outputs": [
						{
							"internalType": "bool",
							"name": "",
							"type": "bool"
						}
					],
					"stateMutability": "view",
					"type": "function"
				},
				{
					"inputs": [
						{
							"internalType": "uint256",
							"name": "tokenId",
							"type": "uint256"
						}
					],
					"name": "makeMonthlyPayment",
					"outputs": [],
					"stateMutability": "payable",
					"type": "function"
				},
				{
					"inputs": [
						{
							"internalType": "string",
							"name": "model",
							"type": "string"
						},
						{
							"internalType": "string",
							"name": "color",
							"type": "string"
						},
						{
							"internalType": "uint256",
							"name": "yearOfMatriculation",
							"type": "uint256"
						},
						{
							"internalType": "uint256",
							"name": "originalValue",
							"type": "uint256"
						},
						{
							"internalType": "uint256",
							"name": "currentMileage",
							"type": "uint256"
						}
					],
					"name": "mintCar",
					"outputs": [
						{
							"internalType": "uint256",
							"name": "",
							"type": "uint256"
						}
					],
					"stateMutability": "nonpayable",
					"type": "function"
				},
				{
					"inputs": [],
					"name": "name",
					"outputs": [
						{
							"internalType": "string",
							"name": "",
							"type": "string"
						}
					],
					"stateMutability": "view",
					"type": "function"
				},
				{
					"inputs": [
						{
							"internalType": "uint256",
							"name": "tokenId",
							"type": "uint256"
						}
					],
					"name": "ownerOf",
					"outputs": [
						{
							"internalType": "address",
							"name": "",
							"type": "address"
						}
					],
					"stateMutability": "view",
					"type": "function"
				},
				{
					"inputs": [
						{
							"internalType": "uint256",
							"name": "tokenId",
							"type": "uint256"
						},
						{
							"internalType": "uint256",
							"name": "driverExperience",
							"type": "uint256"
						},
						{
							"internalType": "uint256",
							"name": "mileageCap",
							"type": "uint256"
						},
						{
							"internalType": "uint256",
							"name": "contractDuration",
							"type": "uint256"
						}
					],
					"name": "proposeLease",
					"outputs": [],
					"stateMutability": "payable",
					"type": "function"
				},
				{
					"inputs": [
						{
							"internalType": "uint256",
							"name": "tokenId",
							"type": "uint256"
						}
					],
					"name": "repossessCar",
					"outputs": [],
					"stateMutability": "nonpayable",
					"type": "function"
				},
				{
					"inputs": [
						{
							"internalType": "address",
							"name": "operator",
							"type": "address"
						},
						{
							"internalType": "bool",
							"name": "approved",
							"type": "bool"
						}
					],
					"name": "setApprovalForAll",
					"outputs": [],
					"stateMutability": "nonpayable",
					"type": "function"
				},
				{
					"inputs": [],
					"name": "symbol",
					"outputs": [
						{
							"internalType": "string",
							"name": "",
							"type": "string"
						}
					],
					"stateMutability": "view",
					"type": "function"
				},
				{
					"inputs": [
						{
							"internalType": "address",
							"name": "from",
							"type": "address"
						},
						{
							"internalType": "address",
							"name": "to",
							"type": "address"
						},
						{
							"internalType": "uint256",
							"name": "tokenId",
							"type": "uint256"
						}
					],
					"name": "transferFrom",
					"outputs": [],
					"stateMutability": "nonpayable",
					"type": "function"
				},
				{
					"inputs": [
						{
							"internalType": "uint256",
							"name": "tokenId",
							"type": "uint256"
						},
						{
							"internalType": "uint256",
							"name": "newMileage",
							"type": "uint256"
						}
					],
					"name": "updateMileage",
					"outputs": [],
					"stateMutability": "nonpayable",
					"type": "function"
				}
			],
			"devdoc": {
				"kind": "dev",
				"methods": {},
				"version": 1
			},
			"evm": {
				"assembly": "    /* \"contracts/_BilboydLeasing.sol\":57:13927  contract CarLeasingNFT {... */\n  mstore(0x40, 0x80)\n    /* \"contracts/_BilboydLeasing.sol\":2206:2311  constructor() {... */\n  callvalue\n  dup1\n  iszero\n  tag_1\n  jumpi\n  0x00\n  dup1\n  revert\ntag_1:\n  pop\n    /* \"contracts/_BilboydLeasing.sol\":2230:2250  _name = \"BilBoydCar\" */\n  mload(0x40)\n  dup1\n  0x40\n  add\n  0x40\n  mstore\n  dup1\n  0x0a\n  dup2\n  mstore\n  0x20\n  add\n  0x42696c426f796443617200000000000000000000000000000000000000000000\n  dup2\n  mstore\n  pop\n    /* \"contracts/_BilboydLeasing.sol\":2230:2235  _name */\n  0x04\n    /* \"contracts/_BilboydLeasing.sol\":2230:2250  _name = \"BilBoydCar\" */\n  swap1\n  dup2\n  tag_4\n  swap2\n  swap1\n  tag_5\n  jump\t// in\ntag_4:\n  pop\n    /* \"contracts/_BilboydLeasing.sol\":2260:2275  _symbol = \"BBC\" */\n  mload(0x40)\n  dup1\n  0x40\n  add\n  0x40\n  mstore\n  dup1\n  0x03\n  dup2\n  mstore\n  0x20\n  add\n  0x4242430000000000000000000000000000000000000000000000000000000000\n  dup2\n  mstore\n  pop\n    /* \"contracts/_BilboydLeasing.sol\":2260:2267  _symbol */\n  0x05\n    /* \"contracts/_BilboydLeasing.sol\":2260:2275  _symbol = \"BBC\" */\n  swap1\n  dup2\n  tag_6\n  swap2\n  swap1\n  tag_5\n  jump\t// in\ntag_6:\n  pop\n    /* \"contracts/_BilboydLeasing.sol\":2294:2304  msg.sender */\n  caller\n    /* \"contracts/_BilboydLeasing.sol\":2285:2291  _owner */\n  0x09\n  0x00\n    /* \"contracts/_BilboydLeasing.sol\":2285:2304  _owner = msg.sender */\n  0x0100\n  exp\n  dup2\n  sload\n  dup2\n  0xffffffffffffffffffffffffffffffffffffffff\n  mul\n  not\n  and\n  swap1\n  dup4\n  0xffffffffffffffffffffffffffffffffffffffff\n  and\n  mul\n  or\n  swap1\n  sstore\n  pop\n    /* \"contracts/_BilboydLeasing.sol\":57:13927  contract CarLeasingNFT {... */\n  jump(tag_7)\n    /* \"#utility.yul\":7:106   */\ntag_8:\n    /* \"#utility.yul\":59:65   */\n  0x00\n    /* \"#utility.yul\":93:98   */\n  dup2\n    /* \"#utility.yul\":87:99   */\n  mload\n    /* \"#utility.yul\":77:99   */\n  swap1\n  pop\n    /* \"#utility.yul\":7:106   */\n  swap2\n  swap1\n  pop\n  jump\t// out\n    /* \"#utility.yul\":112:292   */\ntag_9:\n    /* \"#utility.yul\":160:237   */\n  0x4e487b7100000000000000000000000000000000000000000000000000000000\n    /* \"#utility.yul\":157:158   */\n  0x00\n    /* \"#utility.yul\":150:238   */\n  mstore\n    /* \"#utility.yul\":257:261   */\n  0x41\n    /* \"#utility.yul\":254:255   */\n  0x04\n    /* \"#utility.yul\":247:262   */\n  mstore\n    /* \"#utility.yul\":281:285   */\n  0x24\n    /* \"#utility.yul\":278:279   */\n  0x00\n    /* \"#utility.yul\":271:286   */\n  revert\n    /* \"#utility.yul\":298:478   */\ntag_10:\n    /* \"#utility.yul\":346:423   */\n  0x4e487b7100000000000000000000000000000000000000000000000000000000\n    /* \"#utility.yul\":343:344   */\n  0x00\n    /* \"#utility.yul\":336:424   */\n  mstore\n    /* \"#utility.yul\":443:447   */\n  0x22\n    /* \"#utility.yul\":440:441   */\n  0x04\n    /* \"#utility.yul\":433:448   */\n  mstore\n    /* \"#utility.yul\":467:471   */\n  0x24\n    /* \"#utility.yul\":464:465   */\n  0x00\n    /* \"#utility.yul\":457:472   */\n  revert\n    /* \"#utility.yul\":484:804   */\ntag_11:\n    /* \"#utility.yul\":528:534   */\n  0x00\n    /* \"#utility.yul\":565:566   */\n  0x02\n    /* \"#utility.yul\":559:563   */\n  dup3\n    /* \"#utility.yul\":555:567   */\n  div\n    /* \"#utility.yul\":545:567   */\n  swap1\n  pop\n    /* \"#utility.yul\":612:613   */\n  0x01\n    /* \"#utility.yul\":606:610   */\n  dup3\n    /* \"#utility.yul\":602:614   */\n  and\n    /* \"#utility.yul\":633:651   */\n  dup1\n    /* \"#utility.yul\":623:704   */\n  tag_33\n  jumpi\n    /* \"#utility.yul\":689:693   */\n  0x7f\n    /* \"#utility.yul\":681:687   */\n  dup3\n    /* \"#utility.yul\":677:694   */\n  and\n    /* \"#utility.yul\":667:694   */\n  swap2\n  pop\n    /* \"#utility.yul\":623:704   */\ntag_33:\n    /* \"#utility.yul\":751:753   */\n  0x20\n    /* \"#utility.yul\":743:749   */\n  dup3\n    /* \"#utility.yul\":740:754   */\n  lt\n    /* \"#utility.yul\":720:738   */\n  dup2\n    /* \"#utility.yul\":717:755   */\n  sub\n    /* \"#utility.yul\":714:798   */\n  tag_34\n  jumpi\n    /* \"#utility.yul\":770:788   */\n  tag_35\n  tag_10\n  jump\t// in\ntag_35:\n    /* \"#utility.yul\":714:798   */\ntag_34:\n    /* \"#utility.yul\":535:804   */\n  pop\n    /* \"#utility.yul\":484:804   */\n  swap2\n  swap1\n  pop\n  jump\t// out\n    /* \"#utility.yul\":810:951   */\ntag_12:\n    /* \"#utility.yul\":859:863   */\n  0x00\n    /* \"#utility.yul\":882:885   */\n  dup2\n    /* \"#utility.yul\":874:885   */\n  swap1\n  pop\n    /* \"#utility.yul\":905:908   */\n  dup2\n    /* \"#utility.yul\":902:903   */\n  0x00\n    /* \"#utility.yul\":895:909   */\n  mstore\n    /* \"#utility.yul\":939:943   */\n  0x20\n    /* \"#utility.yul\":936:937   */\n  0x00\n    /* \"#utility.yul\":926:944   */\n  keccak256\n    /* \"#utility.yul\":918:944   */\n  swap1\n  pop\n    /* \"#utility.yul\":810:951   */\n  swap2\n  swap1\n  pop\n  jump\t// out\n    /* \"#utility.yul\":957:1050   */\ntag_13:\n    /* \"#utility.yul\":994:1000   */\n  0x00\n    /* \"#utility.yul\":1041:1043   */\n  0x20\n    /* \"#utility.yul\":1036:1038   */\n  0x1f\n    /* \"#utility.yul\":1029:1034   */\n  dup4\n    /* \"#utility.yul\":1025:1039   */\n  add\n    /* \"#utility.yul\":1021:1044   */\n  div\n    /* \"#utility.yul\":1011:1044   */\n  swap1\n  pop\n    /* \"#utility.yul\":957:1050   */\n  swap2\n  swap1\n  pop\n  jump\t// out\n    /* \"#utility.yul\":1056:1163   */\ntag_14:\n    /* \"#utility.yul\":1100:1108   */\n  0x00\n    /* \"#utility.yul\":1150:1155   */\n  dup3\n    /* \"#utility.yul\":1144:1148   */\n  dup3\n    /* \"#utility.yul\":1140:1156   */\n  shl\n    /* \"#utility.yul\":1119:1156   */\n  swap1\n  pop\n    /* \"#utility.yul\":1056:1163   */\n  swap3\n  swap2\n  pop\n  pop\n  jump\t// out\n    /* \"#utility.yul\":1169:1562   */\ntag_15:\n    /* \"#utility.yul\":1238:1244   */\n  0x00\n    /* \"#utility.yul\":1288:1289   */\n  0x08\n    /* \"#utility.yul\":1276:1286   */\n  dup4\n    /* \"#utility.yul\":1272:1290   */\n  mul\n    /* \"#utility.yul\":1311:1408   */\n  tag_40\n    /* \"#utility.yul\":1341:1407   */\n  0xffffffffffffffffffffffffffffffffffffffffffffffffffffffffffffffff\n    /* \"#utility.yul\":1330:1339   */\n  dup3\n    /* \"#utility.yul\":1311:1408   */\n  tag_14\n  jump\t// in\ntag_40:\n    /* \"#utility.yul\":1429:1468   */\n  tag_41\n    /* \"#utility.yul\":1459:1467   */\n  dup7\n    /* \"#utility.yul\":1448:1457   */\n  dup4\n    /* \"#utility.yul\":1429:1468   */\n  tag_14\n  jump\t// in\ntag_41:\n    /* \"#utility.yul\":1417:1468   */\n  swap6\n  pop\n    /* \"#utility.yul\":1501:1505   */\n  dup1\n    /* \"#utility.yul\":1497:1506   */\n  not\n    /* \"#utility.yul\":1490:1495   */\n  dup5\n    /* \"#utility.yul\":1486:1507   */\n  and\n    /* \"#utility.yul\":1477:1507   */\n  swap4\n  pop\n    /* \"#utility.yul\":1550:1554   */\n  dup1\n    /* \"#utility.yul\":1540:1548   */\n  dup7\n    /* \"#utility.yul\":1536:1555   */\n  and\n    /* \"#utility.yul\":1529:1534   */\n  dup5\n    /* \"#utility.yul\":1526:1556   */\n  or\n    /* \"#utility.yul\":1516:1556   */\n  swap3\n  pop\n    /* \"#utility.yul\":1245:1562   */\n  pop\n  pop\n    /* \"#utility.yul\":1169:1562   */\n  swap4\n  swap3\n  pop\n  pop\n  pop\n  jump\t// out\n    /* \"#utility.yul\":1568:1645   */\ntag_16:\n    /* \"#utility.yul\":1605:1612   */\n  0x00\n    /* \"#utility.yul\":1634:1639   */\n  dup2\n    /* \"#utility.yul\":1623:1639   */\n  swap1\n  pop\n    /* \"#utility.yul\":1568:1645   */\n  swap2\n  swap1\n  pop\n  jump\t// out\n    /* \"#utility.yul\":1651:1711   */\ntag_17:\n    /* \"#utility.yul\":1679:1682   */\n  0x00\n    /* \"#utility.yul\":1700:1705   */\n  dup2\n    /* \"#utility.yul\":1693:1705   */\n  swap1\n  pop\n    /* \"#utility.yul\":1651:1711   */\n  swap2\n  swap1\n  pop\n  jump\t// out\n    /* \"#utility.yul\":1717:1859   */\ntag_18:\n    /* \"#utility.yul\":1767:1776   */\n  0x00\n    /* \"#utility.yul\":1800:1853   */\n  tag_45\n    /* \"#utility.yul\":1818:1852   */\n  tag_46\n    /* \"#utility.yul\":1827:1851   */\n  tag_47\n    /* \"#utility.yul\":1845:1850   */\n  dup5\n    /* \"#utility.yul\":1827:1851   */\n  tag_16\n  jump\t// in\ntag_47:\n    /* \"#utility.yul\":1818:1852   */\n  tag_17\n  jump\t// in\ntag_46:\n    /* \"#utility.yul\":1800:1853   */\n  tag_16\n  jump\t// in\ntag_45:\n    /* \"#utility.yul\":1787:1853   */\n  swap1\n  pop\n    /* \"#utility.yul\":1717:1859   */\n  swap2\n  swap1\n  pop\n  jump\t// out\n    /* \"#utility.yul\":1865:1940   */\ntag_19:\n    /* \"#utility.yul\":1908:1911   */\n  0x00\n    /* \"#utility.yul\":1929:1934   */\n  dup2\n    /* \"#utility.yul\":1922:1934   */\n  swap1\n  pop\n    /* \"#utility.yul\":1865:1940   */\n  swap2\n  swap1\n  pop\n  jump\t// out\n    /* \"#utility.yul\":1946:2215   */\ntag_20:\n    /* \"#utility.yul\":2056:2095   */\n  tag_50\n    /* \"#utility.yul\":2087:2094   */\n  dup4\n    /* \"#utility.yul\":2056:2095   */\n  tag_18\n  jump\t// in\ntag_50:\n    /* \"#utility.yul\":2117:2208   */\n  tag_51\n    /* \"#utility.yul\":2166:2207   */\n  tag_52\n    /* \"#utility.yul\":2190:2206   */\n  dup3\n    /* \"#utility.yul\":2166:2207   */\n  tag_19\n  jump\t// in\ntag_52:\n    /* \"#utility.yul\":2158:2164   */\n  dup5\n    /* \"#utility.yul\":2151:2155   */\n  dup5\n    /* \"#utility.yul\":2145:2156   */\n  sload\n    /* \"#utility.yul\":2117:2208   */\n  tag_15\n  jump\t// in\ntag_51:\n    /* \"#utility.yul\":2111:2115   */\n  dup3\n    /* \"#utility.yul\":2104:2209   */\n  sstore\n    /* \"#utility.yul\":2022:2215   */\n  pop\n    /* \"#utility.yul\":1946:2215   */\n  pop\n  pop\n  pop\n  jump\t// out\n    /* \"#utility.yul\":2221:2294   */\ntag_21:\n    /* \"#utility.yul\":2266:2269   */\n  0x00\n    /* \"#utility.yul\":2221:2294   */\n  swap1\n  jump\t// out\n    /* \"#utility.yul\":2300:2489   */\ntag_22:\n    /* \"#utility.yul\":2377:2409   */\n  tag_55\n  tag_21\n  jump\t// in\ntag_55:\n    /* \"#utility.yul\":2418:2483   */\n  tag_56\n    /* \"#utility.yul\":2476:2482   */\n  dup2\n    /* \"#utility.yul\":2468:2474   */\n  dup5\n    /* \"#utility.yul\":2462:2466   */\n  dup5\n    /* \"#utility.yul\":2418:2483   */\n  tag_20\n  jump\t// in\ntag_56:\n    /* \"#utility.yul\":2353:2489   */\n  pop\n    /* \"#utility.yul\":2300:2489   */\n  pop\n  pop\n  jump\t// out\n    /* \"#utility.yul\":2495:2681   */\ntag_23:\n    /* \"#utility.yul\":2555:2675   */\ntag_58:\n    /* \"#utility.yul\":2572:2575   */\n  dup2\n    /* \"#utility.yul\":2565:2570   */\n  dup2\n    /* \"#utility.yul\":2562:2576   */\n  lt\n    /* \"#utility.yul\":2555:2675   */\n  iszero\n  tag_60\n  jumpi\n    /* \"#utility.yul\":2626:2665   */\n  tag_61\n    /* \"#utility.yul\":2663:2664   */\n  0x00\n    /* \"#utility.yul\":2656:2661   */\n  dup3\n    /* \"#utility.yul\":2626:2665   */\n  tag_22\n  jump\t// in\ntag_61:\n    /* \"#utility.yul\":2599:2600   */\n  0x01\n    /* \"#utility.yul\":2592:2597   */\n  dup2\n    /* \"#utility.yul\":2588:2601   */\n  add\n    /* \"#utility.yul\":2579:2601   */\n  swap1\n  pop\n    /* \"#utility.yul\":2555:2675   */\n  jump(tag_58)\ntag_60:\n    /* \"#utility.yul\":2495:2681   */\n  pop\n  pop\n  jump\t// out\n    /* \"#utility.yul\":2687:3230   */\ntag_24:\n    /* \"#utility.yul\":2788:2790   */\n  0x1f\n    /* \"#utility.yul\":2783:2786   */\n  dup3\n    /* \"#utility.yul\":2780:2791   */\n  gt\n    /* \"#utility.yul\":2777:3223   */\n  iszero\n  tag_63\n  jumpi\n    /* \"#utility.yul\":2822:2860   */\n  tag_64\n    /* \"#utility.yul\":2854:2859   */\n  dup2\n    /* \"#utility.yul\":2822:2860   */\n  tag_12\n  jump\t// in\ntag_64:\n    /* \"#utility.yul\":2906:2935   */\n  tag_65\n    /* \"#utility.yul\":2924:2934   */\n  dup5\n    /* \"#utility.yul\":2906:2935   */\n  tag_13\n  jump\t// in\ntag_65:\n    /* \"#utility.yul\":2896:2904   */\n  dup2\n    /* \"#utility.yul\":2892:2936   */\n  add\n    /* \"#utility.yul\":3089:3091   */\n  0x20\n    /* \"#utility.yul\":3077:3087   */\n  dup6\n    /* \"#utility.yul\":3074:3092   */\n  lt\n    /* \"#utility.yul\":3071:3120   */\n  iszero\n  tag_66\n  jumpi\n    /* \"#utility.yul\":3110:3118   */\n  dup2\n    /* \"#utility.yul\":3095:3118   */\n  swap1\n  pop\n    /* \"#utility.yul\":3071:3120   */\ntag_66:\n    /* \"#utility.yul\":3133:3213   */\n  tag_67\n    /* \"#utility.yul\":3189:3211   */\n  tag_68\n    /* \"#utility.yul\":3207:3210   */\n  dup6\n    /* \"#utility.yul\":3189:3211   */\n  tag_13\n  jump\t// in\ntag_68:\n    /* \"#utility.yul\":3179:3187   */\n  dup4\n    /* \"#utility.yul\":3175:3212   */\n  add\n    /* \"#utility.yul\":3162:3173   */\n  dup3\n    /* \"#utility.yul\":3133:3213   */\n  tag_23\n  jump\t// in\ntag_67:\n    /* \"#utility.yul\":2792:3223   */\n  pop\n  pop\n    /* \"#utility.yul\":2777:3223   */\ntag_63:\n    /* \"#utility.yul\":2687:3230   */\n  pop\n  pop\n  pop\n  jump\t// out\n    /* \"#utility.yul\":3236:3353   */\ntag_25:\n    /* \"#utility.yul\":3290:3298   */\n  0x00\n    /* \"#utility.yul\":3340:3345   */\n  dup3\n    /* \"#utility.yul\":3334:3338   */\n  dup3\n    /* \"#utility.yul\":3330:3346   */\n  shr\n    /* \"#utility.yul\":3309:3346   */\n  swap1\n  pop\n    /* \"#utility.yul\":3236:3353   */\n  swap3\n  swap2\n  pop\n  pop\n  jump\t// out\n    /* \"#utility.yul\":3359:3528   */\ntag_26:\n    /* \"#utility.yul\":3403:3409   */\n  0x00\n    /* \"#utility.yul\":3436:3487   */\n  tag_71\n    /* \"#utility.yul\":3484:3485   */\n  0x00\n    /* \"#utility.yul\":3480:3486   */\n  not\n    /* \"#utility.yul\":3472:3477   */\n  dup5\n    /* \"#utility.yul\":3469:3470   */\n  0x08\n    /* \"#utility.yul\":3465:3478   */\n  mul\n    /* \"#utility.yul\":3436:3487   */\n  tag_25\n  jump\t// in\ntag_71:\n    /* \"#utility.yul\":3432:3488   */\n  not\n    /* \"#utility.yul\":3517:3521   */\n  dup1\n    /* \"#utility.yul\":3511:3515   */\n  dup4\n    /* \"#utility.yul\":3507:3522   */\n  and\n    /* \"#utility.yul\":3497:3522   */\n  swap2\n  pop\n    /* \"#utility.yul\":3410:3528   */\n  pop\n    /* \"#utility.yul\":3359:3528   */\n  swap3\n  swap2\n  pop\n  pop\n  jump\t// out\n    /* \"#utility.yul\":3533:3828   */\ntag_27:\n    /* \"#utility.yul\":3609:3613   */\n  0x00\n    /* \"#utility.yul\":3755:3784   */\n  tag_73\n    /* \"#utility.yul\":3780:3783   */\n  dup4\n    /* \"#utility.yul\":3774:3778   */\n  dup4\n    /* \"#utility.yul\":3755:3784   */\n  tag_26\n  jump\t// in\ntag_73:\n    /* \"#utility.yul\":3747:3784   */\n  swap2\n  pop\n    /* \"#utility.yul\":3817:3820   */\n  dup3\n    /* \"#utility.yul\":3814:3815   */\n  0x02\n    /* \"#utility.yul\":3810:3821   */\n  mul\n    /* \"#utility.yul\":3804:3808   */\n  dup3\n    /* \"#utility.yul\":3801:3822   */\n  or\n    /* \"#utility.yul\":3793:3822   */\n  swap1\n  pop\n    /* \"#utility.yul\":3533:3828   */\n  swap3\n  swap2\n  pop\n  pop\n  jump\t// out\n    /* \"#utility.yul\":3833:5228   */\ntag_5:\n    /* \"#utility.yul\":3950:3987   */\n  tag_75\n    /* \"#utility.yul\":3983:3986   */\n  dup3\n    /* \"#utility.yul\":3950:3987   */\n  tag_8\n  jump\t// in\ntag_75:\n    /* \"#utility.yul\":4052:4070   */\n  0xffffffffffffffff\n    /* \"#utility.yul\":4044:4050   */\n  dup2\n    /* \"#utility.yul\":4041:4071   */\n  gt\n    /* \"#utility.yul\":4038:4094   */\n  iszero\n  tag_76\n  jumpi\n    /* \"#utility.yul\":4074:4092   */\n  tag_77\n  tag_9\n  jump\t// in\ntag_77:\n    /* \"#utility.yul\":4038:4094   */\ntag_76:\n    /* \"#utility.yul\":4118:4156   */\n  tag_78\n    /* \"#utility.yul\":4150:4154   */\n  dup3\n    /* \"#utility.yul\":4144:4155   */\n  sload\n    /* \"#utility.yul\":4118:4156   */\n  tag_11\n  jump\t// in\ntag_78:\n    /* \"#utility.yul\":4203:4270   */\n  tag_79\n    /* \"#utility.yul\":4263:4269   */\n  dup3\n    /* \"#utility.yul\":4255:4261   */\n  dup3\n    /* \"#utility.yul\":4249:4253   */\n  dup6\n    /* \"#utility.yul\":4203:4270   */\n  tag_24\n  jump\t// in\ntag_79:\n    /* \"#utility.yul\":4297:4298   */\n  0x00\n    /* \"#utility.yul\":4321:4325   */\n  0x20\n    /* \"#utility.yul\":4308:4325   */\n  swap1\n  pop\n    /* \"#utility.yul\":4353:4355   */\n  0x1f\n    /* \"#utility.yul\":4345:4351   */\n  dup4\n    /* \"#utility.yul\":4342:4356   */\n  gt\n    /* \"#utility.yul\":4370:4371   */\n  0x01\n    /* \"#utility.yul\":4365:4983   */\n  dup2\n  eq\n  tag_81\n  jumpi\n    /* \"#utility.yul\":5027:5028   */\n  0x00\n    /* \"#utility.yul\":5044:5050   */\n  dup5\n    /* \"#utility.yul\":5041:5118   */\n  iszero\n  tag_82\n  jumpi\n    /* \"#utility.yul\":5093:5102   */\n  dup3\n    /* \"#utility.yul\":5088:5091   */\n  dup8\n    /* \"#utility.yul\":5084:5103   */\n  add\n    /* \"#utility.yul\":5078:5104   */\n  mload\n    /* \"#utility.yul\":5069:5104   */\n  swap1\n  pop\n    /* \"#utility.yul\":5041:5118   */\ntag_82:\n    /* \"#utility.yul\":5144:5211   */\n  tag_83\n    /* \"#utility.yul\":5204:5210   */\n  dup6\n    /* \"#utility.yul\":5197:5202   */\n  dup3\n    /* \"#utility.yul\":5144:5211   */\n  tag_27\n  jump\t// in\ntag_83:\n    /* \"#utility.yul\":5138:5142   */\n  dup7\n    /* \"#utility.yul\":5131:5212   */\n  sstore\n    /* \"#utility.yul\":5000:5222   */\n  pop\n    /* \"#utility.yul\":4335:5222   */\n  jump(tag_80)\n    /* \"#utility.yul\":4365:4983   */\ntag_81:\n    /* \"#utility.yul\":4417:4421   */\n  0x1f\n    /* \"#utility.yul\":4413:4422   */\n  not\n    /* \"#utility.yul\":4405:4411   */\n  dup5\n    /* \"#utility.yul\":4401:4423   */\n  and\n    /* \"#utility.yul\":4451:4488   */\n  tag_84\n    /* \"#utility.yul\":4483:4487   */\n  dup7\n    /* \"#utility.yul\":4451:4488   */\n  tag_12\n  jump\t// in\ntag_84:\n    /* \"#utility.yul\":4510:4511   */\n  0x00\n    /* \"#utility.yul\":4524:4732   */\ntag_85:\n    /* \"#utility.yul\":4538:4545   */\n  dup3\n    /* \"#utility.yul\":4535:4536   */\n  dup2\n    /* \"#utility.yul\":4532:4546   */\n  lt\n    /* \"#utility.yul\":4524:4732   */\n  iszero\n  tag_87\n  jumpi\n    /* \"#utility.yul\":4617:4626   */\n  dup5\n    /* \"#utility.yul\":4612:4615   */\n  dup10\n    /* \"#utility.yul\":4608:4627   */\n  add\n    /* \"#utility.yul\":4602:4628   */\n  mload\n    /* \"#utility.yul\":4594:4600   */\n  dup3\n    /* \"#utility.yul\":4587:4629   */\n  sstore\n    /* \"#utility.yul\":4668:4669   */\n  0x01\n    /* \"#utility.yul\":4660:4666   */\n  dup3\n    /* \"#utility.yul\":4656:4670   */\n  add\n    /* \"#utility.yul\":4646:4670   */\n  swap2\n  pop\n    /* \"#utility.yul\":4715:4717   */\n  0x20\n    /* \"#utility.yul\":4704:4713   */\n  dup6\n    /* \"#utility.yul\":4700:4718   */\n  add\n    /* \"#utility.yul\":4687:4718   */\n  swap5\n  pop\n    /* \"#utility.yul\":4561:4565   */\n  0x20\n    /* \"#utility.yul\":4558:4559   */\n  dup2\n    /* \"#utility.yul\":4554:4566   */\n  add\n    /* \"#utility.yul\":4549:4566   */\n  swap1\n  pop\n    /* \"#utility.yul\":4524:4732   */\n  jump(tag_85)\ntag_87:\n    /* \"#utility.yul\":4760:4766   */\n  dup7\n    /* \"#utility.yul\":4751:4758   */\n  dup4\n    /* \"#utility.yul\":4748:4767   */\n  lt\n    /* \"#utility.yul\":4745:4924   */\n  iszero\n  tag_88\n  jumpi\n    /* \"#utility.yul\":4818:4827   */\n  dup5\n    /* \"#utility.yul\":4813:4816   */\n  dup10\n    /* \"#utility.yul\":4809:4828   */\n  add\n    /* \"#utility.yul\":4803:4829   */\n  mload\n    /* \"#utility.yul\":4861:4909   */\n  tag_89\n    /* \"#utility.yul\":4903:4907   */\n  0x1f\n    /* \"#utility.yul\":4895:4901   */\n  dup10\n    /* \"#utility.yul\":4891:4908   */\n  and\n    /* \"#utility.yul\":4880:4889   */\n  dup3\n    /* \"#utility.yul\":4861:4909   */\n  tag_26\n  jump\t// in\ntag_89:\n    /* \"#utility.yul\":4853:4859   */\n  dup4\n    /* \"#utility.yul\":4846:4910   */\n  sstore\n    /* \"#utility.yul\":4768:4924   */\n  pop\n    /* \"#utility.yul\":4745:4924   */\ntag_88:\n    /* \"#utility.yul\":4970:4971   */\n  0x01\n    /* \"#utility.yul\":4966:4967   */\n  0x02\n    /* \"#utility.yul\":4958:4964   */\n  dup9\n    /* \"#utility.yul\":4954:4968   */\n  mul\n    /* \"#utility.yul\":4950:4972   */\n  add\n    /* \"#utility.yul\":4944:4948   */\n  dup9\n    /* \"#utility.yul\":4937:4973   */\n  sstore\n    /* \"#utility.yul\":4372:4983   */\n  pop\n  pop\n  pop\n    /* \"#utility.yul\":4335:5222   */\ntag_80:\n  pop\n    /* \"#utility.yul\":3925:5228   */\n  pop\n  pop\n  pop\n    /* \"#utility.yul\":3833:5228   */\n  pop\n  pop\n  jump\t// out\n    /* \"contracts/_BilboydLeasing.sol\":57:13927  contract CarLeasingNFT {... */\ntag_7:\n  dataSize(sub_0)\n  dup1\n  dataOffset(sub_0)\n  0x00\n  codecopy\n  0x00\n  return\nstop\n\nsub_0: assembly {\n        /* \"contracts/_BilboydLeasing.sol\":57:13927  contract CarLeasingNFT {... */\n      mstore(0x40, 0x80)\n      jumpi(tag_1, lt(calldatasize, 0x04))\n      shr(0xe0, calldataload(0x00))\n      dup1\n      0x6352211e\n      gt\n      tag_22\n      jumpi\n      dup1\n      0xaec2ab35\n      gt\n      tag_23\n      jumpi\n      dup1\n      0xaec2ab35\n      eq\n      tag_17\n      jumpi\n      dup1\n      0xb13bfc4a\n      eq\n      tag_18\n      jumpi\n      dup1\n      0xb3a0b2f2\n      eq\n      tag_19\n      jumpi\n      dup1\n      0xc9831541\n      eq\n      tag_20\n      jumpi\n      dup1\n      0xe985e9c5\n      eq\n      tag_21\n      jumpi\n      jump(tag_1)\n    tag_23:\n      dup1\n      0x6352211e\n      eq\n      tag_12\n      jumpi\n      dup1\n      0x70a08231\n      eq\n      tag_13\n      jumpi\n      dup1\n      0x8f80775d\n      eq\n      tag_14\n      jumpi\n      dup1\n      0x95d89b41\n      eq\n      tag_15\n      jumpi\n      dup1\n      0xa22cb465\n      eq\n      tag_16\n      jumpi\n      jump(tag_1)\n    tag_22:\n      dup1\n      0x472ec454\n      gt\n      tag_24\n      jumpi\n      dup1\n      0x472ec454\n      eq\n      tag_7\n      jumpi\n      dup1\n      0x4f558e79\n      eq\n      tag_8\n      jumpi\n      dup1\n      0x563ca058\n      eq\n      tag_9\n      jumpi\n      dup1\n      0x5c9f0322\n      eq\n      tag_10\n      jumpi\n      dup1\n      0x5cf6ab31\n      eq\n      tag_11\n      jumpi\n      jump(tag_1)\n    tag_24:\n      dup1\n      0x06fdde03\n      eq\n      tag_2\n      jumpi\n      dup1\n      0x081812fc\n      eq\n      tag_3\n      jumpi\n      dup1\n      0x095ea7b3\n      eq\n      tag_4\n      jumpi\n      dup1\n      0x23b872dd\n      eq\n      tag_5\n      jumpi\n      dup1\n      0x2e8331fa\n      eq\n      tag_6\n      jumpi\n    tag_1:\n      0x00\n      dup1\n      revert\n        /* \"contracts/_BilboydLeasing.sol\":2525:2606  function name() public view returns (string memory) {... */\n    tag_2:\n      callvalue\n      dup1\n      iszero\n      tag_25\n      jumpi\n      0x00\n      dup1\n      revert\n    tag_25:\n      pop\n      tag_26\n      tag_27\n      jump\t// in\n    tag_26:\n      mload(0x40)\n      tag_28\n      swap2\n      swap1\n      tag_29\n      jump\t// in\n    tag_28:\n      mload(0x40)\n      dup1\n      swap2\n      sub\n      swap1\n      return\n        /* \"contracts/_BilboydLeasing.sol\":3833:4011  function getApproved(uint256 tokenId) public view returns (address) {... */\n    tag_3:\n      callvalue\n      dup1\n      iszero\n      tag_30\n      jumpi\n      0x00\n      dup1\n      revert\n    tag_30:\n      pop\n      tag_31\n      0x04\n      dup1\n      calldatasize\n      sub\n      dup2\n      add\n      swap1\n      tag_32\n      swap2\n      swap1\n      tag_33\n      jump\t// in\n    tag_32:\n      tag_34\n      jump\t// in\n    tag_31:\n      mload(0x40)\n      tag_35\n      swap2\n      swap1\n      tag_36\n      jump\t// in\n    tag_35:\n      mload(0x40)\n      dup1\n      swap2\n      sub\n      swap1\n      return\n        /* \"contracts/_BilboydLeasing.sol\":3332:3768  function approve(address to, uint256 tokenId) public {... */\n    tag_4:\n      callvalue\n      dup1\n      iszero\n      tag_37\n      jumpi\n      0x00\n      dup1\n      revert\n    tag_37:\n      pop\n      tag_38\n      0x04\n      dup1\n      calldatasize\n      sub\n      dup2\n      add\n      swap1\n      tag_39\n      swap2\n      swap1\n      tag_40\n      jump\t// in\n    tag_39:\n      tag_41\n      jump\t// in\n    tag_38:\n      stop\n        /* \"contracts/_BilboydLeasing.sol\":4697:4939  function transferFrom(... */\n    tag_5:\n      callvalue\n      dup1\n      iszero\n      tag_42\n      jumpi\n      0x00\n      dup1\n      revert\n    tag_42:\n      pop\n      tag_43\n      0x04\n      dup1\n      calldatasize\n      sub\n      dup2\n      add\n      swap1\n      tag_44\n      swap2\n      swap1\n      tag_45\n      jump\t// in\n    tag_44:\n      tag_46\n      jump\t// in\n    tag_43:\n      stop\n        /* \"contracts/_BilboydLeasing.sol\":13223:13419  function getLeaseDetails(uint256 tokenId) public view returns (LeaseAgreement memory) {... */\n    tag_6:\n      callvalue\n      dup1\n      iszero\n      tag_47\n      jumpi\n      0x00\n      dup1\n      revert\n    tag_47:\n      pop\n      tag_48\n      0x04\n      dup1\n      calldatasize\n      sub\n      dup2\n      add\n      swap1\n      tag_49\n      swap2\n      swap1\n      tag_33\n      jump\t// in\n    tag_49:\n      tag_50\n      jump\t// in\n    tag_48:\n      mload(0x40)\n      tag_51\n      swap2\n      swap1\n      tag_52\n      jump\t// in\n    tag_51:\n      mload(0x40)\n      dup1\n      swap2\n      sub\n      swap1\n      return\n        /* \"contracts/_BilboydLeasing.sol\":12999:13177  function getCarDetails(uint256 tokenId) public view returns (Car memory) {... */\n    tag_7:\n      callvalue\n      dup1\n      iszero\n      tag_53\n      jumpi\n      0x00\n      dup1\n      revert\n    tag_53:\n      pop\n      tag_54\n      0x04\n      dup1\n      calldatasize\n      sub\n      dup2\n      add\n      swap1\n      tag_55\n      swap2\n      swap1\n      tag_33\n      jump\t// in\n    tag_55:\n      tag_56\n      jump\t// in\n    tag_54:\n      mload(0x40)\n      tag_57\n      swap2\n      swap1\n      tag_58\n      jump\t// in\n    tag_57:\n      mload(0x40)\n      dup1\n      swap2\n      sub\n      swap1\n      return\n        /* \"contracts/_BilboydLeasing.sol\":2367:2481  function exists(uint256 tokenId) public view returns (bool) {... */\n    tag_8:\n      callvalue\n      dup1\n      iszero\n      tag_59\n      jumpi\n      0x00\n      dup1\n      revert\n    tag_59:\n      pop\n      tag_60\n      0x04\n      dup1\n      calldatasize\n      sub\n      dup2\n      add\n      swap1\n      tag_61\n      swap2\n      swap1\n      tag_33\n      jump\t// in\n    tag_61:\n      tag_62\n      jump\t// in\n    tag_60:\n      mload(0x40)\n      tag_63\n      swap2\n      swap1\n      tag_64\n      jump\t// in\n    tag_63:\n      mload(0x40)\n      dup1\n      swap2\n      sub\n      swap1\n      return\n        /* \"contracts/_BilboydLeasing.sol\":7007:8825  function proposeLease(... */\n    tag_9:\n      tag_65\n      0x04\n      dup1\n      calldatasize\n      sub\n      dup2\n      add\n      swap1\n      tag_66\n      swap2\n      swap1\n      tag_67\n      jump\t// in\n    tag_66:\n      tag_68\n      jump\t// in\n    tag_65:\n      stop\n        /* \"contracts/_BilboydLeasing.sol\":11816:12318  function repossessCar(uint256 tokenId) public onlyOwner {... */\n    tag_10:\n      callvalue\n      dup1\n      iszero\n      tag_69\n      jumpi\n      0x00\n      dup1\n      revert\n    tag_69:\n      pop\n      tag_70\n      0x04\n      dup1\n      calldatasize\n      sub\n      dup2\n      add\n      swap1\n      tag_71\n      swap2\n      swap1\n      tag_33\n      jump\t// in\n    tag_71:\n      tag_72\n      jump\t// in\n    tag_70:\n      stop\n        /* \"contracts/_BilboydLeasing.sol\":6179:6919  function mintCar(... */\n    tag_11:\n      callvalue\n      dup1\n      iszero\n      tag_73\n      jumpi\n      0x00\n      dup1\n      revert\n    tag_73:\n      pop\n      tag_74\n      0x04\n      dup1\n      calldatasize\n      sub\n      dup2\n      add\n      swap1\n      tag_75\n      swap2\n      swap1\n      tag_76\n      jump\t// in\n    tag_75:\n      tag_77\n      jump\t// in\n    tag_74:\n      mload(0x40)\n      tag_78\n      swap2\n      swap1\n      tag_79\n      jump\t// in\n    tag_78:\n      mload(0x40)\n      dup1\n      swap2\n      sub\n      swap1\n      return\n        /* \"contracts/_BilboydLeasing.sol\":3031:3252  function ownerOf(uint256 tokenId) public view returns (address) {... */\n    tag_12:\n      callvalue\n      dup1\n      iszero\n      tag_80\n      jumpi\n      0x00\n      dup1\n      revert\n    tag_80:\n      pop\n      tag_81\n      0x04\n      dup1\n      calldatasize\n      sub\n      dup2\n      add\n      swap1\n      tag_82\n      swap2\n      swap1\n      tag_33\n      jump\t// in\n    tag_82:\n      tag_83\n      jump\t// in\n    tag_81:\n      mload(0x40)\n      tag_84\n      swap2\n      swap1\n      tag_36\n      jump\t// in\n    tag_84:\n      mload(0x40)\n      dup1\n      swap2\n      sub\n      swap1\n      return\n        /* \"contracts/_BilboydLeasing.sol\":2796:2978  function balanceOf(address ownerAddress) public view returns (uint256) {... */\n    tag_13:\n      callvalue\n      dup1\n      iszero\n      tag_85\n      jumpi\n      0x00\n      dup1\n      revert\n    tag_85:\n      pop\n      tag_86\n      0x04\n      dup1\n      calldatasize\n      sub\n      dup2\n      add\n      swap1\n      tag_87\n      swap2\n      swap1\n      tag_88\n      jump\t// in\n    tag_87:\n      tag_89\n      jump\t// in\n    tag_86:\n      mload(0x40)\n      tag_90\n      swap2\n      swap1\n      tag_79\n      jump\t// in\n    tag_90:\n      mload(0x40)\n      dup1\n      swap2\n      sub\n      swap1\n      return\n        /* \"contracts/_BilboydLeasing.sol\":9849:10996  function computeMonthlyQuotaForProposal(... */\n    tag_14:\n      callvalue\n      dup1\n      iszero\n      tag_91\n      jumpi\n      0x00\n      dup1\n      revert\n    tag_91:\n      pop\n      tag_92\n      0x04\n      dup1\n      calldatasize\n      sub\n      dup2\n      add\n      swap1\n      tag_93\n      swap2\n      swap1\n      tag_67\n      jump\t// in\n    tag_93:\n      tag_94\n      jump\t// in\n    tag_92:\n      mload(0x40)\n      tag_95\n      swap2\n      swap1\n      tag_79\n      jump\t// in\n    tag_95:\n      mload(0x40)\n      dup1\n      swap2\n      sub\n      swap1\n      return\n        /* \"contracts/_BilboydLeasing.sol\":2652:2737  function symbol() public view returns (string memory) {... */\n    tag_15:\n      callvalue\n      dup1\n      iszero\n      tag_96\n      jumpi\n      0x00\n      dup1\n      revert\n    tag_96:\n      pop\n      tag_97\n      tag_98\n      jump\t// in\n    tag_97:\n      mload(0x40)\n      tag_99\n      swap2\n      swap1\n      tag_29\n      jump\t// in\n    tag_99:\n      mload(0x40)\n      dup1\n      swap2\n      sub\n      swap1\n      return\n        /* \"contracts/_BilboydLeasing.sol\":4109:4376  function setApprovalForAll(address operator, bool approved) public {... */\n    tag_16:\n      callvalue\n      dup1\n      iszero\n      tag_100\n      jumpi\n      0x00\n      dup1\n      revert\n    tag_100:\n      pop\n      tag_101\n      0x04\n      dup1\n      calldatasize\n      sub\n      dup2\n      add\n      swap1\n      tag_102\n      swap2\n      swap1\n      tag_103\n      jump\t// in\n    tag_102:\n      tag_104\n      jump\t// in\n    tag_101:\n      stop\n        /* \"contracts/_BilboydLeasing.sol\":8918:9789  function confirmLease(uint256 tokenId) public onlyOwner {... */\n    tag_17:\n      callvalue\n      dup1\n      iszero\n      tag_105\n      jumpi\n      0x00\n      dup1\n      revert\n    tag_105:\n      pop\n      tag_106\n      0x04\n      dup1\n      calldatasize\n      sub\n      dup2\n      add\n      swap1\n      tag_107\n      swap2\n      swap1\n      tag_33\n      jump\t// in\n    tag_107:\n      tag_108\n      jump\t// in\n    tag_106:\n      stop\n        /* \"contracts/_BilboydLeasing.sol\":12417:12965  function cancelLeaseProposal(uint256 tokenId) public {... */\n    tag_18:\n      callvalue\n      dup1\n      iszero\n      tag_109\n      jumpi\n      0x00\n      dup1\n      revert\n    tag_109:\n      pop\n      tag_110\n      0x04\n      dup1\n      calldatasize\n      sub\n      dup2\n      add\n      swap1\n      tag_111\n      swap2\n      swap1\n      tag_33\n      jump\t// in\n    tag_111:\n      tag_112\n      jump\t// in\n    tag_110:\n      stop\n        /* \"contracts/_BilboydLeasing.sol\":11040:11749  function makeMonthlyPayment(uint256 tokenId) public payable {... */\n    tag_19:\n      tag_113\n      0x04\n      dup1\n      calldatasize\n      sub\n      dup2\n      add\n      swap1\n      tag_114\n      swap2\n      swap1\n      tag_33\n      jump\t// in\n    tag_114:\n      tag_115\n      jump\t// in\n    tag_113:\n      stop\n        /* \"contracts/_BilboydLeasing.sol\":13461:13925  function updateMileage(uint256 tokenId, uint256 newMileage) public {... */\n    tag_20:\n      callvalue\n      dup1\n      iszero\n      tag_116\n      jumpi\n      0x00\n      dup1\n      revert\n    tag_116:\n      pop\n      tag_117\n      0x04\n      dup1\n      calldatasize\n      sub\n      dup2\n      add\n      swap1\n      tag_118\n      swap2\n      swap1\n      tag_119\n      jump\t// in\n    tag_118:\n      tag_120\n      jump\t// in\n    tag_117:\n      stop\n        /* \"contracts/_BilboydLeasing.sol\":4461:4620  function isApprovedForAll(address ownerAddress, address operator) public view returns (bool) {... */\n    tag_21:\n      callvalue\n      dup1\n      iszero\n      tag_121\n      jumpi\n      0x00\n      dup1\n      revert\n    tag_121:\n      pop\n      tag_122\n      0x04\n      dup1\n      calldatasize\n      sub\n      dup2\n      add\n      swap1\n      tag_123\n      swap2\n      swap1\n      tag_124\n      jump\t// in\n    tag_123:\n      tag_125\n      jump\t// in\n    tag_122:\n      mload(0x40)\n      tag_126\n      swap2\n      swap1\n      tag_64\n      jump\t// in\n    tag_126:\n      mload(0x40)\n      dup1\n      swap2\n      sub\n      swap1\n      return\n        /* \"contracts/_BilboydLeasing.sol\":2525:2606  function name() public view returns (string memory) {... */\n    tag_27:\n        /* \"contracts/_BilboydLeasing.sol\":2562:2575  string memory */\n      0x60\n        /* \"contracts/_BilboydLeasing.sol\":2594:2599  _name */\n      0x04\n        /* \"contracts/_BilboydLeasing.sol\":2587:2599  return _name */\n      dup1\n      sload\n      tag_128\n      swap1\n      tag_129\n      jump\t// in\n    tag_128:\n      dup1\n      0x1f\n      add\n      0x20\n      dup1\n      swap2\n      div\n      mul\n      0x20\n      add\n      mload(0x40)\n      swap1\n      dup2\n      add\n      0x40\n      mstore\n      dup1\n      swap3\n      swap2\n      swap1\n      dup2\n      dup2\n      mstore\n      0x20\n      add\n      dup3\n      dup1\n      sload\n      tag_130\n      swap1\n      tag_129\n      jump\t// in\n    tag_130:\n      dup1\n      iszero\n      tag_131\n      jumpi\n      dup1\n      0x1f\n      lt\n      tag_132\n      jumpi\n      0x0100\n      dup1\n      dup4\n      sload\n      div\n      mul\n      dup4\n      mstore\n      swap2\n      0x20\n      add\n      swap2\n      jump(tag_131)\n    tag_132:\n      dup3\n      add\n      swap2\n      swap1\n      0x00\n      mstore\n      keccak256(0x00, 0x20)\n      swap1\n    tag_133:\n      dup2\n      sload\n      dup2\n      mstore\n      swap1\n      0x01\n      add\n      swap1\n      0x20\n      add\n      dup1\n      dup4\n      gt\n      tag_133\n      jumpi\n      dup3\n      swap1\n      sub\n      0x1f\n      and\n      dup3\n      add\n      swap2\n    tag_131:\n      pop\n      pop\n      pop\n      pop\n      pop\n      swap1\n      pop\n        /* \"contracts/_BilboydLeasing.sol\":2525:2606  function name() public view returns (string memory) {... */\n      swap1\n      jump\t// out\n        /* \"contracts/_BilboydLeasing.sol\":3833:4011  function getApproved(uint256 tokenId) public view returns (address) {... */\n    tag_34:\n        /* \"contracts/_BilboydLeasing.sol\":3892:3899  address */\n      0x00\n        /* \"contracts/_BilboydLeasing.sol\":3919:3934  exists(tokenId) */\n      tag_135\n        /* \"contracts/_BilboydLeasing.sol\":3926:3933  tokenId */\n      dup3\n        /* \"contracts/_BilboydLeasing.sol\":3919:3925  exists */\n      tag_62\n        /* \"contracts/_BilboydLeasing.sol\":3919:3934  exists(tokenId) */\n      jump\t// in\n    tag_135:\n        /* \"contracts/_BilboydLeasing.sol\":3911:3962  require(exists(tokenId), \"Token ID does not exist\") */\n      tag_136\n      jumpi\n      mload(0x40)\n      0x08c379a000000000000000000000000000000000000000000000000000000000\n      dup2\n      mstore\n      0x04\n      add\n      tag_137\n      swap1\n      tag_138\n      jump\t// in\n    tag_137:\n      mload(0x40)\n      dup1\n      swap2\n      sub\n      swap1\n      revert\n    tag_136:\n        /* \"contracts/_BilboydLeasing.sol\":3980:3995  _tokenApprovals */\n      0x02\n        /* \"contracts/_BilboydLeasing.sol\":3980:4004  _tokenApprovals[tokenId] */\n      0x00\n        /* \"contracts/_BilboydLeasing.sol\":3996:4003  tokenId */\n      dup4\n        /* \"contracts/_BilboydLeasing.sol\":3980:4004  _tokenApprovals[tokenId] */\n      dup2\n      mstore\n      0x20\n      add\n      swap1\n      dup2\n      mstore\n      0x20\n      add\n      0x00\n      keccak256\n      0x00\n      swap1\n      sload\n      swap1\n      0x0100\n      exp\n      swap1\n      div\n      0xffffffffffffffffffffffffffffffffffffffff\n      and\n        /* \"contracts/_BilboydLeasing.sol\":3973:4004  return _tokenApprovals[tokenId] */\n      swap1\n      pop\n        /* \"contracts/_BilboydLeasing.sol\":3833:4011  function getApproved(uint256 tokenId) public view returns (address) {... */\n      swap2\n      swap1\n      pop\n      jump\t// out\n        /* \"contracts/_BilboydLeasing.sol\":3332:3768  function approve(address to, uint256 tokenId) public {... */\n    tag_41:\n        /* \"contracts/_BilboydLeasing.sol\":3395:3415  address ownerAddress */\n      0x00\n        /* \"contracts/_BilboydLeasing.sol\":3418:3434  ownerOf(tokenId) */\n      tag_140\n        /* \"contracts/_BilboydLeasing.sol\":3426:3433  tokenId */\n      dup3\n        /* \"contracts/_BilboydLeasing.sol\":3418:3425  ownerOf */\n      tag_83\n        /* \"contracts/_BilboydLeasing.sol\":3418:3434  ownerOf(tokenId) */\n      jump\t// in\n    tag_140:\n        /* \"contracts/_BilboydLeasing.sol\":3395:3434  address ownerAddress = ownerOf(tokenId) */\n      swap1\n      pop\n        /* \"contracts/_BilboydLeasing.sol\":3458:3470  ownerAddress */\n      dup1\n        /* \"contracts/_BilboydLeasing.sol\":3452:3470  to != ownerAddress */\n      0xffffffffffffffffffffffffffffffffffffffff\n      and\n        /* \"contracts/_BilboydLeasing.sol\":3452:3454  to */\n      dup4\n        /* \"contracts/_BilboydLeasing.sol\":3452:3470  to != ownerAddress */\n      0xffffffffffffffffffffffffffffffffffffffff\n      and\n      sub\n        /* \"contracts/_BilboydLeasing.sol\":3444:3500  require(to != ownerAddress, \"Approval to current owner\") */\n      tag_141\n      jumpi\n      mload(0x40)\n      0x08c379a000000000000000000000000000000000000000000000000000000000\n      dup2\n      mstore\n      0x04\n      add\n      tag_142\n      swap1\n      tag_143\n      jump\t// in\n    tag_142:\n      mload(0x40)\n      dup1\n      swap2\n      sub\n      swap1\n      revert\n    tag_141:\n        /* \"contracts/_BilboydLeasing.sol\":3546:3558  ownerAddress */\n      dup1\n        /* \"contracts/_BilboydLeasing.sol\":3532:3558  msg.sender == ownerAddress */\n      0xffffffffffffffffffffffffffffffffffffffff\n      and\n        /* \"contracts/_BilboydLeasing.sol\":3532:3542  msg.sender */\n      caller\n        /* \"contracts/_BilboydLeasing.sol\":3532:3558  msg.sender == ownerAddress */\n      0xffffffffffffffffffffffffffffffffffffffff\n      and\n      eq\n        /* \"contracts/_BilboydLeasing.sol\":3532:3604  msg.sender == ownerAddress || isApprovedForAll(ownerAddress, msg.sender) */\n      dup1\n      tag_144\n      jumpi\n      pop\n        /* \"contracts/_BilboydLeasing.sol\":3562:3604  isApprovedForAll(ownerAddress, msg.sender) */\n      tag_145\n        /* \"contracts/_BilboydLeasing.sol\":3579:3591  ownerAddress */\n      dup2\n        /* \"contracts/_BilboydLeasing.sol\":3593:3603  msg.sender */\n      caller\n        /* \"contracts/_BilboydLeasing.sol\":3562:3578  isApprovedForAll */\n      tag_125\n        /* \"contracts/_BilboydLeasing.sol\":3562:3604  isApprovedForAll(ownerAddress, msg.sender) */\n      jump\t// in\n    tag_145:\n        /* \"contracts/_BilboydLeasing.sol\":3532:3604  msg.sender == ownerAddress || isApprovedForAll(ownerAddress, msg.sender) */\n    tag_144:\n        /* \"contracts/_BilboydLeasing.sol\":3511:3670  require(... */\n      tag_146\n      jumpi\n      mload(0x40)\n      0x08c379a000000000000000000000000000000000000000000000000000000000\n      dup2\n      mstore\n      0x04\n      add\n      tag_147\n      swap1\n      tag_148\n      jump\t// in\n    tag_147:\n      mload(0x40)\n      dup1\n      swap2\n      sub\n      swap1\n      revert\n    tag_146:\n        /* \"contracts/_BilboydLeasing.sol\":3708:3710  to */\n      dup3\n        /* \"contracts/_BilboydLeasing.sol\":3681:3696  _tokenApprovals */\n      0x02\n        /* \"contracts/_BilboydLeasing.sol\":3681:3705  _tokenApprovals[tokenId] */\n      0x00\n        /* \"contracts/_BilboydLeasing.sol\":3697:3704  tokenId */\n      dup5\n        /* \"contracts/_BilboydLeasing.sol\":3681:3705  _tokenApprovals[tokenId] */\n      dup2\n      mstore\n      0x20\n      add\n      swap1\n      dup2\n      mstore\n      0x20\n      add\n      0x00\n      keccak256\n      0x00\n        /* \"contracts/_BilboydLeasing.sol\":3681:3710  _tokenApprovals[tokenId] = to */\n      0x0100\n      exp\n      dup2\n      sload\n      dup2\n      0xffffffffffffffffffffffffffffffffffffffff\n      mul\n      not\n      and\n      swap1\n      dup4\n      0xffffffffffffffffffffffffffffffffffffffff\n      and\n      mul\n      or\n      swap1\n      sstore\n      pop\n        /* \"contracts/_BilboydLeasing.sol\":3753:3760  tokenId */\n      dup2\n        /* \"contracts/_BilboydLeasing.sol\":3749:3751  to */\n      dup4\n        /* \"contracts/_BilboydLeasing.sol\":3726:3761  Approval(ownerAddress, to, tokenId) */\n      0xffffffffffffffffffffffffffffffffffffffff\n      and\n        /* \"contracts/_BilboydLeasing.sol\":3735:3747  ownerAddress */\n      dup3\n        /* \"contracts/_BilboydLeasing.sol\":3726:3761  Approval(ownerAddress, to, tokenId) */\n      0xffffffffffffffffffffffffffffffffffffffff\n      and\n      0x8c5be1e5ebec7d5bd14f71427d1e84f3dd0314c0f7b2291e5b200ac8c7c3b925\n      mload(0x40)\n      mload(0x40)\n      dup1\n      swap2\n      sub\n      swap1\n      log4\n        /* \"contracts/_BilboydLeasing.sol\":3385:3768  {... */\n      pop\n        /* \"contracts/_BilboydLeasing.sol\":3332:3768  function approve(address to, uint256 tokenId) public {... */\n      pop\n      pop\n      jump\t// out\n        /* \"contracts/_BilboydLeasing.sol\":4697:4939  function transferFrom(... */\n    tag_46:\n        /* \"contracts/_BilboydLeasing.sol\":4817:4856  _isApprovedOrOwner(msg.sender, tokenId) */\n      tag_150\n        /* \"contracts/_BilboydLeasing.sol\":4836:4846  msg.sender */\n      caller\n        /* \"contracts/_BilboydLeasing.sol\":4848:4855  tokenId */\n      dup3\n        /* \"contracts/_BilboydLeasing.sol\":4817:4835  _isApprovedOrOwner */\n      tag_151\n        /* \"contracts/_BilboydLeasing.sol\":4817:4856  _isApprovedOrOwner(msg.sender, tokenId) */\n      jump\t// in\n    tag_150:\n        /* \"contracts/_BilboydLeasing.sol\":4809:4893  require(_isApprovedOrOwner(msg.sender, tokenId), \"Caller is not owner nor approved\") */\n      tag_152\n      jumpi\n      mload(0x40)\n      0x08c379a000000000000000000000000000000000000000000000000000000000\n      dup2\n      mstore\n      0x04\n      add\n      tag_153\n      swap1\n      tag_154\n      jump\t// in\n    tag_153:\n      mload(0x40)\n      dup1\n      swap2\n      sub\n      swap1\n      revert\n    tag_152:\n        /* \"contracts/_BilboydLeasing.sol\":4904:4932  _transfer(from, to, tokenId) */\n      tag_155\n        /* \"contracts/_BilboydLeasing.sol\":4914:4918  from */\n      dup4\n        /* \"contracts/_BilboydLeasing.sol\":4920:4922  to */\n      dup4\n        /* \"contracts/_BilboydLeasing.sol\":4924:4931  tokenId */\n      dup4\n        /* \"contracts/_BilboydLeasing.sol\":4904:4913  _transfer */\n      tag_156\n        /* \"contracts/_BilboydLeasing.sol\":4904:4932  _transfer(from, to, tokenId) */\n      jump\t// in\n    tag_155:\n        /* \"contracts/_BilboydLeasing.sol\":4697:4939  function transferFrom(... */\n      pop\n      pop\n      pop\n      jump\t// out\n        /* \"contracts/_BilboydLeasing.sol\":13223:13419  function getLeaseDetails(uint256 tokenId) public view returns (LeaseAgreement memory) {... */\n    tag_50:\n        /* \"contracts/_BilboydLeasing.sol\":13286:13307  LeaseAgreement memory */\n      tag_157\n      tag_158\n      jump\t// in\n    tag_157:\n        /* \"contracts/_BilboydLeasing.sol\":13327:13342  exists(tokenId) */\n      tag_160\n        /* \"contracts/_BilboydLeasing.sol\":13334:13341  tokenId */\n      dup3\n        /* \"contracts/_BilboydLeasing.sol\":13327:13333  exists */\n      tag_62\n        /* \"contracts/_BilboydLeasing.sol\":13327:13342  exists(tokenId) */\n      jump\t// in\n    tag_160:\n        /* \"contracts/_BilboydLeasing.sol\":13319:13370  require(exists(tokenId), \"Token ID does not exist\") */\n      tag_161\n      jumpi\n      mload(0x40)\n      0x08c379a000000000000000000000000000000000000000000000000000000000\n      dup2\n      mstore\n      0x04\n      add\n      tag_162\n      swap1\n      tag_138\n      jump\t// in\n    tag_162:\n      mload(0x40)\n      dup1\n      swap2\n      sub\n      swap1\n      revert\n    tag_161:\n        /* \"contracts/_BilboydLeasing.sol\":13387:13403  _leaseAgreements */\n      0x08\n        /* \"contracts/_BilboydLeasing.sol\":13387:13412  _leaseAgreements[tokenId] */\n      0x00\n        /* \"contracts/_BilboydLeasing.sol\":13404:13411  tokenId */\n      dup4\n        /* \"contracts/_BilboydLeasing.sol\":13387:13412  _leaseAgreements[tokenId] */\n      dup2\n      mstore\n      0x20\n      add\n      swap1\n      dup2\n      mstore\n      0x20\n      add\n      0x00\n      keccak256\n        /* \"contracts/_BilboydLeasing.sol\":13380:13412  return _leaseAgreements[tokenId] */\n      mload(0x40)\n      dup1\n      0x0140\n      add\n      0x40\n      mstore\n      swap1\n      dup2\n      0x00\n      dup3\n      add\n      sload\n      dup2\n      mstore\n      0x20\n      add\n      0x01\n      dup3\n      add\n      0x00\n      swap1\n      sload\n      swap1\n      0x0100\n      exp\n      swap1\n      div\n      0xffffffffffffffffffffffffffffffffffffffff\n      and\n      0xffffffffffffffffffffffffffffffffffffffff\n      and\n      0xffffffffffffffffffffffffffffffffffffffff\n      and\n      dup2\n      mstore\n      0x20\n      add\n      0x02\n      dup3\n      add\n      sload\n      dup2\n      mstore\n      0x20\n      add\n      0x03\n      dup3\n      add\n      sload\n      dup2\n      mstore\n      0x20\n      add\n      0x04\n      dup3\n      add\n      sload\n      dup2\n      mstore\n      0x20\n      add\n      0x05\n      dup3\n      add\n      0x00\n      swap1\n      sload\n      swap1\n      0x0100\n      exp\n      swap1\n      div\n      0xff\n      and\n      iszero\n      iszero\n      iszero\n      iszero\n      dup2\n      mstore\n      0x20\n      add\n      0x06\n      dup3\n      add\n      sload\n      dup2\n      mstore\n      0x20\n      add\n      0x07\n      dup3\n      add\n      sload\n      dup2\n      mstore\n      0x20\n      add\n      0x08\n      dup3\n      add\n      sload\n      dup2\n      mstore\n      0x20\n      add\n      0x09\n      dup3\n      add\n      sload\n      dup2\n      mstore\n      pop\n      pop\n      swap1\n      pop\n        /* \"contracts/_BilboydLeasing.sol\":13223:13419  function getLeaseDetails(uint256 tokenId) public view returns (LeaseAgreement memory) {... */\n      swap2\n      swap1\n      pop\n      jump\t// out\n        /* \"contracts/_BilboydLeasing.sol\":12999:13177  function getCarDetails(uint256 tokenId) public view returns (Car memory) {... */\n    tag_56:\n        /* \"contracts/_BilboydLeasing.sol\":13060:13070  Car memory */\n      tag_163\n      tag_164\n      jump\t// in\n    tag_163:\n        /* \"contracts/_BilboydLeasing.sol\":13090:13105  exists(tokenId) */\n      tag_166\n        /* \"contracts/_BilboydLeasing.sol\":13097:13104  tokenId */\n      dup3\n        /* \"contracts/_BilboydLeasing.sol\":13090:13096  exists */\n      tag_62\n        /* \"contracts/_BilboydLeasing.sol\":13090:13105  exists(tokenId) */\n      jump\t// in\n    tag_166:\n        /* \"contracts/_BilboydLeasing.sol\":13082:13133  require(exists(tokenId), \"Token ID does not exist\") */\n      tag_167\n      jumpi\n      mload(0x40)\n      0x08c379a000000000000000000000000000000000000000000000000000000000\n      dup2\n      mstore\n      0x04\n      add\n      tag_168\n      swap1\n      tag_138\n      jump\t// in\n    tag_168:\n      mload(0x40)\n      dup1\n      swap2\n      sub\n      swap1\n      revert\n    tag_167:\n        /* \"contracts/_BilboydLeasing.sol\":13150:13161  _carDetails */\n      0x07\n        /* \"contracts/_BilboydLeasing.sol\":13150:13170  _carDetails[tokenId] */\n      0x00\n        /* \"contracts/_BilboydLeasing.sol\":13162:13169  tokenId */\n      dup4\n        /* \"contracts/_BilboydLeasing.sol\":13150:13170  _carDetails[tokenId] */\n      dup2\n      mstore\n      0x20\n      add\n      swap1\n      dup2\n      mstore\n      0x20\n      add\n      0x00\n      keccak256\n        /* \"contracts/_BilboydLeasing.sol\":13143:13170  return _carDetails[tokenId] */\n      mload(0x40)\n      dup1\n      0xa0\n      add\n      0x40\n      mstore\n      swap1\n      dup2\n      0x00\n      dup3\n      add\n      dup1\n      sload\n      tag_169\n      swap1\n      tag_129\n      jump\t// in\n    tag_169:\n      dup1\n      0x1f\n      add\n      0x20\n      dup1\n      swap2\n      div\n      mul\n      0x20\n      add\n      mload(0x40)\n      swap1\n      dup2\n      add\n      0x40\n      mstore\n      dup1\n      swap3\n      swap2\n      swap1\n      dup2\n      dup2\n      mstore\n      0x20\n      add\n      dup3\n      dup1\n      sload\n      tag_170\n      swap1\n      tag_129\n      jump\t// in\n    tag_170:\n      dup1\n      iszero\n      tag_171\n      jumpi\n      dup1\n      0x1f\n      lt\n      tag_172\n      jumpi\n      0x0100\n      dup1\n      dup4\n      sload\n      div\n      mul\n      dup4\n      mstore\n      swap2\n      0x20\n      add\n      swap2\n      jump(tag_171)\n    tag_172:\n      dup3\n      add\n      swap2\n      swap1\n      0x00\n      mstore\n      keccak256(0x00, 0x20)\n      swap1\n    tag_173:\n      dup2\n      sload\n      dup2\n      mstore\n      swap1\n      0x01\n      add\n      swap1\n      0x20\n      add\n      dup1\n      dup4\n      gt\n      tag_173\n      jumpi\n      dup3\n      swap1\n      sub\n      0x1f\n      and\n      dup3\n      add\n      swap2\n    tag_171:\n      pop\n      pop\n      pop\n      pop\n      pop\n      dup2\n      mstore\n      0x20\n      add\n      0x01\n      dup3\n      add\n      dup1\n      sload\n      tag_174\n      swap1\n      tag_129\n      jump\t// in\n    tag_174:\n      dup1\n      0x1f\n      add\n      0x20\n      dup1\n      swap2\n      div\n      mul\n      0x20\n      add\n      mload(0x40)\n      swap1\n      dup2\n      add\n      0x40\n      mstore\n      dup1\n      swap3\n      swap2\n      swap1\n      dup2\n      dup2\n      mstore\n      0x20\n      add\n      dup3\n      dup1\n      sload\n      tag_175\n      swap1\n      tag_129\n      jump\t// in\n    tag_175:\n      dup1\n      iszero\n      tag_176\n      jumpi\n      dup1\n      0x1f\n      lt\n      tag_177\n      jumpi\n      0x0100\n      dup1\n      dup4\n      sload\n      div\n      mul\n      dup4\n      mstore\n      swap2\n      0x20\n      add\n      swap2\n      jump(tag_176)\n    tag_177:\n      dup3\n      add\n      swap2\n      swap1\n      0x00\n      mstore\n      keccak256(0x00, 0x20)\n      swap1\n    tag_178:\n      dup2\n      sload\n      dup2\n      mstore\n      swap1\n      0x01\n      add\n      swap1\n      0x20\n      add\n      dup1\n      dup4\n      gt\n      tag_178\n      jumpi\n      dup3\n      swap1\n      sub\n      0x1f\n      and\n      dup3\n      add\n      swap2\n    tag_176:\n      pop\n      pop\n      pop\n      pop\n      pop\n      dup2\n      mstore\n      0x20\n      add\n      0x02\n      dup3\n      add\n      sload\n      dup2\n      mstore\n      0x20\n      add\n      0x03\n      dup3\n      add\n      sload\n      dup2\n      mstore\n      0x20\n      add\n      0x04\n      dup3\n      add\n      sload\n      dup2\n      mstore\n      pop\n      pop\n      swap1\n      pop\n        /* \"contracts/_BilboydLeasing.sol\":12999:13177  function getCarDetails(uint256 tokenId) public view returns (Car memory) {... */\n      swap2\n      swap1\n      pop\n      jump\t// out\n        /* \"contracts/_BilboydLeasing.sol\":2367:2481  function exists(uint256 tokenId) public view returns (bool) {... */\n    tag_62:\n        /* \"contracts/_BilboydLeasing.sol\":2421:2425  bool */\n      0x00\n        /* \"contracts/_BilboydLeasing.sol\":2472:2473  0 */\n      dup1\n        /* \"contracts/_BilboydLeasing.sol\":2444:2474  _owners[tokenId] != address(0) */\n      0xffffffffffffffffffffffffffffffffffffffff\n      and\n        /* \"contracts/_BilboydLeasing.sol\":2444:2451  _owners */\n      0x00\n        /* \"contracts/_BilboydLeasing.sol\":2444:2460  _owners[tokenId] */\n      dup1\n        /* \"contracts/_BilboydLeasing.sol\":2452:2459  tokenId */\n      dup5\n        /* \"contracts/_BilboydLeasing.sol\":2444:2460  _owners[tokenId] */\n      dup2\n      mstore\n      0x20\n      add\n      swap1\n      dup2\n      mstore\n      0x20\n      add\n      0x00\n      keccak256\n      0x00\n      swap1\n      sload\n      swap1\n      0x0100\n      exp\n      swap1\n      div\n      0xffffffffffffffffffffffffffffffffffffffff\n      and\n        /* \"contracts/_BilboydLeasing.sol\":2444:2474  _owners[tokenId] != address(0) */\n      0xffffffffffffffffffffffffffffffffffffffff\n      and\n      eq\n      iszero\n        /* \"contracts/_BilboydLeasing.sol\":2437:2474  return _owners[tokenId] != address(0) */\n      swap1\n      pop\n        /* \"contracts/_BilboydLeasing.sol\":2367:2481  function exists(uint256 tokenId) public view returns (bool) {... */\n      swap2\n      swap1\n      pop\n      jump\t// out\n        /* \"contracts/_BilboydLeasing.sol\":7007:8825  function proposeLease(... */\n    tag_68:\n        /* \"contracts/_BilboydLeasing.sol\":7214:7229  exists(tokenId) */\n      tag_181\n        /* \"contracts/_BilboydLeasing.sol\":7221:7228  tokenId */\n      dup5\n        /* \"contracts/_BilboydLeasing.sol\":7214:7220  exists */\n      tag_62\n        /* \"contracts/_BilboydLeasing.sol\":7214:7229  exists(tokenId) */\n      jump\t// in\n    tag_181:\n        /* \"contracts/_BilboydLeasing.sol\":7206:7257  require(exists(tokenId), \"Token ID does not exist\") */\n      tag_182\n      jumpi\n      mload(0x40)\n      0x08c379a000000000000000000000000000000000000000000000000000000000\n      dup2\n      mstore\n      0x04\n      add\n      tag_183\n      swap1\n      tag_138\n      jump\t// in\n    tag_183:\n      mload(0x40)\n      dup1\n      swap2\n      sub\n      swap1\n      revert\n    tag_182:\n        /* \"contracts/_BilboydLeasing.sol\":7319:7320  0 */\n      0x00\n        /* \"contracts/_BilboydLeasing.sol\":7275:7321  _leaseAgreements[tokenId].lessee == address(0) */\n      0xffffffffffffffffffffffffffffffffffffffff\n      and\n        /* \"contracts/_BilboydLeasing.sol\":7275:7291  _leaseAgreements */\n      0x08\n        /* \"contracts/_BilboydLeasing.sol\":7275:7300  _leaseAgreements[tokenId] */\n      0x00\n        /* \"contracts/_BilboydLeasing.sol\":7292:7299  tokenId */\n      dup7\n        /* \"contracts/_BilboydLeasing.sol\":7275:7300  _leaseAgreements[tokenId] */\n      dup2\n      mstore\n      0x20\n      add\n      swap1\n      dup2\n      mstore\n      0x20\n      add\n      0x00\n      keccak256\n        /* \"contracts/_BilboydLeasing.sol\":7275:7307  _leaseAgreements[tokenId].lessee */\n      0x01\n      add\n      0x00\n      swap1\n      sload\n      swap1\n      0x0100\n      exp\n      swap1\n      div\n      0xffffffffffffffffffffffffffffffffffffffff\n      and\n        /* \"contracts/_BilboydLeasing.sol\":7275:7321  _leaseAgreements[tokenId].lessee == address(0) */\n      0xffffffffffffffffffffffffffffffffffffffff\n      and\n      eq\n        /* \"contracts/_BilboydLeasing.sol\":7267:7361  require(_leaseAgreements[tokenId].lessee == address(0), \"Lease already exists for this token\") */\n      tag_184\n      jumpi\n      mload(0x40)\n      0x08c379a000000000000000000000000000000000000000000000000000000000\n      dup2\n      mstore\n      0x04\n      add\n      tag_185\n      swap1\n      tag_186\n      jump\t// in\n    tag_185:\n      mload(0x40)\n      dup1\n      swap2\n      sub\n      swap1\n      revert\n    tag_184:\n        /* \"contracts/_BilboydLeasing.sol\":7434:7439  10000 */\n      0x2710\n        /* \"contracts/_BilboydLeasing.sol\":7420:7430  mileageCap */\n      dup3\n        /* \"contracts/_BilboydLeasing.sol\":7420:7439  mileageCap == 10000 */\n      eq\n        /* \"contracts/_BilboydLeasing.sol\":7420:7462  mileageCap == 10000 || mileageCap == 15000 */\n      dup1\n      tag_187\n      jumpi\n      pop\n        /* \"contracts/_BilboydLeasing.sol\":7457:7462  15000 */\n      0x3a98\n        /* \"contracts/_BilboydLeasing.sol\":7443:7453  mileageCap */\n      dup3\n        /* \"contracts/_BilboydLeasing.sol\":7443:7462  mileageCap == 15000 */\n      eq\n        /* \"contracts/_BilboydLeasing.sol\":7420:7462  mileageCap == 10000 || mileageCap == 15000 */\n    tag_187:\n        /* \"contracts/_BilboydLeasing.sol\":7420:7485  mileageCap == 10000 || mileageCap == 15000 || mileageCap == 20000 */\n      dup1\n      tag_188\n      jumpi\n      pop\n        /* \"contracts/_BilboydLeasing.sol\":7480:7485  20000 */\n      0x4e20\n        /* \"contracts/_BilboydLeasing.sol\":7466:7476  mileageCap */\n      dup3\n        /* \"contracts/_BilboydLeasing.sol\":7466:7485  mileageCap == 20000 */\n      eq\n        /* \"contracts/_BilboydLeasing.sol\":7420:7485  mileageCap == 10000 || mileageCap == 15000 || mileageCap == 20000 */\n    tag_188:\n        /* \"contracts/_BilboydLeasing.sol\":7399:7530  require(... */\n      tag_189\n      jumpi\n      mload(0x40)\n      0x08c379a000000000000000000000000000000000000000000000000000000000\n      dup2\n      mstore\n      0x04\n      add\n      tag_190\n      swap1\n      tag_191\n      jump\t// in\n    tag_190:\n      mload(0x40)\n      dup1\n      swap2\n      sub\n      swap1\n      revert\n    tag_189:\n        /* \"contracts/_BilboydLeasing.sol\":7581:7583  12 */\n      0x0c\n        /* \"contracts/_BilboydLeasing.sol\":7561:7577  contractDuration */\n      dup2\n        /* \"contracts/_BilboydLeasing.sol\":7561:7583  contractDuration == 12 */\n      eq\n        /* \"contracts/_BilboydLeasing.sol\":7561:7609  contractDuration == 12 || contractDuration == 24 */\n      dup1\n      tag_192\n      jumpi\n      pop\n        /* \"contracts/_BilboydLeasing.sol\":7607:7609  24 */\n      0x18\n        /* \"contracts/_BilboydLeasing.sol\":7587:7603  contractDuration */\n      dup2\n        /* \"contracts/_BilboydLeasing.sol\":7587:7609  contractDuration == 24 */\n      eq\n        /* \"contracts/_BilboydLeasing.sol\":7561:7609  contractDuration == 12 || contractDuration == 24 */\n    tag_192:\n        /* \"contracts/_BilboydLeasing.sol\":7561:7635  contractDuration == 12 || contractDuration == 24 || contractDuration == 36 */\n      dup1\n      tag_193\n      jumpi\n      pop\n        /* \"contracts/_BilboydLeasing.sol\":7633:7635  36 */\n      0x24\n        /* \"contracts/_BilboydLeasing.sol\":7613:7629  contractDuration */\n      dup2\n        /* \"contracts/_BilboydLeasing.sol\":7613:7635  contractDuration == 36 */\n      eq\n        /* \"contracts/_BilboydLeasing.sol\":7561:7635  contractDuration == 12 || contractDuration == 24 || contractDuration == 36 */\n    tag_193:\n        /* \"contracts/_BilboydLeasing.sol\":7540:7686  require(... */\n      tag_194\n      jumpi\n      mload(0x40)\n      0x08c379a000000000000000000000000000000000000000000000000000000000\n      dup2\n      mstore\n      0x04\n      add\n      tag_195\n      swap1\n      tag_196\n      jump\t// in\n    tag_195:\n      mload(0x40)\n      dup1\n      swap2\n      sub\n      swap1\n      revert\n    tag_194:\n        /* \"contracts/_BilboydLeasing.sol\":7730:7750  uint256 monthlyQuota */\n      0x00\n        /* \"contracts/_BilboydLeasing.sol\":7753:7898  computeMonthlyQuotaForProposal(... */\n      tag_197\n        /* \"contracts/_BilboydLeasing.sol\":7797:7804  tokenId */\n      dup6\n        /* \"contracts/_BilboydLeasing.sol\":7818:7834  driverExperience */\n      dup6\n        /* \"contracts/_BilboydLeasing.sol\":7848:7858  mileageCap */\n      dup6\n        /* \"contracts/_BilboydLeasing.sol\":7872:7888  contractDuration */\n      dup6\n        /* \"contracts/_BilboydLeasing.sol\":7753:7783  computeMonthlyQuotaForProposal */\n      tag_94\n        /* \"contracts/_BilboydLeasing.sol\":7753:7898  computeMonthlyQuotaForProposal(... */\n      jump\t// in\n    tag_197:\n        /* \"contracts/_BilboydLeasing.sol\":7730:7898  uint256 monthlyQuota = computeMonthlyQuotaForProposal(... */\n      swap1\n      pop\n        /* \"contracts/_BilboydLeasing.sol\":8010:8033  uint256 requiredPayment */\n      0x00\n        /* \"contracts/_BilboydLeasing.sol\":8051:8052  4 */\n      0x04\n        /* \"contracts/_BilboydLeasing.sol\":8036:8048  monthlyQuota */\n      dup3\n        /* \"contracts/_BilboydLeasing.sol\":8036:8052  monthlyQuota * 4 */\n      tag_198\n      swap2\n      swap1\n      tag_199\n      jump\t// in\n    tag_198:\n        /* \"contracts/_BilboydLeasing.sol\":8010:8052  uint256 requiredPayment = monthlyQuota * 4 */\n      swap1\n      pop\n        /* \"contracts/_BilboydLeasing.sol\":8141:8156  requiredPayment */\n      dup1\n        /* \"contracts/_BilboydLeasing.sol\":8128:8137  msg.value */\n      callvalue\n        /* \"contracts/_BilboydLeasing.sol\":8128:8156  msg.value == requiredPayment */\n      eq\n        /* \"contracts/_BilboydLeasing.sol\":8120:8185  require(msg.value == requiredPayment, \"Incorrect payment amount\") */\n      tag_200\n      jumpi\n      mload(0x40)\n      0x08c379a000000000000000000000000000000000000000000000000000000000\n      dup2\n      mstore\n      0x04\n      add\n      tag_201\n      swap1\n      tag_202\n      jump\t// in\n    tag_201:\n      mload(0x40)\n      dup1\n      swap2\n      sub\n      swap1\n      revert\n    tag_200:\n        /* \"contracts/_BilboydLeasing.sol\":8254:8750  LeaseAgreement({... */\n      mload(0x40)\n      dup1\n      0x0140\n      add\n      0x40\n      mstore\n      dup1\n        /* \"contracts/_BilboydLeasing.sol\":8292:8299  tokenId */\n      dup8\n        /* \"contracts/_BilboydLeasing.sol\":8254:8750  LeaseAgreement({... */\n      dup2\n      mstore\n      0x20\n      add\n        /* \"contracts/_BilboydLeasing.sol\":8321:8331  msg.sender */\n      caller\n        /* \"contracts/_BilboydLeasing.sol\":8254:8750  LeaseAgreement({... */\n      0xffffffffffffffffffffffffffffffffffffffff\n      and\n      dup2\n      mstore\n      0x20\n      add\n        /* \"contracts/_BilboydLeasing.sol\":8363:8379  driverExperience */\n      dup7\n        /* \"contracts/_BilboydLeasing.sol\":8254:8750  LeaseAgreement({... */\n      dup2\n      mstore\n      0x20\n      add\n        /* \"contracts/_BilboydLeasing.sol\":8405:8415  mileageCap */\n      dup6\n        /* \"contracts/_BilboydLeasing.sol\":8254:8750  LeaseAgreement({... */\n      dup2\n      mstore\n      0x20\n      add\n        /* \"contracts/_BilboydLeasing.sol\":8447:8463  contractDuration */\n      dup5\n        /* \"contracts/_BilboydLeasing.sol\":8254:8750  LeaseAgreement({... */\n      dup2\n      mstore\n      0x20\n      add\n        /* \"contracts/_BilboydLeasing.sol\":8487:8492  false */\n      0x00\n        /* \"contracts/_BilboydLeasing.sol\":8254:8750  LeaseAgreement({... */\n      iszero\n      iszero\n      dup2\n      mstore\n      0x20\n      add\n        /* \"contracts/_BilboydLeasing.sol\":8530:8531  3 */\n      0x03\n        /* \"contracts/_BilboydLeasing.sol\":8515:8527  monthlyQuota */\n      dup5\n        /* \"contracts/_BilboydLeasing.sol\":8515:8531  monthlyQuota * 3 */\n      tag_203\n      swap2\n      swap1\n      tag_199\n      jump\t// in\n    tag_203:\n        /* \"contracts/_BilboydLeasing.sol\":8254:8750  LeaseAgreement({... */\n      dup2\n      mstore\n      0x20\n      add\n        /* \"contracts/_BilboydLeasing.sol\":8598:8613  block.timestamp */\n      timestamp\n        /* \"contracts/_BilboydLeasing.sol\":8254:8750  LeaseAgreement({... */\n      dup2\n      mstore\n      0x20\n      add\n        /* \"contracts/_BilboydLeasing.sol\":8661:8668  30 days */\n      0x278d00\n        /* \"contracts/_BilboydLeasing.sol\":8643:8658  block.timestamp */\n      timestamp\n        /* \"contracts/_BilboydLeasing.sol\":8643:8668  block.timestamp + 30 days */\n      tag_204\n      swap2\n      swap1\n      tag_205\n      jump\t// in\n    tag_204:\n        /* \"contracts/_BilboydLeasing.sol\":8254:8750  LeaseAgreement({... */\n      dup2\n      mstore\n      0x20\n      add\n        /* \"contracts/_BilboydLeasing.sol\":8727:8739  monthlyQuota */\n      dup4\n        /* \"contracts/_BilboydLeasing.sol\":8254:8750  LeaseAgreement({... */\n      dup2\n      mstore\n      pop\n        /* \"contracts/_BilboydLeasing.sol\":8226:8242  _leaseAgreements */\n      0x08\n        /* \"contracts/_BilboydLeasing.sol\":8226:8251  _leaseAgreements[tokenId] */\n      0x00\n        /* \"contracts/_BilboydLeasing.sol\":8243:8250  tokenId */\n      dup9\n        /* \"contracts/_BilboydLeasing.sol\":8226:8251  _leaseAgreements[tokenId] */\n      dup2\n      mstore\n      0x20\n      add\n      swap1\n      dup2\n      mstore\n      0x20\n      add\n      0x00\n      keccak256\n        /* \"contracts/_BilboydLeasing.sol\":8226:8750  _leaseAgreements[tokenId] = LeaseAgreement({... */\n      0x00\n      dup3\n      add\n      mload\n      dup2\n      0x00\n      add\n      sstore\n      0x20\n      dup3\n      add\n      mload\n      dup2\n      0x01\n      add\n      exp(0x0100, 0x00)\n      dup2\n      sload\n      dup2\n      0xffffffffffffffffffffffffffffffffffffffff\n      mul\n      not\n      and\n      swap1\n      dup4\n      0xffffffffffffffffffffffffffffffffffffffff\n      and\n      mul\n      or\n      swap1\n      sstore\n      pop\n      0x40\n      dup3\n      add\n      mload\n      dup2\n      0x02\n      add\n      sstore\n      0x60\n      dup3\n      add\n      mload\n      dup2\n      0x03\n      add\n      sstore\n      0x80\n      dup3\n      add\n      mload\n      dup2\n      0x04\n      add\n      sstore\n      0xa0\n      dup3\n      add\n      mload\n      dup2\n      0x05\n      add\n      exp(0x0100, 0x00)\n      dup2\n      sload\n      dup2\n      0xff\n      mul\n      not\n      and\n      swap1\n      dup4\n      iszero\n      iszero\n      mul\n      or\n      swap1\n      sstore\n      pop\n      0xc0\n      dup3\n      add\n      mload\n      dup2\n      0x06\n      add\n      sstore\n      0xe0\n      dup3\n      add\n      mload\n      dup2\n      0x07\n      add\n      sstore\n      0x0100\n      dup3\n      add\n      mload\n      dup2\n      0x08\n      add\n      sstore\n      0x0120\n      dup3\n      add\n      mload\n      dup2\n      0x09\n      add\n      sstore\n      swap1\n      pop\n      pop\n        /* \"contracts/_BilboydLeasing.sol\":7196:8825  {... */\n      pop\n      pop\n        /* \"contracts/_BilboydLeasing.sol\":7007:8825  function proposeLease(... */\n      pop\n      pop\n      pop\n      pop\n      jump\t// out\n        /* \"contracts/_BilboydLeasing.sol\":11816:12318  function repossessCar(uint256 tokenId) public onlyOwner {... */\n    tag_72:\n        /* \"contracts/_BilboydLeasing.sol\":2148:2154  _owner */\n      0x09\n      0x00\n      swap1\n      sload\n      swap1\n      0x0100\n      exp\n      swap1\n      div\n      0xffffffffffffffffffffffffffffffffffffffff\n      and\n        /* \"contracts/_BilboydLeasing.sol\":2134:2154  msg.sender == _owner */\n      0xffffffffffffffffffffffffffffffffffffffff\n      and\n        /* \"contracts/_BilboydLeasing.sol\":2134:2144  msg.sender */\n      caller\n        /* \"contracts/_BilboydLeasing.sol\":2134:2154  msg.sender == _owner */\n      0xffffffffffffffffffffffffffffffffffffffff\n      and\n      eq\n        /* \"contracts/_BilboydLeasing.sol\":2126:2182  require(msg.sender == _owner, \"Caller is not the owner\") */\n      tag_207\n      jumpi\n      mload(0x40)\n      0x08c379a000000000000000000000000000000000000000000000000000000000\n      dup2\n      mstore\n      0x04\n      add\n      tag_208\n      swap1\n      tag_209\n      jump\t// in\n    tag_208:\n      mload(0x40)\n      dup1\n      swap2\n      sub\n      swap1\n      revert\n    tag_207:\n        /* \"contracts/_BilboydLeasing.sol\":11882:11910  LeaseAgreement storage lease */\n      0x00\n        /* \"contracts/_BilboydLeasing.sol\":11913:11929  _leaseAgreements */\n      0x08\n        /* \"contracts/_BilboydLeasing.sol\":11913:11938  _leaseAgreements[tokenId] */\n      0x00\n        /* \"contracts/_BilboydLeasing.sol\":11930:11937  tokenId */\n      dup4\n        /* \"contracts/_BilboydLeasing.sol\":11913:11938  _leaseAgreements[tokenId] */\n      dup2\n      mstore\n      0x20\n      add\n      swap1\n      dup2\n      mstore\n      0x20\n      add\n      0x00\n      keccak256\n        /* \"contracts/_BilboydLeasing.sol\":11882:11938  LeaseAgreement storage lease = _leaseAgreements[tokenId] */\n      swap1\n      pop\n        /* \"contracts/_BilboydLeasing.sol\":11956:11961  lease */\n      dup1\n        /* \"contracts/_BilboydLeasing.sol\":11956:11970  lease.isActive */\n      0x05\n      add\n      0x00\n      swap1\n      sload\n      swap1\n      0x0100\n      exp\n      swap1\n      div\n      0xff\n      and\n        /* \"contracts/_BilboydLeasing.sol\":11948:11994  require(lease.isActive, \"Lease is not active\") */\n      tag_211\n      jumpi\n      mload(0x40)\n      0x08c379a000000000000000000000000000000000000000000000000000000000\n      dup2\n      mstore\n      0x04\n      add\n      tag_212\n      swap1\n      tag_213\n      jump\t// in\n    tag_212:\n      mload(0x40)\n      dup1\n      swap2\n      sub\n      swap1\n      revert\n    tag_211:\n        /* \"contracts/_BilboydLeasing.sol\":12053:12059  5 days */\n      0x069780\n        /* \"contracts/_BilboydLeasing.sol\":12030:12035  lease */\n      dup2\n        /* \"contracts/_BilboydLeasing.sol\":12030:12050  lease.paymentDueDate */\n      0x08\n      add\n      sload\n        /* \"contracts/_BilboydLeasing.sol\":12030:12059  lease.paymentDueDate + 5 days */\n      tag_214\n      swap2\n      swap1\n      tag_205\n      jump\t// in\n    tag_214:\n        /* \"contracts/_BilboydLeasing.sol\":12012:12027  block.timestamp */\n      timestamp\n        /* \"contracts/_BilboydLeasing.sol\":12012:12059  block.timestamp > lease.paymentDueDate + 5 days */\n      gt\n        /* \"contracts/_BilboydLeasing.sol\":12004:12086  require(block.timestamp > lease.paymentDueDate + 5 days, \"Payment is not overdue\") */\n      tag_215\n      jumpi\n      mload(0x40)\n      0x08c379a000000000000000000000000000000000000000000000000000000000\n      dup2\n      mstore\n      0x04\n      add\n      tag_216\n      swap1\n      tag_217\n      jump\t// in\n    tag_216:\n      mload(0x40)\n      dup1\n      swap2\n      sub\n      swap1\n      revert\n    tag_215:\n        /* \"contracts/_BilboydLeasing.sol\":12141:12181  _transfer(lease.lessee, _owner, tokenId) */\n      tag_218\n        /* \"contracts/_BilboydLeasing.sol\":12151:12156  lease */\n      dup2\n        /* \"contracts/_BilboydLeasing.sol\":12151:12163  lease.lessee */\n      0x01\n      add\n      0x00\n      swap1\n      sload\n      swap1\n      0x0100\n      exp\n      swap1\n      div\n      0xffffffffffffffffffffffffffffffffffffffff\n      and\n        /* \"contracts/_BilboydLeasing.sol\":12165:12171  _owner */\n      0x09\n      0x00\n      swap1\n      sload\n      swap1\n      0x0100\n      exp\n      swap1\n      div\n      0xffffffffffffffffffffffffffffffffffffffff\n      and\n        /* \"contracts/_BilboydLeasing.sol\":12173:12180  tokenId */\n      dup5\n        /* \"contracts/_BilboydLeasing.sol\":12141:12150  _transfer */\n      tag_156\n        /* \"contracts/_BilboydLeasing.sol\":12141:12181  _transfer(lease.lessee, _owner, tokenId) */\n      jump\t// in\n    tag_218:\n        /* \"contracts/_BilboydLeasing.sol\":12247:12252  false */\n      0x00\n        /* \"contracts/_BilboydLeasing.sol\":12230:12235  lease */\n      dup2\n        /* \"contracts/_BilboydLeasing.sol\":12230:12244  lease.isActive */\n      0x05\n      add\n      0x00\n        /* \"contracts/_BilboydLeasing.sol\":12230:12252  lease.isActive = false */\n      0x0100\n      exp\n      dup2\n      sload\n      dup2\n      0xff\n      mul\n      not\n      and\n      swap1\n      dup4\n      iszero\n      iszero\n      mul\n      or\n      swap1\n      sstore\n      pop\n        /* \"contracts/_BilboydLeasing.sol\":12310:12311  0 */\n      0x00\n        /* \"contracts/_BilboydLeasing.sol\":12294:12299  lease */\n      dup2\n        /* \"contracts/_BilboydLeasing.sol\":12294:12307  lease.deposit */\n      0x06\n      add\n        /* \"contracts/_BilboydLeasing.sol\":12294:12311  lease.deposit = 0 */\n      dup2\n      swap1\n      sstore\n      pop\n        /* \"contracts/_BilboydLeasing.sol\":11872:12318  {... */\n      pop\n        /* \"contracts/_BilboydLeasing.sol\":11816:12318  function repossessCar(uint256 tokenId) public onlyOwner {... */\n      pop\n      jump\t// out\n        /* \"contracts/_BilboydLeasing.sol\":6179:6919  function mintCar(... */\n    tag_77:\n        /* \"contracts/_BilboydLeasing.sol\":6386:6393  uint256 */\n      0x00\n        /* \"contracts/_BilboydLeasing.sol\":2148:2154  _owner */\n      0x09\n      0x00\n      swap1\n      sload\n      swap1\n      0x0100\n      exp\n      swap1\n      div\n      0xffffffffffffffffffffffffffffffffffffffff\n      and\n        /* \"contracts/_BilboydLeasing.sol\":2134:2154  msg.sender == _owner */\n      0xffffffffffffffffffffffffffffffffffffffff\n      and\n        /* \"contracts/_BilboydLeasing.sol\":2134:2144  msg.sender */\n      caller\n        /* \"contracts/_BilboydLeasing.sol\":2134:2154  msg.sender == _owner */\n      0xffffffffffffffffffffffffffffffffffffffff\n      and\n      eq\n        /* \"contracts/_BilboydLeasing.sol\":2126:2182  require(msg.sender == _owner, \"Caller is not the owner\") */\n      tag_220\n      jumpi\n      mload(0x40)\n      0x08c379a000000000000000000000000000000000000000000000000000000000\n      dup2\n      mstore\n      0x04\n      add\n      tag_221\n      swap1\n      tag_209\n      jump\t// in\n    tag_221:\n      mload(0x40)\n      dup1\n      swap2\n      sub\n      swap1\n      revert\n    tag_220:\n        /* \"contracts/_BilboydLeasing.sol\":6431:6432  0 */\n      0x00\n        /* \"contracts/_BilboydLeasing.sol\":6413:6433  _owner != address(0) */\n      0xffffffffffffffffffffffffffffffffffffffff\n      and\n        /* \"contracts/_BilboydLeasing.sol\":6413:6419  _owner */\n      0x09\n      0x00\n      swap1\n      sload\n      swap1\n      0x0100\n      exp\n      swap1\n      div\n      0xffffffffffffffffffffffffffffffffffffffff\n      and\n        /* \"contracts/_BilboydLeasing.sol\":6413:6433  _owner != address(0) */\n      0xffffffffffffffffffffffffffffffffffffffff\n      and\n      sub\n        /* \"contracts/_BilboydLeasing.sol\":6405:6458  require(_owner != address(0), \"Mint to zero address\") */\n      tag_223\n      jumpi\n      mload(0x40)\n      0x08c379a000000000000000000000000000000000000000000000000000000000\n      dup2\n      mstore\n      0x04\n      add\n      tag_224\n      swap1\n      tag_225\n      jump\t// in\n    tag_224:\n      mload(0x40)\n      dup1\n      swap2\n      sub\n      swap1\n      revert\n    tag_223:\n        /* \"contracts/_BilboydLeasing.sol\":6482:6483  1 */\n      0x01\n        /* \"contracts/_BilboydLeasing.sol\":6469:6478  _tokenIds */\n      0x06\n      0x00\n        /* \"contracts/_BilboydLeasing.sol\":6469:6483  _tokenIds += 1 */\n      dup3\n      dup3\n      sload\n      tag_226\n      swap2\n      swap1\n      tag_205\n      jump\t// in\n    tag_226:\n      swap3\n      pop\n      pop\n      dup2\n      swap1\n      sstore\n      pop\n        /* \"contracts/_BilboydLeasing.sol\":6493:6509  uint256 newCarId */\n      0x00\n        /* \"contracts/_BilboydLeasing.sol\":6512:6521  _tokenIds */\n      sload(0x06)\n        /* \"contracts/_BilboydLeasing.sol\":6493:6521  uint256 newCarId = _tokenIds */\n      swap1\n      pop\n        /* \"contracts/_BilboydLeasing.sol\":6553:6554  1 */\n      0x01\n        /* \"contracts/_BilboydLeasing.sol\":6532:6541  _balances */\n      dup1\n        /* \"contracts/_BilboydLeasing.sol\":6532:6549  _balances[_owner] */\n      0x00\n        /* \"contracts/_BilboydLeasing.sol\":6542:6548  _owner */\n      0x09\n      0x00\n      swap1\n      sload\n      swap1\n      0x0100\n      exp\n      swap1\n      div\n      0xffffffffffffffffffffffffffffffffffffffff\n      and\n        /* \"contracts/_BilboydLeasing.sol\":6532:6549  _balances[_owner] */\n      0xffffffffffffffffffffffffffffffffffffffff\n      and\n      0xffffffffffffffffffffffffffffffffffffffff\n      and\n      dup2\n      mstore\n      0x20\n      add\n      swap1\n      dup2\n      mstore\n      0x20\n      add\n      0x00\n      keccak256\n      0x00\n        /* \"contracts/_BilboydLeasing.sol\":6532:6554  _balances[_owner] += 1 */\n      dup3\n      dup3\n      sload\n      tag_227\n      swap2\n      swap1\n      tag_205\n      jump\t// in\n    tag_227:\n      swap3\n      pop\n      pop\n      dup2\n      swap1\n      sstore\n      pop\n        /* \"contracts/_BilboydLeasing.sol\":6584:6590  _owner */\n      0x09\n      0x00\n      swap1\n      sload\n      swap1\n      0x0100\n      exp\n      swap1\n      div\n      0xffffffffffffffffffffffffffffffffffffffff\n      and\n        /* \"contracts/_BilboydLeasing.sol\":6564:6571  _owners */\n      0x00\n        /* \"contracts/_BilboydLeasing.sol\":6564:6581  _owners[newCarId] */\n      dup1\n        /* \"contracts/_BilboydLeasing.sol\":6572:6580  newCarId */\n      dup4\n        /* \"contracts/_BilboydLeasing.sol\":6564:6581  _owners[newCarId] */\n      dup2\n      mstore\n      0x20\n      add\n      swap1\n      dup2\n      mstore\n      0x20\n      add\n      0x00\n      keccak256\n      0x00\n        /* \"contracts/_BilboydLeasing.sol\":6564:6590  _owners[newCarId] = _owner */\n      0x0100\n      exp\n      dup2\n      sload\n      dup2\n      0xffffffffffffffffffffffffffffffffffffffff\n      mul\n      not\n      and\n      swap1\n      dup4\n      0xffffffffffffffffffffffffffffffffffffffff\n      and\n      mul\n      or\n      swap1\n      sstore\n      pop\n        /* \"contracts/_BilboydLeasing.sol\":6625:6832  Car({... */\n      mload(0x40)\n      dup1\n      0xa0\n      add\n      0x40\n      mstore\n      dup1\n        /* \"contracts/_BilboydLeasing.sol\":6650:6655  model */\n      dup9\n        /* \"contracts/_BilboydLeasing.sol\":6625:6832  Car({... */\n      dup2\n      mstore\n      0x20\n      add\n        /* \"contracts/_BilboydLeasing.sol\":6676:6681  color */\n      dup8\n        /* \"contracts/_BilboydLeasing.sol\":6625:6832  Car({... */\n      dup2\n      mstore\n      0x20\n      add\n        /* \"contracts/_BilboydLeasing.sol\":6716:6735  yearOfMatriculation */\n      dup7\n        /* \"contracts/_BilboydLeasing.sol\":6625:6832  Car({... */\n      dup2\n      mstore\n      0x20\n      add\n        /* \"contracts/_BilboydLeasing.sol\":6764:6777  originalValue */\n      dup6\n        /* \"contracts/_BilboydLeasing.sol\":6625:6832  Car({... */\n      dup2\n      mstore\n      0x20\n      add\n        /* \"contracts/_BilboydLeasing.sol\":6807:6821  currentMileage */\n      dup5\n        /* \"contracts/_BilboydLeasing.sol\":6625:6832  Car({... */\n      dup2\n      mstore\n      pop\n        /* \"contracts/_BilboydLeasing.sol\":6601:6612  _carDetails */\n      0x07\n        /* \"contracts/_BilboydLeasing.sol\":6601:6622  _carDetails[newCarId] */\n      0x00\n        /* \"contracts/_BilboydLeasing.sol\":6613:6621  newCarId */\n      dup4\n        /* \"contracts/_BilboydLeasing.sol\":6601:6622  _carDetails[newCarId] */\n      dup2\n      mstore\n      0x20\n      add\n      swap1\n      dup2\n      mstore\n      0x20\n      add\n      0x00\n      keccak256\n        /* \"contracts/_BilboydLeasing.sol\":6601:6832  _carDetails[newCarId] = Car({... */\n      0x00\n      dup3\n      add\n      mload\n      dup2\n      0x00\n      add\n      swap1\n      dup2\n      tag_228\n      swap2\n      swap1\n      tag_229\n      jump\t// in\n    tag_228:\n      pop\n      0x20\n      dup3\n      add\n      mload\n      dup2\n      0x01\n      add\n      swap1\n      dup2\n      tag_230\n      swap2\n      swap1\n      tag_229\n      jump\t// in\n    tag_230:\n      pop\n      0x40\n      dup3\n      add\n      mload\n      dup2\n      0x02\n      add\n      sstore\n      0x60\n      dup3\n      add\n      mload\n      dup2\n      0x03\n      add\n      sstore\n      0x80\n      dup3\n      add\n      mload\n      dup2\n      0x04\n      add\n      sstore\n      swap1\n      pop\n      pop\n        /* \"contracts/_BilboydLeasing.sol\":6877:6885  newCarId */\n      dup1\n        /* \"contracts/_BilboydLeasing.sol\":6869:6875  _owner */\n      0x09\n      0x00\n      swap1\n      sload\n      swap1\n      0x0100\n      exp\n      swap1\n      div\n      0xffffffffffffffffffffffffffffffffffffffff\n      and\n        /* \"contracts/_BilboydLeasing.sol\":6848:6886  Transfer(address(0), _owner, newCarId) */\n      0xffffffffffffffffffffffffffffffffffffffff\n      and\n        /* \"contracts/_BilboydLeasing.sol\":6865:6866  0 */\n      0x00\n        /* \"contracts/_BilboydLeasing.sol\":6848:6886  Transfer(address(0), _owner, newCarId) */\n      0xffffffffffffffffffffffffffffffffffffffff\n      and\n      0xddf252ad1be2c89b69c2b068fc378daa952ba7f163c4a11628f55a4df523b3ef\n      mload(0x40)\n      mload(0x40)\n      dup1\n      swap2\n      sub\n      swap1\n      log4\n        /* \"contracts/_BilboydLeasing.sol\":6904:6912  newCarId */\n      dup1\n        /* \"contracts/_BilboydLeasing.sol\":6897:6912  return newCarId */\n      swap2\n      pop\n      pop\n        /* \"contracts/_BilboydLeasing.sol\":6179:6919  function mintCar(... */\n      swap6\n      swap5\n      pop\n      pop\n      pop\n      pop\n      pop\n      jump\t// out\n        /* \"contracts/_BilboydLeasing.sol\":3031:3252  function ownerOf(uint256 tokenId) public view returns (address) {... */\n    tag_83:\n        /* \"contracts/_BilboydLeasing.sol\":3086:3093  address */\n      0x00\n        /* \"contracts/_BilboydLeasing.sol\":3105:3125  address ownerAddress */\n      dup1\n        /* \"contracts/_BilboydLeasing.sol\":3128:3135  _owners */\n      0x00\n        /* \"contracts/_BilboydLeasing.sol\":3128:3144  _owners[tokenId] */\n      dup1\n        /* \"contracts/_BilboydLeasing.sol\":3136:3143  tokenId */\n      dup5\n        /* \"contracts/_BilboydLeasing.sol\":3128:3144  _owners[tokenId] */\n      dup2\n      mstore\n      0x20\n      add\n      swap1\n      dup2\n      mstore\n      0x20\n      add\n      0x00\n      keccak256\n      0x00\n      swap1\n      sload\n      swap1\n      0x0100\n      exp\n      swap1\n      div\n      0xffffffffffffffffffffffffffffffffffffffff\n      and\n        /* \"contracts/_BilboydLeasing.sol\":3105:3144  address ownerAddress = _owners[tokenId] */\n      swap1\n      pop\n        /* \"contracts/_BilboydLeasing.sol\":3186:3187  0 */\n      0x00\n        /* \"contracts/_BilboydLeasing.sol\":3162:3188  ownerAddress != address(0) */\n      0xffffffffffffffffffffffffffffffffffffffff\n      and\n        /* \"contracts/_BilboydLeasing.sol\":3162:3174  ownerAddress */\n      dup2\n        /* \"contracts/_BilboydLeasing.sol\":3162:3188  ownerAddress != address(0) */\n      0xffffffffffffffffffffffffffffffffffffffff\n      and\n      sub\n        /* \"contracts/_BilboydLeasing.sol\":3154:3216  require(ownerAddress != address(0), \"Token ID does not exist\") */\n      tag_232\n      jumpi\n      mload(0x40)\n      0x08c379a000000000000000000000000000000000000000000000000000000000\n      dup2\n      mstore\n      0x04\n      add\n      tag_233\n      swap1\n      tag_138\n      jump\t// in\n    tag_233:\n      mload(0x40)\n      dup1\n      swap2\n      sub\n      swap1\n      revert\n    tag_232:\n        /* \"contracts/_BilboydLeasing.sol\":3233:3245  ownerAddress */\n      dup1\n        /* \"contracts/_BilboydLeasing.sol\":3226:3245  return ownerAddress */\n      swap2\n      pop\n      pop\n        /* \"contracts/_BilboydLeasing.sol\":3031:3252  function ownerOf(uint256 tokenId) public view returns (address) {... */\n      swap2\n      swap1\n      pop\n      jump\t// out\n        /* \"contracts/_BilboydLeasing.sol\":2796:2978  function balanceOf(address ownerAddress) public view returns (uint256) {... */\n    tag_89:\n        /* \"contracts/_BilboydLeasing.sol\":2858:2865  uint256 */\n      0x00\n        /* \"contracts/_BilboydLeasing.sol\":2909:2910  0 */\n      dup1\n        /* \"contracts/_BilboydLeasing.sol\":2885:2911  ownerAddress != address(0) */\n      0xffffffffffffffffffffffffffffffffffffffff\n      and\n        /* \"contracts/_BilboydLeasing.sol\":2885:2897  ownerAddress */\n      dup3\n        /* \"contracts/_BilboydLeasing.sol\":2885:2911  ownerAddress != address(0) */\n      0xffffffffffffffffffffffffffffffffffffffff\n      and\n      sub\n        /* \"contracts/_BilboydLeasing.sol\":2877:2931  require(ownerAddress != address(0), \"Invalid address\") */\n      tag_235\n      jumpi\n      mload(0x40)\n      0x08c379a000000000000000000000000000000000000000000000000000000000\n      dup2\n      mstore\n      0x04\n      add\n      tag_236\n      swap1\n      tag_237\n      jump\t// in\n    tag_236:\n      mload(0x40)\n      dup1\n      swap2\n      sub\n      swap1\n      revert\n    tag_235:\n        /* \"contracts/_BilboydLeasing.sol\":2948:2957  _balances */\n      0x01\n        /* \"contracts/_BilboydLeasing.sol\":2948:2971  _balances[ownerAddress] */\n      0x00\n        /* \"contracts/_BilboydLeasing.sol\":2958:2970  ownerAddress */\n      dup4\n        /* \"contracts/_BilboydLeasing.sol\":2948:2971  _balances[ownerAddress] */\n      0xffffffffffffffffffffffffffffffffffffffff\n      and\n      0xffffffffffffffffffffffffffffffffffffffff\n      and\n      dup2\n      mstore\n      0x20\n      add\n      swap1\n      dup2\n      mstore\n      0x20\n      add\n      0x00\n      keccak256\n      sload\n        /* \"contracts/_BilboydLeasing.sol\":2941:2971  return _balances[ownerAddress] */\n      swap1\n      pop\n        /* \"contracts/_BilboydLeasing.sol\":2796:2978  function balanceOf(address ownerAddress) public view returns (uint256) {... */\n      swap2\n      swap1\n      pop\n      jump\t// out\n        /* \"contracts/_BilboydLeasing.sol\":9849:10996  function computeMonthlyQuotaForProposal(... */\n    tag_94:\n        /* \"contracts/_BilboydLeasing.sol\":10037:10044  uint256 */\n      0x00\n        /* \"contracts/_BilboydLeasing.sol\":10064:10079  exists(tokenId) */\n      tag_239\n        /* \"contracts/_BilboydLeasing.sol\":10071:10078  tokenId */\n      dup6\n        /* \"contracts/_BilboydLeasing.sol\":10064:10070  exists */\n      tag_62\n        /* \"contracts/_BilboydLeasing.sol\":10064:10079  exists(tokenId) */\n      jump\t// in\n    tag_239:\n        /* \"contracts/_BilboydLeasing.sol\":10056:10107  require(exists(tokenId), \"Token ID does not exist\") */\n      tag_240\n      jumpi\n      mload(0x40)\n      0x08c379a000000000000000000000000000000000000000000000000000000000\n      dup2\n      mstore\n      0x04\n      add\n      tag_241\n      swap1\n      tag_138\n      jump\t// in\n    tag_241:\n      mload(0x40)\n      dup1\n      swap2\n      sub\n      swap1\n      revert\n    tag_240:\n        /* \"contracts/_BilboydLeasing.sol\":10118:10132  Car memory car */\n      0x00\n        /* \"contracts/_BilboydLeasing.sol\":10135:10146  _carDetails */\n      0x07\n        /* \"contracts/_BilboydLeasing.sol\":10135:10155  _carDetails[tokenId] */\n      0x00\n        /* \"contracts/_BilboydLeasing.sol\":10147:10154  tokenId */\n      dup8\n        /* \"contracts/_BilboydLeasing.sol\":10135:10155  _carDetails[tokenId] */\n      dup2\n      mstore\n      0x20\n      add\n      swap1\n      dup2\n      mstore\n      0x20\n      add\n      0x00\n      keccak256\n        /* \"contracts/_BilboydLeasing.sol\":10118:10155  Car memory car = _carDetails[tokenId] */\n      mload(0x40)\n      dup1\n      0xa0\n      add\n      0x40\n      mstore\n      swap1\n      dup2\n      0x00\n      dup3\n      add\n      dup1\n      sload\n      tag_242\n      swap1\n      tag_129\n      jump\t// in\n    tag_242:\n      dup1\n      0x1f\n      add\n      0x20\n      dup1\n      swap2\n      div\n      mul\n      0x20\n      add\n      mload(0x40)\n      swap1\n      dup2\n      add\n      0x40\n      mstore\n      dup1\n      swap3\n      swap2\n      swap1\n      dup2\n      dup2\n      mstore\n      0x20\n      add\n      dup3\n      dup1\n      sload\n      tag_243\n      swap1\n      tag_129\n      jump\t// in\n    tag_243:\n      dup1\n      iszero\n      tag_244\n      jumpi\n      dup1\n      0x1f\n      lt\n      tag_245\n      jumpi\n      0x0100\n      dup1\n      dup4\n      sload\n      div\n      mul\n      dup4\n      mstore\n      swap2\n      0x20\n      add\n      swap2\n      jump(tag_244)\n    tag_245:\n      dup3\n      add\n      swap2\n      swap1\n      0x00\n      mstore\n      keccak256(0x00, 0x20)\n      swap1\n    tag_246:\n      dup2\n      sload\n      dup2\n      mstore\n      swap1\n      0x01\n      add\n      swap1\n      0x20\n      add\n      dup1\n      dup4\n      gt\n      tag_246\n      jumpi\n      dup3\n      swap1\n      sub\n      0x1f\n      and\n      dup3\n      add\n      swap2\n    tag_244:\n      pop\n      pop\n      pop\n      pop\n      pop\n      dup2\n      mstore\n      0x20\n      add\n      0x01\n      dup3\n      add\n      dup1\n      sload\n      tag_247\n      swap1\n      tag_129\n      jump\t// in\n    tag_247:\n      dup1\n      0x1f\n      add\n      0x20\n      dup1\n      swap2\n      div\n      mul\n      0x20\n      add\n      mload(0x40)\n      swap1\n      dup2\n      add\n      0x40\n      mstore\n      dup1\n      swap3\n      swap2\n      swap1\n      dup2\n      dup2\n      mstore\n      0x20\n      add\n      dup3\n      dup1\n      sload\n      tag_248\n      swap1\n      tag_129\n      jump\t// in\n    tag_248:\n      dup1\n      iszero\n      tag_249\n      jumpi\n      dup1\n      0x1f\n      lt\n      tag_250\n      jumpi\n      0x0100\n      dup1\n      dup4\n      sload\n      div\n      mul\n      dup4\n      mstore\n      swap2\n      0x20\n      add\n      swap2\n      jump(tag_249)\n    tag_250:\n      dup3\n      add\n      swap2\n      swap1\n      0x00\n      mstore\n      keccak256(0x00, 0x20)\n      swap1\n    tag_251:\n      dup2\n      sload\n      dup2\n      mstore\n      swap1\n      0x01\n      add\n      swap1\n      0x20\n      add\n      dup1\n      dup4\n      gt\n      tag_251\n      jumpi\n      dup3\n      swap1\n      sub\n      0x1f\n      and\n      dup3\n      add\n      swap2\n    tag_249:\n      pop\n      pop\n      pop\n      pop\n      pop\n      dup2\n      mstore\n      0x20\n      add\n      0x02\n      dup3\n      add\n      sload\n      dup2\n      mstore\n      0x20\n      add\n      0x03\n      dup3\n      add\n      sload\n      dup2\n      mstore\n      0x20\n      add\n      0x04\n      dup3\n      add\n      sload\n      dup2\n      mstore\n      pop\n      pop\n      swap1\n      pop\n        /* \"contracts/_BilboydLeasing.sol\":10238:10255  uint256 baseQuota */\n      0x00\n        /* \"contracts/_BilboydLeasing.sol\":10278:10281  100 */\n      0x64\n        /* \"contracts/_BilboydLeasing.sol\":10258:10261  car */\n      dup3\n        /* \"contracts/_BilboydLeasing.sol\":10258:10275  car.originalValue */\n      0x60\n      add\n      mload\n        /* \"contracts/_BilboydLeasing.sol\":10258:10281  car.originalValue / 100 */\n      tag_252\n      swap2\n      swap1\n      tag_253\n      jump\t// in\n    tag_252:\n        /* \"contracts/_BilboydLeasing.sol\":10238:10281  uint256 baseQuota = car.originalValue / 100 */\n      swap1\n      pop\n        /* \"contracts/_BilboydLeasing.sol\":10371:10390  uint256 mileageCost */\n      0x00\n        /* \"contracts/_BilboydLeasing.sol\":10454:10480  uint256 experienceDiscount */\n      dup1\n        /* \"contracts/_BilboydLeasing.sol\":10516:10519  100 */\n      0x64\n        /* \"contracts/_BilboydLeasing.sol\":10503:10512  baseQuota */\n      dup4\n        /* \"contracts/_BilboydLeasing.sol\":10484:10500  driverExperience */\n      dup10\n        /* \"contracts/_BilboydLeasing.sol\":10484:10512  driverExperience * baseQuota */\n      tag_254\n      swap2\n      swap1\n      tag_199\n      jump\t// in\n    tag_254:\n        /* \"contracts/_BilboydLeasing.sol\":10483:10519  (driverExperience * baseQuota) / 100 */\n      tag_255\n      swap2\n      swap1\n      tag_253\n      jump\t// in\n    tag_255:\n        /* \"contracts/_BilboydLeasing.sol\":10454:10519  uint256 experienceDiscount = (driverExperience * baseQuota) / 100 */\n      swap1\n      pop\n        /* \"contracts/_BilboydLeasing.sol\":10603:10627  uint256 durationDiscount */\n      0x00\n        /* \"contracts/_BilboydLeasing.sol\":10665:10667  36 */\n      0x24\n        /* \"contracts/_BilboydLeasing.sol\":10645:10661  contractDuration */\n      dup8\n        /* \"contracts/_BilboydLeasing.sol\":10645:10667  contractDuration >= 36 */\n      lt\n        /* \"contracts/_BilboydLeasing.sol\":10641:10863  if (contractDuration >= 36) {... */\n      tag_256\n      jumpi\n        /* \"contracts/_BilboydLeasing.sol\":10720:10723  100 */\n      0x64\n        /* \"contracts/_BilboydLeasing.sol\":10715:10716  5 */\n      0x05\n        /* \"contracts/_BilboydLeasing.sol\":10703:10712  baseQuota */\n      dup6\n        /* \"contracts/_BilboydLeasing.sol\":10703:10716  baseQuota * 5 */\n      tag_257\n      swap2\n      swap1\n      tag_199\n      jump\t// in\n    tag_257:\n        /* \"contracts/_BilboydLeasing.sol\":10702:10723  (baseQuota * 5) / 100 */\n      tag_258\n      swap2\n      swap1\n      tag_253\n      jump\t// in\n    tag_258:\n        /* \"contracts/_BilboydLeasing.sol\":10683:10723  durationDiscount = (baseQuota * 5) / 100 */\n      swap1\n      pop\n        /* \"contracts/_BilboydLeasing.sol\":10641:10863  if (contractDuration >= 36) {... */\n      jump(tag_259)\n    tag_256:\n        /* \"contracts/_BilboydLeasing.sol\":10779:10781  24 */\n      0x18\n        /* \"contracts/_BilboydLeasing.sol\":10759:10775  contractDuration */\n      dup8\n        /* \"contracts/_BilboydLeasing.sol\":10759:10781  contractDuration >= 24 */\n      lt\n        /* \"contracts/_BilboydLeasing.sol\":10755:10863  if (contractDuration >= 24) {... */\n      tag_260\n      jumpi\n        /* \"contracts/_BilboydLeasing.sol\":10834:10837  100 */\n      0x64\n        /* \"contracts/_BilboydLeasing.sol\":10829:10830  3 */\n      0x03\n        /* \"contracts/_BilboydLeasing.sol\":10817:10826  baseQuota */\n      dup6\n        /* \"contracts/_BilboydLeasing.sol\":10817:10830  baseQuota * 3 */\n      tag_261\n      swap2\n      swap1\n      tag_199\n      jump\t// in\n    tag_261:\n        /* \"contracts/_BilboydLeasing.sol\":10816:10837  (baseQuota * 3) / 100 */\n      tag_262\n      swap2\n      swap1\n      tag_253\n      jump\t// in\n    tag_262:\n        /* \"contracts/_BilboydLeasing.sol\":10797:10837  durationDiscount = (baseQuota * 3) / 100 */\n      swap1\n      pop\n        /* \"contracts/_BilboydLeasing.sol\":10755:10863  if (contractDuration >= 24) {... */\n    tag_260:\n        /* \"contracts/_BilboydLeasing.sol\":10641:10863  if (contractDuration >= 36) {... */\n    tag_259:\n        /* \"contracts/_BilboydLeasing.sol\":10873:10893  uint256 monthlyQuota */\n      0x00\n        /* \"contracts/_BilboydLeasing.sol\":10943:10959  durationDiscount */\n      dup2\n        /* \"contracts/_BilboydLeasing.sol\":10922:10940  experienceDiscount */\n      dup4\n        /* \"contracts/_BilboydLeasing.sol\":10908:10919  mileageCost */\n      dup6\n        /* \"contracts/_BilboydLeasing.sol\":10896:10905  baseQuota */\n      dup8\n        /* \"contracts/_BilboydLeasing.sol\":10896:10919  baseQuota + mileageCost */\n      tag_263\n      swap2\n      swap1\n      tag_205\n      jump\t// in\n    tag_263:\n        /* \"contracts/_BilboydLeasing.sol\":10896:10940  baseQuota + mileageCost - experienceDiscount */\n      tag_264\n      swap2\n      swap1\n      tag_265\n      jump\t// in\n    tag_264:\n        /* \"contracts/_BilboydLeasing.sol\":10896:10959  baseQuota + mileageCost - experienceDiscount - durationDiscount */\n      tag_266\n      swap2\n      swap1\n      tag_265\n      jump\t// in\n    tag_266:\n        /* \"contracts/_BilboydLeasing.sol\":10873:10959  uint256 monthlyQuota = baseQuota + mileageCost - experienceDiscount - durationDiscount */\n      swap1\n      pop\n        /* \"contracts/_BilboydLeasing.sol\":10977:10989  monthlyQuota */\n      dup1\n        /* \"contracts/_BilboydLeasing.sol\":10970:10989  return monthlyQuota */\n      swap7\n      pop\n      pop\n      pop\n      pop\n      pop\n      pop\n      pop\n        /* \"contracts/_BilboydLeasing.sol\":9849:10996  function computeMonthlyQuotaForProposal(... */\n      swap5\n      swap4\n      pop\n      pop\n      pop\n      pop\n      jump\t// out\n        /* \"contracts/_BilboydLeasing.sol\":2652:2737  function symbol() public view returns (string memory) {... */\n    tag_98:\n        /* \"contracts/_BilboydLeasing.sol\":2691:2704  string memory */\n      0x60\n        /* \"contracts/_BilboydLeasing.sol\":2723:2730  _symbol */\n      0x05\n        /* \"contracts/_BilboydLeasing.sol\":2716:2730  return _symbol */\n      dup1\n      sload\n      tag_268\n      swap1\n      tag_129\n      jump\t// in\n    tag_268:\n      dup1\n      0x1f\n      add\n      0x20\n      dup1\n      swap2\n      div\n      mul\n      0x20\n      add\n      mload(0x40)\n      swap1\n      dup2\n      add\n      0x40\n      mstore\n      dup1\n      swap3\n      swap2\n      swap1\n      dup2\n      dup2\n      mstore\n      0x20\n      add\n      dup3\n      dup1\n      sload\n      tag_269\n      swap1\n      tag_129\n      jump\t// in\n    tag_269:\n      dup1\n      iszero\n      tag_270\n      jumpi\n      dup1\n      0x1f\n      lt\n      tag_271\n      jumpi\n      0x0100\n      dup1\n      dup4\n      sload\n      div\n      mul\n      dup4\n      mstore\n      swap2\n      0x20\n      add\n      swap2\n      jump(tag_270)\n    tag_271:\n      dup3\n      add\n      swap2\n      swap1\n      0x00\n      mstore\n      keccak256(0x00, 0x20)\n      swap1\n    tag_272:\n      dup2\n      sload\n      dup2\n      mstore\n      swap1\n      0x01\n      add\n      swap1\n      0x20\n      add\n      dup1\n      dup4\n      gt\n      tag_272\n      jumpi\n      dup3\n      swap1\n      sub\n      0x1f\n      and\n      dup3\n      add\n      swap2\n    tag_270:\n      pop\n      pop\n      pop\n      pop\n      pop\n      swap1\n      pop\n        /* \"contracts/_BilboydLeasing.sol\":2652:2737  function symbol() public view returns (string memory) {... */\n      swap1\n      jump\t// out\n        /* \"contracts/_BilboydLeasing.sol\":4109:4376  function setApprovalForAll(address operator, bool approved) public {... */\n    tag_104:\n        /* \"contracts/_BilboydLeasing.sol\":4206:4216  msg.sender */\n      caller\n        /* \"contracts/_BilboydLeasing.sol\":4194:4216  operator != msg.sender */\n      0xffffffffffffffffffffffffffffffffffffffff\n      and\n        /* \"contracts/_BilboydLeasing.sol\":4194:4202  operator */\n      dup3\n        /* \"contracts/_BilboydLeasing.sol\":4194:4216  operator != msg.sender */\n      0xffffffffffffffffffffffffffffffffffffffff\n      and\n      sub\n        /* \"contracts/_BilboydLeasing.sol\":4186:4245  require(operator != msg.sender, \"Cannot approve to caller\") */\n      tag_274\n      jumpi\n      mload(0x40)\n      0x08c379a000000000000000000000000000000000000000000000000000000000\n      dup2\n      mstore\n      0x04\n      add\n      tag_275\n      swap1\n      tag_276\n      jump\t// in\n    tag_275:\n      mload(0x40)\n      dup1\n      swap2\n      sub\n      swap1\n      revert\n    tag_274:\n        /* \"contracts/_BilboydLeasing.sol\":4299:4307  approved */\n      dup1\n        /* \"contracts/_BilboydLeasing.sol\":4256:4274  _operatorApprovals */\n      0x03\n        /* \"contracts/_BilboydLeasing.sol\":4256:4286  _operatorApprovals[msg.sender] */\n      0x00\n        /* \"contracts/_BilboydLeasing.sol\":4275:4285  msg.sender */\n      caller\n        /* \"contracts/_BilboydLeasing.sol\":4256:4286  _operatorApprovals[msg.sender] */\n      0xffffffffffffffffffffffffffffffffffffffff\n      and\n      0xffffffffffffffffffffffffffffffffffffffff\n      and\n      dup2\n      mstore\n      0x20\n      add\n      swap1\n      dup2\n      mstore\n      0x20\n      add\n      0x00\n      keccak256\n        /* \"contracts/_BilboydLeasing.sol\":4256:4296  _operatorApprovals[msg.sender][operator] */\n      0x00\n        /* \"contracts/_BilboydLeasing.sol\":4287:4295  operator */\n      dup5\n        /* \"contracts/_BilboydLeasing.sol\":4256:4296  _operatorApprovals[msg.sender][operator] */\n      0xffffffffffffffffffffffffffffffffffffffff\n      and\n      0xffffffffffffffffffffffffffffffffffffffff\n      and\n      dup2\n      mstore\n      0x20\n      add\n      swap1\n      dup2\n      mstore\n      0x20\n      add\n      0x00\n      keccak256\n      0x00\n        /* \"contracts/_BilboydLeasing.sol\":4256:4307  _operatorApprovals[msg.sender][operator] = approved */\n      0x0100\n      exp\n      dup2\n      sload\n      dup2\n      0xff\n      mul\n      not\n      and\n      swap1\n      dup4\n      iszero\n      iszero\n      mul\n      or\n      swap1\n      sstore\n      pop\n        /* \"contracts/_BilboydLeasing.sol\":4350:4358  operator */\n      dup2\n        /* \"contracts/_BilboydLeasing.sol\":4323:4369  ApprovalForAll(msg.sender, operator, approved) */\n      0xffffffffffffffffffffffffffffffffffffffff\n      and\n        /* \"contracts/_BilboydLeasing.sol\":4338:4348  msg.sender */\n      caller\n        /* \"contracts/_BilboydLeasing.sol\":4323:4369  ApprovalForAll(msg.sender, operator, approved) */\n      0xffffffffffffffffffffffffffffffffffffffff\n      and\n      0x17307eab39ab6107e8899845ad3d59bd9653f200f220920489ca2b5937696c31\n        /* \"contracts/_BilboydLeasing.sol\":4360:4368  approved */\n      dup4\n        /* \"contracts/_BilboydLeasing.sol\":4323:4369  ApprovalForAll(msg.sender, operator, approved) */\n      mload(0x40)\n      tag_277\n      swap2\n      swap1\n      tag_64\n      jump\t// in\n    tag_277:\n      mload(0x40)\n      dup1\n      swap2\n      sub\n      swap1\n      log3\n        /* \"contracts/_BilboydLeasing.sol\":4109:4376  function setApprovalForAll(address operator, bool approved) public {... */\n      pop\n      pop\n      jump\t// out\n        /* \"contracts/_BilboydLeasing.sol\":8918:9789  function confirmLease(uint256 tokenId) public onlyOwner {... */\n    tag_108:\n        /* \"contracts/_BilboydLeasing.sol\":2148:2154  _owner */\n      0x09\n      0x00\n      swap1\n      sload\n      swap1\n      0x0100\n      exp\n      swap1\n      div\n      0xffffffffffffffffffffffffffffffffffffffff\n      and\n        /* \"contracts/_BilboydLeasing.sol\":2134:2154  msg.sender == _owner */\n      0xffffffffffffffffffffffffffffffffffffffff\n      and\n        /* \"contracts/_BilboydLeasing.sol\":2134:2144  msg.sender */\n      caller\n        /* \"contracts/_BilboydLeasing.sol\":2134:2154  msg.sender == _owner */\n      0xffffffffffffffffffffffffffffffffffffffff\n      and\n      eq\n        /* \"contracts/_BilboydLeasing.sol\":2126:2182  require(msg.sender == _owner, \"Caller is not the owner\") */\n      tag_279\n      jumpi\n      mload(0x40)\n      0x08c379a000000000000000000000000000000000000000000000000000000000\n      dup2\n      mstore\n      0x04\n      add\n      tag_280\n      swap1\n      tag_209\n      jump\t// in\n    tag_280:\n      mload(0x40)\n      dup1\n      swap2\n      sub\n      swap1\n      revert\n    tag_279:\n        /* \"contracts/_BilboydLeasing.sol\":8984:9012  LeaseAgreement storage lease */\n      0x00\n        /* \"contracts/_BilboydLeasing.sol\":9015:9031  _leaseAgreements */\n      0x08\n        /* \"contracts/_BilboydLeasing.sol\":9015:9040  _leaseAgreements[tokenId] */\n      0x00\n        /* \"contracts/_BilboydLeasing.sol\":9032:9039  tokenId */\n      dup4\n        /* \"contracts/_BilboydLeasing.sol\":9015:9040  _leaseAgreements[tokenId] */\n      dup2\n      mstore\n      0x20\n      add\n      swap1\n      dup2\n      mstore\n      0x20\n      add\n      0x00\n      keccak256\n        /* \"contracts/_BilboydLeasing.sol\":8984:9040  LeaseAgreement storage lease = _leaseAgreements[tokenId] */\n      swap1\n      pop\n        /* \"contracts/_BilboydLeasing.sol\":9082:9083  0 */\n      0x00\n        /* \"contracts/_BilboydLeasing.sol\":9058:9084  lease.lessee != address(0) */\n      0xffffffffffffffffffffffffffffffffffffffff\n      and\n        /* \"contracts/_BilboydLeasing.sol\":9058:9063  lease */\n      dup2\n        /* \"contracts/_BilboydLeasing.sol\":9058:9070  lease.lessee */\n      0x01\n      add\n      0x00\n      swap1\n      sload\n      swap1\n      0x0100\n      exp\n      swap1\n      div\n      0xffffffffffffffffffffffffffffffffffffffff\n      and\n        /* \"contracts/_BilboydLeasing.sol\":9058:9084  lease.lessee != address(0) */\n      0xffffffffffffffffffffffffffffffffffffffff\n      and\n      sub\n        /* \"contracts/_BilboydLeasing.sol\":9050:9112  require(lease.lessee != address(0), \"No lease proposal found\") */\n      tag_282\n      jumpi\n      mload(0x40)\n      0x08c379a000000000000000000000000000000000000000000000000000000000\n      dup2\n      mstore\n      0x04\n      add\n      tag_283\n      swap1\n      tag_284\n      jump\t// in\n    tag_283:\n      mload(0x40)\n      dup1\n      swap2\n      sub\n      swap1\n      revert\n    tag_282:\n        /* \"contracts/_BilboydLeasing.sol\":9131:9136  lease */\n      dup1\n        /* \"contracts/_BilboydLeasing.sol\":9131:9145  lease.isActive */\n      0x05\n      add\n      0x00\n      swap1\n      sload\n      swap1\n      0x0100\n      exp\n      swap1\n      div\n      0xff\n      and\n        /* \"contracts/_BilboydLeasing.sol\":9130:9145  !lease.isActive */\n      iszero\n        /* \"contracts/_BilboydLeasing.sol\":9122:9170  require(!lease.isActive, \"Lease already active\") */\n      tag_285\n      jumpi\n      mload(0x40)\n      0x08c379a000000000000000000000000000000000000000000000000000000000\n      dup2\n      mstore\n      0x04\n      add\n      tag_286\n      swap1\n      tag_287\n      jump\t// in\n    tag_286:\n      mload(0x40)\n      dup1\n      swap2\n      sub\n      swap1\n      revert\n    tag_285:\n        /* \"contracts/_BilboydLeasing.sol\":9236:9261  uint256 firstMonthlyQuota */\n      0x00\n        /* \"contracts/_BilboydLeasing.sol\":9264:9269  lease */\n      dup2\n        /* \"contracts/_BilboydLeasing.sol\":9264:9282  lease.monthlyQuota */\n      0x09\n      add\n      sload\n        /* \"contracts/_BilboydLeasing.sol\":9236:9282  uint256 firstMonthlyQuota = lease.monthlyQuota */\n      swap1\n      pop\n        /* \"contracts/_BilboydLeasing.sol\":9292:9316  uint256 amountToTransfer */\n      0x00\n        /* \"contracts/_BilboydLeasing.sol\":9319:9336  firstMonthlyQuota */\n      dup2\n        /* \"contracts/_BilboydLeasing.sol\":9292:9336  uint256 amountToTransfer = firstMonthlyQuota */\n      swap1\n      pop\n        /* \"contracts/_BilboydLeasing.sol\":9435:9452  firstMonthlyQuota */\n      dup2\n        /* \"contracts/_BilboydLeasing.sol\":9419:9424  lease */\n      dup4\n        /* \"contracts/_BilboydLeasing.sol\":9419:9432  lease.deposit */\n      0x06\n      add\n      sload\n        /* \"contracts/_BilboydLeasing.sol\":9419:9452  lease.deposit - firstMonthlyQuota */\n      tag_288\n      swap2\n      swap1\n      tag_265\n      jump\t// in\n    tag_288:\n        /* \"contracts/_BilboydLeasing.sol\":9403:9408  lease */\n      dup4\n        /* \"contracts/_BilboydLeasing.sol\":9403:9416  lease.deposit */\n      0x06\n      add\n        /* \"contracts/_BilboydLeasing.sol\":9403:9452  lease.deposit = lease.deposit - firstMonthlyQuota */\n      dup2\n      swap1\n      sstore\n      pop\n        /* \"contracts/_BilboydLeasing.sol\":9519:9528  bool sent */\n      0x00\n        /* \"contracts/_BilboydLeasing.sol\":9534:9540  _owner */\n      0x09\n      0x00\n      swap1\n      sload\n      swap1\n      0x0100\n      exp\n      swap1\n      div\n      0xffffffffffffffffffffffffffffffffffffffff\n      and\n        /* \"contracts/_BilboydLeasing.sol\":9534:9545  _owner.call */\n      0xffffffffffffffffffffffffffffffffffffffff\n      and\n        /* \"contracts/_BilboydLeasing.sol\":9553:9569  amountToTransfer */\n      dup3\n        /* \"contracts/_BilboydLeasing.sol\":9534:9574  _owner.call{value: amountToTransfer}(\"\") */\n      mload(0x40)\n      tag_289\n      swap1\n      tag_290\n      jump\t// in\n    tag_289:\n      0x00\n      mload(0x40)\n      dup1\n      dup4\n      sub\n      dup2\n      dup6\n      dup8\n      gas\n      call\n      swap3\n      pop\n      pop\n      pop\n      returndatasize\n      dup1\n      0x00\n      dup2\n      eq\n      tag_293\n      jumpi\n      mload(0x40)\n      swap2\n      pop\n      and(add(returndatasize, 0x3f), not(0x1f))\n      dup3\n      add\n      0x40\n      mstore\n      returndatasize\n      dup3\n      mstore\n      returndatasize\n      0x00\n      0x20\n      dup5\n      add\n      returndatacopy\n      jump(tag_292)\n    tag_293:\n      0x60\n      swap2\n      pop\n    tag_292:\n      pop\n        /* \"contracts/_BilboydLeasing.sol\":9518:9574  (bool sent, ) = _owner.call{value: amountToTransfer}(\"\") */\n      pop\n      swap1\n      pop\n        /* \"contracts/_BilboydLeasing.sol\":9592:9596  sent */\n      dup1\n        /* \"contracts/_BilboydLeasing.sol\":9584:9621  require(sent, \"Failed to send Ether\") */\n      tag_294\n      jumpi\n      mload(0x40)\n      0x08c379a000000000000000000000000000000000000000000000000000000000\n      dup2\n      mstore\n      0x04\n      add\n      tag_295\n      swap1\n      tag_296\n      jump\t// in\n    tag_295:\n      mload(0x40)\n      dup1\n      swap2\n      sub\n      swap1\n      revert\n    tag_294:\n        /* \"contracts/_BilboydLeasing.sol\":9685:9689  true */\n      0x01\n        /* \"contracts/_BilboydLeasing.sol\":9668:9673  lease */\n      dup5\n        /* \"contracts/_BilboydLeasing.sol\":9668:9682  lease.isActive */\n      0x05\n      add\n      0x00\n        /* \"contracts/_BilboydLeasing.sol\":9668:9689  lease.isActive = true */\n      0x0100\n      exp\n      dup2\n      sload\n      dup2\n      0xff\n      mul\n      not\n      and\n      swap1\n      dup4\n      iszero\n      iszero\n      mul\n      or\n      swap1\n      sstore\n      pop\n        /* \"contracts/_BilboydLeasing.sol\":9742:9782  _transfer(_owner, lease.lessee, tokenId) */\n      tag_297\n        /* \"contracts/_BilboydLeasing.sol\":9752:9758  _owner */\n      0x09\n      0x00\n      swap1\n      sload\n      swap1\n      0x0100\n      exp\n      swap1\n      div\n      0xffffffffffffffffffffffffffffffffffffffff\n      and\n        /* \"contracts/_BilboydLeasing.sol\":9760:9765  lease */\n      dup6\n        /* \"contracts/_BilboydLeasing.sol\":9760:9772  lease.lessee */\n      0x01\n      add\n      0x00\n      swap1\n      sload\n      swap1\n      0x0100\n      exp\n      swap1\n      div\n      0xffffffffffffffffffffffffffffffffffffffff\n      and\n        /* \"contracts/_BilboydLeasing.sol\":9774:9781  tokenId */\n      dup8\n        /* \"contracts/_BilboydLeasing.sol\":9742:9751  _transfer */\n      tag_156\n        /* \"contracts/_BilboydLeasing.sol\":9742:9782  _transfer(_owner, lease.lessee, tokenId) */\n      jump\t// in\n    tag_297:\n        /* \"contracts/_BilboydLeasing.sol\":8974:9789  {... */\n      pop\n      pop\n      pop\n      pop\n        /* \"contracts/_BilboydLeasing.sol\":8918:9789  function confirmLease(uint256 tokenId) public onlyOwner {... */\n      pop\n      jump\t// out\n        /* \"contracts/_BilboydLeasing.sol\":12417:12965  function cancelLeaseProposal(uint256 tokenId) public {... */\n    tag_112:\n        /* \"contracts/_BilboydLeasing.sol\":12480:12508  LeaseAgreement storage lease */\n      0x00\n        /* \"contracts/_BilboydLeasing.sol\":12511:12527  _leaseAgreements */\n      0x08\n        /* \"contracts/_BilboydLeasing.sol\":12511:12536  _leaseAgreements[tokenId] */\n      0x00\n        /* \"contracts/_BilboydLeasing.sol\":12528:12535  tokenId */\n      dup4\n        /* \"contracts/_BilboydLeasing.sol\":12511:12536  _leaseAgreements[tokenId] */\n      dup2\n      mstore\n      0x20\n      add\n      swap1\n      dup2\n      mstore\n      0x20\n      add\n      0x00\n      keccak256\n        /* \"contracts/_BilboydLeasing.sol\":12480:12536  LeaseAgreement storage lease = _leaseAgreements[tokenId] */\n      swap1\n      pop\n        /* \"contracts/_BilboydLeasing.sol\":12570:12580  msg.sender */\n      caller\n        /* \"contracts/_BilboydLeasing.sol\":12554:12580  lease.lessee == msg.sender */\n      0xffffffffffffffffffffffffffffffffffffffff\n      and\n        /* \"contracts/_BilboydLeasing.sol\":12554:12559  lease */\n      dup2\n        /* \"contracts/_BilboydLeasing.sol\":12554:12566  lease.lessee */\n      0x01\n      add\n      0x00\n      swap1\n      sload\n      swap1\n      0x0100\n      exp\n      swap1\n      div\n      0xffffffffffffffffffffffffffffffffffffffff\n      and\n        /* \"contracts/_BilboydLeasing.sol\":12554:12580  lease.lessee == msg.sender */\n      0xffffffffffffffffffffffffffffffffffffffff\n      and\n      eq\n        /* \"contracts/_BilboydLeasing.sol\":12546:12607  require(lease.lessee == msg.sender, \"Only lessee can cancel\") */\n      tag_299\n      jumpi\n      mload(0x40)\n      0x08c379a000000000000000000000000000000000000000000000000000000000\n      dup2\n      mstore\n      0x04\n      add\n      tag_300\n      swap1\n      tag_301\n      jump\t// in\n    tag_300:\n      mload(0x40)\n      dup1\n      swap2\n      sub\n      swap1\n      revert\n    tag_299:\n        /* \"contracts/_BilboydLeasing.sol\":12626:12631  lease */\n      dup1\n        /* \"contracts/_BilboydLeasing.sol\":12626:12640  lease.isActive */\n      0x05\n      add\n      0x00\n      swap1\n      sload\n      swap1\n      0x0100\n      exp\n      swap1\n      div\n      0xff\n      and\n        /* \"contracts/_BilboydLeasing.sol\":12625:12640  !lease.isActive */\n      iszero\n        /* \"contracts/_BilboydLeasing.sol\":12617:12668  require(!lease.isActive, \"Lease is already active\") */\n      tag_302\n      jumpi\n      mload(0x40)\n      0x08c379a000000000000000000000000000000000000000000000000000000000\n      dup2\n      mstore\n      0x04\n      add\n      tag_303\n      swap1\n      tag_304\n      jump\t// in\n    tag_303:\n      mload(0x40)\n      dup1\n      swap2\n      sub\n      swap1\n      revert\n    tag_302:\n        /* \"contracts/_BilboydLeasing.sol\":12679:12699  uint256 refundAmount */\n      0x00\n        /* \"contracts/_BilboydLeasing.sol\":12718:12723  lease */\n      dup2\n        /* \"contracts/_BilboydLeasing.sol\":12718:12736  lease.monthlyQuota */\n      0x09\n      add\n      sload\n        /* \"contracts/_BilboydLeasing.sol\":12702:12707  lease */\n      dup3\n        /* \"contracts/_BilboydLeasing.sol\":12702:12715  lease.deposit */\n      0x06\n      add\n      sload\n        /* \"contracts/_BilboydLeasing.sol\":12702:12736  lease.deposit + lease.monthlyQuota */\n      tag_305\n      swap2\n      swap1\n      tag_205\n      jump\t// in\n    tag_305:\n        /* \"contracts/_BilboydLeasing.sol\":12679:12736  uint256 refundAmount = lease.deposit + lease.monthlyQuota */\n      swap1\n      pop\n        /* \"contracts/_BilboydLeasing.sol\":12791:12807  _leaseAgreements */\n      0x08\n        /* \"contracts/_BilboydLeasing.sol\":12791:12816  _leaseAgreements[tokenId] */\n      0x00\n        /* \"contracts/_BilboydLeasing.sol\":12808:12815  tokenId */\n      dup5\n        /* \"contracts/_BilboydLeasing.sol\":12791:12816  _leaseAgreements[tokenId] */\n      dup2\n      mstore\n      0x20\n      add\n      swap1\n      dup2\n      mstore\n      0x20\n      add\n      0x00\n      keccak256\n      0x00\n        /* \"contracts/_BilboydLeasing.sol\":12784:12816  delete _leaseAgreements[tokenId] */\n      dup1\n      dup3\n      add\n      0x00\n      swap1\n      sstore\n      0x01\n      dup3\n      add\n      exp(0x0100, 0x00)\n      dup2\n      sload\n      swap1\n      0xffffffffffffffffffffffffffffffffffffffff\n      mul\n      not\n      and\n      swap1\n      sstore\n      0x02\n      dup3\n      add\n      0x00\n      swap1\n      sstore\n      0x03\n      dup3\n      add\n      0x00\n      swap1\n      sstore\n      0x04\n      dup3\n      add\n      0x00\n      swap1\n      sstore\n      0x05\n      dup3\n      add\n      exp(0x0100, 0x00)\n      dup2\n      sload\n      swap1\n      0xff\n      mul\n      not\n      and\n      swap1\n      sstore\n      0x06\n      dup3\n      add\n      0x00\n      swap1\n      sstore\n      0x07\n      dup3\n      add\n      0x00\n      swap1\n      sstore\n      0x08\n      dup3\n      add\n      0x00\n      swap1\n      sstore\n      0x09\n      dup3\n      add\n      0x00\n      swap1\n      sstore\n      pop\n      pop\n        /* \"contracts/_BilboydLeasing.sol\":12856:12865  bool sent */\n      0x00\n        /* \"contracts/_BilboydLeasing.sol\":12871:12881  msg.sender */\n      caller\n        /* \"contracts/_BilboydLeasing.sol\":12871:12886  msg.sender.call */\n      0xffffffffffffffffffffffffffffffffffffffff\n      and\n        /* \"contracts/_BilboydLeasing.sol\":12894:12906  refundAmount */\n      dup3\n        /* \"contracts/_BilboydLeasing.sol\":12871:12911  msg.sender.call{value: refundAmount}(\"\") */\n      mload(0x40)\n      tag_306\n      swap1\n      tag_290\n      jump\t// in\n    tag_306:\n      0x00\n      mload(0x40)\n      dup1\n      dup4\n      sub\n      dup2\n      dup6\n      dup8\n      gas\n      call\n      swap3\n      pop\n      pop\n      pop\n      returndatasize\n      dup1\n      0x00\n      dup2\n      eq\n      tag_309\n      jumpi\n      mload(0x40)\n      swap2\n      pop\n      and(add(returndatasize, 0x3f), not(0x1f))\n      dup3\n      add\n      0x40\n      mstore\n      returndatasize\n      dup3\n      mstore\n      returndatasize\n      0x00\n      0x20\n      dup5\n      add\n      returndatacopy\n      jump(tag_308)\n    tag_309:\n      0x60\n      swap2\n      pop\n    tag_308:\n      pop\n        /* \"contracts/_BilboydLeasing.sol\":12855:12911  (bool sent, ) = msg.sender.call{value: refundAmount}(\"\") */\n      pop\n      swap1\n      pop\n        /* \"contracts/_BilboydLeasing.sol\":12929:12933  sent */\n      dup1\n        /* \"contracts/_BilboydLeasing.sol\":12921:12958  require(sent, \"Failed to send Ether\") */\n      tag_310\n      jumpi\n      mload(0x40)\n      0x08c379a000000000000000000000000000000000000000000000000000000000\n      dup2\n      mstore\n      0x04\n      add\n      tag_311\n      swap1\n      tag_296\n      jump\t// in\n    tag_311:\n      mload(0x40)\n      dup1\n      swap2\n      sub\n      swap1\n      revert\n    tag_310:\n        /* \"contracts/_BilboydLeasing.sol\":12470:12965  {... */\n      pop\n      pop\n      pop\n        /* \"contracts/_BilboydLeasing.sol\":12417:12965  function cancelLeaseProposal(uint256 tokenId) public {... */\n      pop\n      jump\t// out\n        /* \"contracts/_BilboydLeasing.sol\":11040:11749  function makeMonthlyPayment(uint256 tokenId) public payable {... */\n    tag_115:\n        /* \"contracts/_BilboydLeasing.sol\":11110:11138  LeaseAgreement storage lease */\n      0x00\n        /* \"contracts/_BilboydLeasing.sol\":11141:11157  _leaseAgreements */\n      0x08\n        /* \"contracts/_BilboydLeasing.sol\":11141:11166  _leaseAgreements[tokenId] */\n      0x00\n        /* \"contracts/_BilboydLeasing.sol\":11158:11165  tokenId */\n      dup4\n        /* \"contracts/_BilboydLeasing.sol\":11141:11166  _leaseAgreements[tokenId] */\n      dup2\n      mstore\n      0x20\n      add\n      swap1\n      dup2\n      mstore\n      0x20\n      add\n      0x00\n      keccak256\n        /* \"contracts/_BilboydLeasing.sol\":11110:11166  LeaseAgreement storage lease = _leaseAgreements[tokenId] */\n      swap1\n      pop\n        /* \"contracts/_BilboydLeasing.sol\":11200:11210  msg.sender */\n      caller\n        /* \"contracts/_BilboydLeasing.sol\":11184:11210  lease.lessee == msg.sender */\n      0xffffffffffffffffffffffffffffffffffffffff\n      and\n        /* \"contracts/_BilboydLeasing.sol\":11184:11189  lease */\n      dup2\n        /* \"contracts/_BilboydLeasing.sol\":11184:11196  lease.lessee */\n      0x01\n      add\n      0x00\n      swap1\n      sload\n      swap1\n      0x0100\n      exp\n      swap1\n      div\n      0xffffffffffffffffffffffffffffffffffffffff\n      and\n        /* \"contracts/_BilboydLeasing.sol\":11184:11210  lease.lessee == msg.sender */\n      0xffffffffffffffffffffffffffffffffffffffff\n      and\n      eq\n        /* \"contracts/_BilboydLeasing.sol\":11176:11244  require(lease.lessee == msg.sender, \"Only lessee can make payments\") */\n      tag_313\n      jumpi\n      mload(0x40)\n      0x08c379a000000000000000000000000000000000000000000000000000000000\n      dup2\n      mstore\n      0x04\n      add\n      tag_314\n      swap1\n      tag_315\n      jump\t// in\n    tag_314:\n      mload(0x40)\n      dup1\n      swap2\n      sub\n      swap1\n      revert\n    tag_313:\n        /* \"contracts/_BilboydLeasing.sol\":11262:11267  lease */\n      dup1\n        /* \"contracts/_BilboydLeasing.sol\":11262:11276  lease.isActive */\n      0x05\n      add\n      0x00\n      swap1\n      sload\n      swap1\n      0x0100\n      exp\n      swap1\n      div\n      0xff\n      and\n        /* \"contracts/_BilboydLeasing.sol\":11254:11300  require(lease.isActive, \"Lease is not active\") */\n      tag_316\n      jumpi\n      mload(0x40)\n      0x08c379a000000000000000000000000000000000000000000000000000000000\n      dup2\n      mstore\n      0x04\n      add\n      tag_317\n      swap1\n      tag_213\n      jump\t// in\n    tag_317:\n      mload(0x40)\n      dup1\n      swap2\n      sub\n      swap1\n      revert\n    tag_316:\n        /* \"contracts/_BilboydLeasing.sol\":11331:11336  lease */\n      dup1\n        /* \"contracts/_BilboydLeasing.sol\":11331:11349  lease.monthlyQuota */\n      0x09\n      add\n      sload\n        /* \"contracts/_BilboydLeasing.sol\":11318:11327  msg.value */\n      callvalue\n        /* \"contracts/_BilboydLeasing.sol\":11318:11349  msg.value == lease.monthlyQuota */\n      eq\n        /* \"contracts/_BilboydLeasing.sol\":11310:11378  require(msg.value == lease.monthlyQuota, \"Incorrect payment amount\") */\n      tag_318\n      jumpi\n      mload(0x40)\n      0x08c379a000000000000000000000000000000000000000000000000000000000\n      dup2\n      mstore\n      0x04\n      add\n      tag_319\n      swap1\n      tag_202\n      jump\t// in\n    tag_319:\n      mload(0x40)\n      dup1\n      swap2\n      sub\n      swap1\n      revert\n    tag_318:\n        /* \"contracts/_BilboydLeasing.sol\":11438:11444  5 days */\n      0x069780\n        /* \"contracts/_BilboydLeasing.sol\":11415:11420  lease */\n      dup2\n        /* \"contracts/_BilboydLeasing.sol\":11415:11435  lease.paymentDueDate */\n      0x08\n      add\n      sload\n        /* \"contracts/_BilboydLeasing.sol\":11415:11444  lease.paymentDueDate + 5 days */\n      tag_320\n      swap2\n      swap1\n      tag_205\n      jump\t// in\n    tag_320:\n        /* \"contracts/_BilboydLeasing.sol\":11396:11411  block.timestamp */\n      timestamp\n        /* \"contracts/_BilboydLeasing.sol\":11396:11444  block.timestamp <= lease.paymentDueDate + 5 days */\n      gt\n      iszero\n        /* \"contracts/_BilboydLeasing.sol\":11388:11467  require(block.timestamp <= lease.paymentDueDate + 5 days, \"Payment is overdue\") */\n      tag_321\n      jumpi\n      mload(0x40)\n      0x08c379a000000000000000000000000000000000000000000000000000000000\n      dup2\n      mstore\n      0x04\n      add\n      tag_322\n      swap1\n      tag_323\n      jump\t// in\n    tag_322:\n      mload(0x40)\n      dup1\n      swap2\n      sub\n      swap1\n      revert\n    tag_321:\n        /* \"contracts/_BilboydLeasing.sol\":11540:11555  block.timestamp */\n      timestamp\n        /* \"contracts/_BilboydLeasing.sol\":11516:11521  lease */\n      dup2\n        /* \"contracts/_BilboydLeasing.sol\":11516:11537  lease.lastPaymentTime */\n      0x07\n      add\n        /* \"contracts/_BilboydLeasing.sol\":11516:11555  lease.lastPaymentTime = block.timestamp */\n      dup2\n      swap1\n      sstore\n      pop\n        /* \"contracts/_BilboydLeasing.sol\":11589:11596  30 days */\n      0x278d00\n        /* \"contracts/_BilboydLeasing.sol\":11565:11570  lease */\n      dup2\n        /* \"contracts/_BilboydLeasing.sol\":11565:11585  lease.paymentDueDate */\n      0x08\n      add\n      0x00\n        /* \"contracts/_BilboydLeasing.sol\":11565:11596  lease.paymentDueDate += 30 days */\n      dup3\n      dup3\n      sload\n      tag_324\n      swap2\n      swap1\n      tag_205\n      jump\t// in\n    tag_324:\n      swap3\n      pop\n      pop\n      dup2\n      swap1\n      sstore\n      pop\n        /* \"contracts/_BilboydLeasing.sol\":11647:11656  bool sent */\n      0x00\n        /* \"contracts/_BilboydLeasing.sol\":11662:11668  _owner */\n      0x09\n      0x00\n      swap1\n      sload\n      swap1\n      0x0100\n      exp\n      swap1\n      div\n      0xffffffffffffffffffffffffffffffffffffffff\n      and\n        /* \"contracts/_BilboydLeasing.sol\":11662:11673  _owner.call */\n      0xffffffffffffffffffffffffffffffffffffffff\n      and\n        /* \"contracts/_BilboydLeasing.sol\":11681:11690  msg.value */\n      callvalue\n        /* \"contracts/_BilboydLeasing.sol\":11662:11695  _owner.call{value: msg.value}(\"\") */\n      mload(0x40)\n      tag_325\n      swap1\n      tag_290\n      jump\t// in\n    tag_325:\n      0x00\n      mload(0x40)\n      dup1\n      dup4\n      sub\n      dup2\n      dup6\n      dup8\n      gas\n      call\n      swap3\n      pop\n      pop\n      pop\n      returndatasize\n      dup1\n      0x00\n      dup2\n      eq\n      tag_328\n      jumpi\n      mload(0x40)\n      swap2\n      pop\n      and(add(returndatasize, 0x3f), not(0x1f))\n      dup3\n      add\n      0x40\n      mstore\n      returndatasize\n      dup3\n      mstore\n      returndatasize\n      0x00\n      0x20\n      dup5\n      add\n      returndatacopy\n      jump(tag_327)\n    tag_328:\n      0x60\n      swap2\n      pop\n    tag_327:\n      pop\n        /* \"contracts/_BilboydLeasing.sol\":11646:11695  (bool sent, ) = _owner.call{value: msg.value}(\"\") */\n      pop\n      swap1\n      pop\n        /* \"contracts/_BilboydLeasing.sol\":11713:11717  sent */\n      dup1\n        /* \"contracts/_BilboydLeasing.sol\":11705:11742  require(sent, \"Failed to send Ether\") */\n      tag_329\n      jumpi\n      mload(0x40)\n      0x08c379a000000000000000000000000000000000000000000000000000000000\n      dup2\n      mstore\n      0x04\n      add\n      tag_330\n      swap1\n      tag_296\n      jump\t// in\n    tag_330:\n      mload(0x40)\n      dup1\n      swap2\n      sub\n      swap1\n      revert\n    tag_329:\n        /* \"contracts/_BilboydLeasing.sol\":11100:11749  {... */\n      pop\n      pop\n        /* \"contracts/_BilboydLeasing.sol\":11040:11749  function makeMonthlyPayment(uint256 tokenId) public payable {... */\n      pop\n      jump\t// out\n        /* \"contracts/_BilboydLeasing.sol\":13461:13925  function updateMileage(uint256 tokenId, uint256 newMileage) public {... */\n    tag_120:\n        /* \"contracts/_BilboydLeasing.sol\":13546:13561  exists(tokenId) */\n      tag_332\n        /* \"contracts/_BilboydLeasing.sol\":13553:13560  tokenId */\n      dup3\n        /* \"contracts/_BilboydLeasing.sol\":13546:13552  exists */\n      tag_62\n        /* \"contracts/_BilboydLeasing.sol\":13546:13561  exists(tokenId) */\n      jump\t// in\n    tag_332:\n        /* \"contracts/_BilboydLeasing.sol\":13538:13589  require(exists(tokenId), \"Token ID does not exist\") */\n      tag_333\n      jumpi\n      mload(0x40)\n      0x08c379a000000000000000000000000000000000000000000000000000000000\n      dup2\n      mstore\n      0x04\n      add\n      tag_334\n      swap1\n      tag_138\n      jump\t// in\n    tag_334:\n      mload(0x40)\n      dup1\n      swap2\n      sub\n      swap1\n      revert\n    tag_333:\n        /* \"contracts/_BilboydLeasing.sol\":13658:13685  LeaseAgreement memory lease */\n      0x00\n        /* \"contracts/_BilboydLeasing.sol\":13688:13704  _leaseAgreements */\n      0x08\n        /* \"contracts/_BilboydLeasing.sol\":13688:13713  _leaseAgreements[tokenId] */\n      0x00\n        /* \"contracts/_BilboydLeasing.sol\":13705:13712  tokenId */\n      dup5\n        /* \"contracts/_BilboydLeasing.sol\":13688:13713  _leaseAgreements[tokenId] */\n      dup2\n      mstore\n      0x20\n      add\n      swap1\n      dup2\n      mstore\n      0x20\n      add\n      0x00\n      keccak256\n        /* \"contracts/_BilboydLeasing.sol\":13658:13713  LeaseAgreement memory lease = _leaseAgreements[tokenId] */\n      mload(0x40)\n      dup1\n      0x0140\n      add\n      0x40\n      mstore\n      swap1\n      dup2\n      0x00\n      dup3\n      add\n      sload\n      dup2\n      mstore\n      0x20\n      add\n      0x01\n      dup3\n      add\n      0x00\n      swap1\n      sload\n      swap1\n      0x0100\n      exp\n      swap1\n      div\n      0xffffffffffffffffffffffffffffffffffffffff\n      and\n      0xffffffffffffffffffffffffffffffffffffffff\n      and\n      0xffffffffffffffffffffffffffffffffffffffff\n      and\n      dup2\n      mstore\n      0x20\n      add\n      0x02\n      dup3\n      add\n      sload\n      dup2\n      mstore\n      0x20\n      add\n      0x03\n      dup3\n      add\n      sload\n      dup2\n      mstore\n      0x20\n      add\n      0x04\n      dup3\n      add\n      sload\n      dup2\n      mstore\n      0x20\n      add\n      0x05\n      dup3\n      add\n      0x00\n      swap1\n      sload\n      swap1\n      0x0100\n      exp\n      swap1\n      div\n      0xff\n      and\n      iszero\n      iszero\n      iszero\n      iszero\n      dup2\n      mstore\n      0x20\n      add\n      0x06\n      dup3\n      add\n      sload\n      dup2\n      mstore\n      0x20\n      add\n      0x07\n      dup3\n      add\n      sload\n      dup2\n      mstore\n      0x20\n      add\n      0x08\n      dup3\n      add\n      sload\n      dup2\n      mstore\n      0x20\n      add\n      0x09\n      dup3\n      add\n      sload\n      dup2\n      mstore\n      pop\n      pop\n      swap1\n      pop\n        /* \"contracts/_BilboydLeasing.sol\":13758:13774  ownerOf(tokenId) */\n      tag_335\n        /* \"contracts/_BilboydLeasing.sol\":13766:13773  tokenId */\n      dup4\n        /* \"contracts/_BilboydLeasing.sol\":13758:13765  ownerOf */\n      tag_83\n        /* \"contracts/_BilboydLeasing.sol\":13758:13774  ownerOf(tokenId) */\n      jump\t// in\n    tag_335:\n        /* \"contracts/_BilboydLeasing.sol\":13744:13774  msg.sender == ownerOf(tokenId) */\n      0xffffffffffffffffffffffffffffffffffffffff\n      and\n        /* \"contracts/_BilboydLeasing.sol\":13744:13754  msg.sender */\n      caller\n        /* \"contracts/_BilboydLeasing.sol\":13744:13774  msg.sender == ownerOf(tokenId) */\n      0xffffffffffffffffffffffffffffffffffffffff\n      and\n      eq\n        /* \"contracts/_BilboydLeasing.sol\":13744:13804  msg.sender == ownerOf(tokenId) || msg.sender == lease.lessee */\n      dup1\n      tag_336\n      jumpi\n      pop\n        /* \"contracts/_BilboydLeasing.sol\":13792:13797  lease */\n      dup1\n        /* \"contracts/_BilboydLeasing.sol\":13792:13804  lease.lessee */\n      0x20\n      add\n      mload\n        /* \"contracts/_BilboydLeasing.sol\":13778:13804  msg.sender == lease.lessee */\n      0xffffffffffffffffffffffffffffffffffffffff\n      and\n        /* \"contracts/_BilboydLeasing.sol\":13778:13788  msg.sender */\n      caller\n        /* \"contracts/_BilboydLeasing.sol\":13778:13804  msg.sender == lease.lessee */\n      0xffffffffffffffffffffffffffffffffffffffff\n      and\n      eq\n        /* \"contracts/_BilboydLeasing.sol\":13744:13804  msg.sender == ownerOf(tokenId) || msg.sender == lease.lessee */\n    tag_336:\n        /* \"contracts/_BilboydLeasing.sol\":13723:13860  require(... */\n      tag_337\n      jumpi\n      mload(0x40)\n      0x08c379a000000000000000000000000000000000000000000000000000000000\n      dup2\n      mstore\n      0x04\n      add\n      tag_338\n      swap1\n      tag_339\n      jump\t// in\n    tag_338:\n      mload(0x40)\n      dup1\n      swap2\n      sub\n      swap1\n      revert\n    tag_337:\n        /* \"contracts/_BilboydLeasing.sol\":13908:13918  newMileage */\n      dup2\n        /* \"contracts/_BilboydLeasing.sol\":13870:13881  _carDetails */\n      0x07\n        /* \"contracts/_BilboydLeasing.sol\":13870:13890  _carDetails[tokenId] */\n      0x00\n        /* \"contracts/_BilboydLeasing.sol\":13882:13889  tokenId */\n      dup6\n        /* \"contracts/_BilboydLeasing.sol\":13870:13890  _carDetails[tokenId] */\n      dup2\n      mstore\n      0x20\n      add\n      swap1\n      dup2\n      mstore\n      0x20\n      add\n      0x00\n      keccak256\n        /* \"contracts/_BilboydLeasing.sol\":13870:13905  _carDetails[tokenId].currentMileage */\n      0x04\n      add\n        /* \"contracts/_BilboydLeasing.sol\":13870:13918  _carDetails[tokenId].currentMileage = newMileage */\n      dup2\n      swap1\n      sstore\n      pop\n        /* \"contracts/_BilboydLeasing.sol\":13528:13925  {... */\n      pop\n        /* \"contracts/_BilboydLeasing.sol\":13461:13925  function updateMileage(uint256 tokenId, uint256 newMileage) public {... */\n      pop\n      pop\n      jump\t// out\n        /* \"contracts/_BilboydLeasing.sol\":4461:4620  function isApprovedForAll(address ownerAddress, address operator) public view returns (bool) {... */\n    tag_125:\n        /* \"contracts/_BilboydLeasing.sol\":4548:4552  bool */\n      0x00\n        /* \"contracts/_BilboydLeasing.sol\":4571:4589  _operatorApprovals */\n      0x03\n        /* \"contracts/_BilboydLeasing.sol\":4571:4603  _operatorApprovals[ownerAddress] */\n      0x00\n        /* \"contracts/_BilboydLeasing.sol\":4590:4602  ownerAddress */\n      dup5\n        /* \"contracts/_BilboydLeasing.sol\":4571:4603  _operatorApprovals[ownerAddress] */\n      0xffffffffffffffffffffffffffffffffffffffff\n      and\n      0xffffffffffffffffffffffffffffffffffffffff\n      and\n      dup2\n      mstore\n      0x20\n      add\n      swap1\n      dup2\n      mstore\n      0x20\n      add\n      0x00\n      keccak256\n        /* \"contracts/_BilboydLeasing.sol\":4571:4613  _operatorApprovals[ownerAddress][operator] */\n      0x00\n        /* \"contracts/_BilboydLeasing.sol\":4604:4612  operator */\n      dup4\n        /* \"contracts/_BilboydLeasing.sol\":4571:4613  _operatorApprovals[ownerAddress][operator] */\n      0xffffffffffffffffffffffffffffffffffffffff\n      and\n      0xffffffffffffffffffffffffffffffffffffffff\n      and\n      dup2\n      mstore\n      0x20\n      add\n      swap1\n      dup2\n      mstore\n      0x20\n      add\n      0x00\n      keccak256\n      0x00\n      swap1\n      sload\n      swap1\n      0x0100\n      exp\n      swap1\n      div\n      0xff\n      and\n        /* \"contracts/_BilboydLeasing.sol\":4564:4613  return _operatorApprovals[ownerAddress][operator] */\n      swap1\n      pop\n        /* \"contracts/_BilboydLeasing.sol\":4461:4620  function isApprovedForAll(address ownerAddress, address operator) public view returns (bool) {... */\n      swap3\n      swap2\n      pop\n      pop\n      jump\t// out\n        /* \"contracts/_BilboydLeasing.sol\":5535:5887  function _isApprovedOrOwner(address spender, uint256 tokenId) internal view returns (bool) {... */\n    tag_151:\n        /* \"contracts/_BilboydLeasing.sol\":5620:5624  bool */\n      0x00\n        /* \"contracts/_BilboydLeasing.sol\":5644:5659  exists(tokenId) */\n      tag_342\n        /* \"contracts/_BilboydLeasing.sol\":5651:5658  tokenId */\n      dup3\n        /* \"contracts/_BilboydLeasing.sol\":5644:5650  exists */\n      tag_62\n        /* \"contracts/_BilboydLeasing.sol\":5644:5659  exists(tokenId) */\n      jump\t// in\n    tag_342:\n        /* \"contracts/_BilboydLeasing.sol\":5636:5687  require(exists(tokenId), \"Token ID does not exist\") */\n      tag_343\n      jumpi\n      mload(0x40)\n      0x08c379a000000000000000000000000000000000000000000000000000000000\n      dup2\n      mstore\n      0x04\n      add\n      tag_344\n      swap1\n      tag_138\n      jump\t// in\n    tag_344:\n      mload(0x40)\n      dup1\n      swap2\n      sub\n      swap1\n      revert\n    tag_343:\n        /* \"contracts/_BilboydLeasing.sol\":5697:5717  address ownerAddress */\n      0x00\n        /* \"contracts/_BilboydLeasing.sol\":5720:5736  ownerOf(tokenId) */\n      tag_345\n        /* \"contracts/_BilboydLeasing.sol\":5728:5735  tokenId */\n      dup4\n        /* \"contracts/_BilboydLeasing.sol\":5720:5727  ownerOf */\n      tag_83\n        /* \"contracts/_BilboydLeasing.sol\":5720:5736  ownerOf(tokenId) */\n      jump\t// in\n    tag_345:\n        /* \"contracts/_BilboydLeasing.sol\":5697:5736  address ownerAddress = ownerOf(tokenId) */\n      swap1\n      pop\n        /* \"contracts/_BilboydLeasing.sol\":5765:5777  ownerAddress */\n      dup1\n        /* \"contracts/_BilboydLeasing.sol\":5754:5777  spender == ownerAddress */\n      0xffffffffffffffffffffffffffffffffffffffff\n      and\n        /* \"contracts/_BilboydLeasing.sol\":5754:5761  spender */\n      dup5\n        /* \"contracts/_BilboydLeasing.sol\":5754:5777  spender == ownerAddress */\n      0xffffffffffffffffffffffffffffffffffffffff\n      and\n      eq\n        /* \"contracts/_BilboydLeasing.sol\":5754:5824  spender == ownerAddress ||... */\n      dup1\n      tag_346\n      jumpi\n      pop\n        /* \"contracts/_BilboydLeasing.sol\":5817:5824  spender */\n      dup4\n        /* \"contracts/_BilboydLeasing.sol\":5793:5824  getApproved(tokenId) == spender */\n      0xffffffffffffffffffffffffffffffffffffffff\n      and\n        /* \"contracts/_BilboydLeasing.sol\":5793:5813  getApproved(tokenId) */\n      tag_347\n        /* \"contracts/_BilboydLeasing.sol\":5805:5812  tokenId */\n      dup5\n        /* \"contracts/_BilboydLeasing.sol\":5793:5804  getApproved */\n      tag_34\n        /* \"contracts/_BilboydLeasing.sol\":5793:5813  getApproved(tokenId) */\n      jump\t// in\n    tag_347:\n        /* \"contracts/_BilboydLeasing.sol\":5793:5824  getApproved(tokenId) == spender */\n      0xffffffffffffffffffffffffffffffffffffffff\n      and\n      eq\n        /* \"contracts/_BilboydLeasing.sol\":5754:5824  spender == ownerAddress ||... */\n    tag_346:\n        /* \"contracts/_BilboydLeasing.sol\":5754:5879  spender == ownerAddress ||... */\n      dup1\n      tag_348\n      jumpi\n      pop\n        /* \"contracts/_BilboydLeasing.sol\":5840:5879  isApprovedForAll(ownerAddress, spender) */\n      tag_349\n        /* \"contracts/_BilboydLeasing.sol\":5857:5869  ownerAddress */\n      dup2\n        /* \"contracts/_BilboydLeasing.sol\":5871:5878  spender */\n      dup6\n        /* \"contracts/_BilboydLeasing.sol\":5840:5856  isApprovedForAll */\n      tag_125\n        /* \"contracts/_BilboydLeasing.sol\":5840:5879  isApprovedForAll(ownerAddress, spender) */\n      jump\t// in\n    tag_349:\n        /* \"contracts/_BilboydLeasing.sol\":5754:5879  spender == ownerAddress ||... */\n    tag_348:\n        /* \"contracts/_BilboydLeasing.sol\":5746:5880  return (spender == ownerAddress ||... */\n      swap2\n      pop\n      pop\n        /* \"contracts/_BilboydLeasing.sol\":5535:5887  function _isApprovedOrOwner(address spender, uint256 tokenId) internal view returns (bool) {... */\n      swap3\n      swap2\n      pop\n      pop\n      jump\t// out\n        /* \"contracts/_BilboydLeasing.sol\":5025:5441  function _transfer(... */\n    tag_156:\n        /* \"contracts/_BilboydLeasing.sol\":5164:5168  from */\n      dup3\n        /* \"contracts/_BilboydLeasing.sol\":5144:5168  ownerOf(tokenId) == from */\n      0xffffffffffffffffffffffffffffffffffffffff\n      and\n        /* \"contracts/_BilboydLeasing.sol\":5144:5160  ownerOf(tokenId) */\n      tag_351\n        /* \"contracts/_BilboydLeasing.sol\":5152:5159  tokenId */\n      dup3\n        /* \"contracts/_BilboydLeasing.sol\":5144:5151  ownerOf */\n      tag_83\n        /* \"contracts/_BilboydLeasing.sol\":5144:5160  ownerOf(tokenId) */\n      jump\t// in\n    tag_351:\n        /* \"contracts/_BilboydLeasing.sol\":5144:5168  ownerOf(tokenId) == from */\n      0xffffffffffffffffffffffffffffffffffffffff\n      and\n      eq\n        /* \"contracts/_BilboydLeasing.sol\":5136:5198  require(ownerOf(tokenId) == from, \"From address is not owner\") */\n      tag_352\n      jumpi\n      mload(0x40)\n      0x08c379a000000000000000000000000000000000000000000000000000000000\n      dup2\n      mstore\n      0x04\n      add\n      tag_353\n      swap1\n      tag_354\n      jump\t// in\n    tag_353:\n      mload(0x40)\n      dup1\n      swap2\n      sub\n      swap1\n      revert\n    tag_352:\n        /* \"contracts/_BilboydLeasing.sol\":5230:5231  0 */\n      0x00\n        /* \"contracts/_BilboydLeasing.sol\":5216:5232  to != address(0) */\n      0xffffffffffffffffffffffffffffffffffffffff\n      and\n        /* \"contracts/_BilboydLeasing.sol\":5216:5218  to */\n      dup3\n        /* \"contracts/_BilboydLeasing.sol\":5216:5232  to != address(0) */\n      0xffffffffffffffffffffffffffffffffffffffff\n      and\n      sub\n        /* \"contracts/_BilboydLeasing.sol\":5208:5261  require(to != address(0), \"Transfer to zero address\") */\n      tag_355\n      jumpi\n      mload(0x40)\n      0x08c379a000000000000000000000000000000000000000000000000000000000\n      dup2\n      mstore\n      0x04\n      add\n      tag_356\n      swap1\n      tag_357\n      jump\t// in\n    tag_356:\n      mload(0x40)\n      dup1\n      swap2\n      sub\n      swap1\n      revert\n    tag_355:\n        /* \"contracts/_BilboydLeasing.sol\":5272:5301  _approve(address(0), tokenId) */\n      tag_358\n        /* \"contracts/_BilboydLeasing.sol\":5289:5290  0 */\n      0x00\n        /* \"contracts/_BilboydLeasing.sol\":5293:5300  tokenId */\n      dup3\n        /* \"contracts/_BilboydLeasing.sol\":5272:5280  _approve */\n      tag_359\n        /* \"contracts/_BilboydLeasing.sol\":5272:5301  _approve(address(0), tokenId) */\n      jump\t// in\n    tag_358:\n        /* \"contracts/_BilboydLeasing.sol\":5331:5332  1 */\n      0x01\n        /* \"contracts/_BilboydLeasing.sol\":5312:5321  _balances */\n      dup1\n        /* \"contracts/_BilboydLeasing.sol\":5312:5327  _balances[from] */\n      0x00\n        /* \"contracts/_BilboydLeasing.sol\":5322:5326  from */\n      dup6\n        /* \"contracts/_BilboydLeasing.sol\":5312:5327  _balances[from] */\n      0xffffffffffffffffffffffffffffffffffffffff\n      and\n      0xffffffffffffffffffffffffffffffffffffffff\n      and\n      dup2\n      mstore\n      0x20\n      add\n      swap1\n      dup2\n      mstore\n      0x20\n      add\n      0x00\n      keccak256\n      0x00\n        /* \"contracts/_BilboydLeasing.sol\":5312:5332  _balances[from] -= 1 */\n      dup3\n      dup3\n      sload\n      tag_360\n      swap2\n      swap1\n      tag_265\n      jump\t// in\n    tag_360:\n      swap3\n      pop\n      pop\n      dup2\n      swap1\n      sstore\n      pop\n        /* \"contracts/_BilboydLeasing.sol\":5359:5360  1 */\n      0x01\n        /* \"contracts/_BilboydLeasing.sol\":5342:5351  _balances */\n      dup1\n        /* \"contracts/_BilboydLeasing.sol\":5342:5355  _balances[to] */\n      0x00\n        /* \"contracts/_BilboydLeasing.sol\":5352:5354  to */\n      dup5\n        /* \"contracts/_BilboydLeasing.sol\":5342:5355  _balances[to] */\n      0xffffffffffffffffffffffffffffffffffffffff\n      and\n      0xffffffffffffffffffffffffffffffffffffffff\n      and\n      dup2\n      mstore\n      0x20\n      add\n      swap1\n      dup2\n      mstore\n      0x20\n      add\n      0x00\n      keccak256\n      0x00\n        /* \"contracts/_BilboydLeasing.sol\":5342:5360  _balances[to] += 1 */\n      dup3\n      dup3\n      sload\n      tag_361\n      swap2\n      swap1\n      tag_205\n      jump\t// in\n    tag_361:\n      swap3\n      pop\n      pop\n      dup2\n      swap1\n      sstore\n      pop\n        /* \"contracts/_BilboydLeasing.sol\":5389:5391  to */\n      dup2\n        /* \"contracts/_BilboydLeasing.sol\":5370:5377  _owners */\n      0x00\n        /* \"contracts/_BilboydLeasing.sol\":5370:5386  _owners[tokenId] */\n      dup1\n        /* \"contracts/_BilboydLeasing.sol\":5378:5385  tokenId */\n      dup4\n        /* \"contracts/_BilboydLeasing.sol\":5370:5386  _owners[tokenId] */\n      dup2\n      mstore\n      0x20\n      add\n      swap1\n      dup2\n      mstore\n      0x20\n      add\n      0x00\n      keccak256\n      0x00\n        /* \"contracts/_BilboydLeasing.sol\":5370:5391  _owners[tokenId] = to */\n      0x0100\n      exp\n      dup2\n      sload\n      dup2\n      0xffffffffffffffffffffffffffffffffffffffff\n      mul\n      not\n      and\n      swap1\n      dup4\n      0xffffffffffffffffffffffffffffffffffffffff\n      and\n      mul\n      or\n      swap1\n      sstore\n      pop\n        /* \"contracts/_BilboydLeasing.sol\":5426:5433  tokenId */\n      dup1\n        /* \"contracts/_BilboydLeasing.sol\":5422:5424  to */\n      dup3\n        /* \"contracts/_BilboydLeasing.sol\":5407:5434  Transfer(from, to, tokenId) */\n      0xffffffffffffffffffffffffffffffffffffffff\n      and\n        /* \"contracts/_BilboydLeasing.sol\":5416:5420  from */\n      dup5\n        /* \"contracts/_BilboydLeasing.sol\":5407:5434  Transfer(from, to, tokenId) */\n      0xffffffffffffffffffffffffffffffffffffffff\n      and\n      0xddf252ad1be2c89b69c2b068fc378daa952ba7f163c4a11628f55a4df523b3ef\n      mload(0x40)\n      mload(0x40)\n      dup1\n      swap2\n      sub\n      swap1\n      log4\n        /* \"contracts/_BilboydLeasing.sol\":5025:5441  function _transfer(... */\n      pop\n      pop\n      pop\n      jump\t// out\n        /* \"contracts/_BilboydLeasing.sol\":5955:6111  function _approve(address to, uint256 tokenId) internal {... */\n    tag_359:\n        /* \"contracts/_BilboydLeasing.sol\":6048:6050  to */\n      dup2\n        /* \"contracts/_BilboydLeasing.sol\":6021:6036  _tokenApprovals */\n      0x02\n        /* \"contracts/_BilboydLeasing.sol\":6021:6045  _tokenApprovals[tokenId] */\n      0x00\n        /* \"contracts/_BilboydLeasing.sol\":6037:6044  tokenId */\n      dup4\n        /* \"contracts/_BilboydLeasing.sol\":6021:6045  _tokenApprovals[tokenId] */\n      dup2\n      mstore\n      0x20\n      add\n      swap1\n      dup2\n      mstore\n      0x20\n      add\n      0x00\n      keccak256\n      0x00\n        /* \"contracts/_BilboydLeasing.sol\":6021:6050  _tokenApprovals[tokenId] = to */\n      0x0100\n      exp\n      dup2\n      sload\n      dup2\n      0xffffffffffffffffffffffffffffffffffffffff\n      mul\n      not\n      and\n      swap1\n      dup4\n      0xffffffffffffffffffffffffffffffffffffffff\n      and\n      mul\n      or\n      swap1\n      sstore\n      pop\n        /* \"contracts/_BilboydLeasing.sol\":6096:6103  tokenId */\n      dup1\n        /* \"contracts/_BilboydLeasing.sol\":6092:6094  to */\n      dup3\n        /* \"contracts/_BilboydLeasing.sol\":6065:6104  Approval(ownerOf(tokenId), to, tokenId) */\n      0xffffffffffffffffffffffffffffffffffffffff\n      and\n        /* \"contracts/_BilboydLeasing.sol\":6074:6090  ownerOf(tokenId) */\n      tag_363\n        /* \"contracts/_BilboydLeasing.sol\":6082:6089  tokenId */\n      dup4\n        /* \"contracts/_BilboydLeasing.sol\":6074:6081  ownerOf */\n      tag_83\n        /* \"contracts/_BilboydLeasing.sol\":6074:6090  ownerOf(tokenId) */\n      jump\t// in\n    tag_363:\n        /* \"contracts/_BilboydLeasing.sol\":6065:6104  Approval(ownerOf(tokenId), to, tokenId) */\n      0xffffffffffffffffffffffffffffffffffffffff\n      and\n      0x8c5be1e5ebec7d5bd14f71427d1e84f3dd0314c0f7b2291e5b200ac8c7c3b925\n      mload(0x40)\n      mload(0x40)\n      dup1\n      swap2\n      sub\n      swap1\n      log4\n        /* \"contracts/_BilboydLeasing.sol\":5955:6111  function _approve(address to, uint256 tokenId) internal {... */\n      pop\n      pop\n      jump\t// out\n    tag_158:\n      mload(0x40)\n      dup1\n      0x0140\n      add\n      0x40\n      mstore\n      dup1\n      0x00\n      dup2\n      mstore\n      0x20\n      add\n      and(0xffffffffffffffffffffffffffffffffffffffff, 0x00)\n      dup2\n      mstore\n      0x20\n      add\n      0x00\n      dup2\n      mstore\n      0x20\n      add\n      0x00\n      dup2\n      mstore\n      0x20\n      add\n      0x00\n      dup2\n      mstore\n      0x20\n      add\n      iszero(iszero(0x00))\n      dup2\n      mstore\n      0x20\n      add\n      0x00\n      dup2\n      mstore\n      0x20\n      add\n      0x00\n      dup2\n      mstore\n      0x20\n      add\n      0x00\n      dup2\n      mstore\n      0x20\n      add\n      0x00\n      dup2\n      mstore\n      pop\n      swap1\n      jump\t// out\n    tag_164:\n      mload(0x40)\n      dup1\n      0xa0\n      add\n      0x40\n      mstore\n      dup1\n      0x60\n      dup2\n      mstore\n      0x20\n      add\n      0x60\n      dup2\n      mstore\n      0x20\n      add\n      0x00\n      dup2\n      mstore\n      0x20\n      add\n      0x00\n      dup2\n      mstore\n      0x20\n      add\n      0x00\n      dup2\n      mstore\n      pop\n      swap1\n      jump\t// out\n        /* \"#utility.yul\":7:106   */\n    tag_364:\n        /* \"#utility.yul\":59:65   */\n      0x00\n        /* \"#utility.yul\":93:98   */\n      dup2\n        /* \"#utility.yul\":87:99   */\n      mload\n        /* \"#utility.yul\":77:99   */\n      swap1\n      pop\n        /* \"#utility.yul\":7:106   */\n      swap2\n      swap1\n      pop\n      jump\t// out\n        /* \"#utility.yul\":112:281   */\n    tag_365:\n        /* \"#utility.yul\":196:207   */\n      0x00\n        /* \"#utility.yul\":230:236   */\n      dup3\n        /* \"#utility.yul\":225:228   */\n      dup3\n        /* \"#utility.yul\":218:237   */\n      mstore\n        /* \"#utility.yul\":270:274   */\n      0x20\n        /* \"#utility.yul\":265:268   */\n      dup3\n        /* \"#utility.yul\":261:275   */\n      add\n        /* \"#utility.yul\":246:275   */\n      swap1\n      pop\n        /* \"#utility.yul\":112:281   */\n      swap3\n      swap2\n      pop\n      pop\n      jump\t// out\n        /* \"#utility.yul\":287:426   */\n    tag_366:\n        /* \"#utility.yul\":376:382   */\n      dup3\n        /* \"#utility.yul\":371:374   */\n      dup2\n        /* \"#utility.yul\":366:369   */\n      dup4\n        /* \"#utility.yul\":360:383   */\n      mcopy\n        /* \"#utility.yul\":417:418   */\n      0x00\n        /* \"#utility.yul\":408:414   */\n      dup4\n        /* \"#utility.yul\":403:406   */\n      dup4\n        /* \"#utility.yul\":399:415   */\n      add\n        /* \"#utility.yul\":392:419   */\n      mstore\n        /* \"#utility.yul\":287:426   */\n      pop\n      pop\n      pop\n      jump\t// out\n        /* \"#utility.yul\":432:534   */\n    tag_367:\n        /* \"#utility.yul\":473:479   */\n      0x00\n        /* \"#utility.yul\":524:526   */\n      0x1f\n        /* \"#utility.yul\":520:527   */\n      not\n        /* \"#utility.yul\":515:517   */\n      0x1f\n        /* \"#utility.yul\":508:513   */\n      dup4\n        /* \"#utility.yul\":504:518   */\n      add\n        /* \"#utility.yul\":500:528   */\n      and\n        /* \"#utility.yul\":490:528   */\n      swap1\n      pop\n        /* \"#utility.yul\":432:534   */\n      swap2\n      swap1\n      pop\n      jump\t// out\n        /* \"#utility.yul\":540:917   */\n    tag_368:\n        /* \"#utility.yul\":628:631   */\n      0x00\n        /* \"#utility.yul\":656:695   */\n      tag_476\n        /* \"#utility.yul\":689:694   */\n      dup3\n        /* \"#utility.yul\":656:695   */\n      tag_364\n      jump\t// in\n    tag_476:\n        /* \"#utility.yul\":711:782   */\n      tag_477\n        /* \"#utility.yul\":775:781   */\n      dup2\n        /* \"#utility.yul\":770:773   */\n      dup6\n        /* \"#utility.yul\":711:782   */\n      tag_365\n      jump\t// in\n    tag_477:\n        /* \"#utility.yul\":704:782   */\n      swap4\n      pop\n        /* \"#utility.yul\":791:856   */\n      tag_478\n        /* \"#utility.yul\":849:855   */\n      dup2\n        /* \"#utility.yul\":844:847   */\n      dup6\n        /* \"#utility.yul\":837:841   */\n      0x20\n        /* \"#utility.yul\":830:835   */\n      dup7\n        /* \"#utility.yul\":826:842   */\n      add\n        /* \"#utility.yul\":791:856   */\n      tag_366\n      jump\t// in\n    tag_478:\n        /* \"#utility.yul\":881:910   */\n      tag_479\n        /* \"#utility.yul\":903:909   */\n      dup2\n        /* \"#utility.yul\":881:910   */\n      tag_367\n      jump\t// in\n    tag_479:\n        /* \"#utility.yul\":876:879   */\n      dup5\n        /* \"#utility.yul\":872:911   */\n      add\n        /* \"#utility.yul\":865:911   */\n      swap2\n      pop\n        /* \"#utility.yul\":632:917   */\n      pop\n        /* \"#utility.yul\":540:917   */\n      swap3\n      swap2\n      pop\n      pop\n      jump\t// out\n        /* \"#utility.yul\":923:1236   */\n    tag_29:\n        /* \"#utility.yul\":1036:1040   */\n      0x00\n        /* \"#utility.yul\":1074:1076   */\n      0x20\n        /* \"#utility.yul\":1063:1072   */\n      dup3\n        /* \"#utility.yul\":1059:1077   */\n      add\n        /* \"#utility.yul\":1051:1077   */\n      swap1\n      pop\n        /* \"#utility.yul\":1123:1132   */\n      dup2\n        /* \"#utility.yul\":1117:1121   */\n      dup2\n        /* \"#utility.yul\":1113:1133   */\n      sub\n        /* \"#utility.yul\":1109:1110   */\n      0x00\n        /* \"#utility.yul\":1098:1107   */\n      dup4\n        /* \"#utility.yul\":1094:1111   */\n      add\n        /* \"#utility.yul\":1087:1134   */\n      mstore\n        /* \"#utility.yul\":1151:1229   */\n      tag_481\n        /* \"#utility.yul\":1224:1228   */\n      dup2\n        /* \"#utility.yul\":1215:1221   */\n      dup5\n        /* \"#utility.yul\":1151:1229   */\n      tag_368\n      jump\t// in\n    tag_481:\n        /* \"#utility.yul\":1143:1229   */\n      swap1\n      pop\n        /* \"#utility.yul\":923:1236   */\n      swap3\n      swap2\n      pop\n      pop\n      jump\t// out\n        /* \"#utility.yul\":1242:1317   */\n    tag_369:\n        /* \"#utility.yul\":1275:1281   */\n      0x00\n        /* \"#utility.yul\":1308:1310   */\n      0x40\n        /* \"#utility.yul\":1302:1311   */\n      mload\n        /* \"#utility.yul\":1292:1311   */\n      swap1\n      pop\n        /* \"#utility.yul\":1242:1317   */\n      swap1\n      jump\t// out\n        /* \"#utility.yul\":1323:1440   */\n    tag_370:\n        /* \"#utility.yul\":1432:1433   */\n      0x00\n        /* \"#utility.yul\":1429:1430   */\n      dup1\n        /* \"#utility.yul\":1422:1434   */\n      revert\n        /* \"#utility.yul\":1446:1563   */\n    tag_371:\n        /* \"#utility.yul\":1555:1556   */\n      0x00\n        /* \"#utility.yul\":1552:1553   */\n      dup1\n        /* \"#utility.yul\":1545:1557   */\n      revert\n        /* \"#utility.yul\":1569:1646   */\n    tag_372:\n        /* \"#utility.yul\":1606:1613   */\n      0x00\n        /* \"#utility.yul\":1635:1640   */\n      dup2\n        /* \"#utility.yul\":1624:1640   */\n      swap1\n      pop\n        /* \"#utility.yul\":1569:1646   */\n      swap2\n      swap1\n      pop\n      jump\t// out\n        /* \"#utility.yul\":1652:1774   */\n    tag_373:\n        /* \"#utility.yul\":1725:1749   */\n      tag_487\n        /* \"#utility.yul\":1743:1748   */\n      dup2\n        /* \"#utility.yul\":1725:1749   */\n      tag_372\n      jump\t// in\n    tag_487:\n        /* \"#utility.yul\":1718:1723   */\n      dup2\n        /* \"#utility.yul\":1715:1750   */\n      eq\n        /* \"#utility.yul\":1705:1768   */\n      tag_488\n      jumpi\n        /* \"#utility.yul\":1764:1765   */\n      0x00\n        /* \"#utility.yul\":1761:1762   */\n      dup1\n        /* \"#utility.yul\":1754:1766   */\n      revert\n        /* \"#utility.yul\":1705:1768   */\n    tag_488:\n        /* \"#utility.yul\":1652:1774   */\n      pop\n      jump\t// out\n        /* \"#utility.yul\":1780:1919   */\n    tag_374:\n        /* \"#utility.yul\":1826:1831   */\n      0x00\n        /* \"#utility.yul\":1864:1870   */\n      dup2\n        /* \"#utility.yul\":1851:1871   */\n      calldataload\n        /* \"#utility.yul\":1842:1871   */\n      swap1\n      pop\n        /* \"#utility.yul\":1880:1913   */\n      tag_490\n        /* \"#utility.yul\":1907:1912   */\n      dup2\n        /* \"#utility.yul\":1880:1913   */\n      tag_373\n      jump\t// in\n    tag_490:\n        /* \"#utility.yul\":1780:1919   */\n      swap3\n      swap2\n      pop\n      pop\n      jump\t// out\n        /* \"#utility.yul\":1925:2254   */\n    tag_33:\n        /* \"#utility.yul\":1984:1990   */\n      0x00\n        /* \"#utility.yul\":2033:2035   */\n      0x20\n        /* \"#utility.yul\":2021:2030   */\n      dup3\n        /* \"#utility.yul\":2012:2019   */\n      dup5\n        /* \"#utility.yul\":2008:2031   */\n      sub\n        /* \"#utility.yul\":2004:2036   */\n      slt\n        /* \"#utility.yul\":2001:2120   */\n      iszero\n      tag_492\n      jumpi\n        /* \"#utility.yul\":2039:2118   */\n      tag_493\n      tag_370\n      jump\t// in\n    tag_493:\n        /* \"#utility.yul\":2001:2120   */\n    tag_492:\n        /* \"#utility.yul\":2159:2160   */\n      0x00\n        /* \"#utility.yul\":2184:2237   */\n      tag_494\n        /* \"#utility.yul\":2229:2236   */\n      dup5\n        /* \"#utility.yul\":2220:2226   */\n      dup3\n        /* \"#utility.yul\":2209:2218   */\n      dup6\n        /* \"#utility.yul\":2205:2227   */\n      add\n        /* \"#utility.yul\":2184:2237   */\n      tag_374\n      jump\t// in\n    tag_494:\n        /* \"#utility.yul\":2174:2237   */\n      swap2\n      pop\n        /* \"#utility.yul\":2130:2247   */\n      pop\n        /* \"#utility.yul\":1925:2254   */\n      swap3\n      swap2\n      pop\n      pop\n      jump\t// out\n        /* \"#utility.yul\":2260:2386   */\n    tag_375:\n        /* \"#utility.yul\":2297:2304   */\n      0x00\n        /* \"#utility.yul\":2337:2379   */\n      0xffffffffffffffffffffffffffffffffffffffff\n        /* \"#utility.yul\":2330:2335   */\n      dup3\n        /* \"#utility.yul\":2326:2380   */\n      and\n        /* \"#utility.yul\":2315:2380   */\n      swap1\n      pop\n        /* \"#utility.yul\":2260:2386   */\n      swap2\n      swap1\n      pop\n      jump\t// out\n        /* \"#utility.yul\":2392:2488   */\n    tag_376:\n        /* \"#utility.yul\":2429:2436   */\n      0x00\n        /* \"#utility.yul\":2458:2482   */\n      tag_497\n        /* \"#utility.yul\":2476:2481   */\n      dup3\n        /* \"#utility.yul\":2458:2482   */\n      tag_375\n      jump\t// in\n    tag_497:\n        /* \"#utility.yul\":2447:2482   */\n      swap1\n      pop\n        /* \"#utility.yul\":2392:2488   */\n      swap2\n      swap1\n      pop\n      jump\t// out\n        /* \"#utility.yul\":2494:2612   */\n    tag_377:\n        /* \"#utility.yul\":2581:2605   */\n      tag_499\n        /* \"#utility.yul\":2599:2604   */\n      dup2\n        /* \"#utility.yul\":2581:2605   */\n      tag_376\n      jump\t// in\n    tag_499:\n        /* \"#utility.yul\":2576:2579   */\n      dup3\n        /* \"#utility.yul\":2569:2606   */\n      mstore\n        /* \"#utility.yul\":2494:2612   */\n      pop\n      pop\n      jump\t// out\n        /* \"#utility.yul\":2618:2840   */\n    tag_36:\n        /* \"#utility.yul\":2711:2715   */\n      0x00\n        /* \"#utility.yul\":2749:2751   */\n      0x20\n        /* \"#utility.yul\":2738:2747   */\n      dup3\n        /* \"#utility.yul\":2734:2752   */\n      add\n        /* \"#utility.yul\":2726:2752   */\n      swap1\n      pop\n        /* \"#utility.yul\":2762:2833   */\n      tag_501\n        /* \"#utility.yul\":2830:2831   */\n      0x00\n        /* \"#utility.yul\":2819:2828   */\n      dup4\n        /* \"#utility.yul\":2815:2832   */\n      add\n        /* \"#utility.yul\":2806:2812   */\n      dup5\n        /* \"#utility.yul\":2762:2833   */\n      tag_377\n      jump\t// in\n    tag_501:\n        /* \"#utility.yul\":2618:2840   */\n      swap3\n      swap2\n      pop\n      pop\n      jump\t// out\n        /* \"#utility.yul\":2846:2968   */\n    tag_378:\n        /* \"#utility.yul\":2919:2943   */\n      tag_503\n        /* \"#utility.yul\":2937:2942   */\n      dup2\n        /* \"#utility.yul\":2919:2943   */\n      tag_376\n      jump\t// in\n    tag_503:\n        /* \"#utility.yul\":2912:2917   */\n      dup2\n        /* \"#utility.yul\":2909:2944   */\n      eq\n        /* \"#utility.yul\":2899:2962   */\n      tag_504\n      jumpi\n        /* \"#utility.yul\":2958:2959   */\n      0x00\n        /* \"#utility.yul\":2955:2956   */\n      dup1\n        /* \"#utility.yul\":2948:2960   */\n      revert\n        /* \"#utility.yul\":2899:2962   */\n    tag_504:\n        /* \"#utility.yul\":2846:2968   */\n      pop\n      jump\t// out\n        /* \"#utility.yul\":2974:3113   */\n    tag_379:\n        /* \"#utility.yul\":3020:3025   */\n      0x00\n        /* \"#utility.yul\":3058:3064   */\n      dup2\n        /* \"#utility.yul\":3045:3065   */\n      calldataload\n        /* \"#utility.yul\":3036:3065   */\n      swap1\n      pop\n        /* \"#utility.yul\":3074:3107   */\n      tag_506\n        /* \"#utility.yul\":3101:3106   */\n      dup2\n        /* \"#utility.yul\":3074:3107   */\n      tag_378\n      jump\t// in\n    tag_506:\n        /* \"#utility.yul\":2974:3113   */\n      swap3\n      swap2\n      pop\n      pop\n      jump\t// out\n        /* \"#utility.yul\":3119:3593   */\n    tag_40:\n        /* \"#utility.yul\":3187:3193   */\n      0x00\n        /* \"#utility.yul\":3195:3201   */\n      dup1\n        /* \"#utility.yul\":3244:3246   */\n      0x40\n        /* \"#utility.yul\":3232:3241   */\n      dup4\n        /* \"#utility.yul\":3223:3230   */\n      dup6\n        /* \"#utility.yul\":3219:3242   */\n      sub\n        /* \"#utility.yul\":3215:3247   */\n      slt\n        /* \"#utility.yul\":3212:3331   */\n      iszero\n      tag_508\n      jumpi\n        /* \"#utility.yul\":3250:3329   */\n      tag_509\n      tag_370\n      jump\t// in\n    tag_509:\n        /* \"#utility.yul\":3212:3331   */\n    tag_508:\n        /* \"#utility.yul\":3370:3371   */\n      0x00\n        /* \"#utility.yul\":3395:3448   */\n      tag_510\n        /* \"#utility.yul\":3440:3447   */\n      dup6\n        /* \"#utility.yul\":3431:3437   */\n      dup3\n        /* \"#utility.yul\":3420:3429   */\n      dup7\n        /* \"#utility.yul\":3416:3438   */\n      add\n        /* \"#utility.yul\":3395:3448   */\n      tag_379\n      jump\t// in\n    tag_510:\n        /* \"#utility.yul\":3385:3448   */\n      swap3\n      pop\n        /* \"#utility.yul\":3341:3458   */\n      pop\n        /* \"#utility.yul\":3497:3499   */\n      0x20\n        /* \"#utility.yul\":3523:3576   */\n      tag_511\n        /* \"#utility.yul\":3568:3575   */\n      dup6\n        /* \"#utility.yul\":3559:3565   */\n      dup3\n        /* \"#utility.yul\":3548:3557   */\n      dup7\n        /* \"#utility.yul\":3544:3566   */\n      add\n        /* \"#utility.yul\":3523:3576   */\n      tag_374\n      jump\t// in\n    tag_511:\n        /* \"#utility.yul\":3513:3576   */\n      swap2\n      pop\n        /* \"#utility.yul\":3468:3586   */\n      pop\n        /* \"#utility.yul\":3119:3593   */\n      swap3\n      pop\n      swap3\n      swap1\n      pop\n      jump\t// out\n        /* \"#utility.yul\":3599:4218   */\n    tag_45:\n        /* \"#utility.yul\":3676:3682   */\n      0x00\n        /* \"#utility.yul\":3684:3690   */\n      dup1\n        /* \"#utility.yul\":3692:3698   */\n      0x00\n        /* \"#utility.yul\":3741:3743   */\n      0x60\n        /* \"#utility.yul\":3729:3738   */\n      dup5\n        /* \"#utility.yul\":3720:3727   */\n      dup7\n        /* \"#utility.yul\":3716:3739   */\n      sub\n        /* \"#utility.yul\":3712:3744   */\n      slt\n        /* \"#utility.yul\":3709:3828   */\n      iszero\n      tag_513\n      jumpi\n        /* \"#utility.yul\":3747:3826   */\n      tag_514\n      tag_370\n      jump\t// in\n    tag_514:\n        /* \"#utility.yul\":3709:3828   */\n    tag_513:\n        /* \"#utility.yul\":3867:3868   */\n      0x00\n        /* \"#utility.yul\":3892:3945   */\n      tag_515\n        /* \"#utility.yul\":3937:3944   */\n      dup7\n        /* \"#utility.yul\":3928:3934   */\n      dup3\n        /* \"#utility.yul\":3917:3926   */\n      dup8\n        /* \"#utility.yul\":3913:3935   */\n      add\n        /* \"#utility.yul\":3892:3945   */\n      tag_379\n      jump\t// in\n    tag_515:\n        /* \"#utility.yul\":3882:3945   */\n      swap4\n      pop\n        /* \"#utility.yul\":3838:3955   */\n      pop\n        /* \"#utility.yul\":3994:3996   */\n      0x20\n        /* \"#utility.yul\":4020:4073   */\n      tag_516\n        /* \"#utility.yul\":4065:4072   */\n      dup7\n        /* \"#utility.yul\":4056:4062   */\n      dup3\n        /* \"#utility.yul\":4045:4054   */\n      dup8\n        /* \"#utility.yul\":4041:4063   */\n      add\n        /* \"#utility.yul\":4020:4073   */\n      tag_379\n      jump\t// in\n    tag_516:\n        /* \"#utility.yul\":4010:4073   */\n      swap3\n      pop\n        /* \"#utility.yul\":3965:4083   */\n      pop\n        /* \"#utility.yul\":4122:4124   */\n      0x40\n        /* \"#utility.yul\":4148:4201   */\n      tag_517\n        /* \"#utility.yul\":4193:4200   */\n      dup7\n        /* \"#utility.yul\":4184:4190   */\n      dup3\n        /* \"#utility.yul\":4173:4182   */\n      dup8\n        /* \"#utility.yul\":4169:4191   */\n      add\n        /* \"#utility.yul\":4148:4201   */\n      tag_374\n      jump\t// in\n    tag_517:\n        /* \"#utility.yul\":4138:4201   */\n      swap2\n      pop\n        /* \"#utility.yul\":4093:4211   */\n      pop\n        /* \"#utility.yul\":3599:4218   */\n      swap3\n      pop\n      swap3\n      pop\n      swap3\n      jump\t// out\n        /* \"#utility.yul\":4224:4332   */\n    tag_380:\n        /* \"#utility.yul\":4301:4325   */\n      tag_519\n        /* \"#utility.yul\":4319:4324   */\n      dup2\n        /* \"#utility.yul\":4301:4325   */\n      tag_372\n      jump\t// in\n    tag_519:\n        /* \"#utility.yul\":4296:4299   */\n      dup3\n        /* \"#utility.yul\":4289:4326   */\n      mstore\n        /* \"#utility.yul\":4224:4332   */\n      pop\n      pop\n      jump\t// out\n        /* \"#utility.yul\":4338:4446   */\n    tag_381:\n        /* \"#utility.yul\":4415:4439   */\n      tag_521\n        /* \"#utility.yul\":4433:4438   */\n      dup2\n        /* \"#utility.yul\":4415:4439   */\n      tag_376\n      jump\t// in\n    tag_521:\n        /* \"#utility.yul\":4410:4413   */\n      dup3\n        /* \"#utility.yul\":4403:4440   */\n      mstore\n        /* \"#utility.yul\":4338:4446   */\n      pop\n      pop\n      jump\t// out\n        /* \"#utility.yul\":4452:4542   */\n    tag_382:\n        /* \"#utility.yul\":4486:4493   */\n      0x00\n        /* \"#utility.yul\":4529:4534   */\n      dup2\n        /* \"#utility.yul\":4522:4535   */\n      iszero\n        /* \"#utility.yul\":4515:4536   */\n      iszero\n        /* \"#utility.yul\":4504:4536   */\n      swap1\n      pop\n        /* \"#utility.yul\":4452:4542   */\n      swap2\n      swap1\n      pop\n      jump\t// out\n        /* \"#utility.yul\":4548:4647   */\n    tag_383:\n        /* \"#utility.yul\":4619:4640   */\n      tag_524\n        /* \"#utility.yul\":4634:4639   */\n      dup2\n        /* \"#utility.yul\":4619:4640   */\n      tag_382\n      jump\t// in\n    tag_524:\n        /* \"#utility.yul\":4614:4617   */\n      dup3\n        /* \"#utility.yul\":4607:4641   */\n      mstore\n        /* \"#utility.yul\":4548:4647   */\n      pop\n      pop\n      jump\t// out\n        /* \"#utility.yul\":4735:6719   */\n    tag_384:\n        /* \"#utility.yul\":4892:4898   */\n      0x0140\n        /* \"#utility.yul\":4887:4890   */\n      dup3\n        /* \"#utility.yul\":4883:4899   */\n      add\n        /* \"#utility.yul\":4984:4988   */\n      0x00\n        /* \"#utility.yul\":4977:4982   */\n      dup3\n        /* \"#utility.yul\":4973:4989   */\n      add\n        /* \"#utility.yul\":4967:4990   */\n      mload\n        /* \"#utility.yul\":5003:5066   */\n      tag_526\n        /* \"#utility.yul\":5060:5064   */\n      0x00\n        /* \"#utility.yul\":5055:5058   */\n      dup6\n        /* \"#utility.yul\":5051:5065   */\n      add\n        /* \"#utility.yul\":5037:5049   */\n      dup3\n        /* \"#utility.yul\":5003:5066   */\n      tag_380\n      jump\t// in\n    tag_526:\n        /* \"#utility.yul\":4909:5076   */\n      pop\n        /* \"#utility.yul\":5160:5164   */\n      0x20\n        /* \"#utility.yul\":5153:5158   */\n      dup3\n        /* \"#utility.yul\":5149:5165   */\n      add\n        /* \"#utility.yul\":5143:5166   */\n      mload\n        /* \"#utility.yul\":5179:5242   */\n      tag_527\n        /* \"#utility.yul\":5236:5240   */\n      0x20\n        /* \"#utility.yul\":5231:5234   */\n      dup6\n        /* \"#utility.yul\":5227:5241   */\n      add\n        /* \"#utility.yul\":5213:5225   */\n      dup3\n        /* \"#utility.yul\":5179:5242   */\n      tag_381\n      jump\t// in\n    tag_527:\n        /* \"#utility.yul\":5086:5252   */\n      pop\n        /* \"#utility.yul\":5346:5350   */\n      0x40\n        /* \"#utility.yul\":5339:5344   */\n      dup3\n        /* \"#utility.yul\":5335:5351   */\n      add\n        /* \"#utility.yul\":5329:5352   */\n      mload\n        /* \"#utility.yul\":5365:5428   */\n      tag_528\n        /* \"#utility.yul\":5422:5426   */\n      0x40\n        /* \"#utility.yul\":5417:5420   */\n      dup6\n        /* \"#utility.yul\":5413:5427   */\n      add\n        /* \"#utility.yul\":5399:5411   */\n      dup3\n        /* \"#utility.yul\":5365:5428   */\n      tag_380\n      jump\t// in\n    tag_528:\n        /* \"#utility.yul\":5262:5438   */\n      pop\n        /* \"#utility.yul\":5526:5530   */\n      0x60\n        /* \"#utility.yul\":5519:5524   */\n      dup3\n        /* \"#utility.yul\":5515:5531   */\n      add\n        /* \"#utility.yul\":5509:5532   */\n      mload\n        /* \"#utility.yul\":5545:5608   */\n      tag_529\n        /* \"#utility.yul\":5602:5606   */\n      0x60\n        /* \"#utility.yul\":5597:5600   */\n      dup6\n        /* \"#utility.yul\":5593:5607   */\n      add\n        /* \"#utility.yul\":5579:5591   */\n      dup3\n        /* \"#utility.yul\":5545:5608   */\n      tag_380\n      jump\t// in\n    tag_529:\n        /* \"#utility.yul\":5448:5618   */\n      pop\n        /* \"#utility.yul\":5712:5716   */\n      0x80\n        /* \"#utility.yul\":5705:5710   */\n      dup3\n        /* \"#utility.yul\":5701:5717   */\n      add\n        /* \"#utility.yul\":5695:5718   */\n      mload\n        /* \"#utility.yul\":5731:5794   */\n      tag_530\n        /* \"#utility.yul\":5788:5792   */\n      0x80\n        /* \"#utility.yul\":5783:5786   */\n      dup6\n        /* \"#utility.yul\":5779:5793   */\n      add\n        /* \"#utility.yul\":5765:5777   */\n      dup3\n        /* \"#utility.yul\":5731:5794   */\n      tag_380\n      jump\t// in\n    tag_530:\n        /* \"#utility.yul\":5628:5804   */\n      pop\n        /* \"#utility.yul\":5890:5894   */\n      0xa0\n        /* \"#utility.yul\":5883:5888   */\n      dup3\n        /* \"#utility.yul\":5879:5895   */\n      add\n        /* \"#utility.yul\":5873:5896   */\n      mload\n        /* \"#utility.yul\":5909:5966   */\n      tag_531\n        /* \"#utility.yul\":5960:5964   */\n      0xa0\n        /* \"#utility.yul\":5955:5958   */\n      dup6\n        /* \"#utility.yul\":5951:5965   */\n      add\n        /* \"#utility.yul\":5937:5949   */\n      dup3\n        /* \"#utility.yul\":5909:5966   */\n      tag_383\n      jump\t// in\n    tag_531:\n        /* \"#utility.yul\":5814:5976   */\n      pop\n        /* \"#utility.yul\":6061:6065   */\n      0xc0\n        /* \"#utility.yul\":6054:6059   */\n      dup3\n        /* \"#utility.yul\":6050:6066   */\n      add\n        /* \"#utility.yul\":6044:6067   */\n      mload\n        /* \"#utility.yul\":6080:6143   */\n      tag_532\n        /* \"#utility.yul\":6137:6141   */\n      0xc0\n        /* \"#utility.yul\":6132:6135   */\n      dup6\n        /* \"#utility.yul\":6128:6142   */\n      add\n        /* \"#utility.yul\":6114:6126   */\n      dup3\n        /* \"#utility.yul\":6080:6143   */\n      tag_380\n      jump\t// in\n    tag_532:\n        /* \"#utility.yul\":5986:6153   */\n      pop\n        /* \"#utility.yul\":6246:6250   */\n      0xe0\n        /* \"#utility.yul\":6239:6244   */\n      dup3\n        /* \"#utility.yul\":6235:6251   */\n      add\n        /* \"#utility.yul\":6229:6252   */\n      mload\n        /* \"#utility.yul\":6265:6328   */\n      tag_533\n        /* \"#utility.yul\":6322:6326   */\n      0xe0\n        /* \"#utility.yul\":6317:6320   */\n      dup6\n        /* \"#utility.yul\":6313:6327   */\n      add\n        /* \"#utility.yul\":6299:6311   */\n      dup3\n        /* \"#utility.yul\":6265:6328   */\n      tag_380\n      jump\t// in\n    tag_533:\n        /* \"#utility.yul\":6163:6338   */\n      pop\n        /* \"#utility.yul\":6430:6436   */\n      0x0100\n        /* \"#utility.yul\":6423:6428   */\n      dup3\n        /* \"#utility.yul\":6419:6437   */\n      add\n        /* \"#utility.yul\":6413:6438   */\n      mload\n        /* \"#utility.yul\":6451:6516   */\n      tag_534\n        /* \"#utility.yul\":6508:6514   */\n      0x0100\n        /* \"#utility.yul\":6503:6506   */\n      dup6\n        /* \"#utility.yul\":6499:6515   */\n      add\n        /* \"#utility.yul\":6485:6497   */\n      dup3\n        /* \"#utility.yul\":6451:6516   */\n      tag_380\n      jump\t// in\n    tag_534:\n        /* \"#utility.yul\":6348:6526   */\n      pop\n        /* \"#utility.yul\":6616:6622   */\n      0x0120\n        /* \"#utility.yul\":6609:6614   */\n      dup3\n        /* \"#utility.yul\":6605:6623   */\n      add\n        /* \"#utility.yul\":6599:6624   */\n      mload\n        /* \"#utility.yul\":6637:6702   */\n      tag_535\n        /* \"#utility.yul\":6694:6700   */\n      0x0120\n        /* \"#utility.yul\":6689:6692   */\n      dup6\n        /* \"#utility.yul\":6685:6701   */\n      add\n        /* \"#utility.yul\":6671:6683   */\n      dup3\n        /* \"#utility.yul\":6637:6702   */\n      tag_380\n      jump\t// in\n    tag_535:\n        /* \"#utility.yul\":6536:6712   */\n      pop\n        /* \"#utility.yul\":4861:6719   */\n      pop\n        /* \"#utility.yul\":4735:6719   */\n      pop\n      pop\n      jump\t// out\n        /* \"#utility.yul\":6725:7068   */\n    tag_52:\n        /* \"#utility.yul\":6878:6882   */\n      0x00\n        /* \"#utility.yul\":6916:6919   */\n      0x0140\n        /* \"#utility.yul\":6905:6914   */\n      dup3\n        /* \"#utility.yul\":6901:6920   */\n      add\n        /* \"#utility.yul\":6893:6920   */\n      swap1\n      pop\n        /* \"#utility.yul\":6930:7061   */\n      tag_537\n        /* \"#utility.yul\":7058:7059   */\n      0x00\n        /* \"#utility.yul\":7047:7056   */\n      dup4\n        /* \"#utility.yul\":7043:7060   */\n      add\n        /* \"#utility.yul\":7034:7040   */\n      dup5\n        /* \"#utility.yul\":6930:7061   */\n      tag_384\n      jump\t// in\n    tag_537:\n        /* \"#utility.yul\":6725:7068   */\n      swap3\n      swap2\n      pop\n      pop\n      jump\t// out\n        /* \"#utility.yul\":7074:7233   */\n    tag_385:\n        /* \"#utility.yul\":7148:7159   */\n      0x00\n        /* \"#utility.yul\":7182:7188   */\n      dup3\n        /* \"#utility.yul\":7177:7180   */\n      dup3\n        /* \"#utility.yul\":7170:7189   */\n      mstore\n        /* \"#utility.yul\":7222:7226   */\n      0x20\n        /* \"#utility.yul\":7217:7220   */\n      dup3\n        /* \"#utility.yul\":7213:7227   */\n      add\n        /* \"#utility.yul\":7198:7227   */\n      swap1\n      pop\n        /* \"#utility.yul\":7074:7233   */\n      swap3\n      swap2\n      pop\n      pop\n      jump\t// out\n        /* \"#utility.yul\":7239:7596   */\n    tag_386:\n        /* \"#utility.yul\":7317:7320   */\n      0x00\n        /* \"#utility.yul\":7345:7384   */\n      tag_540\n        /* \"#utility.yul\":7378:7383   */\n      dup3\n        /* \"#utility.yul\":7345:7384   */\n      tag_364\n      jump\t// in\n    tag_540:\n        /* \"#utility.yul\":7400:7461   */\n      tag_541\n        /* \"#utility.yul\":7454:7460   */\n      dup2\n        /* \"#utility.yul\":7449:7452   */\n      dup6\n        /* \"#utility.yul\":7400:7461   */\n      tag_385\n      jump\t// in\n    tag_541:\n        /* \"#utility.yul\":7393:7461   */\n      swap4\n      pop\n        /* \"#utility.yul\":7470:7535   */\n      tag_542\n        /* \"#utility.yul\":7528:7534   */\n      dup2\n        /* \"#utility.yul\":7523:7526   */\n      dup6\n        /* \"#utility.yul\":7516:7520   */\n      0x20\n        /* \"#utility.yul\":7509:7514   */\n      dup7\n        /* \"#utility.yul\":7505:7521   */\n      add\n        /* \"#utility.yul\":7470:7535   */\n      tag_366\n      jump\t// in\n    tag_542:\n        /* \"#utility.yul\":7560:7589   */\n      tag_543\n        /* \"#utility.yul\":7582:7588   */\n      dup2\n        /* \"#utility.yul\":7560:7589   */\n      tag_367\n      jump\t// in\n    tag_543:\n        /* \"#utility.yul\":7555:7558   */\n      dup5\n        /* \"#utility.yul\":7551:7590   */\n      add\n        /* \"#utility.yul\":7544:7590   */\n      swap2\n      pop\n        /* \"#utility.yul\":7321:7596   */\n      pop\n        /* \"#utility.yul\":7239:7596   */\n      swap3\n      swap2\n      pop\n      pop\n      jump\t// out\n        /* \"#utility.yul\":7662:8885   */\n    tag_387:\n        /* \"#utility.yul\":7769:7772   */\n      0x00\n        /* \"#utility.yul\":7805:7809   */\n      0xa0\n        /* \"#utility.yul\":7800:7803   */\n      dup4\n        /* \"#utility.yul\":7796:7810   */\n      add\n        /* \"#utility.yul\":7893:7897   */\n      0x00\n        /* \"#utility.yul\":7886:7891   */\n      dup4\n        /* \"#utility.yul\":7882:7898   */\n      add\n        /* \"#utility.yul\":7876:7899   */\n      mload\n        /* \"#utility.yul\":7946:7949   */\n      dup5\n        /* \"#utility.yul\":7940:7944   */\n      dup3\n        /* \"#utility.yul\":7936:7950   */\n      sub\n        /* \"#utility.yul\":7929:7933   */\n      0x00\n        /* \"#utility.yul\":7924:7927   */\n      dup7\n        /* \"#utility.yul\":7920:7934   */\n      add\n        /* \"#utility.yul\":7913:7951   */\n      mstore\n        /* \"#utility.yul\":7972:8045   */\n      tag_545\n        /* \"#utility.yul\":8040:8044   */\n      dup3\n        /* \"#utility.yul\":8026:8038   */\n      dup3\n        /* \"#utility.yul\":7972:8045   */\n      tag_386\n      jump\t// in\n    tag_545:\n        /* \"#utility.yul\":7964:8045   */\n      swap2\n      pop\n        /* \"#utility.yul\":7820:8056   */\n      pop\n        /* \"#utility.yul\":8139:8143   */\n      0x20\n        /* \"#utility.yul\":8132:8137   */\n      dup4\n        /* \"#utility.yul\":8128:8144   */\n      add\n        /* \"#utility.yul\":8122:8145   */\n      mload\n        /* \"#utility.yul\":8192:8195   */\n      dup5\n        /* \"#utility.yul\":8186:8190   */\n      dup3\n        /* \"#utility.yul\":8182:8196   */\n      sub\n        /* \"#utility.yul\":8175:8179   */\n      0x20\n        /* \"#utility.yul\":8170:8173   */\n      dup7\n        /* \"#utility.yul\":8166:8180   */\n      add\n        /* \"#utility.yul\":8159:8197   */\n      mstore\n        /* \"#utility.yul\":8218:8291   */\n      tag_546\n        /* \"#utility.yul\":8286:8290   */\n      dup3\n        /* \"#utility.yul\":8272:8284   */\n      dup3\n        /* \"#utility.yul\":8218:8291   */\n      tag_386\n      jump\t// in\n    tag_546:\n        /* \"#utility.yul\":8210:8291   */\n      swap2\n      pop\n        /* \"#utility.yul\":8066:8302   */\n      pop\n        /* \"#utility.yul\":8399:8403   */\n      0x40\n        /* \"#utility.yul\":8392:8397   */\n      dup4\n        /* \"#utility.yul\":8388:8404   */\n      add\n        /* \"#utility.yul\":8382:8405   */\n      mload\n        /* \"#utility.yul\":8418:8481   */\n      tag_547\n        /* \"#utility.yul\":8475:8479   */\n      0x40\n        /* \"#utility.yul\":8470:8473   */\n      dup7\n        /* \"#utility.yul\":8466:8480   */\n      add\n        /* \"#utility.yul\":8452:8464   */\n      dup3\n        /* \"#utility.yul\":8418:8481   */\n      tag_380\n      jump\t// in\n    tag_547:\n        /* \"#utility.yul\":8312:8491   */\n      pop\n        /* \"#utility.yul\":8582:8586   */\n      0x60\n        /* \"#utility.yul\":8575:8580   */\n      dup4\n        /* \"#utility.yul\":8571:8587   */\n      add\n        /* \"#utility.yul\":8565:8588   */\n      mload\n        /* \"#utility.yul\":8601:8664   */\n      tag_548\n        /* \"#utility.yul\":8658:8662   */\n      0x60\n        /* \"#utility.yul\":8653:8656   */\n      dup7\n        /* \"#utility.yul\":8649:8663   */\n      add\n        /* \"#utility.yul\":8635:8647   */\n      dup3\n        /* \"#utility.yul\":8601:8664   */\n      tag_380\n      jump\t// in\n    tag_548:\n        /* \"#utility.yul\":8501:8674   */\n      pop\n        /* \"#utility.yul\":8766:8770   */\n      0x80\n        /* \"#utility.yul\":8759:8764   */\n      dup4\n        /* \"#utility.yul\":8755:8771   */\n      add\n        /* \"#utility.yul\":8749:8772   */\n      mload\n        /* \"#utility.yul\":8785:8848   */\n      tag_549\n        /* \"#utility.yul\":8842:8846   */\n      0x80\n        /* \"#utility.yul\":8837:8840   */\n      dup7\n        /* \"#utility.yul\":8833:8847   */\n      add\n        /* \"#utility.yul\":8819:8831   */\n      dup3\n        /* \"#utility.yul\":8785:8848   */\n      tag_380\n      jump\t// in\n    tag_549:\n        /* \"#utility.yul\":8684:8858   */\n      pop\n        /* \"#utility.yul\":8875:8879   */\n      dup1\n        /* \"#utility.yul\":8868:8879   */\n      swap2\n      pop\n        /* \"#utility.yul\":7774:8885   */\n      pop\n        /* \"#utility.yul\":7662:8885   */\n      swap3\n      swap2\n      pop\n      pop\n      jump\t// out\n        /* \"#utility.yul\":8891:9240   */\n    tag_58:\n        /* \"#utility.yul\":9022:9026   */\n      0x00\n        /* \"#utility.yul\":9060:9062   */\n      0x20\n        /* \"#utility.yul\":9049:9058   */\n      dup3\n        /* \"#utility.yul\":9045:9063   */\n      add\n        /* \"#utility.yul\":9037:9063   */\n      swap1\n      pop\n        /* \"#utility.yul\":9109:9118   */\n      dup2\n        /* \"#utility.yul\":9103:9107   */\n      dup2\n        /* \"#utility.yul\":9099:9119   */\n      sub\n        /* \"#utility.yul\":9095:9096   */\n      0x00\n        /* \"#utility.yul\":9084:9093   */\n      dup4\n        /* \"#utility.yul\":9080:9097   */\n      add\n        /* \"#utility.yul\":9073:9120   */\n      mstore\n        /* \"#utility.yul\":9137:9233   */\n      tag_551\n        /* \"#utility.yul\":9228:9232   */\n      dup2\n        /* \"#utility.yul\":9219:9225   */\n      dup5\n        /* \"#utility.yul\":9137:9233   */\n      tag_387\n      jump\t// in\n    tag_551:\n        /* \"#utility.yul\":9129:9233   */\n      swap1\n      pop\n        /* \"#utility.yul\":8891:9240   */\n      swap3\n      swap2\n      pop\n      pop\n      jump\t// out\n        /* \"#utility.yul\":9246:9355   */\n    tag_388:\n        /* \"#utility.yul\":9327:9348   */\n      tag_553\n        /* \"#utility.yul\":9342:9347   */\n      dup2\n        /* \"#utility.yul\":9327:9348   */\n      tag_382\n      jump\t// in\n    tag_553:\n        /* \"#utility.yul\":9322:9325   */\n      dup3\n        /* \"#utility.yul\":9315:9349   */\n      mstore\n        /* \"#utility.yul\":9246:9355   */\n      pop\n      pop\n      jump\t// out\n        /* \"#utility.yul\":9361:9571   */\n    tag_64:\n        /* \"#utility.yul\":9448:9452   */\n      0x00\n        /* \"#utility.yul\":9486:9488   */\n      0x20\n        /* \"#utility.yul\":9475:9484   */\n      dup3\n        /* \"#utility.yul\":9471:9489   */\n      add\n        /* \"#utility.yul\":9463:9489   */\n      swap1\n      pop\n        /* \"#utility.yul\":9499:9564   */\n      tag_555\n        /* \"#utility.yul\":9561:9562   */\n      0x00\n        /* \"#utility.yul\":9550:9559   */\n      dup4\n        /* \"#utility.yul\":9546:9563   */\n      add\n        /* \"#utility.yul\":9537:9543   */\n      dup5\n        /* \"#utility.yul\":9499:9564   */\n      tag_388\n      jump\t// in\n    tag_555:\n        /* \"#utility.yul\":9361:9571   */\n      swap3\n      swap2\n      pop\n      pop\n      jump\t// out\n        /* \"#utility.yul\":9577:10342   */\n    tag_67:\n        /* \"#utility.yul\":9663:9669   */\n      0x00\n        /* \"#utility.yul\":9671:9677   */\n      dup1\n        /* \"#utility.yul\":9679:9685   */\n      0x00\n        /* \"#utility.yul\":9687:9693   */\n      dup1\n        /* \"#utility.yul\":9736:9739   */\n      0x80\n        /* \"#utility.yul\":9724:9733   */\n      dup6\n        /* \"#utility.yul\":9715:9722   */\n      dup8\n        /* \"#utility.yul\":9711:9734   */\n      sub\n        /* \"#utility.yul\":9707:9740   */\n      slt\n        /* \"#utility.yul\":9704:9824   */\n      iszero\n      tag_557\n      jumpi\n        /* \"#utility.yul\":9743:9822   */\n      tag_558\n      tag_370\n      jump\t// in\n    tag_558:\n        /* \"#utility.yul\":9704:9824   */\n    tag_557:\n        /* \"#utility.yul\":9863:9864   */\n      0x00\n        /* \"#utility.yul\":9888:9941   */\n      tag_559\n        /* \"#utility.yul\":9933:9940   */\n      dup8\n        /* \"#utility.yul\":9924:9930   */\n      dup3\n        /* \"#utility.yul\":9913:9922   */\n      dup9\n        /* \"#utility.yul\":9909:9931   */\n      add\n        /* \"#utility.yul\":9888:9941   */\n      tag_374\n      jump\t// in\n    tag_559:\n        /* \"#utility.yul\":9878:9941   */\n      swap5\n      pop\n        /* \"#utility.yul\":9834:9951   */\n      pop\n        /* \"#utility.yul\":9990:9992   */\n      0x20\n        /* \"#utility.yul\":10016:10069   */\n      tag_560\n        /* \"#utility.yul\":10061:10068   */\n      dup8\n        /* \"#utility.yul\":10052:10058   */\n      dup3\n        /* \"#utility.yul\":10041:10050   */\n      dup9\n        /* \"#utility.yul\":10037:10059   */\n      add\n        /* \"#utility.yul\":10016:10069   */\n      tag_374\n      jump\t// in\n    tag_560:\n        /* \"#utility.yul\":10006:10069   */\n      swap4\n      pop\n        /* \"#utility.yul\":9961:10079   */\n      pop\n        /* \"#utility.yul\":10118:10120   */\n      0x40\n        /* \"#utility.yul\":10144:10197   */\n      tag_561\n        /* \"#utility.yul\":10189:10196   */\n      dup8\n        /* \"#utility.yul\":10180:10186   */\n      dup3\n        /* \"#utility.yul\":10169:10178   */\n      dup9\n        /* \"#utility.yul\":10165:10187   */\n      add\n        /* \"#utility.yul\":10144:10197   */\n      tag_374\n      jump\t// in\n    tag_561:\n        /* \"#utility.yul\":10134:10197   */\n      swap3\n      pop\n        /* \"#utility.yul\":10089:10207   */\n      pop\n        /* \"#utility.yul\":10246:10248   */\n      0x60\n        /* \"#utility.yul\":10272:10325   */\n      tag_562\n        /* \"#utility.yul\":10317:10324   */\n      dup8\n        /* \"#utility.yul\":10308:10314   */\n      dup3\n        /* \"#utility.yul\":10297:10306   */\n      dup9\n        /* \"#utility.yul\":10293:10315   */\n      add\n        /* \"#utility.yul\":10272:10325   */\n      tag_374\n      jump\t// in\n    tag_562:\n        /* \"#utility.yul\":10262:10325   */\n      swap2\n      pop\n        /* \"#utility.yul\":10217:10335   */\n      pop\n        /* \"#utility.yul\":9577:10342   */\n      swap3\n      swap6\n      swap2\n      swap5\n      pop\n      swap3\n      pop\n      jump\t// out\n        /* \"#utility.yul\":10348:10465   */\n    tag_389:\n        /* \"#utility.yul\":10457:10458   */\n      0x00\n        /* \"#utility.yul\":10454:10455   */\n      dup1\n        /* \"#utility.yul\":10447:10459   */\n      revert\n        /* \"#utility.yul\":10471:10588   */\n    tag_390:\n        /* \"#utility.yul\":10580:10581   */\n      0x00\n        /* \"#utility.yul\":10577:10578   */\n      dup1\n        /* \"#utility.yul\":10570:10582   */\n      revert\n        /* \"#utility.yul\":10594:10774   */\n    tag_391:\n        /* \"#utility.yul\":10642:10719   */\n      0x4e487b7100000000000000000000000000000000000000000000000000000000\n        /* \"#utility.yul\":10639:10640   */\n      0x00\n        /* \"#utility.yul\":10632:10720   */\n      mstore\n        /* \"#utility.yul\":10739:10743   */\n      0x41\n        /* \"#utility.yul\":10736:10737   */\n      0x04\n        /* \"#utility.yul\":10729:10744   */\n      mstore\n        /* \"#utility.yul\":10763:10767   */\n      0x24\n        /* \"#utility.yul\":10760:10761   */\n      0x00\n        /* \"#utility.yul\":10753:10768   */\n      revert\n        /* \"#utility.yul\":10780:11061   */\n    tag_392:\n        /* \"#utility.yul\":10863:10890   */\n      tag_567\n        /* \"#utility.yul\":10885:10889   */\n      dup3\n        /* \"#utility.yul\":10863:10890   */\n      tag_367\n      jump\t// in\n    tag_567:\n        /* \"#utility.yul\":10855:10861   */\n      dup2\n        /* \"#utility.yul\":10851:10891   */\n      add\n        /* \"#utility.yul\":10993:10999   */\n      dup2\n        /* \"#utility.yul\":10981:10991   */\n      dup2\n        /* \"#utility.yul\":10978:11000   */\n      lt\n        /* \"#utility.yul\":10957:10975   */\n      0xffffffffffffffff\n        /* \"#utility.yul\":10945:10955   */\n      dup3\n        /* \"#utility.yul\":10942:10976   */\n      gt\n        /* \"#utility.yul\":10939:11001   */\n      or\n        /* \"#utility.yul\":10936:11024   */\n      iszero\n      tag_568\n      jumpi\n        /* \"#utility.yul\":11004:11022   */\n      tag_569\n      tag_391\n      jump\t// in\n    tag_569:\n        /* \"#utility.yul\":10936:11024   */\n    tag_568:\n        /* \"#utility.yul\":11044:11054   */\n      dup1\n        /* \"#utility.yul\":11040:11042   */\n      0x40\n        /* \"#utility.yul\":11033:11055   */\n      mstore\n        /* \"#utility.yul\":10823:11061   */\n      pop\n        /* \"#utility.yul\":10780:11061   */\n      pop\n      pop\n      jump\t// out\n        /* \"#utility.yul\":11067:11196   */\n    tag_393:\n        /* \"#utility.yul\":11101:11107   */\n      0x00\n        /* \"#utility.yul\":11128:11148   */\n      tag_571\n      tag_369\n      jump\t// in\n    tag_571:\n        /* \"#utility.yul\":11118:11148   */\n      swap1\n      pop\n        /* \"#utility.yul\":11157:11190   */\n      tag_572\n        /* \"#utility.yul\":11185:11189   */\n      dup3\n        /* \"#utility.yul\":11177:11183   */\n      dup3\n        /* \"#utility.yul\":11157:11190   */\n      tag_392\n      jump\t// in\n    tag_572:\n        /* \"#utility.yul\":11067:11196   */\n      swap2\n      swap1\n      pop\n      jump\t// out\n        /* \"#utility.yul\":11202:11510   */\n    tag_394:\n        /* \"#utility.yul\":11264:11268   */\n      0x00\n        /* \"#utility.yul\":11354:11372   */\n      0xffffffffffffffff\n        /* \"#utility.yul\":11346:11352   */\n      dup3\n        /* \"#utility.yul\":11343:11373   */\n      gt\n        /* \"#utility.yul\":11340:11396   */\n      iszero\n      tag_574\n      jumpi\n        /* \"#utility.yul\":11376:11394   */\n      tag_575\n      tag_391\n      jump\t// in\n    tag_575:\n        /* \"#utility.yul\":11340:11396   */\n    tag_574:\n        /* \"#utility.yul\":11414:11443   */\n      tag_576\n        /* \"#utility.yul\":11436:11442   */\n      dup3\n        /* \"#utility.yul\":11414:11443   */\n      tag_367\n      jump\t// in\n    tag_576:\n        /* \"#utility.yul\":11406:11443   */\n      swap1\n      pop\n        /* \"#utility.yul\":11498:11502   */\n      0x20\n        /* \"#utility.yul\":11492:11496   */\n      dup2\n        /* \"#utility.yul\":11488:11503   */\n      add\n        /* \"#utility.yul\":11480:11503   */\n      swap1\n      pop\n        /* \"#utility.yul\":11202:11510   */\n      swap2\n      swap1\n      pop\n      jump\t// out\n        /* \"#utility.yul\":11516:11664   */\n    tag_395:\n        /* \"#utility.yul\":11614:11620   */\n      dup3\n        /* \"#utility.yul\":11609:11612   */\n      dup2\n        /* \"#utility.yul\":11604:11607   */\n      dup4\n        /* \"#utility.yul\":11591:11621   */\n      calldatacopy\n        /* \"#utility.yul\":11655:11656   */\n      0x00\n        /* \"#utility.yul\":11646:11652   */\n      dup4\n        /* \"#utility.yul\":11641:11644   */\n      dup4\n        /* \"#utility.yul\":11637:11653   */\n      add\n        /* \"#utility.yul\":11630:11657   */\n      mstore\n        /* \"#utility.yul\":11516:11664   */\n      pop\n      pop\n      pop\n      jump\t// out\n        /* \"#utility.yul\":11670:12095   */\n    tag_396:\n        /* \"#utility.yul\":11748:11753   */\n      0x00\n        /* \"#utility.yul\":11773:11839   */\n      tag_579\n        /* \"#utility.yul\":11789:11838   */\n      tag_580\n        /* \"#utility.yul\":11831:11837   */\n      dup5\n        /* \"#utility.yul\":11789:11838   */\n      tag_394\n      jump\t// in\n    tag_580:\n        /* \"#utility.yul\":11773:11839   */\n      tag_393\n      jump\t// in\n    tag_579:\n        /* \"#utility.yul\":11764:11839   */\n      swap1\n      pop\n        /* \"#utility.yul\":11862:11868   */\n      dup3\n        /* \"#utility.yul\":11855:11860   */\n      dup2\n        /* \"#utility.yul\":11848:11869   */\n      mstore\n        /* \"#utility.yul\":11900:11904   */\n      0x20\n        /* \"#utility.yul\":11893:11898   */\n      dup2\n        /* \"#utility.yul\":11889:11905   */\n      add\n        /* \"#utility.yul\":11938:11941   */\n      dup5\n        /* \"#utility.yul\":11929:11935   */\n      dup5\n        /* \"#utility.yul\":11924:11927   */\n      dup5\n        /* \"#utility.yul\":11920:11936   */\n      add\n        /* \"#utility.yul\":11917:11942   */\n      gt\n        /* \"#utility.yul\":11914:12026   */\n      iszero\n      tag_581\n      jumpi\n        /* \"#utility.yul\":11945:12024   */\n      tag_582\n      tag_390\n      jump\t// in\n    tag_582:\n        /* \"#utility.yul\":11914:12026   */\n    tag_581:\n        /* \"#utility.yul\":12035:12089   */\n      tag_583\n        /* \"#utility.yul\":12082:12088   */\n      dup5\n        /* \"#utility.yul\":12077:12080   */\n      dup3\n        /* \"#utility.yul\":12072:12075   */\n      dup6\n        /* \"#utility.yul\":12035:12089   */\n      tag_395\n      jump\t// in\n    tag_583:\n        /* \"#utility.yul\":11754:12095   */\n      pop\n        /* \"#utility.yul\":11670:12095   */\n      swap4\n      swap3\n      pop\n      pop\n      pop\n      jump\t// out\n        /* \"#utility.yul\":12115:12455   */\n    tag_397:\n        /* \"#utility.yul\":12171:12176   */\n      0x00\n        /* \"#utility.yul\":12220:12223   */\n      dup3\n        /* \"#utility.yul\":12213:12217   */\n      0x1f\n        /* \"#utility.yul\":12205:12211   */\n      dup4\n        /* \"#utility.yul\":12201:12218   */\n      add\n        /* \"#utility.yul\":12197:12224   */\n      slt\n        /* \"#utility.yul\":12187:12309   */\n      tag_585\n      jumpi\n        /* \"#utility.yul\":12228:12307   */\n      tag_586\n      tag_389\n      jump\t// in\n    tag_586:\n        /* \"#utility.yul\":12187:12309   */\n    tag_585:\n        /* \"#utility.yul\":12345:12351   */\n      dup2\n        /* \"#utility.yul\":12332:12352   */\n      calldataload\n        /* \"#utility.yul\":12370:12449   */\n      tag_587\n        /* \"#utility.yul\":12445:12448   */\n      dup5\n        /* \"#utility.yul\":12437:12443   */\n      dup3\n        /* \"#utility.yul\":12430:12434   */\n      0x20\n        /* \"#utility.yul\":12422:12428   */\n      dup7\n        /* \"#utility.yul\":12418:12435   */\n      add\n        /* \"#utility.yul\":12370:12449   */\n      tag_396\n      jump\t// in\n    tag_587:\n        /* \"#utility.yul\":12361:12449   */\n      swap2\n      pop\n        /* \"#utility.yul\":12177:12455   */\n      pop\n        /* \"#utility.yul\":12115:12455   */\n      swap3\n      swap2\n      pop\n      pop\n      jump\t// out\n        /* \"#utility.yul\":12461:13732   */\n    tag_76:\n        /* \"#utility.yul\":12576:12582   */\n      0x00\n        /* \"#utility.yul\":12584:12590   */\n      dup1\n        /* \"#utility.yul\":12592:12598   */\n      0x00\n        /* \"#utility.yul\":12600:12606   */\n      dup1\n        /* \"#utility.yul\":12608:12614   */\n      0x00\n        /* \"#utility.yul\":12657:12660   */\n      0xa0\n        /* \"#utility.yul\":12645:12654   */\n      dup7\n        /* \"#utility.yul\":12636:12643   */\n      dup9\n        /* \"#utility.yul\":12632:12655   */\n      sub\n        /* \"#utility.yul\":12628:12661   */\n      slt\n        /* \"#utility.yul\":12625:12745   */\n      iszero\n      tag_589\n      jumpi\n        /* \"#utility.yul\":12664:12743   */\n      tag_590\n      tag_370\n      jump\t// in\n    tag_590:\n        /* \"#utility.yul\":12625:12745   */\n    tag_589:\n        /* \"#utility.yul\":12812:12813   */\n      0x00\n        /* \"#utility.yul\":12801:12810   */\n      dup7\n        /* \"#utility.yul\":12797:12814   */\n      add\n        /* \"#utility.yul\":12784:12815   */\n      calldataload\n        /* \"#utility.yul\":12842:12860   */\n      0xffffffffffffffff\n        /* \"#utility.yul\":12834:12840   */\n      dup2\n        /* \"#utility.yul\":12831:12861   */\n      gt\n        /* \"#utility.yul\":12828:12945   */\n      iszero\n      tag_591\n      jumpi\n        /* \"#utility.yul\":12864:12943   */\n      tag_592\n      tag_371\n      jump\t// in\n    tag_592:\n        /* \"#utility.yul\":12828:12945   */\n    tag_591:\n        /* \"#utility.yul\":12969:13032   */\n      tag_593\n        /* \"#utility.yul\":13024:13031   */\n      dup9\n        /* \"#utility.yul\":13015:13021   */\n      dup3\n        /* \"#utility.yul\":13004:13013   */\n      dup10\n        /* \"#utility.yul\":13000:13022   */\n      add\n        /* \"#utility.yul\":12969:13032   */\n      tag_397\n      jump\t// in\n    tag_593:\n        /* \"#utility.yul\":12959:13032   */\n      swap6\n      pop\n        /* \"#utility.yul\":12755:13042   */\n      pop\n        /* \"#utility.yul\":13109:13111   */\n      0x20\n        /* \"#utility.yul\":13098:13107   */\n      dup7\n        /* \"#utility.yul\":13094:13112   */\n      add\n        /* \"#utility.yul\":13081:13113   */\n      calldataload\n        /* \"#utility.yul\":13140:13158   */\n      0xffffffffffffffff\n        /* \"#utility.yul\":13132:13138   */\n      dup2\n        /* \"#utility.yul\":13129:13159   */\n      gt\n        /* \"#utility.yul\":13126:13243   */\n      iszero\n      tag_594\n      jumpi\n        /* \"#utility.yul\":13162:13241   */\n      tag_595\n      tag_371\n      jump\t// in\n    tag_595:\n        /* \"#utility.yul\":13126:13243   */\n    tag_594:\n        /* \"#utility.yul\":13267:13330   */\n      tag_596\n        /* \"#utility.yul\":13322:13329   */\n      dup9\n        /* \"#utility.yul\":13313:13319   */\n      dup3\n        /* \"#utility.yul\":13302:13311   */\n      dup10\n        /* \"#utility.yul\":13298:13320   */\n      add\n        /* \"#utility.yul\":13267:13330   */\n      tag_397\n      jump\t// in\n    tag_596:\n        /* \"#utility.yul\":13257:13330   */\n      swap5\n      pop\n        /* \"#utility.yul\":13052:13340   */\n      pop\n        /* \"#utility.yul\":13379:13381   */\n      0x40\n        /* \"#utility.yul\":13405:13458   */\n      tag_597\n        /* \"#utility.yul\":13450:13457   */\n      dup9\n        /* \"#utility.yul\":13441:13447   */\n      dup3\n        /* \"#utility.yul\":13430:13439   */\n      dup10\n        /* \"#utility.yul\":13426:13448   */\n      add\n        /* \"#utility.yul\":13405:13458   */\n      tag_374\n      jump\t// in\n    tag_597:\n        /* \"#utility.yul\":13395:13458   */\n      swap4\n      pop\n        /* \"#utility.yul\":13350:13468   */\n      pop\n        /* \"#utility.yul\":13507:13509   */\n      0x60\n        /* \"#utility.yul\":13533:13586   */\n      tag_598\n        /* \"#utility.yul\":13578:13585   */\n      dup9\n        /* \"#utility.yul\":13569:13575   */\n      dup3\n        /* \"#utility.yul\":13558:13567   */\n      dup10\n        /* \"#utility.yul\":13554:13576   */\n      add\n        /* \"#utility.yul\":13533:13586   */\n      tag_374\n      jump\t// in\n    tag_598:\n        /* \"#utility.yul\":13523:13586   */\n      swap3\n      pop\n        /* \"#utility.yul\":13478:13596   */\n      pop\n        /* \"#utility.yul\":13635:13638   */\n      0x80\n        /* \"#utility.yul\":13662:13715   */\n      tag_599\n        /* \"#utility.yul\":13707:13714   */\n      dup9\n        /* \"#utility.yul\":13698:13704   */\n      dup3\n        /* \"#utility.yul\":13687:13696   */\n      dup10\n        /* \"#utility.yul\":13683:13705   */\n      add\n        /* \"#utility.yul\":13662:13715   */\n      tag_374\n      jump\t// in\n    tag_599:\n        /* \"#utility.yul\":13652:13715   */\n      swap2\n      pop\n        /* \"#utility.yul\":13606:13725   */\n      pop\n        /* \"#utility.yul\":12461:13732   */\n      swap3\n      swap6\n      pop\n      swap3\n      swap6\n      swap1\n      swap4\n      pop\n      jump\t// out\n        /* \"#utility.yul\":13738:13856   */\n    tag_398:\n        /* \"#utility.yul\":13825:13849   */\n      tag_601\n        /* \"#utility.yul\":13843:13848   */\n      dup2\n        /* \"#utility.yul\":13825:13849   */\n      tag_372\n      jump\t// in\n    tag_601:\n        /* \"#utility.yul\":13820:13823   */\n      dup3\n        /* \"#utility.yul\":13813:13850   */\n      mstore\n        /* \"#utility.yul\":13738:13856   */\n      pop\n      pop\n      jump\t// out\n        /* \"#utility.yul\":13862:14084   */\n    tag_79:\n        /* \"#utility.yul\":13955:13959   */\n      0x00\n        /* \"#utility.yul\":13993:13995   */\n      0x20\n        /* \"#utility.yul\":13982:13991   */\n      dup3\n        /* \"#utility.yul\":13978:13996   */\n      add\n        /* \"#utility.yul\":13970:13996   */\n      swap1\n      pop\n        /* \"#utility.yul\":14006:14077   */\n      tag_603\n        /* \"#utility.yul\":14074:14075   */\n      0x00\n        /* \"#utility.yul\":14063:14072   */\n      dup4\n        /* \"#utility.yul\":14059:14076   */\n      add\n        /* \"#utility.yul\":14050:14056   */\n      dup5\n        /* \"#utility.yul\":14006:14077   */\n      tag_398\n      jump\t// in\n    tag_603:\n        /* \"#utility.yul\":13862:14084   */\n      swap3\n      swap2\n      pop\n      pop\n      jump\t// out\n        /* \"#utility.yul\":14090:14419   */\n    tag_88:\n        /* \"#utility.yul\":14149:14155   */\n      0x00\n        /* \"#utility.yul\":14198:14200   */\n      0x20\n        /* \"#utility.yul\":14186:14195   */\n      dup3\n        /* \"#utility.yul\":14177:14184   */\n      dup5\n        /* \"#utility.yul\":14173:14196   */\n      sub\n        /* \"#utility.yul\":14169:14201   */\n      slt\n        /* \"#utility.yul\":14166:14285   */\n      iszero\n      tag_605\n      jumpi\n        /* \"#utility.yul\":14204:14283   */\n      tag_606\n      tag_370\n      jump\t// in\n    tag_606:\n        /* \"#utility.yul\":14166:14285   */\n    tag_605:\n        /* \"#utility.yul\":14324:14325   */\n      0x00\n        /* \"#utility.yul\":14349:14402   */\n      tag_607\n        /* \"#utility.yul\":14394:14401   */\n      dup5\n        /* \"#utility.yul\":14385:14391   */\n      dup3\n        /* \"#utility.yul\":14374:14383   */\n      dup6\n        /* \"#utility.yul\":14370:14392   */\n      add\n        /* \"#utility.yul\":14349:14402   */\n      tag_379\n      jump\t// in\n    tag_607:\n        /* \"#utility.yul\":14339:14402   */\n      swap2\n      pop\n        /* \"#utility.yul\":14295:14412   */\n      pop\n        /* \"#utility.yul\":14090:14419   */\n      swap3\n      swap2\n      pop\n      pop\n      jump\t// out\n        /* \"#utility.yul\":14425:14541   */\n    tag_399:\n        /* \"#utility.yul\":14495:14516   */\n      tag_609\n        /* \"#utility.yul\":14510:14515   */\n      dup2\n        /* \"#utility.yul\":14495:14516   */\n      tag_382\n      jump\t// in\n    tag_609:\n        /* \"#utility.yul\":14488:14493   */\n      dup2\n        /* \"#utility.yul\":14485:14517   */\n      eq\n        /* \"#utility.yul\":14475:14535   */\n      tag_610\n      jumpi\n        /* \"#utility.yul\":14531:14532   */\n      0x00\n        /* \"#utility.yul\":14528:14529   */\n      dup1\n        /* \"#utility.yul\":14521:14533   */\n      revert\n        /* \"#utility.yul\":14475:14535   */\n    tag_610:\n        /* \"#utility.yul\":14425:14541   */\n      pop\n      jump\t// out\n        /* \"#utility.yul\":14547:14680   */\n    tag_400:\n        /* \"#utility.yul\":14590:14595   */\n      0x00\n        /* \"#utility.yul\":14628:14634   */\n      dup2\n        /* \"#utility.yul\":14615:14635   */\n      calldataload\n        /* \"#utility.yul\":14606:14635   */\n      swap1\n      pop\n        /* \"#utility.yul\":14644:14674   */\n      tag_612\n        /* \"#utility.yul\":14668:14673   */\n      dup2\n        /* \"#utility.yul\":14644:14674   */\n      tag_399\n      jump\t// in\n    tag_612:\n        /* \"#utility.yul\":14547:14680   */\n      swap3\n      swap2\n      pop\n      pop\n      jump\t// out\n        /* \"#utility.yul\":14686:15154   */\n    tag_103:\n        /* \"#utility.yul\":14751:14757   */\n      0x00\n        /* \"#utility.yul\":14759:14765   */\n      dup1\n        /* \"#utility.yul\":14808:14810   */\n      0x40\n        /* \"#utility.yul\":14796:14805   */\n      dup4\n        /* \"#utility.yul\":14787:14794   */\n      dup6\n        /* \"#utility.yul\":14783:14806   */\n      sub\n        /* \"#utility.yul\":14779:14811   */\n      slt\n        /* \"#utility.yul\":14776:14895   */\n      iszero\n      tag_614\n      jumpi\n        /* \"#utility.yul\":14814:14893   */\n      tag_615\n      tag_370\n      jump\t// in\n    tag_615:\n        /* \"#utility.yul\":14776:14895   */\n    tag_614:\n        /* \"#utility.yul\":14934:14935   */\n      0x00\n        /* \"#utility.yul\":14959:15012   */\n      tag_616\n        /* \"#utility.yul\":15004:15011   */\n      dup6\n        /* \"#utility.yul\":14995:15001   */\n      dup3\n        /* \"#utility.yul\":14984:14993   */\n      dup7\n        /* \"#utility.yul\":14980:15002   */\n      add\n        /* \"#utility.yul\":14959:15012   */\n      tag_379\n      jump\t// in\n    tag_616:\n        /* \"#utility.yul\":14949:15012   */\n      swap3\n      pop\n        /* \"#utility.yul\":14905:15022   */\n      pop\n        /* \"#utility.yul\":15061:15063   */\n      0x20\n        /* \"#utility.yul\":15087:15137   */\n      tag_617\n        /* \"#utility.yul\":15129:15136   */\n      dup6\n        /* \"#utility.yul\":15120:15126   */\n      dup3\n        /* \"#utility.yul\":15109:15118   */\n      dup7\n        /* \"#utility.yul\":15105:15127   */\n      add\n        /* \"#utility.yul\":15087:15137   */\n      tag_400\n      jump\t// in\n    tag_617:\n        /* \"#utility.yul\":15077:15137   */\n      swap2\n      pop\n        /* \"#utility.yul\":15032:15147   */\n      pop\n        /* \"#utility.yul\":14686:15154   */\n      swap3\n      pop\n      swap3\n      swap1\n      pop\n      jump\t// out\n        /* \"#utility.yul\":15160:15634   */\n    tag_119:\n        /* \"#utility.yul\":15228:15234   */\n      0x00\n        /* \"#utility.yul\":15236:15242   */\n      dup1\n        /* \"#utility.yul\":15285:15287   */\n      0x40\n        /* \"#utility.yul\":15273:15282   */\n      dup4\n        /* \"#utility.yul\":15264:15271   */\n      dup6\n        /* \"#utility.yul\":15260:15283   */\n      sub\n        /* \"#utility.yul\":15256:15288   */\n      slt\n        /* \"#utility.yul\":15253:15372   */\n      iszero\n      tag_619\n      jumpi\n        /* \"#utility.yul\":15291:15370   */\n      tag_620\n      tag_370\n      jump\t// in\n    tag_620:\n        /* \"#utility.yul\":15253:15372   */\n    tag_619:\n        /* \"#utility.yul\":15411:15412   */\n      0x00\n        /* \"#utility.yul\":15436:15489   */\n      tag_621\n        /* \"#utility.yul\":15481:15488   */\n      dup6\n        /* \"#utility.yul\":15472:15478   */\n      dup3\n        /* \"#utility.yul\":15461:15470   */\n      dup7\n        /* \"#utility.yul\":15457:15479   */\n      add\n        /* \"#utility.yul\":15436:15489   */\n      tag_374\n      jump\t// in\n    tag_621:\n        /* \"#utility.yul\":15426:15489   */\n      swap3\n      pop\n        /* \"#utility.yul\":15382:15499   */\n      pop\n        /* \"#utility.yul\":15538:15540   */\n      0x20\n        /* \"#utility.yul\":15564:15617   */\n      tag_622\n        /* \"#utility.yul\":15609:15616   */\n      dup6\n        /* \"#utility.yul\":15600:15606   */\n      dup3\n        /* \"#utility.yul\":15589:15598   */\n      dup7\n        /* \"#utility.yul\":15585:15607   */\n      add\n        /* \"#utility.yul\":15564:15617   */\n      tag_374\n      jump\t// in\n    tag_622:\n        /* \"#utility.yul\":15554:15617   */\n      swap2\n      pop\n        /* \"#utility.yul\":15509:15627   */\n      pop\n        /* \"#utility.yul\":15160:15634   */\n      swap3\n      pop\n      swap3\n      swap1\n      pop\n      jump\t// out\n        /* \"#utility.yul\":15640:16114   */\n    tag_124:\n        /* \"#utility.yul\":15708:15714   */\n      0x00\n        /* \"#utility.yul\":15716:15722   */\n      dup1\n        /* \"#utility.yul\":15765:15767   */\n      0x40\n        /* \"#utility.yul\":15753:15762   */\n      dup4\n        /* \"#utility.yul\":15744:15751   */\n      dup6\n        /* \"#utility.yul\":15740:15763   */\n      sub\n        /* \"#utility.yul\":15736:15768   */\n      slt\n        /* \"#utility.yul\":15733:15852   */\n      iszero\n      tag_624\n      jumpi\n        /* \"#utility.yul\":15771:15850   */\n      tag_625\n      tag_370\n      jump\t// in\n    tag_625:\n        /* \"#utility.yul\":15733:15852   */\n    tag_624:\n        /* \"#utility.yul\":15891:15892   */\n      0x00\n        /* \"#utility.yul\":15916:15969   */\n      tag_626\n        /* \"#utility.yul\":15961:15968   */\n      dup6\n        /* \"#utility.yul\":15952:15958   */\n      dup3\n        /* \"#utility.yul\":15941:15950   */\n      dup7\n        /* \"#utility.yul\":15937:15959   */\n      add\n        /* \"#utility.yul\":15916:15969   */\n      tag_379\n      jump\t// in\n    tag_626:\n        /* \"#utility.yul\":15906:15969   */\n      swap3\n      pop\n        /* \"#utility.yul\":15862:15979   */\n      pop\n        /* \"#utility.yul\":16018:16020   */\n      0x20\n        /* \"#utility.yul\":16044:16097   */\n      tag_627\n        /* \"#utility.yul\":16089:16096   */\n      dup6\n        /* \"#utility.yul\":16080:16086   */\n      dup3\n        /* \"#utility.yul\":16069:16078   */\n      dup7\n        /* \"#utility.yul\":16065:16087   */\n      add\n        /* \"#utility.yul\":16044:16097   */\n      tag_379\n      jump\t// in\n    tag_627:\n        /* \"#utility.yul\":16034:16097   */\n      swap2\n      pop\n        /* \"#utility.yul\":15989:16107   */\n      pop\n        /* \"#utility.yul\":15640:16114   */\n      swap3\n      pop\n      swap3\n      swap1\n      pop\n      jump\t// out\n        /* \"#utility.yul\":16120:16300   */\n    tag_401:\n        /* \"#utility.yul\":16168:16245   */\n      0x4e487b7100000000000000000000000000000000000000000000000000000000\n        /* \"#utility.yul\":16165:16166   */\n      0x00\n        /* \"#utility.yul\":16158:16246   */\n      mstore\n        /* \"#utility.yul\":16265:16269   */\n      0x22\n        /* \"#utility.yul\":16262:16263   */\n      0x04\n        /* \"#utility.yul\":16255:16270   */\n      mstore\n        /* \"#utility.yul\":16289:16293   */\n      0x24\n        /* \"#utility.yul\":16286:16287   */\n      0x00\n        /* \"#utility.yul\":16279:16294   */\n      revert\n        /* \"#utility.yul\":16306:16626   */\n    tag_129:\n        /* \"#utility.yul\":16350:16356   */\n      0x00\n        /* \"#utility.yul\":16387:16388   */\n      0x02\n        /* \"#utility.yul\":16381:16385   */\n      dup3\n        /* \"#utility.yul\":16377:16389   */\n      div\n        /* \"#utility.yul\":16367:16389   */\n      swap1\n      pop\n        /* \"#utility.yul\":16434:16435   */\n      0x01\n        /* \"#utility.yul\":16428:16432   */\n      dup3\n        /* \"#utility.yul\":16424:16436   */\n      and\n        /* \"#utility.yul\":16455:16473   */\n      dup1\n        /* \"#utility.yul\":16445:16526   */\n      tag_630\n      jumpi\n        /* \"#utility.yul\":16511:16515   */\n      0x7f\n        /* \"#utility.yul\":16503:16509   */\n      dup3\n        /* \"#utility.yul\":16499:16516   */\n      and\n        /* \"#utility.yul\":16489:16516   */\n      swap2\n      pop\n        /* \"#utility.yul\":16445:16526   */\n    tag_630:\n        /* \"#utility.yul\":16573:16575   */\n      0x20\n        /* \"#utility.yul\":16565:16571   */\n      dup3\n        /* \"#utility.yul\":16562:16576   */\n      lt\n        /* \"#utility.yul\":16542:16560   */\n      dup2\n        /* \"#utility.yul\":16539:16577   */\n      sub\n        /* \"#utility.yul\":16536:16620   */\n      tag_631\n      jumpi\n        /* \"#utility.yul\":16592:16610   */\n      tag_632\n      tag_401\n      jump\t// in\n    tag_632:\n        /* \"#utility.yul\":16536:16620   */\n    tag_631:\n        /* \"#utility.yul\":16357:16626   */\n      pop\n        /* \"#utility.yul\":16306:16626   */\n      swap2\n      swap1\n      pop\n      jump\t// out\n        /* \"#utility.yul\":16632:16805   */\n    tag_402:\n        /* \"#utility.yul\":16772:16797   */\n      0x546f6b656e20494420646f6573206e6f74206578697374000000000000000000\n        /* \"#utility.yul\":16768:16769   */\n      0x00\n        /* \"#utility.yul\":16760:16766   */\n      dup3\n        /* \"#utility.yul\":16756:16770   */\n      add\n        /* \"#utility.yul\":16749:16798   */\n      mstore\n        /* \"#utility.yul\":16632:16805   */\n      pop\n      jump\t// out\n        /* \"#utility.yul\":16811:17177   */\n    tag_403:\n        /* \"#utility.yul\":16953:16956   */\n      0x00\n        /* \"#utility.yul\":16974:17041   */\n      tag_635\n        /* \"#utility.yul\":17038:17040   */\n      0x17\n        /* \"#utility.yul\":17033:17036   */\n      dup4\n        /* \"#utility.yul\":16974:17041   */\n      tag_365\n      jump\t// in\n    tag_635:\n        /* \"#utility.yul\":16967:17041   */\n      swap2\n      pop\n        /* \"#utility.yul\":17050:17143   */\n      tag_636\n        /* \"#utility.yul\":17139:17142   */\n      dup3\n        /* \"#utility.yul\":17050:17143   */\n      tag_402\n      jump\t// in\n    tag_636:\n        /* \"#utility.yul\":17168:17170   */\n      0x20\n        /* \"#utility.yul\":17163:17166   */\n      dup3\n        /* \"#utility.yul\":17159:17171   */\n      add\n        /* \"#utility.yul\":17152:17171   */\n      swap1\n      pop\n        /* \"#utility.yul\":16811:17177   */\n      swap2\n      swap1\n      pop\n      jump\t// out\n        /* \"#utility.yul\":17183:17602   */\n    tag_138:\n        /* \"#utility.yul\":17349:17353   */\n      0x00\n        /* \"#utility.yul\":17387:17389   */\n      0x20\n        /* \"#utility.yul\":17376:17385   */\n      dup3\n        /* \"#utility.yul\":17372:17390   */\n      add\n        /* \"#utility.yul\":17364:17390   */\n      swap1\n      pop\n        /* \"#utility.yul\":17436:17445   */\n      dup2\n        /* \"#utility.yul\":17430:17434   */\n      dup2\n        /* \"#utility.yul\":17426:17446   */\n      sub\n        /* \"#utility.yul\":17422:17423   */\n      0x00\n        /* \"#utility.yul\":17411:17420   */\n      dup4\n        /* \"#utility.yul\":17407:17424   */\n      add\n        /* \"#utility.yul\":17400:17447   */\n      mstore\n        /* \"#utility.yul\":17464:17595   */\n      tag_638\n        /* \"#utility.yul\":17590:17594   */\n      dup2\n        /* \"#utility.yul\":17464:17595   */\n      tag_403\n      jump\t// in\n    tag_638:\n        /* \"#utility.yul\":17456:17595   */\n      swap1\n      pop\n        /* \"#utility.yul\":17183:17602   */\n      swap2\n      swap1\n      pop\n      jump\t// out\n        /* \"#utility.yul\":17608:17783   */\n    tag_404:\n        /* \"#utility.yul\":17748:17775   */\n      0x417070726f76616c20746f2063757272656e74206f776e657200000000000000\n        /* \"#utility.yul\":17744:17745   */\n      0x00\n        /* \"#utility.yul\":17736:17742   */\n      dup3\n        /* \"#utility.yul\":17732:17746   */\n      add\n        /* \"#utility.yul\":17725:17776   */\n      mstore\n        /* \"#utility.yul\":17608:17783   */\n      pop\n      jump\t// out\n        /* \"#utility.yul\":17789:18155   */\n    tag_405:\n        /* \"#utility.yul\":17931:17934   */\n      0x00\n        /* \"#utility.yul\":17952:18019   */\n      tag_641\n        /* \"#utility.yul\":18016:18018   */\n      0x19\n        /* \"#utility.yul\":18011:18014   */\n      dup4\n        /* \"#utility.yul\":17952:18019   */\n      tag_365\n      jump\t// in\n    tag_641:\n        /* \"#utility.yul\":17945:18019   */\n      swap2\n      pop\n        /* \"#utility.yul\":18028:18121   */\n      tag_642\n        /* \"#utility.yul\":18117:18120   */\n      dup3\n        /* \"#utility.yul\":18028:18121   */\n      tag_404\n      jump\t// in\n    tag_642:\n        /* \"#utility.yul\":18146:18148   */\n      0x20\n        /* \"#utility.yul\":18141:18144   */\n      dup3\n        /* \"#utility.yul\":18137:18149   */\n      add\n        /* \"#utility.yul\":18130:18149   */\n      swap1\n      pop\n        /* \"#utility.yul\":17789:18155   */\n      swap2\n      swap1\n      pop\n      jump\t// out\n        /* \"#utility.yul\":18161:18580   */\n    tag_143:\n        /* \"#utility.yul\":18327:18331   */\n      0x00\n        /* \"#utility.yul\":18365:18367   */\n      0x20\n        /* \"#utility.yul\":18354:18363   */\n      dup3\n        /* \"#utility.yul\":18350:18368   */\n      add\n        /* \"#utility.yul\":18342:18368   */\n      swap1\n      pop\n        /* \"#utility.yul\":18414:18423   */\n      dup2\n        /* \"#utility.yul\":18408:18412   */\n      dup2\n        /* \"#utility.yul\":18404:18424   */\n      sub\n        /* \"#utility.yul\":18400:18401   */\n      0x00\n        /* \"#utility.yul\":18389:18398   */\n      dup4\n        /* \"#utility.yul\":18385:18402   */\n      add\n        /* \"#utility.yul\":18378:18425   */\n      mstore\n        /* \"#utility.yul\":18442:18573   */\n      tag_644\n        /* \"#utility.yul\":18568:18572   */\n      dup2\n        /* \"#utility.yul\":18442:18573   */\n      tag_405\n      jump\t// in\n    tag_644:\n        /* \"#utility.yul\":18434:18573   */\n      swap1\n      pop\n        /* \"#utility.yul\":18161:18580   */\n      swap2\n      swap1\n      pop\n      jump\t// out\n        /* \"#utility.yul\":18586:18813   */\n    tag_406:\n        /* \"#utility.yul\":18726:18760   */\n      0x43616c6c6572206973206e6f74206f776e6572206e6f7220617070726f766564\n        /* \"#utility.yul\":18722:18723   */\n      0x00\n        /* \"#utility.yul\":18714:18720   */\n      dup3\n        /* \"#utility.yul\":18710:18724   */\n      add\n        /* \"#utility.yul\":18703:18761   */\n      mstore\n        /* \"#utility.yul\":18795:18805   */\n      0x20666f7220616c6c000000000000000000000000000000000000000000000000\n        /* \"#utility.yul\":18790:18792   */\n      0x20\n        /* \"#utility.yul\":18782:18788   */\n      dup3\n        /* \"#utility.yul\":18778:18793   */\n      add\n        /* \"#utility.yul\":18771:18806   */\n      mstore\n        /* \"#utility.yul\":18586:18813   */\n      pop\n      jump\t// out\n        /* \"#utility.yul\":18819:19185   */\n    tag_407:\n        /* \"#utility.yul\":18961:18964   */\n      0x00\n        /* \"#utility.yul\":18982:19049   */\n      tag_647\n        /* \"#utility.yul\":19046:19048   */\n      0x28\n        /* \"#utility.yul\":19041:19044   */\n      dup4\n        /* \"#utility.yul\":18982:19049   */\n      tag_365\n      jump\t// in\n    tag_647:\n        /* \"#utility.yul\":18975:19049   */\n      swap2\n      pop\n        /* \"#utility.yul\":19058:19151   */\n      tag_648\n        /* \"#utility.yul\":19147:19150   */\n      dup3\n        /* \"#utility.yul\":19058:19151   */\n      tag_406\n      jump\t// in\n    tag_648:\n        /* \"#utility.yul\":19176:19178   */\n      0x40\n        /* \"#utility.yul\":19171:19174   */\n      dup3\n        /* \"#utility.yul\":19167:19179   */\n      add\n        /* \"#utility.yul\":19160:19179   */\n      swap1\n      pop\n        /* \"#utility.yul\":18819:19185   */\n      swap2\n      swap1\n      pop\n      jump\t// out\n        /* \"#utility.yul\":19191:19610   */\n    tag_148:\n        /* \"#utility.yul\":19357:19361   */\n      0x00\n        /* \"#utility.yul\":19395:19397   */\n      0x20\n        /* \"#utility.yul\":19384:19393   */\n      dup3\n        /* \"#utility.yul\":19380:19398   */\n      add\n        /* \"#utility.yul\":19372:19398   */\n      swap1\n      pop\n        /* \"#utility.yul\":19444:19453   */\n      dup2\n        /* \"#utility.yul\":19438:19442   */\n      dup2\n        /* \"#utility.yul\":19434:19454   */\n      sub\n        /* \"#utility.yul\":19430:19431   */\n      0x00\n        /* \"#utility.yul\":19419:19428   */\n      dup4\n        /* \"#utility.yul\":19415:19432   */\n      add\n        /* \"#utility.yul\":19408:19455   */\n      mstore\n        /* \"#utility.yul\":19472:19603   */\n      tag_650\n        /* \"#utility.yul\":19598:19602   */\n      dup2\n        /* \"#utility.yul\":19472:19603   */\n      tag_407\n      jump\t// in\n    tag_650:\n        /* \"#utility.yul\":19464:19603   */\n      swap1\n      pop\n        /* \"#utility.yul\":19191:19610   */\n      swap2\n      swap1\n      pop\n      jump\t// out\n        /* \"#utility.yul\":19616:19798   */\n    tag_408:\n        /* \"#utility.yul\":19756:19790   */\n      0x43616c6c6572206973206e6f74206f776e6572206e6f7220617070726f766564\n        /* \"#utility.yul\":19752:19753   */\n      0x00\n        /* \"#utility.yul\":19744:19750   */\n      dup3\n        /* \"#utility.yul\":19740:19754   */\n      add\n        /* \"#utility.yul\":19733:19791   */\n      mstore\n        /* \"#utility.yul\":19616:19798   */\n      pop\n      jump\t// out\n        /* \"#utility.yul\":19804:20170   */\n    tag_409:\n        /* \"#utility.yul\":19946:19949   */\n      0x00\n        /* \"#utility.yul\":19967:20034   */\n      tag_653\n        /* \"#utility.yul\":20031:20033   */\n      0x20\n        /* \"#utility.yul\":20026:20029   */\n      dup4\n        /* \"#utility.yul\":19967:20034   */\n      tag_365\n      jump\t// in\n    tag_653:\n        /* \"#utility.yul\":19960:20034   */\n      swap2\n      pop\n        /* \"#utility.yul\":20043:20136   */\n      tag_654\n        /* \"#utility.yul\":20132:20135   */\n      dup3\n        /* \"#utility.yul\":20043:20136   */\n      tag_408\n      jump\t// in\n    tag_654:\n        /* \"#utility.yul\":20161:20163   */\n      0x20\n        /* \"#utility.yul\":20156:20159   */\n      dup3\n        /* \"#utility.yul\":20152:20164   */\n      add\n        /* \"#utility.yul\":20145:20164   */\n      swap1\n      pop\n        /* \"#utility.yul\":19804:20170   */\n      swap2\n      swap1\n      pop\n      jump\t// out\n        /* \"#utility.yul\":20176:20595   */\n    tag_154:\n        /* \"#utility.yul\":20342:20346   */\n      0x00\n        /* \"#utility.yul\":20380:20382   */\n      0x20\n        /* \"#utility.yul\":20369:20378   */\n      dup3\n        /* \"#utility.yul\":20365:20383   */\n      add\n        /* \"#utility.yul\":20357:20383   */\n      swap1\n      pop\n        /* \"#utility.yul\":20429:20438   */\n      dup2\n        /* \"#utility.yul\":20423:20427   */\n      dup2\n        /* \"#utility.yul\":20419:20439   */\n      sub\n        /* \"#utility.yul\":20415:20416   */\n      0x00\n        /* \"#utility.yul\":20404:20413   */\n      dup4\n        /* \"#utility.yul\":20400:20417   */\n      add\n        /* \"#utility.yul\":20393:20440   */\n      mstore\n        /* \"#utility.yul\":20457:20588   */\n      tag_656\n        /* \"#utility.yul\":20583:20587   */\n      dup2\n        /* \"#utility.yul\":20457:20588   */\n      tag_409\n      jump\t// in\n    tag_656:\n        /* \"#utility.yul\":20449:20588   */\n      swap1\n      pop\n        /* \"#utility.yul\":20176:20595   */\n      swap2\n      swap1\n      pop\n      jump\t// out\n        /* \"#utility.yul\":20601:20823   */\n    tag_410:\n        /* \"#utility.yul\":20741:20775   */\n      0x4c6561736520616c72656164792065786973747320666f72207468697320746f\n        /* \"#utility.yul\":20737:20738   */\n      0x00\n        /* \"#utility.yul\":20729:20735   */\n      dup3\n        /* \"#utility.yul\":20725:20739   */\n      add\n        /* \"#utility.yul\":20718:20776   */\n      mstore\n        /* \"#utility.yul\":20810:20815   */\n      0x6b656e0000000000000000000000000000000000000000000000000000000000\n        /* \"#utility.yul\":20805:20807   */\n      0x20\n        /* \"#utility.yul\":20797:20803   */\n      dup3\n        /* \"#utility.yul\":20793:20808   */\n      add\n        /* \"#utility.yul\":20786:20816   */\n      mstore\n        /* \"#utility.yul\":20601:20823   */\n      pop\n      jump\t// out\n        /* \"#utility.yul\":20829:21195   */\n    tag_411:\n        /* \"#utility.yul\":20971:20974   */\n      0x00\n        /* \"#utility.yul\":20992:21059   */\n      tag_659\n        /* \"#utility.yul\":21056:21058   */\n      0x23\n        /* \"#utility.yul\":21051:21054   */\n      dup4\n        /* \"#utility.yul\":20992:21059   */\n      tag_365\n      jump\t// in\n    tag_659:\n        /* \"#utility.yul\":20985:21059   */\n      swap2\n      pop\n        /* \"#utility.yul\":21068:21161   */\n      tag_660\n        /* \"#utility.yul\":21157:21160   */\n      dup3\n        /* \"#utility.yul\":21068:21161   */\n      tag_410\n      jump\t// in\n    tag_660:\n        /* \"#utility.yul\":21186:21188   */\n      0x40\n        /* \"#utility.yul\":21181:21184   */\n      dup3\n        /* \"#utility.yul\":21177:21189   */\n      add\n        /* \"#utility.yul\":21170:21189   */\n      swap1\n      pop\n        /* \"#utility.yul\":20829:21195   */\n      swap2\n      swap1\n      pop\n      jump\t// out\n        /* \"#utility.yul\":21201:21620   */\n    tag_186:\n        /* \"#utility.yul\":21367:21371   */\n      0x00\n        /* \"#utility.yul\":21405:21407   */\n      0x20\n        /* \"#utility.yul\":21394:21403   */\n      dup3\n        /* \"#utility.yul\":21390:21408   */\n      add\n        /* \"#utility.yul\":21382:21408   */\n      swap1\n      pop\n        /* \"#utility.yul\":21454:21463   */\n      dup2\n        /* \"#utility.yul\":21448:21452   */\n      dup2\n        /* \"#utility.yul\":21444:21464   */\n      sub\n        /* \"#utility.yul\":21440:21441   */\n      0x00\n        /* \"#utility.yul\":21429:21438   */\n      dup4\n        /* \"#utility.yul\":21425:21442   */\n      add\n        /* \"#utility.yul\":21418:21465   */\n      mstore\n        /* \"#utility.yul\":21482:21613   */\n      tag_662\n        /* \"#utility.yul\":21608:21612   */\n      dup2\n        /* \"#utility.yul\":21482:21613   */\n      tag_411\n      jump\t// in\n    tag_662:\n        /* \"#utility.yul\":21474:21613   */\n      swap1\n      pop\n        /* \"#utility.yul\":21201:21620   */\n      swap2\n      swap1\n      pop\n      jump\t// out\n        /* \"#utility.yul\":21626:21795   */\n    tag_412:\n        /* \"#utility.yul\":21766:21787   */\n      0x496e76616c6964206d696c656167652063617000000000000000000000000000\n        /* \"#utility.yul\":21762:21763   */\n      0x00\n        /* \"#utility.yul\":21754:21760   */\n      dup3\n        /* \"#utility.yul\":21750:21764   */\n      add\n        /* \"#utility.yul\":21743:21788   */\n      mstore\n        /* \"#utility.yul\":21626:21795   */\n      pop\n      jump\t// out\n        /* \"#utility.yul\":21801:22167   */\n    tag_413:\n        /* \"#utility.yul\":21943:21946   */\n      0x00\n        /* \"#utility.yul\":21964:22031   */\n      tag_665\n        /* \"#utility.yul\":22028:22030   */\n      0x13\n        /* \"#utility.yul\":22023:22026   */\n      dup4\n        /* \"#utility.yul\":21964:22031   */\n      tag_365\n      jump\t// in\n    tag_665:\n        /* \"#utility.yul\":21957:22031   */\n      swap2\n      pop\n        /* \"#utility.yul\":22040:22133   */\n      tag_666\n        /* \"#utility.yul\":22129:22132   */\n      dup3\n        /* \"#utility.yul\":22040:22133   */\n      tag_412\n      jump\t// in\n    tag_666:\n        /* \"#utility.yul\":22158:22160   */\n      0x20\n        /* \"#utility.yul\":22153:22156   */\n      dup3\n        /* \"#utility.yul\":22149:22161   */\n      add\n        /* \"#utility.yul\":22142:22161   */\n      swap1\n      pop\n        /* \"#utility.yul\":21801:22167   */\n      swap2\n      swap1\n      pop\n      jump\t// out\n        /* \"#utility.yul\":22173:22592   */\n    tag_191:\n        /* \"#utility.yul\":22339:22343   */\n      0x00\n        /* \"#utility.yul\":22377:22379   */\n      0x20\n        /* \"#utility.yul\":22366:22375   */\n      dup3\n        /* \"#utility.yul\":22362:22380   */\n      add\n        /* \"#utility.yul\":22354:22380   */\n      swap1\n      pop\n        /* \"#utility.yul\":22426:22435   */\n      dup2\n        /* \"#utility.yul\":22420:22424   */\n      dup2\n        /* \"#utility.yul\":22416:22436   */\n      sub\n        /* \"#utility.yul\":22412:22413   */\n      0x00\n        /* \"#utility.yul\":22401:22410   */\n      dup4\n        /* \"#utility.yul\":22397:22414   */\n      add\n        /* \"#utility.yul\":22390:22437   */\n      mstore\n        /* \"#utility.yul\":22454:22585   */\n      tag_668\n        /* \"#utility.yul\":22580:22584   */\n      dup2\n        /* \"#utility.yul\":22454:22585   */\n      tag_413\n      jump\t// in\n    tag_668:\n        /* \"#utility.yul\":22446:22585   */\n      swap1\n      pop\n        /* \"#utility.yul\":22173:22592   */\n      swap2\n      swap1\n      pop\n      jump\t// out\n        /* \"#utility.yul\":22598:22773   */\n    tag_414:\n        /* \"#utility.yul\":22738:22765   */\n      0x496e76616c696420636f6e7472616374206475726174696f6e00000000000000\n        /* \"#utility.yul\":22734:22735   */\n      0x00\n        /* \"#utility.yul\":22726:22732   */\n      dup3\n        /* \"#utility.yul\":22722:22736   */\n      add\n        /* \"#utility.yul\":22715:22766   */\n      mstore\n        /* \"#utility.yul\":22598:22773   */\n      pop\n      jump\t// out\n        /* \"#utility.yul\":22779:23145   */\n    tag_415:\n        /* \"#utility.yul\":22921:22924   */\n      0x00\n        /* \"#utility.yul\":22942:23009   */\n      tag_671\n        /* \"#utility.yul\":23006:23008   */\n      0x19\n        /* \"#utility.yul\":23001:23004   */\n      dup4\n        /* \"#utility.yul\":22942:23009   */\n      tag_365\n      jump\t// in\n    tag_671:\n        /* \"#utility.yul\":22935:23009   */\n      swap2\n      pop\n        /* \"#utility.yul\":23018:23111   */\n      tag_672\n        /* \"#utility.yul\":23107:23110   */\n      dup3\n        /* \"#utility.yul\":23018:23111   */\n      tag_414\n      jump\t// in\n    tag_672:\n        /* \"#utility.yul\":23136:23138   */\n      0x20\n        /* \"#utility.yul\":23131:23134   */\n      dup3\n        /* \"#utility.yul\":23127:23139   */\n      add\n        /* \"#utility.yul\":23120:23139   */\n      swap1\n      pop\n        /* \"#utility.yul\":22779:23145   */\n      swap2\n      swap1\n      pop\n      jump\t// out\n        /* \"#utility.yul\":23151:23570   */\n    tag_196:\n        /* \"#utility.yul\":23317:23321   */\n      0x00\n        /* \"#utility.yul\":23355:23357   */\n      0x20\n        /* \"#utility.yul\":23344:23353   */\n      dup3\n        /* \"#utility.yul\":23340:23358   */\n      add\n        /* \"#utility.yul\":23332:23358   */\n      swap1\n      pop\n        /* \"#utility.yul\":23404:23413   */\n      dup2\n        /* \"#utility.yul\":23398:23402   */\n      dup2\n        /* \"#utility.yul\":23394:23414   */\n      sub\n        /* \"#utility.yul\":23390:23391   */\n      0x00\n        /* \"#utility.yul\":23379:23388   */\n      dup4\n        /* \"#utility.yul\":23375:23392   */\n      add\n        /* \"#utility.yul\":23368:23415   */\n      mstore\n        /* \"#utility.yul\":23432:23563   */\n      tag_674\n        /* \"#utility.yul\":23558:23562   */\n      dup2\n        /* \"#utility.yul\":23432:23563   */\n      tag_415\n      jump\t// in\n    tag_674:\n        /* \"#utility.yul\":23424:23563   */\n      swap1\n      pop\n        /* \"#utility.yul\":23151:23570   */\n      swap2\n      swap1\n      pop\n      jump\t// out\n        /* \"#utility.yul\":23576:23756   */\n    tag_416:\n        /* \"#utility.yul\":23624:23701   */\n      0x4e487b7100000000000000000000000000000000000000000000000000000000\n        /* \"#utility.yul\":23621:23622   */\n      0x00\n        /* \"#utility.yul\":23614:23702   */\n      mstore\n        /* \"#utility.yul\":23721:23725   */\n      0x11\n        /* \"#utility.yul\":23718:23719   */\n      0x04\n        /* \"#utility.yul\":23711:23726   */\n      mstore\n        /* \"#utility.yul\":23745:23749   */\n      0x24\n        /* \"#utility.yul\":23742:23743   */\n      0x00\n        /* \"#utility.yul\":23735:23750   */\n      revert\n        /* \"#utility.yul\":23762:24172   */\n    tag_199:\n        /* \"#utility.yul\":23802:23809   */\n      0x00\n        /* \"#utility.yul\":23825:23845   */\n      tag_677\n        /* \"#utility.yul\":23843:23844   */\n      dup3\n        /* \"#utility.yul\":23825:23845   */\n      tag_372\n      jump\t// in\n    tag_677:\n        /* \"#utility.yul\":23820:23845   */\n      swap2\n      pop\n        /* \"#utility.yul\":23859:23879   */\n      tag_678\n        /* \"#utility.yul\":23877:23878   */\n      dup4\n        /* \"#utility.yul\":23859:23879   */\n      tag_372\n      jump\t// in\n    tag_678:\n        /* \"#utility.yul\":23854:23879   */\n      swap3\n      pop\n        /* \"#utility.yul\":23914:23915   */\n      dup3\n        /* \"#utility.yul\":23911:23912   */\n      dup3\n        /* \"#utility.yul\":23907:23916   */\n      mul\n        /* \"#utility.yul\":23936:23966   */\n      tag_679\n        /* \"#utility.yul\":23954:23965   */\n      dup2\n        /* \"#utility.yul\":23936:23966   */\n      tag_372\n      jump\t// in\n    tag_679:\n        /* \"#utility.yul\":23925:23966   */\n      swap2\n      pop\n        /* \"#utility.yul\":24115:24116   */\n      dup3\n        /* \"#utility.yul\":24106:24113   */\n      dup3\n        /* \"#utility.yul\":24102:24117   */\n      div\n        /* \"#utility.yul\":24099:24100   */\n      dup5\n        /* \"#utility.yul\":24096:24118   */\n      eq\n        /* \"#utility.yul\":24076:24077   */\n      dup4\n        /* \"#utility.yul\":24069:24078   */\n      iszero\n        /* \"#utility.yul\":24049:24132   */\n      or\n        /* \"#utility.yul\":24026:24165   */\n      tag_680\n      jumpi\n        /* \"#utility.yul\":24145:24163   */\n      tag_681\n      tag_416\n      jump\t// in\n    tag_681:\n        /* \"#utility.yul\":24026:24165   */\n    tag_680:\n        /* \"#utility.yul\":23810:24172   */\n      pop\n        /* \"#utility.yul\":23762:24172   */\n      swap3\n      swap2\n      pop\n      pop\n      jump\t// out\n        /* \"#utility.yul\":24178:24352   */\n    tag_417:\n        /* \"#utility.yul\":24318:24344   */\n      0x496e636f7272656374207061796d656e7420616d6f756e740000000000000000\n        /* \"#utility.yul\":24314:24315   */\n      0x00\n        /* \"#utility.yul\":24306:24312   */\n      dup3\n        /* \"#utility.yul\":24302:24316   */\n      add\n        /* \"#utility.yul\":24295:24345   */\n      mstore\n        /* \"#utility.yul\":24178:24352   */\n      pop\n      jump\t// out\n        /* \"#utility.yul\":24358:24724   */\n    tag_418:\n        /* \"#utility.yul\":24500:24503   */\n      0x00\n        /* \"#utility.yul\":24521:24588   */\n      tag_684\n        /* \"#utility.yul\":24585:24587   */\n      0x18\n        /* \"#utility.yul\":24580:24583   */\n      dup4\n        /* \"#utility.yul\":24521:24588   */\n      tag_365\n      jump\t// in\n    tag_684:\n        /* \"#utility.yul\":24514:24588   */\n      swap2\n      pop\n        /* \"#utility.yul\":24597:24690   */\n      tag_685\n        /* \"#utility.yul\":24686:24689   */\n      dup3\n        /* \"#utility.yul\":24597:24690   */\n      tag_417\n      jump\t// in\n    tag_685:\n        /* \"#utility.yul\":24715:24717   */\n      0x20\n        /* \"#utility.yul\":24710:24713   */\n      dup3\n        /* \"#utility.yul\":24706:24718   */\n      add\n        /* \"#utility.yul\":24699:24718   */\n      swap1\n      pop\n        /* \"#utility.yul\":24358:24724   */\n      swap2\n      swap1\n      pop\n      jump\t// out\n        /* \"#utility.yul\":24730:25149   */\n    tag_202:\n        /* \"#utility.yul\":24896:24900   */\n      0x00\n        /* \"#utility.yul\":24934:24936   */\n      0x20\n        /* \"#utility.yul\":24923:24932   */\n      dup3\n        /* \"#utility.yul\":24919:24937   */\n      add\n        /* \"#utility.yul\":24911:24937   */\n      swap1\n      pop\n        /* \"#utility.yul\":24983:24992   */\n      dup2\n        /* \"#utility.yul\":24977:24981   */\n      dup2\n        /* \"#utility.yul\":24973:24993   */\n      sub\n        /* \"#utility.yul\":24969:24970   */\n      0x00\n        /* \"#utility.yul\":24958:24967   */\n      dup4\n        /* \"#utility.yul\":24954:24971   */\n      add\n        /* \"#utility.yul\":24947:24994   */\n      mstore\n        /* \"#utility.yul\":25011:25142   */\n      tag_687\n        /* \"#utility.yul\":25137:25141   */\n      dup2\n        /* \"#utility.yul\":25011:25142   */\n      tag_418\n      jump\t// in\n    tag_687:\n        /* \"#utility.yul\":25003:25142   */\n      swap1\n      pop\n        /* \"#utility.yul\":24730:25149   */\n      swap2\n      swap1\n      pop\n      jump\t// out\n        /* \"#utility.yul\":25155:25346   */\n    tag_205:\n        /* \"#utility.yul\":25195:25198   */\n      0x00\n        /* \"#utility.yul\":25214:25234   */\n      tag_689\n        /* \"#utility.yul\":25232:25233   */\n      dup3\n        /* \"#utility.yul\":25214:25234   */\n      tag_372\n      jump\t// in\n    tag_689:\n        /* \"#utility.yul\":25209:25234   */\n      swap2\n      pop\n        /* \"#utility.yul\":25248:25268   */\n      tag_690\n        /* \"#utility.yul\":25266:25267   */\n      dup4\n        /* \"#utility.yul\":25248:25268   */\n      tag_372\n      jump\t// in\n    tag_690:\n        /* \"#utility.yul\":25243:25268   */\n      swap3\n      pop\n        /* \"#utility.yul\":25291:25292   */\n      dup3\n        /* \"#utility.yul\":25288:25289   */\n      dup3\n        /* \"#utility.yul\":25284:25293   */\n      add\n        /* \"#utility.yul\":25277:25293   */\n      swap1\n      pop\n        /* \"#utility.yul\":25312:25315   */\n      dup1\n        /* \"#utility.yul\":25309:25310   */\n      dup3\n        /* \"#utility.yul\":25306:25316   */\n      gt\n        /* \"#utility.yul\":25303:25339   */\n      iszero\n      tag_691\n      jumpi\n        /* \"#utility.yul\":25319:25337   */\n      tag_692\n      tag_416\n      jump\t// in\n    tag_692:\n        /* \"#utility.yul\":25303:25339   */\n    tag_691:\n        /* \"#utility.yul\":25155:25346   */\n      swap3\n      swap2\n      pop\n      pop\n      jump\t// out\n        /* \"#utility.yul\":25352:25525   */\n    tag_419:\n        /* \"#utility.yul\":25492:25517   */\n      0x43616c6c6572206973206e6f7420746865206f776e6572000000000000000000\n        /* \"#utility.yul\":25488:25489   */\n      0x00\n        /* \"#utility.yul\":25480:25486   */\n      dup3\n        /* \"#utility.yul\":25476:25490   */\n      add\n        /* \"#utility.yul\":25469:25518   */\n      mstore\n        /* \"#utility.yul\":25352:25525   */\n      pop\n      jump\t// out\n        /* \"#utility.yul\":25531:25897   */\n    tag_420:\n        /* \"#utility.yul\":25673:25676   */\n      0x00\n        /* \"#utility.yul\":25694:25761   */\n      tag_695\n        /* \"#utility.yul\":25758:25760   */\n      0x17\n        /* \"#utility.yul\":25753:25756   */\n      dup4\n        /* \"#utility.yul\":25694:25761   */\n      tag_365\n      jump\t// in\n    tag_695:\n        /* \"#utility.yul\":25687:25761   */\n      swap2\n      pop\n        /* \"#utility.yul\":25770:25863   */\n      tag_696\n        /* \"#utility.yul\":25859:25862   */\n      dup3\n        /* \"#utility.yul\":25770:25863   */\n      tag_419\n      jump\t// in\n    tag_696:\n        /* \"#utility.yul\":25888:25890   */\n      0x20\n        /* \"#utility.yul\":25883:25886   */\n      dup3\n        /* \"#utility.yul\":25879:25891   */\n      add\n        /* \"#utility.yul\":25872:25891   */\n      swap1\n      pop\n        /* \"#utility.yul\":25531:25897   */\n      swap2\n      swap1\n      pop\n      jump\t// out\n        /* \"#utility.yul\":25903:26322   */\n    tag_209:\n        /* \"#utility.yul\":26069:26073   */\n      0x00\n        /* \"#utility.yul\":26107:26109   */\n      0x20\n        /* \"#utility.yul\":26096:26105   */\n      dup3\n        /* \"#utility.yul\":26092:26110   */\n      add\n        /* \"#utility.yul\":26084:26110   */\n      swap1\n      pop\n        /* \"#utility.yul\":26156:26165   */\n      dup2\n        /* \"#utility.yul\":26150:26154   */\n      dup2\n        /* \"#utility.yul\":26146:26166   */\n      sub\n        /* \"#utility.yul\":26142:26143   */\n      0x00\n        /* \"#utility.yul\":26131:26140   */\n      dup4\n        /* \"#utility.yul\":26127:26144   */\n      add\n        /* \"#utility.yul\":26120:26167   */\n      mstore\n        /* \"#utility.yul\":26184:26315   */\n      tag_698\n        /* \"#utility.yul\":26310:26314   */\n      dup2\n        /* \"#utility.yul\":26184:26315   */\n      tag_420\n      jump\t// in\n    tag_698:\n        /* \"#utility.yul\":26176:26315   */\n      swap1\n      pop\n        /* \"#utility.yul\":25903:26322   */\n      swap2\n      swap1\n      pop\n      jump\t// out\n        /* \"#utility.yul\":26328:26497   */\n    tag_421:\n        /* \"#utility.yul\":26468:26489   */\n      0x4c65617365206973206e6f742061637469766500000000000000000000000000\n        /* \"#utility.yul\":26464:26465   */\n      0x00\n        /* \"#utility.yul\":26456:26462   */\n      dup3\n        /* \"#utility.yul\":26452:26466   */\n      add\n        /* \"#utility.yul\":26445:26490   */\n      mstore\n        /* \"#utility.yul\":26328:26497   */\n      pop\n      jump\t// out\n        /* \"#utility.yul\":26503:26869   */\n    tag_422:\n        /* \"#utility.yul\":26645:26648   */\n      0x00\n        /* \"#utility.yul\":26666:26733   */\n      tag_701\n        /* \"#utility.yul\":26730:26732   */\n      0x13\n        /* \"#utility.yul\":26725:26728   */\n      dup4\n        /* \"#utility.yul\":26666:26733   */\n      tag_365\n      jump\t// in\n    tag_701:\n        /* \"#utility.yul\":26659:26733   */\n      swap2\n      pop\n        /* \"#utility.yul\":26742:26835   */\n      tag_702\n        /* \"#utility.yul\":26831:26834   */\n      dup3\n        /* \"#utility.yul\":26742:26835   */\n      tag_421\n      jump\t// in\n    tag_702:\n        /* \"#utility.yul\":26860:26862   */\n      0x20\n        /* \"#utility.yul\":26855:26858   */\n      dup3\n        /* \"#utility.yul\":26851:26863   */\n      add\n        /* \"#utility.yul\":26844:26863   */\n      swap1\n      pop\n        /* \"#utility.yul\":26503:26869   */\n      swap2\n      swap1\n      pop\n      jump\t// out\n        /* \"#utility.yul\":26875:27294   */\n    tag_213:\n        /* \"#utility.yul\":27041:27045   */\n      0x00\n        /* \"#utility.yul\":27079:27081   */\n      0x20\n        /* \"#utility.yul\":27068:27077   */\n      dup3\n        /* \"#utility.yul\":27064:27082   */\n      add\n        /* \"#utility.yul\":27056:27082   */\n      swap1\n      pop\n        /* \"#utility.yul\":27128:27137   */\n      dup2\n        /* \"#utility.yul\":27122:27126   */\n      dup2\n        /* \"#utility.yul\":27118:27138   */\n      sub\n        /* \"#utility.yul\":27114:27115   */\n      0x00\n        /* \"#utility.yul\":27103:27112   */\n      dup4\n        /* \"#utility.yul\":27099:27116   */\n      add\n        /* \"#utility.yul\":27092:27139   */\n      mstore\n        /* \"#utility.yul\":27156:27287   */\n      tag_704\n        /* \"#utility.yul\":27282:27286   */\n      dup2\n        /* \"#utility.yul\":27156:27287   */\n      tag_422\n      jump\t// in\n    tag_704:\n        /* \"#utility.yul\":27148:27287   */\n      swap1\n      pop\n        /* \"#utility.yul\":26875:27294   */\n      swap2\n      swap1\n      pop\n      jump\t// out\n        /* \"#utility.yul\":27300:27472   */\n    tag_423:\n        /* \"#utility.yul\":27440:27464   */\n      0x5061796d656e74206973206e6f74206f76657264756500000000000000000000\n        /* \"#utility.yul\":27436:27437   */\n      0x00\n        /* \"#utility.yul\":27428:27434   */\n      dup3\n        /* \"#utility.yul\":27424:27438   */\n      add\n        /* \"#utility.yul\":27417:27465   */\n      mstore\n        /* \"#utility.yul\":27300:27472   */\n      pop\n      jump\t// out\n        /* \"#utility.yul\":27478:27844   */\n    tag_424:\n        /* \"#utility.yul\":27620:27623   */\n      0x00\n        /* \"#utility.yul\":27641:27708   */\n      tag_707\n        /* \"#utility.yul\":27705:27707   */\n      0x16\n        /* \"#utility.yul\":27700:27703   */\n      dup4\n        /* \"#utility.yul\":27641:27708   */\n      tag_365\n      jump\t// in\n    tag_707:\n        /* \"#utility.yul\":27634:27708   */\n      swap2\n      pop\n        /* \"#utility.yul\":27717:27810   */\n      tag_708\n        /* \"#utility.yul\":27806:27809   */\n      dup3\n        /* \"#utility.yul\":27717:27810   */\n      tag_423\n      jump\t// in\n    tag_708:\n        /* \"#utility.yul\":27835:27837   */\n      0x20\n        /* \"#utility.yul\":27830:27833   */\n      dup3\n        /* \"#utility.yul\":27826:27838   */\n      add\n        /* \"#utility.yul\":27819:27838   */\n      swap1\n      pop\n        /* \"#utility.yul\":27478:27844   */\n      swap2\n      swap1\n      pop\n      jump\t// out\n        /* \"#utility.yul\":27850:28269   */\n    tag_217:\n        /* \"#utility.yul\":28016:28020   */\n      0x00\n        /* \"#utility.yul\":28054:28056   */\n      0x20\n        /* \"#utility.yul\":28043:28052   */\n      dup3\n        /* \"#utility.yul\":28039:28057   */\n      add\n        /* \"#utility.yul\":28031:28057   */\n      swap1\n      pop\n        /* \"#utility.yul\":28103:28112   */\n      dup2\n        /* \"#utility.yul\":28097:28101   */\n      dup2\n        /* \"#utility.yul\":28093:28113   */\n      sub\n        /* \"#utility.yul\":28089:28090   */\n      0x00\n        /* \"#utility.yul\":28078:28087   */\n      dup4\n        /* \"#utility.yul\":28074:28091   */\n      add\n        /* \"#utility.yul\":28067:28114   */\n      mstore\n        /* \"#utility.yul\":28131:28262   */\n      tag_710\n        /* \"#utility.yul\":28257:28261   */\n      dup2\n        /* \"#utility.yul\":28131:28262   */\n      tag_424\n      jump\t// in\n    tag_710:\n        /* \"#utility.yul\":28123:28262   */\n      swap1\n      pop\n        /* \"#utility.yul\":27850:28269   */\n      swap2\n      swap1\n      pop\n      jump\t// out\n        /* \"#utility.yul\":28275:28445   */\n    tag_425:\n        /* \"#utility.yul\":28415:28437   */\n      0x4d696e7420746f207a65726f2061646472657373000000000000000000000000\n        /* \"#utility.yul\":28411:28412   */\n      0x00\n        /* \"#utility.yul\":28403:28409   */\n      dup3\n        /* \"#utility.yul\":28399:28413   */\n      add\n        /* \"#utility.yul\":28392:28438   */\n      mstore\n        /* \"#utility.yul\":28275:28445   */\n      pop\n      jump\t// out\n        /* \"#utility.yul\":28451:28817   */\n    tag_426:\n        /* \"#utility.yul\":28593:28596   */\n      0x00\n        /* \"#utility.yul\":28614:28681   */\n      tag_713\n        /* \"#utility.yul\":28678:28680   */\n      0x14\n        /* \"#utility.yul\":28673:28676   */\n      dup4\n        /* \"#utility.yul\":28614:28681   */\n      tag_365\n      jump\t// in\n    tag_713:\n        /* \"#utility.yul\":28607:28681   */\n      swap2\n      pop\n        /* \"#utility.yul\":28690:28783   */\n      tag_714\n        /* \"#utility.yul\":28779:28782   */\n      dup3\n        /* \"#utility.yul\":28690:28783   */\n      tag_425\n      jump\t// in\n    tag_714:\n        /* \"#utility.yul\":28808:28810   */\n      0x20\n        /* \"#utility.yul\":28803:28806   */\n      dup3\n        /* \"#utility.yul\":28799:28811   */\n      add\n        /* \"#utility.yul\":28792:28811   */\n      swap1\n      pop\n        /* \"#utility.yul\":28451:28817   */\n      swap2\n      swap1\n      pop\n      jump\t// out\n        /* \"#utility.yul\":28823:29242   */\n    tag_225:\n        /* \"#utility.yul\":28989:28993   */\n      0x00\n        /* \"#utility.yul\":29027:29029   */\n      0x20\n        /* \"#utility.yul\":29016:29025   */\n      dup3\n        /* \"#utility.yul\":29012:29030   */\n      add\n        /* \"#utility.yul\":29004:29030   */\n      swap1\n      pop\n        /* \"#utility.yul\":29076:29085   */\n      dup2\n        /* \"#utility.yul\":29070:29074   */\n      dup2\n        /* \"#utility.yul\":29066:29086   */\n      sub\n        /* \"#utility.yul\":29062:29063   */\n      0x00\n        /* \"#utility.yul\":29051:29060   */\n      dup4\n        /* \"#utility.yul\":29047:29064   */\n      add\n        /* \"#utility.yul\":29040:29087   */\n      mstore\n        /* \"#utility.yul\":29104:29235   */\n      tag_716\n        /* \"#utility.yul\":29230:29234   */\n      dup2\n        /* \"#utility.yul\":29104:29235   */\n      tag_426\n      jump\t// in\n    tag_716:\n        /* \"#utility.yul\":29096:29235   */\n      swap1\n      pop\n        /* \"#utility.yul\":28823:29242   */\n      swap2\n      swap1\n      pop\n      jump\t// out\n        /* \"#utility.yul\":29248:29389   */\n    tag_427:\n        /* \"#utility.yul\":29297:29301   */\n      0x00\n        /* \"#utility.yul\":29320:29323   */\n      dup2\n        /* \"#utility.yul\":29312:29323   */\n      swap1\n      pop\n        /* \"#utility.yul\":29343:29346   */\n      dup2\n        /* \"#utility.yul\":29340:29341   */\n      0x00\n        /* \"#utility.yul\":29333:29347   */\n      mstore\n        /* \"#utility.yul\":29377:29381   */\n      0x20\n        /* \"#utility.yul\":29374:29375   */\n      0x00\n        /* \"#utility.yul\":29364:29382   */\n      keccak256\n        /* \"#utility.yul\":29356:29382   */\n      swap1\n      pop\n        /* \"#utility.yul\":29248:29389   */\n      swap2\n      swap1\n      pop\n      jump\t// out\n        /* \"#utility.yul\":29395:29488   */\n    tag_428:\n        /* \"#utility.yul\":29432:29438   */\n      0x00\n        /* \"#utility.yul\":29479:29481   */\n      0x20\n        /* \"#utility.yul\":29474:29476   */\n      0x1f\n        /* \"#utility.yul\":29467:29472   */\n      dup4\n        /* \"#utility.yul\":29463:29477   */\n      add\n        /* \"#utility.yul\":29459:29482   */\n      div\n        /* \"#utility.yul\":29449:29482   */\n      swap1\n      pop\n        /* \"#utility.yul\":29395:29488   */\n      swap2\n      swap1\n      pop\n      jump\t// out\n        /* \"#utility.yul\":29494:29601   */\n    tag_429:\n        /* \"#utility.yul\":29538:29546   */\n      0x00\n        /* \"#utility.yul\":29588:29593   */\n      dup3\n        /* \"#utility.yul\":29582:29586   */\n      dup3\n        /* \"#utility.yul\":29578:29594   */\n      shl\n        /* \"#utility.yul\":29557:29594   */\n      swap1\n      pop\n        /* \"#utility.yul\":29494:29601   */\n      swap3\n      swap2\n      pop\n      pop\n      jump\t// out\n        /* \"#utility.yul\":29607:30000   */\n    tag_430:\n        /* \"#utility.yul\":29676:29682   */\n      0x00\n        /* \"#utility.yul\":29726:29727   */\n      0x08\n        /* \"#utility.yul\":29714:29724   */\n      dup4\n        /* \"#utility.yul\":29710:29728   */\n      mul\n        /* \"#utility.yul\":29749:29846   */\n      tag_721\n        /* \"#utility.yul\":29779:29845   */\n      0xffffffffffffffffffffffffffffffffffffffffffffffffffffffffffffffff\n        /* \"#utility.yul\":29768:29777   */\n      dup3\n        /* \"#utility.yul\":29749:29846   */\n      tag_429\n      jump\t// in\n    tag_721:\n        /* \"#utility.yul\":29867:29906   */\n      tag_722\n        /* \"#utility.yul\":29897:29905   */\n      dup7\n        /* \"#utility.yul\":29886:29895   */\n      dup4\n        /* \"#utility.yul\":29867:29906   */\n      tag_429\n      jump\t// in\n    tag_722:\n        /* \"#utility.yul\":29855:29906   */\n      swap6\n      pop\n        /* \"#utility.yul\":29939:29943   */\n      dup1\n        /* \"#utility.yul\":29935:29944   */\n      not\n        /* \"#utility.yul\":29928:29933   */\n      dup5\n        /* \"#utility.yul\":29924:29945   */\n      and\n        /* \"#utility.yul\":29915:29945   */\n      swap4\n      pop\n        /* \"#utility.yul\":29988:29992   */\n      dup1\n        /* \"#utility.yul\":29978:29986   */\n      dup7\n        /* \"#utility.yul\":29974:29993   */\n      and\n        /* \"#utility.yul\":29967:29972   */\n      dup5\n        /* \"#utility.yul\":29964:29994   */\n      or\n        /* \"#utility.yul\":29954:29994   */\n      swap3\n      pop\n        /* \"#utility.yul\":29683:30000   */\n      pop\n      pop\n        /* \"#utility.yul\":29607:30000   */\n      swap4\n      swap3\n      pop\n      pop\n      pop\n      jump\t// out\n        /* \"#utility.yul\":30006:30066   */\n    tag_431:\n        /* \"#utility.yul\":30034:30037   */\n      0x00\n        /* \"#utility.yul\":30055:30060   */\n      dup2\n        /* \"#utility.yul\":30048:30060   */\n      swap1\n      pop\n        /* \"#utility.yul\":30006:30066   */\n      swap2\n      swap1\n      pop\n      jump\t// out\n        /* \"#utility.yul\":30072:30214   */\n    tag_432:\n        /* \"#utility.yul\":30122:30131   */\n      0x00\n        /* \"#utility.yul\":30155:30208   */\n      tag_725\n        /* \"#utility.yul\":30173:30207   */\n      tag_726\n        /* \"#utility.yul\":30182:30206   */\n      tag_727\n        /* \"#utility.yul\":30200:30205   */\n      dup5\n        /* \"#utility.yul\":30182:30206   */\n      tag_372\n      jump\t// in\n    tag_727:\n        /* \"#utility.yul\":30173:30207   */\n      tag_431\n      jump\t// in\n    tag_726:\n        /* \"#utility.yul\":30155:30208   */\n      tag_372\n      jump\t// in\n    tag_725:\n        /* \"#utility.yul\":30142:30208   */\n      swap1\n      pop\n        /* \"#utility.yul\":30072:30214   */\n      swap2\n      swap1\n      pop\n      jump\t// out\n        /* \"#utility.yul\":30220:30295   */\n    tag_433:\n        /* \"#utility.yul\":30263:30266   */\n      0x00\n        /* \"#utility.yul\":30284:30289   */\n      dup2\n        /* \"#utility.yul\":30277:30289   */\n      swap1\n      pop\n        /* \"#utility.yul\":30220:30295   */\n      swap2\n      swap1\n      pop\n      jump\t// out\n        /* \"#utility.yul\":30301:30570   */\n    tag_434:\n        /* \"#utility.yul\":30411:30450   */\n      tag_730\n        /* \"#utility.yul\":30442:30449   */\n      dup4\n        /* \"#utility.yul\":30411:30450   */\n      tag_432\n      jump\t// in\n    tag_730:\n        /* \"#utility.yul\":30472:30563   */\n      tag_731\n        /* \"#utility.yul\":30521:30562   */\n      tag_732\n        /* \"#utility.yul\":30545:30561   */\n      dup3\n        /* \"#utility.yul\":30521:30562   */\n      tag_433\n      jump\t// in\n    tag_732:\n        /* \"#utility.yul\":30513:30519   */\n      dup5\n        /* \"#utility.yul\":30506:30510   */\n      dup5\n        /* \"#utility.yul\":30500:30511   */\n      sload\n        /* \"#utility.yul\":30472:30563   */\n      tag_430\n      jump\t// in\n    tag_731:\n        /* \"#utility.yul\":30466:30470   */\n      dup3\n        /* \"#utility.yul\":30459:30564   */\n      sstore\n        /* \"#utility.yul\":30377:30570   */\n      pop\n        /* \"#utility.yul\":30301:30570   */\n      pop\n      pop\n      pop\n      jump\t// out\n        /* \"#utility.yul\":30576:30649   */\n    tag_435:\n        /* \"#utility.yul\":30621:30624   */\n      0x00\n        /* \"#utility.yul\":30576:30649   */\n      swap1\n      jump\t// out\n        /* \"#utility.yul\":30655:30844   */\n    tag_436:\n        /* \"#utility.yul\":30732:30764   */\n      tag_735\n      tag_435\n      jump\t// in\n    tag_735:\n        /* \"#utility.yul\":30773:30838   */\n      tag_736\n        /* \"#utility.yul\":30831:30837   */\n      dup2\n        /* \"#utility.yul\":30823:30829   */\n      dup5\n        /* \"#utility.yul\":30817:30821   */\n      dup5\n        /* \"#utility.yul\":30773:30838   */\n      tag_434\n      jump\t// in\n    tag_736:\n        /* \"#utility.yul\":30708:30844   */\n      pop\n        /* \"#utility.yul\":30655:30844   */\n      pop\n      pop\n      jump\t// out\n        /* \"#utility.yul\":30850:31036   */\n    tag_437:\n        /* \"#utility.yul\":30910:31030   */\n    tag_738:\n        /* \"#utility.yul\":30927:30930   */\n      dup2\n        /* \"#utility.yul\":30920:30925   */\n      dup2\n        /* \"#utility.yul\":30917:30931   */\n      lt\n        /* \"#utility.yul\":30910:31030   */\n      iszero\n      tag_740\n      jumpi\n        /* \"#utility.yul\":30981:31020   */\n      tag_741\n        /* \"#utility.yul\":31018:31019   */\n      0x00\n        /* \"#utility.yul\":31011:31016   */\n      dup3\n        /* \"#utility.yul\":30981:31020   */\n      tag_436\n      jump\t// in\n    tag_741:\n        /* \"#utility.yul\":30954:30955   */\n      0x01\n        /* \"#utility.yul\":30947:30952   */\n      dup2\n        /* \"#utility.yul\":30943:30956   */\n      add\n        /* \"#utility.yul\":30934:30956   */\n      swap1\n      pop\n        /* \"#utility.yul\":30910:31030   */\n      jump(tag_738)\n    tag_740:\n        /* \"#utility.yul\":30850:31036   */\n      pop\n      pop\n      jump\t// out\n        /* \"#utility.yul\":31042:31585   */\n    tag_438:\n        /* \"#utility.yul\":31143:31145   */\n      0x1f\n        /* \"#utility.yul\":31138:31141   */\n      dup3\n        /* \"#utility.yul\":31135:31146   */\n      gt\n        /* \"#utility.yul\":31132:31578   */\n      iszero\n      tag_743\n      jumpi\n        /* \"#utility.yul\":31177:31215   */\n      tag_744\n        /* \"#utility.yul\":31209:31214   */\n      dup2\n        /* \"#utility.yul\":31177:31215   */\n      tag_427\n      jump\t// in\n    tag_744:\n        /* \"#utility.yul\":31261:31290   */\n      tag_745\n        /* \"#utility.yul\":31279:31289   */\n      dup5\n        /* \"#utility.yul\":31261:31290   */\n      tag_428\n      jump\t// in\n    tag_745:\n        /* \"#utility.yul\":31251:31259   */\n      dup2\n        /* \"#utility.yul\":31247:31291   */\n      add\n        /* \"#utility.yul\":31444:31446   */\n      0x20\n        /* \"#utility.yul\":31432:31442   */\n      dup6\n        /* \"#utility.yul\":31429:31447   */\n      lt\n        /* \"#utility.yul\":31426:31475   */\n      iszero\n      tag_746\n      jumpi\n        /* \"#utility.yul\":31465:31473   */\n      dup2\n        /* \"#utility.yul\":31450:31473   */\n      swap1\n      pop\n        /* \"#utility.yul\":31426:31475   */\n    tag_746:\n        /* \"#utility.yul\":31488:31568   */\n      tag_747\n        /* \"#utility.yul\":31544:31566   */\n      tag_748\n        /* \"#utility.yul\":31562:31565   */\n      dup6\n        /* \"#utility.yul\":31544:31566   */\n      tag_428\n      jump\t// in\n    tag_748:\n        /* \"#utility.yul\":31534:31542   */\n      dup4\n        /* \"#utility.yul\":31530:31567   */\n      add\n        /* \"#utility.yul\":31517:31528   */\n      dup3\n        /* \"#utility.yul\":31488:31568   */\n      tag_437\n      jump\t// in\n    tag_747:\n        /* \"#utility.yul\":31147:31578   */\n      pop\n      pop\n        /* \"#utility.yul\":31132:31578   */\n    tag_743:\n        /* \"#utility.yul\":31042:31585   */\n      pop\n      pop\n      pop\n      jump\t// out\n        /* \"#utility.yul\":31591:31708   */\n    tag_439:\n        /* \"#utility.yul\":31645:31653   */\n      0x00\n        /* \"#utility.yul\":31695:31700   */\n      dup3\n        /* \"#utility.yul\":31689:31693   */\n      dup3\n        /* \"#utility.yul\":31685:31701   */\n      shr\n        /* \"#utility.yul\":31664:31701   */\n      swap1\n      pop\n        /* \"#utility.yul\":31591:31708   */\n      swap3\n      swap2\n      pop\n      pop\n      jump\t// out\n        /* \"#utility.yul\":31714:31883   */\n    tag_440:\n        /* \"#utility.yul\":31758:31764   */\n      0x00\n        /* \"#utility.yul\":31791:31842   */\n      tag_751\n        /* \"#utility.yul\":31839:31840   */\n      0x00\n        /* \"#utility.yul\":31835:31841   */\n      not\n        /* \"#utility.yul\":31827:31832   */\n      dup5\n        /* \"#utility.yul\":31824:31825   */\n      0x08\n        /* \"#utility.yul\":31820:31833   */\n      mul\n        /* \"#utility.yul\":31791:31842   */\n      tag_439\n      jump\t// in\n    tag_751:\n        /* \"#utility.yul\":31787:31843   */\n      not\n        /* \"#utility.yul\":31872:31876   */\n      dup1\n        /* \"#utility.yul\":31866:31870   */\n      dup4\n        /* \"#utility.yul\":31862:31877   */\n      and\n        /* \"#utility.yul\":31852:31877   */\n      swap2\n      pop\n        /* \"#utility.yul\":31765:31883   */\n      pop\n        /* \"#utility.yul\":31714:31883   */\n      swap3\n      swap2\n      pop\n      pop\n      jump\t// out\n        /* \"#utility.yul\":31888:32183   */\n    tag_441:\n        /* \"#utility.yul\":31964:31968   */\n      0x00\n        /* \"#utility.yul\":32110:32139   */\n      tag_753\n        /* \"#utility.yul\":32135:32138   */\n      dup4\n        /* \"#utility.yul\":32129:32133   */\n      dup4\n        /* \"#utility.yul\":32110:32139   */\n      tag_440\n      jump\t// in\n    tag_753:\n        /* \"#utility.yul\":32102:32139   */\n      swap2\n      pop\n        /* \"#utility.yul\":32172:32175   */\n      dup3\n        /* \"#utility.yul\":32169:32170   */\n      0x02\n        /* \"#utility.yul\":32165:32176   */\n      mul\n        /* \"#utility.yul\":32159:32163   */\n      dup3\n        /* \"#utility.yul\":32156:32177   */\n      or\n        /* \"#utility.yul\":32148:32177   */\n      swap1\n      pop\n        /* \"#utility.yul\":31888:32183   */\n      swap3\n      swap2\n      pop\n      pop\n      jump\t// out\n        /* \"#utility.yul\":32188:33583   */\n    tag_229:\n        /* \"#utility.yul\":32305:32342   */\n      tag_755\n        /* \"#utility.yul\":32338:32341   */\n      dup3\n        /* \"#utility.yul\":32305:32342   */\n      tag_364\n      jump\t// in\n    tag_755:\n        /* \"#utility.yul\":32407:32425   */\n      0xffffffffffffffff\n        /* \"#utility.yul\":32399:32405   */\n      dup2\n        /* \"#utility.yul\":32396:32426   */\n      gt\n        /* \"#utility.yul\":32393:32449   */\n      iszero\n      tag_756\n      jumpi\n        /* \"#utility.yul\":32429:32447   */\n      tag_757\n      tag_391\n      jump\t// in\n    tag_757:\n        /* \"#utility.yul\":32393:32449   */\n    tag_756:\n        /* \"#utility.yul\":32473:32511   */\n      tag_758\n        /* \"#utility.yul\":32505:32509   */\n      dup3\n        /* \"#utility.yul\":32499:32510   */\n      sload\n        /* \"#utility.yul\":32473:32511   */\n      tag_129\n      jump\t// in\n    tag_758:\n        /* \"#utility.yul\":32558:32625   */\n      tag_759\n        /* \"#utility.yul\":32618:32624   */\n      dup3\n        /* \"#utility.yul\":32610:32616   */\n      dup3\n        /* \"#utility.yul\":32604:32608   */\n      dup6\n        /* \"#utility.yul\":32558:32625   */\n      tag_438\n      jump\t// in\n    tag_759:\n        /* \"#utility.yul\":32652:32653   */\n      0x00\n        /* \"#utility.yul\":32676:32680   */\n      0x20\n        /* \"#utility.yul\":32663:32680   */\n      swap1\n      pop\n        /* \"#utility.yul\":32708:32710   */\n      0x1f\n        /* \"#utility.yul\":32700:32706   */\n      dup4\n        /* \"#utility.yul\":32697:32711   */\n      gt\n        /* \"#utility.yul\":32725:32726   */\n      0x01\n        /* \"#utility.yul\":32720:33338   */\n      dup2\n      eq\n      tag_761\n      jumpi\n        /* \"#utility.yul\":33382:33383   */\n      0x00\n        /* \"#utility.yul\":33399:33405   */\n      dup5\n        /* \"#utility.yul\":33396:33473   */\n      iszero\n      tag_762\n      jumpi\n        /* \"#utility.yul\":33448:33457   */\n      dup3\n        /* \"#utility.yul\":33443:33446   */\n      dup8\n        /* \"#utility.yul\":33439:33458   */\n      add\n        /* \"#utility.yul\":33433:33459   */\n      mload\n        /* \"#utility.yul\":33424:33459   */\n      swap1\n      pop\n        /* \"#utility.yul\":33396:33473   */\n    tag_762:\n        /* \"#utility.yul\":33499:33566   */\n      tag_763\n        /* \"#utility.yul\":33559:33565   */\n      dup6\n        /* \"#utility.yul\":33552:33557   */\n      dup3\n        /* \"#utility.yul\":33499:33566   */\n      tag_441\n      jump\t// in\n    tag_763:\n        /* \"#utility.yul\":33493:33497   */\n      dup7\n        /* \"#utility.yul\":33486:33567   */\n      sstore\n        /* \"#utility.yul\":33355:33577   */\n      pop\n        /* \"#utility.yul\":32690:33577   */\n      jump(tag_760)\n        /* \"#utility.yul\":32720:33338   */\n    tag_761:\n        /* \"#utility.yul\":32772:32776   */\n      0x1f\n        /* \"#utility.yul\":32768:32777   */\n      not\n        /* \"#utility.yul\":32760:32766   */\n      dup5\n        /* \"#utility.yul\":32756:32778   */\n      and\n        /* \"#utility.yul\":32806:32843   */\n      tag_764\n        /* \"#utility.yul\":32838:32842   */\n      dup7\n        /* \"#utility.yul\":32806:32843   */\n      tag_427\n      jump\t// in\n    tag_764:\n        /* \"#utility.yul\":32865:32866   */\n      0x00\n        /* \"#utility.yul\":32879:33087   */\n    tag_765:\n        /* \"#utility.yul\":32893:32900   */\n      dup3\n        /* \"#utility.yul\":32890:32891   */\n      dup2\n        /* \"#utility.yul\":32887:32901   */\n      lt\n        /* \"#utility.yul\":32879:33087   */\n      iszero\n      tag_767\n      jumpi\n        /* \"#utility.yul\":32972:32981   */\n      dup5\n        /* \"#utility.yul\":32967:32970   */\n      dup10\n        /* \"#utility.yul\":32963:32982   */\n      add\n        /* \"#utility.yul\":32957:32983   */\n      mload\n        /* \"#utility.yul\":32949:32955   */\n      dup3\n        /* \"#utility.yul\":32942:32984   */\n      sstore\n        /* \"#utility.yul\":33023:33024   */\n      0x01\n        /* \"#utility.yul\":33015:33021   */\n      dup3\n        /* \"#utility.yul\":33011:33025   */\n      add\n        /* \"#utility.yul\":33001:33025   */\n      swap2\n      pop\n        /* \"#utility.yul\":33070:33072   */\n      0x20\n        /* \"#utility.yul\":33059:33068   */\n      dup6\n        /* \"#utility.yul\":33055:33073   */\n      add\n        /* \"#utility.yul\":33042:33073   */\n      swap5\n      pop\n        /* \"#utility.yul\":32916:32920   */\n      0x20\n        /* \"#utility.yul\":32913:32914   */\n      dup2\n        /* \"#utility.yul\":32909:32921   */\n      add\n        /* \"#utility.yul\":32904:32921   */\n      swap1\n      pop\n        /* \"#utility.yul\":32879:33087   */\n      jump(tag_765)\n    tag_767:\n        /* \"#utility.yul\":33115:33121   */\n      dup7\n        /* \"#utility.yul\":33106:33113   */\n      dup4\n        /* \"#utility.yul\":33103:33122   */\n      lt\n        /* \"#utility.yul\":33100:33279   */\n      iszero\n      tag_768\n      jumpi\n        /* \"#utility.yul\":33173:33182   */\n      dup5\n        /* \"#utility.yul\":33168:33171   */\n      dup10\n        /* \"#utility.yul\":33164:33183   */\n      add\n        /* \"#utility.yul\":33158:33184   */\n      mload\n        /* \"#utility.yul\":33216:33264   */\n      tag_769\n        /* \"#utility.yul\":33258:33262   */\n      0x1f\n        /* \"#utility.yul\":33250:33256   */\n      dup10\n        /* \"#utility.yul\":33246:33263   */\n      and\n        /* \"#utility.yul\":33235:33244   */\n      dup3\n        /* \"#utility.yul\":33216:33264   */\n      tag_440\n      jump\t// in\n    tag_769:\n        /* \"#utility.yul\":33208:33214   */\n      dup4\n        /* \"#utility.yul\":33201:33265   */\n      sstore\n        /* \"#utility.yul\":33123:33279   */\n      pop\n        /* \"#utility.yul\":33100:33279   */\n    tag_768:\n        /* \"#utility.yul\":33325:33326   */\n      0x01\n        /* \"#utility.yul\":33321:33322   */\n      0x02\n        /* \"#utility.yul\":33313:33319   */\n      dup9\n        /* \"#utility.yul\":33309:33323   */\n      mul\n        /* \"#utility.yul\":33305:33327   */\n      add\n        /* \"#utility.yul\":33299:33303   */\n      dup9\n        /* \"#utility.yul\":33292:33328   */\n      sstore\n        /* \"#utility.yul\":32727:33338   */\n      pop\n      pop\n      pop\n        /* \"#utility.yul\":32690:33577   */\n    tag_760:\n      pop\n        /* \"#utility.yul\":32280:33583   */\n      pop\n      pop\n      pop\n        /* \"#utility.yul\":32188:33583   */\n      pop\n      pop\n      jump\t// out\n        /* \"#utility.yul\":33589:33754   */\n    tag_442:\n        /* \"#utility.yul\":33729:33746   */\n      0x496e76616c696420616464726573730000000000000000000000000000000000\n        /* \"#utility.yul\":33725:33726   */\n      0x00\n        /* \"#utility.yul\":33717:33723   */\n      dup3\n        /* \"#utility.yul\":33713:33727   */\n      add\n        /* \"#utility.yul\":33706:33747   */\n      mstore\n        /* \"#utility.yul\":33589:33754   */\n      pop\n      jump\t// out\n        /* \"#utility.yul\":33760:34126   */\n    tag_443:\n        /* \"#utility.yul\":33902:33905   */\n      0x00\n        /* \"#utility.yul\":33923:33990   */\n      tag_772\n        /* \"#utility.yul\":33987:33989   */\n      0x0f\n        /* \"#utility.yul\":33982:33985   */\n      dup4\n        /* \"#utility.yul\":33923:33990   */\n      tag_365\n      jump\t// in\n    tag_772:\n        /* \"#utility.yul\":33916:33990   */\n      swap2\n      pop\n        /* \"#utility.yul\":33999:34092   */\n      tag_773\n        /* \"#utility.yul\":34088:34091   */\n      dup3\n        /* \"#utility.yul\":33999:34092   */\n      tag_442\n      jump\t// in\n    tag_773:\n        /* \"#utility.yul\":34117:34119   */\n      0x20\n        /* \"#utility.yul\":34112:34115   */\n      dup3\n        /* \"#utility.yul\":34108:34120   */\n      add\n        /* \"#utility.yul\":34101:34120   */\n      swap1\n      pop\n        /* \"#utility.yul\":33760:34126   */\n      swap2\n      swap1\n      pop\n      jump\t// out\n        /* \"#utility.yul\":34132:34551   */\n    tag_237:\n        /* \"#utility.yul\":34298:34302   */\n      0x00\n        /* \"#utility.yul\":34336:34338   */\n      0x20\n        /* \"#utility.yul\":34325:34334   */\n      dup3\n        /* \"#utility.yul\":34321:34339   */\n      add\n        /* \"#utility.yul\":34313:34339   */\n      swap1\n      pop\n        /* \"#utility.yul\":34385:34394   */\n      dup2\n        /* \"#utility.yul\":34379:34383   */\n      dup2\n        /* \"#utility.yul\":34375:34395   */\n      sub\n        /* \"#utility.yul\":34371:34372   */\n      0x00\n        /* \"#utility.yul\":34360:34369   */\n      dup4\n        /* \"#utility.yul\":34356:34373   */\n      add\n        /* \"#utility.yul\":34349:34396   */\n      mstore\n        /* \"#utility.yul\":34413:34544   */\n      tag_775\n        /* \"#utility.yul\":34539:34543   */\n      dup2\n        /* \"#utility.yul\":34413:34544   */\n      tag_443\n      jump\t// in\n    tag_775:\n        /* \"#utility.yul\":34405:34544   */\n      swap1\n      pop\n        /* \"#utility.yul\":34132:34551   */\n      swap2\n      swap1\n      pop\n      jump\t// out\n        /* \"#utility.yul\":34557:34737   */\n    tag_444:\n        /* \"#utility.yul\":34605:34682   */\n      0x4e487b7100000000000000000000000000000000000000000000000000000000\n        /* \"#utility.yul\":34602:34603   */\n      0x00\n        /* \"#utility.yul\":34595:34683   */\n      mstore\n        /* \"#utility.yul\":34702:34706   */\n      0x12\n        /* \"#utility.yul\":34699:34700   */\n      0x04\n        /* \"#utility.yul\":34692:34707   */\n      mstore\n        /* \"#utility.yul\":34726:34730   */\n      0x24\n        /* \"#utility.yul\":34723:34724   */\n      0x00\n        /* \"#utility.yul\":34716:34731   */\n      revert\n        /* \"#utility.yul\":34743:34928   */\n    tag_253:\n        /* \"#utility.yul\":34783:34784   */\n      0x00\n        /* \"#utility.yul\":34800:34820   */\n      tag_778\n        /* \"#utility.yul\":34818:34819   */\n      dup3\n        /* \"#utility.yul\":34800:34820   */\n      tag_372\n      jump\t// in\n    tag_778:\n        /* \"#utility.yul\":34795:34820   */\n      swap2\n      pop\n        /* \"#utility.yul\":34834:34854   */\n      tag_779\n        /* \"#utility.yul\":34852:34853   */\n      dup4\n        /* \"#utility.yul\":34834:34854   */\n      tag_372\n      jump\t// in\n    tag_779:\n        /* \"#utility.yul\":34829:34854   */\n      swap3\n      pop\n        /* \"#utility.yul\":34873:34874   */\n      dup3\n        /* \"#utility.yul\":34863:34898   */\n      tag_780\n      jumpi\n        /* \"#utility.yul\":34878:34896   */\n      tag_781\n      tag_444\n      jump\t// in\n    tag_781:\n        /* \"#utility.yul\":34863:34898   */\n    tag_780:\n        /* \"#utility.yul\":34920:34921   */\n      dup3\n        /* \"#utility.yul\":34917:34918   */\n      dup3\n        /* \"#utility.yul\":34913:34922   */\n      div\n        /* \"#utility.yul\":34908:34922   */\n      swap1\n      pop\n        /* \"#utility.yul\":34743:34928   */\n      swap3\n      swap2\n      pop\n      pop\n      jump\t// out\n        /* \"#utility.yul\":34934:35128   */\n    tag_265:\n        /* \"#utility.yul\":34974:34978   */\n      0x00\n        /* \"#utility.yul\":34994:35014   */\n      tag_783\n        /* \"#utility.yul\":35012:35013   */\n      dup3\n        /* \"#utility.yul\":34994:35014   */\n      tag_372\n      jump\t// in\n    tag_783:\n        /* \"#utility.yul\":34989:35014   */\n      swap2\n      pop\n        /* \"#utility.yul\":35028:35048   */\n      tag_784\n        /* \"#utility.yul\":35046:35047   */\n      dup4\n        /* \"#utility.yul\":35028:35048   */\n      tag_372\n      jump\t// in\n    tag_784:\n        /* \"#utility.yul\":35023:35048   */\n      swap3\n      pop\n        /* \"#utility.yul\":35072:35073   */\n      dup3\n        /* \"#utility.yul\":35069:35070   */\n      dup3\n        /* \"#utility.yul\":35065:35074   */\n      sub\n        /* \"#utility.yul\":35057:35074   */\n      swap1\n      pop\n        /* \"#utility.yul\":35096:35097   */\n      dup2\n        /* \"#utility.yul\":35090:35094   */\n      dup2\n        /* \"#utility.yul\":35087:35098   */\n      gt\n        /* \"#utility.yul\":35084:35121   */\n      iszero\n      tag_785\n      jumpi\n        /* \"#utility.yul\":35101:35119   */\n      tag_786\n      tag_416\n      jump\t// in\n    tag_786:\n        /* \"#utility.yul\":35084:35121   */\n    tag_785:\n        /* \"#utility.yul\":34934:35128   */\n      swap3\n      swap2\n      pop\n      pop\n      jump\t// out\n        /* \"#utility.yul\":35134:35308   */\n    tag_445:\n        /* \"#utility.yul\":35274:35300   */\n      0x43616e6e6f7420617070726f766520746f2063616c6c65720000000000000000\n        /* \"#utility.yul\":35270:35271   */\n      0x00\n        /* \"#utility.yul\":35262:35268   */\n      dup3\n        /* \"#utility.yul\":35258:35272   */\n      add\n        /* \"#utility.yul\":35251:35301   */\n      mstore\n        /* \"#utility.yul\":35134:35308   */\n      pop\n      jump\t// out\n        /* \"#utility.yul\":35314:35680   */\n    tag_446:\n        /* \"#utility.yul\":35456:35459   */\n      0x00\n        /* \"#utility.yul\":35477:35544   */\n      tag_789\n        /* \"#utility.yul\":35541:35543   */\n      0x18\n        /* \"#utility.yul\":35536:35539   */\n      dup4\n        /* \"#utility.yul\":35477:35544   */\n      tag_365\n      jump\t// in\n    tag_789:\n        /* \"#utility.yul\":35470:35544   */\n      swap2\n      pop\n        /* \"#utility.yul\":35553:35646   */\n      tag_790\n        /* \"#utility.yul\":35642:35645   */\n      dup3\n        /* \"#utility.yul\":35553:35646   */\n      tag_445\n      jump\t// in\n    tag_790:\n        /* \"#utility.yul\":35671:35673   */\n      0x20\n        /* \"#utility.yul\":35666:35669   */\n      dup3\n        /* \"#utility.yul\":35662:35674   */\n      add\n        /* \"#utility.yul\":35655:35674   */\n      swap1\n      pop\n        /* \"#utility.yul\":35314:35680   */\n      swap2\n      swap1\n      pop\n      jump\t// out\n        /* \"#utility.yul\":35686:36105   */\n    tag_276:\n        /* \"#utility.yul\":35852:35856   */\n      0x00\n        /* \"#utility.yul\":35890:35892   */\n      0x20\n        /* \"#utility.yul\":35879:35888   */\n      dup3\n        /* \"#utility.yul\":35875:35893   */\n      add\n        /* \"#utility.yul\":35867:35893   */\n      swap1\n      pop\n        /* \"#utility.yul\":35939:35948   */\n      dup2\n        /* \"#utility.yul\":35933:35937   */\n      dup2\n        /* \"#utility.yul\":35929:35949   */\n      sub\n        /* \"#utility.yul\":35925:35926   */\n      0x00\n        /* \"#utility.yul\":35914:35923   */\n      dup4\n        /* \"#utility.yul\":35910:35927   */\n      add\n        /* \"#utility.yul\":35903:35950   */\n      mstore\n        /* \"#utility.yul\":35967:36098   */\n      tag_792\n        /* \"#utility.yul\":36093:36097   */\n      dup2\n        /* \"#utility.yul\":35967:36098   */\n      tag_446\n      jump\t// in\n    tag_792:\n        /* \"#utility.yul\":35959:36098   */\n      swap1\n      pop\n        /* \"#utility.yul\":35686:36105   */\n      swap2\n      swap1\n      pop\n      jump\t// out\n        /* \"#utility.yul\":36111:36284   */\n    tag_447:\n        /* \"#utility.yul\":36251:36276   */\n      0x4e6f206c656173652070726f706f73616c20666f756e64000000000000000000\n        /* \"#utility.yul\":36247:36248   */\n      0x00\n        /* \"#utility.yul\":36239:36245   */\n      dup3\n        /* \"#utility.yul\":36235:36249   */\n      add\n        /* \"#utility.yul\":36228:36277   */\n      mstore\n        /* \"#utility.yul\":36111:36284   */\n      pop\n      jump\t// out\n        /* \"#utility.yul\":36290:36656   */\n    tag_448:\n        /* \"#utility.yul\":36432:36435   */\n      0x00\n        /* \"#utility.yul\":36453:36520   */\n      tag_795\n        /* \"#utility.yul\":36517:36519   */\n      0x17\n        /* \"#utility.yul\":36512:36515   */\n      dup4\n        /* \"#utility.yul\":36453:36520   */\n      tag_365\n      jump\t// in\n    tag_795:\n        /* \"#utility.yul\":36446:36520   */\n      swap2\n      pop\n        /* \"#utility.yul\":36529:36622   */\n      tag_796\n        /* \"#utility.yul\":36618:36621   */\n      dup3\n        /* \"#utility.yul\":36529:36622   */\n      tag_447\n      jump\t// in\n    tag_796:\n        /* \"#utility.yul\":36647:36649   */\n      0x20\n        /* \"#utility.yul\":36642:36645   */\n      dup3\n        /* \"#utility.yul\":36638:36650   */\n      add\n        /* \"#utility.yul\":36631:36650   */\n      swap1\n      pop\n        /* \"#utility.yul\":36290:36656   */\n      swap2\n      swap1\n      pop\n      jump\t// out\n        /* \"#utility.yul\":36662:37081   */\n    tag_284:\n        /* \"#utility.yul\":36828:36832   */\n      0x00\n        /* \"#utility.yul\":36866:36868   */\n      0x20\n        /* \"#utility.yul\":36855:36864   */\n      dup3\n        /* \"#utility.yul\":36851:36869   */\n      add\n        /* \"#utility.yul\":36843:36869   */\n      swap1\n      pop\n        /* \"#utility.yul\":36915:36924   */\n      dup2\n        /* \"#utility.yul\":36909:36913   */\n      dup2\n        /* \"#utility.yul\":36905:36925   */\n      sub\n        /* \"#utility.yul\":36901:36902   */\n      0x00\n        /* \"#utility.yul\":36890:36899   */\n      dup4\n        /* \"#utility.yul\":36886:36903   */\n      add\n        /* \"#utility.yul\":36879:36926   */\n      mstore\n        /* \"#utility.yul\":36943:37074   */\n      tag_798\n        /* \"#utility.yul\":37069:37073   */\n      dup2\n        /* \"#utility.yul\":36943:37074   */\n      tag_448\n      jump\t// in\n    tag_798:\n        /* \"#utility.yul\":36935:37074   */\n      swap1\n      pop\n        /* \"#utility.yul\":36662:37081   */\n      swap2\n      swap1\n      pop\n      jump\t// out\n        /* \"#utility.yul\":37087:37257   */\n    tag_449:\n        /* \"#utility.yul\":37227:37249   */\n      0x4c6561736520616c726561647920616374697665000000000000000000000000\n        /* \"#utility.yul\":37223:37224   */\n      0x00\n        /* \"#utility.yul\":37215:37221   */\n      dup3\n        /* \"#utility.yul\":37211:37225   */\n      add\n        /* \"#utility.yul\":37204:37250   */\n      mstore\n        /* \"#utility.yul\":37087:37257   */\n      pop\n      jump\t// out\n        /* \"#utility.yul\":37263:37629   */\n    tag_450:\n        /* \"#utility.yul\":37405:37408   */\n      0x00\n        /* \"#utility.yul\":37426:37493   */\n      tag_801\n        /* \"#utility.yul\":37490:37492   */\n      0x14\n        /* \"#utility.yul\":37485:37488   */\n      dup4\n        /* \"#utility.yul\":37426:37493   */\n      tag_365\n      jump\t// in\n    tag_801:\n        /* \"#utility.yul\":37419:37493   */\n      swap2\n      pop\n        /* \"#utility.yul\":37502:37595   */\n      tag_802\n        /* \"#utility.yul\":37591:37594   */\n      dup3\n        /* \"#utility.yul\":37502:37595   */\n      tag_449\n      jump\t// in\n    tag_802:\n        /* \"#utility.yul\":37620:37622   */\n      0x20\n        /* \"#utility.yul\":37615:37618   */\n      dup3\n        /* \"#utility.yul\":37611:37623   */\n      add\n        /* \"#utility.yul\":37604:37623   */\n      swap1\n      pop\n        /* \"#utility.yul\":37263:37629   */\n      swap2\n      swap1\n      pop\n      jump\t// out\n        /* \"#utility.yul\":37635:38054   */\n    tag_287:\n        /* \"#utility.yul\":37801:37805   */\n      0x00\n        /* \"#utility.yul\":37839:37841   */\n      0x20\n        /* \"#utility.yul\":37828:37837   */\n      dup3\n        /* \"#utility.yul\":37824:37842   */\n      add\n        /* \"#utility.yul\":37816:37842   */\n      swap1\n      pop\n        /* \"#utility.yul\":37888:37897   */\n      dup2\n        /* \"#utility.yul\":37882:37886   */\n      dup2\n        /* \"#utility.yul\":37878:37898   */\n      sub\n        /* \"#utility.yul\":37874:37875   */\n      0x00\n        /* \"#utility.yul\":37863:37872   */\n      dup4\n        /* \"#utility.yul\":37859:37876   */\n      add\n        /* \"#utility.yul\":37852:37899   */\n      mstore\n        /* \"#utility.yul\":37916:38047   */\n      tag_804\n        /* \"#utility.yul\":38042:38046   */\n      dup2\n        /* \"#utility.yul\":37916:38047   */\n      tag_450\n      jump\t// in\n    tag_804:\n        /* \"#utility.yul\":37908:38047   */\n      swap1\n      pop\n        /* \"#utility.yul\":37635:38054   */\n      swap2\n      swap1\n      pop\n      jump\t// out\n        /* \"#utility.yul\":38060:38207   */\n    tag_451:\n        /* \"#utility.yul\":38161:38172   */\n      0x00\n        /* \"#utility.yul\":38198:38201   */\n      dup2\n        /* \"#utility.yul\":38183:38201   */\n      swap1\n      pop\n        /* \"#utility.yul\":38060:38207   */\n      swap3\n      swap2\n      pop\n      pop\n      jump\t// out\n        /* \"#utility.yul\":38213:38327   */\n    tag_452:\n      pop\n      jump\t// out\n        /* \"#utility.yul\":38333:38731   */\n    tag_453:\n        /* \"#utility.yul\":38492:38495   */\n      0x00\n        /* \"#utility.yul\":38513:38596   */\n      tag_808\n        /* \"#utility.yul\":38594:38595   */\n      0x00\n        /* \"#utility.yul\":38589:38592   */\n      dup4\n        /* \"#utility.yul\":38513:38596   */\n      tag_451\n      jump\t// in\n    tag_808:\n        /* \"#utility.yul\":38506:38596   */\n      swap2\n      pop\n        /* \"#utility.yul\":38605:38698   */\n      tag_809\n        /* \"#utility.yul\":38694:38697   */\n      dup3\n        /* \"#utility.yul\":38605:38698   */\n      tag_452\n      jump\t// in\n    tag_809:\n        /* \"#utility.yul\":38723:38724   */\n      0x00\n        /* \"#utility.yul\":38718:38721   */\n      dup3\n        /* \"#utility.yul\":38714:38725   */\n      add\n        /* \"#utility.yul\":38707:38725   */\n      swap1\n      pop\n        /* \"#utility.yul\":38333:38731   */\n      swap2\n      swap1\n      pop\n      jump\t// out\n        /* \"#utility.yul\":38737:39116   */\n    tag_290:\n        /* \"#utility.yul\":38921:38924   */\n      0x00\n        /* \"#utility.yul\":38943:39090   */\n      tag_811\n        /* \"#utility.yul\":39086:39089   */\n      dup3\n        /* \"#utility.yul\":38943:39090   */\n      tag_453\n      jump\t// in\n    tag_811:\n        /* \"#utility.yul\":38936:39090   */\n      swap2\n      pop\n        /* \"#utility.yul\":39107:39110   */\n      dup2\n        /* \"#utility.yul\":39100:39110   */\n      swap1\n      pop\n        /* \"#utility.yul\":38737:39116   */\n      swap2\n      swap1\n      pop\n      jump\t// out\n        /* \"#utility.yul\":39122:39292   */\n    tag_454:\n        /* \"#utility.yul\":39262:39284   */\n      0x4661696c656420746f2073656e64204574686572000000000000000000000000\n        /* \"#utility.yul\":39258:39259   */\n      0x00\n        /* \"#utility.yul\":39250:39256   */\n      dup3\n        /* \"#utility.yul\":39246:39260   */\n      add\n        /* \"#utility.yul\":39239:39285   */\n      mstore\n        /* \"#utility.yul\":39122:39292   */\n      pop\n      jump\t// out\n        /* \"#utility.yul\":39298:39664   */\n    tag_455:\n        /* \"#utility.yul\":39440:39443   */\n      0x00\n        /* \"#utility.yul\":39461:39528   */\n      tag_814\n        /* \"#utility.yul\":39525:39527   */\n      0x14\n        /* \"#utility.yul\":39520:39523   */\n      dup4\n        /* \"#utility.yul\":39461:39528   */\n      tag_365\n      jump\t// in\n    tag_814:\n        /* \"#utility.yul\":39454:39528   */\n      swap2\n      pop\n        /* \"#utility.yul\":39537:39630   */\n      tag_815\n        /* \"#utility.yul\":39626:39629   */\n      dup3\n        /* \"#utility.yul\":39537:39630   */\n      tag_454\n      jump\t// in\n    tag_815:\n        /* \"#utility.yul\":39655:39657   */\n      0x20\n        /* \"#utility.yul\":39650:39653   */\n      dup3\n        /* \"#utility.yul\":39646:39658   */\n      add\n        /* \"#utility.yul\":39639:39658   */\n      swap1\n      pop\n        /* \"#utility.yul\":39298:39664   */\n      swap2\n      swap1\n      pop\n      jump\t// out\n        /* \"#utility.yul\":39670:40089   */\n    tag_296:\n        /* \"#utility.yul\":39836:39840   */\n      0x00\n        /* \"#utility.yul\":39874:39876   */\n      0x20\n        /* \"#utility.yul\":39863:39872   */\n      dup3\n        /* \"#utility.yul\":39859:39877   */\n      add\n        /* \"#utility.yul\":39851:39877   */\n      swap1\n      pop\n        /* \"#utility.yul\":39923:39932   */\n      dup2\n        /* \"#utility.yul\":39917:39921   */\n      dup2\n        /* \"#utility.yul\":39913:39933   */\n      sub\n        /* \"#utility.yul\":39909:39910   */\n      0x00\n        /* \"#utility.yul\":39898:39907   */\n      dup4\n        /* \"#utility.yul\":39894:39911   */\n      add\n        /* \"#utility.yul\":39887:39934   */\n      mstore\n        /* \"#utility.yul\":39951:40082   */\n      tag_817\n        /* \"#utility.yul\":40077:40081   */\n      dup2\n        /* \"#utility.yul\":39951:40082   */\n      tag_455\n      jump\t// in\n    tag_817:\n        /* \"#utility.yul\":39943:40082   */\n      swap1\n      pop\n        /* \"#utility.yul\":39670:40089   */\n      swap2\n      swap1\n      pop\n      jump\t// out\n        /* \"#utility.yul\":40095:40267   */\n    tag_456:\n        /* \"#utility.yul\":40235:40259   */\n      0x4f6e6c79206c65737365652063616e2063616e63656c00000000000000000000\n        /* \"#utility.yul\":40231:40232   */\n      0x00\n        /* \"#utility.yul\":40223:40229   */\n      dup3\n        /* \"#utility.yul\":40219:40233   */\n      add\n        /* \"#utility.yul\":40212:40260   */\n      mstore\n        /* \"#utility.yul\":40095:40267   */\n      pop\n      jump\t// out\n        /* \"#utility.yul\":40273:40639   */\n    tag_457:\n        /* \"#utility.yul\":40415:40418   */\n      0x00\n        /* \"#utility.yul\":40436:40503   */\n      tag_820\n        /* \"#utility.yul\":40500:40502   */\n      0x16\n        /* \"#utility.yul\":40495:40498   */\n      dup4\n        /* \"#utility.yul\":40436:40503   */\n      tag_365\n      jump\t// in\n    tag_820:\n        /* \"#utility.yul\":40429:40503   */\n      swap2\n      pop\n        /* \"#utility.yul\":40512:40605   */\n      tag_821\n        /* \"#utility.yul\":40601:40604   */\n      dup3\n        /* \"#utility.yul\":40512:40605   */\n      tag_456\n      jump\t// in\n    tag_821:\n        /* \"#utility.yul\":40630:40632   */\n      0x20\n        /* \"#utility.yul\":40625:40628   */\n      dup3\n        /* \"#utility.yul\":40621:40633   */\n      add\n        /* \"#utility.yul\":40614:40633   */\n      swap1\n      pop\n        /* \"#utility.yul\":40273:40639   */\n      swap2\n      swap1\n      pop\n      jump\t// out\n        /* \"#utility.yul\":40645:41064   */\n    tag_301:\n        /* \"#utility.yul\":40811:40815   */\n      0x00\n        /* \"#utility.yul\":40849:40851   */\n      0x20\n        /* \"#utility.yul\":40838:40847   */\n      dup3\n        /* \"#utility.yul\":40834:40852   */\n      add\n        /* \"#utility.yul\":40826:40852   */\n      swap1\n      pop\n        /* \"#utility.yul\":40898:40907   */\n      dup2\n        /* \"#utility.yul\":40892:40896   */\n      dup2\n        /* \"#utility.yul\":40888:40908   */\n      sub\n        /* \"#utility.yul\":40884:40885   */\n      0x00\n        /* \"#utility.yul\":40873:40882   */\n      dup4\n        /* \"#utility.yul\":40869:40886   */\n      add\n        /* \"#utility.yul\":40862:40909   */\n      mstore\n        /* \"#utility.yul\":40926:41057   */\n      tag_823\n        /* \"#utility.yul\":41052:41056   */\n      dup2\n        /* \"#utility.yul\":40926:41057   */\n      tag_457\n      jump\t// in\n    tag_823:\n        /* \"#utility.yul\":40918:41057   */\n      swap1\n      pop\n        /* \"#utility.yul\":40645:41064   */\n      swap2\n      swap1\n      pop\n      jump\t// out\n        /* \"#utility.yul\":41070:41243   */\n    tag_458:\n        /* \"#utility.yul\":41210:41235   */\n      0x4c6561736520697320616c726561647920616374697665000000000000000000\n        /* \"#utility.yul\":41206:41207   */\n      0x00\n        /* \"#utility.yul\":41198:41204   */\n      dup3\n        /* \"#utility.yul\":41194:41208   */\n      add\n        /* \"#utility.yul\":41187:41236   */\n      mstore\n        /* \"#utility.yul\":41070:41243   */\n      pop\n      jump\t// out\n        /* \"#utility.yul\":41249:41615   */\n    tag_459:\n        /* \"#utility.yul\":41391:41394   */\n      0x00\n        /* \"#utility.yul\":41412:41479   */\n      tag_826\n        /* \"#utility.yul\":41476:41478   */\n      0x17\n        /* \"#utility.yul\":41471:41474   */\n      dup4\n        /* \"#utility.yul\":41412:41479   */\n      tag_365\n      jump\t// in\n    tag_826:\n        /* \"#utility.yul\":41405:41479   */\n      swap2\n      pop\n        /* \"#utility.yul\":41488:41581   */\n      tag_827\n        /* \"#utility.yul\":41577:41580   */\n      dup3\n        /* \"#utility.yul\":41488:41581   */\n      tag_458\n      jump\t// in\n    tag_827:\n        /* \"#utility.yul\":41606:41608   */\n      0x20\n        /* \"#utility.yul\":41601:41604   */\n      dup3\n        /* \"#utility.yul\":41597:41609   */\n      add\n        /* \"#utility.yul\":41590:41609   */\n      swap1\n      pop\n        /* \"#utility.yul\":41249:41615   */\n      swap2\n      swap1\n      pop\n      jump\t// out\n        /* \"#utility.yul\":41621:42040   */\n    tag_304:\n        /* \"#utility.yul\":41787:41791   */\n      0x00\n        /* \"#utility.yul\":41825:41827   */\n      0x20\n        /* \"#utility.yul\":41814:41823   */\n      dup3\n        /* \"#utility.yul\":41810:41828   */\n      add\n        /* \"#utility.yul\":41802:41828   */\n      swap1\n      pop\n        /* \"#utility.yul\":41874:41883   */\n      dup2\n        /* \"#utility.yul\":41868:41872   */\n      dup2\n        /* \"#utility.yul\":41864:41884   */\n      sub\n        /* \"#utility.yul\":41860:41861   */\n      0x00\n        /* \"#utility.yul\":41849:41858   */\n      dup4\n        /* \"#utility.yul\":41845:41862   */\n      add\n        /* \"#utility.yul\":41838:41885   */\n      mstore\n        /* \"#utility.yul\":41902:42033   */\n      tag_829\n        /* \"#utility.yul\":42028:42032   */\n      dup2\n        /* \"#utility.yul\":41902:42033   */\n      tag_459\n      jump\t// in\n    tag_829:\n        /* \"#utility.yul\":41894:42033   */\n      swap1\n      pop\n        /* \"#utility.yul\":41621:42040   */\n      swap2\n      swap1\n      pop\n      jump\t// out\n        /* \"#utility.yul\":42046:42225   */\n    tag_460:\n        /* \"#utility.yul\":42186:42217   */\n      0x4f6e6c79206c65737365652063616e206d616b65207061796d656e7473000000\n        /* \"#utility.yul\":42182:42183   */\n      0x00\n        /* \"#utility.yul\":42174:42180   */\n      dup3\n        /* \"#utility.yul\":42170:42184   */\n      add\n        /* \"#utility.yul\":42163:42218   */\n      mstore\n        /* \"#utility.yul\":42046:42225   */\n      pop\n      jump\t// out\n        /* \"#utility.yul\":42231:42597   */\n    tag_461:\n        /* \"#utility.yul\":42373:42376   */\n      0x00\n        /* \"#utility.yul\":42394:42461   */\n      tag_832\n        /* \"#utility.yul\":42458:42460   */\n      0x1d\n        /* \"#utility.yul\":42453:42456   */\n      dup4\n        /* \"#utility.yul\":42394:42461   */\n      tag_365\n      jump\t// in\n    tag_832:\n        /* \"#utility.yul\":42387:42461   */\n      swap2\n      pop\n        /* \"#utility.yul\":42470:42563   */\n      tag_833\n        /* \"#utility.yul\":42559:42562   */\n      dup3\n        /* \"#utility.yul\":42470:42563   */\n      tag_460\n      jump\t// in\n    tag_833:\n        /* \"#utility.yul\":42588:42590   */\n      0x20\n        /* \"#utility.yul\":42583:42586   */\n      dup3\n        /* \"#utility.yul\":42579:42591   */\n      add\n        /* \"#utility.yul\":42572:42591   */\n      swap1\n      pop\n        /* \"#utility.yul\":42231:42597   */\n      swap2\n      swap1\n      pop\n      jump\t// out\n        /* \"#utility.yul\":42603:43022   */\n    tag_315:\n        /* \"#utility.yul\":42769:42773   */\n      0x00\n        /* \"#utility.yul\":42807:42809   */\n      0x20\n        /* \"#utility.yul\":42796:42805   */\n      dup3\n        /* \"#utility.yul\":42792:42810   */\n      add\n        /* \"#utility.yul\":42784:42810   */\n      swap1\n      pop\n        /* \"#utility.yul\":42856:42865   */\n      dup2\n        /* \"#utility.yul\":42850:42854   */\n      dup2\n        /* \"#utility.yul\":42846:42866   */\n      sub\n        /* \"#utility.yul\":42842:42843   */\n      0x00\n        /* \"#utility.yul\":42831:42840   */\n      dup4\n        /* \"#utility.yul\":42827:42844   */\n      add\n        /* \"#utility.yul\":42820:42867   */\n      mstore\n        /* \"#utility.yul\":42884:43015   */\n      tag_835\n        /* \"#utility.yul\":43010:43014   */\n      dup2\n        /* \"#utility.yul\":42884:43015   */\n      tag_461\n      jump\t// in\n    tag_835:\n        /* \"#utility.yul\":42876:43015   */\n      swap1\n      pop\n        /* \"#utility.yul\":42603:43022   */\n      swap2\n      swap1\n      pop\n      jump\t// out\n        /* \"#utility.yul\":43028:43196   */\n    tag_462:\n        /* \"#utility.yul\":43168:43188   */\n      0x5061796d656e74206973206f7665726475650000000000000000000000000000\n        /* \"#utility.yul\":43164:43165   */\n      0x00\n        /* \"#utility.yul\":43156:43162   */\n      dup3\n        /* \"#utility.yul\":43152:43166   */\n      add\n        /* \"#utility.yul\":43145:43189   */\n      mstore\n        /* \"#utility.yul\":43028:43196   */\n      pop\n      jump\t// out\n        /* \"#utility.yul\":43202:43568   */\n    tag_463:\n        /* \"#utility.yul\":43344:43347   */\n      0x00\n        /* \"#utility.yul\":43365:43432   */\n      tag_838\n        /* \"#utility.yul\":43429:43431   */\n      0x12\n        /* \"#utility.yul\":43424:43427   */\n      dup4\n        /* \"#utility.yul\":43365:43432   */\n      tag_365\n      jump\t// in\n    tag_838:\n        /* \"#utility.yul\":43358:43432   */\n      swap2\n      pop\n        /* \"#utility.yul\":43441:43534   */\n      tag_839\n        /* \"#utility.yul\":43530:43533   */\n      dup3\n        /* \"#utility.yul\":43441:43534   */\n      tag_462\n      jump\t// in\n    tag_839:\n        /* \"#utility.yul\":43559:43561   */\n      0x20\n        /* \"#utility.yul\":43554:43557   */\n      dup3\n        /* \"#utility.yul\":43550:43562   */\n      add\n        /* \"#utility.yul\":43543:43562   */\n      swap1\n      pop\n        /* \"#utility.yul\":43202:43568   */\n      swap2\n      swap1\n      pop\n      jump\t// out\n        /* \"#utility.yul\":43574:43993   */\n    tag_323:\n        /* \"#utility.yul\":43740:43744   */\n      0x00\n        /* \"#utility.yul\":43778:43780   */\n      0x20\n        /* \"#utility.yul\":43767:43776   */\n      dup3\n        /* \"#utility.yul\":43763:43781   */\n      add\n        /* \"#utility.yul\":43755:43781   */\n      swap1\n      pop\n        /* \"#utility.yul\":43827:43836   */\n      dup2\n        /* \"#utility.yul\":43821:43825   */\n      dup2\n        /* \"#utility.yul\":43817:43837   */\n      sub\n        /* \"#utility.yul\":43813:43814   */\n      0x00\n        /* \"#utility.yul\":43802:43811   */\n      dup4\n        /* \"#utility.yul\":43798:43815   */\n      add\n        /* \"#utility.yul\":43791:43838   */\n      mstore\n        /* \"#utility.yul\":43855:43986   */\n      tag_841\n        /* \"#utility.yul\":43981:43985   */\n      dup2\n        /* \"#utility.yul\":43855:43986   */\n      tag_463\n      jump\t// in\n    tag_841:\n        /* \"#utility.yul\":43847:43986   */\n      swap1\n      pop\n        /* \"#utility.yul\":43574:43993   */\n      swap2\n      swap1\n      pop\n      jump\t// out\n        /* \"#utility.yul\":43999:44179   */\n    tag_464:\n        /* \"#utility.yul\":44139:44171   */\n      0x43616c6c6572206973206e6f74206f776e6572206e6f72206c65737365650000\n        /* \"#utility.yul\":44135:44136   */\n      0x00\n        /* \"#utility.yul\":44127:44133   */\n      dup3\n        /* \"#utility.yul\":44123:44137   */\n      add\n        /* \"#utility.yul\":44116:44172   */\n      mstore\n        /* \"#utility.yul\":43999:44179   */\n      pop\n      jump\t// out\n        /* \"#utility.yul\":44185:44551   */\n    tag_465:\n        /* \"#utility.yul\":44327:44330   */\n      0x00\n        /* \"#utility.yul\":44348:44415   */\n      tag_844\n        /* \"#utility.yul\":44412:44414   */\n      0x1e\n        /* \"#utility.yul\":44407:44410   */\n      dup4\n        /* \"#utility.yul\":44348:44415   */\n      tag_365\n      jump\t// in\n    tag_844:\n        /* \"#utility.yul\":44341:44415   */\n      swap2\n      pop\n        /* \"#utility.yul\":44424:44517   */\n      tag_845\n        /* \"#utility.yul\":44513:44516   */\n      dup3\n        /* \"#utility.yul\":44424:44517   */\n      tag_464\n      jump\t// in\n    tag_845:\n        /* \"#utility.yul\":44542:44544   */\n      0x20\n        /* \"#utility.yul\":44537:44540   */\n      dup3\n        /* \"#utility.yul\":44533:44545   */\n      add\n        /* \"#utility.yul\":44526:44545   */\n      swap1\n      pop\n        /* \"#utility.yul\":44185:44551   */\n      swap2\n      swap1\n      pop\n      jump\t// out\n        /* \"#utility.yul\":44557:44976   */\n    tag_339:\n        /* \"#utility.yul\":44723:44727   */\n      0x00\n        /* \"#utility.yul\":44761:44763   */\n      0x20\n        /* \"#utility.yul\":44750:44759   */\n      dup3\n        /* \"#utility.yul\":44746:44764   */\n      add\n        /* \"#utility.yul\":44738:44764   */\n      swap1\n      pop\n        /* \"#utility.yul\":44810:44819   */\n      dup2\n        /* \"#utility.yul\":44804:44808   */\n      dup2\n        /* \"#utility.yul\":44800:44820   */\n      sub\n        /* \"#utility.yul\":44796:44797   */\n      0x00\n        /* \"#utility.yul\":44785:44794   */\n      dup4\n        /* \"#utility.yul\":44781:44798   */\n      add\n        /* \"#utility.yul\":44774:44821   */\n      mstore\n        /* \"#utility.yul\":44838:44969   */\n      tag_847\n        /* \"#utility.yul\":44964:44968   */\n      dup2\n        /* \"#utility.yul\":44838:44969   */\n      tag_465\n      jump\t// in\n    tag_847:\n        /* \"#utility.yul\":44830:44969   */\n      swap1\n      pop\n        /* \"#utility.yul\":44557:44976   */\n      swap2\n      swap1\n      pop\n      jump\t// out\n        /* \"#utility.yul\":44982:45157   */\n    tag_466:\n        /* \"#utility.yul\":45122:45149   */\n      0x46726f6d2061646472657373206973206e6f74206f776e657200000000000000\n        /* \"#utility.yul\":45118:45119   */\n      0x00\n        /* \"#utility.yul\":45110:45116   */\n      dup3\n        /* \"#utility.yul\":45106:45120   */\n      add\n        /* \"#utility.yul\":45099:45150   */\n      mstore\n        /* \"#utility.yul\":44982:45157   */\n      pop\n      jump\t// out\n        /* \"#utility.yul\":45163:45529   */\n    tag_467:\n        /* \"#utility.yul\":45305:45308   */\n      0x00\n        /* \"#utility.yul\":45326:45393   */\n      tag_850\n        /* \"#utility.yul\":45390:45392   */\n      0x19\n        /* \"#utility.yul\":45385:45388   */\n      dup4\n        /* \"#utility.yul\":45326:45393   */\n      tag_365\n      jump\t// in\n    tag_850:\n        /* \"#utility.yul\":45319:45393   */\n      swap2\n      pop\n        /* \"#utility.yul\":45402:45495   */\n      tag_851\n        /* \"#utility.yul\":45491:45494   */\n      dup3\n        /* \"#utility.yul\":45402:45495   */\n      tag_466\n      jump\t// in\n    tag_851:\n        /* \"#utility.yul\":45520:45522   */\n      0x20\n        /* \"#utility.yul\":45515:45518   */\n      dup3\n        /* \"#utility.yul\":45511:45523   */\n      add\n        /* \"#utility.yul\":45504:45523   */\n      swap1\n      pop\n        /* \"#utility.yul\":45163:45529   */\n      swap2\n      swap1\n      pop\n      jump\t// out\n        /* \"#utility.yul\":45535:45954   */\n    tag_354:\n        /* \"#utility.yul\":45701:45705   */\n      0x00\n        /* \"#utility.yul\":45739:45741   */\n      0x20\n        /* \"#utility.yul\":45728:45737   */\n      dup3\n        /* \"#utility.yul\":45724:45742   */\n      add\n        /* \"#utility.yul\":45716:45742   */\n      swap1\n      pop\n        /* \"#utility.yul\":45788:45797   */\n      dup2\n        /* \"#utility.yul\":45782:45786   */\n      dup2\n        /* \"#utility.yul\":45778:45798   */\n      sub\n        /* \"#utility.yul\":45774:45775   */\n      0x00\n        /* \"#utility.yul\":45763:45772   */\n      dup4\n        /* \"#utility.yul\":45759:45776   */\n      add\n        /* \"#utility.yul\":45752:45799   */\n      mstore\n        /* \"#utility.yul\":45816:45947   */\n      tag_853\n        /* \"#utility.yul\":45942:45946   */\n      dup2\n        /* \"#utility.yul\":45816:45947   */\n      tag_467\n      jump\t// in\n    tag_853:\n        /* \"#utility.yul\":45808:45947   */\n      swap1\n      pop\n        /* \"#utility.yul\":45535:45954   */\n      swap2\n      swap1\n      pop\n      jump\t// out\n        /* \"#utility.yul\":45960:46134   */\n    tag_468:\n        /* \"#utility.yul\":46100:46126   */\n      0x5472616e7366657220746f207a65726f20616464726573730000000000000000\n        /* \"#utility.yul\":46096:46097   */\n      0x00\n        /* \"#utility.yul\":46088:46094   */\n      dup3\n        /* \"#utility.yul\":46084:46098   */\n      add\n        /* \"#utility.yul\":46077:46127   */\n      mstore\n        /* \"#utility.yul\":45960:46134   */\n      pop\n      jump\t// out\n        /* \"#utility.yul\":46140:46506   */\n    tag_469:\n        /* \"#utility.yul\":46282:46285   */\n      0x00\n        /* \"#utility.yul\":46303:46370   */\n      tag_856\n        /* \"#utility.yul\":46367:46369   */\n      0x18\n        /* \"#utility.yul\":46362:46365   */\n      dup4\n        /* \"#utility.yul\":46303:46370   */\n      tag_365\n      jump\t// in\n    tag_856:\n        /* \"#utility.yul\":46296:46370   */\n      swap2\n      pop\n        /* \"#utility.yul\":46379:46472   */\n      tag_857\n        /* \"#utility.yul\":46468:46471   */\n      dup3\n        /* \"#utility.yul\":46379:46472   */\n      tag_468\n      jump\t// in\n    tag_857:\n        /* \"#utility.yul\":46497:46499   */\n      0x20\n        /* \"#utility.yul\":46492:46495   */\n      dup3\n        /* \"#utility.yul\":46488:46500   */\n      add\n        /* \"#utility.yul\":46481:46500   */\n      swap1\n      pop\n        /* \"#utility.yul\":46140:46506   */\n      swap2\n      swap1\n      pop\n      jump\t// out\n        /* \"#utility.yul\":46512:46931   */\n    tag_357:\n        /* \"#utility.yul\":46678:46682   */\n      0x00\n        /* \"#utility.yul\":46716:46718   */\n      0x20\n        /* \"#utility.yul\":46705:46714   */\n      dup3\n        /* \"#utility.yul\":46701:46719   */\n      add\n        /* \"#utility.yul\":46693:46719   */\n      swap1\n      pop\n        /* \"#utility.yul\":46765:46774   */\n      dup2\n        /* \"#utility.yul\":46759:46763   */\n      dup2\n        /* \"#utility.yul\":46755:46775   */\n      sub\n        /* \"#utility.yul\":46751:46752   */\n      0x00\n        /* \"#utility.yul\":46740:46749   */\n      dup4\n        /* \"#utility.yul\":46736:46753   */\n      add\n        /* \"#utility.yul\":46729:46776   */\n      mstore\n        /* \"#utility.yul\":46793:46924   */\n      tag_859\n        /* \"#utility.yul\":46919:46923   */\n      dup2\n        /* \"#utility.yul\":46793:46924   */\n      tag_469\n      jump\t// in\n    tag_859:\n        /* \"#utility.yul\":46785:46924   */\n      swap1\n      pop\n        /* \"#utility.yul\":46512:46931   */\n      swap2\n      swap1\n      pop\n      jump\t// out\n\n    auxdata: 0xa2646970667358221220dcf4a65d0fb2c7544d7854b4f8ef666823a0e40d3393f8844365dea4264428d464736f6c634300081a0033\n}\n",
				"bytecode": {
					"linkReferences": {},
					"object": "608060405234801561000f575f80fd5b506040518060400160405280600a81526020017f42696c426f796443617200000000000000000000000000000000000000000000815250600490816100549190610319565b506040518060400160405280600381526020017f4242430000000000000000000000000000000000000000000000000000000000815250600590816100999190610319565b503360095f6101000a81548173ffffffffffffffffffffffffffffffffffffffff021916908373ffffffffffffffffffffffffffffffffffffffff1602179055506103e8565b5f81519050919050565b7f4e487b71000000000000000000000000000000000000000000000000000000005f52604160045260245ffd5b7f4e487b71000000000000000000000000000000000000000000000000000000005f52602260045260245ffd5b5f600282049050600182168061015a57607f821691505b60208210810361016d5761016c610116565b5b50919050565b5f819050815f5260205f209050919050565b5f6020601f8301049050919050565b5f82821b905092915050565b5f600883026101cf7fffffffffffffffffffffffffffffffffffffffffffffffffffffffffffffffff82610194565b6101d98683610194565b95508019841693508086168417925050509392505050565b5f819050919050565b5f819050919050565b5f61021d610218610213846101f1565b6101fa565b6101f1565b9050919050565b5f819050919050565b61023683610203565b61024a61024282610224565b8484546101a0565b825550505050565b5f90565b61025e610252565b61026981848461022d565b505050565b5b8181101561028c576102815f82610256565b60018101905061026f565b5050565b601f8211156102d1576102a281610173565b6102ab84610185565b810160208510156102ba578190505b6102ce6102c685610185565b83018261026e565b50505b505050565b5f82821c905092915050565b5f6102f15f19846008026102d6565b1980831691505092915050565b5f61030983836102e2565b9150826002028217905092915050565b610322826100df565b67ffffffffffffffff81111561033b5761033a6100e9565b5b6103458254610143565b610350828285610290565b5f60209050601f831160018114610381575f841561036f578287015190505b61037985826102fe565b8655506103e0565b601f19841661038f86610173565b5f5b828110156103b657848901518255600182019150602085019450602081019050610391565b868310156103d357848901516103cf601f8916826102e2565b8355505b6001600288020188555050505b505050505050565b613dd0806103f55f395ff3fe60806040526004361061011e575f3560e01c80636352211e1161009f578063aec2ab3511610063578063aec2ab3514610412578063b13bfc4a1461043a578063b3a0b2f214610462578063c98315411461047e578063e985e9c5146104a65761011e565b80636352211e1461030c57806370a08231146103485780638f80775d1461038457806395d89b41146103c0578063a22cb465146103ea5761011e565b8063472ec454116100e6578063472ec454146102145780634f558e7914610250578063563ca0581461028c5780635c9f0322146102a85780635cf6ab31146102d05761011e565b806306fdde0314610122578063081812fc1461014c578063095ea7b31461018857806323b872dd146101b05780632e8331fa146101d8575b5f80fd5b34801561012d575f80fd5b506101366104e2565b6040516101439190612818565b60405180910390f35b348015610157575f80fd5b50610172600480360381019061016d919061287c565b610572565b60405161017f91906128e6565b60405180910390f35b348015610193575f80fd5b506101ae60048036038101906101a99190612929565b6105f3565b005b3480156101bb575f80fd5b506101d660048036038101906101d19190612967565b61079b565b005b3480156101e3575f80fd5b506101fe60048036038101906101f9919061287c565b6107f4565b60405161020b9190612ab9565b60405180910390f35b34801561021f575f80fd5b5061023a6004803603810190610235919061287c565b610926565b6040516102479190612b95565b60405180910390f35b34801561025b575f80fd5b506102766004803603810190610271919061287c565b610ad6565b6040516102839190612bc4565b60405180910390f35b6102a660048036038101906102a19190612bdd565b610b3d565b005b3480156102b3575f80fd5b506102ce60048036038101906102c9919061287c565b610e85565b005b3480156102db575f80fd5b506102f660048036038101906102f19190612d6d565b611043565b6040516103039190612e2b565b60405180910390f35b348015610317575f80fd5b50610332600480360381019061032d919061287c565b611370565b60405161033f91906128e6565b60405180910390f35b348015610353575f80fd5b5061036e60048036038101906103699190612e44565b61141b565b60405161037b9190612e2b565b60405180910390f35b34801561038f575f80fd5b506103aa60048036038101906103a59190612bdd565b6114cf565b6040516103b79190612e2b565b60405180910390f35b3480156103cb575f80fd5b506103d4611728565b6040516103e19190612818565b60405180910390f35b3480156103f5575f80fd5b50610410600480360381019061040b9190612e99565b6117b8565b005b34801561041d575f80fd5b506104386004803603810190610433919061287c565b61191e565b005b348015610445575f80fd5b50610460600480360381019061045b919061287c565b611c02565b005b61047c6004803603810190610477919061287c565b611e41565b005b348015610489575f80fd5b506104a4600480360381019061049f9190612ed7565b6120c5565b005b3480156104b1575f80fd5b506104cc60048036038101906104c79190612f15565b6122b9565b6040516104d99190612bc4565b60405180910390f35b6060600480546104f190612f80565b80601f016020809104026020016040519081016040528092919081815260200182805461051d90612f80565b80156105685780601f1061053f57610100808354040283529160200191610568565b820191905f5260205f20905b81548152906001019060200180831161054b57829003601f168201915b5050505050905090565b5f61057c82610ad6565b6105bb576040517f08c379a00000000000000000000000000000000000000000000000000000000081526004016105b290612ffa565b60405180910390fd5b60025f8381526020019081526020015f205f9054906101000a900473ffffffffffffffffffffffffffffffffffffffff169050919050565b5f6105fd82611370565b90508073ffffffffffffffffffffffffffffffffffffffff168373ffffffffffffffffffffffffffffffffffffffff160361066d576040517f08c379a000000000000000000000000000000000000000000000000000000000815260040161066490613062565b60405180910390fd5b8073ffffffffffffffffffffffffffffffffffffffff163373ffffffffffffffffffffffffffffffffffffffff1614806106ad57506106ac81336122b9565b5b6106ec576040517f08c379a00000000000000000000000000000000000000000000000000000000081526004016106e3906130f0565b60405180910390fd5b8260025f8481526020019081526020015f205f6101000a81548173ffffffffffffffffffffffffffffffffffffffff021916908373ffffffffffffffffffffffffffffffffffffffff160217905550818373ffffffffffffffffffffffffffffffffffffffff168273ffffffffffffffffffffffffffffffffffffffff167f8c5be1e5ebec7d5bd14f71427d1e84f3dd0314c0f7b2291e5b200ac8c7c3b92560405160405180910390a4505050565b6107a53382612347565b6107e4576040517f08c379a00000000000000000000000000000000000000000000000000000000081526004016107db90613158565b60405180910390fd5b6107ef838383612423565b505050565b6107fc61271b565b61080582610ad6565b610844576040517f08c379a000000000000000000000000000000000000000000000000000000000815260040161083b90612ffa565b60405180910390fd5b60085f8381526020019081526020015f20604051806101400160405290815f8201548152602001600182015f9054906101000a900473ffffffffffffffffffffffffffffffffffffffff1673ffffffffffffffffffffffffffffffffffffffff1673ffffffffffffffffffffffffffffffffffffffff168152602001600282015481526020016003820154815260200160048201548152602001600582015f9054906101000a900460ff161515151581526020016006820154815260200160078201548152602001600882015481526020016009820154815250509050919050565b61092e61277c565b61093782610ad6565b610976576040517f08c379a000000000000000000000000000000000000000000000000000000000815260040161096d90612ffa565b60405180910390fd5b60075f8381526020019081526020015f206040518060a00160405290815f820180546109a190612f80565b80601f01602080910402602001604051908101604052809291908181526020018280546109cd90612f80565b8015610a185780601f106109ef57610100808354040283529160200191610a18565b820191905f5260205f20905b8154815290600101906020018083116109fb57829003601f168201915b50505050508152602001600182018054610a3190612f80565b80601f0160208091040260200160405190810160405280929190818152602001828054610a5d90612f80565b8015610aa85780601f10610a7f57610100808354040283529160200191610aa8565b820191905f5260205f20905b815481529060010190602001808311610a8b57829003601f168201915b5050505050815260200160028201548152602001600382015481526020016004820154815250509050919050565b5f8073ffffffffffffffffffffffffffffffffffffffff165f808481526020019081526020015f205f9054906101000a900473ffffffffffffffffffffffffffffffffffffffff1673ffffffffffffffffffffffffffffffffffffffff1614159050919050565b610b4684610ad6565b610b85576040517f08c379a0000000000000000000000000000000000000000000000000000000008152600401610b7c90612ffa565b60405180910390fd5b5f73ffffffffffffffffffffffffffffffffffffffff1660085f8681526020019081526020015f206001015f9054906101000a900473ffffffffffffffffffffffffffffffffffffffff1673ffffffffffffffffffffffffffffffffffffffff1614610c26576040517f08c379a0000000000000000000000000000000000000000000000000000000008152600401610c1d906131e6565b60405180910390fd5b612710821480610c375750613a9882145b80610c435750614e2082145b610c82576040517f08c379a0000000000000000000000000000000000000000000000000000000008152600401610c799061324e565b60405180910390fd5b600c811480610c915750601881145b80610c9c5750602481145b610cdb576040517f08c379a0000000000000000000000000000000000000000000000000000000008152600401610cd2906132b6565b60405180910390fd5b5f610ce8858585856114cf565b90505f600482610cf89190613301565b9050803414610d3c576040517f08c379a0000000000000000000000000000000000000000000000000000000008152600401610d339061338c565b60405180910390fd5b6040518061014001604052808781526020013373ffffffffffffffffffffffffffffffffffffffff1681526020018681526020018581526020018481526020015f15158152602001600384610d919190613301565b815260200142815260200162278d0042610dab91906133aa565b81526020018381525060085f8881526020019081526020015f205f820151815f01556020820151816001015f6101000a81548173ffffffffffffffffffffffffffffffffffffffff021916908373ffffffffffffffffffffffffffffffffffffffff16021790555060408201518160020155606082015181600301556080820151816004015560a0820151816005015f6101000a81548160ff02191690831515021790555060c0820151816006015560e0820151816007015561010082015181600801556101208201518160090155905050505050505050565b60095f9054906101000a900473ffffffffffffffffffffffffffffffffffffffff1673ffffffffffffffffffffffffffffffffffffffff163373ffffffffffffffffffffffffffffffffffffffff1614610f14576040517f08c379a0000000000000000000000000000000000000000000000000000000008152600401610f0b90613427565b60405180910390fd5b5f60085f8381526020019081526020015f209050806005015f9054906101000a900460ff16610f78576040517f08c379a0000000000000000000000000000000000000000000000000000000008152600401610f6f9061348f565b60405180910390fd5b620697808160080154610f8b91906133aa565b4211610fcc576040517f08c379a0000000000000000000000000000000000000000000000000000000008152600401610fc3906134f7565b60405180910390fd5b61101b816001015f9054906101000a900473ffffffffffffffffffffffffffffffffffffffff1660095f9054906101000a900473ffffffffffffffffffffffffffffffffffffffff1684612423565b5f816005015f6101000a81548160ff0219169083151502179055505f81600601819055505050565b5f60095f9054906101000a900473ffffffffffffffffffffffffffffffffffffffff1673ffffffffffffffffffffffffffffffffffffffff163373ffffffffffffffffffffffffffffffffffffffff16146110d3576040517f08c379a00000000000000000000000000000000000000000000000000000000081526004016110ca90613427565b60405180910390fd5b5f73ffffffffffffffffffffffffffffffffffffffff1660095f9054906101000a900473ffffffffffffffffffffffffffffffffffffffff1673ffffffffffffffffffffffffffffffffffffffff1603611162576040517f08c379a00000000000000000000000000000000000000000000000000000000081526004016111599061355f565b60405180910390fd5b600160065f82825461117491906133aa565b925050819055505f60065490506001805f60095f9054906101000a900473ffffffffffffffffffffffffffffffffffffffff1673ffffffffffffffffffffffffffffffffffffffff1673ffffffffffffffffffffffffffffffffffffffff1681526020019081526020015f205f8282546111ee91906133aa565b9250508190555060095f9054906101000a900473ffffffffffffffffffffffffffffffffffffffff165f808381526020019081526020015f205f6101000a81548173ffffffffffffffffffffffffffffffffffffffff021916908373ffffffffffffffffffffffffffffffffffffffff1602179055506040518060a001604052808881526020018781526020018681526020018581526020018481525060075f8381526020019081526020015f205f820151815f0190816112af919061371a565b5060208201518160010190816112c5919061371a565b506040820151816002015560608201518160030155608082015181600401559050508060095f9054906101000a900473ffffffffffffffffffffffffffffffffffffffff1673ffffffffffffffffffffffffffffffffffffffff165f73ffffffffffffffffffffffffffffffffffffffff167fddf252ad1be2c89b69c2b068fc378daa952ba7f163c4a11628f55a4df523b3ef60405160405180910390a48091505095945050505050565b5f805f808481526020019081526020015f205f9054906101000a900473ffffffffffffffffffffffffffffffffffffffff1690505f73ffffffffffffffffffffffffffffffffffffffff168173ffffffffffffffffffffffffffffffffffffffff1603611412576040517f08c379a000000000000000000000000000000000000000000000000000000000815260040161140990612ffa565b60405180910390fd5b80915050919050565b5f8073ffffffffffffffffffffffffffffffffffffffff168273ffffffffffffffffffffffffffffffffffffffff160361148a576040517f08c379a000000000000000000000000000000000000000000000000000000000815260040161148190613833565b60405180910390fd5b60015f8373ffffffffffffffffffffffffffffffffffffffff1673ffffffffffffffffffffffffffffffffffffffff1681526020019081526020015f20549050919050565b5f6114d985610ad6565b611518576040517f08c379a000000000000000000000000000000000000000000000000000000000815260040161150f90612ffa565b60405180910390fd5b5f60075f8781526020019081526020015f206040518060a00160405290815f8201805461154490612f80565b80601f016020809104026020016040519081016040528092919081815260200182805461157090612f80565b80156115bb5780601f10611592576101008083540402835291602001916115bb565b820191905f5260205f20905b81548152906001019060200180831161159e57829003601f168201915b505050505081526020016001820180546115d490612f80565b80601f016020809104026020016040519081016040528092919081815260200182805461160090612f80565b801561164b5780601f106116225761010080835404028352916020019161164b565b820191905f5260205f20905b81548152906001019060200180831161162e57829003601f168201915b50505050508152602001600282015481526020016003820154815260200160048201548152505090505f60648260600151611686919061387e565b90505f80606483896116989190613301565b6116a2919061387e565b90505f602487106116cd5760646005856116bc9190613301565b6116c6919061387e565b90506116f2565b601887106116f15760646003856116e49190613301565b6116ee919061387e565b90505b5b5f8183858761170191906133aa565b61170b91906138ae565b61171591906138ae565b9050809650505050505050949350505050565b60606005805461173790612f80565b80601f016020809104026020016040519081016040528092919081815260200182805461176390612f80565b80156117ae5780601f10611785576101008083540402835291602001916117ae565b820191905f5260205f20905b81548152906001019060200180831161179157829003601f168201915b5050505050905090565b3373ffffffffffffffffffffffffffffffffffffffff168273ffffffffffffffffffffffffffffffffffffffff1603611826576040517f08c379a000000000000000000000000000000000000000000000000000000000815260040161181d9061392b565b60405180910390fd5b8060035f3373ffffffffffffffffffffffffffffffffffffffff1673ffffffffffffffffffffffffffffffffffffffff1681526020019081526020015f205f8473ffffffffffffffffffffffffffffffffffffffff1673ffffffffffffffffffffffffffffffffffffffff1681526020019081526020015f205f6101000a81548160ff0219169083151502179055508173ffffffffffffffffffffffffffffffffffffffff163373ffffffffffffffffffffffffffffffffffffffff167f17307eab39ab6107e8899845ad3d59bd9653f200f220920489ca2b5937696c31836040516119129190612bc4565b60405180910390a35050565b60095f9054906101000a900473ffffffffffffffffffffffffffffffffffffffff1673ffffffffffffffffffffffffffffffffffffffff163373ffffffffffffffffffffffffffffffffffffffff16146119ad576040517f08c379a00000000000000000000000000000000000000000000000000000000081526004016119a490613427565b60405180910390fd5b5f60085f8381526020019081526020015f2090505f73ffffffffffffffffffffffffffffffffffffffff16816001015f9054906101000a900473ffffffffffffffffffffffffffffffffffffffff1673ffffffffffffffffffffffffffffffffffffffff1603611a52576040517f08c379a0000000000000000000000000000000000000000000000000000000008152600401611a4990613993565b60405180910390fd5b806005015f9054906101000a900460ff1615611aa3576040517f08c379a0000000000000000000000000000000000000000000000000000000008152600401611a9a906139fb565b60405180910390fd5b5f816009015490505f819050818360060154611abf91906138ae565b83600601819055505f60095f9054906101000a900473ffffffffffffffffffffffffffffffffffffffff1673ffffffffffffffffffffffffffffffffffffffff1682604051611b0d90613a46565b5f6040518083038185875af1925050503d805f8114611b47576040519150601f19603f3d011682016040523d82523d5f602084013e611b4c565b606091505b5050905080611b90576040517f08c379a0000000000000000000000000000000000000000000000000000000008152600401611b8790613aa4565b60405180910390fd5b6001846005015f6101000a81548160ff021916908315150217905550611bfb60095f9054906101000a900473ffffffffffffffffffffffffffffffffffffffff16856001015f9054906101000a900473ffffffffffffffffffffffffffffffffffffffff1687612423565b5050505050565b5f60085f8381526020019081526020015f2090503373ffffffffffffffffffffffffffffffffffffffff16816001015f9054906101000a900473ffffffffffffffffffffffffffffffffffffffff1673ffffffffffffffffffffffffffffffffffffffff1614611ca7576040517f08c379a0000000000000000000000000000000000000000000000000000000008152600401611c9e90613b0c565b60405180910390fd5b806005015f9054906101000a900460ff1615611cf8576040517f08c379a0000000000000000000000000000000000000000000000000000000008152600401611cef90613b74565b60405180910390fd5b5f81600901548260060154611d0d91906133aa565b905060085f8481526020019081526020015f205f8082015f9055600182015f6101000a81549073ffffffffffffffffffffffffffffffffffffffff0219169055600282015f9055600382015f9055600482015f9055600582015f6101000a81549060ff0219169055600682015f9055600782015f9055600882015f9055600982015f905550505f3373ffffffffffffffffffffffffffffffffffffffff1682604051611db890613a46565b5f6040518083038185875af1925050503d805f8114611df2576040519150601f19603f3d011682016040523d82523d5f602084013e611df7565b606091505b5050905080611e3b576040517f08c379a0000000000000000000000000000000000000000000000000000000008152600401611e3290613aa4565b60405180910390fd5b50505050565b5f60085f8381526020019081526020015f2090503373ffffffffffffffffffffffffffffffffffffffff16816001015f9054906101000a900473ffffffffffffffffffffffffffffffffffffffff1673ffffffffffffffffffffffffffffffffffffffff1614611ee6576040517f08c379a0000000000000000000000000000000000000000000000000000000008152600401611edd90613bdc565b60405180910390fd5b806005015f9054906101000a900460ff16611f36576040517f08c379a0000000000000000000000000000000000000000000000000000000008152600401611f2d9061348f565b60405180910390fd5b80600901543414611f7c576040517f08c379a0000000000000000000000000000000000000000000000000000000008152600401611f739061338c565b60405180910390fd5b620697808160080154611f8f91906133aa565b421115611fd1576040517f08c379a0000000000000000000000000000000000000000000000000000000008152600401611fc890613c44565b60405180910390fd5b42816007018190555062278d00816008015f828254611ff091906133aa565b925050819055505f60095f9054906101000a900473ffffffffffffffffffffffffffffffffffffffff1673ffffffffffffffffffffffffffffffffffffffff163460405161203d90613a46565b5f6040518083038185875af1925050503d805f8114612077576040519150601f19603f3d011682016040523d82523d5f602084013e61207c565b606091505b50509050806120c0576040517f08c379a00000000000000000000000000000000000000000000000000000000081526004016120b790613aa4565b60405180910390fd5b505050565b6120ce82610ad6565b61210d576040517f08c379a000000000000000000000000000000000000000000000000000000000815260040161210490612ffa565b60405180910390fd5b5f60085f8481526020019081526020015f20604051806101400160405290815f8201548152602001600182015f9054906101000a900473ffffffffffffffffffffffffffffffffffffffff1673ffffffffffffffffffffffffffffffffffffffff1673ffffffffffffffffffffffffffffffffffffffff168152602001600282015481526020016003820154815260200160048201548152602001600582015f9054906101000a900460ff1615151515815260200160068201548152602001600782015481526020016008820154815260200160098201548152505090506121f483611370565b73ffffffffffffffffffffffffffffffffffffffff163373ffffffffffffffffffffffffffffffffffffffff16148061225c5750806020015173ffffffffffffffffffffffffffffffffffffffff163373ffffffffffffffffffffffffffffffffffffffff16145b61229b576040517f08c379a000000000000000000000000000000000000000000000000000000000815260040161229290613cac565b60405180910390fd5b8160075f8581526020019081526020015f2060040181905550505050565b5f60035f8473ffffffffffffffffffffffffffffffffffffffff1673ffffffffffffffffffffffffffffffffffffffff1681526020019081526020015f205f8373ffffffffffffffffffffffffffffffffffffffff1673ffffffffffffffffffffffffffffffffffffffff1681526020019081526020015f205f9054906101000a900460ff16905092915050565b5f61235182610ad6565b612390576040517f08c379a000000000000000000000000000000000000000000000000000000000815260040161238790612ffa565b60405180910390fd5b5f61239a83611370565b90508073ffffffffffffffffffffffffffffffffffffffff168473ffffffffffffffffffffffffffffffffffffffff16148061240957508373ffffffffffffffffffffffffffffffffffffffff166123f184610572565b73ffffffffffffffffffffffffffffffffffffffff16145b8061241a575061241981856122b9565b5b91505092915050565b8273ffffffffffffffffffffffffffffffffffffffff1661244382611370565b73ffffffffffffffffffffffffffffffffffffffff1614612499576040517f08c379a000000000000000000000000000000000000000000000000000000000815260040161249090613d14565b60405180910390fd5b5f73ffffffffffffffffffffffffffffffffffffffff168273ffffffffffffffffffffffffffffffffffffffff1603612507576040517f08c379a00000000000000000000000000000000000000000000000000000000081526004016124fe90613d7c565b60405180910390fd5b6125115f82612665565b6001805f8573ffffffffffffffffffffffffffffffffffffffff1673ffffffffffffffffffffffffffffffffffffffff1681526020019081526020015f205f82825461255d91906138ae565b925050819055506001805f8473ffffffffffffffffffffffffffffffffffffffff1673ffffffffffffffffffffffffffffffffffffffff1681526020019081526020015f205f8282546125b091906133aa565b92505081905550815f808381526020019081526020015f205f6101000a81548173ffffffffffffffffffffffffffffffffffffffff021916908373ffffffffffffffffffffffffffffffffffffffff160217905550808273ffffffffffffffffffffffffffffffffffffffff168473ffffffffffffffffffffffffffffffffffffffff167fddf252ad1be2c89b69c2b068fc378daa952ba7f163c4a11628f55a4df523b3ef60405160405180910390a4505050565b8160025f8381526020019081526020015f205f6101000a81548173ffffffffffffffffffffffffffffffffffffffff021916908373ffffffffffffffffffffffffffffffffffffffff160217905550808273ffffffffffffffffffffffffffffffffffffffff166126d583611370565b73ffffffffffffffffffffffffffffffffffffffff167f8c5be1e5ebec7d5bd14f71427d1e84f3dd0314c0f7b2291e5b200ac8c7c3b92560405160405180910390a45050565b6040518061014001604052805f81526020015f73ffffffffffffffffffffffffffffffffffffffff1681526020015f81526020015f81526020015f81526020015f151581526020015f81526020015f81526020015f81526020015f81525090565b6040518060a0016040528060608152602001606081526020015f81526020015f81526020015f81525090565b5f81519050919050565b5f82825260208201905092915050565b8281835e5f83830152505050565b5f601f19601f8301169050919050565b5f6127ea826127a8565b6127f481856127b2565b93506128048185602086016127c2565b61280d816127d0565b840191505092915050565b5f6020820190508181035f83015261283081846127e0565b905092915050565b5f604051905090565b5f80fd5b5f80fd5b5f819050919050565b61285b81612849565b8114612865575f80fd5b50565b5f8135905061287681612852565b92915050565b5f6020828403121561289157612890612841565b5b5f61289e84828501612868565b91505092915050565b5f73ffffffffffffffffffffffffffffffffffffffff82169050919050565b5f6128d0826128a7565b9050919050565b6128e0816128c6565b82525050565b5f6020820190506128f95f8301846128d7565b92915050565b612908816128c6565b8114612912575f80fd5b50565b5f81359050612923816128ff565b92915050565b5f806040838503121561293f5761293e612841565b5b5f61294c85828601612915565b925050602061295d85828601612868565b9150509250929050565b5f805f6060848603121561297e5761297d612841565b5b5f61298b86828701612915565b935050602061299c86828701612915565b92505060406129ad86828701612868565b9150509250925092565b6129c081612849565b82525050565b6129cf816128c6565b82525050565b5f8115159050919050565b6129e9816129d5565b82525050565b61014082015f820151612a045f8501826129b7565b506020820151612a1760208501826129c6565b506040820151612a2a60408501826129b7565b506060820151612a3d60608501826129b7565b506080820151612a5060808501826129b7565b5060a0820151612a6360a08501826129e0565b5060c0820151612a7660c08501826129b7565b5060e0820151612a8960e08501826129b7565b50610100820151612a9e6101008501826129b7565b50610120820151612ab36101208501826129b7565b50505050565b5f61014082019050612acd5f8301846129ef565b92915050565b5f82825260208201905092915050565b5f612aed826127a8565b612af78185612ad3565b9350612b078185602086016127c2565b612b10816127d0565b840191505092915050565b5f60a083015f8301518482035f860152612b358282612ae3565b91505060208301518482036020860152612b4f8282612ae3565b9150506040830151612b6460408601826129b7565b506060830151612b7760608601826129b7565b506080830151612b8a60808601826129b7565b508091505092915050565b5f6020820190508181035f830152612bad8184612b1b565b905092915050565b612bbe816129d5565b82525050565b5f602082019050612bd75f830184612bb5565b92915050565b5f805f8060808587031215612bf557612bf4612841565b5b5f612c0287828801612868565b9450506020612c1387828801612868565b9350506040612c2487828801612868565b9250506060612c3587828801612868565b91505092959194509250565b5f80fd5b5f80fd5b7f4e487b71000000000000000000000000000000000000000000000000000000005f52604160045260245ffd5b612c7f826127d0565b810181811067ffffffffffffffff82111715612c9e57612c9d612c49565b5b80604052505050565b5f612cb0612838565b9050612cbc8282612c76565b919050565b5f67ffffffffffffffff821115612cdb57612cda612c49565b5b612ce4826127d0565b9050602081019050919050565b828183375f83830152505050565b5f612d11612d0c84612cc1565b612ca7565b905082815260208101848484011115612d2d57612d2c612c45565b5b612d38848285612cf1565b509392505050565b5f82601f830112612d5457612d53612c41565b5b8135612d64848260208601612cff565b91505092915050565b5f805f805f60a08688031215612d8657612d85612841565b5b5f86013567ffffffffffffffff811115612da357612da2612845565b5b612daf88828901612d40565b955050602086013567ffffffffffffffff811115612dd057612dcf612845565b5b612ddc88828901612d40565b9450506040612ded88828901612868565b9350506060612dfe88828901612868565b9250506080612e0f88828901612868565b9150509295509295909350565b612e2581612849565b82525050565b5f602082019050612e3e5f830184612e1c565b92915050565b5f60208284031215612e5957612e58612841565b5b5f612e6684828501612915565b91505092915050565b612e78816129d5565b8114612e82575f80fd5b50565b5f81359050612e9381612e6f565b92915050565b5f8060408385031215612eaf57612eae612841565b5b5f612ebc85828601612915565b9250506020612ecd85828601612e85565b9150509250929050565b5f8060408385031215612eed57612eec612841565b5b5f612efa85828601612868565b9250506020612f0b85828601612868565b9150509250929050565b5f8060408385031215612f2b57612f2a612841565b5b5f612f3885828601612915565b9250506020612f4985828601612915565b9150509250929050565b7f4e487b71000000000000000000000000000000000000000000000000000000005f52602260045260245ffd5b5f6002820490506001821680612f9757607f821691505b602082108103612faa57612fa9612f53565b5b50919050565b7f546f6b656e20494420646f6573206e6f742065786973740000000000000000005f82015250565b5f612fe46017836127b2565b9150612fef82612fb0565b602082019050919050565b5f6020820190508181035f83015261301181612fd8565b9050919050565b7f417070726f76616c20746f2063757272656e74206f776e6572000000000000005f82015250565b5f61304c6019836127b2565b915061305782613018565b602082019050919050565b5f6020820190508181035f83015261307981613040565b9050919050565b7f43616c6c6572206973206e6f74206f776e6572206e6f7220617070726f7665645f8201527f20666f7220616c6c000000000000000000000000000000000000000000000000602082015250565b5f6130da6028836127b2565b91506130e582613080565b604082019050919050565b5f6020820190508181035f830152613107816130ce565b9050919050565b7f43616c6c6572206973206e6f74206f776e6572206e6f7220617070726f7665645f82015250565b5f6131426020836127b2565b915061314d8261310e565b602082019050919050565b5f6020820190508181035f83015261316f81613136565b9050919050565b7f4c6561736520616c72656164792065786973747320666f72207468697320746f5f8201527f6b656e0000000000000000000000000000000000000000000000000000000000602082015250565b5f6131d06023836127b2565b91506131db82613176565b604082019050919050565b5f6020820190508181035f8301526131fd816131c4565b9050919050565b7f496e76616c6964206d696c6561676520636170000000000000000000000000005f82015250565b5f6132386013836127b2565b915061324382613204565b602082019050919050565b5f6020820190508181035f8301526132658161322c565b9050919050565b7f496e76616c696420636f6e7472616374206475726174696f6e000000000000005f82015250565b5f6132a06019836127b2565b91506132ab8261326c565b602082019050919050565b5f6020820190508181035f8301526132cd81613294565b9050919050565b7f4e487b71000000000000000000000000000000000000000000000000000000005f52601160045260245ffd5b5f61330b82612849565b915061331683612849565b925082820261332481612849565b9150828204841483151761333b5761333a6132d4565b5b5092915050565b7f496e636f7272656374207061796d656e7420616d6f756e7400000000000000005f82015250565b5f6133766018836127b2565b915061338182613342565b602082019050919050565b5f6020820190508181035f8301526133a38161336a565b9050919050565b5f6133b482612849565b91506133bf83612849565b92508282019050808211156133d7576133d66132d4565b5b92915050565b7f43616c6c6572206973206e6f7420746865206f776e65720000000000000000005f82015250565b5f6134116017836127b2565b915061341c826133dd565b602082019050919050565b5f6020820190508181035f83015261343e81613405565b9050919050565b7f4c65617365206973206e6f7420616374697665000000000000000000000000005f82015250565b5f6134796013836127b2565b915061348482613445565b602082019050919050565b5f6020820190508181035f8301526134a68161346d565b9050919050565b7f5061796d656e74206973206e6f74206f766572647565000000000000000000005f82015250565b5f6134e16016836127b2565b91506134ec826134ad565b602082019050919050565b5f6020820190508181035f83015261350e816134d5565b9050919050565b7f4d696e7420746f207a65726f20616464726573730000000000000000000000005f82015250565b5f6135496014836127b2565b915061355482613515565b602082019050919050565b5f6020820190508181035f8301526135768161353d565b9050919050565b5f819050815f5260205f209050919050565b5f6020601f8301049050919050565b5f82821b905092915050565b5f600883026135d97fffffffffffffffffffffffffffffffffffffffffffffffffffffffffffffffff8261359e565b6135e3868361359e565b95508019841693508086168417925050509392505050565b5f819050919050565b5f61361e61361961361484612849565b6135fb565b612849565b9050919050565b5f819050919050565b61363783613604565b61364b61364382613625565b8484546135aa565b825550505050565b5f90565b61365f613653565b61366a81848461362e565b505050565b5b8181101561368d576136825f82613657565b600181019050613670565b5050565b601f8211156136d2576136a38161357d565b6136ac8461358f565b810160208510156136bb578190505b6136cf6136c78561358f565b83018261366f565b50505b505050565b5f82821c905092915050565b5f6136f25f19846008026136d7565b1980831691505092915050565b5f61370a83836136e3565b9150826002028217905092915050565b613723826127a8565b67ffffffffffffffff81111561373c5761373b612c49565b5b6137468254612f80565b613751828285613691565b5f60209050601f831160018114613782575f8415613770578287015190505b61377a85826136ff565b8655506137e1565b601f1984166137908661357d565b5f5b828110156137b757848901518255600182019150602085019450602081019050613792565b868310156137d457848901516137d0601f8916826136e3565b8355505b6001600288020188555050505b505050505050565b7f496e76616c6964206164647265737300000000000000000000000000000000005f82015250565b5f61381d600f836127b2565b9150613828826137e9565b602082019050919050565b5f6020820190508181035f83015261384a81613811565b9050919050565b7f4e487b71000000000000000000000000000000000000000000000000000000005f52601260045260245ffd5b5f61388882612849565b915061389383612849565b9250826138a3576138a2613851565b5b828204905092915050565b5f6138b882612849565b91506138c383612849565b92508282039050818111156138db576138da6132d4565b5b92915050565b7f43616e6e6f7420617070726f766520746f2063616c6c657200000000000000005f82015250565b5f6139156018836127b2565b9150613920826138e1565b602082019050919050565b5f6020820190508181035f83015261394281613909565b9050919050565b7f4e6f206c656173652070726f706f73616c20666f756e640000000000000000005f82015250565b5f61397d6017836127b2565b915061398882613949565b602082019050919050565b5f6020820190508181035f8301526139aa81613971565b9050919050565b7f4c6561736520616c7265616479206163746976650000000000000000000000005f82015250565b5f6139e56014836127b2565b91506139f0826139b1565b602082019050919050565b5f6020820190508181035f830152613a12816139d9565b9050919050565b5f81905092915050565b50565b5f613a315f83613a19565b9150613a3c82613a23565b5f82019050919050565b5f613a5082613a26565b9150819050919050565b7f4661696c656420746f2073656e642045746865720000000000000000000000005f82015250565b5f613a8e6014836127b2565b9150613a9982613a5a565b602082019050919050565b5f6020820190508181035f830152613abb81613a82565b9050919050565b7f4f6e6c79206c65737365652063616e2063616e63656c000000000000000000005f82015250565b5f613af66016836127b2565b9150613b0182613ac2565b602082019050919050565b5f6020820190508181035f830152613b2381613aea565b9050919050565b7f4c6561736520697320616c7265616479206163746976650000000000000000005f82015250565b5f613b5e6017836127b2565b9150613b6982613b2a565b602082019050919050565b5f6020820190508181035f830152613b8b81613b52565b9050919050565b7f4f6e6c79206c65737365652063616e206d616b65207061796d656e74730000005f82015250565b5f613bc6601d836127b2565b9150613bd182613b92565b602082019050919050565b5f6020820190508181035f830152613bf381613bba565b9050919050565b7f5061796d656e74206973206f76657264756500000000000000000000000000005f82015250565b5f613c2e6012836127b2565b9150613c3982613bfa565b602082019050919050565b5f6020820190508181035f830152613c5b81613c22565b9050919050565b7f43616c6c6572206973206e6f74206f776e6572206e6f72206c657373656500005f82015250565b5f613c96601e836127b2565b9150613ca182613c62565b602082019050919050565b5f6020820190508181035f830152613cc381613c8a565b9050919050565b7f46726f6d2061646472657373206973206e6f74206f776e6572000000000000005f82015250565b5f613cfe6019836127b2565b9150613d0982613cca565b602082019050919050565b5f6020820190508181035f830152613d2b81613cf2565b9050919050565b7f5472616e7366657220746f207a65726f206164647265737300000000000000005f82015250565b5f613d666018836127b2565b9150613d7182613d32565b602082019050919050565b5f6020820190508181035f830152613d9381613d5a565b905091905056fea2646970667358221220dcf4a65d0fb2c7544d7854b4f8ef666823a0e40d3393f8844365dea4264428d464736f6c634300081a0033",
					"opcodes": "PUSH1 0x80 PUSH1 0x40 MSTORE CALLVALUE DUP1 ISZERO PUSH2 0xF JUMPI PUSH0 DUP1 REVERT JUMPDEST POP PUSH1 0x40 MLOAD DUP1 PUSH1 0x40 ADD PUSH1 0x40 MSTORE DUP1 PUSH1 0xA DUP2 MSTORE PUSH1 0x20 ADD PUSH32 0x42696C426F796443617200000000000000000000000000000000000000000000 DUP2 MSTORE POP PUSH1 0x4 SWAP1 DUP2 PUSH2 0x54 SWAP2 SWAP1 PUSH2 0x319 JUMP JUMPDEST POP PUSH1 0x40 MLOAD DUP1 PUSH1 0x40 ADD PUSH1 0x40 MSTORE DUP1 PUSH1 0x3 DUP2 MSTORE PUSH1 0x20 ADD PUSH32 0x4242430000000000000000000000000000000000000000000000000000000000 DUP2 MSTORE POP PUSH1 0x5 SWAP1 DUP2 PUSH2 0x99 SWAP2 SWAP1 PUSH2 0x319 JUMP JUMPDEST POP CALLER PUSH1 0x9 PUSH0 PUSH2 0x100 EXP DUP2 SLOAD DUP2 PUSH20 0xFFFFFFFFFFFFFFFFFFFFFFFFFFFFFFFFFFFFFFFF MUL NOT AND SWAP1 DUP4 PUSH20 0xFFFFFFFFFFFFFFFFFFFFFFFFFFFFFFFFFFFFFFFF AND MUL OR SWAP1 SSTORE POP PUSH2 0x3E8 JUMP JUMPDEST PUSH0 DUP2 MLOAD SWAP1 POP SWAP2 SWAP1 POP JUMP JUMPDEST PUSH32 0x4E487B7100000000000000000000000000000000000000000000000000000000 PUSH0 MSTORE PUSH1 0x41 PUSH1 0x4 MSTORE PUSH1 0x24 PUSH0 REVERT JUMPDEST PUSH32 0x4E487B7100000000000000000000000000000000000000000000000000000000 PUSH0 MSTORE PUSH1 0x22 PUSH1 0x4 MSTORE PUSH1 0x24 PUSH0 REVERT JUMPDEST PUSH0 PUSH1 0x2 DUP3 DIV SWAP1 POP PUSH1 0x1 DUP3 AND DUP1 PUSH2 0x15A JUMPI PUSH1 0x7F DUP3 AND SWAP2 POP JUMPDEST PUSH1 0x20 DUP3 LT DUP2 SUB PUSH2 0x16D JUMPI PUSH2 0x16C PUSH2 0x116 JUMP JUMPDEST JUMPDEST POP SWAP2 SWAP1 POP JUMP JUMPDEST PUSH0 DUP2 SWAP1 POP DUP2 PUSH0 MSTORE PUSH1 0x20 PUSH0 KECCAK256 SWAP1 POP SWAP2 SWAP1 POP JUMP JUMPDEST PUSH0 PUSH1 0x20 PUSH1 0x1F DUP4 ADD DIV SWAP1 POP SWAP2 SWAP1 POP JUMP JUMPDEST PUSH0 DUP3 DUP3 SHL SWAP1 POP SWAP3 SWAP2 POP POP JUMP JUMPDEST PUSH0 PUSH1 0x8 DUP4 MUL PUSH2 0x1CF PUSH32 0xFFFFFFFFFFFFFFFFFFFFFFFFFFFFFFFFFFFFFFFFFFFFFFFFFFFFFFFFFFFFFFFF DUP3 PUSH2 0x194 JUMP JUMPDEST PUSH2 0x1D9 DUP7 DUP4 PUSH2 0x194 JUMP JUMPDEST SWAP6 POP DUP1 NOT DUP5 AND SWAP4 POP DUP1 DUP7 AND DUP5 OR SWAP3 POP POP POP SWAP4 SWAP3 POP POP POP JUMP JUMPDEST PUSH0 DUP2 SWAP1 POP SWAP2 SWAP1 POP JUMP JUMPDEST PUSH0 DUP2 SWAP1 POP SWAP2 SWAP1 POP JUMP JUMPDEST PUSH0 PUSH2 0x21D PUSH2 0x218 PUSH2 0x213 DUP5 PUSH2 0x1F1 JUMP JUMPDEST PUSH2 0x1FA JUMP JUMPDEST PUSH2 0x1F1 JUMP JUMPDEST SWAP1 POP SWAP2 SWAP1 POP JUMP JUMPDEST PUSH0 DUP2 SWAP1 POP SWAP2 SWAP1 POP JUMP JUMPDEST PUSH2 0x236 DUP4 PUSH2 0x203 JUMP JUMPDEST PUSH2 0x24A PUSH2 0x242 DUP3 PUSH2 0x224 JUMP JUMPDEST DUP5 DUP5 SLOAD PUSH2 0x1A0 JUMP JUMPDEST DUP3 SSTORE POP POP POP POP JUMP JUMPDEST PUSH0 SWAP1 JUMP JUMPDEST PUSH2 0x25E PUSH2 0x252 JUMP JUMPDEST PUSH2 0x269 DUP2 DUP5 DUP5 PUSH2 0x22D JUMP JUMPDEST POP POP POP JUMP JUMPDEST JUMPDEST DUP2 DUP2 LT ISZERO PUSH2 0x28C JUMPI PUSH2 0x281 PUSH0 DUP3 PUSH2 0x256 JUMP JUMPDEST PUSH1 0x1 DUP2 ADD SWAP1 POP PUSH2 0x26F JUMP JUMPDEST POP POP JUMP JUMPDEST PUSH1 0x1F DUP3 GT ISZERO PUSH2 0x2D1 JUMPI PUSH2 0x2A2 DUP2 PUSH2 0x173 JUMP JUMPDEST PUSH2 0x2AB DUP5 PUSH2 0x185 JUMP JUMPDEST DUP2 ADD PUSH1 0x20 DUP6 LT ISZERO PUSH2 0x2BA JUMPI DUP2 SWAP1 POP JUMPDEST PUSH2 0x2CE PUSH2 0x2C6 DUP6 PUSH2 0x185 JUMP JUMPDEST DUP4 ADD DUP3 PUSH2 0x26E JUMP JUMPDEST POP POP JUMPDEST POP POP POP JUMP JUMPDEST PUSH0 DUP3 DUP3 SHR SWAP1 POP SWAP3 SWAP2 POP POP JUMP JUMPDEST PUSH0 PUSH2 0x2F1 PUSH0 NOT DUP5 PUSH1 0x8 MUL PUSH2 0x2D6 JUMP JUMPDEST NOT DUP1 DUP4 AND SWAP2 POP POP SWAP3 SWAP2 POP POP JUMP JUMPDEST PUSH0 PUSH2 0x309 DUP4 DUP4 PUSH2 0x2E2 JUMP JUMPDEST SWAP2 POP DUP3 PUSH1 0x2 MUL DUP3 OR SWAP1 POP SWAP3 SWAP2 POP POP JUMP JUMPDEST PUSH2 0x322 DUP3 PUSH2 0xDF JUMP JUMPDEST PUSH8 0xFFFFFFFFFFFFFFFF DUP2 GT ISZERO PUSH2 0x33B JUMPI PUSH2 0x33A PUSH2 0xE9 JUMP JUMPDEST JUMPDEST PUSH2 0x345 DUP3 SLOAD PUSH2 0x143 JUMP JUMPDEST PUSH2 0x350 DUP3 DUP3 DUP6 PUSH2 0x290 JUMP JUMPDEST PUSH0 PUSH1 0x20 SWAP1 POP PUSH1 0x1F DUP4 GT PUSH1 0x1 DUP2 EQ PUSH2 0x381 JUMPI PUSH0 DUP5 ISZERO PUSH2 0x36F JUMPI DUP3 DUP8 ADD MLOAD SWAP1 POP JUMPDEST PUSH2 0x379 DUP6 DUP3 PUSH2 0x2FE JUMP JUMPDEST DUP7 SSTORE POP PUSH2 0x3E0 JUMP JUMPDEST PUSH1 0x1F NOT DUP5 AND PUSH2 0x38F DUP7 PUSH2 0x173 JUMP JUMPDEST PUSH0 JUMPDEST DUP3 DUP2 LT ISZERO PUSH2 0x3B6 JUMPI DUP5 DUP10 ADD MLOAD DUP3 SSTORE PUSH1 0x1 DUP3 ADD SWAP2 POP PUSH1 0x20 DUP6 ADD SWAP5 POP PUSH1 0x20 DUP2 ADD SWAP1 POP PUSH2 0x391 JUMP JUMPDEST DUP7 DUP4 LT ISZERO PUSH2 0x3D3 JUMPI DUP5 DUP10 ADD MLOAD PUSH2 0x3CF PUSH1 0x1F DUP10 AND DUP3 PUSH2 0x2E2 JUMP JUMPDEST DUP4 SSTORE POP JUMPDEST PUSH1 0x1 PUSH1 0x2 DUP9 MUL ADD DUP9 SSTORE POP POP POP JUMPDEST POP POP POP POP POP POP JUMP JUMPDEST PUSH2 0x3DD0 DUP1 PUSH2 0x3F5 PUSH0 CODECOPY PUSH0 RETURN INVALID PUSH1 0x80 PUSH1 0x40 MSTORE PUSH1 0x4 CALLDATASIZE LT PUSH2 0x11E JUMPI PUSH0 CALLDATALOAD PUSH1 0xE0 SHR DUP1 PUSH4 0x6352211E GT PUSH2 0x9F JUMPI DUP1 PUSH4 0xAEC2AB35 GT PUSH2 0x63 JUMPI DUP1 PUSH4 0xAEC2AB35 EQ PUSH2 0x412 JUMPI DUP1 PUSH4 0xB13BFC4A EQ PUSH2 0x43A JUMPI DUP1 PUSH4 0xB3A0B2F2 EQ PUSH2 0x462 JUMPI DUP1 PUSH4 0xC9831541 EQ PUSH2 0x47E JUMPI DUP1 PUSH4 0xE985E9C5 EQ PUSH2 0x4A6 JUMPI PUSH2 0x11E JUMP JUMPDEST DUP1 PUSH4 0x6352211E EQ PUSH2 0x30C JUMPI DUP1 PUSH4 0x70A08231 EQ PUSH2 0x348 JUMPI DUP1 PUSH4 0x8F80775D EQ PUSH2 0x384 JUMPI DUP1 PUSH4 0x95D89B41 EQ PUSH2 0x3C0 JUMPI DUP1 PUSH4 0xA22CB465 EQ PUSH2 0x3EA JUMPI PUSH2 0x11E JUMP JUMPDEST DUP1 PUSH4 0x472EC454 GT PUSH2 0xE6 JUMPI DUP1 PUSH4 0x472EC454 EQ PUSH2 0x214 JUMPI DUP1 PUSH4 0x4F558E79 EQ PUSH2 0x250 JUMPI DUP1 PUSH4 0x563CA058 EQ PUSH2 0x28C JUMPI DUP1 PUSH4 0x5C9F0322 EQ PUSH2 0x2A8 JUMPI DUP1 PUSH4 0x5CF6AB31 EQ PUSH2 0x2D0 JUMPI PUSH2 0x11E JUMP JUMPDEST DUP1 PUSH4 0x6FDDE03 EQ PUSH2 0x122 JUMPI DUP1 PUSH4 0x81812FC EQ PUSH2 0x14C JUMPI DUP1 PUSH4 0x95EA7B3 EQ PUSH2 0x188 JUMPI DUP1 PUSH4 0x23B872DD EQ PUSH2 0x1B0 JUMPI DUP1 PUSH4 0x2E8331FA EQ PUSH2 0x1D8 JUMPI JUMPDEST PUSH0 DUP1 REVERT JUMPDEST CALLVALUE DUP1 ISZERO PUSH2 0x12D JUMPI PUSH0 DUP1 REVERT JUMPDEST POP PUSH2 0x136 PUSH2 0x4E2 JUMP JUMPDEST PUSH1 0x40 MLOAD PUSH2 0x143 SWAP2 SWAP1 PUSH2 0x2818 JUMP JUMPDEST PUSH1 0x40 MLOAD DUP1 SWAP2 SUB SWAP1 RETURN JUMPDEST CALLVALUE DUP1 ISZERO PUSH2 0x157 JUMPI PUSH0 DUP1 REVERT JUMPDEST POP PUSH2 0x172 PUSH1 0x4 DUP1 CALLDATASIZE SUB DUP2 ADD SWAP1 PUSH2 0x16D SWAP2 SWAP1 PUSH2 0x287C JUMP JUMPDEST PUSH2 0x572 JUMP JUMPDEST PUSH1 0x40 MLOAD PUSH2 0x17F SWAP2 SWAP1 PUSH2 0x28E6 JUMP JUMPDEST PUSH1 0x40 MLOAD DUP1 SWAP2 SUB SWAP1 RETURN JUMPDEST CALLVALUE DUP1 ISZERO PUSH2 0x193 JUMPI PUSH0 DUP1 REVERT JUMPDEST POP PUSH2 0x1AE PUSH1 0x4 DUP1 CALLDATASIZE SUB DUP2 ADD SWAP1 PUSH2 0x1A9 SWAP2 SWAP1 PUSH2 0x2929 JUMP JUMPDEST PUSH2 0x5F3 JUMP JUMPDEST STOP JUMPDEST CALLVALUE DUP1 ISZERO PUSH2 0x1BB JUMPI PUSH0 DUP1 REVERT JUMPDEST POP PUSH2 0x1D6 PUSH1 0x4 DUP1 CALLDATASIZE SUB DUP2 ADD SWAP1 PUSH2 0x1D1 SWAP2 SWAP1 PUSH2 0x2967 JUMP JUMPDEST PUSH2 0x79B JUMP JUMPDEST STOP JUMPDEST CALLVALUE DUP1 ISZERO PUSH2 0x1E3 JUMPI PUSH0 DUP1 REVERT JUMPDEST POP PUSH2 0x1FE PUSH1 0x4 DUP1 CALLDATASIZE SUB DUP2 ADD SWAP1 PUSH2 0x1F9 SWAP2 SWAP1 PUSH2 0x287C JUMP JUMPDEST PUSH2 0x7F4 JUMP JUMPDEST PUSH1 0x40 MLOAD PUSH2 0x20B SWAP2 SWAP1 PUSH2 0x2AB9 JUMP JUMPDEST PUSH1 0x40 MLOAD DUP1 SWAP2 SUB SWAP1 RETURN JUMPDEST CALLVALUE DUP1 ISZERO PUSH2 0x21F JUMPI PUSH0 DUP1 REVERT JUMPDEST POP PUSH2 0x23A PUSH1 0x4 DUP1 CALLDATASIZE SUB DUP2 ADD SWAP1 PUSH2 0x235 SWAP2 SWAP1 PUSH2 0x287C JUMP JUMPDEST PUSH2 0x926 JUMP JUMPDEST PUSH1 0x40 MLOAD PUSH2 0x247 SWAP2 SWAP1 PUSH2 0x2B95 JUMP JUMPDEST PUSH1 0x40 MLOAD DUP1 SWAP2 SUB SWAP1 RETURN JUMPDEST CALLVALUE DUP1 ISZERO PUSH2 0x25B JUMPI PUSH0 DUP1 REVERT JUMPDEST POP PUSH2 0x276 PUSH1 0x4 DUP1 CALLDATASIZE SUB DUP2 ADD SWAP1 PUSH2 0x271 SWAP2 SWAP1 PUSH2 0x287C JUMP JUMPDEST PUSH2 0xAD6 JUMP JUMPDEST PUSH1 0x40 MLOAD PUSH2 0x283 SWAP2 SWAP1 PUSH2 0x2BC4 JUMP JUMPDEST PUSH1 0x40 MLOAD DUP1 SWAP2 SUB SWAP1 RETURN JUMPDEST PUSH2 0x2A6 PUSH1 0x4 DUP1 CALLDATASIZE SUB DUP2 ADD SWAP1 PUSH2 0x2A1 SWAP2 SWAP1 PUSH2 0x2BDD JUMP JUMPDEST PUSH2 0xB3D JUMP JUMPDEST STOP JUMPDEST CALLVALUE DUP1 ISZERO PUSH2 0x2B3 JUMPI PUSH0 DUP1 REVERT JUMPDEST POP PUSH2 0x2CE PUSH1 0x4 DUP1 CALLDATASIZE SUB DUP2 ADD SWAP1 PUSH2 0x2C9 SWAP2 SWAP1 PUSH2 0x287C JUMP JUMPDEST PUSH2 0xE85 JUMP JUMPDEST STOP JUMPDEST CALLVALUE DUP1 ISZERO PUSH2 0x2DB JUMPI PUSH0 DUP1 REVERT JUMPDEST POP PUSH2 0x2F6 PUSH1 0x4 DUP1 CALLDATASIZE SUB DUP2 ADD SWAP1 PUSH2 0x2F1 SWAP2 SWAP1 PUSH2 0x2D6D JUMP JUMPDEST PUSH2 0x1043 JUMP JUMPDEST PUSH1 0x40 MLOAD PUSH2 0x303 SWAP2 SWAP1 PUSH2 0x2E2B JUMP JUMPDEST PUSH1 0x40 MLOAD DUP1 SWAP2 SUB SWAP1 RETURN JUMPDEST CALLVALUE DUP1 ISZERO PUSH2 0x317 JUMPI PUSH0 DUP1 REVERT JUMPDEST POP PUSH2 0x332 PUSH1 0x4 DUP1 CALLDATASIZE SUB DUP2 ADD SWAP1 PUSH2 0x32D SWAP2 SWAP1 PUSH2 0x287C JUMP JUMPDEST PUSH2 0x1370 JUMP JUMPDEST PUSH1 0x40 MLOAD PUSH2 0x33F SWAP2 SWAP1 PUSH2 0x28E6 JUMP JUMPDEST PUSH1 0x40 MLOAD DUP1 SWAP2 SUB SWAP1 RETURN JUMPDEST CALLVALUE DUP1 ISZERO PUSH2 0x353 JUMPI PUSH0 DUP1 REVERT JUMPDEST POP PUSH2 0x36E PUSH1 0x4 DUP1 CALLDATASIZE SUB DUP2 ADD SWAP1 PUSH2 0x369 SWAP2 SWAP1 PUSH2 0x2E44 JUMP JUMPDEST PUSH2 0x141B JUMP JUMPDEST PUSH1 0x40 MLOAD PUSH2 0x37B SWAP2 SWAP1 PUSH2 0x2E2B JUMP JUMPDEST PUSH1 0x40 MLOAD DUP1 SWAP2 SUB SWAP1 RETURN JUMPDEST CALLVALUE DUP1 ISZERO PUSH2 0x38F JUMPI PUSH0 DUP1 REVERT JUMPDEST POP PUSH2 0x3AA PUSH1 0x4 DUP1 CALLDATASIZE SUB DUP2 ADD SWAP1 PUSH2 0x3A5 SWAP2 SWAP1 PUSH2 0x2BDD JUMP JUMPDEST PUSH2 0x14CF JUMP JUMPDEST PUSH1 0x40 MLOAD PUSH2 0x3B7 SWAP2 SWAP1 PUSH2 0x2E2B JUMP JUMPDEST PUSH1 0x40 MLOAD DUP1 SWAP2 SUB SWAP1 RETURN JUMPDEST CALLVALUE DUP1 ISZERO PUSH2 0x3CB JUMPI PUSH0 DUP1 REVERT JUMPDEST POP PUSH2 0x3D4 PUSH2 0x1728 JUMP JUMPDEST PUSH1 0x40 MLOAD PUSH2 0x3E1 SWAP2 SWAP1 PUSH2 0x2818 JUMP JUMPDEST PUSH1 0x40 MLOAD DUP1 SWAP2 SUB SWAP1 RETURN JUMPDEST CALLVALUE DUP1 ISZERO PUSH2 0x3F5 JUMPI PUSH0 DUP1 REVERT JUMPDEST POP PUSH2 0x410 PUSH1 0x4 DUP1 CALLDATASIZE SUB DUP2 ADD SWAP1 PUSH2 0x40B SWAP2 SWAP1 PUSH2 0x2E99 JUMP JUMPDEST PUSH2 0x17B8 JUMP JUMPDEST STOP JUMPDEST CALLVALUE DUP1 ISZERO PUSH2 0x41D JUMPI PUSH0 DUP1 REVERT JUMPDEST POP PUSH2 0x438 PUSH1 0x4 DUP1 CALLDATASIZE SUB DUP2 ADD SWAP1 PUSH2 0x433 SWAP2 SWAP1 PUSH2 0x287C JUMP JUMPDEST PUSH2 0x191E JUMP JUMPDEST STOP JUMPDEST CALLVALUE DUP1 ISZERO PUSH2 0x445 JUMPI PUSH0 DUP1 REVERT JUMPDEST POP PUSH2 0x460 PUSH1 0x4 DUP1 CALLDATASIZE SUB DUP2 ADD SWAP1 PUSH2 0x45B SWAP2 SWAP1 PUSH2 0x287C JUMP JUMPDEST PUSH2 0x1C02 JUMP JUMPDEST STOP JUMPDEST PUSH2 0x47C PUSH1 0x4 DUP1 CALLDATASIZE SUB DUP2 ADD SWAP1 PUSH2 0x477 SWAP2 SWAP1 PUSH2 0x287C JUMP JUMPDEST PUSH2 0x1E41 JUMP JUMPDEST STOP JUMPDEST CALLVALUE DUP1 ISZERO PUSH2 0x489 JUMPI PUSH0 DUP1 REVERT JUMPDEST POP PUSH2 0x4A4 PUSH1 0x4 DUP1 CALLDATASIZE SUB DUP2 ADD SWAP1 PUSH2 0x49F SWAP2 SWAP1 PUSH2 0x2ED7 JUMP JUMPDEST PUSH2 0x20C5 JUMP JUMPDEST STOP JUMPDEST CALLVALUE DUP1 ISZERO PUSH2 0x4B1 JUMPI PUSH0 DUP1 REVERT JUMPDEST POP PUSH2 0x4CC PUSH1 0x4 DUP1 CALLDATASIZE SUB DUP2 ADD SWAP1 PUSH2 0x4C7 SWAP2 SWAP1 PUSH2 0x2F15 JUMP JUMPDEST PUSH2 0x22B9 JUMP JUMPDEST PUSH1 0x40 MLOAD PUSH2 0x4D9 SWAP2 SWAP1 PUSH2 0x2BC4 JUMP JUMPDEST PUSH1 0x40 MLOAD DUP1 SWAP2 SUB SWAP1 RETURN JUMPDEST PUSH1 0x60 PUSH1 0x4 DUP1 SLOAD PUSH2 0x4F1 SWAP1 PUSH2 0x2F80 JUMP JUMPDEST DUP1 PUSH1 0x1F ADD PUSH1 0x20 DUP1 SWAP2 DIV MUL PUSH1 0x20 ADD PUSH1 0x40 MLOAD SWAP1 DUP2 ADD PUSH1 0x40 MSTORE DUP1 SWAP3 SWAP2 SWAP1 DUP2 DUP2 MSTORE PUSH1 0x20 ADD DUP3 DUP1 SLOAD PUSH2 0x51D SWAP1 PUSH2 0x2F80 JUMP JUMPDEST DUP1 ISZERO PUSH2 0x568 JUMPI DUP1 PUSH1 0x1F LT PUSH2 0x53F JUMPI PUSH2 0x100 DUP1 DUP4 SLOAD DIV MUL DUP4 MSTORE SWAP2 PUSH1 0x20 ADD SWAP2 PUSH2 0x568 JUMP JUMPDEST DUP3 ADD SWAP2 SWAP1 PUSH0 MSTORE PUSH1 0x20 PUSH0 KECCAK256 SWAP1 JUMPDEST DUP2 SLOAD DUP2 MSTORE SWAP1 PUSH1 0x1 ADD SWAP1 PUSH1 0x20 ADD DUP1 DUP4 GT PUSH2 0x54B JUMPI DUP3 SWAP1 SUB PUSH1 0x1F AND DUP3 ADD SWAP2 JUMPDEST POP POP POP POP POP SWAP1 POP SWAP1 JUMP JUMPDEST PUSH0 PUSH2 0x57C DUP3 PUSH2 0xAD6 JUMP JUMPDEST PUSH2 0x5BB JUMPI PUSH1 0x40 MLOAD PUSH32 0x8C379A000000000000000000000000000000000000000000000000000000000 DUP2 MSTORE PUSH1 0x4 ADD PUSH2 0x5B2 SWAP1 PUSH2 0x2FFA JUMP JUMPDEST PUSH1 0x40 MLOAD DUP1 SWAP2 SUB SWAP1 REVERT JUMPDEST PUSH1 0x2 PUSH0 DUP4 DUP2 MSTORE PUSH1 0x20 ADD SWAP1 DUP2 MSTORE PUSH1 0x20 ADD PUSH0 KECCAK256 PUSH0 SWAP1 SLOAD SWAP1 PUSH2 0x100 EXP SWAP1 DIV PUSH20 0xFFFFFFFFFFFFFFFFFFFFFFFFFFFFFFFFFFFFFFFF AND SWAP1 POP SWAP2 SWAP1 POP JUMP JUMPDEST PUSH0 PUSH2 0x5FD DUP3 PUSH2 0x1370 JUMP JUMPDEST SWAP1 POP DUP1 PUSH20 0xFFFFFFFFFFFFFFFFFFFFFFFFFFFFFFFFFFFFFFFF AND DUP4 PUSH20 0xFFFFFFFFFFFFFFFFFFFFFFFFFFFFFFFFFFFFFFFF AND SUB PUSH2 0x66D JUMPI PUSH1 0x40 MLOAD PUSH32 0x8C379A000000000000000000000000000000000000000000000000000000000 DUP2 MSTORE PUSH1 0x4 ADD PUSH2 0x664 SWAP1 PUSH2 0x3062 JUMP JUMPDEST PUSH1 0x40 MLOAD DUP1 SWAP2 SUB SWAP1 REVERT JUMPDEST DUP1 PUSH20 0xFFFFFFFFFFFFFFFFFFFFFFFFFFFFFFFFFFFFFFFF AND CALLER PUSH20 0xFFFFFFFFFFFFFFFFFFFFFFFFFFFFFFFFFFFFFFFF AND EQ DUP1 PUSH2 0x6AD JUMPI POP PUSH2 0x6AC DUP2 CALLER PUSH2 0x22B9 JUMP JUMPDEST JUMPDEST PUSH2 0x6EC JUMPI PUSH1 0x40 MLOAD PUSH32 0x8C379A000000000000000000000000000000000000000000000000000000000 DUP2 MSTORE PUSH1 0x4 ADD PUSH2 0x6E3 SWAP1 PUSH2 0x30F0 JUMP JUMPDEST PUSH1 0x40 MLOAD DUP1 SWAP2 SUB SWAP1 REVERT JUMPDEST DUP3 PUSH1 0x2 PUSH0 DUP5 DUP2 MSTORE PUSH1 0x20 ADD SWAP1 DUP2 MSTORE PUSH1 0x20 ADD PUSH0 KECCAK256 PUSH0 PUSH2 0x100 EXP DUP2 SLOAD DUP2 PUSH20 0xFFFFFFFFFFFFFFFFFFFFFFFFFFFFFFFFFFFFFFFF MUL NOT AND SWAP1 DUP4 PUSH20 0xFFFFFFFFFFFFFFFFFFFFFFFFFFFFFFFFFFFFFFFF AND MUL OR SWAP1 SSTORE POP DUP2 DUP4 PUSH20 0xFFFFFFFFFFFFFFFFFFFFFFFFFFFFFFFFFFFFFFFF AND DUP3 PUSH20 0xFFFFFFFFFFFFFFFFFFFFFFFFFFFFFFFFFFFFFFFF AND PUSH32 0x8C5BE1E5EBEC7D5BD14F71427D1E84F3DD0314C0F7B2291E5B200AC8C7C3B925 PUSH1 0x40 MLOAD PUSH1 0x40 MLOAD DUP1 SWAP2 SUB SWAP1 LOG4 POP POP POP JUMP JUMPDEST PUSH2 0x7A5 CALLER DUP3 PUSH2 0x2347 JUMP JUMPDEST PUSH2 0x7E4 JUMPI PUSH1 0x40 MLOAD PUSH32 0x8C379A000000000000000000000000000000000000000000000000000000000 DUP2 MSTORE PUSH1 0x4 ADD PUSH2 0x7DB SWAP1 PUSH2 0x3158 JUMP JUMPDEST PUSH1 0x40 MLOAD DUP1 SWAP2 SUB SWAP1 REVERT JUMPDEST PUSH2 0x7EF DUP4 DUP4 DUP4 PUSH2 0x2423 JUMP JUMPDEST POP POP POP JUMP JUMPDEST PUSH2 0x7FC PUSH2 0x271B JUMP JUMPDEST PUSH2 0x805 DUP3 PUSH2 0xAD6 JUMP JUMPDEST PUSH2 0x844 JUMPI PUSH1 0x40 MLOAD PUSH32 0x8C379A000000000000000000000000000000000000000000000000000000000 DUP2 MSTORE PUSH1 0x4 ADD PUSH2 0x83B SWAP1 PUSH2 0x2FFA JUMP JUMPDEST PUSH1 0x40 MLOAD DUP1 SWAP2 SUB SWAP1 REVERT JUMPDEST PUSH1 0x8 PUSH0 DUP4 DUP2 MSTORE PUSH1 0x20 ADD SWAP1 DUP2 MSTORE PUSH1 0x20 ADD PUSH0 KECCAK256 PUSH1 0x40 MLOAD DUP1 PUSH2 0x140 ADD PUSH1 0x40 MSTORE SWAP1 DUP2 PUSH0 DUP3 ADD SLOAD DUP2 MSTORE PUSH1 0x20 ADD PUSH1 0x1 DUP3 ADD PUSH0 SWAP1 SLOAD SWAP1 PUSH2 0x100 EXP SWAP1 DIV PUSH20 0xFFFFFFFFFFFFFFFFFFFFFFFFFFFFFFFFFFFFFFFF AND PUSH20 0xFFFFFFFFFFFFFFFFFFFFFFFFFFFFFFFFFFFFFFFF AND PUSH20 0xFFFFFFFFFFFFFFFFFFFFFFFFFFFFFFFFFFFFFFFF AND DUP2 MSTORE PUSH1 0x20 ADD PUSH1 0x2 DUP3 ADD SLOAD DUP2 MSTORE PUSH1 0x20 ADD PUSH1 0x3 DUP3 ADD SLOAD DUP2 MSTORE PUSH1 0x20 ADD PUSH1 0x4 DUP3 ADD SLOAD DUP2 MSTORE PUSH1 0x20 ADD PUSH1 0x5 DUP3 ADD PUSH0 SWAP1 SLOAD SWAP1 PUSH2 0x100 EXP SWAP1 DIV PUSH1 0xFF AND ISZERO ISZERO ISZERO ISZERO DUP2 MSTORE PUSH1 0x20 ADD PUSH1 0x6 DUP3 ADD SLOAD DUP2 MSTORE PUSH1 0x20 ADD PUSH1 0x7 DUP3 ADD SLOAD DUP2 MSTORE PUSH1 0x20 ADD PUSH1 0x8 DUP3 ADD SLOAD DUP2 MSTORE PUSH1 0x20 ADD PUSH1 0x9 DUP3 ADD SLOAD DUP2 MSTORE POP POP SWAP1 POP SWAP2 SWAP1 POP JUMP JUMPDEST PUSH2 0x92E PUSH2 0x277C JUMP JUMPDEST PUSH2 0x937 DUP3 PUSH2 0xAD6 JUMP JUMPDEST PUSH2 0x976 JUMPI PUSH1 0x40 MLOAD PUSH32 0x8C379A000000000000000000000000000000000000000000000000000000000 DUP2 MSTORE PUSH1 0x4 ADD PUSH2 0x96D SWAP1 PUSH2 0x2FFA JUMP JUMPDEST PUSH1 0x40 MLOAD DUP1 SWAP2 SUB SWAP1 REVERT JUMPDEST PUSH1 0x7 PUSH0 DUP4 DUP2 MSTORE PUSH1 0x20 ADD SWAP1 DUP2 MSTORE PUSH1 0x20 ADD PUSH0 KECCAK256 PUSH1 0x40 MLOAD DUP1 PUSH1 0xA0 ADD PUSH1 0x40 MSTORE SWAP1 DUP2 PUSH0 DUP3 ADD DUP1 SLOAD PUSH2 0x9A1 SWAP1 PUSH2 0x2F80 JUMP JUMPDEST DUP1 PUSH1 0x1F ADD PUSH1 0x20 DUP1 SWAP2 DIV MUL PUSH1 0x20 ADD PUSH1 0x40 MLOAD SWAP1 DUP2 ADD PUSH1 0x40 MSTORE DUP1 SWAP3 SWAP2 SWAP1 DUP2 DUP2 MSTORE PUSH1 0x20 ADD DUP3 DUP1 SLOAD PUSH2 0x9CD SWAP1 PUSH2 0x2F80 JUMP JUMPDEST DUP1 ISZERO PUSH2 0xA18 JUMPI DUP1 PUSH1 0x1F LT PUSH2 0x9EF JUMPI PUSH2 0x100 DUP1 DUP4 SLOAD DIV MUL DUP4 MSTORE SWAP2 PUSH1 0x20 ADD SWAP2 PUSH2 0xA18 JUMP JUMPDEST DUP3 ADD SWAP2 SWAP1 PUSH0 MSTORE PUSH1 0x20 PUSH0 KECCAK256 SWAP1 JUMPDEST DUP2 SLOAD DUP2 MSTORE SWAP1 PUSH1 0x1 ADD SWAP1 PUSH1 0x20 ADD DUP1 DUP4 GT PUSH2 0x9FB JUMPI DUP3 SWAP1 SUB PUSH1 0x1F AND DUP3 ADD SWAP2 JUMPDEST POP POP POP POP POP DUP2 MSTORE PUSH1 0x20 ADD PUSH1 0x1 DUP3 ADD DUP1 SLOAD PUSH2 0xA31 SWAP1 PUSH2 0x2F80 JUMP JUMPDEST DUP1 PUSH1 0x1F ADD PUSH1 0x20 DUP1 SWAP2 DIV MUL PUSH1 0x20 ADD PUSH1 0x40 MLOAD SWAP1 DUP2 ADD PUSH1 0x40 MSTORE DUP1 SWAP3 SWAP2 SWAP1 DUP2 DUP2 MSTORE PUSH1 0x20 ADD DUP3 DUP1 SLOAD PUSH2 0xA5D SWAP1 PUSH2 0x2F80 JUMP JUMPDEST DUP1 ISZERO PUSH2 0xAA8 JUMPI DUP1 PUSH1 0x1F LT PUSH2 0xA7F JUMPI PUSH2 0x100 DUP1 DUP4 SLOAD DIV MUL DUP4 MSTORE SWAP2 PUSH1 0x20 ADD SWAP2 PUSH2 0xAA8 JUMP JUMPDEST DUP3 ADD SWAP2 SWAP1 PUSH0 MSTORE PUSH1 0x20 PUSH0 KECCAK256 SWAP1 JUMPDEST DUP2 SLOAD DUP2 MSTORE SWAP1 PUSH1 0x1 ADD SWAP1 PUSH1 0x20 ADD DUP1 DUP4 GT PUSH2 0xA8B JUMPI DUP3 SWAP1 SUB PUSH1 0x1F AND DUP3 ADD SWAP2 JUMPDEST POP POP POP POP POP DUP2 MSTORE PUSH1 0x20 ADD PUSH1 0x2 DUP3 ADD SLOAD DUP2 MSTORE PUSH1 0x20 ADD PUSH1 0x3 DUP3 ADD SLOAD DUP2 MSTORE PUSH1 0x20 ADD PUSH1 0x4 DUP3 ADD SLOAD DUP2 MSTORE POP POP SWAP1 POP SWAP2 SWAP1 POP JUMP JUMPDEST PUSH0 DUP1 PUSH20 0xFFFFFFFFFFFFFFFFFFFFFFFFFFFFFFFFFFFFFFFF AND PUSH0 DUP1 DUP5 DUP2 MSTORE PUSH1 0x20 ADD SWAP1 DUP2 MSTORE PUSH1 0x20 ADD PUSH0 KECCAK256 PUSH0 SWAP1 SLOAD SWAP1 PUSH2 0x100 EXP SWAP1 DIV PUSH20 0xFFFFFFFFFFFFFFFFFFFFFFFFFFFFFFFFFFFFFFFF AND PUSH20 0xFFFFFFFFFFFFFFFFFFFFFFFFFFFFFFFFFFFFFFFF AND EQ ISZERO SWAP1 POP SWAP2 SWAP1 POP JUMP JUMPDEST PUSH2 0xB46 DUP5 PUSH2 0xAD6 JUMP JUMPDEST PUSH2 0xB85 JUMPI PUSH1 0x40 MLOAD PUSH32 0x8C379A000000000000000000000000000000000000000000000000000000000 DUP2 MSTORE PUSH1 0x4 ADD PUSH2 0xB7C SWAP1 PUSH2 0x2FFA JUMP JUMPDEST PUSH1 0x40 MLOAD DUP1 SWAP2 SUB SWAP1 REVERT JUMPDEST PUSH0 PUSH20 0xFFFFFFFFFFFFFFFFFFFFFFFFFFFFFFFFFFFFFFFF AND PUSH1 0x8 PUSH0 DUP7 DUP2 MSTORE PUSH1 0x20 ADD SWAP1 DUP2 MSTORE PUSH1 0x20 ADD PUSH0 KECCAK256 PUSH1 0x1 ADD PUSH0 SWAP1 SLOAD SWAP1 PUSH2 0x100 EXP SWAP1 DIV PUSH20 0xFFFFFFFFFFFFFFFFFFFFFFFFFFFFFFFFFFFFFFFF AND PUSH20 0xFFFFFFFFFFFFFFFFFFFFFFFFFFFFFFFFFFFFFFFF AND EQ PUSH2 0xC26 JUMPI PUSH1 0x40 MLOAD PUSH32 0x8C379A000000000000000000000000000000000000000000000000000000000 DUP2 MSTORE PUSH1 0x4 ADD PUSH2 0xC1D SWAP1 PUSH2 0x31E6 JUMP JUMPDEST PUSH1 0x40 MLOAD DUP1 SWAP2 SUB SWAP1 REVERT JUMPDEST PUSH2 0x2710 DUP3 EQ DUP1 PUSH2 0xC37 JUMPI POP PUSH2 0x3A98 DUP3 EQ JUMPDEST DUP1 PUSH2 0xC43 JUMPI POP PUSH2 0x4E20 DUP3 EQ JUMPDEST PUSH2 0xC82 JUMPI PUSH1 0x40 MLOAD PUSH32 0x8C379A000000000000000000000000000000000000000000000000000000000 DUP2 MSTORE PUSH1 0x4 ADD PUSH2 0xC79 SWAP1 PUSH2 0x324E JUMP JUMPDEST PUSH1 0x40 MLOAD DUP1 SWAP2 SUB SWAP1 REVERT JUMPDEST PUSH1 0xC DUP2 EQ DUP1 PUSH2 0xC91 JUMPI POP PUSH1 0x18 DUP2 EQ JUMPDEST DUP1 PUSH2 0xC9C JUMPI POP PUSH1 0x24 DUP2 EQ JUMPDEST PUSH2 0xCDB JUMPI PUSH1 0x40 MLOAD PUSH32 0x8C379A000000000000000000000000000000000000000000000000000000000 DUP2 MSTORE PUSH1 0x4 ADD PUSH2 0xCD2 SWAP1 PUSH2 0x32B6 JUMP JUMPDEST PUSH1 0x40 MLOAD DUP1 SWAP2 SUB SWAP1 REVERT JUMPDEST PUSH0 PUSH2 0xCE8 DUP6 DUP6 DUP6 DUP6 PUSH2 0x14CF JUMP JUMPDEST SWAP1 POP PUSH0 PUSH1 0x4 DUP3 PUSH2 0xCF8 SWAP2 SWAP1 PUSH2 0x3301 JUMP JUMPDEST SWAP1 POP DUP1 CALLVALUE EQ PUSH2 0xD3C JUMPI PUSH1 0x40 MLOAD PUSH32 0x8C379A000000000000000000000000000000000000000000000000000000000 DUP2 MSTORE PUSH1 0x4 ADD PUSH2 0xD33 SWAP1 PUSH2 0x338C JUMP JUMPDEST PUSH1 0x40 MLOAD DUP1 SWAP2 SUB SWAP1 REVERT JUMPDEST PUSH1 0x40 MLOAD DUP1 PUSH2 0x140 ADD PUSH1 0x40 MSTORE DUP1 DUP8 DUP2 MSTORE PUSH1 0x20 ADD CALLER PUSH20 0xFFFFFFFFFFFFFFFFFFFFFFFFFFFFFFFFFFFFFFFF AND DUP2 MSTORE PUSH1 0x20 ADD DUP7 DUP2 MSTORE PUSH1 0x20 ADD DUP6 DUP2 MSTORE PUSH1 0x20 ADD DUP5 DUP2 MSTORE PUSH1 0x20 ADD PUSH0 ISZERO ISZERO DUP2 MSTORE PUSH1 0x20 ADD PUSH1 0x3 DUP5 PUSH2 0xD91 SWAP2 SWAP1 PUSH2 0x3301 JUMP JUMPDEST DUP2 MSTORE PUSH1 0x20 ADD TIMESTAMP DUP2 MSTORE PUSH1 0x20 ADD PUSH3 0x278D00 TIMESTAMP PUSH2 0xDAB SWAP2 SWAP1 PUSH2 0x33AA JUMP JUMPDEST DUP2 MSTORE PUSH1 0x20 ADD DUP4 DUP2 MSTORE POP PUSH1 0x8 PUSH0 DUP9 DUP2 MSTORE PUSH1 0x20 ADD SWAP1 DUP2 MSTORE PUSH1 0x20 ADD PUSH0 KECCAK256 PUSH0 DUP3 ADD MLOAD DUP2 PUSH0 ADD SSTORE PUSH1 0x20 DUP3 ADD MLOAD DUP2 PUSH1 0x1 ADD PUSH0 PUSH2 0x100 EXP DUP2 SLOAD DUP2 PUSH20 0xFFFFFFFFFFFFFFFFFFFFFFFFFFFFFFFFFFFFFFFF MUL NOT AND SWAP1 DUP4 PUSH20 0xFFFFFFFFFFFFFFFFFFFFFFFFFFFFFFFFFFFFFFFF AND MUL OR SWAP1 SSTORE POP PUSH1 0x40 DUP3 ADD MLOAD DUP2 PUSH1 0x2 ADD SSTORE PUSH1 0x60 DUP3 ADD MLOAD DUP2 PUSH1 0x3 ADD SSTORE PUSH1 0x80 DUP3 ADD MLOAD DUP2 PUSH1 0x4 ADD SSTORE PUSH1 0xA0 DUP3 ADD MLOAD DUP2 PUSH1 0x5 ADD PUSH0 PUSH2 0x100 EXP DUP2 SLOAD DUP2 PUSH1 0xFF MUL NOT AND SWAP1 DUP4 ISZERO ISZERO MUL OR SWAP1 SSTORE POP PUSH1 0xC0 DUP3 ADD MLOAD DUP2 PUSH1 0x6 ADD SSTORE PUSH1 0xE0 DUP3 ADD MLOAD DUP2 PUSH1 0x7 ADD SSTORE PUSH2 0x100 DUP3 ADD MLOAD DUP2 PUSH1 0x8 ADD SSTORE PUSH2 0x120 DUP3 ADD MLOAD DUP2 PUSH1 0x9 ADD SSTORE SWAP1 POP POP POP POP POP POP POP POP JUMP JUMPDEST PUSH1 0x9 PUSH0 SWAP1 SLOAD SWAP1 PUSH2 0x100 EXP SWAP1 DIV PUSH20 0xFFFFFFFFFFFFFFFFFFFFFFFFFFFFFFFFFFFFFFFF AND PUSH20 0xFFFFFFFFFFFFFFFFFFFFFFFFFFFFFFFFFFFFFFFF AND CALLER PUSH20 0xFFFFFFFFFFFFFFFFFFFFFFFFFFFFFFFFFFFFFFFF AND EQ PUSH2 0xF14 JUMPI PUSH1 0x40 MLOAD PUSH32 0x8C379A000000000000000000000000000000000000000000000000000000000 DUP2 MSTORE PUSH1 0x4 ADD PUSH2 0xF0B SWAP1 PUSH2 0x3427 JUMP JUMPDEST PUSH1 0x40 MLOAD DUP1 SWAP2 SUB SWAP1 REVERT JUMPDEST PUSH0 PUSH1 0x8 PUSH0 DUP4 DUP2 MSTORE PUSH1 0x20 ADD SWAP1 DUP2 MSTORE PUSH1 0x20 ADD PUSH0 KECCAK256 SWAP1 POP DUP1 PUSH1 0x5 ADD PUSH0 SWAP1 SLOAD SWAP1 PUSH2 0x100 EXP SWAP1 DIV PUSH1 0xFF AND PUSH2 0xF78 JUMPI PUSH1 0x40 MLOAD PUSH32 0x8C379A000000000000000000000000000000000000000000000000000000000 DUP2 MSTORE PUSH1 0x4 ADD PUSH2 0xF6F SWAP1 PUSH2 0x348F JUMP JUMPDEST PUSH1 0x40 MLOAD DUP1 SWAP2 SUB SWAP1 REVERT JUMPDEST PUSH3 0x69780 DUP2 PUSH1 0x8 ADD SLOAD PUSH2 0xF8B SWAP2 SWAP1 PUSH2 0x33AA JUMP JUMPDEST TIMESTAMP GT PUSH2 0xFCC JUMPI PUSH1 0x40 MLOAD PUSH32 0x8C379A000000000000000000000000000000000000000000000000000000000 DUP2 MSTORE PUSH1 0x4 ADD PUSH2 0xFC3 SWAP1 PUSH2 0x34F7 JUMP JUMPDEST PUSH1 0x40 MLOAD DUP1 SWAP2 SUB SWAP1 REVERT JUMPDEST PUSH2 0x101B DUP2 PUSH1 0x1 ADD PUSH0 SWAP1 SLOAD SWAP1 PUSH2 0x100 EXP SWAP1 DIV PUSH20 0xFFFFFFFFFFFFFFFFFFFFFFFFFFFFFFFFFFFFFFFF AND PUSH1 0x9 PUSH0 SWAP1 SLOAD SWAP1 PUSH2 0x100 EXP SWAP1 DIV PUSH20 0xFFFFFFFFFFFFFFFFFFFFFFFFFFFFFFFFFFFFFFFF AND DUP5 PUSH2 0x2423 JUMP JUMPDEST PUSH0 DUP2 PUSH1 0x5 ADD PUSH0 PUSH2 0x100 EXP DUP2 SLOAD DUP2 PUSH1 0xFF MUL NOT AND SWAP1 DUP4 ISZERO ISZERO MUL OR SWAP1 SSTORE POP PUSH0 DUP2 PUSH1 0x6 ADD DUP2 SWAP1 SSTORE POP POP POP JUMP JUMPDEST PUSH0 PUSH1 0x9 PUSH0 SWAP1 SLOAD SWAP1 PUSH2 0x100 EXP SWAP1 DIV PUSH20 0xFFFFFFFFFFFFFFFFFFFFFFFFFFFFFFFFFFFFFFFF AND PUSH20 0xFFFFFFFFFFFFFFFFFFFFFFFFFFFFFFFFFFFFFFFF AND CALLER PUSH20 0xFFFFFFFFFFFFFFFFFFFFFFFFFFFFFFFFFFFFFFFF AND EQ PUSH2 0x10D3 JUMPI PUSH1 0x40 MLOAD PUSH32 0x8C379A000000000000000000000000000000000000000000000000000000000 DUP2 MSTORE PUSH1 0x4 ADD PUSH2 0x10CA SWAP1 PUSH2 0x3427 JUMP JUMPDEST PUSH1 0x40 MLOAD DUP1 SWAP2 SUB SWAP1 REVERT JUMPDEST PUSH0 PUSH20 0xFFFFFFFFFFFFFFFFFFFFFFFFFFFFFFFFFFFFFFFF AND PUSH1 0x9 PUSH0 SWAP1 SLOAD SWAP1 PUSH2 0x100 EXP SWAP1 DIV PUSH20 0xFFFFFFFFFFFFFFFFFFFFFFFFFFFFFFFFFFFFFFFF AND PUSH20 0xFFFFFFFFFFFFFFFFFFFFFFFFFFFFFFFFFFFFFFFF AND SUB PUSH2 0x1162 JUMPI PUSH1 0x40 MLOAD PUSH32 0x8C379A000000000000000000000000000000000000000000000000000000000 DUP2 MSTORE PUSH1 0x4 ADD PUSH2 0x1159 SWAP1 PUSH2 0x355F JUMP JUMPDEST PUSH1 0x40 MLOAD DUP1 SWAP2 SUB SWAP1 REVERT JUMPDEST PUSH1 0x1 PUSH1 0x6 PUSH0 DUP3 DUP3 SLOAD PUSH2 0x1174 SWAP2 SWAP1 PUSH2 0x33AA JUMP JUMPDEST SWAP3 POP POP DUP2 SWAP1 SSTORE POP PUSH0 PUSH1 0x6 SLOAD SWAP1 POP PUSH1 0x1 DUP1 PUSH0 PUSH1 0x9 PUSH0 SWAP1 SLOAD SWAP1 PUSH2 0x100 EXP SWAP1 DIV PUSH20 0xFFFFFFFFFFFFFFFFFFFFFFFFFFFFFFFFFFFFFFFF AND PUSH20 0xFFFFFFFFFFFFFFFFFFFFFFFFFFFFFFFFFFFFFFFF AND PUSH20 0xFFFFFFFFFFFFFFFFFFFFFFFFFFFFFFFFFFFFFFFF AND DUP2 MSTORE PUSH1 0x20 ADD SWAP1 DUP2 MSTORE PUSH1 0x20 ADD PUSH0 KECCAK256 PUSH0 DUP3 DUP3 SLOAD PUSH2 0x11EE SWAP2 SWAP1 PUSH2 0x33AA JUMP JUMPDEST SWAP3 POP POP DUP2 SWAP1 SSTORE POP PUSH1 0x9 PUSH0 SWAP1 SLOAD SWAP1 PUSH2 0x100 EXP SWAP1 DIV PUSH20 0xFFFFFFFFFFFFFFFFFFFFFFFFFFFFFFFFFFFFFFFF AND PUSH0 DUP1 DUP4 DUP2 MSTORE PUSH1 0x20 ADD SWAP1 DUP2 MSTORE PUSH1 0x20 ADD PUSH0 KECCAK256 PUSH0 PUSH2 0x100 EXP DUP2 SLOAD DUP2 PUSH20 0xFFFFFFFFFFFFFFFFFFFFFFFFFFFFFFFFFFFFFFFF MUL NOT AND SWAP1 DUP4 PUSH20 0xFFFFFFFFFFFFFFFFFFFFFFFFFFFFFFFFFFFFFFFF AND MUL OR SWAP1 SSTORE POP PUSH1 0x40 MLOAD DUP1 PUSH1 0xA0 ADD PUSH1 0x40 MSTORE DUP1 DUP9 DUP2 MSTORE PUSH1 0x20 ADD DUP8 DUP2 MSTORE PUSH1 0x20 ADD DUP7 DUP2 MSTORE PUSH1 0x20 ADD DUP6 DUP2 MSTORE PUSH1 0x20 ADD DUP5 DUP2 MSTORE POP PUSH1 0x7 PUSH0 DUP4 DUP2 MSTORE PUSH1 0x20 ADD SWAP1 DUP2 MSTORE PUSH1 0x20 ADD PUSH0 KECCAK256 PUSH0 DUP3 ADD MLOAD DUP2 PUSH0 ADD SWAP1 DUP2 PUSH2 0x12AF SWAP2 SWAP1 PUSH2 0x371A JUMP JUMPDEST POP PUSH1 0x20 DUP3 ADD MLOAD DUP2 PUSH1 0x1 ADD SWAP1 DUP2 PUSH2 0x12C5 SWAP2 SWAP1 PUSH2 0x371A JUMP JUMPDEST POP PUSH1 0x40 DUP3 ADD MLOAD DUP2 PUSH1 0x2 ADD SSTORE PUSH1 0x60 DUP3 ADD MLOAD DUP2 PUSH1 0x3 ADD SSTORE PUSH1 0x80 DUP3 ADD MLOAD DUP2 PUSH1 0x4 ADD SSTORE SWAP1 POP POP DUP1 PUSH1 0x9 PUSH0 SWAP1 SLOAD SWAP1 PUSH2 0x100 EXP SWAP1 DIV PUSH20 0xFFFFFFFFFFFFFFFFFFFFFFFFFFFFFFFFFFFFFFFF AND PUSH20 0xFFFFFFFFFFFFFFFFFFFFFFFFFFFFFFFFFFFFFFFF AND PUSH0 PUSH20 0xFFFFFFFFFFFFFFFFFFFFFFFFFFFFFFFFFFFFFFFF AND PUSH32 0xDDF252AD1BE2C89B69C2B068FC378DAA952BA7F163C4A11628F55A4DF523B3EF PUSH1 0x40 MLOAD PUSH1 0x40 MLOAD DUP1 SWAP2 SUB SWAP1 LOG4 DUP1 SWAP2 POP POP SWAP6 SWAP5 POP POP POP POP POP JUMP JUMPDEST PUSH0 DUP1 PUSH0 DUP1 DUP5 DUP2 MSTORE PUSH1 0x20 ADD SWAP1 DUP2 MSTORE PUSH1 0x20 ADD PUSH0 KECCAK256 PUSH0 SWAP1 SLOAD SWAP1 PUSH2 0x100 EXP SWAP1 DIV PUSH20 0xFFFFFFFFFFFFFFFFFFFFFFFFFFFFFFFFFFFFFFFF AND SWAP1 POP PUSH0 PUSH20 0xFFFFFFFFFFFFFFFFFFFFFFFFFFFFFFFFFFFFFFFF AND DUP2 PUSH20 0xFFFFFFFFFFFFFFFFFFFFFFFFFFFFFFFFFFFFFFFF AND SUB PUSH2 0x1412 JUMPI PUSH1 0x40 MLOAD PUSH32 0x8C379A000000000000000000000000000000000000000000000000000000000 DUP2 MSTORE PUSH1 0x4 ADD PUSH2 0x1409 SWAP1 PUSH2 0x2FFA JUMP JUMPDEST PUSH1 0x40 MLOAD DUP1 SWAP2 SUB SWAP1 REVERT JUMPDEST DUP1 SWAP2 POP POP SWAP2 SWAP1 POP JUMP JUMPDEST PUSH0 DUP1 PUSH20 0xFFFFFFFFFFFFFFFFFFFFFFFFFFFFFFFFFFFFFFFF AND DUP3 PUSH20 0xFFFFFFFFFFFFFFFFFFFFFFFFFFFFFFFFFFFFFFFF AND SUB PUSH2 0x148A JUMPI PUSH1 0x40 MLOAD PUSH32 0x8C379A000000000000000000000000000000000000000000000000000000000 DUP2 MSTORE PUSH1 0x4 ADD PUSH2 0x1481 SWAP1 PUSH2 0x3833 JUMP JUMPDEST PUSH1 0x40 MLOAD DUP1 SWAP2 SUB SWAP1 REVERT JUMPDEST PUSH1 0x1 PUSH0 DUP4 PUSH20 0xFFFFFFFFFFFFFFFFFFFFFFFFFFFFFFFFFFFFFFFF AND PUSH20 0xFFFFFFFFFFFFFFFFFFFFFFFFFFFFFFFFFFFFFFFF AND DUP2 MSTORE PUSH1 0x20 ADD SWAP1 DUP2 MSTORE PUSH1 0x20 ADD PUSH0 KECCAK256 SLOAD SWAP1 POP SWAP2 SWAP1 POP JUMP JUMPDEST PUSH0 PUSH2 0x14D9 DUP6 PUSH2 0xAD6 JUMP JUMPDEST PUSH2 0x1518 JUMPI PUSH1 0x40 MLOAD PUSH32 0x8C379A000000000000000000000000000000000000000000000000000000000 DUP2 MSTORE PUSH1 0x4 ADD PUSH2 0x150F SWAP1 PUSH2 0x2FFA JUMP JUMPDEST PUSH1 0x40 MLOAD DUP1 SWAP2 SUB SWAP1 REVERT JUMPDEST PUSH0 PUSH1 0x7 PUSH0 DUP8 DUP2 MSTORE PUSH1 0x20 ADD SWAP1 DUP2 MSTORE PUSH1 0x20 ADD PUSH0 KECCAK256 PUSH1 0x40 MLOAD DUP1 PUSH1 0xA0 ADD PUSH1 0x40 MSTORE SWAP1 DUP2 PUSH0 DUP3 ADD DUP1 SLOAD PUSH2 0x1544 SWAP1 PUSH2 0x2F80 JUMP JUMPDEST DUP1 PUSH1 0x1F ADD PUSH1 0x20 DUP1 SWAP2 DIV MUL PUSH1 0x20 ADD PUSH1 0x40 MLOAD SWAP1 DUP2 ADD PUSH1 0x40 MSTORE DUP1 SWAP3 SWAP2 SWAP1 DUP2 DUP2 MSTORE PUSH1 0x20 ADD DUP3 DUP1 SLOAD PUSH2 0x1570 SWAP1 PUSH2 0x2F80 JUMP JUMPDEST DUP1 ISZERO PUSH2 0x15BB JUMPI DUP1 PUSH1 0x1F LT PUSH2 0x1592 JUMPI PUSH2 0x100 DUP1 DUP4 SLOAD DIV MUL DUP4 MSTORE SWAP2 PUSH1 0x20 ADD SWAP2 PUSH2 0x15BB JUMP JUMPDEST DUP3 ADD SWAP2 SWAP1 PUSH0 MSTORE PUSH1 0x20 PUSH0 KECCAK256 SWAP1 JUMPDEST DUP2 SLOAD DUP2 MSTORE SWAP1 PUSH1 0x1 ADD SWAP1 PUSH1 0x20 ADD DUP1 DUP4 GT PUSH2 0x159E JUMPI DUP3 SWAP1 SUB PUSH1 0x1F AND DUP3 ADD SWAP2 JUMPDEST POP POP POP POP POP DUP2 MSTORE PUSH1 0x20 ADD PUSH1 0x1 DUP3 ADD DUP1 SLOAD PUSH2 0x15D4 SWAP1 PUSH2 0x2F80 JUMP JUMPDEST DUP1 PUSH1 0x1F ADD PUSH1 0x20 DUP1 SWAP2 DIV MUL PUSH1 0x20 ADD PUSH1 0x40 MLOAD SWAP1 DUP2 ADD PUSH1 0x40 MSTORE DUP1 SWAP3 SWAP2 SWAP1 DUP2 DUP2 MSTORE PUSH1 0x20 ADD DUP3 DUP1 SLOAD PUSH2 0x1600 SWAP1 PUSH2 0x2F80 JUMP JUMPDEST DUP1 ISZERO PUSH2 0x164B JUMPI DUP1 PUSH1 0x1F LT PUSH2 0x1622 JUMPI PUSH2 0x100 DUP1 DUP4 SLOAD DIV MUL DUP4 MSTORE SWAP2 PUSH1 0x20 ADD SWAP2 PUSH2 0x164B JUMP JUMPDEST DUP3 ADD SWAP2 SWAP1 PUSH0 MSTORE PUSH1 0x20 PUSH0 KECCAK256 SWAP1 JUMPDEST DUP2 SLOAD DUP2 MSTORE SWAP1 PUSH1 0x1 ADD SWAP1 PUSH1 0x20 ADD DUP1 DUP4 GT PUSH2 0x162E JUMPI DUP3 SWAP1 SUB PUSH1 0x1F AND DUP3 ADD SWAP2 JUMPDEST POP POP POP POP POP DUP2 MSTORE PUSH1 0x20 ADD PUSH1 0x2 DUP3 ADD SLOAD DUP2 MSTORE PUSH1 0x20 ADD PUSH1 0x3 DUP3 ADD SLOAD DUP2 MSTORE PUSH1 0x20 ADD PUSH1 0x4 DUP3 ADD SLOAD DUP2 MSTORE POP POP SWAP1 POP PUSH0 PUSH1 0x64 DUP3 PUSH1 0x60 ADD MLOAD PUSH2 0x1686 SWAP2 SWAP1 PUSH2 0x387E JUMP JUMPDEST SWAP1 POP PUSH0 DUP1 PUSH1 0x64 DUP4 DUP10 PUSH2 0x1698 SWAP2 SWAP1 PUSH2 0x3301 JUMP JUMPDEST PUSH2 0x16A2 SWAP2 SWAP1 PUSH2 0x387E JUMP JUMPDEST SWAP1 POP PUSH0 PUSH1 0x24 DUP8 LT PUSH2 0x16CD JUMPI PUSH1 0x64 PUSH1 0x5 DUP6 PUSH2 0x16BC SWAP2 SWAP1 PUSH2 0x3301 JUMP JUMPDEST PUSH2 0x16C6 SWAP2 SWAP1 PUSH2 0x387E JUMP JUMPDEST SWAP1 POP PUSH2 0x16F2 JUMP JUMPDEST PUSH1 0x18 DUP8 LT PUSH2 0x16F1 JUMPI PUSH1 0x64 PUSH1 0x3 DUP6 PUSH2 0x16E4 SWAP2 SWAP1 PUSH2 0x3301 JUMP JUMPDEST PUSH2 0x16EE SWAP2 SWAP1 PUSH2 0x387E JUMP JUMPDEST SWAP1 POP JUMPDEST JUMPDEST PUSH0 DUP2 DUP4 DUP6 DUP8 PUSH2 0x1701 SWAP2 SWAP1 PUSH2 0x33AA JUMP JUMPDEST PUSH2 0x170B SWAP2 SWAP1 PUSH2 0x38AE JUMP JUMPDEST PUSH2 0x1715 SWAP2 SWAP1 PUSH2 0x38AE JUMP JUMPDEST SWAP1 POP DUP1 SWAP7 POP POP POP POP POP POP POP SWAP5 SWAP4 POP POP POP POP JUMP JUMPDEST PUSH1 0x60 PUSH1 0x5 DUP1 SLOAD PUSH2 0x1737 SWAP1 PUSH2 0x2F80 JUMP JUMPDEST DUP1 PUSH1 0x1F ADD PUSH1 0x20 DUP1 SWAP2 DIV MUL PUSH1 0x20 ADD PUSH1 0x40 MLOAD SWAP1 DUP2 ADD PUSH1 0x40 MSTORE DUP1 SWAP3 SWAP2 SWAP1 DUP2 DUP2 MSTORE PUSH1 0x20 ADD DUP3 DUP1 SLOAD PUSH2 0x1763 SWAP1 PUSH2 0x2F80 JUMP JUMPDEST DUP1 ISZERO PUSH2 0x17AE JUMPI DUP1 PUSH1 0x1F LT PUSH2 0x1785 JUMPI PUSH2 0x100 DUP1 DUP4 SLOAD DIV MUL DUP4 MSTORE SWAP2 PUSH1 0x20 ADD SWAP2 PUSH2 0x17AE JUMP JUMPDEST DUP3 ADD SWAP2 SWAP1 PUSH0 MSTORE PUSH1 0x20 PUSH0 KECCAK256 SWAP1 JUMPDEST DUP2 SLOAD DUP2 MSTORE SWAP1 PUSH1 0x1 ADD SWAP1 PUSH1 0x20 ADD DUP1 DUP4 GT PUSH2 0x1791 JUMPI DUP3 SWAP1 SUB PUSH1 0x1F AND DUP3 ADD SWAP2 JUMPDEST POP POP POP POP POP SWAP1 POP SWAP1 JUMP JUMPDEST CALLER PUSH20 0xFFFFFFFFFFFFFFFFFFFFFFFFFFFFFFFFFFFFFFFF AND DUP3 PUSH20 0xFFFFFFFFFFFFFFFFFFFFFFFFFFFFFFFFFFFFFFFF AND SUB PUSH2 0x1826 JUMPI PUSH1 0x40 MLOAD PUSH32 0x8C379A000000000000000000000000000000000000000000000000000000000 DUP2 MSTORE PUSH1 0x4 ADD PUSH2 0x181D SWAP1 PUSH2 0x392B JUMP JUMPDEST PUSH1 0x40 MLOAD DUP1 SWAP2 SUB SWAP1 REVERT JUMPDEST DUP1 PUSH1 0x3 PUSH0 CALLER PUSH20 0xFFFFFFFFFFFFFFFFFFFFFFFFFFFFFFFFFFFFFFFF AND PUSH20 0xFFFFFFFFFFFFFFFFFFFFFFFFFFFFFFFFFFFFFFFF AND DUP2 MSTORE PUSH1 0x20 ADD SWAP1 DUP2 MSTORE PUSH1 0x20 ADD PUSH0 KECCAK256 PUSH0 DUP5 PUSH20 0xFFFFFFFFFFFFFFFFFFFFFFFFFFFFFFFFFFFFFFFF AND PUSH20 0xFFFFFFFFFFFFFFFFFFFFFFFFFFFFFFFFFFFFFFFF AND DUP2 MSTORE PUSH1 0x20 ADD SWAP1 DUP2 MSTORE PUSH1 0x20 ADD PUSH0 KECCAK256 PUSH0 PUSH2 0x100 EXP DUP2 SLOAD DUP2 PUSH1 0xFF MUL NOT AND SWAP1 DUP4 ISZERO ISZERO MUL OR SWAP1 SSTORE POP DUP2 PUSH20 0xFFFFFFFFFFFFFFFFFFFFFFFFFFFFFFFFFFFFFFFF AND CALLER PUSH20 0xFFFFFFFFFFFFFFFFFFFFFFFFFFFFFFFFFFFFFFFF AND PUSH32 0x17307EAB39AB6107E8899845AD3D59BD9653F200F220920489CA2B5937696C31 DUP4 PUSH1 0x40 MLOAD PUSH2 0x1912 SWAP2 SWAP1 PUSH2 0x2BC4 JUMP JUMPDEST PUSH1 0x40 MLOAD DUP1 SWAP2 SUB SWAP1 LOG3 POP POP JUMP JUMPDEST PUSH1 0x9 PUSH0 SWAP1 SLOAD SWAP1 PUSH2 0x100 EXP SWAP1 DIV PUSH20 0xFFFFFFFFFFFFFFFFFFFFFFFFFFFFFFFFFFFFFFFF AND PUSH20 0xFFFFFFFFFFFFFFFFFFFFFFFFFFFFFFFFFFFFFFFF AND CALLER PUSH20 0xFFFFFFFFFFFFFFFFFFFFFFFFFFFFFFFFFFFFFFFF AND EQ PUSH2 0x19AD JUMPI PUSH1 0x40 MLOAD PUSH32 0x8C379A000000000000000000000000000000000000000000000000000000000 DUP2 MSTORE PUSH1 0x4 ADD PUSH2 0x19A4 SWAP1 PUSH2 0x3427 JUMP JUMPDEST PUSH1 0x40 MLOAD DUP1 SWAP2 SUB SWAP1 REVERT JUMPDEST PUSH0 PUSH1 0x8 PUSH0 DUP4 DUP2 MSTORE PUSH1 0x20 ADD SWAP1 DUP2 MSTORE PUSH1 0x20 ADD PUSH0 KECCAK256 SWAP1 POP PUSH0 PUSH20 0xFFFFFFFFFFFFFFFFFFFFFFFFFFFFFFFFFFFFFFFF AND DUP2 PUSH1 0x1 ADD PUSH0 SWAP1 SLOAD SWAP1 PUSH2 0x100 EXP SWAP1 DIV PUSH20 0xFFFFFFFFFFFFFFFFFFFFFFFFFFFFFFFFFFFFFFFF AND PUSH20 0xFFFFFFFFFFFFFFFFFFFFFFFFFFFFFFFFFFFFFFFF AND SUB PUSH2 0x1A52 JUMPI PUSH1 0x40 MLOAD PUSH32 0x8C379A000000000000000000000000000000000000000000000000000000000 DUP2 MSTORE PUSH1 0x4 ADD PUSH2 0x1A49 SWAP1 PUSH2 0x3993 JUMP JUMPDEST PUSH1 0x40 MLOAD DUP1 SWAP2 SUB SWAP1 REVERT JUMPDEST DUP1 PUSH1 0x5 ADD PUSH0 SWAP1 SLOAD SWAP1 PUSH2 0x100 EXP SWAP1 DIV PUSH1 0xFF AND ISZERO PUSH2 0x1AA3 JUMPI PUSH1 0x40 MLOAD PUSH32 0x8C379A000000000000000000000000000000000000000000000000000000000 DUP2 MSTORE PUSH1 0x4 ADD PUSH2 0x1A9A SWAP1 PUSH2 0x39FB JUMP JUMPDEST PUSH1 0x40 MLOAD DUP1 SWAP2 SUB SWAP1 REVERT JUMPDEST PUSH0 DUP2 PUSH1 0x9 ADD SLOAD SWAP1 POP PUSH0 DUP2 SWAP1 POP DUP2 DUP4 PUSH1 0x6 ADD SLOAD PUSH2 0x1ABF SWAP2 SWAP1 PUSH2 0x38AE JUMP JUMPDEST DUP4 PUSH1 0x6 ADD DUP2 SWAP1 SSTORE POP PUSH0 PUSH1 0x9 PUSH0 SWAP1 SLOAD SWAP1 PUSH2 0x100 EXP SWAP1 DIV PUSH20 0xFFFFFFFFFFFFFFFFFFFFFFFFFFFFFFFFFFFFFFFF AND PUSH20 0xFFFFFFFFFFFFFFFFFFFFFFFFFFFFFFFFFFFFFFFF AND DUP3 PUSH1 0x40 MLOAD PUSH2 0x1B0D SWAP1 PUSH2 0x3A46 JUMP JUMPDEST PUSH0 PUSH1 0x40 MLOAD DUP1 DUP4 SUB DUP2 DUP6 DUP8 GAS CALL SWAP3 POP POP POP RETURNDATASIZE DUP1 PUSH0 DUP2 EQ PUSH2 0x1B47 JUMPI PUSH1 0x40 MLOAD SWAP2 POP PUSH1 0x1F NOT PUSH1 0x3F RETURNDATASIZE ADD AND DUP3 ADD PUSH1 0x40 MSTORE RETURNDATASIZE DUP3 MSTORE RETURNDATASIZE PUSH0 PUSH1 0x20 DUP5 ADD RETURNDATACOPY PUSH2 0x1B4C JUMP JUMPDEST PUSH1 0x60 SWAP2 POP JUMPDEST POP POP SWAP1 POP DUP1 PUSH2 0x1B90 JUMPI PUSH1 0x40 MLOAD PUSH32 0x8C379A000000000000000000000000000000000000000000000000000000000 DUP2 MSTORE PUSH1 0x4 ADD PUSH2 0x1B87 SWAP1 PUSH2 0x3AA4 JUMP JUMPDEST PUSH1 0x40 MLOAD DUP1 SWAP2 SUB SWAP1 REVERT JUMPDEST PUSH1 0x1 DUP5 PUSH1 0x5 ADD PUSH0 PUSH2 0x100 EXP DUP2 SLOAD DUP2 PUSH1 0xFF MUL NOT AND SWAP1 DUP4 ISZERO ISZERO MUL OR SWAP1 SSTORE POP PUSH2 0x1BFB PUSH1 0x9 PUSH0 SWAP1 SLOAD SWAP1 PUSH2 0x100 EXP SWAP1 DIV PUSH20 0xFFFFFFFFFFFFFFFFFFFFFFFFFFFFFFFFFFFFFFFF AND DUP6 PUSH1 0x1 ADD PUSH0 SWAP1 SLOAD SWAP1 PUSH2 0x100 EXP SWAP1 DIV PUSH20 0xFFFFFFFFFFFFFFFFFFFFFFFFFFFFFFFFFFFFFFFF AND DUP8 PUSH2 0x2423 JUMP JUMPDEST POP POP POP POP POP JUMP JUMPDEST PUSH0 PUSH1 0x8 PUSH0 DUP4 DUP2 MSTORE PUSH1 0x20 ADD SWAP1 DUP2 MSTORE PUSH1 0x20 ADD PUSH0 KECCAK256 SWAP1 POP CALLER PUSH20 0xFFFFFFFFFFFFFFFFFFFFFFFFFFFFFFFFFFFFFFFF AND DUP2 PUSH1 0x1 ADD PUSH0 SWAP1 SLOAD SWAP1 PUSH2 0x100 EXP SWAP1 DIV PUSH20 0xFFFFFFFFFFFFFFFFFFFFFFFFFFFFFFFFFFFFFFFF AND PUSH20 0xFFFFFFFFFFFFFFFFFFFFFFFFFFFFFFFFFFFFFFFF AND EQ PUSH2 0x1CA7 JUMPI PUSH1 0x40 MLOAD PUSH32 0x8C379A000000000000000000000000000000000000000000000000000000000 DUP2 MSTORE PUSH1 0x4 ADD PUSH2 0x1C9E SWAP1 PUSH2 0x3B0C JUMP JUMPDEST PUSH1 0x40 MLOAD DUP1 SWAP2 SUB SWAP1 REVERT JUMPDEST DUP1 PUSH1 0x5 ADD PUSH0 SWAP1 SLOAD SWAP1 PUSH2 0x100 EXP SWAP1 DIV PUSH1 0xFF AND ISZERO PUSH2 0x1CF8 JUMPI PUSH1 0x40 MLOAD PUSH32 0x8C379A000000000000000000000000000000000000000000000000000000000 DUP2 MSTORE PUSH1 0x4 ADD PUSH2 0x1CEF SWAP1 PUSH2 0x3B74 JUMP JUMPDEST PUSH1 0x40 MLOAD DUP1 SWAP2 SUB SWAP1 REVERT JUMPDEST PUSH0 DUP2 PUSH1 0x9 ADD SLOAD DUP3 PUSH1 0x6 ADD SLOAD PUSH2 0x1D0D SWAP2 SWAP1 PUSH2 0x33AA JUMP JUMPDEST SWAP1 POP PUSH1 0x8 PUSH0 DUP5 DUP2 MSTORE PUSH1 0x20 ADD SWAP1 DUP2 MSTORE PUSH1 0x20 ADD PUSH0 KECCAK256 PUSH0 DUP1 DUP3 ADD PUSH0 SWAP1 SSTORE PUSH1 0x1 DUP3 ADD PUSH0 PUSH2 0x100 EXP DUP2 SLOAD SWAP1 PUSH20 0xFFFFFFFFFFFFFFFFFFFFFFFFFFFFFFFFFFFFFFFF MUL NOT AND SWAP1 SSTORE PUSH1 0x2 DUP3 ADD PUSH0 SWAP1 SSTORE PUSH1 0x3 DUP3 ADD PUSH0 SWAP1 SSTORE PUSH1 0x4 DUP3 ADD PUSH0 SWAP1 SSTORE PUSH1 0x5 DUP3 ADD PUSH0 PUSH2 0x100 EXP DUP2 SLOAD SWAP1 PUSH1 0xFF MUL NOT AND SWAP1 SSTORE PUSH1 0x6 DUP3 ADD PUSH0 SWAP1 SSTORE PUSH1 0x7 DUP3 ADD PUSH0 SWAP1 SSTORE PUSH1 0x8 DUP3 ADD PUSH0 SWAP1 SSTORE PUSH1 0x9 DUP3 ADD PUSH0 SWAP1 SSTORE POP POP PUSH0 CALLER PUSH20 0xFFFFFFFFFFFFFFFFFFFFFFFFFFFFFFFFFFFFFFFF AND DUP3 PUSH1 0x40 MLOAD PUSH2 0x1DB8 SWAP1 PUSH2 0x3A46 JUMP JUMPDEST PUSH0 PUSH1 0x40 MLOAD DUP1 DUP4 SUB DUP2 DUP6 DUP8 GAS CALL SWAP3 POP POP POP RETURNDATASIZE DUP1 PUSH0 DUP2 EQ PUSH2 0x1DF2 JUMPI PUSH1 0x40 MLOAD SWAP2 POP PUSH1 0x1F NOT PUSH1 0x3F RETURNDATASIZE ADD AND DUP3 ADD PUSH1 0x40 MSTORE RETURNDATASIZE DUP3 MSTORE RETURNDATASIZE PUSH0 PUSH1 0x20 DUP5 ADD RETURNDATACOPY PUSH2 0x1DF7 JUMP JUMPDEST PUSH1 0x60 SWAP2 POP JUMPDEST POP POP SWAP1 POP DUP1 PUSH2 0x1E3B JUMPI PUSH1 0x40 MLOAD PUSH32 0x8C379A000000000000000000000000000000000000000000000000000000000 DUP2 MSTORE PUSH1 0x4 ADD PUSH2 0x1E32 SWAP1 PUSH2 0x3AA4 JUMP JUMPDEST PUSH1 0x40 MLOAD DUP1 SWAP2 SUB SWAP1 REVERT JUMPDEST POP POP POP POP JUMP JUMPDEST PUSH0 PUSH1 0x8 PUSH0 DUP4 DUP2 MSTORE PUSH1 0x20 ADD SWAP1 DUP2 MSTORE PUSH1 0x20 ADD PUSH0 KECCAK256 SWAP1 POP CALLER PUSH20 0xFFFFFFFFFFFFFFFFFFFFFFFFFFFFFFFFFFFFFFFF AND DUP2 PUSH1 0x1 ADD PUSH0 SWAP1 SLOAD SWAP1 PUSH2 0x100 EXP SWAP1 DIV PUSH20 0xFFFFFFFFFFFFFFFFFFFFFFFFFFFFFFFFFFFFFFFF AND PUSH20 0xFFFFFFFFFFFFFFFFFFFFFFFFFFFFFFFFFFFFFFFF AND EQ PUSH2 0x1EE6 JUMPI PUSH1 0x40 MLOAD PUSH32 0x8C379A000000000000000000000000000000000000000000000000000000000 DUP2 MSTORE PUSH1 0x4 ADD PUSH2 0x1EDD SWAP1 PUSH2 0x3BDC JUMP JUMPDEST PUSH1 0x40 MLOAD DUP1 SWAP2 SUB SWAP1 REVERT JUMPDEST DUP1 PUSH1 0x5 ADD PUSH0 SWAP1 SLOAD SWAP1 PUSH2 0x100 EXP SWAP1 DIV PUSH1 0xFF AND PUSH2 0x1F36 JUMPI PUSH1 0x40 MLOAD PUSH32 0x8C379A000000000000000000000000000000000000000000000000000000000 DUP2 MSTORE PUSH1 0x4 ADD PUSH2 0x1F2D SWAP1 PUSH2 0x348F JUMP JUMPDEST PUSH1 0x40 MLOAD DUP1 SWAP2 SUB SWAP1 REVERT JUMPDEST DUP1 PUSH1 0x9 ADD SLOAD CALLVALUE EQ PUSH2 0x1F7C JUMPI PUSH1 0x40 MLOAD PUSH32 0x8C379A000000000000000000000000000000000000000000000000000000000 DUP2 MSTORE PUSH1 0x4 ADD PUSH2 0x1F73 SWAP1 PUSH2 0x338C JUMP JUMPDEST PUSH1 0x40 MLOAD DUP1 SWAP2 SUB SWAP1 REVERT JUMPDEST PUSH3 0x69780 DUP2 PUSH1 0x8 ADD SLOAD PUSH2 0x1F8F SWAP2 SWAP1 PUSH2 0x33AA JUMP JUMPDEST TIMESTAMP GT ISZERO PUSH2 0x1FD1 JUMPI PUSH1 0x40 MLOAD PUSH32 0x8C379A000000000000000000000000000000000000000000000000000000000 DUP2 MSTORE PUSH1 0x4 ADD PUSH2 0x1FC8 SWAP1 PUSH2 0x3C44 JUMP JUMPDEST PUSH1 0x40 MLOAD DUP1 SWAP2 SUB SWAP1 REVERT JUMPDEST TIMESTAMP DUP2 PUSH1 0x7 ADD DUP2 SWAP1 SSTORE POP PUSH3 0x278D00 DUP2 PUSH1 0x8 ADD PUSH0 DUP3 DUP3 SLOAD PUSH2 0x1FF0 SWAP2 SWAP1 PUSH2 0x33AA JUMP JUMPDEST SWAP3 POP POP DUP2 SWAP1 SSTORE POP PUSH0 PUSH1 0x9 PUSH0 SWAP1 SLOAD SWAP1 PUSH2 0x100 EXP SWAP1 DIV PUSH20 0xFFFFFFFFFFFFFFFFFFFFFFFFFFFFFFFFFFFFFFFF AND PUSH20 0xFFFFFFFFFFFFFFFFFFFFFFFFFFFFFFFFFFFFFFFF AND CALLVALUE PUSH1 0x40 MLOAD PUSH2 0x203D SWAP1 PUSH2 0x3A46 JUMP JUMPDEST PUSH0 PUSH1 0x40 MLOAD DUP1 DUP4 SUB DUP2 DUP6 DUP8 GAS CALL SWAP3 POP POP POP RETURNDATASIZE DUP1 PUSH0 DUP2 EQ PUSH2 0x2077 JUMPI PUSH1 0x40 MLOAD SWAP2 POP PUSH1 0x1F NOT PUSH1 0x3F RETURNDATASIZE ADD AND DUP3 ADD PUSH1 0x40 MSTORE RETURNDATASIZE DUP3 MSTORE RETURNDATASIZE PUSH0 PUSH1 0x20 DUP5 ADD RETURNDATACOPY PUSH2 0x207C JUMP JUMPDEST PUSH1 0x60 SWAP2 POP JUMPDEST POP POP SWAP1 POP DUP1 PUSH2 0x20C0 JUMPI PUSH1 0x40 MLOAD PUSH32 0x8C379A000000000000000000000000000000000000000000000000000000000 DUP2 MSTORE PUSH1 0x4 ADD PUSH2 0x20B7 SWAP1 PUSH2 0x3AA4 JUMP JUMPDEST PUSH1 0x40 MLOAD DUP1 SWAP2 SUB SWAP1 REVERT JUMPDEST POP POP POP JUMP JUMPDEST PUSH2 0x20CE DUP3 PUSH2 0xAD6 JUMP JUMPDEST PUSH2 0x210D JUMPI PUSH1 0x40 MLOAD PUSH32 0x8C379A000000000000000000000000000000000000000000000000000000000 DUP2 MSTORE PUSH1 0x4 ADD PUSH2 0x2104 SWAP1 PUSH2 0x2FFA JUMP JUMPDEST PUSH1 0x40 MLOAD DUP1 SWAP2 SUB SWAP1 REVERT JUMPDEST PUSH0 PUSH1 0x8 PUSH0 DUP5 DUP2 MSTORE PUSH1 0x20 ADD SWAP1 DUP2 MSTORE PUSH1 0x20 ADD PUSH0 KECCAK256 PUSH1 0x40 MLOAD DUP1 PUSH2 0x140 ADD PUSH1 0x40 MSTORE SWAP1 DUP2 PUSH0 DUP3 ADD SLOAD DUP2 MSTORE PUSH1 0x20 ADD PUSH1 0x1 DUP3 ADD PUSH0 SWAP1 SLOAD SWAP1 PUSH2 0x100 EXP SWAP1 DIV PUSH20 0xFFFFFFFFFFFFFFFFFFFFFFFFFFFFFFFFFFFFFFFF AND PUSH20 0xFFFFFFFFFFFFFFFFFFFFFFFFFFFFFFFFFFFFFFFF AND PUSH20 0xFFFFFFFFFFFFFFFFFFFFFFFFFFFFFFFFFFFFFFFF AND DUP2 MSTORE PUSH1 0x20 ADD PUSH1 0x2 DUP3 ADD SLOAD DUP2 MSTORE PUSH1 0x20 ADD PUSH1 0x3 DUP3 ADD SLOAD DUP2 MSTORE PUSH1 0x20 ADD PUSH1 0x4 DUP3 ADD SLOAD DUP2 MSTORE PUSH1 0x20 ADD PUSH1 0x5 DUP3 ADD PUSH0 SWAP1 SLOAD SWAP1 PUSH2 0x100 EXP SWAP1 DIV PUSH1 0xFF AND ISZERO ISZERO ISZERO ISZERO DUP2 MSTORE PUSH1 0x20 ADD PUSH1 0x6 DUP3 ADD SLOAD DUP2 MSTORE PUSH1 0x20 ADD PUSH1 0x7 DUP3 ADD SLOAD DUP2 MSTORE PUSH1 0x20 ADD PUSH1 0x8 DUP3 ADD SLOAD DUP2 MSTORE PUSH1 0x20 ADD PUSH1 0x9 DUP3 ADD SLOAD DUP2 MSTORE POP POP SWAP1 POP PUSH2 0x21F4 DUP4 PUSH2 0x1370 JUMP JUMPDEST PUSH20 0xFFFFFFFFFFFFFFFFFFFFFFFFFFFFFFFFFFFFFFFF AND CALLER PUSH20 0xFFFFFFFFFFFFFFFFFFFFFFFFFFFFFFFFFFFFFFFF AND EQ DUP1 PUSH2 0x225C JUMPI POP DUP1 PUSH1 0x20 ADD MLOAD PUSH20 0xFFFFFFFFFFFFFFFFFFFFFFFFFFFFFFFFFFFFFFFF AND CALLER PUSH20 0xFFFFFFFFFFFFFFFFFFFFFFFFFFFFFFFFFFFFFFFF AND EQ JUMPDEST PUSH2 0x229B JUMPI PUSH1 0x40 MLOAD PUSH32 0x8C379A000000000000000000000000000000000000000000000000000000000 DUP2 MSTORE PUSH1 0x4 ADD PUSH2 0x2292 SWAP1 PUSH2 0x3CAC JUMP JUMPDEST PUSH1 0x40 MLOAD DUP1 SWAP2 SUB SWAP1 REVERT JUMPDEST DUP2 PUSH1 0x7 PUSH0 DUP6 DUP2 MSTORE PUSH1 0x20 ADD SWAP1 DUP2 MSTORE PUSH1 0x20 ADD PUSH0 KECCAK256 PUSH1 0x4 ADD DUP2 SWAP1 SSTORE POP POP POP POP JUMP JUMPDEST PUSH0 PUSH1 0x3 PUSH0 DUP5 PUSH20 0xFFFFFFFFFFFFFFFFFFFFFFFFFFFFFFFFFFFFFFFF AND PUSH20 0xFFFFFFFFFFFFFFFFFFFFFFFFFFFFFFFFFFFFFFFF AND DUP2 MSTORE PUSH1 0x20 ADD SWAP1 DUP2 MSTORE PUSH1 0x20 ADD PUSH0 KECCAK256 PUSH0 DUP4 PUSH20 0xFFFFFFFFFFFFFFFFFFFFFFFFFFFFFFFFFFFFFFFF AND PUSH20 0xFFFFFFFFFFFFFFFFFFFFFFFFFFFFFFFFFFFFFFFF AND DUP2 MSTORE PUSH1 0x20 ADD SWAP1 DUP2 MSTORE PUSH1 0x20 ADD PUSH0 KECCAK256 PUSH0 SWAP1 SLOAD SWAP1 PUSH2 0x100 EXP SWAP1 DIV PUSH1 0xFF AND SWAP1 POP SWAP3 SWAP2 POP POP JUMP JUMPDEST PUSH0 PUSH2 0x2351 DUP3 PUSH2 0xAD6 JUMP JUMPDEST PUSH2 0x2390 JUMPI PUSH1 0x40 MLOAD PUSH32 0x8C379A000000000000000000000000000000000000000000000000000000000 DUP2 MSTORE PUSH1 0x4 ADD PUSH2 0x2387 SWAP1 PUSH2 0x2FFA JUMP JUMPDEST PUSH1 0x40 MLOAD DUP1 SWAP2 SUB SWAP1 REVERT JUMPDEST PUSH0 PUSH2 0x239A DUP4 PUSH2 0x1370 JUMP JUMPDEST SWAP1 POP DUP1 PUSH20 0xFFFFFFFFFFFFFFFFFFFFFFFFFFFFFFFFFFFFFFFF AND DUP5 PUSH20 0xFFFFFFFFFFFFFFFFFFFFFFFFFFFFFFFFFFFFFFFF AND EQ DUP1 PUSH2 0x2409 JUMPI POP DUP4 PUSH20 0xFFFFFFFFFFFFFFFFFFFFFFFFFFFFFFFFFFFFFFFF AND PUSH2 0x23F1 DUP5 PUSH2 0x572 JUMP JUMPDEST PUSH20 0xFFFFFFFFFFFFFFFFFFFFFFFFFFFFFFFFFFFFFFFF AND EQ JUMPDEST DUP1 PUSH2 0x241A JUMPI POP PUSH2 0x2419 DUP2 DUP6 PUSH2 0x22B9 JUMP JUMPDEST JUMPDEST SWAP2 POP POP SWAP3 SWAP2 POP POP JUMP JUMPDEST DUP3 PUSH20 0xFFFFFFFFFFFFFFFFFFFFFFFFFFFFFFFFFFFFFFFF AND PUSH2 0x2443 DUP3 PUSH2 0x1370 JUMP JUMPDEST PUSH20 0xFFFFFFFFFFFFFFFFFFFFFFFFFFFFFFFFFFFFFFFF AND EQ PUSH2 0x2499 JUMPI PUSH1 0x40 MLOAD PUSH32 0x8C379A000000000000000000000000000000000000000000000000000000000 DUP2 MSTORE PUSH1 0x4 ADD PUSH2 0x2490 SWAP1 PUSH2 0x3D14 JUMP JUMPDEST PUSH1 0x40 MLOAD DUP1 SWAP2 SUB SWAP1 REVERT JUMPDEST PUSH0 PUSH20 0xFFFFFFFFFFFFFFFFFFFFFFFFFFFFFFFFFFFFFFFF AND DUP3 PUSH20 0xFFFFFFFFFFFFFFFFFFFFFFFFFFFFFFFFFFFFFFFF AND SUB PUSH2 0x2507 JUMPI PUSH1 0x40 MLOAD PUSH32 0x8C379A000000000000000000000000000000000000000000000000000000000 DUP2 MSTORE PUSH1 0x4 ADD PUSH2 0x24FE SWAP1 PUSH2 0x3D7C JUMP JUMPDEST PUSH1 0x40 MLOAD DUP1 SWAP2 SUB SWAP1 REVERT JUMPDEST PUSH2 0x2511 PUSH0 DUP3 PUSH2 0x2665 JUMP JUMPDEST PUSH1 0x1 DUP1 PUSH0 DUP6 PUSH20 0xFFFFFFFFFFFFFFFFFFFFFFFFFFFFFFFFFFFFFFFF AND PUSH20 0xFFFFFFFFFFFFFFFFFFFFFFFFFFFFFFFFFFFFFFFF AND DUP2 MSTORE PUSH1 0x20 ADD SWAP1 DUP2 MSTORE PUSH1 0x20 ADD PUSH0 KECCAK256 PUSH0 DUP3 DUP3 SLOAD PUSH2 0x255D SWAP2 SWAP1 PUSH2 0x38AE JUMP JUMPDEST SWAP3 POP POP DUP2 SWAP1 SSTORE POP PUSH1 0x1 DUP1 PUSH0 DUP5 PUSH20 0xFFFFFFFFFFFFFFFFFFFFFFFFFFFFFFFFFFFFFFFF AND PUSH20 0xFFFFFFFFFFFFFFFFFFFFFFFFFFFFFFFFFFFFFFFF AND DUP2 MSTORE PUSH1 0x20 ADD SWAP1 DUP2 MSTORE PUSH1 0x20 ADD PUSH0 KECCAK256 PUSH0 DUP3 DUP3 SLOAD PUSH2 0x25B0 SWAP2 SWAP1 PUSH2 0x33AA JUMP JUMPDEST SWAP3 POP POP DUP2 SWAP1 SSTORE POP DUP2 PUSH0 DUP1 DUP4 DUP2 MSTORE PUSH1 0x20 ADD SWAP1 DUP2 MSTORE PUSH1 0x20 ADD PUSH0 KECCAK256 PUSH0 PUSH2 0x100 EXP DUP2 SLOAD DUP2 PUSH20 0xFFFFFFFFFFFFFFFFFFFFFFFFFFFFFFFFFFFFFFFF MUL NOT AND SWAP1 DUP4 PUSH20 0xFFFFFFFFFFFFFFFFFFFFFFFFFFFFFFFFFFFFFFFF AND MUL OR SWAP1 SSTORE POP DUP1 DUP3 PUSH20 0xFFFFFFFFFFFFFFFFFFFFFFFFFFFFFFFFFFFFFFFF AND DUP5 PUSH20 0xFFFFFFFFFFFFFFFFFFFFFFFFFFFFFFFFFFFFFFFF AND PUSH32 0xDDF252AD1BE2C89B69C2B068FC378DAA952BA7F163C4A11628F55A4DF523B3EF PUSH1 0x40 MLOAD PUSH1 0x40 MLOAD DUP1 SWAP2 SUB SWAP1 LOG4 POP POP POP JUMP JUMPDEST DUP2 PUSH1 0x2 PUSH0 DUP4 DUP2 MSTORE PUSH1 0x20 ADD SWAP1 DUP2 MSTORE PUSH1 0x20 ADD PUSH0 KECCAK256 PUSH0 PUSH2 0x100 EXP DUP2 SLOAD DUP2 PUSH20 0xFFFFFFFFFFFFFFFFFFFFFFFFFFFFFFFFFFFFFFFF MUL NOT AND SWAP1 DUP4 PUSH20 0xFFFFFFFFFFFFFFFFFFFFFFFFFFFFFFFFFFFFFFFF AND MUL OR SWAP1 SSTORE POP DUP1 DUP3 PUSH20 0xFFFFFFFFFFFFFFFFFFFFFFFFFFFFFFFFFFFFFFFF AND PUSH2 0x26D5 DUP4 PUSH2 0x1370 JUMP JUMPDEST PUSH20 0xFFFFFFFFFFFFFFFFFFFFFFFFFFFFFFFFFFFFFFFF AND PUSH32 0x8C5BE1E5EBEC7D5BD14F71427D1E84F3DD0314C0F7B2291E5B200AC8C7C3B925 PUSH1 0x40 MLOAD PUSH1 0x40 MLOAD DUP1 SWAP2 SUB SWAP1 LOG4 POP POP JUMP JUMPDEST PUSH1 0x40 MLOAD DUP1 PUSH2 0x140 ADD PUSH1 0x40 MSTORE DUP1 PUSH0 DUP2 MSTORE PUSH1 0x20 ADD PUSH0 PUSH20 0xFFFFFFFFFFFFFFFFFFFFFFFFFFFFFFFFFFFFFFFF AND DUP2 MSTORE PUSH1 0x20 ADD PUSH0 DUP2 MSTORE PUSH1 0x20 ADD PUSH0 DUP2 MSTORE PUSH1 0x20 ADD PUSH0 DUP2 MSTORE PUSH1 0x20 ADD PUSH0 ISZERO ISZERO DUP2 MSTORE PUSH1 0x20 ADD PUSH0 DUP2 MSTORE PUSH1 0x20 ADD PUSH0 DUP2 MSTORE PUSH1 0x20 ADD PUSH0 DUP2 MSTORE PUSH1 0x20 ADD PUSH0 DUP2 MSTORE POP SWAP1 JUMP JUMPDEST PUSH1 0x40 MLOAD DUP1 PUSH1 0xA0 ADD PUSH1 0x40 MSTORE DUP1 PUSH1 0x60 DUP2 MSTORE PUSH1 0x20 ADD PUSH1 0x60 DUP2 MSTORE PUSH1 0x20 ADD PUSH0 DUP2 MSTORE PUSH1 0x20 ADD PUSH0 DUP2 MSTORE PUSH1 0x20 ADD PUSH0 DUP2 MSTORE POP SWAP1 JUMP JUMPDEST PUSH0 DUP2 MLOAD SWAP1 POP SWAP2 SWAP1 POP JUMP JUMPDEST PUSH0 DUP3 DUP3 MSTORE PUSH1 0x20 DUP3 ADD SWAP1 POP SWAP3 SWAP2 POP POP JUMP JUMPDEST DUP3 DUP2 DUP4 MCOPY PUSH0 DUP4 DUP4 ADD MSTORE POP POP POP JUMP JUMPDEST PUSH0 PUSH1 0x1F NOT PUSH1 0x1F DUP4 ADD AND SWAP1 POP SWAP2 SWAP1 POP JUMP JUMPDEST PUSH0 PUSH2 0x27EA DUP3 PUSH2 0x27A8 JUMP JUMPDEST PUSH2 0x27F4 DUP2 DUP6 PUSH2 0x27B2 JUMP JUMPDEST SWAP4 POP PUSH2 0x2804 DUP2 DUP6 PUSH1 0x20 DUP7 ADD PUSH2 0x27C2 JUMP JUMPDEST PUSH2 0x280D DUP2 PUSH2 0x27D0 JUMP JUMPDEST DUP5 ADD SWAP2 POP POP SWAP3 SWAP2 POP POP JUMP JUMPDEST PUSH0 PUSH1 0x20 DUP3 ADD SWAP1 POP DUP2 DUP2 SUB PUSH0 DUP4 ADD MSTORE PUSH2 0x2830 DUP2 DUP5 PUSH2 0x27E0 JUMP JUMPDEST SWAP1 POP SWAP3 SWAP2 POP POP JUMP JUMPDEST PUSH0 PUSH1 0x40 MLOAD SWAP1 POP SWAP1 JUMP JUMPDEST PUSH0 DUP1 REVERT JUMPDEST PUSH0 DUP1 REVERT JUMPDEST PUSH0 DUP2 SWAP1 POP SWAP2 SWAP1 POP JUMP JUMPDEST PUSH2 0x285B DUP2 PUSH2 0x2849 JUMP JUMPDEST DUP2 EQ PUSH2 0x2865 JUMPI PUSH0 DUP1 REVERT JUMPDEST POP JUMP JUMPDEST PUSH0 DUP2 CALLDATALOAD SWAP1 POP PUSH2 0x2876 DUP2 PUSH2 0x2852 JUMP JUMPDEST SWAP3 SWAP2 POP POP JUMP JUMPDEST PUSH0 PUSH1 0x20 DUP3 DUP5 SUB SLT ISZERO PUSH2 0x2891 JUMPI PUSH2 0x2890 PUSH2 0x2841 JUMP JUMPDEST JUMPDEST PUSH0 PUSH2 0x289E DUP5 DUP3 DUP6 ADD PUSH2 0x2868 JUMP JUMPDEST SWAP2 POP POP SWAP3 SWAP2 POP POP JUMP JUMPDEST PUSH0 PUSH20 0xFFFFFFFFFFFFFFFFFFFFFFFFFFFFFFFFFFFFFFFF DUP3 AND SWAP1 POP SWAP2 SWAP1 POP JUMP JUMPDEST PUSH0 PUSH2 0x28D0 DUP3 PUSH2 0x28A7 JUMP JUMPDEST SWAP1 POP SWAP2 SWAP1 POP JUMP JUMPDEST PUSH2 0x28E0 DUP2 PUSH2 0x28C6 JUMP JUMPDEST DUP3 MSTORE POP POP JUMP JUMPDEST PUSH0 PUSH1 0x20 DUP3 ADD SWAP1 POP PUSH2 0x28F9 PUSH0 DUP4 ADD DUP5 PUSH2 0x28D7 JUMP JUMPDEST SWAP3 SWAP2 POP POP JUMP JUMPDEST PUSH2 0x2908 DUP2 PUSH2 0x28C6 JUMP JUMPDEST DUP2 EQ PUSH2 0x2912 JUMPI PUSH0 DUP1 REVERT JUMPDEST POP JUMP JUMPDEST PUSH0 DUP2 CALLDATALOAD SWAP1 POP PUSH2 0x2923 DUP2 PUSH2 0x28FF JUMP JUMPDEST SWAP3 SWAP2 POP POP JUMP JUMPDEST PUSH0 DUP1 PUSH1 0x40 DUP4 DUP6 SUB SLT ISZERO PUSH2 0x293F JUMPI PUSH2 0x293E PUSH2 0x2841 JUMP JUMPDEST JUMPDEST PUSH0 PUSH2 0x294C DUP6 DUP3 DUP7 ADD PUSH2 0x2915 JUMP JUMPDEST SWAP3 POP POP PUSH1 0x20 PUSH2 0x295D DUP6 DUP3 DUP7 ADD PUSH2 0x2868 JUMP JUMPDEST SWAP2 POP POP SWAP3 POP SWAP3 SWAP1 POP JUMP JUMPDEST PUSH0 DUP1 PUSH0 PUSH1 0x60 DUP5 DUP7 SUB SLT ISZERO PUSH2 0x297E JUMPI PUSH2 0x297D PUSH2 0x2841 JUMP JUMPDEST JUMPDEST PUSH0 PUSH2 0x298B DUP7 DUP3 DUP8 ADD PUSH2 0x2915 JUMP JUMPDEST SWAP4 POP POP PUSH1 0x20 PUSH2 0x299C DUP7 DUP3 DUP8 ADD PUSH2 0x2915 JUMP JUMPDEST SWAP3 POP POP PUSH1 0x40 PUSH2 0x29AD DUP7 DUP3 DUP8 ADD PUSH2 0x2868 JUMP JUMPDEST SWAP2 POP POP SWAP3 POP SWAP3 POP SWAP3 JUMP JUMPDEST PUSH2 0x29C0 DUP2 PUSH2 0x2849 JUMP JUMPDEST DUP3 MSTORE POP POP JUMP JUMPDEST PUSH2 0x29CF DUP2 PUSH2 0x28C6 JUMP JUMPDEST DUP3 MSTORE POP POP JUMP JUMPDEST PUSH0 DUP2 ISZERO ISZERO SWAP1 POP SWAP2 SWAP1 POP JUMP JUMPDEST PUSH2 0x29E9 DUP2 PUSH2 0x29D5 JUMP JUMPDEST DUP3 MSTORE POP POP JUMP JUMPDEST PUSH2 0x140 DUP3 ADD PUSH0 DUP3 ADD MLOAD PUSH2 0x2A04 PUSH0 DUP6 ADD DUP3 PUSH2 0x29B7 JUMP JUMPDEST POP PUSH1 0x20 DUP3 ADD MLOAD PUSH2 0x2A17 PUSH1 0x20 DUP6 ADD DUP3 PUSH2 0x29C6 JUMP JUMPDEST POP PUSH1 0x40 DUP3 ADD MLOAD PUSH2 0x2A2A PUSH1 0x40 DUP6 ADD DUP3 PUSH2 0x29B7 JUMP JUMPDEST POP PUSH1 0x60 DUP3 ADD MLOAD PUSH2 0x2A3D PUSH1 0x60 DUP6 ADD DUP3 PUSH2 0x29B7 JUMP JUMPDEST POP PUSH1 0x80 DUP3 ADD MLOAD PUSH2 0x2A50 PUSH1 0x80 DUP6 ADD DUP3 PUSH2 0x29B7 JUMP JUMPDEST POP PUSH1 0xA0 DUP3 ADD MLOAD PUSH2 0x2A63 PUSH1 0xA0 DUP6 ADD DUP3 PUSH2 0x29E0 JUMP JUMPDEST POP PUSH1 0xC0 DUP3 ADD MLOAD PUSH2 0x2A76 PUSH1 0xC0 DUP6 ADD DUP3 PUSH2 0x29B7 JUMP JUMPDEST POP PUSH1 0xE0 DUP3 ADD MLOAD PUSH2 0x2A89 PUSH1 0xE0 DUP6 ADD DUP3 PUSH2 0x29B7 JUMP JUMPDEST POP PUSH2 0x100 DUP3 ADD MLOAD PUSH2 0x2A9E PUSH2 0x100 DUP6 ADD DUP3 PUSH2 0x29B7 JUMP JUMPDEST POP PUSH2 0x120 DUP3 ADD MLOAD PUSH2 0x2AB3 PUSH2 0x120 DUP6 ADD DUP3 PUSH2 0x29B7 JUMP JUMPDEST POP POP POP POP JUMP JUMPDEST PUSH0 PUSH2 0x140 DUP3 ADD SWAP1 POP PUSH2 0x2ACD PUSH0 DUP4 ADD DUP5 PUSH2 0x29EF JUMP JUMPDEST SWAP3 SWAP2 POP POP JUMP JUMPDEST PUSH0 DUP3 DUP3 MSTORE PUSH1 0x20 DUP3 ADD SWAP1 POP SWAP3 SWAP2 POP POP JUMP JUMPDEST PUSH0 PUSH2 0x2AED DUP3 PUSH2 0x27A8 JUMP JUMPDEST PUSH2 0x2AF7 DUP2 DUP6 PUSH2 0x2AD3 JUMP JUMPDEST SWAP4 POP PUSH2 0x2B07 DUP2 DUP6 PUSH1 0x20 DUP7 ADD PUSH2 0x27C2 JUMP JUMPDEST PUSH2 0x2B10 DUP2 PUSH2 0x27D0 JUMP JUMPDEST DUP5 ADD SWAP2 POP POP SWAP3 SWAP2 POP POP JUMP JUMPDEST PUSH0 PUSH1 0xA0 DUP4 ADD PUSH0 DUP4 ADD MLOAD DUP5 DUP3 SUB PUSH0 DUP7 ADD MSTORE PUSH2 0x2B35 DUP3 DUP3 PUSH2 0x2AE3 JUMP JUMPDEST SWAP2 POP POP PUSH1 0x20 DUP4 ADD MLOAD DUP5 DUP3 SUB PUSH1 0x20 DUP7 ADD MSTORE PUSH2 0x2B4F DUP3 DUP3 PUSH2 0x2AE3 JUMP JUMPDEST SWAP2 POP POP PUSH1 0x40 DUP4 ADD MLOAD PUSH2 0x2B64 PUSH1 0x40 DUP7 ADD DUP3 PUSH2 0x29B7 JUMP JUMPDEST POP PUSH1 0x60 DUP4 ADD MLOAD PUSH2 0x2B77 PUSH1 0x60 DUP7 ADD DUP3 PUSH2 0x29B7 JUMP JUMPDEST POP PUSH1 0x80 DUP4 ADD MLOAD PUSH2 0x2B8A PUSH1 0x80 DUP7 ADD DUP3 PUSH2 0x29B7 JUMP JUMPDEST POP DUP1 SWAP2 POP POP SWAP3 SWAP2 POP POP JUMP JUMPDEST PUSH0 PUSH1 0x20 DUP3 ADD SWAP1 POP DUP2 DUP2 SUB PUSH0 DUP4 ADD MSTORE PUSH2 0x2BAD DUP2 DUP5 PUSH2 0x2B1B JUMP JUMPDEST SWAP1 POP SWAP3 SWAP2 POP POP JUMP JUMPDEST PUSH2 0x2BBE DUP2 PUSH2 0x29D5 JUMP JUMPDEST DUP3 MSTORE POP POP JUMP JUMPDEST PUSH0 PUSH1 0x20 DUP3 ADD SWAP1 POP PUSH2 0x2BD7 PUSH0 DUP4 ADD DUP5 PUSH2 0x2BB5 JUMP JUMPDEST SWAP3 SWAP2 POP POP JUMP JUMPDEST PUSH0 DUP1 PUSH0 DUP1 PUSH1 0x80 DUP6 DUP8 SUB SLT ISZERO PUSH2 0x2BF5 JUMPI PUSH2 0x2BF4 PUSH2 0x2841 JUMP JUMPDEST JUMPDEST PUSH0 PUSH2 0x2C02 DUP8 DUP3 DUP9 ADD PUSH2 0x2868 JUMP JUMPDEST SWAP5 POP POP PUSH1 0x20 PUSH2 0x2C13 DUP8 DUP3 DUP9 ADD PUSH2 0x2868 JUMP JUMPDEST SWAP4 POP POP PUSH1 0x40 PUSH2 0x2C24 DUP8 DUP3 DUP9 ADD PUSH2 0x2868 JUMP JUMPDEST SWAP3 POP POP PUSH1 0x60 PUSH2 0x2C35 DUP8 DUP3 DUP9 ADD PUSH2 0x2868 JUMP JUMPDEST SWAP2 POP POP SWAP3 SWAP6 SWAP2 SWAP5 POP SWAP3 POP JUMP JUMPDEST PUSH0 DUP1 REVERT JUMPDEST PUSH0 DUP1 REVERT JUMPDEST PUSH32 0x4E487B7100000000000000000000000000000000000000000000000000000000 PUSH0 MSTORE PUSH1 0x41 PUSH1 0x4 MSTORE PUSH1 0x24 PUSH0 REVERT JUMPDEST PUSH2 0x2C7F DUP3 PUSH2 0x27D0 JUMP JUMPDEST DUP2 ADD DUP2 DUP2 LT PUSH8 0xFFFFFFFFFFFFFFFF DUP3 GT OR ISZERO PUSH2 0x2C9E JUMPI PUSH2 0x2C9D PUSH2 0x2C49 JUMP JUMPDEST JUMPDEST DUP1 PUSH1 0x40 MSTORE POP POP POP JUMP JUMPDEST PUSH0 PUSH2 0x2CB0 PUSH2 0x2838 JUMP JUMPDEST SWAP1 POP PUSH2 0x2CBC DUP3 DUP3 PUSH2 0x2C76 JUMP JUMPDEST SWAP2 SWAP1 POP JUMP JUMPDEST PUSH0 PUSH8 0xFFFFFFFFFFFFFFFF DUP3 GT ISZERO PUSH2 0x2CDB JUMPI PUSH2 0x2CDA PUSH2 0x2C49 JUMP JUMPDEST JUMPDEST PUSH2 0x2CE4 DUP3 PUSH2 0x27D0 JUMP JUMPDEST SWAP1 POP PUSH1 0x20 DUP2 ADD SWAP1 POP SWAP2 SWAP1 POP JUMP JUMPDEST DUP3 DUP2 DUP4 CALLDATACOPY PUSH0 DUP4 DUP4 ADD MSTORE POP POP POP JUMP JUMPDEST PUSH0 PUSH2 0x2D11 PUSH2 0x2D0C DUP5 PUSH2 0x2CC1 JUMP JUMPDEST PUSH2 0x2CA7 JUMP JUMPDEST SWAP1 POP DUP3 DUP2 MSTORE PUSH1 0x20 DUP2 ADD DUP5 DUP5 DUP5 ADD GT ISZERO PUSH2 0x2D2D JUMPI PUSH2 0x2D2C PUSH2 0x2C45 JUMP JUMPDEST JUMPDEST PUSH2 0x2D38 DUP5 DUP3 DUP6 PUSH2 0x2CF1 JUMP JUMPDEST POP SWAP4 SWAP3 POP POP POP JUMP JUMPDEST PUSH0 DUP3 PUSH1 0x1F DUP4 ADD SLT PUSH2 0x2D54 JUMPI PUSH2 0x2D53 PUSH2 0x2C41 JUMP JUMPDEST JUMPDEST DUP2 CALLDATALOAD PUSH2 0x2D64 DUP5 DUP3 PUSH1 0x20 DUP7 ADD PUSH2 0x2CFF JUMP JUMPDEST SWAP2 POP POP SWAP3 SWAP2 POP POP JUMP JUMPDEST PUSH0 DUP1 PUSH0 DUP1 PUSH0 PUSH1 0xA0 DUP7 DUP9 SUB SLT ISZERO PUSH2 0x2D86 JUMPI PUSH2 0x2D85 PUSH2 0x2841 JUMP JUMPDEST JUMPDEST PUSH0 DUP7 ADD CALLDATALOAD PUSH8 0xFFFFFFFFFFFFFFFF DUP2 GT ISZERO PUSH2 0x2DA3 JUMPI PUSH2 0x2DA2 PUSH2 0x2845 JUMP JUMPDEST JUMPDEST PUSH2 0x2DAF DUP9 DUP3 DUP10 ADD PUSH2 0x2D40 JUMP JUMPDEST SWAP6 POP POP PUSH1 0x20 DUP7 ADD CALLDATALOAD PUSH8 0xFFFFFFFFFFFFFFFF DUP2 GT ISZERO PUSH2 0x2DD0 JUMPI PUSH2 0x2DCF PUSH2 0x2845 JUMP JUMPDEST JUMPDEST PUSH2 0x2DDC DUP9 DUP3 DUP10 ADD PUSH2 0x2D40 JUMP JUMPDEST SWAP5 POP POP PUSH1 0x40 PUSH2 0x2DED DUP9 DUP3 DUP10 ADD PUSH2 0x2868 JUMP JUMPDEST SWAP4 POP POP PUSH1 0x60 PUSH2 0x2DFE DUP9 DUP3 DUP10 ADD PUSH2 0x2868 JUMP JUMPDEST SWAP3 POP POP PUSH1 0x80 PUSH2 0x2E0F DUP9 DUP3 DUP10 ADD PUSH2 0x2868 JUMP JUMPDEST SWAP2 POP POP SWAP3 SWAP6 POP SWAP3 SWAP6 SWAP1 SWAP4 POP JUMP JUMPDEST PUSH2 0x2E25 DUP2 PUSH2 0x2849 JUMP JUMPDEST DUP3 MSTORE POP POP JUMP JUMPDEST PUSH0 PUSH1 0x20 DUP3 ADD SWAP1 POP PUSH2 0x2E3E PUSH0 DUP4 ADD DUP5 PUSH2 0x2E1C JUMP JUMPDEST SWAP3 SWAP2 POP POP JUMP JUMPDEST PUSH0 PUSH1 0x20 DUP3 DUP5 SUB SLT ISZERO PUSH2 0x2E59 JUMPI PUSH2 0x2E58 PUSH2 0x2841 JUMP JUMPDEST JUMPDEST PUSH0 PUSH2 0x2E66 DUP5 DUP3 DUP6 ADD PUSH2 0x2915 JUMP JUMPDEST SWAP2 POP POP SWAP3 SWAP2 POP POP JUMP JUMPDEST PUSH2 0x2E78 DUP2 PUSH2 0x29D5 JUMP JUMPDEST DUP2 EQ PUSH2 0x2E82 JUMPI PUSH0 DUP1 REVERT JUMPDEST POP JUMP JUMPDEST PUSH0 DUP2 CALLDATALOAD SWAP1 POP PUSH2 0x2E93 DUP2 PUSH2 0x2E6F JUMP JUMPDEST SWAP3 SWAP2 POP POP JUMP JUMPDEST PUSH0 DUP1 PUSH1 0x40 DUP4 DUP6 SUB SLT ISZERO PUSH2 0x2EAF JUMPI PUSH2 0x2EAE PUSH2 0x2841 JUMP JUMPDEST JUMPDEST PUSH0 PUSH2 0x2EBC DUP6 DUP3 DUP7 ADD PUSH2 0x2915 JUMP JUMPDEST SWAP3 POP POP PUSH1 0x20 PUSH2 0x2ECD DUP6 DUP3 DUP7 ADD PUSH2 0x2E85 JUMP JUMPDEST SWAP2 POP POP SWAP3 POP SWAP3 SWAP1 POP JUMP JUMPDEST PUSH0 DUP1 PUSH1 0x40 DUP4 DUP6 SUB SLT ISZERO PUSH2 0x2EED JUMPI PUSH2 0x2EEC PUSH2 0x2841 JUMP JUMPDEST JUMPDEST PUSH0 PUSH2 0x2EFA DUP6 DUP3 DUP7 ADD PUSH2 0x2868 JUMP JUMPDEST SWAP3 POP POP PUSH1 0x20 PUSH2 0x2F0B DUP6 DUP3 DUP7 ADD PUSH2 0x2868 JUMP JUMPDEST SWAP2 POP POP SWAP3 POP SWAP3 SWAP1 POP JUMP JUMPDEST PUSH0 DUP1 PUSH1 0x40 DUP4 DUP6 SUB SLT ISZERO PUSH2 0x2F2B JUMPI PUSH2 0x2F2A PUSH2 0x2841 JUMP JUMPDEST JUMPDEST PUSH0 PUSH2 0x2F38 DUP6 DUP3 DUP7 ADD PUSH2 0x2915 JUMP JUMPDEST SWAP3 POP POP PUSH1 0x20 PUSH2 0x2F49 DUP6 DUP3 DUP7 ADD PUSH2 0x2915 JUMP JUMPDEST SWAP2 POP POP SWAP3 POP SWAP3 SWAP1 POP JUMP JUMPDEST PUSH32 0x4E487B7100000000000000000000000000000000000000000000000000000000 PUSH0 MSTORE PUSH1 0x22 PUSH1 0x4 MSTORE PUSH1 0x24 PUSH0 REVERT JUMPDEST PUSH0 PUSH1 0x2 DUP3 DIV SWAP1 POP PUSH1 0x1 DUP3 AND DUP1 PUSH2 0x2F97 JUMPI PUSH1 0x7F DUP3 AND SWAP2 POP JUMPDEST PUSH1 0x20 DUP3 LT DUP2 SUB PUSH2 0x2FAA JUMPI PUSH2 0x2FA9 PUSH2 0x2F53 JUMP JUMPDEST JUMPDEST POP SWAP2 SWAP1 POP JUMP JUMPDEST PUSH32 0x546F6B656E20494420646F6573206E6F74206578697374000000000000000000 PUSH0 DUP3 ADD MSTORE POP JUMP JUMPDEST PUSH0 PUSH2 0x2FE4 PUSH1 0x17 DUP4 PUSH2 0x27B2 JUMP JUMPDEST SWAP2 POP PUSH2 0x2FEF DUP3 PUSH2 0x2FB0 JUMP JUMPDEST PUSH1 0x20 DUP3 ADD SWAP1 POP SWAP2 SWAP1 POP JUMP JUMPDEST PUSH0 PUSH1 0x20 DUP3 ADD SWAP1 POP DUP2 DUP2 SUB PUSH0 DUP4 ADD MSTORE PUSH2 0x3011 DUP2 PUSH2 0x2FD8 JUMP JUMPDEST SWAP1 POP SWAP2 SWAP1 POP JUMP JUMPDEST PUSH32 0x417070726F76616C20746F2063757272656E74206F776E657200000000000000 PUSH0 DUP3 ADD MSTORE POP JUMP JUMPDEST PUSH0 PUSH2 0x304C PUSH1 0x19 DUP4 PUSH2 0x27B2 JUMP JUMPDEST SWAP2 POP PUSH2 0x3057 DUP3 PUSH2 0x3018 JUMP JUMPDEST PUSH1 0x20 DUP3 ADD SWAP1 POP SWAP2 SWAP1 POP JUMP JUMPDEST PUSH0 PUSH1 0x20 DUP3 ADD SWAP1 POP DUP2 DUP2 SUB PUSH0 DUP4 ADD MSTORE PUSH2 0x3079 DUP2 PUSH2 0x3040 JUMP JUMPDEST SWAP1 POP SWAP2 SWAP1 POP JUMP JUMPDEST PUSH32 0x43616C6C6572206973206E6F74206F776E6572206E6F7220617070726F766564 PUSH0 DUP3 ADD MSTORE PUSH32 0x20666F7220616C6C000000000000000000000000000000000000000000000000 PUSH1 0x20 DUP3 ADD MSTORE POP JUMP JUMPDEST PUSH0 PUSH2 0x30DA PUSH1 0x28 DUP4 PUSH2 0x27B2 JUMP JUMPDEST SWAP2 POP PUSH2 0x30E5 DUP3 PUSH2 0x3080 JUMP JUMPDEST PUSH1 0x40 DUP3 ADD SWAP1 POP SWAP2 SWAP1 POP JUMP JUMPDEST PUSH0 PUSH1 0x20 DUP3 ADD SWAP1 POP DUP2 DUP2 SUB PUSH0 DUP4 ADD MSTORE PUSH2 0x3107 DUP2 PUSH2 0x30CE JUMP JUMPDEST SWAP1 POP SWAP2 SWAP1 POP JUMP JUMPDEST PUSH32 0x43616C6C6572206973206E6F74206F776E6572206E6F7220617070726F766564 PUSH0 DUP3 ADD MSTORE POP JUMP JUMPDEST PUSH0 PUSH2 0x3142 PUSH1 0x20 DUP4 PUSH2 0x27B2 JUMP JUMPDEST SWAP2 POP PUSH2 0x314D DUP3 PUSH2 0x310E JUMP JUMPDEST PUSH1 0x20 DUP3 ADD SWAP1 POP SWAP2 SWAP1 POP JUMP JUMPDEST PUSH0 PUSH1 0x20 DUP3 ADD SWAP1 POP DUP2 DUP2 SUB PUSH0 DUP4 ADD MSTORE PUSH2 0x316F DUP2 PUSH2 0x3136 JUMP JUMPDEST SWAP1 POP SWAP2 SWAP1 POP JUMP JUMPDEST PUSH32 0x4C6561736520616C72656164792065786973747320666F72207468697320746F PUSH0 DUP3 ADD MSTORE PUSH32 0x6B656E0000000000000000000000000000000000000000000000000000000000 PUSH1 0x20 DUP3 ADD MSTORE POP JUMP JUMPDEST PUSH0 PUSH2 0x31D0 PUSH1 0x23 DUP4 PUSH2 0x27B2 JUMP JUMPDEST SWAP2 POP PUSH2 0x31DB DUP3 PUSH2 0x3176 JUMP JUMPDEST PUSH1 0x40 DUP3 ADD SWAP1 POP SWAP2 SWAP1 POP JUMP JUMPDEST PUSH0 PUSH1 0x20 DUP3 ADD SWAP1 POP DUP2 DUP2 SUB PUSH0 DUP4 ADD MSTORE PUSH2 0x31FD DUP2 PUSH2 0x31C4 JUMP JUMPDEST SWAP1 POP SWAP2 SWAP1 POP JUMP JUMPDEST PUSH32 0x496E76616C6964206D696C656167652063617000000000000000000000000000 PUSH0 DUP3 ADD MSTORE POP JUMP JUMPDEST PUSH0 PUSH2 0x3238 PUSH1 0x13 DUP4 PUSH2 0x27B2 JUMP JUMPDEST SWAP2 POP PUSH2 0x3243 DUP3 PUSH2 0x3204 JUMP JUMPDEST PUSH1 0x20 DUP3 ADD SWAP1 POP SWAP2 SWAP1 POP JUMP JUMPDEST PUSH0 PUSH1 0x20 DUP3 ADD SWAP1 POP DUP2 DUP2 SUB PUSH0 DUP4 ADD MSTORE PUSH2 0x3265 DUP2 PUSH2 0x322C JUMP JUMPDEST SWAP1 POP SWAP2 SWAP1 POP JUMP JUMPDEST PUSH32 0x496E76616C696420636F6E7472616374206475726174696F6E00000000000000 PUSH0 DUP3 ADD MSTORE POP JUMP JUMPDEST PUSH0 PUSH2 0x32A0 PUSH1 0x19 DUP4 PUSH2 0x27B2 JUMP JUMPDEST SWAP2 POP PUSH2 0x32AB DUP3 PUSH2 0x326C JUMP JUMPDEST PUSH1 0x20 DUP3 ADD SWAP1 POP SWAP2 SWAP1 POP JUMP JUMPDEST PUSH0 PUSH1 0x20 DUP3 ADD SWAP1 POP DUP2 DUP2 SUB PUSH0 DUP4 ADD MSTORE PUSH2 0x32CD DUP2 PUSH2 0x3294 JUMP JUMPDEST SWAP1 POP SWAP2 SWAP1 POP JUMP JUMPDEST PUSH32 0x4E487B7100000000000000000000000000000000000000000000000000000000 PUSH0 MSTORE PUSH1 0x11 PUSH1 0x4 MSTORE PUSH1 0x24 PUSH0 REVERT JUMPDEST PUSH0 PUSH2 0x330B DUP3 PUSH2 0x2849 JUMP JUMPDEST SWAP2 POP PUSH2 0x3316 DUP4 PUSH2 0x2849 JUMP JUMPDEST SWAP3 POP DUP3 DUP3 MUL PUSH2 0x3324 DUP2 PUSH2 0x2849 JUMP JUMPDEST SWAP2 POP DUP3 DUP3 DIV DUP5 EQ DUP4 ISZERO OR PUSH2 0x333B JUMPI PUSH2 0x333A PUSH2 0x32D4 JUMP JUMPDEST JUMPDEST POP SWAP3 SWAP2 POP POP JUMP JUMPDEST PUSH32 0x496E636F7272656374207061796D656E7420616D6F756E740000000000000000 PUSH0 DUP3 ADD MSTORE POP JUMP JUMPDEST PUSH0 PUSH2 0x3376 PUSH1 0x18 DUP4 PUSH2 0x27B2 JUMP JUMPDEST SWAP2 POP PUSH2 0x3381 DUP3 PUSH2 0x3342 JUMP JUMPDEST PUSH1 0x20 DUP3 ADD SWAP1 POP SWAP2 SWAP1 POP JUMP JUMPDEST PUSH0 PUSH1 0x20 DUP3 ADD SWAP1 POP DUP2 DUP2 SUB PUSH0 DUP4 ADD MSTORE PUSH2 0x33A3 DUP2 PUSH2 0x336A JUMP JUMPDEST SWAP1 POP SWAP2 SWAP1 POP JUMP JUMPDEST PUSH0 PUSH2 0x33B4 DUP3 PUSH2 0x2849 JUMP JUMPDEST SWAP2 POP PUSH2 0x33BF DUP4 PUSH2 0x2849 JUMP JUMPDEST SWAP3 POP DUP3 DUP3 ADD SWAP1 POP DUP1 DUP3 GT ISZERO PUSH2 0x33D7 JUMPI PUSH2 0x33D6 PUSH2 0x32D4 JUMP JUMPDEST JUMPDEST SWAP3 SWAP2 POP POP JUMP JUMPDEST PUSH32 0x43616C6C6572206973206E6F7420746865206F776E6572000000000000000000 PUSH0 DUP3 ADD MSTORE POP JUMP JUMPDEST PUSH0 PUSH2 0x3411 PUSH1 0x17 DUP4 PUSH2 0x27B2 JUMP JUMPDEST SWAP2 POP PUSH2 0x341C DUP3 PUSH2 0x33DD JUMP JUMPDEST PUSH1 0x20 DUP3 ADD SWAP1 POP SWAP2 SWAP1 POP JUMP JUMPDEST PUSH0 PUSH1 0x20 DUP3 ADD SWAP1 POP DUP2 DUP2 SUB PUSH0 DUP4 ADD MSTORE PUSH2 0x343E DUP2 PUSH2 0x3405 JUMP JUMPDEST SWAP1 POP SWAP2 SWAP1 POP JUMP JUMPDEST PUSH32 0x4C65617365206973206E6F742061637469766500000000000000000000000000 PUSH0 DUP3 ADD MSTORE POP JUMP JUMPDEST PUSH0 PUSH2 0x3479 PUSH1 0x13 DUP4 PUSH2 0x27B2 JUMP JUMPDEST SWAP2 POP PUSH2 0x3484 DUP3 PUSH2 0x3445 JUMP JUMPDEST PUSH1 0x20 DUP3 ADD SWAP1 POP SWAP2 SWAP1 POP JUMP JUMPDEST PUSH0 PUSH1 0x20 DUP3 ADD SWAP1 POP DUP2 DUP2 SUB PUSH0 DUP4 ADD MSTORE PUSH2 0x34A6 DUP2 PUSH2 0x346D JUMP JUMPDEST SWAP1 POP SWAP2 SWAP1 POP JUMP JUMPDEST PUSH32 0x5061796D656E74206973206E6F74206F76657264756500000000000000000000 PUSH0 DUP3 ADD MSTORE POP JUMP JUMPDEST PUSH0 PUSH2 0x34E1 PUSH1 0x16 DUP4 PUSH2 0x27B2 JUMP JUMPDEST SWAP2 POP PUSH2 0x34EC DUP3 PUSH2 0x34AD JUMP JUMPDEST PUSH1 0x20 DUP3 ADD SWAP1 POP SWAP2 SWAP1 POP JUMP JUMPDEST PUSH0 PUSH1 0x20 DUP3 ADD SWAP1 POP DUP2 DUP2 SUB PUSH0 DUP4 ADD MSTORE PUSH2 0x350E DUP2 PUSH2 0x34D5 JUMP JUMPDEST SWAP1 POP SWAP2 SWAP1 POP JUMP JUMPDEST PUSH32 0x4D696E7420746F207A65726F2061646472657373000000000000000000000000 PUSH0 DUP3 ADD MSTORE POP JUMP JUMPDEST PUSH0 PUSH2 0x3549 PUSH1 0x14 DUP4 PUSH2 0x27B2 JUMP JUMPDEST SWAP2 POP PUSH2 0x3554 DUP3 PUSH2 0x3515 JUMP JUMPDEST PUSH1 0x20 DUP3 ADD SWAP1 POP SWAP2 SWAP1 POP JUMP JUMPDEST PUSH0 PUSH1 0x20 DUP3 ADD SWAP1 POP DUP2 DUP2 SUB PUSH0 DUP4 ADD MSTORE PUSH2 0x3576 DUP2 PUSH2 0x353D JUMP JUMPDEST SWAP1 POP SWAP2 SWAP1 POP JUMP JUMPDEST PUSH0 DUP2 SWAP1 POP DUP2 PUSH0 MSTORE PUSH1 0x20 PUSH0 KECCAK256 SWAP1 POP SWAP2 SWAP1 POP JUMP JUMPDEST PUSH0 PUSH1 0x20 PUSH1 0x1F DUP4 ADD DIV SWAP1 POP SWAP2 SWAP1 POP JUMP JUMPDEST PUSH0 DUP3 DUP3 SHL SWAP1 POP SWAP3 SWAP2 POP POP JUMP JUMPDEST PUSH0 PUSH1 0x8 DUP4 MUL PUSH2 0x35D9 PUSH32 0xFFFFFFFFFFFFFFFFFFFFFFFFFFFFFFFFFFFFFFFFFFFFFFFFFFFFFFFFFFFFFFFF DUP3 PUSH2 0x359E JUMP JUMPDEST PUSH2 0x35E3 DUP7 DUP4 PUSH2 0x359E JUMP JUMPDEST SWAP6 POP DUP1 NOT DUP5 AND SWAP4 POP DUP1 DUP7 AND DUP5 OR SWAP3 POP POP POP SWAP4 SWAP3 POP POP POP JUMP JUMPDEST PUSH0 DUP2 SWAP1 POP SWAP2 SWAP1 POP JUMP JUMPDEST PUSH0 PUSH2 0x361E PUSH2 0x3619 PUSH2 0x3614 DUP5 PUSH2 0x2849 JUMP JUMPDEST PUSH2 0x35FB JUMP JUMPDEST PUSH2 0x2849 JUMP JUMPDEST SWAP1 POP SWAP2 SWAP1 POP JUMP JUMPDEST PUSH0 DUP2 SWAP1 POP SWAP2 SWAP1 POP JUMP JUMPDEST PUSH2 0x3637 DUP4 PUSH2 0x3604 JUMP JUMPDEST PUSH2 0x364B PUSH2 0x3643 DUP3 PUSH2 0x3625 JUMP JUMPDEST DUP5 DUP5 SLOAD PUSH2 0x35AA JUMP JUMPDEST DUP3 SSTORE POP POP POP POP JUMP JUMPDEST PUSH0 SWAP1 JUMP JUMPDEST PUSH2 0x365F PUSH2 0x3653 JUMP JUMPDEST PUSH2 0x366A DUP2 DUP5 DUP5 PUSH2 0x362E JUMP JUMPDEST POP POP POP JUMP JUMPDEST JUMPDEST DUP2 DUP2 LT ISZERO PUSH2 0x368D JUMPI PUSH2 0x3682 PUSH0 DUP3 PUSH2 0x3657 JUMP JUMPDEST PUSH1 0x1 DUP2 ADD SWAP1 POP PUSH2 0x3670 JUMP JUMPDEST POP POP JUMP JUMPDEST PUSH1 0x1F DUP3 GT ISZERO PUSH2 0x36D2 JUMPI PUSH2 0x36A3 DUP2 PUSH2 0x357D JUMP JUMPDEST PUSH2 0x36AC DUP5 PUSH2 0x358F JUMP JUMPDEST DUP2 ADD PUSH1 0x20 DUP6 LT ISZERO PUSH2 0x36BB JUMPI DUP2 SWAP1 POP JUMPDEST PUSH2 0x36CF PUSH2 0x36C7 DUP6 PUSH2 0x358F JUMP JUMPDEST DUP4 ADD DUP3 PUSH2 0x366F JUMP JUMPDEST POP POP JUMPDEST POP POP POP JUMP JUMPDEST PUSH0 DUP3 DUP3 SHR SWAP1 POP SWAP3 SWAP2 POP POP JUMP JUMPDEST PUSH0 PUSH2 0x36F2 PUSH0 NOT DUP5 PUSH1 0x8 MUL PUSH2 0x36D7 JUMP JUMPDEST NOT DUP1 DUP4 AND SWAP2 POP POP SWAP3 SWAP2 POP POP JUMP JUMPDEST PUSH0 PUSH2 0x370A DUP4 DUP4 PUSH2 0x36E3 JUMP JUMPDEST SWAP2 POP DUP3 PUSH1 0x2 MUL DUP3 OR SWAP1 POP SWAP3 SWAP2 POP POP JUMP JUMPDEST PUSH2 0x3723 DUP3 PUSH2 0x27A8 JUMP JUMPDEST PUSH8 0xFFFFFFFFFFFFFFFF DUP2 GT ISZERO PUSH2 0x373C JUMPI PUSH2 0x373B PUSH2 0x2C49 JUMP JUMPDEST JUMPDEST PUSH2 0x3746 DUP3 SLOAD PUSH2 0x2F80 JUMP JUMPDEST PUSH2 0x3751 DUP3 DUP3 DUP6 PUSH2 0x3691 JUMP JUMPDEST PUSH0 PUSH1 0x20 SWAP1 POP PUSH1 0x1F DUP4 GT PUSH1 0x1 DUP2 EQ PUSH2 0x3782 JUMPI PUSH0 DUP5 ISZERO PUSH2 0x3770 JUMPI DUP3 DUP8 ADD MLOAD SWAP1 POP JUMPDEST PUSH2 0x377A DUP6 DUP3 PUSH2 0x36FF JUMP JUMPDEST DUP7 SSTORE POP PUSH2 0x37E1 JUMP JUMPDEST PUSH1 0x1F NOT DUP5 AND PUSH2 0x3790 DUP7 PUSH2 0x357D JUMP JUMPDEST PUSH0 JUMPDEST DUP3 DUP2 LT ISZERO PUSH2 0x37B7 JUMPI DUP5 DUP10 ADD MLOAD DUP3 SSTORE PUSH1 0x1 DUP3 ADD SWAP2 POP PUSH1 0x20 DUP6 ADD SWAP5 POP PUSH1 0x20 DUP2 ADD SWAP1 POP PUSH2 0x3792 JUMP JUMPDEST DUP7 DUP4 LT ISZERO PUSH2 0x37D4 JUMPI DUP5 DUP10 ADD MLOAD PUSH2 0x37D0 PUSH1 0x1F DUP10 AND DUP3 PUSH2 0x36E3 JUMP JUMPDEST DUP4 SSTORE POP JUMPDEST PUSH1 0x1 PUSH1 0x2 DUP9 MUL ADD DUP9 SSTORE POP POP POP JUMPDEST POP POP POP POP POP POP JUMP JUMPDEST PUSH32 0x496E76616C696420616464726573730000000000000000000000000000000000 PUSH0 DUP3 ADD MSTORE POP JUMP JUMPDEST PUSH0 PUSH2 0x381D PUSH1 0xF DUP4 PUSH2 0x27B2 JUMP JUMPDEST SWAP2 POP PUSH2 0x3828 DUP3 PUSH2 0x37E9 JUMP JUMPDEST PUSH1 0x20 DUP3 ADD SWAP1 POP SWAP2 SWAP1 POP JUMP JUMPDEST PUSH0 PUSH1 0x20 DUP3 ADD SWAP1 POP DUP2 DUP2 SUB PUSH0 DUP4 ADD MSTORE PUSH2 0x384A DUP2 PUSH2 0x3811 JUMP JUMPDEST SWAP1 POP SWAP2 SWAP1 POP JUMP JUMPDEST PUSH32 0x4E487B7100000000000000000000000000000000000000000000000000000000 PUSH0 MSTORE PUSH1 0x12 PUSH1 0x4 MSTORE PUSH1 0x24 PUSH0 REVERT JUMPDEST PUSH0 PUSH2 0x3888 DUP3 PUSH2 0x2849 JUMP JUMPDEST SWAP2 POP PUSH2 0x3893 DUP4 PUSH2 0x2849 JUMP JUMPDEST SWAP3 POP DUP3 PUSH2 0x38A3 JUMPI PUSH2 0x38A2 PUSH2 0x3851 JUMP JUMPDEST JUMPDEST DUP3 DUP3 DIV SWAP1 POP SWAP3 SWAP2 POP POP JUMP JUMPDEST PUSH0 PUSH2 0x38B8 DUP3 PUSH2 0x2849 JUMP JUMPDEST SWAP2 POP PUSH2 0x38C3 DUP4 PUSH2 0x2849 JUMP JUMPDEST SWAP3 POP DUP3 DUP3 SUB SWAP1 POP DUP2 DUP2 GT ISZERO PUSH2 0x38DB JUMPI PUSH2 0x38DA PUSH2 0x32D4 JUMP JUMPDEST JUMPDEST SWAP3 SWAP2 POP POP JUMP JUMPDEST PUSH32 0x43616E6E6F7420617070726F766520746F2063616C6C65720000000000000000 PUSH0 DUP3 ADD MSTORE POP JUMP JUMPDEST PUSH0 PUSH2 0x3915 PUSH1 0x18 DUP4 PUSH2 0x27B2 JUMP JUMPDEST SWAP2 POP PUSH2 0x3920 DUP3 PUSH2 0x38E1 JUMP JUMPDEST PUSH1 0x20 DUP3 ADD SWAP1 POP SWAP2 SWAP1 POP JUMP JUMPDEST PUSH0 PUSH1 0x20 DUP3 ADD SWAP1 POP DUP2 DUP2 SUB PUSH0 DUP4 ADD MSTORE PUSH2 0x3942 DUP2 PUSH2 0x3909 JUMP JUMPDEST SWAP1 POP SWAP2 SWAP1 POP JUMP JUMPDEST PUSH32 0x4E6F206C656173652070726F706F73616C20666F756E64000000000000000000 PUSH0 DUP3 ADD MSTORE POP JUMP JUMPDEST PUSH0 PUSH2 0x397D PUSH1 0x17 DUP4 PUSH2 0x27B2 JUMP JUMPDEST SWAP2 POP PUSH2 0x3988 DUP3 PUSH2 0x3949 JUMP JUMPDEST PUSH1 0x20 DUP3 ADD SWAP1 POP SWAP2 SWAP1 POP JUMP JUMPDEST PUSH0 PUSH1 0x20 DUP3 ADD SWAP1 POP DUP2 DUP2 SUB PUSH0 DUP4 ADD MSTORE PUSH2 0x39AA DUP2 PUSH2 0x3971 JUMP JUMPDEST SWAP1 POP SWAP2 SWAP1 POP JUMP JUMPDEST PUSH32 0x4C6561736520616C726561647920616374697665000000000000000000000000 PUSH0 DUP3 ADD MSTORE POP JUMP JUMPDEST PUSH0 PUSH2 0x39E5 PUSH1 0x14 DUP4 PUSH2 0x27B2 JUMP JUMPDEST SWAP2 POP PUSH2 0x39F0 DUP3 PUSH2 0x39B1 JUMP JUMPDEST PUSH1 0x20 DUP3 ADD SWAP1 POP SWAP2 SWAP1 POP JUMP JUMPDEST PUSH0 PUSH1 0x20 DUP3 ADD SWAP1 POP DUP2 DUP2 SUB PUSH0 DUP4 ADD MSTORE PUSH2 0x3A12 DUP2 PUSH2 0x39D9 JUMP JUMPDEST SWAP1 POP SWAP2 SWAP1 POP JUMP JUMPDEST PUSH0 DUP2 SWAP1 POP SWAP3 SWAP2 POP POP JUMP JUMPDEST POP JUMP JUMPDEST PUSH0 PUSH2 0x3A31 PUSH0 DUP4 PUSH2 0x3A19 JUMP JUMPDEST SWAP2 POP PUSH2 0x3A3C DUP3 PUSH2 0x3A23 JUMP JUMPDEST PUSH0 DUP3 ADD SWAP1 POP SWAP2 SWAP1 POP JUMP JUMPDEST PUSH0 PUSH2 0x3A50 DUP3 PUSH2 0x3A26 JUMP JUMPDEST SWAP2 POP DUP2 SWAP1 POP SWAP2 SWAP1 POP JUMP JUMPDEST PUSH32 0x4661696C656420746F2073656E64204574686572000000000000000000000000 PUSH0 DUP3 ADD MSTORE POP JUMP JUMPDEST PUSH0 PUSH2 0x3A8E PUSH1 0x14 DUP4 PUSH2 0x27B2 JUMP JUMPDEST SWAP2 POP PUSH2 0x3A99 DUP3 PUSH2 0x3A5A JUMP JUMPDEST PUSH1 0x20 DUP3 ADD SWAP1 POP SWAP2 SWAP1 POP JUMP JUMPDEST PUSH0 PUSH1 0x20 DUP3 ADD SWAP1 POP DUP2 DUP2 SUB PUSH0 DUP4 ADD MSTORE PUSH2 0x3ABB DUP2 PUSH2 0x3A82 JUMP JUMPDEST SWAP1 POP SWAP2 SWAP1 POP JUMP JUMPDEST PUSH32 0x4F6E6C79206C65737365652063616E2063616E63656C00000000000000000000 PUSH0 DUP3 ADD MSTORE POP JUMP JUMPDEST PUSH0 PUSH2 0x3AF6 PUSH1 0x16 DUP4 PUSH2 0x27B2 JUMP JUMPDEST SWAP2 POP PUSH2 0x3B01 DUP3 PUSH2 0x3AC2 JUMP JUMPDEST PUSH1 0x20 DUP3 ADD SWAP1 POP SWAP2 SWAP1 POP JUMP JUMPDEST PUSH0 PUSH1 0x20 DUP3 ADD SWAP1 POP DUP2 DUP2 SUB PUSH0 DUP4 ADD MSTORE PUSH2 0x3B23 DUP2 PUSH2 0x3AEA JUMP JUMPDEST SWAP1 POP SWAP2 SWAP1 POP JUMP JUMPDEST PUSH32 0x4C6561736520697320616C726561647920616374697665000000000000000000 PUSH0 DUP3 ADD MSTORE POP JUMP JUMPDEST PUSH0 PUSH2 0x3B5E PUSH1 0x17 DUP4 PUSH2 0x27B2 JUMP JUMPDEST SWAP2 POP PUSH2 0x3B69 DUP3 PUSH2 0x3B2A JUMP JUMPDEST PUSH1 0x20 DUP3 ADD SWAP1 POP SWAP2 SWAP1 POP JUMP JUMPDEST PUSH0 PUSH1 0x20 DUP3 ADD SWAP1 POP DUP2 DUP2 SUB PUSH0 DUP4 ADD MSTORE PUSH2 0x3B8B DUP2 PUSH2 0x3B52 JUMP JUMPDEST SWAP1 POP SWAP2 SWAP1 POP JUMP JUMPDEST PUSH32 0x4F6E6C79206C65737365652063616E206D616B65207061796D656E7473000000 PUSH0 DUP3 ADD MSTORE POP JUMP JUMPDEST PUSH0 PUSH2 0x3BC6 PUSH1 0x1D DUP4 PUSH2 0x27B2 JUMP JUMPDEST SWAP2 POP PUSH2 0x3BD1 DUP3 PUSH2 0x3B92 JUMP JUMPDEST PUSH1 0x20 DUP3 ADD SWAP1 POP SWAP2 SWAP1 POP JUMP JUMPDEST PUSH0 PUSH1 0x20 DUP3 ADD SWAP1 POP DUP2 DUP2 SUB PUSH0 DUP4 ADD MSTORE PUSH2 0x3BF3 DUP2 PUSH2 0x3BBA JUMP JUMPDEST SWAP1 POP SWAP2 SWAP1 POP JUMP JUMPDEST PUSH32 0x5061796D656E74206973206F7665726475650000000000000000000000000000 PUSH0 DUP3 ADD MSTORE POP JUMP JUMPDEST PUSH0 PUSH2 0x3C2E PUSH1 0x12 DUP4 PUSH2 0x27B2 JUMP JUMPDEST SWAP2 POP PUSH2 0x3C39 DUP3 PUSH2 0x3BFA JUMP JUMPDEST PUSH1 0x20 DUP3 ADD SWAP1 POP SWAP2 SWAP1 POP JUMP JUMPDEST PUSH0 PUSH1 0x20 DUP3 ADD SWAP1 POP DUP2 DUP2 SUB PUSH0 DUP4 ADD MSTORE PUSH2 0x3C5B DUP2 PUSH2 0x3C22 JUMP JUMPDEST SWAP1 POP SWAP2 SWAP1 POP JUMP JUMPDEST PUSH32 0x43616C6C6572206973206E6F74206F776E6572206E6F72206C65737365650000 PUSH0 DUP3 ADD MSTORE POP JUMP JUMPDEST PUSH0 PUSH2 0x3C96 PUSH1 0x1E DUP4 PUSH2 0x27B2 JUMP JUMPDEST SWAP2 POP PUSH2 0x3CA1 DUP3 PUSH2 0x3C62 JUMP JUMPDEST PUSH1 0x20 DUP3 ADD SWAP1 POP SWAP2 SWAP1 POP JUMP JUMPDEST PUSH0 PUSH1 0x20 DUP3 ADD SWAP1 POP DUP2 DUP2 SUB PUSH0 DUP4 ADD MSTORE PUSH2 0x3CC3 DUP2 PUSH2 0x3C8A JUMP JUMPDEST SWAP1 POP SWAP2 SWAP1 POP JUMP JUMPDEST PUSH32 0x46726F6D2061646472657373206973206E6F74206F776E657200000000000000 PUSH0 DUP3 ADD MSTORE POP JUMP JUMPDEST PUSH0 PUSH2 0x3CFE PUSH1 0x19 DUP4 PUSH2 0x27B2 JUMP JUMPDEST SWAP2 POP PUSH2 0x3D09 DUP3 PUSH2 0x3CCA JUMP JUMPDEST PUSH1 0x20 DUP3 ADD SWAP1 POP SWAP2 SWAP1 POP JUMP JUMPDEST PUSH0 PUSH1 0x20 DUP3 ADD SWAP1 POP DUP2 DUP2 SUB PUSH0 DUP4 ADD MSTORE PUSH2 0x3D2B DUP2 PUSH2 0x3CF2 JUMP JUMPDEST SWAP1 POP SWAP2 SWAP1 POP JUMP JUMPDEST PUSH32 0x5472616E7366657220746F207A65726F20616464726573730000000000000000 PUSH0 DUP3 ADD MSTORE POP JUMP JUMPDEST PUSH0 PUSH2 0x3D66 PUSH1 0x18 DUP4 PUSH2 0x27B2 JUMP JUMPDEST SWAP2 POP PUSH2 0x3D71 DUP3 PUSH2 0x3D32 JUMP JUMPDEST PUSH1 0x20 DUP3 ADD SWAP1 POP SWAP2 SWAP1 POP JUMP JUMPDEST PUSH0 PUSH1 0x20 DUP3 ADD SWAP1 POP DUP2 DUP2 SUB PUSH0 DUP4 ADD MSTORE PUSH2 0x3D93 DUP2 PUSH2 0x3D5A JUMP JUMPDEST SWAP1 POP SWAP2 SWAP1 POP JUMP INVALID LOG2 PUSH5 0x6970667358 0x22 SLT KECCAK256 0xDC DELEGATECALL 0xA6 TSTORE 0xF 0xB2 0xC7 SLOAD 0x4D PUSH25 0x54B4F8EF666823A0E40D3393F8844365DEA4264428D464736F PUSH13 0x634300081A0033000000000000 "
				},
				"gasEstimates": {
					"creation": {
						"codeDepositCost": "3164800",
						"executionCost": "infinite",
						"totalCost": "infinite"
					},
					"external": {
						"approve(address,uint256)": "31713",
						"balanceOf(address)": "2909",
						"cancelLeaseProposal(uint256)": "infinite",
						"computeMonthlyQuotaForProposal(uint256,uint256,uint256,uint256)": "infinite",
						"confirmLease(uint256)": "infinite",
						"exists(uint256)": "2876",
						"getApproved(uint256)": "5189",
						"getCarDetails(uint256)": "infinite",
						"getLeaseDetails(uint256)": "infinite",
						"isApprovedForAll(address,address)": "infinite",
						"makeMonthlyPayment(uint256)": "infinite",
						"mintCar(string,string,uint256,uint256,uint256)": "infinite",
						"name()": "infinite",
						"ownerOf(uint256)": "2964",
						"proposeLease(uint256,uint256,uint256,uint256)": "infinite",
						"repossessCar(uint256)": "infinite",
						"setApprovalForAll(address,bool)": "infinite",
						"symbol()": "infinite",
						"transferFrom(address,address,uint256)": "infinite",
						"updateMileage(uint256,uint256)": "infinite"
					},
					"internal": {
						"_approve(address,uint256)": "infinite",
						"_isApprovedOrOwner(address,uint256)": "infinite",
						"_transfer(address,address,uint256)": "infinite"
					}
				},
				"methodIdentifiers": {
					"approve(address,uint256)": "095ea7b3",
					"balanceOf(address)": "70a08231",
					"cancelLeaseProposal(uint256)": "b13bfc4a",
					"computeMonthlyQuotaForProposal(uint256,uint256,uint256,uint256)": "8f80775d",
					"confirmLease(uint256)": "aec2ab35",
					"exists(uint256)": "4f558e79",
					"getApproved(uint256)": "081812fc",
					"getCarDetails(uint256)": "472ec454",
					"getLeaseDetails(uint256)": "2e8331fa",
					"isApprovedForAll(address,address)": "e985e9c5",
					"makeMonthlyPayment(uint256)": "b3a0b2f2",
					"mintCar(string,string,uint256,uint256,uint256)": "5cf6ab31",
					"name()": "06fdde03",
					"ownerOf(uint256)": "6352211e",
					"proposeLease(uint256,uint256,uint256,uint256)": "563ca058",
					"repossessCar(uint256)": "5c9f0322",
					"setApprovalForAll(address,bool)": "a22cb465",
					"symbol()": "95d89b41",
					"transferFrom(address,address,uint256)": "23b872dd",
					"updateMileage(uint256,uint256)": "c9831541"
				}
			},
			"storageLayout": {
				"storage": [
					{
						"astId": 29,
						"contract": "contracts/_BilboydLeasing.sol:CarLeasingNFT",
						"label": "_owners",
						"offset": 0,
						"slot": "0",
						"type": "t_mapping(t_uint256,t_address)"
					},
					{
						"astId": 33,
						"contract": "contracts/_BilboydLeasing.sol:CarLeasingNFT",
						"label": "_balances",
						"offset": 0,
						"slot": "1",
						"type": "t_mapping(t_address,t_uint256)"
					},
					{
						"astId": 37,
						"contract": "contracts/_BilboydLeasing.sol:CarLeasingNFT",
						"label": "_tokenApprovals",
						"offset": 0,
						"slot": "2",
						"type": "t_mapping(t_uint256,t_address)"
					},
					{
						"astId": 43,
						"contract": "contracts/_BilboydLeasing.sol:CarLeasingNFT",
						"label": "_operatorApprovals",
						"offset": 0,
						"slot": "3",
						"type": "t_mapping(t_address,t_mapping(t_address,t_bool))"
					},
					{
						"astId": 45,
						"contract": "contracts/_BilboydLeasing.sol:CarLeasingNFT",
						"label": "_name",
						"offset": 0,
						"slot": "4",
						"type": "t_string_storage"
					},
					{
						"astId": 47,
						"contract": "contracts/_BilboydLeasing.sol:CarLeasingNFT",
						"label": "_symbol",
						"offset": 0,
						"slot": "5",
						"type": "t_string_storage"
					},
					{
						"astId": 49,
						"contract": "contracts/_BilboydLeasing.sol:CarLeasingNFT",
						"label": "_tokenIds",
						"offset": 0,
						"slot": "6",
						"type": "t_uint256"
					},
					{
						"astId": 65,
						"contract": "contracts/_BilboydLeasing.sol:CarLeasingNFT",
						"label": "_carDetails",
						"offset": 0,
						"slot": "7",
						"type": "t_mapping(t_uint256,t_struct(Car)60_storage)"
					},
					{
						"astId": 91,
						"contract": "contracts/_BilboydLeasing.sol:CarLeasingNFT",
						"label": "_leaseAgreements",
						"offset": 0,
						"slot": "8",
						"type": "t_mapping(t_uint256,t_struct(LeaseAgreement)86_storage)"
					},
					{
						"astId": 93,
						"contract": "contracts/_BilboydLeasing.sol:CarLeasingNFT",
						"label": "_owner",
						"offset": 0,
						"slot": "9",
						"type": "t_address"
					}
				],
				"types": {
					"t_address": {
						"encoding": "inplace",
						"label": "address",
						"numberOfBytes": "20"
					},
					"t_bool": {
						"encoding": "inplace",
						"label": "bool",
						"numberOfBytes": "1"
					},
					"t_mapping(t_address,t_bool)": {
						"encoding": "mapping",
						"key": "t_address",
						"label": "mapping(address => bool)",
						"numberOfBytes": "32",
						"value": "t_bool"
					},
					"t_mapping(t_address,t_mapping(t_address,t_bool))": {
						"encoding": "mapping",
						"key": "t_address",
						"label": "mapping(address => mapping(address => bool))",
						"numberOfBytes": "32",
						"value": "t_mapping(t_address,t_bool)"
					},
					"t_mapping(t_address,t_uint256)": {
						"encoding": "mapping",
						"key": "t_address",
						"label": "mapping(address => uint256)",
						"numberOfBytes": "32",
						"value": "t_uint256"
					},
					"t_mapping(t_uint256,t_address)": {
						"encoding": "mapping",
						"key": "t_uint256",
						"label": "mapping(uint256 => address)",
						"numberOfBytes": "32",
						"value": "t_address"
					},
					"t_mapping(t_uint256,t_struct(Car)60_storage)": {
						"encoding": "mapping",
						"key": "t_uint256",
						"label": "mapping(uint256 => struct CarLeasingNFT.Car)",
						"numberOfBytes": "32",
						"value": "t_struct(Car)60_storage"
					},
					"t_mapping(t_uint256,t_struct(LeaseAgreement)86_storage)": {
						"encoding": "mapping",
						"key": "t_uint256",
						"label": "mapping(uint256 => struct CarLeasingNFT.LeaseAgreement)",
						"numberOfBytes": "32",
						"value": "t_struct(LeaseAgreement)86_storage"
					},
					"t_string_storage": {
						"encoding": "bytes",
						"label": "string",
						"numberOfBytes": "32"
					},
					"t_struct(Car)60_storage": {
						"encoding": "inplace",
						"label": "struct CarLeasingNFT.Car",
						"members": [
							{
								"astId": 51,
								"contract": "contracts/_BilboydLeasing.sol:CarLeasingNFT",
								"label": "model",
								"offset": 0,
								"slot": "0",
								"type": "t_string_storage"
							},
							{
								"astId": 53,
								"contract": "contracts/_BilboydLeasing.sol:CarLeasingNFT",
								"label": "color",
								"offset": 0,
								"slot": "1",
								"type": "t_string_storage"
							},
							{
								"astId": 55,
								"contract": "contracts/_BilboydLeasing.sol:CarLeasingNFT",
								"label": "yearOfMatriculation",
								"offset": 0,
								"slot": "2",
								"type": "t_uint256"
							},
							{
								"astId": 57,
								"contract": "contracts/_BilboydLeasing.sol:CarLeasingNFT",
								"label": "originalValue",
								"offset": 0,
								"slot": "3",
								"type": "t_uint256"
							},
							{
								"astId": 59,
								"contract": "contracts/_BilboydLeasing.sol:CarLeasingNFT",
								"label": "currentMileage",
								"offset": 0,
								"slot": "4",
								"type": "t_uint256"
							}
						],
						"numberOfBytes": "160"
					},
					"t_struct(LeaseAgreement)86_storage": {
						"encoding": "inplace",
						"label": "struct CarLeasingNFT.LeaseAgreement",
						"members": [
							{
								"astId": 67,
								"contract": "contracts/_BilboydLeasing.sol:CarLeasingNFT",
								"label": "tokenId",
								"offset": 0,
								"slot": "0",
								"type": "t_uint256"
							},
							{
								"astId": 69,
								"contract": "contracts/_BilboydLeasing.sol:CarLeasingNFT",
								"label": "lessee",
								"offset": 0,
								"slot": "1",
								"type": "t_address"
							},
							{
								"astId": 71,
								"contract": "contracts/_BilboydLeasing.sol:CarLeasingNFT",
								"label": "driverExperience",
								"offset": 0,
								"slot": "2",
								"type": "t_uint256"
							},
							{
								"astId": 73,
								"contract": "contracts/_BilboydLeasing.sol:CarLeasingNFT",
								"label": "mileageCap",
								"offset": 0,
								"slot": "3",
								"type": "t_uint256"
							},
							{
								"astId": 75,
								"contract": "contracts/_BilboydLeasing.sol:CarLeasingNFT",
								"label": "contractDuration",
								"offset": 0,
								"slot": "4",
								"type": "t_uint256"
							},
							{
								"astId": 77,
								"contract": "contracts/_BilboydLeasing.sol:CarLeasingNFT",
								"label": "isActive",
								"offset": 0,
								"slot": "5",
								"type": "t_bool"
							},
							{
								"astId": 79,
								"contract": "contracts/_BilboydLeasing.sol:CarLeasingNFT",
								"label": "deposit",
								"offset": 0,
								"slot": "6",
								"type": "t_uint256"
							},
							{
								"astId": 81,
								"contract": "contracts/_BilboydLeasing.sol:CarLeasingNFT",
								"label": "lastPaymentTime",
								"offset": 0,
								"slot": "7",
								"type": "t_uint256"
							},
							{
								"astId": 83,
								"contract": "contracts/_BilboydLeasing.sol:CarLeasingNFT",
								"label": "paymentDueDate",
								"offset": 0,
								"slot": "8",
								"type": "t_uint256"
							},
							{
								"astId": 85,
								"contract": "contracts/_BilboydLeasing.sol:CarLeasingNFT",
								"label": "monthlyQuota",
								"offset": 0,
								"slot": "9",
								"type": "t_uint256"
							}
						],
						"numberOfBytes": "320"
					},
					"t_uint256": {
						"encoding": "inplace",
						"label": "uint256",
						"numberOfBytes": "32"
					}
				}
			},
			"userdoc": {
				"kind": "user",
				"methods": {},
				"version": 1
			}
		}
	}
}