{
	"data": {
		"bytecode": {
			"linkReferences": {},
			"object": "608060405234801561000f575f80fd5b506040518060400160405280600a81526020017f42696c426f796443617200000000000000000000000000000000000000000000815250600290816100549190610319565b506040518060400160405280600381526020017f4242430000000000000000000000000000000000000000000000000000000000815250600390816100999190610319565b503360065f6101000a81548173ffffffffffffffffffffffffffffffffffffffff021916908373ffffffffffffffffffffffffffffffffffffffff1602179055506103e8565b5f81519050919050565b7f4e487b71000000000000000000000000000000000000000000000000000000005f52604160045260245ffd5b7f4e487b71000000000000000000000000000000000000000000000000000000005f52602260045260245ffd5b5f600282049050600182168061015a57607f821691505b60208210810361016d5761016c610116565b5b50919050565b5f819050815f5260205f209050919050565b5f6020601f8301049050919050565b5f82821b905092915050565b5f600883026101cf7fffffffffffffffffffffffffffffffffffffffffffffffffffffffffffffffff82610194565b6101d98683610194565b95508019841693508086168417925050509392505050565b5f819050919050565b5f819050919050565b5f61021d610218610213846101f1565b6101fa565b6101f1565b9050919050565b5f819050919050565b61023683610203565b61024a61024282610224565b8484546101a0565b825550505050565b5f90565b61025e610252565b61026981848461022d565b505050565b5b8181101561028c576102815f82610256565b60018101905061026f565b5050565b601f8211156102d1576102a281610173565b6102ab84610185565b810160208510156102ba578190505b6102ce6102c685610185565b83018261026e565b50505b505050565b5f82821c905092915050565b5f6102f15f19846008026102d6565b1980831691505092915050565b5f61030983836102e2565b9150826002028217905092915050565b610322826100df565b67ffffffffffffffff81111561033b5761033a6100e9565b5b6103458254610143565b610350828285610290565b5f60209050601f831160018114610381575f841561036f578287015190505b61037985826102fe565b8655506103e0565b601f19841661038f86610173565b5f5b828110156103b657848901518255600182019150602085019450602081019050610391565b868310156103d357848901516103cf601f8916826102e2565b8355505b6001600288020188555050505b505050505050565b61165b806103f55f395ff3fe608060405234801561000f575f80fd5b5060043610610086575f3560e01c806370a082311161005957806370a082311461013c57806375bb48fe1461016c57806377f110bc1461019c57806395d89b41146101cc57610086565b806306fdde031461008a578063472ec454146100a85780634f558e79146100dc5780636352211e1461010c575b5f80fd5b6100926101ea565b60405161009f9190610c44565b60405180910390f35b6100c260048036038101906100bd9190610ca8565b61027a565b6040516100d3959493929190610ce2565b60405180910390f35b6100f660048036038101906100f19190610ca8565b610450565b6040516101039190610d5b565b60405180910390f35b61012660048036038101906101219190610ca8565b6104b7565b6040516101339190610db3565b60405180910390f35b61015660048036038101906101519190610df6565b610562565b6040516101639190610e21565b60405180910390f35b61018660048036038101906101819190610f66565b610616565b6040516101939190610e21565b60405180910390f35b6101b660048036038101906101b19190611027565b6108c0565b6040516101c39190610e21565b60405180910390f35b6101d4610b44565b6040516101e19190610c44565b60405180910390f35b6060600280546101f9906110b8565b80601f0160208091040260200160405190810160405280929190818152602001828054610225906110b8565b80156102705780601f1061024757610100808354040283529160200191610270565b820191905f5260205f20905b81548152906001019060200180831161025357829003601f168201915b5050505050905090565b6060805f805f61028986610450565b6102c8576040517f08c379a00000000000000000000000000000000000000000000000000000000081526004016102bf90611132565b60405180910390fd5b5f60055f8881526020019081526020015f206040518060a00160405290815f820180546102f4906110b8565b80601f0160208091040260200160405190810160405280929190818152602001828054610320906110b8565b801561036b5780601f106103425761010080835404028352916020019161036b565b820191905f5260205f20905b81548152906001019060200180831161034e57829003601f168201915b50505050508152602001600182018054610384906110b8565b80601f01602080910402602001604051908101604052809291908181526020018280546103b0906110b8565b80156103fb5780601f106103d2576101008083540402835291602001916103fb565b820191905f5260205f20905b8154815290600101906020018083116103de57829003601f168201915b5050505050815260200160028201548152602001600382015481526020016004820154815250509050805f01518160200151826040015183606001518460800151955095509550955095505091939590929450565b5f8073ffffffffffffffffffffffffffffffffffffffff165f808481526020019081526020015f205f9054906101000a900473ffffffffffffffffffffffffffffffffffffffff1673ffffffffffffffffffffffffffffffffffffffff1614159050919050565b5f805f808481526020019081526020015f205f9054906101000a900473ffffffffffffffffffffffffffffffffffffffff1690505f73ffffffffffffffffffffffffffffffffffffffff168173ffffffffffffffffffffffffffffffffffffffff1603610559576040517f08c379a000000000000000000000000000000000000000000000000000000000815260040161055090611132565b60405180910390fd5b80915050919050565b5f8073ffffffffffffffffffffffffffffffffffffffff168273ffffffffffffffffffffffffffffffffffffffff16036105d1576040517f08c379a00000000000000000000000000000000000000000000000000000000081526004016105c89061119a565b60405180910390fd5b60015f8373ffffffffffffffffffffffffffffffffffffffff1673ffffffffffffffffffffffffffffffffffffffff1681526020019081526020015f20549050919050565b5f60065f9054906101000a900473ffffffffffffffffffffffffffffffffffffffff1673ffffffffffffffffffffffffffffffffffffffff163373ffffffffffffffffffffffffffffffffffffffff16146106a6576040517f08c379a000000000000000000000000000000000000000000000000000000000815260040161069d90611202565b60405180910390fd5b5f73ffffffffffffffffffffffffffffffffffffffff168773ffffffffffffffffffffffffffffffffffffffff1603610714576040517f08c379a000000000000000000000000000000000000000000000000000000000815260040161070b9061126a565b60405180910390fd5b600160045f82825461072691906112b5565b925050819055505f60045490506001805f8a73ffffffffffffffffffffffffffffffffffffffff1673ffffffffffffffffffffffffffffffffffffffff1681526020019081526020015f205f82825461077f91906112b5565b92505081905550875f808381526020019081526020015f205f6101000a81548173ffffffffffffffffffffffffffffffffffffffff021916908373ffffffffffffffffffffffffffffffffffffffff1602179055506040518060a001604052808881526020018781526020018681526020018581526020018481525060055f8381526020019081526020015f205f820151815f01908161081f9190611485565b5060208201518160010190816108359190611485565b50604082015181600201556060820151816003015560808201518160040155905050808873ffffffffffffffffffffffffffffffffffffffff165f73ffffffffffffffffffffffffffffffffffffffff167fddf252ad1be2c89b69c2b068fc378daa952ba7f163c4a11628f55a4df523b3ef60405160405180910390a4809150509695505050505050565b5f6108ca85610450565b610909576040517f08c379a000000000000000000000000000000000000000000000000000000000815260040161090090611132565b60405180910390fd5b5f60055f8781526020019081526020015f206040518060a00160405290815f82018054610935906110b8565b80601f0160208091040260200160405190810160405280929190818152602001828054610961906110b8565b80156109ac5780601f10610983576101008083540402835291602001916109ac565b820191905f5260205f20905b81548152906001019060200180831161098f57829003601f168201915b505050505081526020016001820180546109c5906110b8565b80601f01602080910402602001604051908101604052809291908181526020018280546109f1906110b8565b8015610a3c5780601f10610a1357610100808354040283529160200191610a3c565b820191905f5260205f20905b815481529060010190602001808311610a1f57829003601f168201915b50505050508152602001600282015481526020016003820154815260200160048201548152505090505f60648260600151610a779190611581565b90505f8583608001511115610aa557600a868460800151610a9891906115b1565b610aa291906115e4565b90505b5f60648389610ab491906115e4565b610abe9190611581565b90505f60248710610ae9576064600585610ad891906115e4565b610ae29190611581565b9050610b0e565b60188710610b0d576064600385610b0091906115e4565b610b0a9190611581565b90505b5b5f81838587610b1d91906112b5565b610b2791906115b1565b610b3191906115b1565b9050809650505050505050949350505050565b606060038054610b53906110b8565b80601f0160208091040260200160405190810160405280929190818152602001828054610b7f906110b8565b8015610bca5780601f10610ba157610100808354040283529160200191610bca565b820191905f5260205f20905b815481529060010190602001808311610bad57829003601f168201915b5050505050905090565b5f81519050919050565b5f82825260208201905092915050565b8281835e5f83830152505050565b5f601f19601f8301169050919050565b5f610c1682610bd4565b610c208185610bde565b9350610c30818560208601610bee565b610c3981610bfc565b840191505092915050565b5f6020820190508181035f830152610c5c8184610c0c565b905092915050565b5f604051905090565b5f80fd5b5f80fd5b5f819050919050565b610c8781610c75565b8114610c91575f80fd5b50565b5f81359050610ca281610c7e565b92915050565b5f60208284031215610cbd57610cbc610c6d565b5b5f610cca84828501610c94565b91505092915050565b610cdc81610c75565b82525050565b5f60a0820190508181035f830152610cfa8188610c0c565b90508181036020830152610d0e8187610c0c565b9050610d1d6040830186610cd3565b610d2a6060830185610cd3565b610d376080830184610cd3565b9695505050505050565b5f8115159050919050565b610d5581610d41565b82525050565b5f602082019050610d6e5f830184610d4c565b92915050565b5f73ffffffffffffffffffffffffffffffffffffffff82169050919050565b5f610d9d82610d74565b9050919050565b610dad81610d93565b82525050565b5f602082019050610dc65f830184610da4565b92915050565b610dd581610d93565b8114610ddf575f80fd5b50565b5f81359050610df081610dcc565b92915050565b5f60208284031215610e0b57610e0a610c6d565b5b5f610e1884828501610de2565b91505092915050565b5f602082019050610e345f830184610cd3565b92915050565b5f80fd5b5f80fd5b7f4e487b71000000000000000000000000000000000000000000000000000000005f52604160045260245ffd5b610e7882610bfc565b810181811067ffffffffffffffff82111715610e9757610e96610e42565b5b80604052505050565b5f610ea9610c64565b9050610eb58282610e6f565b919050565b5f67ffffffffffffffff821115610ed457610ed3610e42565b5b610edd82610bfc565b9050602081019050919050565b828183375f83830152505050565b5f610f0a610f0584610eba565b610ea0565b905082815260208101848484011115610f2657610f25610e3e565b5b610f31848285610eea565b509392505050565b5f82601f830112610f4d57610f4c610e3a565b5b8135610f5d848260208601610ef8565b91505092915050565b5f805f805f8060c08789031215610f8057610f7f610c6d565b5b5f610f8d89828a01610de2565b965050602087013567ffffffffffffffff811115610fae57610fad610c71565b5b610fba89828a01610f39565b955050604087013567ffffffffffffffff811115610fdb57610fda610c71565b5b610fe789828a01610f39565b9450506060610ff889828a01610c94565b935050608061100989828a01610c94565b92505060a061101a89828a01610c94565b9150509295509295509295565b5f805f806080858703121561103f5761103e610c6d565b5b5f61104c87828801610c94565b945050602061105d87828801610c94565b935050604061106e87828801610c94565b925050606061107f87828801610c94565b91505092959194509250565b7f4e487b71000000000000000000000000000000000000000000000000000000005f52602260045260245ffd5b5f60028204905060018216806110cf57607f821691505b6020821081036110e2576110e161108b565b5b50919050565b7f546f6b656e20494420646f6573206e6f742065786973740000000000000000005f82015250565b5f61111c601783610bde565b9150611127826110e8565b602082019050919050565b5f6020820190508181035f83015261114981611110565b9050919050565b7f496e76616c6964206164647265737300000000000000000000000000000000005f82015250565b5f611184600f83610bde565b915061118f82611150565b602082019050919050565b5f6020820190508181035f8301526111b181611178565b9050919050565b7f43616c6c6572206973206e6f742074686520636f6e7472616374206f776e65725f82015250565b5f6111ec602083610bde565b91506111f7826111b8565b602082019050919050565b5f6020820190508181035f830152611219816111e0565b9050919050565b7f4d696e7420746f207a65726f20616464726573730000000000000000000000005f82015250565b5f611254601483610bde565b915061125f82611220565b602082019050919050565b5f6020820190508181035f83015261128181611248565b9050919050565b7f4e487b71000000000000000000000000000000000000000000000000000000005f52601160045260245ffd5b5f6112bf82610c75565b91506112ca83610c75565b92508282019050808211156112e2576112e1611288565b5b92915050565b5f819050815f5260205f209050919050565b5f6020601f8301049050919050565b5f82821b905092915050565b5f600883026113447fffffffffffffffffffffffffffffffffffffffffffffffffffffffffffffffff82611309565b61134e8683611309565b95508019841693508086168417925050509392505050565b5f819050919050565b5f61138961138461137f84610c75565b611366565b610c75565b9050919050565b5f819050919050565b6113a28361136f565b6113b66113ae82611390565b848454611315565b825550505050565b5f90565b6113ca6113be565b6113d5818484611399565b505050565b5b818110156113f8576113ed5f826113c2565b6001810190506113db565b5050565b601f82111561143d5761140e816112e8565b611417846112fa565b81016020851015611426578190505b61143a611432856112fa565b8301826113da565b50505b505050565b5f82821c905092915050565b5f61145d5f1984600802611442565b1980831691505092915050565b5f611475838361144e565b9150826002028217905092915050565b61148e82610bd4565b67ffffffffffffffff8111156114a7576114a6610e42565b5b6114b182546110b8565b6114bc8282856113fc565b5f60209050601f8311600181146114ed575f84156114db578287015190505b6114e5858261146a565b86555061154c565b601f1984166114fb866112e8565b5f5b82811015611522578489015182556001820191506020850194506020810190506114fd565b8683101561153f578489015161153b601f89168261144e565b8355505b6001600288020188555050505b505050505050565b7f4e487b71000000000000000000000000000000000000000000000000000000005f52601260045260245ffd5b5f61158b82610c75565b915061159683610c75565b9250826115a6576115a5611554565b5b828204905092915050565b5f6115bb82610c75565b91506115c683610c75565b92508282039050818111156115de576115dd611288565b5b92915050565b5f6115ee82610c75565b91506115f983610c75565b925082820261160781610c75565b9150828204841483151761161e5761161d611288565b5b509291505056fea26469706673582212207fbddebce4180e65d56dbf77e7269b90c47b61e36a3ba3b1dae270525f6d34af64736f6c634300081a0033",
			"opcodes": "PUSH1 0x80 PUSH1 0x40 MSTORE CALLVALUE DUP1 ISZERO PUSH2 0xF JUMPI PUSH0 DUP1 REVERT JUMPDEST POP PUSH1 0x40 MLOAD DUP1 PUSH1 0x40 ADD PUSH1 0x40 MSTORE DUP1 PUSH1 0xA DUP2 MSTORE PUSH1 0x20 ADD PUSH32 0x42696C426F796443617200000000000000000000000000000000000000000000 DUP2 MSTORE POP PUSH1 0x2 SWAP1 DUP2 PUSH2 0x54 SWAP2 SWAP1 PUSH2 0x319 JUMP JUMPDEST POP PUSH1 0x40 MLOAD DUP1 PUSH1 0x40 ADD PUSH1 0x40 MSTORE DUP1 PUSH1 0x3 DUP2 MSTORE PUSH1 0x20 ADD PUSH32 0x4242430000000000000000000000000000000000000000000000000000000000 DUP2 MSTORE POP PUSH1 0x3 SWAP1 DUP2 PUSH2 0x99 SWAP2 SWAP1 PUSH2 0x319 JUMP JUMPDEST POP CALLER PUSH1 0x6 PUSH0 PUSH2 0x100 EXP DUP2 SLOAD DUP2 PUSH20 0xFFFFFFFFFFFFFFFFFFFFFFFFFFFFFFFFFFFFFFFF MUL NOT AND SWAP1 DUP4 PUSH20 0xFFFFFFFFFFFFFFFFFFFFFFFFFFFFFFFFFFFFFFFF AND MUL OR SWAP1 SSTORE POP PUSH2 0x3E8 JUMP JUMPDEST PUSH0 DUP2 MLOAD SWAP1 POP SWAP2 SWAP1 POP JUMP JUMPDEST PUSH32 0x4E487B7100000000000000000000000000000000000000000000000000000000 PUSH0 MSTORE PUSH1 0x41 PUSH1 0x4 MSTORE PUSH1 0x24 PUSH0 REVERT JUMPDEST PUSH32 0x4E487B7100000000000000000000000000000000000000000000000000000000 PUSH0 MSTORE PUSH1 0x22 PUSH1 0x4 MSTORE PUSH1 0x24 PUSH0 REVERT JUMPDEST PUSH0 PUSH1 0x2 DUP3 DIV SWAP1 POP PUSH1 0x1 DUP3 AND DUP1 PUSH2 0x15A JUMPI PUSH1 0x7F DUP3 AND SWAP2 POP JUMPDEST PUSH1 0x20 DUP3 LT DUP2 SUB PUSH2 0x16D JUMPI PUSH2 0x16C PUSH2 0x116 JUMP JUMPDEST JUMPDEST POP SWAP2 SWAP1 POP JUMP JUMPDEST PUSH0 DUP2 SWAP1 POP DUP2 PUSH0 MSTORE PUSH1 0x20 PUSH0 KECCAK256 SWAP1 POP SWAP2 SWAP1 POP JUMP JUMPDEST PUSH0 PUSH1 0x20 PUSH1 0x1F DUP4 ADD DIV SWAP1 POP SWAP2 SWAP1 POP JUMP JUMPDEST PUSH0 DUP3 DUP3 SHL SWAP1 POP SWAP3 SWAP2 POP POP JUMP JUMPDEST PUSH0 PUSH1 0x8 DUP4 MUL PUSH2 0x1CF PUSH32 0xFFFFFFFFFFFFFFFFFFFFFFFFFFFFFFFFFFFFFFFFFFFFFFFFFFFFFFFFFFFFFFFF DUP3 PUSH2 0x194 JUMP JUMPDEST PUSH2 0x1D9 DUP7 DUP4 PUSH2 0x194 JUMP JUMPDEST SWAP6 POP DUP1 NOT DUP5 AND SWAP4 POP DUP1 DUP7 AND DUP5 OR SWAP3 POP POP POP SWAP4 SWAP3 POP POP POP JUMP JUMPDEST PUSH0 DUP2 SWAP1 POP SWAP2 SWAP1 POP JUMP JUMPDEST PUSH0 DUP2 SWAP1 POP SWAP2 SWAP1 POP JUMP JUMPDEST PUSH0 PUSH2 0x21D PUSH2 0x218 PUSH2 0x213 DUP5 PUSH2 0x1F1 JUMP JUMPDEST PUSH2 0x1FA JUMP JUMPDEST PUSH2 0x1F1 JUMP JUMPDEST SWAP1 POP SWAP2 SWAP1 POP JUMP JUMPDEST PUSH0 DUP2 SWAP1 POP SWAP2 SWAP1 POP JUMP JUMPDEST PUSH2 0x236 DUP4 PUSH2 0x203 JUMP JUMPDEST PUSH2 0x24A PUSH2 0x242 DUP3 PUSH2 0x224 JUMP JUMPDEST DUP5 DUP5 SLOAD PUSH2 0x1A0 JUMP JUMPDEST DUP3 SSTORE POP POP POP POP JUMP JUMPDEST PUSH0 SWAP1 JUMP JUMPDEST PUSH2 0x25E PUSH2 0x252 JUMP JUMPDEST PUSH2 0x269 DUP2 DUP5 DUP5 PUSH2 0x22D JUMP JUMPDEST POP POP POP JUMP JUMPDEST JUMPDEST DUP2 DUP2 LT ISZERO PUSH2 0x28C JUMPI PUSH2 0x281 PUSH0 DUP3 PUSH2 0x256 JUMP JUMPDEST PUSH1 0x1 DUP2 ADD SWAP1 POP PUSH2 0x26F JUMP JUMPDEST POP POP JUMP JUMPDEST PUSH1 0x1F DUP3 GT ISZERO PUSH2 0x2D1 JUMPI PUSH2 0x2A2 DUP2 PUSH2 0x173 JUMP JUMPDEST PUSH2 0x2AB DUP5 PUSH2 0x185 JUMP JUMPDEST DUP2 ADD PUSH1 0x20 DUP6 LT ISZERO PUSH2 0x2BA JUMPI DUP2 SWAP1 POP JUMPDEST PUSH2 0x2CE PUSH2 0x2C6 DUP6 PUSH2 0x185 JUMP JUMPDEST DUP4 ADD DUP3 PUSH2 0x26E JUMP JUMPDEST POP POP JUMPDEST POP POP POP JUMP JUMPDEST PUSH0 DUP3 DUP3 SHR SWAP1 POP SWAP3 SWAP2 POP POP JUMP JUMPDEST PUSH0 PUSH2 0x2F1 PUSH0 NOT DUP5 PUSH1 0x8 MUL PUSH2 0x2D6 JUMP JUMPDEST NOT DUP1 DUP4 AND SWAP2 POP POP SWAP3 SWAP2 POP POP JUMP JUMPDEST PUSH0 PUSH2 0x309 DUP4 DUP4 PUSH2 0x2E2 JUMP JUMPDEST SWAP2 POP DUP3 PUSH1 0x2 MUL DUP3 OR SWAP1 POP SWAP3 SWAP2 POP POP JUMP JUMPDEST PUSH2 0x322 DUP3 PUSH2 0xDF JUMP JUMPDEST PUSH8 0xFFFFFFFFFFFFFFFF DUP2 GT ISZERO PUSH2 0x33B JUMPI PUSH2 0x33A PUSH2 0xE9 JUMP JUMPDEST JUMPDEST PUSH2 0x345 DUP3 SLOAD PUSH2 0x143 JUMP JUMPDEST PUSH2 0x350 DUP3 DUP3 DUP6 PUSH2 0x290 JUMP JUMPDEST PUSH0 PUSH1 0x20 SWAP1 POP PUSH1 0x1F DUP4 GT PUSH1 0x1 DUP2 EQ PUSH2 0x381 JUMPI PUSH0 DUP5 ISZERO PUSH2 0x36F JUMPI DUP3 DUP8 ADD MLOAD SWAP1 POP JUMPDEST PUSH2 0x379 DUP6 DUP3 PUSH2 0x2FE JUMP JUMPDEST DUP7 SSTORE POP PUSH2 0x3E0 JUMP JUMPDEST PUSH1 0x1F NOT DUP5 AND PUSH2 0x38F DUP7 PUSH2 0x173 JUMP JUMPDEST PUSH0 JUMPDEST DUP3 DUP2 LT ISZERO PUSH2 0x3B6 JUMPI DUP5 DUP10 ADD MLOAD DUP3 SSTORE PUSH1 0x1 DUP3 ADD SWAP2 POP PUSH1 0x20 DUP6 ADD SWAP5 POP PUSH1 0x20 DUP2 ADD SWAP1 POP PUSH2 0x391 JUMP JUMPDEST DUP7 DUP4 LT ISZERO PUSH2 0x3D3 JUMPI DUP5 DUP10 ADD MLOAD PUSH2 0x3CF PUSH1 0x1F DUP10 AND DUP3 PUSH2 0x2E2 JUMP JUMPDEST DUP4 SSTORE POP JUMPDEST PUSH1 0x1 PUSH1 0x2 DUP9 MUL ADD DUP9 SSTORE POP POP POP JUMPDEST POP POP POP POP POP POP JUMP JUMPDEST PUSH2 0x165B DUP1 PUSH2 0x3F5 PUSH0 CODECOPY PUSH0 RETURN INVALID PUSH1 0x80 PUSH1 0x40 MSTORE CALLVALUE DUP1 ISZERO PUSH2 0xF JUMPI PUSH0 DUP1 REVERT JUMPDEST POP PUSH1 0x4 CALLDATASIZE LT PUSH2 0x86 JUMPI PUSH0 CALLDATALOAD PUSH1 0xE0 SHR DUP1 PUSH4 0x70A08231 GT PUSH2 0x59 JUMPI DUP1 PUSH4 0x70A08231 EQ PUSH2 0x13C JUMPI DUP1 PUSH4 0x75BB48FE EQ PUSH2 0x16C JUMPI DUP1 PUSH4 0x77F110BC EQ PUSH2 0x19C JUMPI DUP1 PUSH4 0x95D89B41 EQ PUSH2 0x1CC JUMPI PUSH2 0x86 JUMP JUMPDEST DUP1 PUSH4 0x6FDDE03 EQ PUSH2 0x8A JUMPI DUP1 PUSH4 0x472EC454 EQ PUSH2 0xA8 JUMPI DUP1 PUSH4 0x4F558E79 EQ PUSH2 0xDC JUMPI DUP1 PUSH4 0x6352211E EQ PUSH2 0x10C JUMPI JUMPDEST PUSH0 DUP1 REVERT JUMPDEST PUSH2 0x92 PUSH2 0x1EA JUMP JUMPDEST PUSH1 0x40 MLOAD PUSH2 0x9F SWAP2 SWAP1 PUSH2 0xC44 JUMP JUMPDEST PUSH1 0x40 MLOAD DUP1 SWAP2 SUB SWAP1 RETURN JUMPDEST PUSH2 0xC2 PUSH1 0x4 DUP1 CALLDATASIZE SUB DUP2 ADD SWAP1 PUSH2 0xBD SWAP2 SWAP1 PUSH2 0xCA8 JUMP JUMPDEST PUSH2 0x27A JUMP JUMPDEST PUSH1 0x40 MLOAD PUSH2 0xD3 SWAP6 SWAP5 SWAP4 SWAP3 SWAP2 SWAP1 PUSH2 0xCE2 JUMP JUMPDEST PUSH1 0x40 MLOAD DUP1 SWAP2 SUB SWAP1 RETURN JUMPDEST PUSH2 0xF6 PUSH1 0x4 DUP1 CALLDATASIZE SUB DUP2 ADD SWAP1 PUSH2 0xF1 SWAP2 SWAP1 PUSH2 0xCA8 JUMP JUMPDEST PUSH2 0x450 JUMP JUMPDEST PUSH1 0x40 MLOAD PUSH2 0x103 SWAP2 SWAP1 PUSH2 0xD5B JUMP JUMPDEST PUSH1 0x40 MLOAD DUP1 SWAP2 SUB SWAP1 RETURN JUMPDEST PUSH2 0x126 PUSH1 0x4 DUP1 CALLDATASIZE SUB DUP2 ADD SWAP1 PUSH2 0x121 SWAP2 SWAP1 PUSH2 0xCA8 JUMP JUMPDEST PUSH2 0x4B7 JUMP JUMPDEST PUSH1 0x40 MLOAD PUSH2 0x133 SWAP2 SWAP1 PUSH2 0xDB3 JUMP JUMPDEST PUSH1 0x40 MLOAD DUP1 SWAP2 SUB SWAP1 RETURN JUMPDEST PUSH2 0x156 PUSH1 0x4 DUP1 CALLDATASIZE SUB DUP2 ADD SWAP1 PUSH2 0x151 SWAP2 SWAP1 PUSH2 0xDF6 JUMP JUMPDEST PUSH2 0x562 JUMP JUMPDEST PUSH1 0x40 MLOAD PUSH2 0x163 SWAP2 SWAP1 PUSH2 0xE21 JUMP JUMPDEST PUSH1 0x40 MLOAD DUP1 SWAP2 SUB SWAP1 RETURN JUMPDEST PUSH2 0x186 PUSH1 0x4 DUP1 CALLDATASIZE SUB DUP2 ADD SWAP1 PUSH2 0x181 SWAP2 SWAP1 PUSH2 0xF66 JUMP JUMPDEST PUSH2 0x616 JUMP JUMPDEST PUSH1 0x40 MLOAD PUSH2 0x193 SWAP2 SWAP1 PUSH2 0xE21 JUMP JUMPDEST PUSH1 0x40 MLOAD DUP1 SWAP2 SUB SWAP1 RETURN JUMPDEST PUSH2 0x1B6 PUSH1 0x4 DUP1 CALLDATASIZE SUB DUP2 ADD SWAP1 PUSH2 0x1B1 SWAP2 SWAP1 PUSH2 0x1027 JUMP JUMPDEST PUSH2 0x8C0 JUMP JUMPDEST PUSH1 0x40 MLOAD PUSH2 0x1C3 SWAP2 SWAP1 PUSH2 0xE21 JUMP JUMPDEST PUSH1 0x40 MLOAD DUP1 SWAP2 SUB SWAP1 RETURN JUMPDEST PUSH2 0x1D4 PUSH2 0xB44 JUMP JUMPDEST PUSH1 0x40 MLOAD PUSH2 0x1E1 SWAP2 SWAP1 PUSH2 0xC44 JUMP JUMPDEST PUSH1 0x40 MLOAD DUP1 SWAP2 SUB SWAP1 RETURN JUMPDEST PUSH1 0x60 PUSH1 0x2 DUP1 SLOAD PUSH2 0x1F9 SWAP1 PUSH2 0x10B8 JUMP JUMPDEST DUP1 PUSH1 0x1F ADD PUSH1 0x20 DUP1 SWAP2 DIV MUL PUSH1 0x20 ADD PUSH1 0x40 MLOAD SWAP1 DUP2 ADD PUSH1 0x40 MSTORE DUP1 SWAP3 SWAP2 SWAP1 DUP2 DUP2 MSTORE PUSH1 0x20 ADD DUP3 DUP1 SLOAD PUSH2 0x225 SWAP1 PUSH2 0x10B8 JUMP JUMPDEST DUP1 ISZERO PUSH2 0x270 JUMPI DUP1 PUSH1 0x1F LT PUSH2 0x247 JUMPI PUSH2 0x100 DUP1 DUP4 SLOAD DIV MUL DUP4 MSTORE SWAP2 PUSH1 0x20 ADD SWAP2 PUSH2 0x270 JUMP JUMPDEST DUP3 ADD SWAP2 SWAP1 PUSH0 MSTORE PUSH1 0x20 PUSH0 KECCAK256 SWAP1 JUMPDEST DUP2 SLOAD DUP2 MSTORE SWAP1 PUSH1 0x1 ADD SWAP1 PUSH1 0x20 ADD DUP1 DUP4 GT PUSH2 0x253 JUMPI DUP3 SWAP1 SUB PUSH1 0x1F AND DUP3 ADD SWAP2 JUMPDEST POP POP POP POP POP SWAP1 POP SWAP1 JUMP JUMPDEST PUSH1 0x60 DUP1 PUSH0 DUP1 PUSH0 PUSH2 0x289 DUP7 PUSH2 0x450 JUMP JUMPDEST PUSH2 0x2C8 JUMPI PUSH1 0x40 MLOAD PUSH32 0x8C379A000000000000000000000000000000000000000000000000000000000 DUP2 MSTORE PUSH1 0x4 ADD PUSH2 0x2BF SWAP1 PUSH2 0x1132 JUMP JUMPDEST PUSH1 0x40 MLOAD DUP1 SWAP2 SUB SWAP1 REVERT JUMPDEST PUSH0 PUSH1 0x5 PUSH0 DUP9 DUP2 MSTORE PUSH1 0x20 ADD SWAP1 DUP2 MSTORE PUSH1 0x20 ADD PUSH0 KECCAK256 PUSH1 0x40 MLOAD DUP1 PUSH1 0xA0 ADD PUSH1 0x40 MSTORE SWAP1 DUP2 PUSH0 DUP3 ADD DUP1 SLOAD PUSH2 0x2F4 SWAP1 PUSH2 0x10B8 JUMP JUMPDEST DUP1 PUSH1 0x1F ADD PUSH1 0x20 DUP1 SWAP2 DIV MUL PUSH1 0x20 ADD PUSH1 0x40 MLOAD SWAP1 DUP2 ADD PUSH1 0x40 MSTORE DUP1 SWAP3 SWAP2 SWAP1 DUP2 DUP2 MSTORE PUSH1 0x20 ADD DUP3 DUP1 SLOAD PUSH2 0x320 SWAP1 PUSH2 0x10B8 JUMP JUMPDEST DUP1 ISZERO PUSH2 0x36B JUMPI DUP1 PUSH1 0x1F LT PUSH2 0x342 JUMPI PUSH2 0x100 DUP1 DUP4 SLOAD DIV MUL DUP4 MSTORE SWAP2 PUSH1 0x20 ADD SWAP2 PUSH2 0x36B JUMP JUMPDEST DUP3 ADD SWAP2 SWAP1 PUSH0 MSTORE PUSH1 0x20 PUSH0 KECCAK256 SWAP1 JUMPDEST DUP2 SLOAD DUP2 MSTORE SWAP1 PUSH1 0x1 ADD SWAP1 PUSH1 0x20 ADD DUP1 DUP4 GT PUSH2 0x34E JUMPI DUP3 SWAP1 SUB PUSH1 0x1F AND DUP3 ADD SWAP2 JUMPDEST POP POP POP POP POP DUP2 MSTORE PUSH1 0x20 ADD PUSH1 0x1 DUP3 ADD DUP1 SLOAD PUSH2 0x384 SWAP1 PUSH2 0x10B8 JUMP JUMPDEST DUP1 PUSH1 0x1F ADD PUSH1 0x20 DUP1 SWAP2 DIV MUL PUSH1 0x20 ADD PUSH1 0x40 MLOAD SWAP1 DUP2 ADD PUSH1 0x40 MSTORE DUP1 SWAP3 SWAP2 SWAP1 DUP2 DUP2 MSTORE PUSH1 0x20 ADD DUP3 DUP1 SLOAD PUSH2 0x3B0 SWAP1 PUSH2 0x10B8 JUMP JUMPDEST DUP1 ISZERO PUSH2 0x3FB JUMPI DUP1 PUSH1 0x1F LT PUSH2 0x3D2 JUMPI PUSH2 0x100 DUP1 DUP4 SLOAD DIV MUL DUP4 MSTORE SWAP2 PUSH1 0x20 ADD SWAP2 PUSH2 0x3FB JUMP JUMPDEST DUP3 ADD SWAP2 SWAP1 PUSH0 MSTORE PUSH1 0x20 PUSH0 KECCAK256 SWAP1 JUMPDEST DUP2 SLOAD DUP2 MSTORE SWAP1 PUSH1 0x1 ADD SWAP1 PUSH1 0x20 ADD DUP1 DUP4 GT PUSH2 0x3DE JUMPI DUP3 SWAP1 SUB PUSH1 0x1F AND DUP3 ADD SWAP2 JUMPDEST POP POP POP POP POP DUP2 MSTORE PUSH1 0x20 ADD PUSH1 0x2 DUP3 ADD SLOAD DUP2 MSTORE PUSH1 0x20 ADD PUSH1 0x3 DUP3 ADD SLOAD DUP2 MSTORE PUSH1 0x20 ADD PUSH1 0x4 DUP3 ADD SLOAD DUP2 MSTORE POP POP SWAP1 POP DUP1 PUSH0 ADD MLOAD DUP2 PUSH1 0x20 ADD MLOAD DUP3 PUSH1 0x40 ADD MLOAD DUP4 PUSH1 0x60 ADD MLOAD DUP5 PUSH1 0x80 ADD MLOAD SWAP6 POP SWAP6 POP SWAP6 POP SWAP6 POP SWAP6 POP POP SWAP2 SWAP4 SWAP6 SWAP1 SWAP3 SWAP5 POP JUMP JUMPDEST PUSH0 DUP1 PUSH20 0xFFFFFFFFFFFFFFFFFFFFFFFFFFFFFFFFFFFFFFFF AND PUSH0 DUP1 DUP5 DUP2 MSTORE PUSH1 0x20 ADD SWAP1 DUP2 MSTORE PUSH1 0x20 ADD PUSH0 KECCAK256 PUSH0 SWAP1 SLOAD SWAP1 PUSH2 0x100 EXP SWAP1 DIV PUSH20 0xFFFFFFFFFFFFFFFFFFFFFFFFFFFFFFFFFFFFFFFF AND PUSH20 0xFFFFFFFFFFFFFFFFFFFFFFFFFFFFFFFFFFFFFFFF AND EQ ISZERO SWAP1 POP SWAP2 SWAP1 POP JUMP JUMPDEST PUSH0 DUP1 PUSH0 DUP1 DUP5 DUP2 MSTORE PUSH1 0x20 ADD SWAP1 DUP2 MSTORE PUSH1 0x20 ADD PUSH0 KECCAK256 PUSH0 SWAP1 SLOAD SWAP1 PUSH2 0x100 EXP SWAP1 DIV PUSH20 0xFFFFFFFFFFFFFFFFFFFFFFFFFFFFFFFFFFFFFFFF AND SWAP1 POP PUSH0 PUSH20 0xFFFFFFFFFFFFFFFFFFFFFFFFFFFFFFFFFFFFFFFF AND DUP2 PUSH20 0xFFFFFFFFFFFFFFFFFFFFFFFFFFFFFFFFFFFFFFFF AND SUB PUSH2 0x559 JUMPI PUSH1 0x40 MLOAD PUSH32 0x8C379A000000000000000000000000000000000000000000000000000000000 DUP2 MSTORE PUSH1 0x4 ADD PUSH2 0x550 SWAP1 PUSH2 0x1132 JUMP JUMPDEST PUSH1 0x40 MLOAD DUP1 SWAP2 SUB SWAP1 REVERT JUMPDEST DUP1 SWAP2 POP POP SWAP2 SWAP1 POP JUMP JUMPDEST PUSH0 DUP1 PUSH20 0xFFFFFFFFFFFFFFFFFFFFFFFFFFFFFFFFFFFFFFFF AND DUP3 PUSH20 0xFFFFFFFFFFFFFFFFFFFFFFFFFFFFFFFFFFFFFFFF AND SUB PUSH2 0x5D1 JUMPI PUSH1 0x40 MLOAD PUSH32 0x8C379A000000000000000000000000000000000000000000000000000000000 DUP2 MSTORE PUSH1 0x4 ADD PUSH2 0x5C8 SWAP1 PUSH2 0x119A JUMP JUMPDEST PUSH1 0x40 MLOAD DUP1 SWAP2 SUB SWAP1 REVERT JUMPDEST PUSH1 0x1 PUSH0 DUP4 PUSH20 0xFFFFFFFFFFFFFFFFFFFFFFFFFFFFFFFFFFFFFFFF AND PUSH20 0xFFFFFFFFFFFFFFFFFFFFFFFFFFFFFFFFFFFFFFFF AND DUP2 MSTORE PUSH1 0x20 ADD SWAP1 DUP2 MSTORE PUSH1 0x20 ADD PUSH0 KECCAK256 SLOAD SWAP1 POP SWAP2 SWAP1 POP JUMP JUMPDEST PUSH0 PUSH1 0x6 PUSH0 SWAP1 SLOAD SWAP1 PUSH2 0x100 EXP SWAP1 DIV PUSH20 0xFFFFFFFFFFFFFFFFFFFFFFFFFFFFFFFFFFFFFFFF AND PUSH20 0xFFFFFFFFFFFFFFFFFFFFFFFFFFFFFFFFFFFFFFFF AND CALLER PUSH20 0xFFFFFFFFFFFFFFFFFFFFFFFFFFFFFFFFFFFFFFFF AND EQ PUSH2 0x6A6 JUMPI PUSH1 0x40 MLOAD PUSH32 0x8C379A000000000000000000000000000000000000000000000000000000000 DUP2 MSTORE PUSH1 0x4 ADD PUSH2 0x69D SWAP1 PUSH2 0x1202 JUMP JUMPDEST PUSH1 0x40 MLOAD DUP1 SWAP2 SUB SWAP1 REVERT JUMPDEST PUSH0 PUSH20 0xFFFFFFFFFFFFFFFFFFFFFFFFFFFFFFFFFFFFFFFF AND DUP8 PUSH20 0xFFFFFFFFFFFFFFFFFFFFFFFFFFFFFFFFFFFFFFFF AND SUB PUSH2 0x714 JUMPI PUSH1 0x40 MLOAD PUSH32 0x8C379A000000000000000000000000000000000000000000000000000000000 DUP2 MSTORE PUSH1 0x4 ADD PUSH2 0x70B SWAP1 PUSH2 0x126A JUMP JUMPDEST PUSH1 0x40 MLOAD DUP1 SWAP2 SUB SWAP1 REVERT JUMPDEST PUSH1 0x1 PUSH1 0x4 PUSH0 DUP3 DUP3 SLOAD PUSH2 0x726 SWAP2 SWAP1 PUSH2 0x12B5 JUMP JUMPDEST SWAP3 POP POP DUP2 SWAP1 SSTORE POP PUSH0 PUSH1 0x4 SLOAD SWAP1 POP PUSH1 0x1 DUP1 PUSH0 DUP11 PUSH20 0xFFFFFFFFFFFFFFFFFFFFFFFFFFFFFFFFFFFFFFFF AND PUSH20 0xFFFFFFFFFFFFFFFFFFFFFFFFFFFFFFFFFFFFFFFF AND DUP2 MSTORE PUSH1 0x20 ADD SWAP1 DUP2 MSTORE PUSH1 0x20 ADD PUSH0 KECCAK256 PUSH0 DUP3 DUP3 SLOAD PUSH2 0x77F SWAP2 SWAP1 PUSH2 0x12B5 JUMP JUMPDEST SWAP3 POP POP DUP2 SWAP1 SSTORE POP DUP8 PUSH0 DUP1 DUP4 DUP2 MSTORE PUSH1 0x20 ADD SWAP1 DUP2 MSTORE PUSH1 0x20 ADD PUSH0 KECCAK256 PUSH0 PUSH2 0x100 EXP DUP2 SLOAD DUP2 PUSH20 0xFFFFFFFFFFFFFFFFFFFFFFFFFFFFFFFFFFFFFFFF MUL NOT AND SWAP1 DUP4 PUSH20 0xFFFFFFFFFFFFFFFFFFFFFFFFFFFFFFFFFFFFFFFF AND MUL OR SWAP1 SSTORE POP PUSH1 0x40 MLOAD DUP1 PUSH1 0xA0 ADD PUSH1 0x40 MSTORE DUP1 DUP9 DUP2 MSTORE PUSH1 0x20 ADD DUP8 DUP2 MSTORE PUSH1 0x20 ADD DUP7 DUP2 MSTORE PUSH1 0x20 ADD DUP6 DUP2 MSTORE PUSH1 0x20 ADD DUP5 DUP2 MSTORE POP PUSH1 0x5 PUSH0 DUP4 DUP2 MSTORE PUSH1 0x20 ADD SWAP1 DUP2 MSTORE PUSH1 0x20 ADD PUSH0 KECCAK256 PUSH0 DUP3 ADD MLOAD DUP2 PUSH0 ADD SWAP1 DUP2 PUSH2 0x81F SWAP2 SWAP1 PUSH2 0x1485 JUMP JUMPDEST POP PUSH1 0x20 DUP3 ADD MLOAD DUP2 PUSH1 0x1 ADD SWAP1 DUP2 PUSH2 0x835 SWAP2 SWAP1 PUSH2 0x1485 JUMP JUMPDEST POP PUSH1 0x40 DUP3 ADD MLOAD DUP2 PUSH1 0x2 ADD SSTORE PUSH1 0x60 DUP3 ADD MLOAD DUP2 PUSH1 0x3 ADD SSTORE PUSH1 0x80 DUP3 ADD MLOAD DUP2 PUSH1 0x4 ADD SSTORE SWAP1 POP POP DUP1 DUP9 PUSH20 0xFFFFFFFFFFFFFFFFFFFFFFFFFFFFFFFFFFFFFFFF AND PUSH0 PUSH20 0xFFFFFFFFFFFFFFFFFFFFFFFFFFFFFFFFFFFFFFFF AND PUSH32 0xDDF252AD1BE2C89B69C2B068FC378DAA952BA7F163C4A11628F55A4DF523B3EF PUSH1 0x40 MLOAD PUSH1 0x40 MLOAD DUP1 SWAP2 SUB SWAP1 LOG4 DUP1 SWAP2 POP POP SWAP7 SWAP6 POP POP POP POP POP POP JUMP JUMPDEST PUSH0 PUSH2 0x8CA DUP6 PUSH2 0x450 JUMP JUMPDEST PUSH2 0x909 JUMPI PUSH1 0x40 MLOAD PUSH32 0x8C379A000000000000000000000000000000000000000000000000000000000 DUP2 MSTORE PUSH1 0x4 ADD PUSH2 0x900 SWAP1 PUSH2 0x1132 JUMP JUMPDEST PUSH1 0x40 MLOAD DUP1 SWAP2 SUB SWAP1 REVERT JUMPDEST PUSH0 PUSH1 0x5 PUSH0 DUP8 DUP2 MSTORE PUSH1 0x20 ADD SWAP1 DUP2 MSTORE PUSH1 0x20 ADD PUSH0 KECCAK256 PUSH1 0x40 MLOAD DUP1 PUSH1 0xA0 ADD PUSH1 0x40 MSTORE SWAP1 DUP2 PUSH0 DUP3 ADD DUP1 SLOAD PUSH2 0x935 SWAP1 PUSH2 0x10B8 JUMP JUMPDEST DUP1 PUSH1 0x1F ADD PUSH1 0x20 DUP1 SWAP2 DIV MUL PUSH1 0x20 ADD PUSH1 0x40 MLOAD SWAP1 DUP2 ADD PUSH1 0x40 MSTORE DUP1 SWAP3 SWAP2 SWAP1 DUP2 DUP2 MSTORE PUSH1 0x20 ADD DUP3 DUP1 SLOAD PUSH2 0x961 SWAP1 PUSH2 0x10B8 JUMP JUMPDEST DUP1 ISZERO PUSH2 0x9AC JUMPI DUP1 PUSH1 0x1F LT PUSH2 0x983 JUMPI PUSH2 0x100 DUP1 DUP4 SLOAD DIV MUL DUP4 MSTORE SWAP2 PUSH1 0x20 ADD SWAP2 PUSH2 0x9AC JUMP JUMPDEST DUP3 ADD SWAP2 SWAP1 PUSH0 MSTORE PUSH1 0x20 PUSH0 KECCAK256 SWAP1 JUMPDEST DUP2 SLOAD DUP2 MSTORE SWAP1 PUSH1 0x1 ADD SWAP1 PUSH1 0x20 ADD DUP1 DUP4 GT PUSH2 0x98F JUMPI DUP3 SWAP1 SUB PUSH1 0x1F AND DUP3 ADD SWAP2 JUMPDEST POP POP POP POP POP DUP2 MSTORE PUSH1 0x20 ADD PUSH1 0x1 DUP3 ADD DUP1 SLOAD PUSH2 0x9C5 SWAP1 PUSH2 0x10B8 JUMP JUMPDEST DUP1 PUSH1 0x1F ADD PUSH1 0x20 DUP1 SWAP2 DIV MUL PUSH1 0x20 ADD PUSH1 0x40 MLOAD SWAP1 DUP2 ADD PUSH1 0x40 MSTORE DUP1 SWAP3 SWAP2 SWAP1 DUP2 DUP2 MSTORE PUSH1 0x20 ADD DUP3 DUP1 SLOAD PUSH2 0x9F1 SWAP1 PUSH2 0x10B8 JUMP JUMPDEST DUP1 ISZERO PUSH2 0xA3C JUMPI DUP1 PUSH1 0x1F LT PUSH2 0xA13 JUMPI PUSH2 0x100 DUP1 DUP4 SLOAD DIV MUL DUP4 MSTORE SWAP2 PUSH1 0x20 ADD SWAP2 PUSH2 0xA3C JUMP JUMPDEST DUP3 ADD SWAP2 SWAP1 PUSH0 MSTORE PUSH1 0x20 PUSH0 KECCAK256 SWAP1 JUMPDEST DUP2 SLOAD DUP2 MSTORE SWAP1 PUSH1 0x1 ADD SWAP1 PUSH1 0x20 ADD DUP1 DUP4 GT PUSH2 0xA1F JUMPI DUP3 SWAP1 SUB PUSH1 0x1F AND DUP3 ADD SWAP2 JUMPDEST POP POP POP POP POP DUP2 MSTORE PUSH1 0x20 ADD PUSH1 0x2 DUP3 ADD SLOAD DUP2 MSTORE PUSH1 0x20 ADD PUSH1 0x3 DUP3 ADD SLOAD DUP2 MSTORE PUSH1 0x20 ADD PUSH1 0x4 DUP3 ADD SLOAD DUP2 MSTORE POP POP SWAP1 POP PUSH0 PUSH1 0x64 DUP3 PUSH1 0x60 ADD MLOAD PUSH2 0xA77 SWAP2 SWAP1 PUSH2 0x1581 JUMP JUMPDEST SWAP1 POP PUSH0 DUP6 DUP4 PUSH1 0x80 ADD MLOAD GT ISZERO PUSH2 0xAA5 JUMPI PUSH1 0xA DUP7 DUP5 PUSH1 0x80 ADD MLOAD PUSH2 0xA98 SWAP2 SWAP1 PUSH2 0x15B1 JUMP JUMPDEST PUSH2 0xAA2 SWAP2 SWAP1 PUSH2 0x15E4 JUMP JUMPDEST SWAP1 POP JUMPDEST PUSH0 PUSH1 0x64 DUP4 DUP10 PUSH2 0xAB4 SWAP2 SWAP1 PUSH2 0x15E4 JUMP JUMPDEST PUSH2 0xABE SWAP2 SWAP1 PUSH2 0x1581 JUMP JUMPDEST SWAP1 POP PUSH0 PUSH1 0x24 DUP8 LT PUSH2 0xAE9 JUMPI PUSH1 0x64 PUSH1 0x5 DUP6 PUSH2 0xAD8 SWAP2 SWAP1 PUSH2 0x15E4 JUMP JUMPDEST PUSH2 0xAE2 SWAP2 SWAP1 PUSH2 0x1581 JUMP JUMPDEST SWAP1 POP PUSH2 0xB0E JUMP JUMPDEST PUSH1 0x18 DUP8 LT PUSH2 0xB0D JUMPI PUSH1 0x64 PUSH1 0x3 DUP6 PUSH2 0xB00 SWAP2 SWAP1 PUSH2 0x15E4 JUMP JUMPDEST PUSH2 0xB0A SWAP2 SWAP1 PUSH2 0x1581 JUMP JUMPDEST SWAP1 POP JUMPDEST JUMPDEST PUSH0 DUP2 DUP4 DUP6 DUP8 PUSH2 0xB1D SWAP2 SWAP1 PUSH2 0x12B5 JUMP JUMPDEST PUSH2 0xB27 SWAP2 SWAP1 PUSH2 0x15B1 JUMP JUMPDEST PUSH2 0xB31 SWAP2 SWAP1 PUSH2 0x15B1 JUMP JUMPDEST SWAP1 POP DUP1 SWAP7 POP POP POP POP POP POP POP SWAP5 SWAP4 POP POP POP POP JUMP JUMPDEST PUSH1 0x60 PUSH1 0x3 DUP1 SLOAD PUSH2 0xB53 SWAP1 PUSH2 0x10B8 JUMP JUMPDEST DUP1 PUSH1 0x1F ADD PUSH1 0x20 DUP1 SWAP2 DIV MUL PUSH1 0x20 ADD PUSH1 0x40 MLOAD SWAP1 DUP2 ADD PUSH1 0x40 MSTORE DUP1 SWAP3 SWAP2 SWAP1 DUP2 DUP2 MSTORE PUSH1 0x20 ADD DUP3 DUP1 SLOAD PUSH2 0xB7F SWAP1 PUSH2 0x10B8 JUMP JUMPDEST DUP1 ISZERO PUSH2 0xBCA JUMPI DUP1 PUSH1 0x1F LT PUSH2 0xBA1 JUMPI PUSH2 0x100 DUP1 DUP4 SLOAD DIV MUL DUP4 MSTORE SWAP2 PUSH1 0x20 ADD SWAP2 PUSH2 0xBCA JUMP JUMPDEST DUP3 ADD SWAP2 SWAP1 PUSH0 MSTORE PUSH1 0x20 PUSH0 KECCAK256 SWAP1 JUMPDEST DUP2 SLOAD DUP2 MSTORE SWAP1 PUSH1 0x1 ADD SWAP1 PUSH1 0x20 ADD DUP1 DUP4 GT PUSH2 0xBAD JUMPI DUP3 SWAP1 SUB PUSH1 0x1F AND DUP3 ADD SWAP2 JUMPDEST POP POP POP POP POP SWAP1 POP SWAP1 JUMP JUMPDEST PUSH0 DUP2 MLOAD SWAP1 POP SWAP2 SWAP1 POP JUMP JUMPDEST PUSH0 DUP3 DUP3 MSTORE PUSH1 0x20 DUP3 ADD SWAP1 POP SWAP3 SWAP2 POP POP JUMP JUMPDEST DUP3 DUP2 DUP4 MCOPY PUSH0 DUP4 DUP4 ADD MSTORE POP POP POP JUMP JUMPDEST PUSH0 PUSH1 0x1F NOT PUSH1 0x1F DUP4 ADD AND SWAP1 POP SWAP2 SWAP1 POP JUMP JUMPDEST PUSH0 PUSH2 0xC16 DUP3 PUSH2 0xBD4 JUMP JUMPDEST PUSH2 0xC20 DUP2 DUP6 PUSH2 0xBDE JUMP JUMPDEST SWAP4 POP PUSH2 0xC30 DUP2 DUP6 PUSH1 0x20 DUP7 ADD PUSH2 0xBEE JUMP JUMPDEST PUSH2 0xC39 DUP2 PUSH2 0xBFC JUMP JUMPDEST DUP5 ADD SWAP2 POP POP SWAP3 SWAP2 POP POP JUMP JUMPDEST PUSH0 PUSH1 0x20 DUP3 ADD SWAP1 POP DUP2 DUP2 SUB PUSH0 DUP4 ADD MSTORE PUSH2 0xC5C DUP2 DUP5 PUSH2 0xC0C JUMP JUMPDEST SWAP1 POP SWAP3 SWAP2 POP POP JUMP JUMPDEST PUSH0 PUSH1 0x40 MLOAD SWAP1 POP SWAP1 JUMP JUMPDEST PUSH0 DUP1 REVERT JUMPDEST PUSH0 DUP1 REVERT JUMPDEST PUSH0 DUP2 SWAP1 POP SWAP2 SWAP1 POP JUMP JUMPDEST PUSH2 0xC87 DUP2 PUSH2 0xC75 JUMP JUMPDEST DUP2 EQ PUSH2 0xC91 JUMPI PUSH0 DUP1 REVERT JUMPDEST POP JUMP JUMPDEST PUSH0 DUP2 CALLDATALOAD SWAP1 POP PUSH2 0xCA2 DUP2 PUSH2 0xC7E JUMP JUMPDEST SWAP3 SWAP2 POP POP JUMP JUMPDEST PUSH0 PUSH1 0x20 DUP3 DUP5 SUB SLT ISZERO PUSH2 0xCBD JUMPI PUSH2 0xCBC PUSH2 0xC6D JUMP JUMPDEST JUMPDEST PUSH0 PUSH2 0xCCA DUP5 DUP3 DUP6 ADD PUSH2 0xC94 JUMP JUMPDEST SWAP2 POP POP SWAP3 SWAP2 POP POP JUMP JUMPDEST PUSH2 0xCDC DUP2 PUSH2 0xC75 JUMP JUMPDEST DUP3 MSTORE POP POP JUMP JUMPDEST PUSH0 PUSH1 0xA0 DUP3 ADD SWAP1 POP DUP2 DUP2 SUB PUSH0 DUP4 ADD MSTORE PUSH2 0xCFA DUP2 DUP9 PUSH2 0xC0C JUMP JUMPDEST SWAP1 POP DUP2 DUP2 SUB PUSH1 0x20 DUP4 ADD MSTORE PUSH2 0xD0E DUP2 DUP8 PUSH2 0xC0C JUMP JUMPDEST SWAP1 POP PUSH2 0xD1D PUSH1 0x40 DUP4 ADD DUP7 PUSH2 0xCD3 JUMP JUMPDEST PUSH2 0xD2A PUSH1 0x60 DUP4 ADD DUP6 PUSH2 0xCD3 JUMP JUMPDEST PUSH2 0xD37 PUSH1 0x80 DUP4 ADD DUP5 PUSH2 0xCD3 JUMP JUMPDEST SWAP7 SWAP6 POP POP POP POP POP POP JUMP JUMPDEST PUSH0 DUP2 ISZERO ISZERO SWAP1 POP SWAP2 SWAP1 POP JUMP JUMPDEST PUSH2 0xD55 DUP2 PUSH2 0xD41 JUMP JUMPDEST DUP3 MSTORE POP POP JUMP JUMPDEST PUSH0 PUSH1 0x20 DUP3 ADD SWAP1 POP PUSH2 0xD6E PUSH0 DUP4 ADD DUP5 PUSH2 0xD4C JUMP JUMPDEST SWAP3 SWAP2 POP POP JUMP JUMPDEST PUSH0 PUSH20 0xFFFFFFFFFFFFFFFFFFFFFFFFFFFFFFFFFFFFFFFF DUP3 AND SWAP1 POP SWAP2 SWAP1 POP JUMP JUMPDEST PUSH0 PUSH2 0xD9D DUP3 PUSH2 0xD74 JUMP JUMPDEST SWAP1 POP SWAP2 SWAP1 POP JUMP JUMPDEST PUSH2 0xDAD DUP2 PUSH2 0xD93 JUMP JUMPDEST DUP3 MSTORE POP POP JUMP JUMPDEST PUSH0 PUSH1 0x20 DUP3 ADD SWAP1 POP PUSH2 0xDC6 PUSH0 DUP4 ADD DUP5 PUSH2 0xDA4 JUMP JUMPDEST SWAP3 SWAP2 POP POP JUMP JUMPDEST PUSH2 0xDD5 DUP2 PUSH2 0xD93 JUMP JUMPDEST DUP2 EQ PUSH2 0xDDF JUMPI PUSH0 DUP1 REVERT JUMPDEST POP JUMP JUMPDEST PUSH0 DUP2 CALLDATALOAD SWAP1 POP PUSH2 0xDF0 DUP2 PUSH2 0xDCC JUMP JUMPDEST SWAP3 SWAP2 POP POP JUMP JUMPDEST PUSH0 PUSH1 0x20 DUP3 DUP5 SUB SLT ISZERO PUSH2 0xE0B JUMPI PUSH2 0xE0A PUSH2 0xC6D JUMP JUMPDEST JUMPDEST PUSH0 PUSH2 0xE18 DUP5 DUP3 DUP6 ADD PUSH2 0xDE2 JUMP JUMPDEST SWAP2 POP POP SWAP3 SWAP2 POP POP JUMP JUMPDEST PUSH0 PUSH1 0x20 DUP3 ADD SWAP1 POP PUSH2 0xE34 PUSH0 DUP4 ADD DUP5 PUSH2 0xCD3 JUMP JUMPDEST SWAP3 SWAP2 POP POP JUMP JUMPDEST PUSH0 DUP1 REVERT JUMPDEST PUSH0 DUP1 REVERT JUMPDEST PUSH32 0x4E487B7100000000000000000000000000000000000000000000000000000000 PUSH0 MSTORE PUSH1 0x41 PUSH1 0x4 MSTORE PUSH1 0x24 PUSH0 REVERT JUMPDEST PUSH2 0xE78 DUP3 PUSH2 0xBFC JUMP JUMPDEST DUP2 ADD DUP2 DUP2 LT PUSH8 0xFFFFFFFFFFFFFFFF DUP3 GT OR ISZERO PUSH2 0xE97 JUMPI PUSH2 0xE96 PUSH2 0xE42 JUMP JUMPDEST JUMPDEST DUP1 PUSH1 0x40 MSTORE POP POP POP JUMP JUMPDEST PUSH0 PUSH2 0xEA9 PUSH2 0xC64 JUMP JUMPDEST SWAP1 POP PUSH2 0xEB5 DUP3 DUP3 PUSH2 0xE6F JUMP JUMPDEST SWAP2 SWAP1 POP JUMP JUMPDEST PUSH0 PUSH8 0xFFFFFFFFFFFFFFFF DUP3 GT ISZERO PUSH2 0xED4 JUMPI PUSH2 0xED3 PUSH2 0xE42 JUMP JUMPDEST JUMPDEST PUSH2 0xEDD DUP3 PUSH2 0xBFC JUMP JUMPDEST SWAP1 POP PUSH1 0x20 DUP2 ADD SWAP1 POP SWAP2 SWAP1 POP JUMP JUMPDEST DUP3 DUP2 DUP4 CALLDATACOPY PUSH0 DUP4 DUP4 ADD MSTORE POP POP POP JUMP JUMPDEST PUSH0 PUSH2 0xF0A PUSH2 0xF05 DUP5 PUSH2 0xEBA JUMP JUMPDEST PUSH2 0xEA0 JUMP JUMPDEST SWAP1 POP DUP3 DUP2 MSTORE PUSH1 0x20 DUP2 ADD DUP5 DUP5 DUP5 ADD GT ISZERO PUSH2 0xF26 JUMPI PUSH2 0xF25 PUSH2 0xE3E JUMP JUMPDEST JUMPDEST PUSH2 0xF31 DUP5 DUP3 DUP6 PUSH2 0xEEA JUMP JUMPDEST POP SWAP4 SWAP3 POP POP POP JUMP JUMPDEST PUSH0 DUP3 PUSH1 0x1F DUP4 ADD SLT PUSH2 0xF4D JUMPI PUSH2 0xF4C PUSH2 0xE3A JUMP JUMPDEST JUMPDEST DUP2 CALLDATALOAD PUSH2 0xF5D DUP5 DUP3 PUSH1 0x20 DUP7 ADD PUSH2 0xEF8 JUMP JUMPDEST SWAP2 POP POP SWAP3 SWAP2 POP POP JUMP JUMPDEST PUSH0 DUP1 PUSH0 DUP1 PUSH0 DUP1 PUSH1 0xC0 DUP8 DUP10 SUB SLT ISZERO PUSH2 0xF80 JUMPI PUSH2 0xF7F PUSH2 0xC6D JUMP JUMPDEST JUMPDEST PUSH0 PUSH2 0xF8D DUP10 DUP3 DUP11 ADD PUSH2 0xDE2 JUMP JUMPDEST SWAP7 POP POP PUSH1 0x20 DUP8 ADD CALLDATALOAD PUSH8 0xFFFFFFFFFFFFFFFF DUP2 GT ISZERO PUSH2 0xFAE JUMPI PUSH2 0xFAD PUSH2 0xC71 JUMP JUMPDEST JUMPDEST PUSH2 0xFBA DUP10 DUP3 DUP11 ADD PUSH2 0xF39 JUMP JUMPDEST SWAP6 POP POP PUSH1 0x40 DUP8 ADD CALLDATALOAD PUSH8 0xFFFFFFFFFFFFFFFF DUP2 GT ISZERO PUSH2 0xFDB JUMPI PUSH2 0xFDA PUSH2 0xC71 JUMP JUMPDEST JUMPDEST PUSH2 0xFE7 DUP10 DUP3 DUP11 ADD PUSH2 0xF39 JUMP JUMPDEST SWAP5 POP POP PUSH1 0x60 PUSH2 0xFF8 DUP10 DUP3 DUP11 ADD PUSH2 0xC94 JUMP JUMPDEST SWAP4 POP POP PUSH1 0x80 PUSH2 0x1009 DUP10 DUP3 DUP11 ADD PUSH2 0xC94 JUMP JUMPDEST SWAP3 POP POP PUSH1 0xA0 PUSH2 0x101A DUP10 DUP3 DUP11 ADD PUSH2 0xC94 JUMP JUMPDEST SWAP2 POP POP SWAP3 SWAP6 POP SWAP3 SWAP6 POP SWAP3 SWAP6 JUMP JUMPDEST PUSH0 DUP1 PUSH0 DUP1 PUSH1 0x80 DUP6 DUP8 SUB SLT ISZERO PUSH2 0x103F JUMPI PUSH2 0x103E PUSH2 0xC6D JUMP JUMPDEST JUMPDEST PUSH0 PUSH2 0x104C DUP8 DUP3 DUP9 ADD PUSH2 0xC94 JUMP JUMPDEST SWAP5 POP POP PUSH1 0x20 PUSH2 0x105D DUP8 DUP3 DUP9 ADD PUSH2 0xC94 JUMP JUMPDEST SWAP4 POP POP PUSH1 0x40 PUSH2 0x106E DUP8 DUP3 DUP9 ADD PUSH2 0xC94 JUMP JUMPDEST SWAP3 POP POP PUSH1 0x60 PUSH2 0x107F DUP8 DUP3 DUP9 ADD PUSH2 0xC94 JUMP JUMPDEST SWAP2 POP POP SWAP3 SWAP6 SWAP2 SWAP5 POP SWAP3 POP JUMP JUMPDEST PUSH32 0x4E487B7100000000000000000000000000000000000000000000000000000000 PUSH0 MSTORE PUSH1 0x22 PUSH1 0x4 MSTORE PUSH1 0x24 PUSH0 REVERT JUMPDEST PUSH0 PUSH1 0x2 DUP3 DIV SWAP1 POP PUSH1 0x1 DUP3 AND DUP1 PUSH2 0x10CF JUMPI PUSH1 0x7F DUP3 AND SWAP2 POP JUMPDEST PUSH1 0x20 DUP3 LT DUP2 SUB PUSH2 0x10E2 JUMPI PUSH2 0x10E1 PUSH2 0x108B JUMP JUMPDEST JUMPDEST POP SWAP2 SWAP1 POP JUMP JUMPDEST PUSH32 0x546F6B656E20494420646F6573206E6F74206578697374000000000000000000 PUSH0 DUP3 ADD MSTORE POP JUMP JUMPDEST PUSH0 PUSH2 0x111C PUSH1 0x17 DUP4 PUSH2 0xBDE JUMP JUMPDEST SWAP2 POP PUSH2 0x1127 DUP3 PUSH2 0x10E8 JUMP JUMPDEST PUSH1 0x20 DUP3 ADD SWAP1 POP SWAP2 SWAP1 POP JUMP JUMPDEST PUSH0 PUSH1 0x20 DUP3 ADD SWAP1 POP DUP2 DUP2 SUB PUSH0 DUP4 ADD MSTORE PUSH2 0x1149 DUP2 PUSH2 0x1110 JUMP JUMPDEST SWAP1 POP SWAP2 SWAP1 POP JUMP JUMPDEST PUSH32 0x496E76616C696420616464726573730000000000000000000000000000000000 PUSH0 DUP3 ADD MSTORE POP JUMP JUMPDEST PUSH0 PUSH2 0x1184 PUSH1 0xF DUP4 PUSH2 0xBDE JUMP JUMPDEST SWAP2 POP PUSH2 0x118F DUP3 PUSH2 0x1150 JUMP JUMPDEST PUSH1 0x20 DUP3 ADD SWAP1 POP SWAP2 SWAP1 POP JUMP JUMPDEST PUSH0 PUSH1 0x20 DUP3 ADD SWAP1 POP DUP2 DUP2 SUB PUSH0 DUP4 ADD MSTORE PUSH2 0x11B1 DUP2 PUSH2 0x1178 JUMP JUMPDEST SWAP1 POP SWAP2 SWAP1 POP JUMP JUMPDEST PUSH32 0x43616C6C6572206973206E6F742074686520636F6E7472616374206F776E6572 PUSH0 DUP3 ADD MSTORE POP JUMP JUMPDEST PUSH0 PUSH2 0x11EC PUSH1 0x20 DUP4 PUSH2 0xBDE JUMP JUMPDEST SWAP2 POP PUSH2 0x11F7 DUP3 PUSH2 0x11B8 JUMP JUMPDEST PUSH1 0x20 DUP3 ADD SWAP1 POP SWAP2 SWAP1 POP JUMP JUMPDEST PUSH0 PUSH1 0x20 DUP3 ADD SWAP1 POP DUP2 DUP2 SUB PUSH0 DUP4 ADD MSTORE PUSH2 0x1219 DUP2 PUSH2 0x11E0 JUMP JUMPDEST SWAP1 POP SWAP2 SWAP1 POP JUMP JUMPDEST PUSH32 0x4D696E7420746F207A65726F2061646472657373000000000000000000000000 PUSH0 DUP3 ADD MSTORE POP JUMP JUMPDEST PUSH0 PUSH2 0x1254 PUSH1 0x14 DUP4 PUSH2 0xBDE JUMP JUMPDEST SWAP2 POP PUSH2 0x125F DUP3 PUSH2 0x1220 JUMP JUMPDEST PUSH1 0x20 DUP3 ADD SWAP1 POP SWAP2 SWAP1 POP JUMP JUMPDEST PUSH0 PUSH1 0x20 DUP3 ADD SWAP1 POP DUP2 DUP2 SUB PUSH0 DUP4 ADD MSTORE PUSH2 0x1281 DUP2 PUSH2 0x1248 JUMP JUMPDEST SWAP1 POP SWAP2 SWAP1 POP JUMP JUMPDEST PUSH32 0x4E487B7100000000000000000000000000000000000000000000000000000000 PUSH0 MSTORE PUSH1 0x11 PUSH1 0x4 MSTORE PUSH1 0x24 PUSH0 REVERT JUMPDEST PUSH0 PUSH2 0x12BF DUP3 PUSH2 0xC75 JUMP JUMPDEST SWAP2 POP PUSH2 0x12CA DUP4 PUSH2 0xC75 JUMP JUMPDEST SWAP3 POP DUP3 DUP3 ADD SWAP1 POP DUP1 DUP3 GT ISZERO PUSH2 0x12E2 JUMPI PUSH2 0x12E1 PUSH2 0x1288 JUMP JUMPDEST JUMPDEST SWAP3 SWAP2 POP POP JUMP JUMPDEST PUSH0 DUP2 SWAP1 POP DUP2 PUSH0 MSTORE PUSH1 0x20 PUSH0 KECCAK256 SWAP1 POP SWAP2 SWAP1 POP JUMP JUMPDEST PUSH0 PUSH1 0x20 PUSH1 0x1F DUP4 ADD DIV SWAP1 POP SWAP2 SWAP1 POP JUMP JUMPDEST PUSH0 DUP3 DUP3 SHL SWAP1 POP SWAP3 SWAP2 POP POP JUMP JUMPDEST PUSH0 PUSH1 0x8 DUP4 MUL PUSH2 0x1344 PUSH32 0xFFFFFFFFFFFFFFFFFFFFFFFFFFFFFFFFFFFFFFFFFFFFFFFFFFFFFFFFFFFFFFFF DUP3 PUSH2 0x1309 JUMP JUMPDEST PUSH2 0x134E DUP7 DUP4 PUSH2 0x1309 JUMP JUMPDEST SWAP6 POP DUP1 NOT DUP5 AND SWAP4 POP DUP1 DUP7 AND DUP5 OR SWAP3 POP POP POP SWAP4 SWAP3 POP POP POP JUMP JUMPDEST PUSH0 DUP2 SWAP1 POP SWAP2 SWAP1 POP JUMP JUMPDEST PUSH0 PUSH2 0x1389 PUSH2 0x1384 PUSH2 0x137F DUP5 PUSH2 0xC75 JUMP JUMPDEST PUSH2 0x1366 JUMP JUMPDEST PUSH2 0xC75 JUMP JUMPDEST SWAP1 POP SWAP2 SWAP1 POP JUMP JUMPDEST PUSH0 DUP2 SWAP1 POP SWAP2 SWAP1 POP JUMP JUMPDEST PUSH2 0x13A2 DUP4 PUSH2 0x136F JUMP JUMPDEST PUSH2 0x13B6 PUSH2 0x13AE DUP3 PUSH2 0x1390 JUMP JUMPDEST DUP5 DUP5 SLOAD PUSH2 0x1315 JUMP JUMPDEST DUP3 SSTORE POP POP POP POP JUMP JUMPDEST PUSH0 SWAP1 JUMP JUMPDEST PUSH2 0x13CA PUSH2 0x13BE JUMP JUMPDEST PUSH2 0x13D5 DUP2 DUP5 DUP5 PUSH2 0x1399 JUMP JUMPDEST POP POP POP JUMP JUMPDEST JUMPDEST DUP2 DUP2 LT ISZERO PUSH2 0x13F8 JUMPI PUSH2 0x13ED PUSH0 DUP3 PUSH2 0x13C2 JUMP JUMPDEST PUSH1 0x1 DUP2 ADD SWAP1 POP PUSH2 0x13DB JUMP JUMPDEST POP POP JUMP JUMPDEST PUSH1 0x1F DUP3 GT ISZERO PUSH2 0x143D JUMPI PUSH2 0x140E DUP2 PUSH2 0x12E8 JUMP JUMPDEST PUSH2 0x1417 DUP5 PUSH2 0x12FA JUMP JUMPDEST DUP2 ADD PUSH1 0x20 DUP6 LT ISZERO PUSH2 0x1426 JUMPI DUP2 SWAP1 POP JUMPDEST PUSH2 0x143A PUSH2 0x1432 DUP6 PUSH2 0x12FA JUMP JUMPDEST DUP4 ADD DUP3 PUSH2 0x13DA JUMP JUMPDEST POP POP JUMPDEST POP POP POP JUMP JUMPDEST PUSH0 DUP3 DUP3 SHR SWAP1 POP SWAP3 SWAP2 POP POP JUMP JUMPDEST PUSH0 PUSH2 0x145D PUSH0 NOT DUP5 PUSH1 0x8 MUL PUSH2 0x1442 JUMP JUMPDEST NOT DUP1 DUP4 AND SWAP2 POP POP SWAP3 SWAP2 POP POP JUMP JUMPDEST PUSH0 PUSH2 0x1475 DUP4 DUP4 PUSH2 0x144E JUMP JUMPDEST SWAP2 POP DUP3 PUSH1 0x2 MUL DUP3 OR SWAP1 POP SWAP3 SWAP2 POP POP JUMP JUMPDEST PUSH2 0x148E DUP3 PUSH2 0xBD4 JUMP JUMPDEST PUSH8 0xFFFFFFFFFFFFFFFF DUP2 GT ISZERO PUSH2 0x14A7 JUMPI PUSH2 0x14A6 PUSH2 0xE42 JUMP JUMPDEST JUMPDEST PUSH2 0x14B1 DUP3 SLOAD PUSH2 0x10B8 JUMP JUMPDEST PUSH2 0x14BC DUP3 DUP3 DUP6 PUSH2 0x13FC JUMP JUMPDEST PUSH0 PUSH1 0x20 SWAP1 POP PUSH1 0x1F DUP4 GT PUSH1 0x1 DUP2 EQ PUSH2 0x14ED JUMPI PUSH0 DUP5 ISZERO PUSH2 0x14DB JUMPI DUP3 DUP8 ADD MLOAD SWAP1 POP JUMPDEST PUSH2 0x14E5 DUP6 DUP3 PUSH2 0x146A JUMP JUMPDEST DUP7 SSTORE POP PUSH2 0x154C JUMP JUMPDEST PUSH1 0x1F NOT DUP5 AND PUSH2 0x14FB DUP7 PUSH2 0x12E8 JUMP JUMPDEST PUSH0 JUMPDEST DUP3 DUP2 LT ISZERO PUSH2 0x1522 JUMPI DUP5 DUP10 ADD MLOAD DUP3 SSTORE PUSH1 0x1 DUP3 ADD SWAP2 POP PUSH1 0x20 DUP6 ADD SWAP5 POP PUSH1 0x20 DUP2 ADD SWAP1 POP PUSH2 0x14FD JUMP JUMPDEST DUP7 DUP4 LT ISZERO PUSH2 0x153F JUMPI DUP5 DUP10 ADD MLOAD PUSH2 0x153B PUSH1 0x1F DUP10 AND DUP3 PUSH2 0x144E JUMP JUMPDEST DUP4 SSTORE POP JUMPDEST PUSH1 0x1 PUSH1 0x2 DUP9 MUL ADD DUP9 SSTORE POP POP POP JUMPDEST POP POP POP POP POP POP JUMP JUMPDEST PUSH32 0x4E487B7100000000000000000000000000000000000000000000000000000000 PUSH0 MSTORE PUSH1 0x12 PUSH1 0x4 MSTORE PUSH1 0x24 PUSH0 REVERT JUMPDEST PUSH0 PUSH2 0x158B DUP3 PUSH2 0xC75 JUMP JUMPDEST SWAP2 POP PUSH2 0x1596 DUP4 PUSH2 0xC75 JUMP JUMPDEST SWAP3 POP DUP3 PUSH2 0x15A6 JUMPI PUSH2 0x15A5 PUSH2 0x1554 JUMP JUMPDEST JUMPDEST DUP3 DUP3 DIV SWAP1 POP SWAP3 SWAP2 POP POP JUMP JUMPDEST PUSH0 PUSH2 0x15BB DUP3 PUSH2 0xC75 JUMP JUMPDEST SWAP2 POP PUSH2 0x15C6 DUP4 PUSH2 0xC75 JUMP JUMPDEST SWAP3 POP DUP3 DUP3 SUB SWAP1 POP DUP2 DUP2 GT ISZERO PUSH2 0x15DE JUMPI PUSH2 0x15DD PUSH2 0x1288 JUMP JUMPDEST JUMPDEST SWAP3 SWAP2 POP POP JUMP JUMPDEST PUSH0 PUSH2 0x15EE DUP3 PUSH2 0xC75 JUMP JUMPDEST SWAP2 POP PUSH2 0x15F9 DUP4 PUSH2 0xC75 JUMP JUMPDEST SWAP3 POP DUP3 DUP3 MUL PUSH2 0x1607 DUP2 PUSH2 0xC75 JUMP JUMPDEST SWAP2 POP DUP3 DUP3 DIV DUP5 EQ DUP4 ISZERO OR PUSH2 0x161E JUMPI PUSH2 0x161D PUSH2 0x1288 JUMP JUMPDEST JUMPDEST POP SWAP3 SWAP2 POP POP JUMP INVALID LOG2 PUSH5 0x6970667358 0x22 SLT KECCAK256 PUSH32 0xBDDEBCE4180E65D56DBF77E7269B90C47B61E36A3BA3B1DAE270525F6D34AF64 PUSH20 0x6F6C634300081A00330000000000000000000000 "
		},
		"gasEstimates": {
			"creation": {
				"codeDepositCost": "1144600",
				"executionCost": "infinite",
				"totalCost": "infinite"
			},
			"external": {
				"balanceOf(address)": "2864",
				"computeMonthlyQuota(uint256,uint256,uint256,uint256)": "infinite",
				"exists(uint256)": "2876",
				"getCarDetails(uint256)": "infinite",
				"mintCar(address,string,string,uint256,uint256,uint256)": "infinite",
				"name()": "infinite",
				"ownerOf(uint256)": "3008",
				"symbol()": "infinite"
			}
		},
		"methodIdentifiers": {
			"balanceOf(address)": "70a08231",
			"computeMonthlyQuota(uint256,uint256,uint256,uint256)": "77f110bc",
			"exists(uint256)": "4f558e79",
			"getCarDetails(uint256)": "472ec454",
			"mintCar(address,string,string,uint256,uint256,uint256)": "75bb48fe",
			"name()": "06fdde03",
			"ownerOf(uint256)": "6352211e",
			"symbol()": "95d89b41"
		}
	},
	"abi": [
		{
			"inputs": [],
			"stateMutability": "nonpayable",
			"type": "constructor"
		},
		{
			"anonymous": false,
			"inputs": [
				{
					"indexed": true,
					"internalType": "address",
					"name": "from",
					"type": "address"
				},
				{
					"indexed": true,
					"internalType": "address",
					"name": "to",
					"type": "address"
				},
				{
					"indexed": true,
					"internalType": "uint256",
					"name": "tokenId",
					"type": "uint256"
				}
			],
			"name": "Transfer",
			"type": "event"
		},
		{
			"inputs": [
				{
					"internalType": "address",
					"name": "ownerAddress",
					"type": "address"
				}
			],
			"name": "balanceOf",
			"outputs": [
				{
					"internalType": "uint256",
					"name": "",
					"type": "uint256"
				}
			],
			"stateMutability": "view",
			"type": "function"
		},
		{
			"inputs": [
				{
					"internalType": "uint256",
					"name": "tokenId",
					"type": "uint256"
				},
				{
					"internalType": "uint256",
					"name": "driverExperience",
					"type": "uint256"
				},
				{
					"internalType": "uint256",
					"name": "mileageCap",
					"type": "uint256"
				},
				{
					"internalType": "uint256",
					"name": "contractDuration",
					"type": "uint256"
				}
			],
			"name": "computeMonthlyQuota",
			"outputs": [
				{
					"internalType": "uint256",
					"name": "",
					"type": "uint256"
				}
			],
			"stateMutability": "view",
			"type": "function"
		},
		{
			"inputs": [
				{
					"internalType": "uint256",
					"name": "tokenId",
					"type": "uint256"
				}
			],
			"name": "exists",
			"outputs": [
				{
					"internalType": "bool",
					"name": "",
					"type": "bool"
				}
			],
			"stateMutability": "view",
			"type": "function"
		},
		{
			"inputs": [
				{
					"internalType": "uint256",
					"name": "tokenId",
					"type": "uint256"
				}
			],
			"name": "getCarDetails",
			"outputs": [
				{
					"internalType": "string",
					"name": "model",
					"type": "string"
				},
				{
					"internalType": "string",
					"name": "color",
					"type": "string"
				},
				{
					"internalType": "uint256",
					"name": "yearOfMatriculation",
					"type": "uint256"
				},
				{
					"internalType": "uint256",
					"name": "originalValue",
					"type": "uint256"
				},
				{
					"internalType": "uint256",
					"name": "currentMileage",
					"type": "uint256"
				}
			],
			"stateMutability": "view",
			"type": "function"
		},
		{
			"inputs": [
				{
					"internalType": "address",
					"name": "to",
					"type": "address"
				},
				{
					"internalType": "string",
					"name": "model",
					"type": "string"
				},
				{
					"internalType": "string",
					"name": "color",
					"type": "string"
				},
				{
					"internalType": "uint256",
					"name": "yearOfMatriculation",
					"type": "uint256"
				},
				{
					"internalType": "uint256",
					"name": "originalValue",
					"type": "uint256"
				},
				{
					"internalType": "uint256",
					"name": "currentMileage",
					"type": "uint256"
				}
			],
			"name": "mintCar",
			"outputs": [
				{
					"internalType": "uint256",
					"name": "",
					"type": "uint256"
				}
			],
			"stateMutability": "nonpayable",
			"type": "function"
		},
		{
			"inputs": [],
			"name": "name",
			"outputs": [
				{
					"internalType": "string",
					"name": "",
					"type": "string"
				}
			],
			"stateMutability": "view",
			"type": "function"
		},
		{
			"inputs": [
				{
					"internalType": "uint256",
					"name": "tokenId",
					"type": "uint256"
				}
			],
			"name": "ownerOf",
			"outputs": [
				{
					"internalType": "address",
					"name": "",
					"type": "address"
				}
			],
			"stateMutability": "view",
			"type": "function"
		},
		{
			"inputs": [],
			"name": "symbol",
			"outputs": [
				{
					"internalType": "string",
					"name": "",
					"type": "string"
				}
			],
			"stateMutability": "view",
			"type": "function"
		}
	]
}