{
	"data": {
		"bytecode": {
			"linkReferences": {},
			"object": "60806040525f80553480156011575f80fd5b506101c68061001f5f395ff3fe608060405234801561000f575f80fd5b506004361061003f575f3560e01c80635b34b96614610043578063a87d942c1461004d578063f5c5ad831461006b575b5f80fd5b61004b610075565b005b61005561008f565b60405161006291906100c9565b60405180910390f35b610073610097565b005b60015f80828254610086919061010f565b92505081905550565b5f8054905090565b60015f808282546100a89190610150565b92505081905550565b5f819050919050565b6100c3816100b1565b82525050565b5f6020820190506100dc5f8301846100ba565b92915050565b7f4e487b71000000000000000000000000000000000000000000000000000000005f52601160045260245ffd5b5f610119826100b1565b9150610124836100b1565b92508282019050828112155f8312168382125f84121516171561014a576101496100e2565b5b92915050565b5f61015a826100b1565b9150610165836100b1565b925082820390508181125f8412168282135f85121516171561018a576101896100e2565b5b9291505056fea26469706673582212203c9bd3916765f239d3f28007149017c87d5ac8a97735ed3c022152001901a79564736f6c634300081a0033",
			"opcodes": "PUSH1 0x80 PUSH1 0x40 MSTORE PUSH0 DUP1 SSTORE CALLVALUE DUP1 ISZERO PUSH1 0x11 JUMPI PUSH0 DUP1 REVERT JUMPDEST POP PUSH2 0x1C6 DUP1 PUSH2 0x1F PUSH0 CODECOPY PUSH0 RETURN INVALID PUSH1 0x80 PUSH1 0x40 MSTORE CALLVALUE DUP1 ISZERO PUSH2 0xF JUMPI PUSH0 DUP1 REVERT JUMPDEST POP PUSH1 0x4 CALLDATASIZE LT PUSH2 0x3F JUMPI PUSH0 CALLDATALOAD PUSH1 0xE0 SHR DUP1 PUSH4 0x5B34B966 EQ PUSH2 0x43 JUMPI DUP1 PUSH4 0xA87D942C EQ PUSH2 0x4D JUMPI DUP1 PUSH4 0xF5C5AD83 EQ PUSH2 0x6B JUMPI JUMPDEST PUSH0 DUP1 REVERT JUMPDEST PUSH2 0x4B PUSH2 0x75 JUMP JUMPDEST STOP JUMPDEST PUSH2 0x55 PUSH2 0x8F JUMP JUMPDEST PUSH1 0x40 MLOAD PUSH2 0x62 SWAP2 SWAP1 PUSH2 0xC9 JUMP JUMPDEST PUSH1 0x40 MLOAD DUP1 SWAP2 SUB SWAP1 RETURN JUMPDEST PUSH2 0x73 PUSH2 0x97 JUMP JUMPDEST STOP JUMPDEST PUSH1 0x1 PUSH0 DUP1 DUP3 DUP3 SLOAD PUSH2 0x86 SWAP2 SWAP1 PUSH2 0x10F JUMP JUMPDEST SWAP3 POP POP DUP2 SWAP1 SSTORE POP JUMP JUMPDEST PUSH0 DUP1 SLOAD SWAP1 POP SWAP1 JUMP JUMPDEST PUSH1 0x1 PUSH0 DUP1 DUP3 DUP3 SLOAD PUSH2 0xA8 SWAP2 SWAP1 PUSH2 0x150 JUMP JUMPDEST SWAP3 POP POP DUP2 SWAP1 SSTORE POP JUMP JUMPDEST PUSH0 DUP2 SWAP1 POP SWAP2 SWAP1 POP JUMP JUMPDEST PUSH2 0xC3 DUP2 PUSH2 0xB1 JUMP JUMPDEST DUP3 MSTORE POP POP JUMP JUMPDEST PUSH0 PUSH1 0x20 DUP3 ADD SWAP1 POP PUSH2 0xDC PUSH0 DUP4 ADD DUP5 PUSH2 0xBA JUMP JUMPDEST SWAP3 SWAP2 POP POP JUMP JUMPDEST PUSH32 0x4E487B7100000000000000000000000000000000000000000000000000000000 PUSH0 MSTORE PUSH1 0x11 PUSH1 0x4 MSTORE PUSH1 0x24 PUSH0 REVERT JUMPDEST PUSH0 PUSH2 0x119 DUP3 PUSH2 0xB1 JUMP JUMPDEST SWAP2 POP PUSH2 0x124 DUP4 PUSH2 0xB1 JUMP JUMPDEST SWAP3 POP DUP3 DUP3 ADD SWAP1 POP DUP3 DUP2 SLT ISZERO PUSH0 DUP4 SLT AND DUP4 DUP3 SLT PUSH0 DUP5 SLT ISZERO AND OR ISZERO PUSH2 0x14A JUMPI PUSH2 0x149 PUSH2 0xE2 JUMP JUMPDEST JUMPDEST SWAP3 SWAP2 POP POP JUMP JUMPDEST PUSH0 PUSH2 0x15A DUP3 PUSH2 0xB1 JUMP JUMPDEST SWAP2 POP PUSH2 0x165 DUP4 PUSH2 0xB1 JUMP JUMPDEST SWAP3 POP DUP3 DUP3 SUB SWAP1 POP DUP2 DUP2 SLT PUSH0 DUP5 SLT AND DUP3 DUP3 SGT PUSH0 DUP6 SLT ISZERO AND OR ISZERO PUSH2 0x18A JUMPI PUSH2 0x189 PUSH2 0xE2 JUMP JUMPDEST JUMPDEST SWAP3 SWAP2 POP POP JUMP INVALID LOG2 PUSH5 0x6970667358 0x22 SLT KECCAK256 EXTCODECOPY SWAP12 0xD3 SWAP2 PUSH8 0x65F239D3F2800714 SWAP1 OR 0xC8 PUSH30 0x5AC8A97735ED3C022152001901A79564736F6C634300081A003300000000 "
		},
		"gasEstimates": {
			"creation": {
				"codeDepositCost": "90800",
				"executionCost": "5144",
				"totalCost": "95944"
			},
			"external": {
				"decrementCounter()": "infinite",
				"getCount()": "2432",
				"incrementCounter()": "infinite"
			}
		},
		"methodIdentifiers": {
			"decrementCounter()": "f5c5ad83",
			"getCount()": "a87d942c",
			"incrementCounter()": "5b34b966"
		}
	},
	"abi": [
		{
			"inputs": [],
			"name": "decrementCounter",
			"outputs": [],
			"stateMutability": "nonpayable",
			"type": "function"
		},
		{
			"inputs": [],
			"name": "getCount",
			"outputs": [
				{
					"internalType": "int256",
					"name": "",
					"type": "int256"
				}
			],
			"stateMutability": "view",
			"type": "function"
		},
		{
			"inputs": [],
			"name": "incrementCounter",
			"outputs": [],
			"stateMutability": "nonpayable",
			"type": "function"
		}
	]
}